{
	"Contracts/ProfileRegister.sol": {
		"ProfileRegistry": {
			"abi": [
				{
					"anonymous": false,
					"inputs": [
						{
							"indexed": true,
							"internalType": "address",
							"name": "user",
							"type": "address"
						},
						{
							"indexed": false,
							"internalType": "string",
							"name": "cid",
							"type": "string"
						}
					],
					"name": "ProfileCreated",
					"type": "event"
				},
				{
					"anonymous": false,
					"inputs": [
						{
							"indexed": true,
							"internalType": "address",
							"name": "user",
							"type": "address"
						},
						{
							"indexed": false,
							"internalType": "string",
							"name": "oldCid",
							"type": "string"
						},
						{
							"indexed": false,
							"internalType": "string",
							"name": "newCid",
							"type": "string"
						}
					],
					"name": "ProfileUpdated",
					"type": "event"
				},
				{
					"inputs": [],
					"name": "UPDATE_COOLDOWN",
					"outputs": [
						{
							"internalType": "uint256",
							"name": "",
							"type": "uint256"
						}
					],
					"stateMutability": "view",
					"type": "function"
				},
				{
					"inputs": [
						{
							"internalType": "string",
							"name": "cid",
							"type": "string"
						}
					],
					"name": "createProfile",
					"outputs": [],
					"stateMutability": "nonpayable",
					"type": "function"
				},
				{
					"inputs": [
						{
							"internalType": "address",
							"name": "user",
							"type": "address"
						}
					],
					"name": "getProfile",
					"outputs": [
						{
							"internalType": "string",
							"name": "",
							"type": "string"
						}
					],
					"stateMutability": "view",
					"type": "function"
				},
				{
					"inputs": [
						{
							"internalType": "address",
							"name": "",
							"type": "address"
						}
					],
					"name": "hasProfile",
					"outputs": [
						{
							"internalType": "bool",
							"name": "",
							"type": "bool"
						}
					],
					"stateMutability": "view",
					"type": "function"
				},
				{
					"inputs": [
						{
							"internalType": "address",
							"name": "",
							"type": "address"
						}
					],
					"name": "lastUpdated",
					"outputs": [
						{
							"internalType": "uint256",
							"name": "",
							"type": "uint256"
						}
					],
					"stateMutability": "view",
					"type": "function"
				},
				{
					"inputs": [
						{
							"internalType": "string",
							"name": "newCid",
							"type": "string"
						}
					],
					"name": "updateProfile",
					"outputs": [],
					"stateMutability": "nonpayable",
					"type": "function"
				}
			],
			"devdoc": {
				"author": "OpenForge",
				"details": "This contract is intentionally minimal and neutral",
				"kind": "dev",
				"methods": {
					"createProfile(string)": {
						"params": {
							"cid": "IPFS/Arweave CID pointing to profile metadata JSON"
						}
					},
					"getProfile(address)": {
						"params": {
							"user": "Wallet address"
						}
					},
					"updateProfile(string)": {
						"params": {
							"newCid": "New IPFS/Arweave CID"
						}
					}
				},
				"stateVariables": {
					"_profileCID": {
						"details": "Wallet => profile metadata CID"
					},
					"hasProfile": {
						"details": "Wallet => profile existence"
					},
					"lastUpdated": {
						"details": "Wallet => last update timestamp"
					}
				},
				"title": "ProfileRegistry",
				"version": 1
			},
			"evm": {
				"assembly": "    /* \"Contracts/ProfileRegister.sol\":265:2938  contract ProfileRegistry {... */\n  mstore(0x40, 0x80)\n  callvalue\n  dup1\n  iszero\n  tag_1\n  jumpi\n  revert(0x00, 0x00)\ntag_1:\n  pop\n  dataSize(sub_0)\n  dup1\n  dataOffset(sub_0)\n  0x00\n  codecopy\n  0x00\n  return\nstop\n\nsub_0: assembly {\n        /* \"Contracts/ProfileRegister.sol\":265:2938  contract ProfileRegistry {... */\n      mstore(0x40, 0x80)\n      callvalue\n      dup1\n      iszero\n      tag_1\n      jumpi\n      revert(0x00, 0x00)\n    tag_1:\n      pop\n      jumpi(tag_2, lt(calldatasize, 0x04))\n      shr(0xe0, calldataload(0x00))\n      dup1\n      0x9299e3\n      eq\n      tag_3\n      jumpi\n      dup1\n      0x0a6f93e6\n      eq\n      tag_4\n      jumpi\n      dup1\n      0x0f53a470\n      eq\n      tag_5\n      jumpi\n      dup1\n      0x334c3f0e\n      eq\n      tag_6\n      jumpi\n      dup1\n      0x9d5739e7\n      eq\n      tag_7\n      jumpi\n      dup1\n      0xa787c80b\n      eq\n      tag_8\n      jumpi\n    tag_2:\n      revert(0x00, 0x00)\n        /* \"Contracts/ProfileRegister.sol\":2150:2650  function updateProfile(string calldata newCid) external onlyExistingProfile {... */\n    tag_3:\n      tag_9\n      0x04\n      dup1\n      calldatasize\n      sub\n      dup2\n      add\n      swap1\n      tag_10\n      swap2\n      swap1\n      tag_11\n      jump\t// in\n    tag_10:\n      tag_12\n      jump\t// in\n    tag_9:\n      stop\n        /* \"Contracts/ProfileRegister.sol\":691:737  mapping(address => uint256) public lastUpdated */\n    tag_4:\n      tag_13\n      0x04\n      dup1\n      calldatasize\n      sub\n      dup2\n      add\n      swap1\n      tag_14\n      swap2\n      swap1\n      tag_15\n      jump\t// in\n    tag_14:\n      tag_16\n      jump\t// in\n    tag_13:\n      mload(0x40)\n      tag_17\n      swap2\n      swap1\n      tag_18\n      jump\t// in\n    tag_17:\n      mload(0x40)\n      dup1\n      swap2\n      sub\n      swap1\n      return\n        /* \"Contracts/ProfileRegister.sol\":2763:2935  function getProfile(address user) external view returns (string memory) {... */\n    tag_5:\n      tag_19\n      0x04\n      dup1\n      calldatasize\n      sub\n      dup2\n      add\n      swap1\n      tag_20\n      swap2\n      swap1\n      tag_15\n      jump\t// in\n    tag_20:\n      tag_21\n      jump\t// in\n    tag_19:\n      mload(0x40)\n      tag_22\n      swap2\n      swap1\n      tag_23\n      jump\t// in\n    tag_22:\n      mload(0x40)\n      dup1\n      swap2\n      sub\n      swap1\n      return\n        /* \"Contracts/ProfileRegister.sol\":1717:2032  function createProfile(string calldata cid) external onlyNewProfile {... */\n    tag_6:\n      tag_24\n      0x04\n      dup1\n      calldatasize\n      sub\n      dup2\n      add\n      swap1\n      tag_25\n      swap2\n      swap1\n      tag_11\n      jump\t// in\n    tag_25:\n      tag_26\n      jump\t// in\n    tag_24:\n      stop\n        /* \"Contracts/ProfileRegister.sol\":902:951  uint256 public constant UPDATE_COOLDOWN = 14 days */\n    tag_7:\n      tag_27\n      tag_28\n      jump\t// in\n    tag_27:\n      mload(0x40)\n      tag_29\n      swap2\n      swap1\n      tag_18\n      jump\t// in\n    tag_29:\n      mload(0x40)\n      dup1\n      swap2\n      sub\n      swap1\n      return\n        /* \"Contracts/ProfileRegister.sol\":788:830  mapping(address => bool) public hasProfile */\n    tag_8:\n      tag_30\n      0x04\n      dup1\n      calldatasize\n      sub\n      dup2\n      add\n      swap1\n      tag_31\n      swap2\n      swap1\n      tag_15\n      jump\t// in\n    tag_31:\n      tag_32\n      jump\t// in\n    tag_30:\n      mload(0x40)\n      tag_33\n      swap2\n      swap1\n      tag_34\n      jump\t// in\n    tag_33:\n      mload(0x40)\n      dup1\n      swap2\n      sub\n      swap1\n      return\n        /* \"Contracts/ProfileRegister.sol\":2150:2650  function updateProfile(string calldata newCid) external onlyExistingProfile {... */\n    tag_12:\n        /* \"Contracts/ProfileRegister.sol\":1191:1201  hasProfile */\n      0x02\n        /* \"Contracts/ProfileRegister.sol\":1191:1213  hasProfile[msg.sender] */\n      0x00\n        /* \"Contracts/ProfileRegister.sol\":1202:1212  msg.sender */\n      caller\n        /* \"Contracts/ProfileRegister.sol\":1191:1213  hasProfile[msg.sender] */\n      0xffffffffffffffffffffffffffffffffffffffff\n      and\n      0xffffffffffffffffffffffffffffffffffffffff\n      and\n      dup2\n      mstore\n      0x20\n      add\n      swap1\n      dup2\n      mstore\n      0x20\n      add\n      0x00\n      keccak256\n      0x00\n      swap1\n      sload\n      swap1\n      0x0100\n      exp\n      swap1\n      div\n      0xff\n      and\n        /* \"Contracts/ProfileRegister.sol\":1183:1240  require(hasProfile[msg.sender], \"Profile does not exist\") */\n      tag_36\n      jumpi\n      mload(0x40)\n      0x08c379a000000000000000000000000000000000000000000000000000000000\n      dup2\n      mstore\n      0x04\n      add\n      tag_37\n      swap1\n      tag_38\n      jump\t// in\n    tag_37:\n      mload(0x40)\n      dup1\n      swap2\n      sub\n      swap1\n      revert\n    tag_36:\n        /* \"Contracts/ProfileRegister.sol\":2268:2269  0 */\n      0x00\n        /* \"Contracts/ProfileRegister.sol\":2251:2257  newCid */\n      dup3\n      dup3\n        /* \"Contracts/ProfileRegister.sol\":2245:2265  bytes(newCid).length */\n      swap1\n      pop\n        /* \"Contracts/ProfileRegister.sol\":2245:2269  bytes(newCid).length > 0 */\n      gt\n        /* \"Contracts/ProfileRegister.sol\":2237:2285  require(bytes(newCid).length > 0, \"Invalid CID\") */\n      tag_40\n      jumpi\n      mload(0x40)\n      0x08c379a000000000000000000000000000000000000000000000000000000000\n      dup2\n      mstore\n      0x04\n      add\n      tag_41\n      swap1\n      tag_42\n      jump\t// in\n    tag_41:\n      mload(0x40)\n      dup1\n      swap2\n      sub\n      swap1\n      revert\n    tag_40:\n        /* \"Contracts/ProfileRegister.sol\":944:951  14 days */\n      0x127500\n        /* \"Contracts/ProfileRegister.sol\":2337:2348  lastUpdated */\n      0x01\n        /* \"Contracts/ProfileRegister.sol\":2337:2360  lastUpdated[msg.sender] */\n      0x00\n        /* \"Contracts/ProfileRegister.sol\":2349:2359  msg.sender */\n      caller\n        /* \"Contracts/ProfileRegister.sol\":2337:2360  lastUpdated[msg.sender] */\n      0xffffffffffffffffffffffffffffffffffffffff\n      and\n      0xffffffffffffffffffffffffffffffffffffffff\n      and\n      dup2\n      mstore\n      0x20\n      add\n      swap1\n      dup2\n      mstore\n      0x20\n      add\n      0x00\n      keccak256\n      sload\n        /* \"Contracts/ProfileRegister.sol\":2337:2378  lastUpdated[msg.sender] + UPDATE_COOLDOWN */\n      tag_43\n      swap2\n      swap1\n      tag_44\n      jump\t// in\n    tag_43:\n        /* \"Contracts/ProfileRegister.sol\":2318:2333  block.timestamp */\n      timestamp\n        /* \"Contracts/ProfileRegister.sol\":2318:2378  block.timestamp >= lastUpdated[msg.sender] + UPDATE_COOLDOWN */\n      lt\n      iszero\n        /* \"Contracts/ProfileRegister.sol\":2296:2428  require(... */\n      tag_45\n      jumpi\n      mload(0x40)\n      0x08c379a000000000000000000000000000000000000000000000000000000000\n      dup2\n      mstore\n      0x04\n      add\n      tag_46\n      swap1\n      tag_47\n      jump\t// in\n    tag_46:\n      mload(0x40)\n      dup1\n      swap2\n      sub\n      swap1\n      revert\n    tag_45:\n        /* \"Contracts/ProfileRegister.sol\":2441:2461  string memory oldCid */\n      0x00\n        /* \"Contracts/ProfileRegister.sol\":2464:2475  _profileCID */\n      0x00\n        /* \"Contracts/ProfileRegister.sol\":2464:2487  _profileCID[msg.sender] */\n      0x00\n        /* \"Contracts/ProfileRegister.sol\":2476:2486  msg.sender */\n      caller\n        /* \"Contracts/ProfileRegister.sol\":2464:2487  _profileCID[msg.sender] */\n      0xffffffffffffffffffffffffffffffffffffffff\n      and\n      0xffffffffffffffffffffffffffffffffffffffff\n      and\n      dup2\n      mstore\n      0x20\n      add\n      swap1\n      dup2\n      mstore\n      0x20\n      add\n      0x00\n      keccak256\n        /* \"Contracts/ProfileRegister.sol\":2441:2487  string memory oldCid = _profileCID[msg.sender] */\n      dup1\n      sload\n      tag_48\n      swap1\n      tag_49\n      jump\t// in\n    tag_48:\n      dup1\n      0x1f\n      add\n      0x20\n      dup1\n      swap2\n      div\n      mul\n      0x20\n      add\n      mload(0x40)\n      swap1\n      dup2\n      add\n      0x40\n      mstore\n      dup1\n      swap3\n      swap2\n      swap1\n      dup2\n      dup2\n      mstore\n      0x20\n      add\n      dup3\n      dup1\n      sload\n      tag_50\n      swap1\n      tag_49\n      jump\t// in\n    tag_50:\n      dup1\n      iszero\n      tag_51\n      jumpi\n      dup1\n      0x1f\n      lt\n      tag_52\n      jumpi\n      0x0100\n      dup1\n      dup4\n      sload\n      div\n      mul\n      dup4\n      mstore\n      swap2\n      0x20\n      add\n      swap2\n      jump(tag_51)\n    tag_52:\n      dup3\n      add\n      swap2\n      swap1\n      0x00\n      mstore\n      keccak256(0x00, 0x20)\n      swap1\n    tag_53:\n      dup2\n      sload\n      dup2\n      mstore\n      swap1\n      0x01\n      add\n      swap1\n      0x20\n      add\n      dup1\n      dup4\n      gt\n      tag_53\n      jumpi\n      dup3\n      swap1\n      sub\n      0x1f\n      and\n      dup3\n      add\n      swap2\n    tag_51:\n      pop\n      pop\n      pop\n      pop\n      pop\n      swap1\n      pop\n        /* \"Contracts/ProfileRegister.sol\":2524:2530  newCid */\n      dup3\n      dup3\n        /* \"Contracts/ProfileRegister.sol\":2498:2509  _profileCID */\n      0x00\n        /* \"Contracts/ProfileRegister.sol\":2498:2521  _profileCID[msg.sender] */\n      0x00\n        /* \"Contracts/ProfileRegister.sol\":2510:2520  msg.sender */\n      caller\n        /* \"Contracts/ProfileRegister.sol\":2498:2521  _profileCID[msg.sender] */\n      0xffffffffffffffffffffffffffffffffffffffff\n      and\n      0xffffffffffffffffffffffffffffffffffffffff\n      and\n      dup2\n      mstore\n      0x20\n      add\n      swap1\n      dup2\n      mstore\n      0x20\n      add\n      0x00\n      keccak256\n        /* \"Contracts/ProfileRegister.sol\":2498:2530  _profileCID[msg.sender] = newCid */\n      swap2\n      dup3\n      tag_54\n      swap3\n      swap2\n      swap1\n      tag_55\n      jump\t// in\n    tag_54:\n      pop\n        /* \"Contracts/ProfileRegister.sol\":2567:2582  block.timestamp */\n      timestamp\n        /* \"Contracts/ProfileRegister.sol\":2541:2552  lastUpdated */\n      0x01\n        /* \"Contracts/ProfileRegister.sol\":2541:2564  lastUpdated[msg.sender] */\n      0x00\n        /* \"Contracts/ProfileRegister.sol\":2553:2563  msg.sender */\n      caller\n        /* \"Contracts/ProfileRegister.sol\":2541:2564  lastUpdated[msg.sender] */\n      0xffffffffffffffffffffffffffffffffffffffff\n      and\n      0xffffffffffffffffffffffffffffffffffffffff\n      and\n      dup2\n      mstore\n      0x20\n      add\n      swap1\n      dup2\n      mstore\n      0x20\n      add\n      0x00\n      keccak256\n        /* \"Contracts/ProfileRegister.sol\":2541:2582  lastUpdated[msg.sender] = block.timestamp */\n      dup2\n      swap1\n      sstore\n      pop\n        /* \"Contracts/ProfileRegister.sol\":2615:2625  msg.sender */\n      caller\n        /* \"Contracts/ProfileRegister.sol\":2600:2642  ProfileUpdated(msg.sender, oldCid, newCid) */\n      0xffffffffffffffffffffffffffffffffffffffff\n      and\n      0x6eb3a1c6a4675ba92d44e090515b1ceea358f26565d2854df0c99c3f5eaf9850\n        /* \"Contracts/ProfileRegister.sol\":2627:2633  oldCid */\n      dup3\n        /* \"Contracts/ProfileRegister.sol\":2635:2641  newCid */\n      dup6\n      dup6\n        /* \"Contracts/ProfileRegister.sol\":2600:2642  ProfileUpdated(msg.sender, oldCid, newCid) */\n      mload(0x40)\n      tag_56\n      swap4\n      swap3\n      swap2\n      swap1\n      tag_57\n      jump\t// in\n    tag_56:\n      mload(0x40)\n      dup1\n      swap2\n      sub\n      swap1\n      log2\n        /* \"Contracts/ProfileRegister.sol\":2226:2650  {... */\n      pop\n        /* \"Contracts/ProfileRegister.sol\":2150:2650  function updateProfile(string calldata newCid) external onlyExistingProfile {... */\n      pop\n      pop\n      jump\t// out\n        /* \"Contracts/ProfileRegister.sol\":691:737  mapping(address => uint256) public lastUpdated */\n    tag_16:\n      mstore(0x20, 0x01)\n      dup1\n      0x00\n      mstore\n      keccak256(0x00, 0x40)\n      0x00\n      swap2\n      pop\n      swap1\n      pop\n      sload\n      dup2\n      jump\t// out\n        /* \"Contracts/ProfileRegister.sol\":2763:2935  function getProfile(address user) external view returns (string memory) {... */\n    tag_21:\n        /* \"Contracts/ProfileRegister.sol\":2820:2833  string memory */\n      0x60\n        /* \"Contracts/ProfileRegister.sol\":2854:2864  hasProfile */\n      0x02\n        /* \"Contracts/ProfileRegister.sol\":2854:2870  hasProfile[user] */\n      0x00\n        /* \"Contracts/ProfileRegister.sol\":2865:2869  user */\n      dup4\n        /* \"Contracts/ProfileRegister.sol\":2854:2870  hasProfile[user] */\n      0xffffffffffffffffffffffffffffffffffffffff\n      and\n      0xffffffffffffffffffffffffffffffffffffffff\n      and\n      dup2\n      mstore\n      0x20\n      add\n      swap1\n      dup2\n      mstore\n      0x20\n      add\n      0x00\n      keccak256\n      0x00\n      swap1\n      sload\n      swap1\n      0x0100\n      exp\n      swap1\n      div\n      0xff\n      and\n        /* \"Contracts/ProfileRegister.sol\":2846:2892  require(hasProfile[user], \"Profile not found\") */\n      tag_59\n      jumpi\n      mload(0x40)\n      0x08c379a000000000000000000000000000000000000000000000000000000000\n      dup2\n      mstore\n      0x04\n      add\n      tag_60\n      swap1\n      tag_61\n      jump\t// in\n    tag_60:\n      mload(0x40)\n      dup1\n      swap2\n      sub\n      swap1\n      revert\n    tag_59:\n        /* \"Contracts/ProfileRegister.sol\":2910:2921  _profileCID */\n      0x00\n        /* \"Contracts/ProfileRegister.sol\":2910:2927  _profileCID[user] */\n      0x00\n        /* \"Contracts/ProfileRegister.sol\":2922:2926  user */\n      dup4\n        /* \"Contracts/ProfileRegister.sol\":2910:2927  _profileCID[user] */\n      0xffffffffffffffffffffffffffffffffffffffff\n      and\n      0xffffffffffffffffffffffffffffffffffffffff\n      and\n      dup2\n      mstore\n      0x20\n      add\n      swap1\n      dup2\n      mstore\n      0x20\n      add\n      0x00\n      keccak256\n        /* \"Contracts/ProfileRegister.sol\":2903:2927  return _profileCID[user] */\n      dup1\n      sload\n      tag_62\n      swap1\n      tag_49\n      jump\t// in\n    tag_62:\n      dup1\n      0x1f\n      add\n      0x20\n      dup1\n      swap2\n      div\n      mul\n      0x20\n      add\n      mload(0x40)\n      swap1\n      dup2\n      add\n      0x40\n      mstore\n      dup1\n      swap3\n      swap2\n      swap1\n      dup2\n      dup2\n      mstore\n      0x20\n      add\n      dup3\n      dup1\n      sload\n      tag_63\n      swap1\n      tag_49\n      jump\t// in\n    tag_63:\n      dup1\n      iszero\n      tag_64\n      jumpi\n      dup1\n      0x1f\n      lt\n      tag_65\n      jumpi\n      0x0100\n      dup1\n      dup4\n      sload\n      div\n      mul\n      dup4\n      mstore\n      swap2\n      0x20\n      add\n      swap2\n      jump(tag_64)\n    tag_65:\n      dup3\n      add\n      swap2\n      swap1\n      0x00\n      mstore\n      keccak256(0x00, 0x20)\n      swap1\n    tag_66:\n      dup2\n      sload\n      dup2\n      mstore\n      swap1\n      0x01\n      add\n      swap1\n      0x20\n      add\n      dup1\n      dup4\n      gt\n      tag_66\n      jumpi\n      dup3\n      swap1\n      sub\n      0x1f\n      and\n      dup3\n      add\n      swap2\n    tag_64:\n      pop\n      pop\n      pop\n      pop\n      pop\n      swap1\n      pop\n        /* \"Contracts/ProfileRegister.sol\":2763:2935  function getProfile(address user) external view returns (string memory) {... */\n      swap2\n      swap1\n      pop\n      jump\t// out\n        /* \"Contracts/ProfileRegister.sol\":1717:2032  function createProfile(string calldata cid) external onlyNewProfile {... */\n    tag_26:\n        /* \"Contracts/ProfileRegister.sol\":1314:1324  hasProfile */\n      0x02\n        /* \"Contracts/ProfileRegister.sol\":1314:1336  hasProfile[msg.sender] */\n      0x00\n        /* \"Contracts/ProfileRegister.sol\":1325:1335  msg.sender */\n      caller\n        /* \"Contracts/ProfileRegister.sol\":1314:1336  hasProfile[msg.sender] */\n      0xffffffffffffffffffffffffffffffffffffffff\n      and\n      0xffffffffffffffffffffffffffffffffffffffff\n      and\n      dup2\n      mstore\n      0x20\n      add\n      swap1\n      dup2\n      mstore\n      0x20\n      add\n      0x00\n      keccak256\n      0x00\n      swap1\n      sload\n      swap1\n      0x0100\n      exp\n      swap1\n      div\n      0xff\n      and\n        /* \"Contracts/ProfileRegister.sol\":1313:1336  !hasProfile[msg.sender] */\n      iszero\n        /* \"Contracts/ProfileRegister.sol\":1305:1363  require(!hasProfile[msg.sender], \"Profile already exists\") */\n      tag_68\n      jumpi\n      mload(0x40)\n      0x08c379a000000000000000000000000000000000000000000000000000000000\n      dup2\n      mstore\n      0x04\n      add\n      tag_69\n      swap1\n      tag_70\n      jump\t// in\n    tag_69:\n      mload(0x40)\n      dup1\n      swap2\n      sub\n      swap1\n      revert\n    tag_68:\n        /* \"Contracts/ProfileRegister.sol\":1824:1825  0 */\n      0x00\n        /* \"Contracts/ProfileRegister.sol\":1810:1813  cid */\n      dup3\n      dup3\n        /* \"Contracts/ProfileRegister.sol\":1804:1821  bytes(cid).length */\n      swap1\n      pop\n        /* \"Contracts/ProfileRegister.sol\":1804:1825  bytes(cid).length > 0 */\n      gt\n        /* \"Contracts/ProfileRegister.sol\":1796:1841  require(bytes(cid).length > 0, \"Invalid CID\") */\n      tag_72\n      jumpi\n      mload(0x40)\n      0x08c379a000000000000000000000000000000000000000000000000000000000\n      dup2\n      mstore\n      0x04\n      add\n      tag_73\n      swap1\n      tag_42\n      jump\t// in\n    tag_73:\n      mload(0x40)\n      dup1\n      swap2\n      sub\n      swap1\n      revert\n    tag_72:\n        /* \"Contracts/ProfileRegister.sol\":1879:1883  true */\n      0x01\n        /* \"Contracts/ProfileRegister.sol\":1854:1864  hasProfile */\n      0x02\n        /* \"Contracts/ProfileRegister.sol\":1854:1876  hasProfile[msg.sender] */\n      0x00\n        /* \"Contracts/ProfileRegister.sol\":1865:1875  msg.sender */\n      caller\n        /* \"Contracts/ProfileRegister.sol\":1854:1876  hasProfile[msg.sender] */\n      0xffffffffffffffffffffffffffffffffffffffff\n      and\n      0xffffffffffffffffffffffffffffffffffffffff\n      and\n      dup2\n      mstore\n      0x20\n      add\n      swap1\n      dup2\n      mstore\n      0x20\n      add\n      0x00\n      keccak256\n      0x00\n        /* \"Contracts/ProfileRegister.sol\":1854:1883  hasProfile[msg.sender] = true */\n      0x0100\n      exp\n      dup2\n      sload\n      dup2\n      0xff\n      mul\n      not\n      and\n      swap1\n      dup4\n      iszero\n      iszero\n      mul\n      or\n      swap1\n      sstore\n      pop\n        /* \"Contracts/ProfileRegister.sol\":1920:1923  cid */\n      dup2\n      dup2\n        /* \"Contracts/ProfileRegister.sol\":1894:1905  _profileCID */\n      0x00\n        /* \"Contracts/ProfileRegister.sol\":1894:1917  _profileCID[msg.sender] */\n      0x00\n        /* \"Contracts/ProfileRegister.sol\":1906:1916  msg.sender */\n      caller\n        /* \"Contracts/ProfileRegister.sol\":1894:1917  _profileCID[msg.sender] */\n      0xffffffffffffffffffffffffffffffffffffffff\n      and\n      0xffffffffffffffffffffffffffffffffffffffff\n      and\n      dup2\n      mstore\n      0x20\n      add\n      swap1\n      dup2\n      mstore\n      0x20\n      add\n      0x00\n      keccak256\n        /* \"Contracts/ProfileRegister.sol\":1894:1923  _profileCID[msg.sender] = cid */\n      swap2\n      dup3\n      tag_74\n      swap3\n      swap2\n      swap1\n      tag_55\n      jump\t// in\n    tag_74:\n      pop\n        /* \"Contracts/ProfileRegister.sol\":1960:1975  block.timestamp */\n      timestamp\n        /* \"Contracts/ProfileRegister.sol\":1934:1945  lastUpdated */\n      0x01\n        /* \"Contracts/ProfileRegister.sol\":1934:1957  lastUpdated[msg.sender] */\n      0x00\n        /* \"Contracts/ProfileRegister.sol\":1946:1956  msg.sender */\n      caller\n        /* \"Contracts/ProfileRegister.sol\":1934:1957  lastUpdated[msg.sender] */\n      0xffffffffffffffffffffffffffffffffffffffff\n      and\n      0xffffffffffffffffffffffffffffffffffffffff\n      and\n      dup2\n      mstore\n      0x20\n      add\n      swap1\n      dup2\n      mstore\n      0x20\n      add\n      0x00\n      keccak256\n        /* \"Contracts/ProfileRegister.sol\":1934:1975  lastUpdated[msg.sender] = block.timestamp */\n      dup2\n      swap1\n      sstore\n      pop\n        /* \"Contracts/ProfileRegister.sol\":2008:2018  msg.sender */\n      caller\n        /* \"Contracts/ProfileRegister.sol\":1993:2024  ProfileCreated(msg.sender, cid) */\n      0xffffffffffffffffffffffffffffffffffffffff\n      and\n      0xbafddecbd1dec1c1afb76d693f1de16901f521bdf29a02438e3e6806c0b8d948\n        /* \"Contracts/ProfileRegister.sol\":2020:2023  cid */\n      dup4\n      dup4\n        /* \"Contracts/ProfileRegister.sol\":1993:2024  ProfileCreated(msg.sender, cid) */\n      mload(0x40)\n      tag_75\n      swap3\n      swap2\n      swap1\n      tag_76\n      jump\t// in\n    tag_75:\n      mload(0x40)\n      dup1\n      swap2\n      sub\n      swap1\n      log2\n        /* \"Contracts/ProfileRegister.sol\":1717:2032  function createProfile(string calldata cid) external onlyNewProfile {... */\n      pop\n      pop\n      jump\t// out\n        /* \"Contracts/ProfileRegister.sol\":902:951  uint256 public constant UPDATE_COOLDOWN = 14 days */\n    tag_28:\n        /* \"Contracts/ProfileRegister.sol\":944:951  14 days */\n      0x127500\n        /* \"Contracts/ProfileRegister.sol\":902:951  uint256 public constant UPDATE_COOLDOWN = 14 days */\n      dup2\n      jump\t// out\n        /* \"Contracts/ProfileRegister.sol\":788:830  mapping(address => bool) public hasProfile */\n    tag_32:\n      mstore(0x20, 0x02)\n      dup1\n      0x00\n      mstore\n      keccak256(0x00, 0x40)\n      0x00\n      swap2\n      pop\n      sload\n      swap1\n      0x0100\n      exp\n      swap1\n      div\n      0xff\n      and\n      dup2\n      jump\t// out\n        /* \"#utility.yul\":88:205   */\n    tag_78:\n        /* \"#utility.yul\":197:198   */\n      0x00\n        /* \"#utility.yul\":194:195   */\n      0x00\n        /* \"#utility.yul\":187:199   */\n      revert\n        /* \"#utility.yul\":211:328   */\n    tag_79:\n        /* \"#utility.yul\":320:321   */\n      0x00\n        /* \"#utility.yul\":317:318   */\n      0x00\n        /* \"#utility.yul\":310:322   */\n      revert\n        /* \"#utility.yul\":334:451   */\n    tag_80:\n        /* \"#utility.yul\":443:444   */\n      0x00\n        /* \"#utility.yul\":440:441   */\n      0x00\n        /* \"#utility.yul\":433:445   */\n      revert\n        /* \"#utility.yul\":457:574   */\n    tag_81:\n        /* \"#utility.yul\":566:567   */\n      0x00\n        /* \"#utility.yul\":563:564   */\n      0x00\n        /* \"#utility.yul\":556:568   */\n      revert\n        /* \"#utility.yul\":580:697   */\n    tag_82:\n        /* \"#utility.yul\":689:690   */\n      0x00\n        /* \"#utility.yul\":686:687   */\n      0x00\n        /* \"#utility.yul\":679:691   */\n      revert\n        /* \"#utility.yul\":717:1270   */\n    tag_83:\n        /* \"#utility.yul\":775:783   */\n      0x00\n        /* \"#utility.yul\":785:791   */\n      0x00\n        /* \"#utility.yul\":835:838   */\n      dup4\n        /* \"#utility.yul\":828:832   */\n      0x1f\n        /* \"#utility.yul\":820:826   */\n      dup5\n        /* \"#utility.yul\":816:833   */\n      add\n        /* \"#utility.yul\":812:839   */\n      slt\n        /* \"#utility.yul\":802:924   */\n      tag_136\n      jumpi\n        /* \"#utility.yul\":843:922   */\n      tag_137\n      tag_80\n      jump\t// in\n    tag_137:\n        /* \"#utility.yul\":802:924   */\n    tag_136:\n        /* \"#utility.yul\":956:962   */\n      dup3\n        /* \"#utility.yul\":943:963   */\n      calldataload\n        /* \"#utility.yul\":933:963   */\n      swap1\n      pop\n        /* \"#utility.yul\":986:1004   */\n      0xffffffffffffffff\n        /* \"#utility.yul\":978:984   */\n      dup2\n        /* \"#utility.yul\":975:1005   */\n      gt\n        /* \"#utility.yul\":972:1089   */\n      iszero\n      tag_138\n      jumpi\n        /* \"#utility.yul\":1008:1087   */\n      tag_139\n      tag_81\n      jump\t// in\n    tag_139:\n        /* \"#utility.yul\":972:1089   */\n    tag_138:\n        /* \"#utility.yul\":1122:1126   */\n      0x20\n        /* \"#utility.yul\":1114:1120   */\n      dup4\n        /* \"#utility.yul\":1110:1127   */\n      add\n        /* \"#utility.yul\":1098:1127   */\n      swap2\n      pop\n        /* \"#utility.yul\":1176:1179   */\n      dup4\n        /* \"#utility.yul\":1168:1172   */\n      0x01\n        /* \"#utility.yul\":1160:1166   */\n      dup3\n        /* \"#utility.yul\":1156:1173   */\n      mul\n        /* \"#utility.yul\":1146:1154   */\n      dup4\n        /* \"#utility.yul\":1142:1174   */\n      add\n        /* \"#utility.yul\":1139:1180   */\n      gt\n        /* \"#utility.yul\":1136:1264   */\n      iszero\n      tag_140\n      jumpi\n        /* \"#utility.yul\":1183:1262   */\n      tag_141\n      tag_82\n      jump\t// in\n    tag_141:\n        /* \"#utility.yul\":1136:1264   */\n    tag_140:\n        /* \"#utility.yul\":717:1270   */\n      swap3\n      pop\n      swap3\n      swap1\n      pop\n      jump\t// out\n        /* \"#utility.yul\":1276:1805   */\n    tag_11:\n        /* \"#utility.yul\":1347:1353   */\n      0x00\n        /* \"#utility.yul\":1355:1361   */\n      0x00\n        /* \"#utility.yul\":1404:1406   */\n      0x20\n        /* \"#utility.yul\":1392:1401   */\n      dup4\n        /* \"#utility.yul\":1383:1390   */\n      dup6\n        /* \"#utility.yul\":1379:1402   */\n      sub\n        /* \"#utility.yul\":1375:1407   */\n      slt\n        /* \"#utility.yul\":1372:1491   */\n      iszero\n      tag_143\n      jumpi\n        /* \"#utility.yul\":1410:1489   */\n      tag_144\n      tag_78\n      jump\t// in\n    tag_144:\n        /* \"#utility.yul\":1372:1491   */\n    tag_143:\n        /* \"#utility.yul\":1558:1559   */\n      0x00\n        /* \"#utility.yul\":1547:1556   */\n      dup4\n        /* \"#utility.yul\":1543:1560   */\n      add\n        /* \"#utility.yul\":1530:1561   */\n      calldataload\n        /* \"#utility.yul\":1588:1606   */\n      0xffffffffffffffff\n        /* \"#utility.yul\":1580:1586   */\n      dup2\n        /* \"#utility.yul\":1577:1607   */\n      gt\n        /* \"#utility.yul\":1574:1691   */\n      iszero\n      tag_145\n      jumpi\n        /* \"#utility.yul\":1610:1689   */\n      tag_146\n      tag_79\n      jump\t// in\n    tag_146:\n        /* \"#utility.yul\":1574:1691   */\n    tag_145:\n        /* \"#utility.yul\":1723:1788   */\n      tag_147\n        /* \"#utility.yul\":1780:1787   */\n      dup6\n        /* \"#utility.yul\":1771:1777   */\n      dup3\n        /* \"#utility.yul\":1760:1769   */\n      dup7\n        /* \"#utility.yul\":1756:1778   */\n      add\n        /* \"#utility.yul\":1723:1788   */\n      tag_83\n      jump\t// in\n    tag_147:\n        /* \"#utility.yul\":1705:1788   */\n      swap3\n      pop\n      swap3\n      pop\n        /* \"#utility.yul\":1501:1798   */\n      pop\n        /* \"#utility.yul\":1276:1805   */\n      swap3\n      pop\n      swap3\n      swap1\n      pop\n      jump\t// out\n        /* \"#utility.yul\":1811:1937   */\n    tag_84:\n        /* \"#utility.yul\":1848:1855   */\n      0x00\n        /* \"#utility.yul\":1888:1930   */\n      0xffffffffffffffffffffffffffffffffffffffff\n        /* \"#utility.yul\":1881:1886   */\n      dup3\n        /* \"#utility.yul\":1877:1931   */\n      and\n        /* \"#utility.yul\":1866:1931   */\n      swap1\n      pop\n        /* \"#utility.yul\":1811:1937   */\n      swap2\n      swap1\n      pop\n      jump\t// out\n        /* \"#utility.yul\":1943:2039   */\n    tag_85:\n        /* \"#utility.yul\":1980:1987   */\n      0x00\n        /* \"#utility.yul\":2009:2033   */\n      tag_150\n        /* \"#utility.yul\":2027:2032   */\n      dup3\n        /* \"#utility.yul\":2009:2033   */\n      tag_84\n      jump\t// in\n    tag_150:\n        /* \"#utility.yul\":1998:2033   */\n      swap1\n      pop\n        /* \"#utility.yul\":1943:2039   */\n      swap2\n      swap1\n      pop\n      jump\t// out\n        /* \"#utility.yul\":2045:2167   */\n    tag_86:\n        /* \"#utility.yul\":2118:2142   */\n      tag_152\n        /* \"#utility.yul\":2136:2141   */\n      dup2\n        /* \"#utility.yul\":2118:2142   */\n      tag_85\n      jump\t// in\n    tag_152:\n        /* \"#utility.yul\":2111:2116   */\n      dup2\n        /* \"#utility.yul\":2108:2143   */\n      eq\n        /* \"#utility.yul\":2098:2161   */\n      tag_153\n      jumpi\n        /* \"#utility.yul\":2157:2158   */\n      0x00\n        /* \"#utility.yul\":2154:2155   */\n      0x00\n        /* \"#utility.yul\":2147:2159   */\n      revert\n        /* \"#utility.yul\":2098:2161   */\n    tag_153:\n        /* \"#utility.yul\":2045:2167   */\n      pop\n      jump\t// out\n        /* \"#utility.yul\":2173:2312   */\n    tag_87:\n        /* \"#utility.yul\":2219:2224   */\n      0x00\n        /* \"#utility.yul\":2257:2263   */\n      dup2\n        /* \"#utility.yul\":2244:2264   */\n      calldataload\n        /* \"#utility.yul\":2235:2264   */\n      swap1\n      pop\n        /* \"#utility.yul\":2273:2306   */\n      tag_155\n        /* \"#utility.yul\":2300:2305   */\n      dup2\n        /* \"#utility.yul\":2273:2306   */\n      tag_86\n      jump\t// in\n    tag_155:\n        /* \"#utility.yul\":2173:2312   */\n      swap3\n      swap2\n      pop\n      pop\n      jump\t// out\n        /* \"#utility.yul\":2318:2647   */\n    tag_15:\n        /* \"#utility.yul\":2377:2383   */\n      0x00\n        /* \"#utility.yul\":2426:2428   */\n      0x20\n        /* \"#utility.yul\":2414:2423   */\n      dup3\n        /* \"#utility.yul\":2405:2412   */\n      dup5\n        /* \"#utility.yul\":2401:2424   */\n      sub\n        /* \"#utility.yul\":2397:2429   */\n      slt\n        /* \"#utility.yul\":2394:2513   */\n      iszero\n      tag_157\n      jumpi\n        /* \"#utility.yul\":2432:2511   */\n      tag_158\n      tag_78\n      jump\t// in\n    tag_158:\n        /* \"#utility.yul\":2394:2513   */\n    tag_157:\n        /* \"#utility.yul\":2552:2553   */\n      0x00\n        /* \"#utility.yul\":2577:2630   */\n      tag_159\n        /* \"#utility.yul\":2622:2629   */\n      dup5\n        /* \"#utility.yul\":2613:2619   */\n      dup3\n        /* \"#utility.yul\":2602:2611   */\n      dup6\n        /* \"#utility.yul\":2598:2620   */\n      add\n        /* \"#utility.yul\":2577:2630   */\n      tag_87\n      jump\t// in\n    tag_159:\n        /* \"#utility.yul\":2567:2630   */\n      swap2\n      pop\n        /* \"#utility.yul\":2523:2640   */\n      pop\n        /* \"#utility.yul\":2318:2647   */\n      swap3\n      swap2\n      pop\n      pop\n      jump\t// out\n        /* \"#utility.yul\":2653:2730   */\n    tag_88:\n        /* \"#utility.yul\":2690:2697   */\n      0x00\n        /* \"#utility.yul\":2719:2724   */\n      dup2\n        /* \"#utility.yul\":2708:2724   */\n      swap1\n      pop\n        /* \"#utility.yul\":2653:2730   */\n      swap2\n      swap1\n      pop\n      jump\t// out\n        /* \"#utility.yul\":2736:2854   */\n    tag_89:\n        /* \"#utility.yul\":2823:2847   */\n      tag_162\n        /* \"#utility.yul\":2841:2846   */\n      dup2\n        /* \"#utility.yul\":2823:2847   */\n      tag_88\n      jump\t// in\n    tag_162:\n        /* \"#utility.yul\":2818:2821   */\n      dup3\n        /* \"#utility.yul\":2811:2848   */\n      mstore\n        /* \"#utility.yul\":2736:2854   */\n      pop\n      pop\n      jump\t// out\n        /* \"#utility.yul\":2860:3082   */\n    tag_18:\n        /* \"#utility.yul\":2953:2957   */\n      0x00\n        /* \"#utility.yul\":2991:2993   */\n      0x20\n        /* \"#utility.yul\":2980:2989   */\n      dup3\n        /* \"#utility.yul\":2976:2994   */\n      add\n        /* \"#utility.yul\":2968:2994   */\n      swap1\n      pop\n        /* \"#utility.yul\":3004:3075   */\n      tag_164\n        /* \"#utility.yul\":3072:3073   */\n      0x00\n        /* \"#utility.yul\":3061:3070   */\n      dup4\n        /* \"#utility.yul\":3057:3074   */\n      add\n        /* \"#utility.yul\":3048:3054   */\n      dup5\n        /* \"#utility.yul\":3004:3075   */\n      tag_89\n      jump\t// in\n    tag_164:\n        /* \"#utility.yul\":2860:3082   */\n      swap3\n      swap2\n      pop\n      pop\n      jump\t// out\n        /* \"#utility.yul\":3088:3187   */\n    tag_90:\n        /* \"#utility.yul\":3140:3146   */\n      0x00\n        /* \"#utility.yul\":3174:3179   */\n      dup2\n        /* \"#utility.yul\":3168:3180   */\n      mload\n        /* \"#utility.yul\":3158:3180   */\n      swap1\n      pop\n        /* \"#utility.yul\":3088:3187   */\n      swap2\n      swap1\n      pop\n      jump\t// out\n        /* \"#utility.yul\":3193:3362   */\n    tag_91:\n        /* \"#utility.yul\":3277:3288   */\n      0x00\n        /* \"#utility.yul\":3311:3317   */\n      dup3\n        /* \"#utility.yul\":3306:3309   */\n      dup3\n        /* \"#utility.yul\":3299:3318   */\n      mstore\n        /* \"#utility.yul\":3351:3355   */\n      0x20\n        /* \"#utility.yul\":3346:3349   */\n      dup3\n        /* \"#utility.yul\":3342:3356   */\n      add\n        /* \"#utility.yul\":3327:3356   */\n      swap1\n      pop\n        /* \"#utility.yul\":3193:3362   */\n      swap3\n      swap2\n      pop\n      pop\n      jump\t// out\n        /* \"#utility.yul\":3368:3507   */\n    tag_92:\n        /* \"#utility.yul\":3457:3463   */\n      dup3\n        /* \"#utility.yul\":3452:3455   */\n      dup2\n        /* \"#utility.yul\":3447:3450   */\n      dup4\n        /* \"#utility.yul\":3441:3464   */\n      mcopy\n        /* \"#utility.yul\":3498:3499   */\n      0x00\n        /* \"#utility.yul\":3489:3495   */\n      dup4\n        /* \"#utility.yul\":3484:3487   */\n      dup4\n        /* \"#utility.yul\":3480:3496   */\n      add\n        /* \"#utility.yul\":3473:3500   */\n      mstore\n        /* \"#utility.yul\":3368:3507   */\n      pop\n      pop\n      pop\n      jump\t// out\n        /* \"#utility.yul\":3513:3615   */\n    tag_93:\n        /* \"#utility.yul\":3554:3560   */\n      0x00\n        /* \"#utility.yul\":3605:3607   */\n      0x1f\n        /* \"#utility.yul\":3601:3608   */\n      not\n        /* \"#utility.yul\":3596:3598   */\n      0x1f\n        /* \"#utility.yul\":3589:3594   */\n      dup4\n        /* \"#utility.yul\":3585:3599   */\n      add\n        /* \"#utility.yul\":3581:3609   */\n      and\n        /* \"#utility.yul\":3571:3609   */\n      swap1\n      pop\n        /* \"#utility.yul\":3513:3615   */\n      swap2\n      swap1\n      pop\n      jump\t// out\n        /* \"#utility.yul\":3621:3998   */\n    tag_94:\n        /* \"#utility.yul\":3709:3712   */\n      0x00\n        /* \"#utility.yul\":3737:3776   */\n      tag_170\n        /* \"#utility.yul\":3770:3775   */\n      dup3\n        /* \"#utility.yul\":3737:3776   */\n      tag_90\n      jump\t// in\n    tag_170:\n        /* \"#utility.yul\":3792:3863   */\n      tag_171\n        /* \"#utility.yul\":3856:3862   */\n      dup2\n        /* \"#utility.yul\":3851:3854   */\n      dup6\n        /* \"#utility.yul\":3792:3863   */\n      tag_91\n      jump\t// in\n    tag_171:\n        /* \"#utility.yul\":3785:3863   */\n      swap4\n      pop\n        /* \"#utility.yul\":3872:3937   */\n      tag_172\n        /* \"#utility.yul\":3930:3936   */\n      dup2\n        /* \"#utility.yul\":3925:3928   */\n      dup6\n        /* \"#utility.yul\":3918:3922   */\n      0x20\n        /* \"#utility.yul\":3911:3916   */\n      dup7\n        /* \"#utility.yul\":3907:3923   */\n      add\n        /* \"#utility.yul\":3872:3937   */\n      tag_92\n      jump\t// in\n    tag_172:\n        /* \"#utility.yul\":3962:3991   */\n      tag_173\n        /* \"#utility.yul\":3984:3990   */\n      dup2\n        /* \"#utility.yul\":3962:3991   */\n      tag_93\n      jump\t// in\n    tag_173:\n        /* \"#utility.yul\":3957:3960   */\n      dup5\n        /* \"#utility.yul\":3953:3992   */\n      add\n        /* \"#utility.yul\":3946:3992   */\n      swap2\n      pop\n        /* \"#utility.yul\":3713:3998   */\n      pop\n        /* \"#utility.yul\":3621:3998   */\n      swap3\n      swap2\n      pop\n      pop\n      jump\t// out\n        /* \"#utility.yul\":4004:4317   */\n    tag_23:\n        /* \"#utility.yul\":4117:4121   */\n      0x00\n        /* \"#utility.yul\":4155:4157   */\n      0x20\n        /* \"#utility.yul\":4144:4153   */\n      dup3\n        /* \"#utility.yul\":4140:4158   */\n      add\n        /* \"#utility.yul\":4132:4158   */\n      swap1\n      pop\n        /* \"#utility.yul\":4204:4213   */\n      dup2\n        /* \"#utility.yul\":4198:4202   */\n      dup2\n        /* \"#utility.yul\":4194:4214   */\n      sub\n        /* \"#utility.yul\":4190:4191   */\n      0x00\n        /* \"#utility.yul\":4179:4188   */\n      dup4\n        /* \"#utility.yul\":4175:4192   */\n      add\n        /* \"#utility.yul\":4168:4215   */\n      mstore\n        /* \"#utility.yul\":4232:4310   */\n      tag_175\n        /* \"#utility.yul\":4305:4309   */\n      dup2\n        /* \"#utility.yul\":4296:4302   */\n      dup5\n        /* \"#utility.yul\":4232:4310   */\n      tag_94\n      jump\t// in\n    tag_175:\n        /* \"#utility.yul\":4224:4310   */\n      swap1\n      pop\n        /* \"#utility.yul\":4004:4317   */\n      swap3\n      swap2\n      pop\n      pop\n      jump\t// out\n        /* \"#utility.yul\":4323:4413   */\n    tag_95:\n        /* \"#utility.yul\":4357:4364   */\n      0x00\n        /* \"#utility.yul\":4400:4405   */\n      dup2\n        /* \"#utility.yul\":4393:4406   */\n      iszero\n        /* \"#utility.yul\":4386:4407   */\n      iszero\n        /* \"#utility.yul\":4375:4407   */\n      swap1\n      pop\n        /* \"#utility.yul\":4323:4413   */\n      swap2\n      swap1\n      pop\n      jump\t// out\n        /* \"#utility.yul\":4419:4528   */\n    tag_96:\n        /* \"#utility.yul\":4500:4521   */\n      tag_178\n        /* \"#utility.yul\":4515:4520   */\n      dup2\n        /* \"#utility.yul\":4500:4521   */\n      tag_95\n      jump\t// in\n    tag_178:\n        /* \"#utility.yul\":4495:4498   */\n      dup3\n        /* \"#utility.yul\":4488:4522   */\n      mstore\n        /* \"#utility.yul\":4419:4528   */\n      pop\n      pop\n      jump\t// out\n        /* \"#utility.yul\":4534:4744   */\n    tag_34:\n        /* \"#utility.yul\":4621:4625   */\n      0x00\n        /* \"#utility.yul\":4659:4661   */\n      0x20\n        /* \"#utility.yul\":4648:4657   */\n      dup3\n        /* \"#utility.yul\":4644:4662   */\n      add\n        /* \"#utility.yul\":4636:4662   */\n      swap1\n      pop\n        /* \"#utility.yul\":4672:4737   */\n      tag_180\n        /* \"#utility.yul\":4734:4735   */\n      0x00\n        /* \"#utility.yul\":4723:4732   */\n      dup4\n        /* \"#utility.yul\":4719:4736   */\n      add\n        /* \"#utility.yul\":4710:4716   */\n      dup5\n        /* \"#utility.yul\":4672:4737   */\n      tag_96\n      jump\t// in\n    tag_180:\n        /* \"#utility.yul\":4534:4744   */\n      swap3\n      swap2\n      pop\n      pop\n      jump\t// out\n        /* \"#utility.yul\":4750:4922   */\n    tag_97:\n        /* \"#utility.yul\":4890:4914   */\n      0x50726f66696c6520646f6573206e6f7420657869737400000000000000000000\n        /* \"#utility.yul\":4886:4887   */\n      0x00\n        /* \"#utility.yul\":4878:4884   */\n      dup3\n        /* \"#utility.yul\":4874:4888   */\n      add\n        /* \"#utility.yul\":4867:4915   */\n      mstore\n        /* \"#utility.yul\":4750:4922   */\n      pop\n      jump\t// out\n        /* \"#utility.yul\":4928:5294   */\n    tag_98:\n        /* \"#utility.yul\":5070:5073   */\n      0x00\n        /* \"#utility.yul\":5091:5158   */\n      tag_183\n        /* \"#utility.yul\":5155:5157   */\n      0x16\n        /* \"#utility.yul\":5150:5153   */\n      dup4\n        /* \"#utility.yul\":5091:5158   */\n      tag_91\n      jump\t// in\n    tag_183:\n        /* \"#utility.yul\":5084:5158   */\n      swap2\n      pop\n        /* \"#utility.yul\":5167:5260   */\n      tag_184\n        /* \"#utility.yul\":5256:5259   */\n      dup3\n        /* \"#utility.yul\":5167:5260   */\n      tag_97\n      jump\t// in\n    tag_184:\n        /* \"#utility.yul\":5285:5287   */\n      0x20\n        /* \"#utility.yul\":5280:5283   */\n      dup3\n        /* \"#utility.yul\":5276:5288   */\n      add\n        /* \"#utility.yul\":5269:5288   */\n      swap1\n      pop\n        /* \"#utility.yul\":4928:5294   */\n      swap2\n      swap1\n      pop\n      jump\t// out\n        /* \"#utility.yul\":5300:5719   */\n    tag_38:\n        /* \"#utility.yul\":5466:5470   */\n      0x00\n        /* \"#utility.yul\":5504:5506   */\n      0x20\n        /* \"#utility.yul\":5493:5502   */\n      dup3\n        /* \"#utility.yul\":5489:5507   */\n      add\n        /* \"#utility.yul\":5481:5507   */\n      swap1\n      pop\n        /* \"#utility.yul\":5553:5562   */\n      dup2\n        /* \"#utility.yul\":5547:5551   */\n      dup2\n        /* \"#utility.yul\":5543:5563   */\n      sub\n        /* \"#utility.yul\":5539:5540   */\n      0x00\n        /* \"#utility.yul\":5528:5537   */\n      dup4\n        /* \"#utility.yul\":5524:5541   */\n      add\n        /* \"#utility.yul\":5517:5564   */\n      mstore\n        /* \"#utility.yul\":5581:5712   */\n      tag_186\n        /* \"#utility.yul\":5707:5711   */\n      dup2\n        /* \"#utility.yul\":5581:5712   */\n      tag_98\n      jump\t// in\n    tag_186:\n        /* \"#utility.yul\":5573:5712   */\n      swap1\n      pop\n        /* \"#utility.yul\":5300:5719   */\n      swap2\n      swap1\n      pop\n      jump\t// out\n        /* \"#utility.yul\":5725:5886   */\n    tag_99:\n        /* \"#utility.yul\":5865:5878   */\n      0x496e76616c696420434944000000000000000000000000000000000000000000\n        /* \"#utility.yul\":5861:5862   */\n      0x00\n        /* \"#utility.yul\":5853:5859   */\n      dup3\n        /* \"#utility.yul\":5849:5863   */\n      add\n        /* \"#utility.yul\":5842:5879   */\n      mstore\n        /* \"#utility.yul\":5725:5886   */\n      pop\n      jump\t// out\n        /* \"#utility.yul\":5892:6258   */\n    tag_100:\n        /* \"#utility.yul\":6034:6037   */\n      0x00\n        /* \"#utility.yul\":6055:6122   */\n      tag_189\n        /* \"#utility.yul\":6119:6121   */\n      0x0b\n        /* \"#utility.yul\":6114:6117   */\n      dup4\n        /* \"#utility.yul\":6055:6122   */\n      tag_91\n      jump\t// in\n    tag_189:\n        /* \"#utility.yul\":6048:6122   */\n      swap2\n      pop\n        /* \"#utility.yul\":6131:6224   */\n      tag_190\n        /* \"#utility.yul\":6220:6223   */\n      dup3\n        /* \"#utility.yul\":6131:6224   */\n      tag_99\n      jump\t// in\n    tag_190:\n        /* \"#utility.yul\":6249:6251   */\n      0x20\n        /* \"#utility.yul\":6244:6247   */\n      dup3\n        /* \"#utility.yul\":6240:6252   */\n      add\n        /* \"#utility.yul\":6233:6252   */\n      swap1\n      pop\n        /* \"#utility.yul\":5892:6258   */\n      swap2\n      swap1\n      pop\n      jump\t// out\n        /* \"#utility.yul\":6264:6683   */\n    tag_42:\n        /* \"#utility.yul\":6430:6434   */\n      0x00\n        /* \"#utility.yul\":6468:6470   */\n      0x20\n        /* \"#utility.yul\":6457:6466   */\n      dup3\n        /* \"#utility.yul\":6453:6471   */\n      add\n        /* \"#utility.yul\":6445:6471   */\n      swap1\n      pop\n        /* \"#utility.yul\":6517:6526   */\n      dup2\n        /* \"#utility.yul\":6511:6515   */\n      dup2\n        /* \"#utility.yul\":6507:6527   */\n      sub\n        /* \"#utility.yul\":6503:6504   */\n      0x00\n        /* \"#utility.yul\":6492:6501   */\n      dup4\n        /* \"#utility.yul\":6488:6505   */\n      add\n        /* \"#utility.yul\":6481:6528   */\n      mstore\n        /* \"#utility.yul\":6545:6676   */\n      tag_192\n        /* \"#utility.yul\":6671:6675   */\n      dup2\n        /* \"#utility.yul\":6545:6676   */\n      tag_100\n      jump\t// in\n    tag_192:\n        /* \"#utility.yul\":6537:6676   */\n      swap1\n      pop\n        /* \"#utility.yul\":6264:6683   */\n      swap2\n      swap1\n      pop\n      jump\t// out\n        /* \"#utility.yul\":6689:6869   */\n    tag_101:\n        /* \"#utility.yul\":6737:6814   */\n      0x4e487b7100000000000000000000000000000000000000000000000000000000\n        /* \"#utility.yul\":6734:6735   */\n      0x00\n        /* \"#utility.yul\":6727:6815   */\n      mstore\n        /* \"#utility.yul\":6834:6838   */\n      0x11\n        /* \"#utility.yul\":6831:6832   */\n      0x04\n        /* \"#utility.yul\":6824:6839   */\n      mstore\n        /* \"#utility.yul\":6858:6862   */\n      0x24\n        /* \"#utility.yul\":6855:6856   */\n      0x00\n        /* \"#utility.yul\":6848:6863   */\n      revert\n        /* \"#utility.yul\":6875:7066   */\n    tag_44:\n        /* \"#utility.yul\":6915:6918   */\n      0x00\n        /* \"#utility.yul\":6934:6954   */\n      tag_195\n        /* \"#utility.yul\":6952:6953   */\n      dup3\n        /* \"#utility.yul\":6934:6954   */\n      tag_88\n      jump\t// in\n    tag_195:\n        /* \"#utility.yul\":6929:6954   */\n      swap2\n      pop\n        /* \"#utility.yul\":6968:6988   */\n      tag_196\n        /* \"#utility.yul\":6986:6987   */\n      dup4\n        /* \"#utility.yul\":6968:6988   */\n      tag_88\n      jump\t// in\n    tag_196:\n        /* \"#utility.yul\":6963:6988   */\n      swap3\n      pop\n        /* \"#utility.yul\":7011:7012   */\n      dup3\n        /* \"#utility.yul\":7008:7009   */\n      dup3\n        /* \"#utility.yul\":7004:7013   */\n      add\n        /* \"#utility.yul\":6997:7013   */\n      swap1\n      pop\n        /* \"#utility.yul\":7032:7035   */\n      dup1\n        /* \"#utility.yul\":7029:7030   */\n      dup3\n        /* \"#utility.yul\":7026:7036   */\n      gt\n        /* \"#utility.yul\":7023:7059   */\n      iszero\n      tag_197\n      jumpi\n        /* \"#utility.yul\":7039:7057   */\n      tag_198\n      tag_101\n      jump\t// in\n    tag_198:\n        /* \"#utility.yul\":7023:7059   */\n    tag_197:\n        /* \"#utility.yul\":6875:7066   */\n      swap3\n      swap2\n      pop\n      pop\n      jump\t// out\n        /* \"#utility.yul\":7072:7244   */\n    tag_102:\n        /* \"#utility.yul\":7212:7236   */\n      0x55706461746520636f6f6c646f776e2061637469766500000000000000000000\n        /* \"#utility.yul\":7208:7209   */\n      0x00\n        /* \"#utility.yul\":7200:7206   */\n      dup3\n        /* \"#utility.yul\":7196:7210   */\n      add\n        /* \"#utility.yul\":7189:7237   */\n      mstore\n        /* \"#utility.yul\":7072:7244   */\n      pop\n      jump\t// out\n        /* \"#utility.yul\":7250:7616   */\n    tag_103:\n        /* \"#utility.yul\":7392:7395   */\n      0x00\n        /* \"#utility.yul\":7413:7480   */\n      tag_201\n        /* \"#utility.yul\":7477:7479   */\n      0x16\n        /* \"#utility.yul\":7472:7475   */\n      dup4\n        /* \"#utility.yul\":7413:7480   */\n      tag_91\n      jump\t// in\n    tag_201:\n        /* \"#utility.yul\":7406:7480   */\n      swap2\n      pop\n        /* \"#utility.yul\":7489:7582   */\n      tag_202\n        /* \"#utility.yul\":7578:7581   */\n      dup3\n        /* \"#utility.yul\":7489:7582   */\n      tag_102\n      jump\t// in\n    tag_202:\n        /* \"#utility.yul\":7607:7609   */\n      0x20\n        /* \"#utility.yul\":7602:7605   */\n      dup3\n        /* \"#utility.yul\":7598:7610   */\n      add\n        /* \"#utility.yul\":7591:7610   */\n      swap1\n      pop\n        /* \"#utility.yul\":7250:7616   */\n      swap2\n      swap1\n      pop\n      jump\t// out\n        /* \"#utility.yul\":7622:8041   */\n    tag_47:\n        /* \"#utility.yul\":7788:7792   */\n      0x00\n        /* \"#utility.yul\":7826:7828   */\n      0x20\n        /* \"#utility.yul\":7815:7824   */\n      dup3\n        /* \"#utility.yul\":7811:7829   */\n      add\n        /* \"#utility.yul\":7803:7829   */\n      swap1\n      pop\n        /* \"#utility.yul\":7875:7884   */\n      dup2\n        /* \"#utility.yul\":7869:7873   */\n      dup2\n        /* \"#utility.yul\":7865:7885   */\n      sub\n        /* \"#utility.yul\":7861:7862   */\n      0x00\n        /* \"#utility.yul\":7850:7859   */\n      dup4\n        /* \"#utility.yul\":7846:7863   */\n      add\n        /* \"#utility.yul\":7839:7886   */\n      mstore\n        /* \"#utility.yul\":7903:8034   */\n      tag_204\n        /* \"#utility.yul\":8029:8033   */\n      dup2\n        /* \"#utility.yul\":7903:8034   */\n      tag_103\n      jump\t// in\n    tag_204:\n        /* \"#utility.yul\":7895:8034   */\n      swap1\n      pop\n        /* \"#utility.yul\":7622:8041   */\n      swap2\n      swap1\n      pop\n      jump\t// out\n        /* \"#utility.yul\":8047:8227   */\n    tag_104:\n        /* \"#utility.yul\":8095:8172   */\n      0x4e487b7100000000000000000000000000000000000000000000000000000000\n        /* \"#utility.yul\":8092:8093   */\n      0x00\n        /* \"#utility.yul\":8085:8173   */\n      mstore\n        /* \"#utility.yul\":8192:8196   */\n      0x22\n        /* \"#utility.yul\":8189:8190   */\n      0x04\n        /* \"#utility.yul\":8182:8197   */\n      mstore\n        /* \"#utility.yul\":8216:8220   */\n      0x24\n        /* \"#utility.yul\":8213:8214   */\n      0x00\n        /* \"#utility.yul\":8206:8221   */\n      revert\n        /* \"#utility.yul\":8233:8553   */\n    tag_49:\n        /* \"#utility.yul\":8277:8283   */\n      0x00\n        /* \"#utility.yul\":8314:8315   */\n      0x02\n        /* \"#utility.yul\":8308:8312   */\n      dup3\n        /* \"#utility.yul\":8304:8316   */\n      div\n        /* \"#utility.yul\":8294:8316   */\n      swap1\n      pop\n        /* \"#utility.yul\":8361:8362   */\n      0x01\n        /* \"#utility.yul\":8355:8359   */\n      dup3\n        /* \"#utility.yul\":8351:8363   */\n      and\n        /* \"#utility.yul\":8382:8400   */\n      dup1\n        /* \"#utility.yul\":8372:8453   */\n      tag_207\n      jumpi\n        /* \"#utility.yul\":8438:8442   */\n      0x7f\n        /* \"#utility.yul\":8430:8436   */\n      dup3\n        /* \"#utility.yul\":8426:8443   */\n      and\n        /* \"#utility.yul\":8416:8443   */\n      swap2\n      pop\n        /* \"#utility.yul\":8372:8453   */\n    tag_207:\n        /* \"#utility.yul\":8500:8502   */\n      0x20\n        /* \"#utility.yul\":8492:8498   */\n      dup3\n        /* \"#utility.yul\":8489:8503   */\n      lt\n        /* \"#utility.yul\":8469:8487   */\n      dup2\n        /* \"#utility.yul\":8466:8504   */\n      sub\n        /* \"#utility.yul\":8463:8547   */\n      tag_208\n      jumpi\n        /* \"#utility.yul\":8519:8537   */\n      tag_209\n      tag_104\n      jump\t// in\n    tag_209:\n        /* \"#utility.yul\":8463:8547   */\n    tag_208:\n        /* \"#utility.yul\":8284:8553   */\n      pop\n        /* \"#utility.yul\":8233:8553   */\n      swap2\n      swap1\n      pop\n      jump\t// out\n        /* \"#utility.yul\":8559:8656   */\n    tag_105:\n        /* \"#utility.yul\":8618:8624   */\n      0x00\n        /* \"#utility.yul\":8646:8649   */\n      dup3\n        /* \"#utility.yul\":8636:8649   */\n      swap1\n      pop\n        /* \"#utility.yul\":8559:8656   */\n      swap3\n      swap2\n      pop\n      pop\n      jump\t// out\n        /* \"#utility.yul\":8662:8842   */\n    tag_106:\n        /* \"#utility.yul\":8710:8787   */\n      0x4e487b7100000000000000000000000000000000000000000000000000000000\n        /* \"#utility.yul\":8707:8708   */\n      0x00\n        /* \"#utility.yul\":8700:8788   */\n      mstore\n        /* \"#utility.yul\":8807:8811   */\n      0x41\n        /* \"#utility.yul\":8804:8805   */\n      0x04\n        /* \"#utility.yul\":8797:8812   */\n      mstore\n        /* \"#utility.yul\":8831:8835   */\n      0x24\n        /* \"#utility.yul\":8828:8829   */\n      0x00\n        /* \"#utility.yul\":8821:8836   */\n      revert\n        /* \"#utility.yul\":8848:8989   */\n    tag_107:\n        /* \"#utility.yul\":8897:8901   */\n      0x00\n        /* \"#utility.yul\":8920:8923   */\n      dup2\n        /* \"#utility.yul\":8912:8923   */\n      swap1\n      pop\n        /* \"#utility.yul\":8943:8946   */\n      dup2\n        /* \"#utility.yul\":8940:8941   */\n      0x00\n        /* \"#utility.yul\":8933:8947   */\n      mstore\n        /* \"#utility.yul\":8977:8981   */\n      0x20\n        /* \"#utility.yul\":8974:8975   */\n      0x00\n        /* \"#utility.yul\":8964:8982   */\n      keccak256\n        /* \"#utility.yul\":8956:8982   */\n      swap1\n      pop\n        /* \"#utility.yul\":8848:8989   */\n      swap2\n      swap1\n      pop\n      jump\t// out\n        /* \"#utility.yul\":8995:9088   */\n    tag_108:\n        /* \"#utility.yul\":9032:9038   */\n      0x00\n        /* \"#utility.yul\":9079:9081   */\n      0x20\n        /* \"#utility.yul\":9074:9076   */\n      0x1f\n        /* \"#utility.yul\":9067:9072   */\n      dup4\n        /* \"#utility.yul\":9063:9077   */\n      add\n        /* \"#utility.yul\":9059:9082   */\n      div\n        /* \"#utility.yul\":9049:9082   */\n      swap1\n      pop\n        /* \"#utility.yul\":8995:9088   */\n      swap2\n      swap1\n      pop\n      jump\t// out\n        /* \"#utility.yul\":9094:9201   */\n    tag_109:\n        /* \"#utility.yul\":9138:9146   */\n      0x00\n        /* \"#utility.yul\":9188:9193   */\n      dup3\n        /* \"#utility.yul\":9182:9186   */\n      dup3\n        /* \"#utility.yul\":9178:9194   */\n      shl\n        /* \"#utility.yul\":9157:9194   */\n      swap1\n      pop\n        /* \"#utility.yul\":9094:9201   */\n      swap3\n      swap2\n      pop\n      pop\n      jump\t// out\n        /* \"#utility.yul\":9207:9600   */\n    tag_110:\n        /* \"#utility.yul\":9276:9282   */\n      0x00\n        /* \"#utility.yul\":9326:9327   */\n      0x08\n        /* \"#utility.yul\":9314:9324   */\n      dup4\n        /* \"#utility.yul\":9310:9328   */\n      mul\n        /* \"#utility.yul\":9349:9446   */\n      tag_216\n        /* \"#utility.yul\":9379:9445   */\n      0xffffffffffffffffffffffffffffffffffffffffffffffffffffffffffffffff\n        /* \"#utility.yul\":9368:9377   */\n      dup3\n        /* \"#utility.yul\":9349:9446   */\n      tag_109\n      jump\t// in\n    tag_216:\n        /* \"#utility.yul\":9467:9506   */\n      tag_217\n        /* \"#utility.yul\":9497:9505   */\n      dup7\n        /* \"#utility.yul\":9486:9495   */\n      dup4\n        /* \"#utility.yul\":9467:9506   */\n      tag_109\n      jump\t// in\n    tag_217:\n        /* \"#utility.yul\":9455:9506   */\n      swap6\n      pop\n        /* \"#utility.yul\":9539:9543   */\n      dup1\n        /* \"#utility.yul\":9535:9544   */\n      not\n        /* \"#utility.yul\":9528:9533   */\n      dup5\n        /* \"#utility.yul\":9524:9545   */\n      and\n        /* \"#utility.yul\":9515:9545   */\n      swap4\n      pop\n        /* \"#utility.yul\":9588:9592   */\n      dup1\n        /* \"#utility.yul\":9578:9586   */\n      dup7\n        /* \"#utility.yul\":9574:9593   */\n      and\n        /* \"#utility.yul\":9567:9572   */\n      dup5\n        /* \"#utility.yul\":9564:9594   */\n      or\n        /* \"#utility.yul\":9554:9594   */\n      swap3\n      pop\n        /* \"#utility.yul\":9283:9600   */\n      pop\n      pop\n        /* \"#utility.yul\":9207:9600   */\n      swap4\n      swap3\n      pop\n      pop\n      pop\n      jump\t// out\n        /* \"#utility.yul\":9606:9666   */\n    tag_111:\n        /* \"#utility.yul\":9634:9637   */\n      0x00\n        /* \"#utility.yul\":9655:9660   */\n      dup2\n        /* \"#utility.yul\":9648:9660   */\n      swap1\n      pop\n        /* \"#utility.yul\":9606:9666   */\n      swap2\n      swap1\n      pop\n      jump\t// out\n        /* \"#utility.yul\":9672:9814   */\n    tag_112:\n        /* \"#utility.yul\":9722:9731   */\n      0x00\n        /* \"#utility.yul\":9755:9808   */\n      tag_220\n        /* \"#utility.yul\":9773:9807   */\n      tag_221\n        /* \"#utility.yul\":9782:9806   */\n      tag_222\n        /* \"#utility.yul\":9800:9805   */\n      dup5\n        /* \"#utility.yul\":9782:9806   */\n      tag_88\n      jump\t// in\n    tag_222:\n        /* \"#utility.yul\":9773:9807   */\n      tag_111\n      jump\t// in\n    tag_221:\n        /* \"#utility.yul\":9755:9808   */\n      tag_88\n      jump\t// in\n    tag_220:\n        /* \"#utility.yul\":9742:9808   */\n      swap1\n      pop\n        /* \"#utility.yul\":9672:9814   */\n      swap2\n      swap1\n      pop\n      jump\t// out\n        /* \"#utility.yul\":9820:9895   */\n    tag_113:\n        /* \"#utility.yul\":9863:9866   */\n      0x00\n        /* \"#utility.yul\":9884:9889   */\n      dup2\n        /* \"#utility.yul\":9877:9889   */\n      swap1\n      pop\n        /* \"#utility.yul\":9820:9895   */\n      swap2\n      swap1\n      pop\n      jump\t// out\n        /* \"#utility.yul\":9901:10170   */\n    tag_114:\n        /* \"#utility.yul\":10011:10050   */\n      tag_225\n        /* \"#utility.yul\":10042:10049   */\n      dup4\n        /* \"#utility.yul\":10011:10050   */\n      tag_112\n      jump\t// in\n    tag_225:\n        /* \"#utility.yul\":10072:10163   */\n      tag_226\n        /* \"#utility.yul\":10121:10162   */\n      tag_227\n        /* \"#utility.yul\":10145:10161   */\n      dup3\n        /* \"#utility.yul\":10121:10162   */\n      tag_113\n      jump\t// in\n    tag_227:\n        /* \"#utility.yul\":10113:10119   */\n      dup5\n        /* \"#utility.yul\":10106:10110   */\n      dup5\n        /* \"#utility.yul\":10100:10111   */\n      sload\n        /* \"#utility.yul\":10072:10163   */\n      tag_110\n      jump\t// in\n    tag_226:\n        /* \"#utility.yul\":10066:10070   */\n      dup3\n        /* \"#utility.yul\":10059:10164   */\n      sstore\n        /* \"#utility.yul\":9977:10170   */\n      pop\n        /* \"#utility.yul\":9901:10170   */\n      pop\n      pop\n      pop\n      jump\t// out\n        /* \"#utility.yul\":10176:10249   */\n    tag_115:\n        /* \"#utility.yul\":10221:10224   */\n      0x00\n        /* \"#utility.yul\":10242:10243   */\n      0x00\n        /* \"#utility.yul\":10235:10243   */\n      swap1\n      pop\n        /* \"#utility.yul\":10176:10249   */\n      swap1\n      jump\t// out\n        /* \"#utility.yul\":10255:10444   */\n    tag_116:\n        /* \"#utility.yul\":10332:10364   */\n      tag_230\n      tag_115\n      jump\t// in\n    tag_230:\n        /* \"#utility.yul\":10373:10438   */\n      tag_231\n        /* \"#utility.yul\":10431:10437   */\n      dup2\n        /* \"#utility.yul\":10423:10429   */\n      dup5\n        /* \"#utility.yul\":10417:10421   */\n      dup5\n        /* \"#utility.yul\":10373:10438   */\n      tag_114\n      jump\t// in\n    tag_231:\n        /* \"#utility.yul\":10308:10444   */\n      pop\n        /* \"#utility.yul\":10255:10444   */\n      pop\n      pop\n      jump\t// out\n        /* \"#utility.yul\":10450:10636   */\n    tag_117:\n        /* \"#utility.yul\":10510:10630   */\n    tag_233:\n        /* \"#utility.yul\":10527:10530   */\n      dup2\n        /* \"#utility.yul\":10520:10525   */\n      dup2\n        /* \"#utility.yul\":10517:10531   */\n      lt\n        /* \"#utility.yul\":10510:10630   */\n      iszero\n      tag_235\n      jumpi\n        /* \"#utility.yul\":10581:10620   */\n      tag_236\n        /* \"#utility.yul\":10618:10619   */\n      0x00\n        /* \"#utility.yul\":10611:10616   */\n      dup3\n        /* \"#utility.yul\":10581:10620   */\n      tag_116\n      jump\t// in\n    tag_236:\n        /* \"#utility.yul\":10554:10555   */\n      0x01\n        /* \"#utility.yul\":10547:10552   */\n      dup2\n        /* \"#utility.yul\":10543:10556   */\n      add\n        /* \"#utility.yul\":10534:10556   */\n      swap1\n      pop\n        /* \"#utility.yul\":10510:10630   */\n      jump(tag_233)\n    tag_235:\n        /* \"#utility.yul\":10450:10636   */\n      pop\n      pop\n      jump\t// out\n        /* \"#utility.yul\":10642:11185   */\n    tag_118:\n        /* \"#utility.yul\":10743:10745   */\n      0x1f\n        /* \"#utility.yul\":10738:10741   */\n      dup3\n        /* \"#utility.yul\":10735:10746   */\n      gt\n        /* \"#utility.yul\":10732:11178   */\n      iszero\n      tag_238\n      jumpi\n        /* \"#utility.yul\":10777:10815   */\n      tag_239\n        /* \"#utility.yul\":10809:10814   */\n      dup2\n        /* \"#utility.yul\":10777:10815   */\n      tag_107\n      jump\t// in\n    tag_239:\n        /* \"#utility.yul\":10861:10890   */\n      tag_240\n        /* \"#utility.yul\":10879:10889   */\n      dup5\n        /* \"#utility.yul\":10861:10890   */\n      tag_108\n      jump\t// in\n    tag_240:\n        /* \"#utility.yul\":10851:10859   */\n      dup2\n        /* \"#utility.yul\":10847:10891   */\n      add\n        /* \"#utility.yul\":11044:11046   */\n      0x20\n        /* \"#utility.yul\":11032:11042   */\n      dup6\n        /* \"#utility.yul\":11029:11047   */\n      lt\n        /* \"#utility.yul\":11026:11075   */\n      iszero\n      tag_241\n      jumpi\n        /* \"#utility.yul\":11065:11073   */\n      dup2\n        /* \"#utility.yul\":11050:11073   */\n      swap1\n      pop\n        /* \"#utility.yul\":11026:11075   */\n    tag_241:\n        /* \"#utility.yul\":11088:11168   */\n      tag_242\n        /* \"#utility.yul\":11144:11166   */\n      tag_243\n        /* \"#utility.yul\":11162:11165   */\n      dup6\n        /* \"#utility.yul\":11144:11166   */\n      tag_108\n      jump\t// in\n    tag_243:\n        /* \"#utility.yul\":11134:11142   */\n      dup4\n        /* \"#utility.yul\":11130:11167   */\n      add\n        /* \"#utility.yul\":11117:11128   */\n      dup3\n        /* \"#utility.yul\":11088:11168   */\n      tag_117\n      jump\t// in\n    tag_242:\n        /* \"#utility.yul\":10747:11178   */\n      pop\n      pop\n        /* \"#utility.yul\":10732:11178   */\n    tag_238:\n        /* \"#utility.yul\":10642:11185   */\n      pop\n      pop\n      pop\n      jump\t// out\n        /* \"#utility.yul\":11191:11308   */\n    tag_119:\n        /* \"#utility.yul\":11245:11253   */\n      0x00\n        /* \"#utility.yul\":11295:11300   */\n      dup3\n        /* \"#utility.yul\":11289:11293   */\n      dup3\n        /* \"#utility.yul\":11285:11301   */\n      shr\n        /* \"#utility.yul\":11264:11301   */\n      swap1\n      pop\n        /* \"#utility.yul\":11191:11308   */\n      swap3\n      swap2\n      pop\n      pop\n      jump\t// out\n        /* \"#utility.yul\":11314:11483   */\n    tag_120:\n        /* \"#utility.yul\":11358:11364   */\n      0x00\n        /* \"#utility.yul\":11391:11442   */\n      tag_246\n        /* \"#utility.yul\":11439:11440   */\n      0x00\n        /* \"#utility.yul\":11435:11441   */\n      not\n        /* \"#utility.yul\":11427:11432   */\n      dup5\n        /* \"#utility.yul\":11424:11425   */\n      0x08\n        /* \"#utility.yul\":11420:11433   */\n      mul\n        /* \"#utility.yul\":11391:11442   */\n      tag_119\n      jump\t// in\n    tag_246:\n        /* \"#utility.yul\":11387:11443   */\n      not\n        /* \"#utility.yul\":11472:11476   */\n      dup1\n        /* \"#utility.yul\":11466:11470   */\n      dup4\n        /* \"#utility.yul\":11462:11477   */\n      and\n        /* \"#utility.yul\":11452:11477   */\n      swap2\n      pop\n        /* \"#utility.yul\":11365:11483   */\n      pop\n        /* \"#utility.yul\":11314:11483   */\n      swap3\n      swap2\n      pop\n      pop\n      jump\t// out\n        /* \"#utility.yul\":11488:11783   */\n    tag_121:\n        /* \"#utility.yul\":11564:11568   */\n      0x00\n        /* \"#utility.yul\":11710:11739   */\n      tag_248\n        /* \"#utility.yul\":11735:11738   */\n      dup4\n        /* \"#utility.yul\":11729:11733   */\n      dup4\n        /* \"#utility.yul\":11710:11739   */\n      tag_120\n      jump\t// in\n    tag_248:\n        /* \"#utility.yul\":11702:11739   */\n      swap2\n      pop\n        /* \"#utility.yul\":11772:11775   */\n      dup3\n        /* \"#utility.yul\":11769:11770   */\n      0x02\n        /* \"#utility.yul\":11765:11776   */\n      mul\n        /* \"#utility.yul\":11759:11763   */\n      dup3\n        /* \"#utility.yul\":11756:11777   */\n      or\n        /* \"#utility.yul\":11748:11777   */\n      swap1\n      pop\n        /* \"#utility.yul\":11488:11783   */\n      swap3\n      swap2\n      pop\n      pop\n      jump\t// out\n        /* \"#utility.yul\":11788:13191   */\n    tag_55:\n        /* \"#utility.yul\":11912:11956   */\n      tag_250\n        /* \"#utility.yul\":11952:11955   */\n      dup4\n        /* \"#utility.yul\":11947:11950   */\n      dup4\n        /* \"#utility.yul\":11912:11956   */\n      tag_105\n      jump\t// in\n    tag_250:\n        /* \"#utility.yul\":12021:12039   */\n      0xffffffffffffffff\n        /* \"#utility.yul\":12013:12019   */\n      dup2\n        /* \"#utility.yul\":12010:12040   */\n      gt\n        /* \"#utility.yul\":12007:12063   */\n      iszero\n      tag_251\n      jumpi\n        /* \"#utility.yul\":12043:12061   */\n      tag_252\n      tag_106\n      jump\t// in\n    tag_252:\n        /* \"#utility.yul\":12007:12063   */\n    tag_251:\n        /* \"#utility.yul\":12087:12125   */\n      tag_253\n        /* \"#utility.yul\":12119:12123   */\n      dup3\n        /* \"#utility.yul\":12113:12124   */\n      sload\n        /* \"#utility.yul\":12087:12125   */\n      tag_49\n      jump\t// in\n    tag_253:\n        /* \"#utility.yul\":12172:12239   */\n      tag_254\n        /* \"#utility.yul\":12232:12238   */\n      dup3\n        /* \"#utility.yul\":12224:12230   */\n      dup3\n        /* \"#utility.yul\":12218:12222   */\n      dup6\n        /* \"#utility.yul\":12172:12239   */\n      tag_118\n      jump\t// in\n    tag_254:\n        /* \"#utility.yul\":12266:12267   */\n      0x00\n        /* \"#utility.yul\":12295:12297   */\n      0x1f\n        /* \"#utility.yul\":12287:12293   */\n      dup4\n        /* \"#utility.yul\":12284:12298   */\n      gt\n        /* \"#utility.yul\":12312:12313   */\n      0x01\n        /* \"#utility.yul\":12307:12939   */\n      dup2\n      eq\n      tag_256\n      jumpi\n        /* \"#utility.yul\":12983:12984   */\n      0x00\n        /* \"#utility.yul\":13000:13006   */\n      dup5\n        /* \"#utility.yul\":12997:13081   */\n      iszero\n      tag_257\n      jumpi\n        /* \"#utility.yul\":13056:13065   */\n      dup3\n        /* \"#utility.yul\":13051:13054   */\n      dup8\n        /* \"#utility.yul\":13047:13066   */\n      add\n        /* \"#utility.yul\":13034:13067   */\n      calldataload\n        /* \"#utility.yul\":13025:13067   */\n      swap1\n      pop\n        /* \"#utility.yul\":12997:13081   */\n    tag_257:\n        /* \"#utility.yul\":13107:13174   */\n      tag_258\n        /* \"#utility.yul\":13167:13173   */\n      dup6\n        /* \"#utility.yul\":13160:13165   */\n      dup3\n        /* \"#utility.yul\":13107:13174   */\n      tag_121\n      jump\t// in\n    tag_258:\n        /* \"#utility.yul\":13101:13105   */\n      dup7\n        /* \"#utility.yul\":13094:13175   */\n      sstore\n        /* \"#utility.yul\":12956:13185   */\n      pop\n        /* \"#utility.yul\":12277:13185   */\n      jump(tag_255)\n        /* \"#utility.yul\":12307:12939   */\n    tag_256:\n        /* \"#utility.yul\":12359:12363   */\n      0x1f\n        /* \"#utility.yul\":12355:12364   */\n      not\n        /* \"#utility.yul\":12347:12353   */\n      dup5\n        /* \"#utility.yul\":12343:12365   */\n      and\n        /* \"#utility.yul\":12393:12430   */\n      tag_259\n        /* \"#utility.yul\":12425:12429   */\n      dup7\n        /* \"#utility.yul\":12393:12430   */\n      tag_107\n      jump\t// in\n    tag_259:\n        /* \"#utility.yul\":12452:12453   */\n      0x00\n        /* \"#utility.yul\":12466:12681   */\n    tag_260:\n        /* \"#utility.yul\":12480:12487   */\n      dup3\n        /* \"#utility.yul\":12477:12478   */\n      dup2\n        /* \"#utility.yul\":12474:12488   */\n      lt\n        /* \"#utility.yul\":12466:12681   */\n      iszero\n      tag_262\n      jumpi\n        /* \"#utility.yul\":12566:12575   */\n      dup5\n        /* \"#utility.yul\":12561:12564   */\n      dup10\n        /* \"#utility.yul\":12557:12576   */\n      add\n        /* \"#utility.yul\":12544:12577   */\n      calldataload\n        /* \"#utility.yul\":12536:12542   */\n      dup3\n        /* \"#utility.yul\":12529:12578   */\n      sstore\n        /* \"#utility.yul\":12617:12618   */\n      0x01\n        /* \"#utility.yul\":12609:12615   */\n      dup3\n        /* \"#utility.yul\":12605:12619   */\n      add\n        /* \"#utility.yul\":12595:12619   */\n      swap2\n      pop\n        /* \"#utility.yul\":12664:12666   */\n      0x20\n        /* \"#utility.yul\":12653:12662   */\n      dup6\n        /* \"#utility.yul\":12649:12667   */\n      add\n        /* \"#utility.yul\":12636:12667   */\n      swap5\n      pop\n        /* \"#utility.yul\":12503:12507   */\n      0x20\n        /* \"#utility.yul\":12500:12501   */\n      dup2\n        /* \"#utility.yul\":12496:12508   */\n      add\n        /* \"#utility.yul\":12491:12508   */\n      swap1\n      pop\n        /* \"#utility.yul\":12466:12681   */\n      jump(tag_260)\n    tag_262:\n        /* \"#utility.yul\":12709:12715   */\n      dup7\n        /* \"#utility.yul\":12700:12707   */\n      dup4\n        /* \"#utility.yul\":12697:12716   */\n      lt\n        /* \"#utility.yul\":12694:12880   */\n      iszero\n      tag_263\n      jumpi\n        /* \"#utility.yul\":12774:12783   */\n      dup5\n        /* \"#utility.yul\":12769:12772   */\n      dup10\n        /* \"#utility.yul\":12765:12784   */\n      add\n        /* \"#utility.yul\":12752:12785   */\n      calldataload\n        /* \"#utility.yul\":12817:12865   */\n      tag_264\n        /* \"#utility.yul\":12859:12863   */\n      0x1f\n        /* \"#utility.yul\":12851:12857   */\n      dup10\n        /* \"#utility.yul\":12847:12864   */\n      and\n        /* \"#utility.yul\":12836:12845   */\n      dup3\n        /* \"#utility.yul\":12817:12865   */\n      tag_120\n      jump\t// in\n    tag_264:\n        /* \"#utility.yul\":12809:12815   */\n      dup4\n        /* \"#utility.yul\":12802:12866   */\n      sstore\n        /* \"#utility.yul\":12717:12880   */\n      pop\n        /* \"#utility.yul\":12694:12880   */\n    tag_263:\n        /* \"#utility.yul\":12926:12927   */\n      0x01\n        /* \"#utility.yul\":12922:12923   */\n      0x02\n        /* \"#utility.yul\":12914:12920   */\n      dup9\n        /* \"#utility.yul\":12910:12924   */\n      mul\n        /* \"#utility.yul\":12906:12928   */\n      add\n        /* \"#utility.yul\":12900:12904   */\n      dup9\n        /* \"#utility.yul\":12893:12929   */\n      sstore\n        /* \"#utility.yul\":12314:12939   */\n      pop\n      pop\n      pop\n        /* \"#utility.yul\":12277:13185   */\n    tag_255:\n      pop\n        /* \"#utility.yul\":11887:13191   */\n      pop\n      pop\n      pop\n        /* \"#utility.yul\":11788:13191   */\n      pop\n      pop\n      pop\n      jump\t// out\n        /* \"#utility.yul\":13197:13345   */\n    tag_122:\n        /* \"#utility.yul\":13295:13301   */\n      dup3\n        /* \"#utility.yul\":13290:13293   */\n      dup2\n        /* \"#utility.yul\":13285:13288   */\n      dup4\n        /* \"#utility.yul\":13272:13302   */\n      calldatacopy\n        /* \"#utility.yul\":13336:13337   */\n      0x00\n        /* \"#utility.yul\":13327:13333   */\n      dup4\n        /* \"#utility.yul\":13322:13325   */\n      dup4\n        /* \"#utility.yul\":13318:13334   */\n      add\n        /* \"#utility.yul\":13311:13338   */\n      mstore\n        /* \"#utility.yul\":13197:13345   */\n      pop\n      pop\n      pop\n      jump\t// out\n        /* \"#utility.yul\":13375:13692   */\n    tag_123:\n        /* \"#utility.yul\":13473:13476   */\n      0x00\n        /* \"#utility.yul\":13494:13565   */\n      tag_267\n        /* \"#utility.yul\":13558:13564   */\n      dup4\n        /* \"#utility.yul\":13553:13556   */\n      dup6\n        /* \"#utility.yul\":13494:13565   */\n      tag_91\n      jump\t// in\n    tag_267:\n        /* \"#utility.yul\":13487:13565   */\n      swap4\n      pop\n        /* \"#utility.yul\":13575:13631   */\n      tag_268\n        /* \"#utility.yul\":13624:13630   */\n      dup4\n        /* \"#utility.yul\":13619:13622   */\n      dup6\n        /* \"#utility.yul\":13612:13617   */\n      dup5\n        /* \"#utility.yul\":13575:13631   */\n      tag_122\n      jump\t// in\n    tag_268:\n        /* \"#utility.yul\":13656:13685   */\n      tag_269\n        /* \"#utility.yul\":13678:13684   */\n      dup4\n        /* \"#utility.yul\":13656:13685   */\n      tag_93\n      jump\t// in\n    tag_269:\n        /* \"#utility.yul\":13651:13654   */\n      dup5\n        /* \"#utility.yul\":13647:13686   */\n      add\n        /* \"#utility.yul\":13640:13686   */\n      swap1\n      pop\n        /* \"#utility.yul\":13375:13692   */\n      swap4\n      swap3\n      pop\n      pop\n      pop\n      jump\t// out\n        /* \"#utility.yul\":13698:14232   */\n    tag_57:\n        /* \"#utility.yul\":13869:13873   */\n      0x00\n        /* \"#utility.yul\":13907:13909   */\n      0x40\n        /* \"#utility.yul\":13896:13905   */\n      dup3\n        /* \"#utility.yul\":13892:13910   */\n      add\n        /* \"#utility.yul\":13884:13910   */\n      swap1\n      pop\n        /* \"#utility.yul\":13956:13965   */\n      dup2\n        /* \"#utility.yul\":13950:13954   */\n      dup2\n        /* \"#utility.yul\":13946:13966   */\n      sub\n        /* \"#utility.yul\":13942:13943   */\n      0x00\n        /* \"#utility.yul\":13931:13940   */\n      dup4\n        /* \"#utility.yul\":13927:13944   */\n      add\n        /* \"#utility.yul\":13920:13967   */\n      mstore\n        /* \"#utility.yul\":13984:14062   */\n      tag_271\n        /* \"#utility.yul\":14057:14061   */\n      dup2\n        /* \"#utility.yul\":14048:14054   */\n      dup7\n        /* \"#utility.yul\":13984:14062   */\n      tag_94\n      jump\t// in\n    tag_271:\n        /* \"#utility.yul\":13976:14062   */\n      swap1\n      pop\n        /* \"#utility.yul\":14109:14118   */\n      dup2\n        /* \"#utility.yul\":14103:14107   */\n      dup2\n        /* \"#utility.yul\":14099:14119   */\n      sub\n        /* \"#utility.yul\":14094:14096   */\n      0x20\n        /* \"#utility.yul\":14083:14092   */\n      dup4\n        /* \"#utility.yul\":14079:14097   */\n      add\n        /* \"#utility.yul\":14072:14120   */\n      mstore\n        /* \"#utility.yul\":14137:14225   */\n      tag_272\n        /* \"#utility.yul\":14220:14224   */\n      dup2\n        /* \"#utility.yul\":14211:14217   */\n      dup5\n        /* \"#utility.yul\":14203:14209   */\n      dup7\n        /* \"#utility.yul\":14137:14225   */\n      tag_123\n      jump\t// in\n    tag_272:\n        /* \"#utility.yul\":14129:14225   */\n      swap1\n      pop\n        /* \"#utility.yul\":13698:14232   */\n      swap5\n      swap4\n      pop\n      pop\n      pop\n      pop\n      jump\t// out\n        /* \"#utility.yul\":14238:14405   */\n    tag_124:\n        /* \"#utility.yul\":14378:14397   */\n      0x50726f66696c65206e6f7420666f756e64000000000000000000000000000000\n        /* \"#utility.yul\":14374:14375   */\n      0x00\n        /* \"#utility.yul\":14366:14372   */\n      dup3\n        /* \"#utility.yul\":14362:14376   */\n      add\n        /* \"#utility.yul\":14355:14398   */\n      mstore\n        /* \"#utility.yul\":14238:14405   */\n      pop\n      jump\t// out\n        /* \"#utility.yul\":14411:14777   */\n    tag_125:\n        /* \"#utility.yul\":14553:14556   */\n      0x00\n        /* \"#utility.yul\":14574:14641   */\n      tag_275\n        /* \"#utility.yul\":14638:14640   */\n      0x11\n        /* \"#utility.yul\":14633:14636   */\n      dup4\n        /* \"#utility.yul\":14574:14641   */\n      tag_91\n      jump\t// in\n    tag_275:\n        /* \"#utility.yul\":14567:14641   */\n      swap2\n      pop\n        /* \"#utility.yul\":14650:14743   */\n      tag_276\n        /* \"#utility.yul\":14739:14742   */\n      dup3\n        /* \"#utility.yul\":14650:14743   */\n      tag_124\n      jump\t// in\n    tag_276:\n        /* \"#utility.yul\":14768:14770   */\n      0x20\n        /* \"#utility.yul\":14763:14766   */\n      dup3\n        /* \"#utility.yul\":14759:14771   */\n      add\n        /* \"#utility.yul\":14752:14771   */\n      swap1\n      pop\n        /* \"#utility.yul\":14411:14777   */\n      swap2\n      swap1\n      pop\n      jump\t// out\n        /* \"#utility.yul\":14783:15202   */\n    tag_61:\n        /* \"#utility.yul\":14949:14953   */\n      0x00\n        /* \"#utility.yul\":14987:14989   */\n      0x20\n        /* \"#utility.yul\":14976:14985   */\n      dup3\n        /* \"#utility.yul\":14972:14990   */\n      add\n        /* \"#utility.yul\":14964:14990   */\n      swap1\n      pop\n        /* \"#utility.yul\":15036:15045   */\n      dup2\n        /* \"#utility.yul\":15030:15034   */\n      dup2\n        /* \"#utility.yul\":15026:15046   */\n      sub\n        /* \"#utility.yul\":15022:15023   */\n      0x00\n        /* \"#utility.yul\":15011:15020   */\n      dup4\n        /* \"#utility.yul\":15007:15024   */\n      add\n        /* \"#utility.yul\":15000:15047   */\n      mstore\n        /* \"#utility.yul\":15064:15195   */\n      tag_278\n        /* \"#utility.yul\":15190:15194   */\n      dup2\n        /* \"#utility.yul\":15064:15195   */\n      tag_125\n      jump\t// in\n    tag_278:\n        /* \"#utility.yul\":15056:15195   */\n      swap1\n      pop\n        /* \"#utility.yul\":14783:15202   */\n      swap2\n      swap1\n      pop\n      jump\t// out\n        /* \"#utility.yul\":15208:15380   */\n    tag_126:\n        /* \"#utility.yul\":15348:15372   */\n      0x50726f66696c6520616c72656164792065786973747300000000000000000000\n        /* \"#utility.yul\":15344:15345   */\n      0x00\n        /* \"#utility.yul\":15336:15342   */\n      dup3\n        /* \"#utility.yul\":15332:15346   */\n      add\n        /* \"#utility.yul\":15325:15373   */\n      mstore\n        /* \"#utility.yul\":15208:15380   */\n      pop\n      jump\t// out\n        /* \"#utility.yul\":15386:15752   */\n    tag_127:\n        /* \"#utility.yul\":15528:15531   */\n      0x00\n        /* \"#utility.yul\":15549:15616   */\n      tag_281\n        /* \"#utility.yul\":15613:15615   */\n      0x16\n        /* \"#utility.yul\":15608:15611   */\n      dup4\n        /* \"#utility.yul\":15549:15616   */\n      tag_91\n      jump\t// in\n    tag_281:\n        /* \"#utility.yul\":15542:15616   */\n      swap2\n      pop\n        /* \"#utility.yul\":15625:15718   */\n      tag_282\n        /* \"#utility.yul\":15714:15717   */\n      dup3\n        /* \"#utility.yul\":15625:15718   */\n      tag_126\n      jump\t// in\n    tag_282:\n        /* \"#utility.yul\":15743:15745   */\n      0x20\n        /* \"#utility.yul\":15738:15741   */\n      dup3\n        /* \"#utility.yul\":15734:15746   */\n      add\n        /* \"#utility.yul\":15727:15746   */\n      swap1\n      pop\n        /* \"#utility.yul\":15386:15752   */\n      swap2\n      swap1\n      pop\n      jump\t// out\n        /* \"#utility.yul\":15758:16177   */\n    tag_70:\n        /* \"#utility.yul\":15924:15928   */\n      0x00\n        /* \"#utility.yul\":15962:15964   */\n      0x20\n        /* \"#utility.yul\":15951:15960   */\n      dup3\n        /* \"#utility.yul\":15947:15965   */\n      add\n        /* \"#utility.yul\":15939:15965   */\n      swap1\n      pop\n        /* \"#utility.yul\":16011:16020   */\n      dup2\n        /* \"#utility.yul\":16005:16009   */\n      dup2\n        /* \"#utility.yul\":16001:16021   */\n      sub\n        /* \"#utility.yul\":15997:15998   */\n      0x00\n        /* \"#utility.yul\":15986:15995   */\n      dup4\n        /* \"#utility.yul\":15982:15999   */\n      add\n        /* \"#utility.yul\":15975:16022   */\n      mstore\n        /* \"#utility.yul\":16039:16170   */\n      tag_284\n        /* \"#utility.yul\":16165:16169   */\n      dup2\n        /* \"#utility.yul\":16039:16170   */\n      tag_127\n      jump\t// in\n    tag_284:\n        /* \"#utility.yul\":16031:16170   */\n      swap1\n      pop\n        /* \"#utility.yul\":15758:16177   */\n      swap2\n      swap1\n      pop\n      jump\t// out\n        /* \"#utility.yul\":16183:16516   */\n    tag_76:\n        /* \"#utility.yul\":16306:16310   */\n      0x00\n        /* \"#utility.yul\":16344:16346   */\n      0x20\n        /* \"#utility.yul\":16333:16342   */\n      dup3\n        /* \"#utility.yul\":16329:16347   */\n      add\n        /* \"#utility.yul\":16321:16347   */\n      swap1\n      pop\n        /* \"#utility.yul\":16393:16402   */\n      dup2\n        /* \"#utility.yul\":16387:16391   */\n      dup2\n        /* \"#utility.yul\":16383:16403   */\n      sub\n        /* \"#utility.yul\":16379:16380   */\n      0x00\n        /* \"#utility.yul\":16368:16377   */\n      dup4\n        /* \"#utility.yul\":16364:16381   */\n      add\n        /* \"#utility.yul\":16357:16404   */\n      mstore\n        /* \"#utility.yul\":16421:16509   */\n      tag_286\n        /* \"#utility.yul\":16504:16508   */\n      dup2\n        /* \"#utility.yul\":16495:16501   */\n      dup5\n        /* \"#utility.yul\":16487:16493   */\n      dup7\n        /* \"#utility.yul\":16421:16509   */\n      tag_123\n      jump\t// in\n    tag_286:\n        /* \"#utility.yul\":16413:16509   */\n      swap1\n      pop\n        /* \"#utility.yul\":16183:16516   */\n      swap4\n      swap3\n      pop\n      pop\n      pop\n      jump\t// out\n\n    auxdata: 0xa26469706673582212209bb94b279df045296485c9d05c9b14c82b7677189298c6cb19ab8a37e109a10a64736f6c634300081e0033\n}\n",
				"bytecode": {
					"linkReferences": {},
					"object": "6080604052348015600e575f5ffd5b506110438061001c5f395ff3fe608060405234801561000f575f5ffd5b506004361061005f575f3560e01c80629299e3146100635780630a6f93e61461007f5780630f53a470146100af578063334c3f0e146100df5780639d5739e7146100fb578063a787c80b14610119575b5f5ffd5b61007d6004803603810190610078919061084d565b610149565b005b610099600480360381019061009491906108f2565b610450565b6040516100a69190610935565b60405180910390f35b6100c960048036038101906100c491906108f2565b610465565b6040516100d691906109be565b60405180910390f35b6100f960048036038101906100f4919061084d565b6105ba565b005b6101036107c0565b6040516101109190610935565b60405180910390f35b610133600480360381019061012e91906108f2565b6107c7565b60405161014091906109f8565b60405180910390f35b60025f3373ffffffffffffffffffffffffffffffffffffffff1673ffffffffffffffffffffffffffffffffffffffff1681526020019081526020015f205f9054906101000a900460ff166101d2576040517f08c379a00000000000000000000000000000000000000000000000000000000081526004016101c990610a5b565b60405180910390fd5b5f8282905011610217576040517f08c379a000000000000000000000000000000000000000000000000000000000815260040161020e90610ac3565b60405180910390fd5b6212750060015f3373ffffffffffffffffffffffffffffffffffffffff1673ffffffffffffffffffffffffffffffffffffffff1681526020019081526020015f20546102639190610b0e565b4210156102a5576040517f08c379a000000000000000000000000000000000000000000000000000000000815260040161029c90610b8b565b60405180910390fd5b5f5f5f3373ffffffffffffffffffffffffffffffffffffffff1673ffffffffffffffffffffffffffffffffffffffff1681526020019081526020015f2080546102ed90610bd6565b80601f016020809104026020016040519081016040528092919081815260200182805461031990610bd6565b80156103645780601f1061033b57610100808354040283529160200191610364565b820191905f5260205f20905b81548152906001019060200180831161034757829003601f168201915b5050505050905082825f5f3373ffffffffffffffffffffffffffffffffffffffff1673ffffffffffffffffffffffffffffffffffffffff1681526020019081526020015f2091826103b6929190610ddd565b504260015f3373ffffffffffffffffffffffffffffffffffffffff1673ffffffffffffffffffffffffffffffffffffffff1681526020019081526020015f20819055503373ffffffffffffffffffffffffffffffffffffffff167f6eb3a1c6a4675ba92d44e090515b1ceea358f26565d2854df0c99c3f5eaf985082858560405161044393929190610ee4565b60405180910390a2505050565b6001602052805f5260405f205f915090505481565b606060025f8373ffffffffffffffffffffffffffffffffffffffff1673ffffffffffffffffffffffffffffffffffffffff1681526020019081526020015f205f9054906101000a900460ff166104f0576040517f08c379a00000000000000000000000000000000000000000000000000000000081526004016104e790610f65565b60405180910390fd5b5f5f8373ffffffffffffffffffffffffffffffffffffffff1673ffffffffffffffffffffffffffffffffffffffff1681526020019081526020015f20805461053790610bd6565b80601f016020809104026020016040519081016040528092919081815260200182805461056390610bd6565b80156105ae5780601f10610585576101008083540402835291602001916105ae565b820191905f5260205f20905b81548152906001019060200180831161059157829003601f168201915b50505050509050919050565b60025f3373ffffffffffffffffffffffffffffffffffffffff1673ffffffffffffffffffffffffffffffffffffffff1681526020019081526020015f205f9054906101000a900460ff1615610644576040517f08c379a000000000000000000000000000000000000000000000000000000000815260040161063b90610fcd565b60405180910390fd5b5f8282905011610689576040517f08c379a000000000000000000000000000000000000000000000000000000000815260040161068090610ac3565b60405180910390fd5b600160025f3373ffffffffffffffffffffffffffffffffffffffff1673ffffffffffffffffffffffffffffffffffffffff1681526020019081526020015f205f6101000a81548160ff02191690831515021790555081815f5f3373ffffffffffffffffffffffffffffffffffffffff1673ffffffffffffffffffffffffffffffffffffffff1681526020019081526020015f209182610729929190610ddd565b504260015f3373ffffffffffffffffffffffffffffffffffffffff1673ffffffffffffffffffffffffffffffffffffffff1681526020019081526020015f20819055503373ffffffffffffffffffffffffffffffffffffffff167fbafddecbd1dec1c1afb76d693f1de16901f521bdf29a02438e3e6806c0b8d94883836040516107b4929190610feb565b60405180910390a25050565b6212750081565b6002602052805f5260405f205f915054906101000a900460ff1681565b5f5ffd5b5f5ffd5b5f5ffd5b5f5ffd5b5f5ffd5b5f5f83601f84011261080d5761080c6107ec565b5b8235905067ffffffffffffffff81111561082a576108296107f0565b5b602083019150836001820283011115610846576108456107f4565b5b9250929050565b5f5f60208385031215610863576108626107e4565b5b5f83013567ffffffffffffffff8111156108805761087f6107e8565b5b61088c858286016107f8565b92509250509250929050565b5f73ffffffffffffffffffffffffffffffffffffffff82169050919050565b5f6108c182610898565b9050919050565b6108d1816108b7565b81146108db575f5ffd5b50565b5f813590506108ec816108c8565b92915050565b5f60208284031215610907576109066107e4565b5b5f610914848285016108de565b91505092915050565b5f819050919050565b61092f8161091d565b82525050565b5f6020820190506109485f830184610926565b92915050565b5f81519050919050565b5f82825260208201905092915050565b8281835e5f83830152505050565b5f601f19601f8301169050919050565b5f6109908261094e565b61099a8185610958565b93506109aa818560208601610968565b6109b381610976565b840191505092915050565b5f6020820190508181035f8301526109d68184610986565b905092915050565b5f8115159050919050565b6109f2816109de565b82525050565b5f602082019050610a0b5f8301846109e9565b92915050565b7f50726f66696c6520646f6573206e6f74206578697374000000000000000000005f82015250565b5f610a45601683610958565b9150610a5082610a11565b602082019050919050565b5f6020820190508181035f830152610a7281610a39565b9050919050565b7f496e76616c6964204349440000000000000000000000000000000000000000005f82015250565b5f610aad600b83610958565b9150610ab882610a79565b602082019050919050565b5f6020820190508181035f830152610ada81610aa1565b9050919050565b7f4e487b71000000000000000000000000000000000000000000000000000000005f52601160045260245ffd5b5f610b188261091d565b9150610b238361091d565b9250828201905080821115610b3b57610b3a610ae1565b5b92915050565b7f55706461746520636f6f6c646f776e20616374697665000000000000000000005f82015250565b5f610b75601683610958565b9150610b8082610b41565b602082019050919050565b5f6020820190508181035f830152610ba281610b69565b9050919050565b7f4e487b71000000000000000000000000000000000000000000000000000000005f52602260045260245ffd5b5f6002820490506001821680610bed57607f821691505b602082108103610c0057610bff610ba9565b5b50919050565b5f82905092915050565b7f4e487b71000000000000000000000000000000000000000000000000000000005f52604160045260245ffd5b5f819050815f5260205f209050919050565b5f6020601f8301049050919050565b5f82821b905092915050565b5f60088302610c997fffffffffffffffffffffffffffffffffffffffffffffffffffffffffffffffff82610c5e565b610ca38683610c5e565b95508019841693508086168417925050509392505050565b5f819050919050565b5f610cde610cd9610cd48461091d565b610cbb565b61091d565b9050919050565b5f819050919050565b610cf783610cc4565b610d0b610d0382610ce5565b848454610c6a565b825550505050565b5f5f905090565b610d22610d13565b610d2d818484610cee565b505050565b5b81811015610d5057610d455f82610d1a565b600181019050610d33565b5050565b601f821115610d9557610d6681610c3d565b610d6f84610c4f565b81016020851015610d7e578190505b610d92610d8a85610c4f565b830182610d32565b50505b505050565b5f82821c905092915050565b5f610db55f1984600802610d9a565b1980831691505092915050565b5f610dcd8383610da6565b9150826002028217905092915050565b610de78383610c06565b67ffffffffffffffff811115610e0057610dff610c10565b5b610e0a8254610bd6565b610e15828285610d54565b5f601f831160018114610e42575f8415610e30578287013590505b610e3a8582610dc2565b865550610ea1565b601f198416610e5086610c3d565b5f5b82811015610e7757848901358255600182019150602085019450602081019050610e52565b86831015610e945784890135610e90601f891682610da6565b8355505b6001600288020188555050505b50505050505050565b828183375f83830152505050565b5f610ec38385610958565b9350610ed0838584610eaa565b610ed983610976565b840190509392505050565b5f6040820190508181035f830152610efc8186610986565b90508181036020830152610f11818486610eb8565b9050949350505050565b7f50726f66696c65206e6f7420666f756e640000000000000000000000000000005f82015250565b5f610f4f601183610958565b9150610f5a82610f1b565b602082019050919050565b5f6020820190508181035f830152610f7c81610f43565b9050919050565b7f50726f66696c6520616c726561647920657869737473000000000000000000005f82015250565b5f610fb7601683610958565b9150610fc282610f83565b602082019050919050565b5f6020820190508181035f830152610fe481610fab565b9050919050565b5f6020820190508181035f830152611004818486610eb8565b9050939250505056fea26469706673582212209bb94b279df045296485c9d05c9b14c82b7677189298c6cb19ab8a37e109a10a64736f6c634300081e0033",
					"opcodes": "PUSH1 0x80 PUSH1 0x40 MSTORE CALLVALUE DUP1 ISZERO PUSH1 0xE JUMPI PUSH0 PUSH0 REVERT JUMPDEST POP PUSH2 0x1043 DUP1 PUSH2 0x1C PUSH0 CODECOPY PUSH0 RETURN INVALID PUSH1 0x80 PUSH1 0x40 MSTORE CALLVALUE DUP1 ISZERO PUSH2 0xF JUMPI PUSH0 PUSH0 REVERT JUMPDEST POP PUSH1 0x4 CALLDATASIZE LT PUSH2 0x5F JUMPI PUSH0 CALLDATALOAD PUSH1 0xE0 SHR DUP1 PUSH3 0x9299E3 EQ PUSH2 0x63 JUMPI DUP1 PUSH4 0xA6F93E6 EQ PUSH2 0x7F JUMPI DUP1 PUSH4 0xF53A470 EQ PUSH2 0xAF JUMPI DUP1 PUSH4 0x334C3F0E EQ PUSH2 0xDF JUMPI DUP1 PUSH4 0x9D5739E7 EQ PUSH2 0xFB JUMPI DUP1 PUSH4 0xA787C80B EQ PUSH2 0x119 JUMPI JUMPDEST PUSH0 PUSH0 REVERT JUMPDEST PUSH2 0x7D PUSH1 0x4 DUP1 CALLDATASIZE SUB DUP2 ADD SWAP1 PUSH2 0x78 SWAP2 SWAP1 PUSH2 0x84D JUMP JUMPDEST PUSH2 0x149 JUMP JUMPDEST STOP JUMPDEST PUSH2 0x99 PUSH1 0x4 DUP1 CALLDATASIZE SUB DUP2 ADD SWAP1 PUSH2 0x94 SWAP2 SWAP1 PUSH2 0x8F2 JUMP JUMPDEST PUSH2 0x450 JUMP JUMPDEST PUSH1 0x40 MLOAD PUSH2 0xA6 SWAP2 SWAP1 PUSH2 0x935 JUMP JUMPDEST PUSH1 0x40 MLOAD DUP1 SWAP2 SUB SWAP1 RETURN JUMPDEST PUSH2 0xC9 PUSH1 0x4 DUP1 CALLDATASIZE SUB DUP2 ADD SWAP1 PUSH2 0xC4 SWAP2 SWAP1 PUSH2 0x8F2 JUMP JUMPDEST PUSH2 0x465 JUMP JUMPDEST PUSH1 0x40 MLOAD PUSH2 0xD6 SWAP2 SWAP1 PUSH2 0x9BE JUMP JUMPDEST PUSH1 0x40 MLOAD DUP1 SWAP2 SUB SWAP1 RETURN JUMPDEST PUSH2 0xF9 PUSH1 0x4 DUP1 CALLDATASIZE SUB DUP2 ADD SWAP1 PUSH2 0xF4 SWAP2 SWAP1 PUSH2 0x84D JUMP JUMPDEST PUSH2 0x5BA JUMP JUMPDEST STOP JUMPDEST PUSH2 0x103 PUSH2 0x7C0 JUMP JUMPDEST PUSH1 0x40 MLOAD PUSH2 0x110 SWAP2 SWAP1 PUSH2 0x935 JUMP JUMPDEST PUSH1 0x40 MLOAD DUP1 SWAP2 SUB SWAP1 RETURN JUMPDEST PUSH2 0x133 PUSH1 0x4 DUP1 CALLDATASIZE SUB DUP2 ADD SWAP1 PUSH2 0x12E SWAP2 SWAP1 PUSH2 0x8F2 JUMP JUMPDEST PUSH2 0x7C7 JUMP JUMPDEST PUSH1 0x40 MLOAD PUSH2 0x140 SWAP2 SWAP1 PUSH2 0x9F8 JUMP JUMPDEST PUSH1 0x40 MLOAD DUP1 SWAP2 SUB SWAP1 RETURN JUMPDEST PUSH1 0x2 PUSH0 CALLER PUSH20 0xFFFFFFFFFFFFFFFFFFFFFFFFFFFFFFFFFFFFFFFF AND PUSH20 0xFFFFFFFFFFFFFFFFFFFFFFFFFFFFFFFFFFFFFFFF AND DUP2 MSTORE PUSH1 0x20 ADD SWAP1 DUP2 MSTORE PUSH1 0x20 ADD PUSH0 KECCAK256 PUSH0 SWAP1 SLOAD SWAP1 PUSH2 0x100 EXP SWAP1 DIV PUSH1 0xFF AND PUSH2 0x1D2 JUMPI PUSH1 0x40 MLOAD PUSH32 0x8C379A000000000000000000000000000000000000000000000000000000000 DUP2 MSTORE PUSH1 0x4 ADD PUSH2 0x1C9 SWAP1 PUSH2 0xA5B JUMP JUMPDEST PUSH1 0x40 MLOAD DUP1 SWAP2 SUB SWAP1 REVERT JUMPDEST PUSH0 DUP3 DUP3 SWAP1 POP GT PUSH2 0x217 JUMPI PUSH1 0x40 MLOAD PUSH32 0x8C379A000000000000000000000000000000000000000000000000000000000 DUP2 MSTORE PUSH1 0x4 ADD PUSH2 0x20E SWAP1 PUSH2 0xAC3 JUMP JUMPDEST PUSH1 0x40 MLOAD DUP1 SWAP2 SUB SWAP1 REVERT JUMPDEST PUSH3 0x127500 PUSH1 0x1 PUSH0 CALLER PUSH20 0xFFFFFFFFFFFFFFFFFFFFFFFFFFFFFFFFFFFFFFFF AND PUSH20 0xFFFFFFFFFFFFFFFFFFFFFFFFFFFFFFFFFFFFFFFF AND DUP2 MSTORE PUSH1 0x20 ADD SWAP1 DUP2 MSTORE PUSH1 0x20 ADD PUSH0 KECCAK256 SLOAD PUSH2 0x263 SWAP2 SWAP1 PUSH2 0xB0E JUMP JUMPDEST TIMESTAMP LT ISZERO PUSH2 0x2A5 JUMPI PUSH1 0x40 MLOAD PUSH32 0x8C379A000000000000000000000000000000000000000000000000000000000 DUP2 MSTORE PUSH1 0x4 ADD PUSH2 0x29C SWAP1 PUSH2 0xB8B JUMP JUMPDEST PUSH1 0x40 MLOAD DUP1 SWAP2 SUB SWAP1 REVERT JUMPDEST PUSH0 PUSH0 PUSH0 CALLER PUSH20 0xFFFFFFFFFFFFFFFFFFFFFFFFFFFFFFFFFFFFFFFF AND PUSH20 0xFFFFFFFFFFFFFFFFFFFFFFFFFFFFFFFFFFFFFFFF AND DUP2 MSTORE PUSH1 0x20 ADD SWAP1 DUP2 MSTORE PUSH1 0x20 ADD PUSH0 KECCAK256 DUP1 SLOAD PUSH2 0x2ED SWAP1 PUSH2 0xBD6 JUMP JUMPDEST DUP1 PUSH1 0x1F ADD PUSH1 0x20 DUP1 SWAP2 DIV MUL PUSH1 0x20 ADD PUSH1 0x40 MLOAD SWAP1 DUP2 ADD PUSH1 0x40 MSTORE DUP1 SWAP3 SWAP2 SWAP1 DUP2 DUP2 MSTORE PUSH1 0x20 ADD DUP3 DUP1 SLOAD PUSH2 0x319 SWAP1 PUSH2 0xBD6 JUMP JUMPDEST DUP1 ISZERO PUSH2 0x364 JUMPI DUP1 PUSH1 0x1F LT PUSH2 0x33B JUMPI PUSH2 0x100 DUP1 DUP4 SLOAD DIV MUL DUP4 MSTORE SWAP2 PUSH1 0x20 ADD SWAP2 PUSH2 0x364 JUMP JUMPDEST DUP3 ADD SWAP2 SWAP1 PUSH0 MSTORE PUSH1 0x20 PUSH0 KECCAK256 SWAP1 JUMPDEST DUP2 SLOAD DUP2 MSTORE SWAP1 PUSH1 0x1 ADD SWAP1 PUSH1 0x20 ADD DUP1 DUP4 GT PUSH2 0x347 JUMPI DUP3 SWAP1 SUB PUSH1 0x1F AND DUP3 ADD SWAP2 JUMPDEST POP POP POP POP POP SWAP1 POP DUP3 DUP3 PUSH0 PUSH0 CALLER PUSH20 0xFFFFFFFFFFFFFFFFFFFFFFFFFFFFFFFFFFFFFFFF AND PUSH20 0xFFFFFFFFFFFFFFFFFFFFFFFFFFFFFFFFFFFFFFFF AND DUP2 MSTORE PUSH1 0x20 ADD SWAP1 DUP2 MSTORE PUSH1 0x20 ADD PUSH0 KECCAK256 SWAP2 DUP3 PUSH2 0x3B6 SWAP3 SWAP2 SWAP1 PUSH2 0xDDD JUMP JUMPDEST POP TIMESTAMP PUSH1 0x1 PUSH0 CALLER PUSH20 0xFFFFFFFFFFFFFFFFFFFFFFFFFFFFFFFFFFFFFFFF AND PUSH20 0xFFFFFFFFFFFFFFFFFFFFFFFFFFFFFFFFFFFFFFFF AND DUP2 MSTORE PUSH1 0x20 ADD SWAP1 DUP2 MSTORE PUSH1 0x20 ADD PUSH0 KECCAK256 DUP2 SWAP1 SSTORE POP CALLER PUSH20 0xFFFFFFFFFFFFFFFFFFFFFFFFFFFFFFFFFFFFFFFF AND PUSH32 0x6EB3A1C6A4675BA92D44E090515B1CEEA358F26565D2854DF0C99C3F5EAF9850 DUP3 DUP6 DUP6 PUSH1 0x40 MLOAD PUSH2 0x443 SWAP4 SWAP3 SWAP2 SWAP1 PUSH2 0xEE4 JUMP JUMPDEST PUSH1 0x40 MLOAD DUP1 SWAP2 SUB SWAP1 LOG2 POP POP POP JUMP JUMPDEST PUSH1 0x1 PUSH1 0x20 MSTORE DUP1 PUSH0 MSTORE PUSH1 0x40 PUSH0 KECCAK256 PUSH0 SWAP2 POP SWAP1 POP SLOAD DUP2 JUMP JUMPDEST PUSH1 0x60 PUSH1 0x2 PUSH0 DUP4 PUSH20 0xFFFFFFFFFFFFFFFFFFFFFFFFFFFFFFFFFFFFFFFF AND PUSH20 0xFFFFFFFFFFFFFFFFFFFFFFFFFFFFFFFFFFFFFFFF AND DUP2 MSTORE PUSH1 0x20 ADD SWAP1 DUP2 MSTORE PUSH1 0x20 ADD PUSH0 KECCAK256 PUSH0 SWAP1 SLOAD SWAP1 PUSH2 0x100 EXP SWAP1 DIV PUSH1 0xFF AND PUSH2 0x4F0 JUMPI PUSH1 0x40 MLOAD PUSH32 0x8C379A000000000000000000000000000000000000000000000000000000000 DUP2 MSTORE PUSH1 0x4 ADD PUSH2 0x4E7 SWAP1 PUSH2 0xF65 JUMP JUMPDEST PUSH1 0x40 MLOAD DUP1 SWAP2 SUB SWAP1 REVERT JUMPDEST PUSH0 PUSH0 DUP4 PUSH20 0xFFFFFFFFFFFFFFFFFFFFFFFFFFFFFFFFFFFFFFFF AND PUSH20 0xFFFFFFFFFFFFFFFFFFFFFFFFFFFFFFFFFFFFFFFF AND DUP2 MSTORE PUSH1 0x20 ADD SWAP1 DUP2 MSTORE PUSH1 0x20 ADD PUSH0 KECCAK256 DUP1 SLOAD PUSH2 0x537 SWAP1 PUSH2 0xBD6 JUMP JUMPDEST DUP1 PUSH1 0x1F ADD PUSH1 0x20 DUP1 SWAP2 DIV MUL PUSH1 0x20 ADD PUSH1 0x40 MLOAD SWAP1 DUP2 ADD PUSH1 0x40 MSTORE DUP1 SWAP3 SWAP2 SWAP1 DUP2 DUP2 MSTORE PUSH1 0x20 ADD DUP3 DUP1 SLOAD PUSH2 0x563 SWAP1 PUSH2 0xBD6 JUMP JUMPDEST DUP1 ISZERO PUSH2 0x5AE JUMPI DUP1 PUSH1 0x1F LT PUSH2 0x585 JUMPI PUSH2 0x100 DUP1 DUP4 SLOAD DIV MUL DUP4 MSTORE SWAP2 PUSH1 0x20 ADD SWAP2 PUSH2 0x5AE JUMP JUMPDEST DUP3 ADD SWAP2 SWAP1 PUSH0 MSTORE PUSH1 0x20 PUSH0 KECCAK256 SWAP1 JUMPDEST DUP2 SLOAD DUP2 MSTORE SWAP1 PUSH1 0x1 ADD SWAP1 PUSH1 0x20 ADD DUP1 DUP4 GT PUSH2 0x591 JUMPI DUP3 SWAP1 SUB PUSH1 0x1F AND DUP3 ADD SWAP2 JUMPDEST POP POP POP POP POP SWAP1 POP SWAP2 SWAP1 POP JUMP JUMPDEST PUSH1 0x2 PUSH0 CALLER PUSH20 0xFFFFFFFFFFFFFFFFFFFFFFFFFFFFFFFFFFFFFFFF AND PUSH20 0xFFFFFFFFFFFFFFFFFFFFFFFFFFFFFFFFFFFFFFFF AND DUP2 MSTORE PUSH1 0x20 ADD SWAP1 DUP2 MSTORE PUSH1 0x20 ADD PUSH0 KECCAK256 PUSH0 SWAP1 SLOAD SWAP1 PUSH2 0x100 EXP SWAP1 DIV PUSH1 0xFF AND ISZERO PUSH2 0x644 JUMPI PUSH1 0x40 MLOAD PUSH32 0x8C379A000000000000000000000000000000000000000000000000000000000 DUP2 MSTORE PUSH1 0x4 ADD PUSH2 0x63B SWAP1 PUSH2 0xFCD JUMP JUMPDEST PUSH1 0x40 MLOAD DUP1 SWAP2 SUB SWAP1 REVERT JUMPDEST PUSH0 DUP3 DUP3 SWAP1 POP GT PUSH2 0x689 JUMPI PUSH1 0x40 MLOAD PUSH32 0x8C379A000000000000000000000000000000000000000000000000000000000 DUP2 MSTORE PUSH1 0x4 ADD PUSH2 0x680 SWAP1 PUSH2 0xAC3 JUMP JUMPDEST PUSH1 0x40 MLOAD DUP1 SWAP2 SUB SWAP1 REVERT JUMPDEST PUSH1 0x1 PUSH1 0x2 PUSH0 CALLER PUSH20 0xFFFFFFFFFFFFFFFFFFFFFFFFFFFFFFFFFFFFFFFF AND PUSH20 0xFFFFFFFFFFFFFFFFFFFFFFFFFFFFFFFFFFFFFFFF AND DUP2 MSTORE PUSH1 0x20 ADD SWAP1 DUP2 MSTORE PUSH1 0x20 ADD PUSH0 KECCAK256 PUSH0 PUSH2 0x100 EXP DUP2 SLOAD DUP2 PUSH1 0xFF MUL NOT AND SWAP1 DUP4 ISZERO ISZERO MUL OR SWAP1 SSTORE POP DUP2 DUP2 PUSH0 PUSH0 CALLER PUSH20 0xFFFFFFFFFFFFFFFFFFFFFFFFFFFFFFFFFFFFFFFF AND PUSH20 0xFFFFFFFFFFFFFFFFFFFFFFFFFFFFFFFFFFFFFFFF AND DUP2 MSTORE PUSH1 0x20 ADD SWAP1 DUP2 MSTORE PUSH1 0x20 ADD PUSH0 KECCAK256 SWAP2 DUP3 PUSH2 0x729 SWAP3 SWAP2 SWAP1 PUSH2 0xDDD JUMP JUMPDEST POP TIMESTAMP PUSH1 0x1 PUSH0 CALLER PUSH20 0xFFFFFFFFFFFFFFFFFFFFFFFFFFFFFFFFFFFFFFFF AND PUSH20 0xFFFFFFFFFFFFFFFFFFFFFFFFFFFFFFFFFFFFFFFF AND DUP2 MSTORE PUSH1 0x20 ADD SWAP1 DUP2 MSTORE PUSH1 0x20 ADD PUSH0 KECCAK256 DUP2 SWAP1 SSTORE POP CALLER PUSH20 0xFFFFFFFFFFFFFFFFFFFFFFFFFFFFFFFFFFFFFFFF AND PUSH32 0xBAFDDECBD1DEC1C1AFB76D693F1DE16901F521BDF29A02438E3E6806C0B8D948 DUP4 DUP4 PUSH1 0x40 MLOAD PUSH2 0x7B4 SWAP3 SWAP2 SWAP1 PUSH2 0xFEB JUMP JUMPDEST PUSH1 0x40 MLOAD DUP1 SWAP2 SUB SWAP1 LOG2 POP POP JUMP JUMPDEST PUSH3 0x127500 DUP2 JUMP JUMPDEST PUSH1 0x2 PUSH1 0x20 MSTORE DUP1 PUSH0 MSTORE PUSH1 0x40 PUSH0 KECCAK256 PUSH0 SWAP2 POP SLOAD SWAP1 PUSH2 0x100 EXP SWAP1 DIV PUSH1 0xFF AND DUP2 JUMP JUMPDEST PUSH0 PUSH0 REVERT JUMPDEST PUSH0 PUSH0 REVERT JUMPDEST PUSH0 PUSH0 REVERT JUMPDEST PUSH0 PUSH0 REVERT JUMPDEST PUSH0 PUSH0 REVERT JUMPDEST PUSH0 PUSH0 DUP4 PUSH1 0x1F DUP5 ADD SLT PUSH2 0x80D JUMPI PUSH2 0x80C PUSH2 0x7EC JUMP JUMPDEST JUMPDEST DUP3 CALLDATALOAD SWAP1 POP PUSH8 0xFFFFFFFFFFFFFFFF DUP2 GT ISZERO PUSH2 0x82A JUMPI PUSH2 0x829 PUSH2 0x7F0 JUMP JUMPDEST JUMPDEST PUSH1 0x20 DUP4 ADD SWAP2 POP DUP4 PUSH1 0x1 DUP3 MUL DUP4 ADD GT ISZERO PUSH2 0x846 JUMPI PUSH2 0x845 PUSH2 0x7F4 JUMP JUMPDEST JUMPDEST SWAP3 POP SWAP3 SWAP1 POP JUMP JUMPDEST PUSH0 PUSH0 PUSH1 0x20 DUP4 DUP6 SUB SLT ISZERO PUSH2 0x863 JUMPI PUSH2 0x862 PUSH2 0x7E4 JUMP JUMPDEST JUMPDEST PUSH0 DUP4 ADD CALLDATALOAD PUSH8 0xFFFFFFFFFFFFFFFF DUP2 GT ISZERO PUSH2 0x880 JUMPI PUSH2 0x87F PUSH2 0x7E8 JUMP JUMPDEST JUMPDEST PUSH2 0x88C DUP6 DUP3 DUP7 ADD PUSH2 0x7F8 JUMP JUMPDEST SWAP3 POP SWAP3 POP POP SWAP3 POP SWAP3 SWAP1 POP JUMP JUMPDEST PUSH0 PUSH20 0xFFFFFFFFFFFFFFFFFFFFFFFFFFFFFFFFFFFFFFFF DUP3 AND SWAP1 POP SWAP2 SWAP1 POP JUMP JUMPDEST PUSH0 PUSH2 0x8C1 DUP3 PUSH2 0x898 JUMP JUMPDEST SWAP1 POP SWAP2 SWAP1 POP JUMP JUMPDEST PUSH2 0x8D1 DUP2 PUSH2 0x8B7 JUMP JUMPDEST DUP2 EQ PUSH2 0x8DB JUMPI PUSH0 PUSH0 REVERT JUMPDEST POP JUMP JUMPDEST PUSH0 DUP2 CALLDATALOAD SWAP1 POP PUSH2 0x8EC DUP2 PUSH2 0x8C8 JUMP JUMPDEST SWAP3 SWAP2 POP POP JUMP JUMPDEST PUSH0 PUSH1 0x20 DUP3 DUP5 SUB SLT ISZERO PUSH2 0x907 JUMPI PUSH2 0x906 PUSH2 0x7E4 JUMP JUMPDEST JUMPDEST PUSH0 PUSH2 0x914 DUP5 DUP3 DUP6 ADD PUSH2 0x8DE JUMP JUMPDEST SWAP2 POP POP SWAP3 SWAP2 POP POP JUMP JUMPDEST PUSH0 DUP2 SWAP1 POP SWAP2 SWAP1 POP JUMP JUMPDEST PUSH2 0x92F DUP2 PUSH2 0x91D JUMP JUMPDEST DUP3 MSTORE POP POP JUMP JUMPDEST PUSH0 PUSH1 0x20 DUP3 ADD SWAP1 POP PUSH2 0x948 PUSH0 DUP4 ADD DUP5 PUSH2 0x926 JUMP JUMPDEST SWAP3 SWAP2 POP POP JUMP JUMPDEST PUSH0 DUP2 MLOAD SWAP1 POP SWAP2 SWAP1 POP JUMP JUMPDEST PUSH0 DUP3 DUP3 MSTORE PUSH1 0x20 DUP3 ADD SWAP1 POP SWAP3 SWAP2 POP POP JUMP JUMPDEST DUP3 DUP2 DUP4 MCOPY PUSH0 DUP4 DUP4 ADD MSTORE POP POP POP JUMP JUMPDEST PUSH0 PUSH1 0x1F NOT PUSH1 0x1F DUP4 ADD AND SWAP1 POP SWAP2 SWAP1 POP JUMP JUMPDEST PUSH0 PUSH2 0x990 DUP3 PUSH2 0x94E JUMP JUMPDEST PUSH2 0x99A DUP2 DUP6 PUSH2 0x958 JUMP JUMPDEST SWAP4 POP PUSH2 0x9AA DUP2 DUP6 PUSH1 0x20 DUP7 ADD PUSH2 0x968 JUMP JUMPDEST PUSH2 0x9B3 DUP2 PUSH2 0x976 JUMP JUMPDEST DUP5 ADD SWAP2 POP POP SWAP3 SWAP2 POP POP JUMP JUMPDEST PUSH0 PUSH1 0x20 DUP3 ADD SWAP1 POP DUP2 DUP2 SUB PUSH0 DUP4 ADD MSTORE PUSH2 0x9D6 DUP2 DUP5 PUSH2 0x986 JUMP JUMPDEST SWAP1 POP SWAP3 SWAP2 POP POP JUMP JUMPDEST PUSH0 DUP2 ISZERO ISZERO SWAP1 POP SWAP2 SWAP1 POP JUMP JUMPDEST PUSH2 0x9F2 DUP2 PUSH2 0x9DE JUMP JUMPDEST DUP3 MSTORE POP POP JUMP JUMPDEST PUSH0 PUSH1 0x20 DUP3 ADD SWAP1 POP PUSH2 0xA0B PUSH0 DUP4 ADD DUP5 PUSH2 0x9E9 JUMP JUMPDEST SWAP3 SWAP2 POP POP JUMP JUMPDEST PUSH32 0x50726F66696C6520646F6573206E6F7420657869737400000000000000000000 PUSH0 DUP3 ADD MSTORE POP JUMP JUMPDEST PUSH0 PUSH2 0xA45 PUSH1 0x16 DUP4 PUSH2 0x958 JUMP JUMPDEST SWAP2 POP PUSH2 0xA50 DUP3 PUSH2 0xA11 JUMP JUMPDEST PUSH1 0x20 DUP3 ADD SWAP1 POP SWAP2 SWAP1 POP JUMP JUMPDEST PUSH0 PUSH1 0x20 DUP3 ADD SWAP1 POP DUP2 DUP2 SUB PUSH0 DUP4 ADD MSTORE PUSH2 0xA72 DUP2 PUSH2 0xA39 JUMP JUMPDEST SWAP1 POP SWAP2 SWAP1 POP JUMP JUMPDEST PUSH32 0x496E76616C696420434944000000000000000000000000000000000000000000 PUSH0 DUP3 ADD MSTORE POP JUMP JUMPDEST PUSH0 PUSH2 0xAAD PUSH1 0xB DUP4 PUSH2 0x958 JUMP JUMPDEST SWAP2 POP PUSH2 0xAB8 DUP3 PUSH2 0xA79 JUMP JUMPDEST PUSH1 0x20 DUP3 ADD SWAP1 POP SWAP2 SWAP1 POP JUMP JUMPDEST PUSH0 PUSH1 0x20 DUP3 ADD SWAP1 POP DUP2 DUP2 SUB PUSH0 DUP4 ADD MSTORE PUSH2 0xADA DUP2 PUSH2 0xAA1 JUMP JUMPDEST SWAP1 POP SWAP2 SWAP1 POP JUMP JUMPDEST PUSH32 0x4E487B7100000000000000000000000000000000000000000000000000000000 PUSH0 MSTORE PUSH1 0x11 PUSH1 0x4 MSTORE PUSH1 0x24 PUSH0 REVERT JUMPDEST PUSH0 PUSH2 0xB18 DUP3 PUSH2 0x91D JUMP JUMPDEST SWAP2 POP PUSH2 0xB23 DUP4 PUSH2 0x91D JUMP JUMPDEST SWAP3 POP DUP3 DUP3 ADD SWAP1 POP DUP1 DUP3 GT ISZERO PUSH2 0xB3B JUMPI PUSH2 0xB3A PUSH2 0xAE1 JUMP JUMPDEST JUMPDEST SWAP3 SWAP2 POP POP JUMP JUMPDEST PUSH32 0x55706461746520636F6F6C646F776E2061637469766500000000000000000000 PUSH0 DUP3 ADD MSTORE POP JUMP JUMPDEST PUSH0 PUSH2 0xB75 PUSH1 0x16 DUP4 PUSH2 0x958 JUMP JUMPDEST SWAP2 POP PUSH2 0xB80 DUP3 PUSH2 0xB41 JUMP JUMPDEST PUSH1 0x20 DUP3 ADD SWAP1 POP SWAP2 SWAP1 POP JUMP JUMPDEST PUSH0 PUSH1 0x20 DUP3 ADD SWAP1 POP DUP2 DUP2 SUB PUSH0 DUP4 ADD MSTORE PUSH2 0xBA2 DUP2 PUSH2 0xB69 JUMP JUMPDEST SWAP1 POP SWAP2 SWAP1 POP JUMP JUMPDEST PUSH32 0x4E487B7100000000000000000000000000000000000000000000000000000000 PUSH0 MSTORE PUSH1 0x22 PUSH1 0x4 MSTORE PUSH1 0x24 PUSH0 REVERT JUMPDEST PUSH0 PUSH1 0x2 DUP3 DIV SWAP1 POP PUSH1 0x1 DUP3 AND DUP1 PUSH2 0xBED JUMPI PUSH1 0x7F DUP3 AND SWAP2 POP JUMPDEST PUSH1 0x20 DUP3 LT DUP2 SUB PUSH2 0xC00 JUMPI PUSH2 0xBFF PUSH2 0xBA9 JUMP JUMPDEST JUMPDEST POP SWAP2 SWAP1 POP JUMP JUMPDEST PUSH0 DUP3 SWAP1 POP SWAP3 SWAP2 POP POP JUMP JUMPDEST PUSH32 0x4E487B7100000000000000000000000000000000000000000000000000000000 PUSH0 MSTORE PUSH1 0x41 PUSH1 0x4 MSTORE PUSH1 0x24 PUSH0 REVERT JUMPDEST PUSH0 DUP2 SWAP1 POP DUP2 PUSH0 MSTORE PUSH1 0x20 PUSH0 KECCAK256 SWAP1 POP SWAP2 SWAP1 POP JUMP JUMPDEST PUSH0 PUSH1 0x20 PUSH1 0x1F DUP4 ADD DIV SWAP1 POP SWAP2 SWAP1 POP JUMP JUMPDEST PUSH0 DUP3 DUP3 SHL SWAP1 POP SWAP3 SWAP2 POP POP JUMP JUMPDEST PUSH0 PUSH1 0x8 DUP4 MUL PUSH2 0xC99 PUSH32 0xFFFFFFFFFFFFFFFFFFFFFFFFFFFFFFFFFFFFFFFFFFFFFFFFFFFFFFFFFFFFFFFF DUP3 PUSH2 0xC5E JUMP JUMPDEST PUSH2 0xCA3 DUP7 DUP4 PUSH2 0xC5E JUMP JUMPDEST SWAP6 POP DUP1 NOT DUP5 AND SWAP4 POP DUP1 DUP7 AND DUP5 OR SWAP3 POP POP POP SWAP4 SWAP3 POP POP POP JUMP JUMPDEST PUSH0 DUP2 SWAP1 POP SWAP2 SWAP1 POP JUMP JUMPDEST PUSH0 PUSH2 0xCDE PUSH2 0xCD9 PUSH2 0xCD4 DUP5 PUSH2 0x91D JUMP JUMPDEST PUSH2 0xCBB JUMP JUMPDEST PUSH2 0x91D JUMP JUMPDEST SWAP1 POP SWAP2 SWAP1 POP JUMP JUMPDEST PUSH0 DUP2 SWAP1 POP SWAP2 SWAP1 POP JUMP JUMPDEST PUSH2 0xCF7 DUP4 PUSH2 0xCC4 JUMP JUMPDEST PUSH2 0xD0B PUSH2 0xD03 DUP3 PUSH2 0xCE5 JUMP JUMPDEST DUP5 DUP5 SLOAD PUSH2 0xC6A JUMP JUMPDEST DUP3 SSTORE POP POP POP POP JUMP JUMPDEST PUSH0 PUSH0 SWAP1 POP SWAP1 JUMP JUMPDEST PUSH2 0xD22 PUSH2 0xD13 JUMP JUMPDEST PUSH2 0xD2D DUP2 DUP5 DUP5 PUSH2 0xCEE JUMP JUMPDEST POP POP POP JUMP JUMPDEST JUMPDEST DUP2 DUP2 LT ISZERO PUSH2 0xD50 JUMPI PUSH2 0xD45 PUSH0 DUP3 PUSH2 0xD1A JUMP JUMPDEST PUSH1 0x1 DUP2 ADD SWAP1 POP PUSH2 0xD33 JUMP JUMPDEST POP POP JUMP JUMPDEST PUSH1 0x1F DUP3 GT ISZERO PUSH2 0xD95 JUMPI PUSH2 0xD66 DUP2 PUSH2 0xC3D JUMP JUMPDEST PUSH2 0xD6F DUP5 PUSH2 0xC4F JUMP JUMPDEST DUP2 ADD PUSH1 0x20 DUP6 LT ISZERO PUSH2 0xD7E JUMPI DUP2 SWAP1 POP JUMPDEST PUSH2 0xD92 PUSH2 0xD8A DUP6 PUSH2 0xC4F JUMP JUMPDEST DUP4 ADD DUP3 PUSH2 0xD32 JUMP JUMPDEST POP POP JUMPDEST POP POP POP JUMP JUMPDEST PUSH0 DUP3 DUP3 SHR SWAP1 POP SWAP3 SWAP2 POP POP JUMP JUMPDEST PUSH0 PUSH2 0xDB5 PUSH0 NOT DUP5 PUSH1 0x8 MUL PUSH2 0xD9A JUMP JUMPDEST NOT DUP1 DUP4 AND SWAP2 POP POP SWAP3 SWAP2 POP POP JUMP JUMPDEST PUSH0 PUSH2 0xDCD DUP4 DUP4 PUSH2 0xDA6 JUMP JUMPDEST SWAP2 POP DUP3 PUSH1 0x2 MUL DUP3 OR SWAP1 POP SWAP3 SWAP2 POP POP JUMP JUMPDEST PUSH2 0xDE7 DUP4 DUP4 PUSH2 0xC06 JUMP JUMPDEST PUSH8 0xFFFFFFFFFFFFFFFF DUP2 GT ISZERO PUSH2 0xE00 JUMPI PUSH2 0xDFF PUSH2 0xC10 JUMP JUMPDEST JUMPDEST PUSH2 0xE0A DUP3 SLOAD PUSH2 0xBD6 JUMP JUMPDEST PUSH2 0xE15 DUP3 DUP3 DUP6 PUSH2 0xD54 JUMP JUMPDEST PUSH0 PUSH1 0x1F DUP4 GT PUSH1 0x1 DUP2 EQ PUSH2 0xE42 JUMPI PUSH0 DUP5 ISZERO PUSH2 0xE30 JUMPI DUP3 DUP8 ADD CALLDATALOAD SWAP1 POP JUMPDEST PUSH2 0xE3A DUP6 DUP3 PUSH2 0xDC2 JUMP JUMPDEST DUP7 SSTORE POP PUSH2 0xEA1 JUMP JUMPDEST PUSH1 0x1F NOT DUP5 AND PUSH2 0xE50 DUP7 PUSH2 0xC3D JUMP JUMPDEST PUSH0 JUMPDEST DUP3 DUP2 LT ISZERO PUSH2 0xE77 JUMPI DUP5 DUP10 ADD CALLDATALOAD DUP3 SSTORE PUSH1 0x1 DUP3 ADD SWAP2 POP PUSH1 0x20 DUP6 ADD SWAP5 POP PUSH1 0x20 DUP2 ADD SWAP1 POP PUSH2 0xE52 JUMP JUMPDEST DUP7 DUP4 LT ISZERO PUSH2 0xE94 JUMPI DUP5 DUP10 ADD CALLDATALOAD PUSH2 0xE90 PUSH1 0x1F DUP10 AND DUP3 PUSH2 0xDA6 JUMP JUMPDEST DUP4 SSTORE POP JUMPDEST PUSH1 0x1 PUSH1 0x2 DUP9 MUL ADD DUP9 SSTORE POP POP POP JUMPDEST POP POP POP POP POP POP POP JUMP JUMPDEST DUP3 DUP2 DUP4 CALLDATACOPY PUSH0 DUP4 DUP4 ADD MSTORE POP POP POP JUMP JUMPDEST PUSH0 PUSH2 0xEC3 DUP4 DUP6 PUSH2 0x958 JUMP JUMPDEST SWAP4 POP PUSH2 0xED0 DUP4 DUP6 DUP5 PUSH2 0xEAA JUMP JUMPDEST PUSH2 0xED9 DUP4 PUSH2 0x976 JUMP JUMPDEST DUP5 ADD SWAP1 POP SWAP4 SWAP3 POP POP POP JUMP JUMPDEST PUSH0 PUSH1 0x40 DUP3 ADD SWAP1 POP DUP2 DUP2 SUB PUSH0 DUP4 ADD MSTORE PUSH2 0xEFC DUP2 DUP7 PUSH2 0x986 JUMP JUMPDEST SWAP1 POP DUP2 DUP2 SUB PUSH1 0x20 DUP4 ADD MSTORE PUSH2 0xF11 DUP2 DUP5 DUP7 PUSH2 0xEB8 JUMP JUMPDEST SWAP1 POP SWAP5 SWAP4 POP POP POP POP JUMP JUMPDEST PUSH32 0x50726F66696C65206E6F7420666F756E64000000000000000000000000000000 PUSH0 DUP3 ADD MSTORE POP JUMP JUMPDEST PUSH0 PUSH2 0xF4F PUSH1 0x11 DUP4 PUSH2 0x958 JUMP JUMPDEST SWAP2 POP PUSH2 0xF5A DUP3 PUSH2 0xF1B JUMP JUMPDEST PUSH1 0x20 DUP3 ADD SWAP1 POP SWAP2 SWAP1 POP JUMP JUMPDEST PUSH0 PUSH1 0x20 DUP3 ADD SWAP1 POP DUP2 DUP2 SUB PUSH0 DUP4 ADD MSTORE PUSH2 0xF7C DUP2 PUSH2 0xF43 JUMP JUMPDEST SWAP1 POP SWAP2 SWAP1 POP JUMP JUMPDEST PUSH32 0x50726F66696C6520616C72656164792065786973747300000000000000000000 PUSH0 DUP3 ADD MSTORE POP JUMP JUMPDEST PUSH0 PUSH2 0xFB7 PUSH1 0x16 DUP4 PUSH2 0x958 JUMP JUMPDEST SWAP2 POP PUSH2 0xFC2 DUP3 PUSH2 0xF83 JUMP JUMPDEST PUSH1 0x20 DUP3 ADD SWAP1 POP SWAP2 SWAP1 POP JUMP JUMPDEST PUSH0 PUSH1 0x20 DUP3 ADD SWAP1 POP DUP2 DUP2 SUB PUSH0 DUP4 ADD MSTORE PUSH2 0xFE4 DUP2 PUSH2 0xFAB JUMP JUMPDEST SWAP1 POP SWAP2 SWAP1 POP JUMP JUMPDEST PUSH0 PUSH1 0x20 DUP3 ADD SWAP1 POP DUP2 DUP2 SUB PUSH0 DUP4 ADD MSTORE PUSH2 0x1004 DUP2 DUP5 DUP7 PUSH2 0xEB8 JUMP JUMPDEST SWAP1 POP SWAP4 SWAP3 POP POP POP JUMP INVALID LOG2 PUSH5 0x6970667358 0x22 SLT KECCAK256 SWAP12 0xB9 0x4B 0x27 SWAP14 CREATE GASLIMIT 0x29 PUSH5 0x85C9D05C9B EQ 0xC8 0x2B PUSH23 0x77189298C6CB19AB8A37E109A10A64736F6C634300081E STOP CALLER "
				},
				"gasEstimates": {
					"creation": {
						"codeDepositCost": "832600",
						"executionCost": "868",
						"totalCost": "833468"
					},
					"external": {
						"UPDATE_COOLDOWN()": "391",
						"createProfile(string)": "infinite",
						"getProfile(address)": "infinite",
						"hasProfile(address)": "2921",
						"lastUpdated(address)": "2802",
						"updateProfile(string)": "infinite"
					}
				},
				"methodIdentifiers": {
					"UPDATE_COOLDOWN()": "9d5739e7",
					"createProfile(string)": "334c3f0e",
					"getProfile(address)": "0f53a470",
					"hasProfile(address)": "a787c80b",
					"lastUpdated(address)": "0a6f93e6",
					"updateProfile(string)": "009299e3"
				}
			},
			"storageLayout": {
				"storage": [
					{
						"astId": 23,
						"contract": "Contracts/ProfileRegister.sol:ProfileRegistry",
						"label": "_profileCID",
						"offset": 0,
						"slot": "0",
						"type": "t_mapping(t_address,t_string_storage)"
					},
					{
						"astId": 28,
						"contract": "Contracts/ProfileRegister.sol:ProfileRegistry",
						"label": "lastUpdated",
						"offset": 0,
						"slot": "1",
						"type": "t_mapping(t_address,t_uint256)"
					},
					{
						"astId": 33,
						"contract": "Contracts/ProfileRegister.sol:ProfileRegistry",
						"label": "hasProfile",
						"offset": 0,
						"slot": "2",
						"type": "t_mapping(t_address,t_bool)"
					}
				],
				"types": {
					"t_address": {
						"encoding": "inplace",
						"label": "address",
						"numberOfBytes": "20"
					},
					"t_bool": {
						"encoding": "inplace",
						"label": "bool",
						"numberOfBytes": "1"
					},
					"t_mapping(t_address,t_bool)": {
						"encoding": "mapping",
						"key": "t_address",
						"label": "mapping(address => bool)",
						"numberOfBytes": "32",
						"value": "t_bool"
					},
					"t_mapping(t_address,t_string_storage)": {
						"encoding": "mapping",
						"key": "t_address",
						"label": "mapping(address => string)",
						"numberOfBytes": "32",
						"value": "t_string_storage"
					},
					"t_mapping(t_address,t_uint256)": {
						"encoding": "mapping",
						"key": "t_address",
						"label": "mapping(address => uint256)",
						"numberOfBytes": "32",
						"value": "t_uint256"
					},
					"t_string_storage": {
						"encoding": "bytes",
						"label": "string",
						"numberOfBytes": "32"
					},
					"t_uint256": {
						"encoding": "inplace",
						"label": "uint256",
						"numberOfBytes": "32"
					}
				}
			},
			"userdoc": {
				"events": {
					"ProfileCreated(address,string)": {
						"notice": "Emitted when a profile is created"
					},
					"ProfileUpdated(address,string,string)": {
						"notice": "Emitted when a profile is updated"
					}
				},
				"kind": "user",
				"methods": {
					"UPDATE_COOLDOWN()": {
						"notice": "Cooldown period for profile updates (14 days)"
					},
					"createProfile(string)": {
						"notice": "Create a new profile for the caller"
					},
					"getProfile(address)": {
						"notice": "Get profile metadata CID for a user"
					},
					"updateProfile(string)": {
						"notice": "Update existing profile metadata"
					}
				},
				"notice": "Maps a wallet address to a profile metadata CID (stored on IPFS/Arweave)",
				"version": 1
			}
		}
	}
}