{
	"Contracts/EScrow_cont.sol": {
		"SimpleMilestoneEscrow": {
			"abi": [
				{
					"inputs": [
						{
							"internalType": "address",
							"name": "_funder",
							"type": "address"
						},
						{
							"internalType": "address",
							"name": "_developer",
							"type": "address"
						},
						{
							"internalType": "address",
							"name": "_token",
							"type": "address"
						},
						{
							"internalType": "uint256[]",
							"name": "_milestoneAmounts",
							"type": "uint256[]"
						},
						{
							"internalType": "uint256[]",
							"name": "_milestoneDeadlines",
							"type": "uint256[]"
						},
						{
							"internalType": "string[]",
							"name": "_milestoneDescriptions",
							"type": "string[]"
						}
					],
					"stateMutability": "nonpayable",
					"type": "constructor"
				},
				{
					"inputs": [],
					"name": "AlreadyFunded",
					"type": "error"
				},
				{
					"inputs": [],
					"name": "AlreadyReleased",
					"type": "error"
				},
				{
					"inputs": [],
					"name": "DeadlineNotPassed",
					"type": "error"
				},
				{
					"inputs": [],
					"name": "InvalidMilestone",
					"type": "error"
				},
				{
					"inputs": [],
					"name": "InvalidState",
					"type": "error"
				},
				{
					"inputs": [],
					"name": "NotDeveloper",
					"type": "error"
				},
				{
					"inputs": [],
					"name": "NotFunded",
					"type": "error"
				},
				{
					"inputs": [],
					"name": "NotFunder",
					"type": "error"
				},
				{
					"inputs": [
						{
							"internalType": "address",
							"name": "token",
							"type": "address"
						}
					],
					"name": "SafeERC20FailedOperation",
					"type": "error"
				},
				{
					"inputs": [],
					"name": "ZeroAddress",
					"type": "error"
				},
				{
					"inputs": [],
					"name": "ZeroAmount",
					"type": "error"
				},
				{
					"anonymous": false,
					"inputs": [
						{
							"indexed": true,
							"internalType": "address",
							"name": "by",
							"type": "address"
						},
						{
							"indexed": false,
							"internalType": "string",
							"name": "reason",
							"type": "string"
						}
					],
					"name": "DisputeRaised",
					"type": "event"
				},
				{
					"anonymous": false,
					"inputs": [
						{
							"indexed": false,
							"internalType": "bool",
							"name": "completed",
							"type": "bool"
						}
					],
					"name": "DisputeResolved",
					"type": "event"
				},
				{
					"anonymous": false,
					"inputs": [
						{
							"indexed": false,
							"internalType": "uint256",
							"name": "amount",
							"type": "uint256"
						},
						{
							"indexed": true,
							"internalType": "address",
							"name": "recipient",
							"type": "address"
						}
					],
					"name": "FeePaid",
					"type": "event"
				},
				{
					"anonymous": false,
					"inputs": [
						{
							"indexed": true,
							"internalType": "uint256",
							"name": "index",
							"type": "uint256"
						},
						{
							"indexed": false,
							"internalType": "uint256",
							"name": "amount",
							"type": "uint256"
						}
					],
					"name": "MilestoneCancelled",
					"type": "event"
				},
				{
					"anonymous": false,
					"inputs": [
						{
							"indexed": true,
							"internalType": "uint256",
							"name": "index",
							"type": "uint256"
						},
						{
							"indexed": false,
							"internalType": "uint256",
							"name": "amount",
							"type": "uint256"
						},
						{
							"indexed": false,
							"internalType": "uint256",
							"name": "feeAmount",
							"type": "uint256"
						}
					],
					"name": "MilestoneReleased",
					"type": "event"
				},
				{
					"anonymous": false,
					"inputs": [],
					"name": "ProjectCancelled",
					"type": "event"
				},
				{
					"anonymous": false,
					"inputs": [],
					"name": "ProjectCompleted",
					"type": "event"
				},
				{
					"anonymous": false,
					"inputs": [
						{
							"indexed": false,
							"internalType": "uint256",
							"name": "amount",
							"type": "uint256"
						}
					],
					"name": "ProjectFunded",
					"type": "event"
				},
				{
					"inputs": [],
					"name": "FEE_BASIS_POINTS",
					"outputs": [
						{
							"internalType": "uint256",
							"name": "",
							"type": "uint256"
						}
					],
					"stateMutability": "view",
					"type": "function"
				},
				{
					"inputs": [],
					"name": "FEE_RECIPIENT",
					"outputs": [
						{
							"internalType": "address",
							"name": "",
							"type": "address"
						}
					],
					"stateMutability": "view",
					"type": "function"
				},
				{
					"inputs": [
						{
							"internalType": "uint256",
							"name": "amount",
							"type": "uint256"
						}
					],
					"name": "calculateFee",
					"outputs": [
						{
							"internalType": "uint256",
							"name": "",
							"type": "uint256"
						}
					],
					"stateMutability": "pure",
					"type": "function"
				},
				{
					"inputs": [
						{
							"internalType": "uint256",
							"name": "index",
							"type": "uint256"
						}
					],
					"name": "cancelMilestone",
					"outputs": [],
					"stateMutability": "nonpayable",
					"type": "function"
				},
				{
					"inputs": [],
					"name": "cancelProject",
					"outputs": [],
					"stateMutability": "nonpayable",
					"type": "function"
				},
				{
					"inputs": [],
					"name": "developer",
					"outputs": [
						{
							"internalType": "address",
							"name": "",
							"type": "address"
						}
					],
					"stateMutability": "view",
					"type": "function"
				},
				{
					"inputs": [],
					"name": "disputeRaisedAt",
					"outputs": [
						{
							"internalType": "uint256",
							"name": "",
							"type": "uint256"
						}
					],
					"stateMutability": "view",
					"type": "function"
				},
				{
					"inputs": [],
					"name": "fund",
					"outputs": [],
					"stateMutability": "nonpayable",
					"type": "function"
				},
				{
					"inputs": [],
					"name": "funder",
					"outputs": [
						{
							"internalType": "address",
							"name": "",
							"type": "address"
						}
					],
					"stateMutability": "view",
					"type": "function"
				},
				{
					"inputs": [],
					"name": "getContractBalance",
					"outputs": [
						{
							"internalType": "uint256",
							"name": "",
							"type": "uint256"
						}
					],
					"stateMutability": "view",
					"type": "function"
				},
				{
					"inputs": [],
					"name": "getFeeInfo",
					"outputs": [
						{
							"internalType": "address",
							"name": "recipient",
							"type": "address"
						},
						{
							"internalType": "uint256",
							"name": "basisPoints",
							"type": "uint256"
						}
					],
					"stateMutability": "pure",
					"type": "function"
				},
				{
					"inputs": [],
					"name": "getMilestones",
					"outputs": [
						{
							"components": [
								{
									"internalType": "uint256",
									"name": "amount",
									"type": "uint256"
								},
								{
									"internalType": "bool",
									"name": "released",
									"type": "bool"
								},
								{
									"internalType": "bool",
									"name": "cancelled",
									"type": "bool"
								},
								{
									"internalType": "uint256",
									"name": "deadline",
									"type": "uint256"
								},
								{
									"internalType": "string",
									"name": "description",
									"type": "string"
								}
							],
							"internalType": "struct SimpleMilestoneEscrow.Milestone[]",
							"name": "",
							"type": "tuple[]"
						}
					],
					"stateMutability": "view",
					"type": "function"
				},
				{
					"inputs": [
						{
							"internalType": "uint256",
							"name": "amount",
							"type": "uint256"
						}
					],
					"name": "getNetAmount",
					"outputs": [
						{
							"internalType": "uint256",
							"name": "",
							"type": "uint256"
						}
					],
					"stateMutability": "pure",
					"type": "function"
				},
				{
					"inputs": [],
					"name": "getRemainingBalance",
					"outputs": [
						{
							"internalType": "uint256",
							"name": "",
							"type": "uint256"
						}
					],
					"stateMutability": "view",
					"type": "function"
				},
				{
					"inputs": [],
					"name": "getStatus",
					"outputs": [
						{
							"internalType": "string",
							"name": "",
							"type": "string"
						}
					],
					"stateMutability": "view",
					"type": "function"
				},
				{
					"inputs": [],
					"name": "isDisputeExpired",
					"outputs": [
						{
							"internalType": "bool",
							"name": "",
							"type": "bool"
						}
					],
					"stateMutability": "view",
					"type": "function"
				},
				{
					"inputs": [],
					"name": "milestoneCount",
					"outputs": [
						{
							"internalType": "uint256",
							"name": "",
							"type": "uint256"
						}
					],
					"stateMutability": "view",
					"type": "function"
				},
				{
					"inputs": [
						{
							"internalType": "uint256",
							"name": "",
							"type": "uint256"
						}
					],
					"name": "milestones",
					"outputs": [
						{
							"internalType": "uint256",
							"name": "amount",
							"type": "uint256"
						},
						{
							"internalType": "bool",
							"name": "released",
							"type": "bool"
						},
						{
							"internalType": "bool",
							"name": "cancelled",
							"type": "bool"
						},
						{
							"internalType": "uint256",
							"name": "deadline",
							"type": "uint256"
						},
						{
							"internalType": "string",
							"name": "description",
							"type": "string"
						}
					],
					"stateMutability": "view",
					"type": "function"
				},
				{
					"inputs": [],
					"name": "paymentToken",
					"outputs": [
						{
							"internalType": "contract IERC20",
							"name": "",
							"type": "address"
						}
					],
					"stateMutability": "view",
					"type": "function"
				},
				{
					"inputs": [
						{
							"internalType": "string",
							"name": "reason",
							"type": "string"
						}
					],
					"name": "raiseDispute",
					"outputs": [],
					"stateMutability": "nonpayable",
					"type": "function"
				},
				{
					"inputs": [
						{
							"internalType": "uint256",
							"name": "index",
							"type": "uint256"
						}
					],
					"name": "releaseMilestone",
					"outputs": [],
					"stateMutability": "nonpayable",
					"type": "function"
				},
				{
					"inputs": [],
					"name": "releasedAmount",
					"outputs": [
						{
							"internalType": "uint256",
							"name": "",
							"type": "uint256"
						}
					],
					"stateMutability": "view",
					"type": "function"
				},
				{
					"inputs": [],
					"name": "resolveDisputeToDeveloper",
					"outputs": [],
					"stateMutability": "nonpayable",
					"type": "function"
				},
				{
					"inputs": [],
					"name": "resolveDisputeToFunder",
					"outputs": [],
					"stateMutability": "nonpayable",
					"type": "function"
				},
				{
					"inputs": [],
					"name": "state",
					"outputs": [
						{
							"internalType": "enum SimpleMilestoneEscrow.ProjectState",
							"name": "",
							"type": "uint8"
						}
					],
					"stateMutability": "view",
					"type": "function"
				},
				{
					"inputs": [],
					"name": "totalAmount",
					"outputs": [
						{
							"internalType": "uint256",
							"name": "",
							"type": "uint256"
						}
					],
					"stateMutability": "view",
					"type": "function"
				},
				{
					"inputs": [],
					"name": "totalFeesCollected",
					"outputs": [
						{
							"internalType": "uint256",
							"name": "",
							"type": "uint256"
						}
					],
					"stateMutability": "view",
					"type": "function"
				}
			],
			"devdoc": {
				"details": "No upgradeability, no factory, no arbitrator - just funder and developer",
				"errors": {
					"SafeERC20FailedOperation(address)": [
						{
							"details": "An operation with an ERC-20 token failed."
						}
					]
				},
				"kind": "dev",
				"methods": {
					"calculateFee(uint256)": {
						"params": {
							"amount": "The amount to calculate fee for"
						},
						"returns": {
							"_0": "feeAmount The calculated fee amount"
						}
					},
					"cancelMilestone(uint256)": {
						"details": "Can only cancel if deadline has passed and milestone not released",
						"params": {
							"index": "The milestone index to cancel"
						}
					},
					"cancelProject()": {
						"details": "No fee taken on project cancellation"
					},
					"constructor": {
						"params": {
							"_developer": "The developer address",
							"_funder": "The funder address",
							"_milestoneAmounts": "Array of milestone amounts",
							"_milestoneDeadlines": "Array of milestone deadlines (timestamp, 0 = no deadline)",
							"_milestoneDescriptions": "Array of milestone descriptions",
							"_token": "The ERC20 token address for payments"
						}
					},
					"fund()": {
						"details": "Must be called by funder after approving tokens"
					},
					"getNetAmount(uint256)": {
						"params": {
							"amount": "The original amount"
						},
						"returns": {
							"_0": "netAmount The amount after deducting 1.5% fee"
						}
					},
					"raiseDispute(string)": {
						"params": {
							"reason": "The reason for dispute"
						}
					},
					"releaseMilestone(uint256)": {
						"details": "Funder can release milestones at any time, even after deadline",
						"params": {
							"index": "The milestone index to release"
						}
					},
					"resolveDisputeToDeveloper()": {
						"details": "No fee taken on dispute resolution"
					},
					"resolveDisputeToFunder()": {
						"details": "No fee taken on dispute resolution"
					}
				},
				"title": "SimpleMilestoneEscrow",
				"version": 1
			},
			"evm": {
				"assembly": "    /* \"Contracts/EScrow_cont.sol\":461:13989  contract SimpleMilestoneEscrow is ReentrancyGuard {... */\n  mstore(0x40, 0xe0)\n    /* \"Contracts/EScrow_cont.sol\":3634:5182  constructor(... */\n  callvalue\n  dup1\n  iszero\n  tag_1\n  jumpi\n  revert(0x00, 0x00)\ntag_1:\n  pop\n  mload(0x40)\n  sub(codesize, bytecodeSize)\n  dup1\n  bytecodeSize\n  dup4\n  codecopy\n  dup2\n  dup2\n  add\n  0x40\n  mstore\n  dup2\n  add\n  swap1\n  tag_2\n  swap2\n  swap1\n  tag_3\n  jump\t// in\ntag_2:\n    /* \"@openzeppelin/contracts/security/ReentrancyGuard.sol\":1716:1717  1 */\n  0x01\n    /* \"@openzeppelin/contracts/security/ReentrancyGuard.sol\":1821:1828  _status */\n  0x00\n    /* \"@openzeppelin/contracts/security/ReentrancyGuard.sol\":1821:1843  _status = _NOT_ENTERED */\n  dup2\n  swap1\n  sstore\n  pop\n    /* \"Contracts/EScrow_cont.sol\":3940:3941  0 */\n  0x00\n    /* \"Contracts/EScrow_cont.sol\":3921:3942  _funder != address(0) */\n  0xffffffffffffffffffffffffffffffffffffffff\n  and\n    /* \"Contracts/EScrow_cont.sol\":3921:3928  _funder */\n  dup7\n    /* \"Contracts/EScrow_cont.sol\":3921:3942  _funder != address(0) */\n  0xffffffffffffffffffffffffffffffffffffffff\n  and\n  sub\n    /* \"Contracts/EScrow_cont.sol\":3913:3961  require(_funder != address(0), \"Invalid funder\") */\n  tag_8\n  jumpi\n  mload(0x40)\n  0x08c379a000000000000000000000000000000000000000000000000000000000\n  dup2\n  mstore\n  0x04\n  add\n  tag_9\n  swap1\n  tag_10\n  jump\t// in\ntag_9:\n  mload(0x40)\n  dup1\n  swap2\n  sub\n  swap1\n  revert\ntag_8:\n    /* \"Contracts/EScrow_cont.sol\":4002:4003  0 */\n  0x00\n    /* \"Contracts/EScrow_cont.sol\":3980:4004  _developer != address(0) */\n  0xffffffffffffffffffffffffffffffffffffffff\n  and\n    /* \"Contracts/EScrow_cont.sol\":3980:3990  _developer */\n  dup6\n    /* \"Contracts/EScrow_cont.sol\":3980:4004  _developer != address(0) */\n  0xffffffffffffffffffffffffffffffffffffffff\n  and\n  sub\n    /* \"Contracts/EScrow_cont.sol\":3972:4026  require(_developer != address(0), \"Invalid developer\") */\n  tag_11\n  jumpi\n  mload(0x40)\n  0x08c379a000000000000000000000000000000000000000000000000000000000\n  dup2\n  mstore\n  0x04\n  add\n  tag_12\n  swap1\n  tag_13\n  jump\t// in\ntag_12:\n  mload(0x40)\n  dup1\n  swap2\n  sub\n  swap1\n  revert\ntag_11:\n    /* \"Contracts/EScrow_cont.sol\":4063:4064  0 */\n  0x00\n    /* \"Contracts/EScrow_cont.sol\":4045:4065  _token != address(0) */\n  0xffffffffffffffffffffffffffffffffffffffff\n  and\n    /* \"Contracts/EScrow_cont.sol\":4045:4051  _token */\n  dup5\n    /* \"Contracts/EScrow_cont.sol\":4045:4065  _token != address(0) */\n  0xffffffffffffffffffffffffffffffffffffffff\n  and\n  sub\n    /* \"Contracts/EScrow_cont.sol\":4037:4083  require(_token != address(0), \"Invalid token\") */\n  tag_14\n  jumpi\n  mload(0x40)\n  0x08c379a000000000000000000000000000000000000000000000000000000000\n  dup2\n  mstore\n  0x04\n  add\n  tag_15\n  swap1\n  tag_16\n  jump\t// in\ntag_15:\n  mload(0x40)\n  dup1\n  swap2\n  sub\n  swap1\n  revert\ntag_14:\n    /* \"Contracts/EScrow_cont.sol\":4113:4123  _developer */\n  dup5\n    /* \"Contracts/EScrow_cont.sol\":4102:4123  _funder != _developer */\n  0xffffffffffffffffffffffffffffffffffffffff\n  and\n    /* \"Contracts/EScrow_cont.sol\":4102:4109  _funder */\n  dup7\n    /* \"Contracts/EScrow_cont.sol\":4102:4123  _funder != _developer */\n  0xffffffffffffffffffffffffffffffffffffffff\n  and\n  sub\n    /* \"Contracts/EScrow_cont.sol\":4094:4154  require(_funder != _developer, \"Funder cannot be developer\") */\n  tag_17\n  jumpi\n  mload(0x40)\n  0x08c379a000000000000000000000000000000000000000000000000000000000\n  dup2\n  mstore\n  0x04\n  add\n  tag_18\n  swap1\n  tag_19\n  jump\t// in\ntag_18:\n  mload(0x40)\n  dup1\n  swap2\n  sub\n  swap1\n  revert\ntag_17:\n    /* \"Contracts/EScrow_cont.sol\":4200:4201  0 */\n  0x00\n    /* \"Contracts/EScrow_cont.sol\":4173:4190  _milestoneAmounts */\n  dup4\n    /* \"Contracts/EScrow_cont.sol\":4173:4197  _milestoneAmounts.length */\n  mload\n    /* \"Contracts/EScrow_cont.sol\":4173:4201  _milestoneAmounts.length > 0 */\n  gt\n    /* \"Contracts/EScrow_cont.sol\":4165:4219  require(_milestoneAmounts.length > 0, \"No milestones\") */\n  tag_20\n  jumpi\n  mload(0x40)\n  0x08c379a000000000000000000000000000000000000000000000000000000000\n  dup2\n  mstore\n  0x04\n  add\n  tag_21\n  swap1\n  tag_22\n  jump\t// in\ntag_21:\n  mload(0x40)\n  dup1\n  swap2\n  sub\n  swap1\n  revert\ntag_20:\n    /* \"Contracts/EScrow_cont.sol\":4280:4299  _milestoneDeadlines */\n  dup2\n    /* \"Contracts/EScrow_cont.sol\":4280:4306  _milestoneDeadlines.length */\n  mload\n    /* \"Contracts/EScrow_cont.sol\":4252:4269  _milestoneAmounts */\n  dup4\n    /* \"Contracts/EScrow_cont.sol\":4252:4276  _milestoneAmounts.length */\n  mload\n    /* \"Contracts/EScrow_cont.sol\":4252:4306  _milestoneAmounts.length == _milestoneDeadlines.length */\n  eq\n    /* \"Contracts/EScrow_cont.sol\":4252:4381  _milestoneAmounts.length == _milestoneDeadlines.length && ... */\n  dup1\n  iszero\n  tag_23\n  jumpi\n  pop\n    /* \"Contracts/EScrow_cont.sol\":4352:4374  _milestoneDescriptions */\n  dup1\n    /* \"Contracts/EScrow_cont.sol\":4352:4381  _milestoneDescriptions.length */\n  mload\n    /* \"Contracts/EScrow_cont.sol\":4324:4341  _milestoneAmounts */\n  dup4\n    /* \"Contracts/EScrow_cont.sol\":4324:4348  _milestoneAmounts.length */\n  mload\n    /* \"Contracts/EScrow_cont.sol\":4324:4381  _milestoneAmounts.length == _milestoneDescriptions.length */\n  eq\n    /* \"Contracts/EScrow_cont.sol\":4252:4381  _milestoneAmounts.length == _milestoneDeadlines.length && ... */\ntag_23:\n    /* \"Contracts/EScrow_cont.sol\":4230:4433  require(... */\n  tag_24\n  jumpi\n  mload(0x40)\n  0x08c379a000000000000000000000000000000000000000000000000000000000\n  dup2\n  mstore\n  0x04\n  add\n  tag_25\n  swap1\n  tag_26\n  jump\t// in\ntag_25:\n  mload(0x40)\n  dup1\n  swap2\n  sub\n  swap1\n  revert\ntag_24:\n    /* \"Contracts/EScrow_cont.sol\":4463:4470  _funder */\n  dup6\n    /* \"Contracts/EScrow_cont.sol\":4454:4470  funder = _funder */\n  0xffffffffffffffffffffffffffffffffffffffff\n  and\n  0x80\n  dup2\n  0xffffffffffffffffffffffffffffffffffffffff\n  and\n  dup2\n  mstore\n  pop\n  pop\n    /* \"Contracts/EScrow_cont.sol\":4493:4503  _developer */\n  dup5\n    /* \"Contracts/EScrow_cont.sol\":4481:4503  developer = _developer */\n  0xffffffffffffffffffffffffffffffffffffffff\n  and\n  0xa0\n  dup2\n  0xffffffffffffffffffffffffffffffffffffffff\n  and\n  dup2\n  mstore\n  pop\n  pop\n    /* \"Contracts/EScrow_cont.sol\":4536:4542  _token */\n  dup4\n    /* \"Contracts/EScrow_cont.sol\":4514:4543  paymentToken = IERC20(_token) */\n  0xffffffffffffffffffffffffffffffffffffffff\n  and\n  0xc0\n  dup2\n  0xffffffffffffffffffffffffffffffffffffffff\n  and\n  dup2\n  mstore\n  pop\n  pop\n    /* \"Contracts/EScrow_cont.sol\":4594:4605  uint256 sum */\n  0x00\n    /* \"Contracts/EScrow_cont.sol\":4608:4609  0 */\n  0x00\n    /* \"Contracts/EScrow_cont.sol\":4594:4609  uint256 sum = 0 */\n  swap1\n  pop\n    /* \"Contracts/EScrow_cont.sol\":4625:4634  uint256 i */\n  0x00\n    /* \"Contracts/EScrow_cont.sol\":4637:4638  0 */\n  0x00\n    /* \"Contracts/EScrow_cont.sol\":4625:4638  uint256 i = 0 */\n  swap1\n  pop\n    /* \"Contracts/EScrow_cont.sol\":4620:5098  for (uint256 i = 0; i < _milestoneAmounts.length; i++) {... */\ntag_27:\n    /* \"Contracts/EScrow_cont.sol\":4644:4661  _milestoneAmounts */\n  dup5\n    /* \"Contracts/EScrow_cont.sol\":4644:4668  _milestoneAmounts.length */\n  mload\n    /* \"Contracts/EScrow_cont.sol\":4640:4641  i */\n  dup2\n    /* \"Contracts/EScrow_cont.sol\":4640:4668  i < _milestoneAmounts.length */\n  lt\n    /* \"Contracts/EScrow_cont.sol\":4620:5098  for (uint256 i = 0; i < _milestoneAmounts.length; i++) {... */\n  iszero\n  tag_28\n  jumpi\n    /* \"Contracts/EScrow_cont.sol\":4721:4722  0 */\n  0x00\n    /* \"Contracts/EScrow_cont.sol\":4698:4715  _milestoneAmounts */\n  dup6\n    /* \"Contracts/EScrow_cont.sol\":4716:4717  i */\n  dup3\n    /* \"Contracts/EScrow_cont.sol\":4698:4718  _milestoneAmounts[i] */\n  dup2\n  mload\n  dup2\n  lt\n  tag_30\n  jumpi\n  tag_31\n  tag_32\n  jump\t// in\ntag_31:\ntag_30:\n  0x20\n  mul\n  0x20\n  add\n  add\n  mload\n    /* \"Contracts/EScrow_cont.sol\":4698:4722  _milestoneAmounts[i] > 0 */\n  gt\n    /* \"Contracts/EScrow_cont.sol\":4690:4748  require(_milestoneAmounts[i] > 0, \"Zero milestone amount\") */\n  tag_33\n  jumpi\n  mload(0x40)\n  0x08c379a000000000000000000000000000000000000000000000000000000000\n  dup2\n  mstore\n  0x04\n  add\n  tag_34\n  swap1\n  tag_35\n  jump\t// in\ntag_34:\n  mload(0x40)\n  dup1\n  swap2\n  sub\n  swap1\n  revert\ntag_33:\n    /* \"Contracts/EScrow_cont.sol\":4777:4787  milestones */\n  0x05\n    /* \"Contracts/EScrow_cont.sol\":4793:5043  Milestone({... */\n  mload(0x40)\n  dup1\n  0xa0\n  add\n  0x40\n  mstore\n  dup1\n    /* \"Contracts/EScrow_cont.sol\":4830:4847  _milestoneAmounts */\n  dup8\n    /* \"Contracts/EScrow_cont.sol\":4848:4849  i */\n  dup5\n    /* \"Contracts/EScrow_cont.sol\":4830:4850  _milestoneAmounts[i] */\n  dup2\n  mload\n  dup2\n  lt\n  tag_36\n  jumpi\n  tag_37\n  tag_32\n  jump\t// in\ntag_37:\ntag_36:\n  0x20\n  mul\n  0x20\n  add\n  add\n  mload\n    /* \"Contracts/EScrow_cont.sol\":4793:5043  Milestone({... */\n  dup2\n  mstore\n  0x20\n  add\n    /* \"Contracts/EScrow_cont.sol\":4879:4884  false */\n  0x00\n    /* \"Contracts/EScrow_cont.sol\":4793:5043  Milestone({... */\n  iszero\n  iszero\n  dup2\n  mstore\n  0x20\n  add\n    /* \"Contracts/EScrow_cont.sol\":4914:4919  false */\n  0x00\n    /* \"Contracts/EScrow_cont.sol\":4793:5043  Milestone({... */\n  iszero\n  iszero\n  dup2\n  mstore\n  0x20\n  add\n    /* \"Contracts/EScrow_cont.sol\":4948:4967  _milestoneDeadlines */\n  dup7\n    /* \"Contracts/EScrow_cont.sol\":4968:4969  i */\n  dup5\n    /* \"Contracts/EScrow_cont.sol\":4948:4970  _milestoneDeadlines[i] */\n  dup2\n  mload\n  dup2\n  lt\n  tag_38\n  jumpi\n  tag_39\n  tag_32\n  jump\t// in\ntag_39:\ntag_38:\n  0x20\n  mul\n  0x20\n  add\n  add\n  mload\n    /* \"Contracts/EScrow_cont.sol\":4793:5043  Milestone({... */\n  dup2\n  mstore\n  0x20\n  add\n    /* \"Contracts/EScrow_cont.sol\":5002:5024  _milestoneDescriptions */\n  dup6\n    /* \"Contracts/EScrow_cont.sol\":5025:5026  i */\n  dup5\n    /* \"Contracts/EScrow_cont.sol\":5002:5027  _milestoneDescriptions[i] */\n  dup2\n  mload\n  dup2\n  lt\n  tag_40\n  jumpi\n  tag_41\n  tag_32\n  jump\t// in\ntag_41:\ntag_40:\n  0x20\n  mul\n  0x20\n  add\n  add\n  mload\n    /* \"Contracts/EScrow_cont.sol\":4793:5043  Milestone({... */\n  dup2\n  mstore\n  pop\n    /* \"Contracts/EScrow_cont.sol\":4777:5044  milestones.push(Milestone({... */\n  swap1\n  dup1\n  0x01\n  dup2\n  sload\n  add\n  dup1\n  dup3\n  sstore\n  dup1\n  swap2\n  pop\n  pop\n  0x01\n  swap1\n  sub\n  swap1\n  0x00\n  mstore\n  keccak256(0x00, 0x20)\n  swap1\n  0x04\n  mul\n  add\n  0x00\n  swap1\n  swap2\n  swap1\n  swap2\n  swap1\n  swap2\n  pop\n  0x00\n  dup3\n  add\n  mload\n  dup2\n  0x00\n  add\n  sstore\n  0x20\n  dup3\n  add\n  mload\n  dup2\n  0x01\n  add\n  exp(0x0100, 0x00)\n  dup2\n  sload\n  dup2\n  0xff\n  mul\n  not\n  and\n  swap1\n  dup4\n  iszero\n  iszero\n  mul\n  or\n  swap1\n  sstore\n  pop\n  0x40\n  dup3\n  add\n  mload\n  dup2\n  0x01\n  add\n  exp(0x0100, 0x01)\n  dup2\n  sload\n  dup2\n  0xff\n  mul\n  not\n  and\n  swap1\n  dup4\n  iszero\n  iszero\n  mul\n  or\n  swap1\n  sstore\n  pop\n  0x60\n  dup3\n  add\n  mload\n  dup2\n  0x02\n  add\n  sstore\n  0x80\n  dup3\n  add\n  mload\n  dup2\n  0x03\n  add\n  swap1\n  dup2\n  tag_43\n  swap2\n  swap1\n  tag_44\n  jump\t// in\ntag_43:\n  pop\n  pop\n  pop\n    /* \"Contracts/EScrow_cont.sol\":5066:5083  _milestoneAmounts */\n  dup5\n    /* \"Contracts/EScrow_cont.sol\":5084:5085  i */\n  dup2\n    /* \"Contracts/EScrow_cont.sol\":5066:5086  _milestoneAmounts[i] */\n  dup2\n  mload\n  dup2\n  lt\n  tag_45\n  jumpi\n  tag_46\n  tag_32\n  jump\t// in\ntag_46:\ntag_45:\n  0x20\n  mul\n  0x20\n  add\n  add\n  mload\n    /* \"Contracts/EScrow_cont.sol\":5059:5086  sum += _milestoneAmounts[i] */\n  dup3\n  tag_47\n  swap2\n  swap1\n  tag_48\n  jump\t// in\ntag_47:\n  swap2\n  pop\n    /* \"Contracts/EScrow_cont.sol\":4670:4673  i++ */\n  dup1\n  dup1\n  0x01\n  add\n  swap2\n  pop\n  pop\n    /* \"Contracts/EScrow_cont.sol\":4620:5098  for (uint256 i = 0; i < _milestoneAmounts.length; i++) {... */\n  jump(tag_27)\ntag_28:\n  pop\n    /* \"Contracts/EScrow_cont.sol\":5132:5135  sum */\n  dup1\n    /* \"Contracts/EScrow_cont.sol\":5118:5129  totalAmount */\n  0x02\n    /* \"Contracts/EScrow_cont.sol\":5118:5135  totalAmount = sum */\n  dup2\n  swap1\n  sstore\n  pop\n    /* \"Contracts/EScrow_cont.sol\":5154:5174  ProjectState.Created */\n  0x00\n    /* \"Contracts/EScrow_cont.sol\":5146:5151  state */\n  0x01\n  0x00\n    /* \"Contracts/EScrow_cont.sol\":5146:5174  state = ProjectState.Created */\n  0x0100\n  exp\n  dup2\n  sload\n  dup2\n  0xff\n  mul\n  not\n  and\n  swap1\n  dup4\n  0x04\n  dup2\n  gt\n  iszero\n  tag_49\n  jumpi\n  tag_50\n  tag_51\n  jump\t// in\ntag_50:\ntag_49:\n  mul\n  or\n  swap1\n  sstore\n  pop\n    /* \"Contracts/EScrow_cont.sol\":3874:5182  {... */\n  pop\n    /* \"Contracts/EScrow_cont.sol\":3634:5182  constructor(... */\n  pop\n  pop\n  pop\n  pop\n  pop\n  pop\n    /* \"Contracts/EScrow_cont.sol\":461:13989  contract SimpleMilestoneEscrow is ReentrancyGuard {... */\n  jump(tag_52)\n    /* \"#utility.yul\":7:82   */\ntag_53:\n    /* \"#utility.yul\":40:46   */\n  0x00\n    /* \"#utility.yul\":73:75   */\n  0x40\n    /* \"#utility.yul\":67:76   */\n  mload\n    /* \"#utility.yul\":57:76   */\n  swap1\n  pop\n    /* \"#utility.yul\":7:82   */\n  swap1\n  jump\t// out\n    /* \"#utility.yul\":88:205   */\ntag_54:\n    /* \"#utility.yul\":197:198   */\n  0x00\n    /* \"#utility.yul\":194:195   */\n  0x00\n    /* \"#utility.yul\":187:199   */\n  revert\n    /* \"#utility.yul\":211:328   */\ntag_55:\n    /* \"#utility.yul\":320:321   */\n  0x00\n    /* \"#utility.yul\":317:318   */\n  0x00\n    /* \"#utility.yul\":310:322   */\n  revert\n    /* \"#utility.yul\":334:460   */\ntag_56:\n    /* \"#utility.yul\":371:378   */\n  0x00\n    /* \"#utility.yul\":411:453   */\n  0xffffffffffffffffffffffffffffffffffffffff\n    /* \"#utility.yul\":404:409   */\n  dup3\n    /* \"#utility.yul\":400:454   */\n  and\n    /* \"#utility.yul\":389:454   */\n  swap1\n  pop\n    /* \"#utility.yul\":334:460   */\n  swap2\n  swap1\n  pop\n  jump\t// out\n    /* \"#utility.yul\":466:562   */\ntag_57:\n    /* \"#utility.yul\":503:510   */\n  0x00\n    /* \"#utility.yul\":532:556   */\n  tag_120\n    /* \"#utility.yul\":550:555   */\n  dup3\n    /* \"#utility.yul\":532:556   */\n  tag_56\n  jump\t// in\ntag_120:\n    /* \"#utility.yul\":521:556   */\n  swap1\n  pop\n    /* \"#utility.yul\":466:562   */\n  swap2\n  swap1\n  pop\n  jump\t// out\n    /* \"#utility.yul\":568:690   */\ntag_58:\n    /* \"#utility.yul\":641:665   */\n  tag_122\n    /* \"#utility.yul\":659:664   */\n  dup2\n    /* \"#utility.yul\":641:665   */\n  tag_57\n  jump\t// in\ntag_122:\n    /* \"#utility.yul\":634:639   */\n  dup2\n    /* \"#utility.yul\":631:666   */\n  eq\n    /* \"#utility.yul\":621:684   */\n  tag_123\n  jumpi\n    /* \"#utility.yul\":680:681   */\n  0x00\n    /* \"#utility.yul\":677:678   */\n  0x00\n    /* \"#utility.yul\":670:682   */\n  revert\n    /* \"#utility.yul\":621:684   */\ntag_123:\n    /* \"#utility.yul\":568:690   */\n  pop\n  jump\t// out\n    /* \"#utility.yul\":696:839   */\ntag_59:\n    /* \"#utility.yul\":753:758   */\n  0x00\n    /* \"#utility.yul\":784:790   */\n  dup2\n    /* \"#utility.yul\":778:791   */\n  mload\n    /* \"#utility.yul\":769:791   */\n  swap1\n  pop\n    /* \"#utility.yul\":800:833   */\n  tag_125\n    /* \"#utility.yul\":827:832   */\n  dup2\n    /* \"#utility.yul\":800:833   */\n  tag_58\n  jump\t// in\ntag_125:\n    /* \"#utility.yul\":696:839   */\n  swap3\n  swap2\n  pop\n  pop\n  jump\t// out\n    /* \"#utility.yul\":845:962   */\ntag_60:\n    /* \"#utility.yul\":954:955   */\n  0x00\n    /* \"#utility.yul\":951:952   */\n  0x00\n    /* \"#utility.yul\":944:956   */\n  revert\n    /* \"#utility.yul\":968:1070   */\ntag_61:\n    /* \"#utility.yul\":1009:1015   */\n  0x00\n    /* \"#utility.yul\":1060:1062   */\n  0x1f\n    /* \"#utility.yul\":1056:1063   */\n  not\n    /* \"#utility.yul\":1051:1053   */\n  0x1f\n    /* \"#utility.yul\":1044:1049   */\n  dup4\n    /* \"#utility.yul\":1040:1054   */\n  add\n    /* \"#utility.yul\":1036:1064   */\n  and\n    /* \"#utility.yul\":1026:1064   */\n  swap1\n  pop\n    /* \"#utility.yul\":968:1070   */\n  swap2\n  swap1\n  pop\n  jump\t// out\n    /* \"#utility.yul\":1076:1256   */\ntag_62:\n    /* \"#utility.yul\":1124:1201   */\n  0x4e487b7100000000000000000000000000000000000000000000000000000000\n    /* \"#utility.yul\":1121:1122   */\n  0x00\n    /* \"#utility.yul\":1114:1202   */\n  mstore\n    /* \"#utility.yul\":1221:1225   */\n  0x41\n    /* \"#utility.yul\":1218:1219   */\n  0x04\n    /* \"#utility.yul\":1211:1226   */\n  mstore\n    /* \"#utility.yul\":1245:1249   */\n  0x24\n    /* \"#utility.yul\":1242:1243   */\n  0x00\n    /* \"#utility.yul\":1235:1250   */\n  revert\n    /* \"#utility.yul\":1262:1543   */\ntag_63:\n    /* \"#utility.yul\":1345:1372   */\n  tag_130\n    /* \"#utility.yul\":1367:1371   */\n  dup3\n    /* \"#utility.yul\":1345:1372   */\n  tag_61\n  jump\t// in\ntag_130:\n    /* \"#utility.yul\":1337:1343   */\n  dup2\n    /* \"#utility.yul\":1333:1373   */\n  add\n    /* \"#utility.yul\":1475:1481   */\n  dup2\n    /* \"#utility.yul\":1463:1473   */\n  dup2\n    /* \"#utility.yul\":1460:1482   */\n  lt\n    /* \"#utility.yul\":1439:1457   */\n  0xffffffffffffffff\n    /* \"#utility.yul\":1427:1437   */\n  dup3\n    /* \"#utility.yul\":1424:1458   */\n  gt\n    /* \"#utility.yul\":1421:1483   */\n  or\n    /* \"#utility.yul\":1418:1506   */\n  iszero\n  tag_131\n  jumpi\n    /* \"#utility.yul\":1486:1504   */\n  tag_132\n  tag_62\n  jump\t// in\ntag_132:\n    /* \"#utility.yul\":1418:1506   */\ntag_131:\n    /* \"#utility.yul\":1526:1536   */\n  dup1\n    /* \"#utility.yul\":1522:1524   */\n  0x40\n    /* \"#utility.yul\":1515:1537   */\n  mstore\n    /* \"#utility.yul\":1305:1543   */\n  pop\n    /* \"#utility.yul\":1262:1543   */\n  pop\n  pop\n  jump\t// out\n    /* \"#utility.yul\":1549:1678   */\ntag_64:\n    /* \"#utility.yul\":1583:1589   */\n  0x00\n    /* \"#utility.yul\":1610:1630   */\n  tag_134\n  tag_53\n  jump\t// in\ntag_134:\n    /* \"#utility.yul\":1600:1630   */\n  swap1\n  pop\n    /* \"#utility.yul\":1639:1672   */\n  tag_135\n    /* \"#utility.yul\":1667:1671   */\n  dup3\n    /* \"#utility.yul\":1659:1665   */\n  dup3\n    /* \"#utility.yul\":1639:1672   */\n  tag_63\n  jump\t// in\ntag_135:\n    /* \"#utility.yul\":1549:1678   */\n  swap2\n  swap1\n  pop\n  jump\t// out\n    /* \"#utility.yul\":1684:1995   */\ntag_65:\n    /* \"#utility.yul\":1761:1765   */\n  0x00\n    /* \"#utility.yul\":1851:1869   */\n  0xffffffffffffffff\n    /* \"#utility.yul\":1843:1849   */\n  dup3\n    /* \"#utility.yul\":1840:1870   */\n  gt\n    /* \"#utility.yul\":1837:1893   */\n  iszero\n  tag_137\n  jumpi\n    /* \"#utility.yul\":1873:1891   */\n  tag_138\n  tag_62\n  jump\t// in\ntag_138:\n    /* \"#utility.yul\":1837:1893   */\ntag_137:\n    /* \"#utility.yul\":1923:1927   */\n  0x20\n    /* \"#utility.yul\":1915:1921   */\n  dup3\n    /* \"#utility.yul\":1911:1928   */\n  mul\n    /* \"#utility.yul\":1903:1928   */\n  swap1\n  pop\n    /* \"#utility.yul\":1983:1987   */\n  0x20\n    /* \"#utility.yul\":1977:1981   */\n  dup2\n    /* \"#utility.yul\":1973:1988   */\n  add\n    /* \"#utility.yul\":1965:1988   */\n  swap1\n  pop\n    /* \"#utility.yul\":1684:1995   */\n  swap2\n  swap1\n  pop\n  jump\t// out\n    /* \"#utility.yul\":2001:2118   */\ntag_66:\n    /* \"#utility.yul\":2110:2111   */\n  0x00\n    /* \"#utility.yul\":2107:2108   */\n  0x00\n    /* \"#utility.yul\":2100:2112   */\n  revert\n    /* \"#utility.yul\":2124:2201   */\ntag_67:\n    /* \"#utility.yul\":2161:2168   */\n  0x00\n    /* \"#utility.yul\":2190:2195   */\n  dup2\n    /* \"#utility.yul\":2179:2195   */\n  swap1\n  pop\n    /* \"#utility.yul\":2124:2201   */\n  swap2\n  swap1\n  pop\n  jump\t// out\n    /* \"#utility.yul\":2207:2329   */\ntag_68:\n    /* \"#utility.yul\":2280:2304   */\n  tag_142\n    /* \"#utility.yul\":2298:2303   */\n  dup2\n    /* \"#utility.yul\":2280:2304   */\n  tag_67\n  jump\t// in\ntag_142:\n    /* \"#utility.yul\":2273:2278   */\n  dup2\n    /* \"#utility.yul\":2270:2305   */\n  eq\n    /* \"#utility.yul\":2260:2323   */\n  tag_143\n  jumpi\n    /* \"#utility.yul\":2319:2320   */\n  0x00\n    /* \"#utility.yul\":2316:2317   */\n  0x00\n    /* \"#utility.yul\":2309:2321   */\n  revert\n    /* \"#utility.yul\":2260:2323   */\ntag_143:\n    /* \"#utility.yul\":2207:2329   */\n  pop\n  jump\t// out\n    /* \"#utility.yul\":2335:2478   */\ntag_69:\n    /* \"#utility.yul\":2392:2397   */\n  0x00\n    /* \"#utility.yul\":2423:2429   */\n  dup2\n    /* \"#utility.yul\":2417:2430   */\n  mload\n    /* \"#utility.yul\":2408:2430   */\n  swap1\n  pop\n    /* \"#utility.yul\":2439:2472   */\n  tag_145\n    /* \"#utility.yul\":2466:2471   */\n  dup2\n    /* \"#utility.yul\":2439:2472   */\n  tag_68\n  jump\t// in\ntag_145:\n    /* \"#utility.yul\":2335:2478   */\n  swap3\n  swap2\n  pop\n  pop\n  jump\t// out\n    /* \"#utility.yul\":2501:3233   */\ntag_70:\n    /* \"#utility.yul\":2608:2613   */\n  0x00\n    /* \"#utility.yul\":2633:2714   */\n  tag_147\n    /* \"#utility.yul\":2649:2713   */\n  tag_148\n    /* \"#utility.yul\":2706:2712   */\n  dup5\n    /* \"#utility.yul\":2649:2713   */\n  tag_65\n  jump\t// in\ntag_148:\n    /* \"#utility.yul\":2633:2714   */\n  tag_64\n  jump\t// in\ntag_147:\n    /* \"#utility.yul\":2624:2714   */\n  swap1\n  pop\n    /* \"#utility.yul\":2734:2739   */\n  dup1\n    /* \"#utility.yul\":2763:2769   */\n  dup4\n    /* \"#utility.yul\":2756:2761   */\n  dup3\n    /* \"#utility.yul\":2749:2770   */\n  mstore\n    /* \"#utility.yul\":2797:2801   */\n  0x20\n    /* \"#utility.yul\":2790:2795   */\n  dup3\n    /* \"#utility.yul\":2786:2802   */\n  add\n    /* \"#utility.yul\":2779:2802   */\n  swap1\n  pop\n    /* \"#utility.yul\":2850:2854   */\n  0x20\n    /* \"#utility.yul\":2842:2848   */\n  dup5\n    /* \"#utility.yul\":2838:2855   */\n  mul\n    /* \"#utility.yul\":2830:2836   */\n  dup4\n    /* \"#utility.yul\":2826:2856   */\n  add\n    /* \"#utility.yul\":2879:2882   */\n  dup6\n    /* \"#utility.yul\":2871:2877   */\n  dup2\n    /* \"#utility.yul\":2868:2883   */\n  gt\n    /* \"#utility.yul\":2865:2987   */\n  iszero\n  tag_149\n  jumpi\n    /* \"#utility.yul\":2898:2977   */\n  tag_150\n  tag_66\n  jump\t// in\ntag_150:\n    /* \"#utility.yul\":2865:2987   */\ntag_149:\n    /* \"#utility.yul\":3013:3019   */\n  dup4\n    /* \"#utility.yul\":2996:3227   */\ntag_151:\n    /* \"#utility.yul\":3030:3036   */\n  dup2\n    /* \"#utility.yul\":3025:3028   */\n  dup2\n    /* \"#utility.yul\":3022:3037   */\n  lt\n    /* \"#utility.yul\":2996:3227   */\n  iszero\n  tag_153\n  jumpi\n    /* \"#utility.yul\":3105:3108   */\n  dup1\n    /* \"#utility.yul\":3134:3182   */\n  tag_154\n    /* \"#utility.yul\":3178:3181   */\n  dup9\n    /* \"#utility.yul\":3166:3176   */\n  dup3\n    /* \"#utility.yul\":3134:3182   */\n  tag_69\n  jump\t// in\ntag_154:\n    /* \"#utility.yul\":3129:3132   */\n  dup5\n    /* \"#utility.yul\":3122:3183   */\n  mstore\n    /* \"#utility.yul\":3212:3216   */\n  0x20\n    /* \"#utility.yul\":3207:3210   */\n  dup5\n    /* \"#utility.yul\":3203:3217   */\n  add\n    /* \"#utility.yul\":3196:3217   */\n  swap4\n  pop\n    /* \"#utility.yul\":3072:3227   */\n  pop\n    /* \"#utility.yul\":3056:3060   */\n  0x20\n    /* \"#utility.yul\":3051:3054   */\n  dup2\n    /* \"#utility.yul\":3047:3061   */\n  add\n    /* \"#utility.yul\":3040:3061   */\n  swap1\n  pop\n    /* \"#utility.yul\":2996:3227   */\n  jump(tag_151)\ntag_153:\n    /* \"#utility.yul\":3000:3021   */\n  pop\n    /* \"#utility.yul\":2614:3233   */\n  pop\n  pop\n    /* \"#utility.yul\":2501:3233   */\n  swap4\n  swap3\n  pop\n  pop\n  pop\n  jump\t// out\n    /* \"#utility.yul\":3256:3641   */\ntag_71:\n    /* \"#utility.yul\":3338:3343   */\n  0x00\n    /* \"#utility.yul\":3387:3390   */\n  dup3\n    /* \"#utility.yul\":3380:3384   */\n  0x1f\n    /* \"#utility.yul\":3372:3378   */\n  dup4\n    /* \"#utility.yul\":3368:3385   */\n  add\n    /* \"#utility.yul\":3364:3391   */\n  slt\n    /* \"#utility.yul\":3354:3476   */\n  tag_156\n  jumpi\n    /* \"#utility.yul\":3395:3474   */\n  tag_157\n  tag_60\n  jump\t// in\ntag_157:\n    /* \"#utility.yul\":3354:3476   */\ntag_156:\n    /* \"#utility.yul\":3505:3511   */\n  dup2\n    /* \"#utility.yul\":3499:3512   */\n  mload\n    /* \"#utility.yul\":3530:3635   */\n  tag_158\n    /* \"#utility.yul\":3631:3634   */\n  dup5\n    /* \"#utility.yul\":3623:3629   */\n  dup3\n    /* \"#utility.yul\":3616:3620   */\n  0x20\n    /* \"#utility.yul\":3608:3614   */\n  dup7\n    /* \"#utility.yul\":3604:3621   */\n  add\n    /* \"#utility.yul\":3530:3635   */\n  tag_70\n  jump\t// in\ntag_158:\n    /* \"#utility.yul\":3521:3635   */\n  swap2\n  pop\n    /* \"#utility.yul\":3344:3641   */\n  pop\n    /* \"#utility.yul\":3256:3641   */\n  swap3\n  swap2\n  pop\n  pop\n  jump\t// out\n    /* \"#utility.yul\":3647:3968   */\ntag_72:\n    /* \"#utility.yul\":3734:3738   */\n  0x00\n    /* \"#utility.yul\":3824:3842   */\n  0xffffffffffffffff\n    /* \"#utility.yul\":3816:3822   */\n  dup3\n    /* \"#utility.yul\":3813:3843   */\n  gt\n    /* \"#utility.yul\":3810:3866   */\n  iszero\n  tag_160\n  jumpi\n    /* \"#utility.yul\":3846:3864   */\n  tag_161\n  tag_62\n  jump\t// in\ntag_161:\n    /* \"#utility.yul\":3810:3866   */\ntag_160:\n    /* \"#utility.yul\":3896:3900   */\n  0x20\n    /* \"#utility.yul\":3888:3894   */\n  dup3\n    /* \"#utility.yul\":3884:3901   */\n  mul\n    /* \"#utility.yul\":3876:3901   */\n  swap1\n  pop\n    /* \"#utility.yul\":3956:3960   */\n  0x20\n    /* \"#utility.yul\":3950:3954   */\n  dup2\n    /* \"#utility.yul\":3946:3961   */\n  add\n    /* \"#utility.yul\":3938:3961   */\n  swap1\n  pop\n    /* \"#utility.yul\":3647:3968   */\n  swap2\n  swap1\n  pop\n  jump\t// out\n    /* \"#utility.yul\":3974:4091   */\ntag_73:\n    /* \"#utility.yul\":4083:4084   */\n  0x00\n    /* \"#utility.yul\":4080:4081   */\n  0x00\n    /* \"#utility.yul\":4073:4085   */\n  revert\n    /* \"#utility.yul\":4097:4405   */\ntag_74:\n    /* \"#utility.yul\":4159:4163   */\n  0x00\n    /* \"#utility.yul\":4249:4267   */\n  0xffffffffffffffff\n    /* \"#utility.yul\":4241:4247   */\n  dup3\n    /* \"#utility.yul\":4238:4268   */\n  gt\n    /* \"#utility.yul\":4235:4291   */\n  iszero\n  tag_164\n  jumpi\n    /* \"#utility.yul\":4271:4289   */\n  tag_165\n  tag_62\n  jump\t// in\ntag_165:\n    /* \"#utility.yul\":4235:4291   */\ntag_164:\n    /* \"#utility.yul\":4309:4338   */\n  tag_166\n    /* \"#utility.yul\":4331:4337   */\n  dup3\n    /* \"#utility.yul\":4309:4338   */\n  tag_61\n  jump\t// in\ntag_166:\n    /* \"#utility.yul\":4301:4338   */\n  swap1\n  pop\n    /* \"#utility.yul\":4393:4397   */\n  0x20\n    /* \"#utility.yul\":4387:4391   */\n  dup2\n    /* \"#utility.yul\":4383:4398   */\n  add\n    /* \"#utility.yul\":4375:4398   */\n  swap1\n  pop\n    /* \"#utility.yul\":4097:4405   */\n  swap2\n  swap1\n  pop\n  jump\t// out\n    /* \"#utility.yul\":4411:4550   */\ntag_75:\n    /* \"#utility.yul\":4500:4506   */\n  dup3\n    /* \"#utility.yul\":4495:4498   */\n  dup2\n    /* \"#utility.yul\":4490:4493   */\n  dup4\n    /* \"#utility.yul\":4484:4507   */\n  mcopy\n    /* \"#utility.yul\":4541:4542   */\n  0x00\n    /* \"#utility.yul\":4532:4538   */\n  dup4\n    /* \"#utility.yul\":4527:4530   */\n  dup4\n    /* \"#utility.yul\":4523:4539   */\n  add\n    /* \"#utility.yul\":4516:4543   */\n  mstore\n    /* \"#utility.yul\":4411:4550   */\n  pop\n  pop\n  pop\n  jump\t// out\n    /* \"#utility.yul\":4556:4990   */\ntag_76:\n    /* \"#utility.yul\":4645:4650   */\n  0x00\n    /* \"#utility.yul\":4670:4736   */\n  tag_169\n    /* \"#utility.yul\":4686:4735   */\n  tag_170\n    /* \"#utility.yul\":4728:4734   */\n  dup5\n    /* \"#utility.yul\":4686:4735   */\n  tag_74\n  jump\t// in\ntag_170:\n    /* \"#utility.yul\":4670:4736   */\n  tag_64\n  jump\t// in\ntag_169:\n    /* \"#utility.yul\":4661:4736   */\n  swap1\n  pop\n    /* \"#utility.yul\":4759:4765   */\n  dup3\n    /* \"#utility.yul\":4752:4757   */\n  dup2\n    /* \"#utility.yul\":4745:4766   */\n  mstore\n    /* \"#utility.yul\":4797:4801   */\n  0x20\n    /* \"#utility.yul\":4790:4795   */\n  dup2\n    /* \"#utility.yul\":4786:4802   */\n  add\n    /* \"#utility.yul\":4835:4838   */\n  dup5\n    /* \"#utility.yul\":4826:4832   */\n  dup5\n    /* \"#utility.yul\":4821:4824   */\n  dup5\n    /* \"#utility.yul\":4817:4833   */\n  add\n    /* \"#utility.yul\":4814:4839   */\n  gt\n    /* \"#utility.yul\":4811:4923   */\n  iszero\n  tag_171\n  jumpi\n    /* \"#utility.yul\":4842:4921   */\n  tag_172\n  tag_73\n  jump\t// in\ntag_172:\n    /* \"#utility.yul\":4811:4923   */\ntag_171:\n    /* \"#utility.yul\":4932:4984   */\n  tag_173\n    /* \"#utility.yul\":4977:4983   */\n  dup5\n    /* \"#utility.yul\":4972:4975   */\n  dup3\n    /* \"#utility.yul\":4967:4970   */\n  dup6\n    /* \"#utility.yul\":4932:4984   */\n  tag_75\n  jump\t// in\ntag_173:\n    /* \"#utility.yul\":4651:4990   */\n  pop\n    /* \"#utility.yul\":4556:4990   */\n  swap4\n  swap3\n  pop\n  pop\n  pop\n  jump\t// out\n    /* \"#utility.yul\":5010:5365   */\ntag_77:\n    /* \"#utility.yul\":5077:5082   */\n  0x00\n    /* \"#utility.yul\":5126:5129   */\n  dup3\n    /* \"#utility.yul\":5119:5123   */\n  0x1f\n    /* \"#utility.yul\":5111:5117   */\n  dup4\n    /* \"#utility.yul\":5107:5124   */\n  add\n    /* \"#utility.yul\":5103:5130   */\n  slt\n    /* \"#utility.yul\":5093:5215   */\n  tag_175\n  jumpi\n    /* \"#utility.yul\":5134:5213   */\n  tag_176\n  tag_60\n  jump\t// in\ntag_176:\n    /* \"#utility.yul\":5093:5215   */\ntag_175:\n    /* \"#utility.yul\":5244:5250   */\n  dup2\n    /* \"#utility.yul\":5238:5251   */\n  mload\n    /* \"#utility.yul\":5269:5359   */\n  tag_177\n    /* \"#utility.yul\":5355:5358   */\n  dup5\n    /* \"#utility.yul\":5347:5353   */\n  dup3\n    /* \"#utility.yul\":5340:5344   */\n  0x20\n    /* \"#utility.yul\":5332:5338   */\n  dup7\n    /* \"#utility.yul\":5328:5345   */\n  add\n    /* \"#utility.yul\":5269:5359   */\n  tag_76\n  jump\t// in\ntag_177:\n    /* \"#utility.yul\":5260:5359   */\n  swap2\n  pop\n    /* \"#utility.yul\":5083:5365   */\n  pop\n    /* \"#utility.yul\":5010:5365   */\n  swap3\n  swap2\n  pop\n  pop\n  jump\t// out\n    /* \"#utility.yul\":5387:6347   */\ntag_78:\n    /* \"#utility.yul\":5504:5509   */\n  0x00\n    /* \"#utility.yul\":5529:5620   */\n  tag_179\n    /* \"#utility.yul\":5545:5619   */\n  tag_180\n    /* \"#utility.yul\":5612:5618   */\n  dup5\n    /* \"#utility.yul\":5545:5619   */\n  tag_72\n  jump\t// in\ntag_180:\n    /* \"#utility.yul\":5529:5620   */\n  tag_64\n  jump\t// in\ntag_179:\n    /* \"#utility.yul\":5520:5620   */\n  swap1\n  pop\n    /* \"#utility.yul\":5640:5645   */\n  dup1\n    /* \"#utility.yul\":5669:5675   */\n  dup4\n    /* \"#utility.yul\":5662:5667   */\n  dup3\n    /* \"#utility.yul\":5655:5676   */\n  mstore\n    /* \"#utility.yul\":5703:5707   */\n  0x20\n    /* \"#utility.yul\":5696:5701   */\n  dup3\n    /* \"#utility.yul\":5692:5708   */\n  add\n    /* \"#utility.yul\":5685:5708   */\n  swap1\n  pop\n    /* \"#utility.yul\":5756:5760   */\n  0x20\n    /* \"#utility.yul\":5748:5754   */\n  dup5\n    /* \"#utility.yul\":5744:5761   */\n  mul\n    /* \"#utility.yul\":5736:5742   */\n  dup4\n    /* \"#utility.yul\":5732:5762   */\n  add\n    /* \"#utility.yul\":5785:5788   */\n  dup6\n    /* \"#utility.yul\":5777:5783   */\n  dup2\n    /* \"#utility.yul\":5774:5789   */\n  gt\n    /* \"#utility.yul\":5771:5893   */\n  iszero\n  tag_181\n  jumpi\n    /* \"#utility.yul\":5804:5883   */\n  tag_182\n  tag_66\n  jump\t// in\ntag_182:\n    /* \"#utility.yul\":5771:5893   */\ntag_181:\n    /* \"#utility.yul\":5919:5925   */\n  dup4\n    /* \"#utility.yul\":5902:6341   */\ntag_183:\n    /* \"#utility.yul\":5936:5942   */\n  dup2\n    /* \"#utility.yul\":5931:5934   */\n  dup2\n    /* \"#utility.yul\":5928:5943   */\n  lt\n    /* \"#utility.yul\":5902:6341   */\n  iszero\n  tag_185\n  jumpi\n    /* \"#utility.yul\":6018:6021   */\n  dup1\n    /* \"#utility.yul\":6012:6022   */\n  mload\n    /* \"#utility.yul\":6054:6072   */\n  0xffffffffffffffff\n    /* \"#utility.yul\":6041:6052   */\n  dup2\n    /* \"#utility.yul\":6038:6073   */\n  gt\n    /* \"#utility.yul\":6035:6157   */\n  iszero\n  tag_186\n  jumpi\n    /* \"#utility.yul\":6076:6155   */\n  tag_187\n  tag_60\n  jump\t// in\ntag_187:\n    /* \"#utility.yul\":6035:6157   */\ntag_186:\n    /* \"#utility.yul\":6200:6211   */\n  dup1\n    /* \"#utility.yul\":6192:6198   */\n  dup7\n    /* \"#utility.yul\":6188:6212   */\n  add\n    /* \"#utility.yul\":6238:6296   */\n  tag_188\n    /* \"#utility.yul\":6292:6295   */\n  dup10\n    /* \"#utility.yul\":6280:6290   */\n  dup3\n    /* \"#utility.yul\":6238:6296   */\n  tag_77\n  jump\t// in\ntag_188:\n    /* \"#utility.yul\":6233:6236   */\n  dup6\n    /* \"#utility.yul\":6226:6297   */\n  mstore\n    /* \"#utility.yul\":6326:6330   */\n  0x20\n    /* \"#utility.yul\":6321:6324   */\n  dup6\n    /* \"#utility.yul\":6317:6331   */\n  add\n    /* \"#utility.yul\":6310:6331   */\n  swap5\n  pop\n    /* \"#utility.yul\":5978:6341   */\n  pop\n  pop\n    /* \"#utility.yul\":5962:5966   */\n  0x20\n    /* \"#utility.yul\":5957:5960   */\n  dup2\n    /* \"#utility.yul\":5953:5967   */\n  add\n    /* \"#utility.yul\":5946:5967   */\n  swap1\n  pop\n    /* \"#utility.yul\":5902:6341   */\n  jump(tag_183)\ntag_185:\n    /* \"#utility.yul\":5906:5927   */\n  pop\n    /* \"#utility.yul\":5510:6347   */\n  pop\n  pop\n    /* \"#utility.yul\":5387:6347   */\n  swap4\n  swap3\n  pop\n  pop\n  pop\n  jump\t// out\n    /* \"#utility.yul\":6369:6774   */\ntag_79:\n    /* \"#utility.yul\":6461:6466   */\n  0x00\n    /* \"#utility.yul\":6510:6513   */\n  dup3\n    /* \"#utility.yul\":6503:6507   */\n  0x1f\n    /* \"#utility.yul\":6495:6501   */\n  dup4\n    /* \"#utility.yul\":6491:6508   */\n  add\n    /* \"#utility.yul\":6487:6514   */\n  slt\n    /* \"#utility.yul\":6477:6599   */\n  tag_190\n  jumpi\n    /* \"#utility.yul\":6518:6597   */\n  tag_191\n  tag_60\n  jump\t// in\ntag_191:\n    /* \"#utility.yul\":6477:6599   */\ntag_190:\n    /* \"#utility.yul\":6628:6634   */\n  dup2\n    /* \"#utility.yul\":6622:6635   */\n  mload\n    /* \"#utility.yul\":6653:6768   */\n  tag_192\n    /* \"#utility.yul\":6764:6767   */\n  dup5\n    /* \"#utility.yul\":6756:6762   */\n  dup3\n    /* \"#utility.yul\":6749:6753   */\n  0x20\n    /* \"#utility.yul\":6741:6747   */\n  dup7\n    /* \"#utility.yul\":6737:6754   */\n  add\n    /* \"#utility.yul\":6653:6768   */\n  tag_78\n  jump\t// in\ntag_192:\n    /* \"#utility.yul\":6644:6768   */\n  swap2\n  pop\n    /* \"#utility.yul\":6467:6774   */\n  pop\n    /* \"#utility.yul\":6369:6774   */\n  swap3\n  swap2\n  pop\n  pop\n  jump\t// out\n    /* \"#utility.yul\":6780:8543   */\ntag_3:\n    /* \"#utility.yul\":6980:6986   */\n  0x00\n    /* \"#utility.yul\":6988:6994   */\n  0x00\n    /* \"#utility.yul\":6996:7002   */\n  0x00\n    /* \"#utility.yul\":7004:7010   */\n  0x00\n    /* \"#utility.yul\":7012:7018   */\n  0x00\n    /* \"#utility.yul\":7020:7026   */\n  0x00\n    /* \"#utility.yul\":7069:7072   */\n  0xc0\n    /* \"#utility.yul\":7057:7066   */\n  dup8\n    /* \"#utility.yul\":7048:7055   */\n  dup10\n    /* \"#utility.yul\":7044:7067   */\n  sub\n    /* \"#utility.yul\":7040:7073   */\n  slt\n    /* \"#utility.yul\":7037:7157   */\n  iszero\n  tag_194\n  jumpi\n    /* \"#utility.yul\":7076:7155   */\n  tag_195\n  tag_54\n  jump\t// in\ntag_195:\n    /* \"#utility.yul\":7037:7157   */\ntag_194:\n    /* \"#utility.yul\":7196:7197   */\n  0x00\n    /* \"#utility.yul\":7221:7285   */\n  tag_196\n    /* \"#utility.yul\":7277:7284   */\n  dup10\n    /* \"#utility.yul\":7268:7274   */\n  dup3\n    /* \"#utility.yul\":7257:7266   */\n  dup11\n    /* \"#utility.yul\":7253:7275   */\n  add\n    /* \"#utility.yul\":7221:7285   */\n  tag_59\n  jump\t// in\ntag_196:\n    /* \"#utility.yul\":7211:7285   */\n  swap7\n  pop\n    /* \"#utility.yul\":7167:7295   */\n  pop\n    /* \"#utility.yul\":7334:7336   */\n  0x20\n    /* \"#utility.yul\":7360:7424   */\n  tag_197\n    /* \"#utility.yul\":7416:7423   */\n  dup10\n    /* \"#utility.yul\":7407:7413   */\n  dup3\n    /* \"#utility.yul\":7396:7405   */\n  dup11\n    /* \"#utility.yul\":7392:7414   */\n  add\n    /* \"#utility.yul\":7360:7424   */\n  tag_59\n  jump\t// in\ntag_197:\n    /* \"#utility.yul\":7350:7424   */\n  swap6\n  pop\n    /* \"#utility.yul\":7305:7434   */\n  pop\n    /* \"#utility.yul\":7473:7475   */\n  0x40\n    /* \"#utility.yul\":7499:7563   */\n  tag_198\n    /* \"#utility.yul\":7555:7562   */\n  dup10\n    /* \"#utility.yul\":7546:7552   */\n  dup3\n    /* \"#utility.yul\":7535:7544   */\n  dup11\n    /* \"#utility.yul\":7531:7553   */\n  add\n    /* \"#utility.yul\":7499:7563   */\n  tag_59\n  jump\t// in\ntag_198:\n    /* \"#utility.yul\":7489:7563   */\n  swap5\n  pop\n    /* \"#utility.yul\":7444:7573   */\n  pop\n    /* \"#utility.yul\":7633:7635   */\n  0x60\n    /* \"#utility.yul\":7622:7631   */\n  dup8\n    /* \"#utility.yul\":7618:7636   */\n  add\n    /* \"#utility.yul\":7612:7637   */\n  mload\n    /* \"#utility.yul\":7664:7682   */\n  0xffffffffffffffff\n    /* \"#utility.yul\":7656:7662   */\n  dup2\n    /* \"#utility.yul\":7653:7683   */\n  gt\n    /* \"#utility.yul\":7650:7767   */\n  iszero\n  tag_199\n  jumpi\n    /* \"#utility.yul\":7686:7765   */\n  tag_200\n  tag_55\n  jump\t// in\ntag_200:\n    /* \"#utility.yul\":7650:7767   */\ntag_199:\n    /* \"#utility.yul\":7791:7880   */\n  tag_201\n    /* \"#utility.yul\":7872:7879   */\n  dup10\n    /* \"#utility.yul\":7863:7869   */\n  dup3\n    /* \"#utility.yul\":7852:7861   */\n  dup11\n    /* \"#utility.yul\":7848:7870   */\n  add\n    /* \"#utility.yul\":7791:7880   */\n  tag_71\n  jump\t// in\ntag_201:\n    /* \"#utility.yul\":7781:7880   */\n  swap4\n  pop\n    /* \"#utility.yul\":7583:7890   */\n  pop\n    /* \"#utility.yul\":7950:7953   */\n  0x80\n    /* \"#utility.yul\":7939:7948   */\n  dup8\n    /* \"#utility.yul\":7935:7954   */\n  add\n    /* \"#utility.yul\":7929:7955   */\n  mload\n    /* \"#utility.yul\":7982:8000   */\n  0xffffffffffffffff\n    /* \"#utility.yul\":7974:7980   */\n  dup2\n    /* \"#utility.yul\":7971:8001   */\n  gt\n    /* \"#utility.yul\":7968:8085   */\n  iszero\n  tag_202\n  jumpi\n    /* \"#utility.yul\":8004:8083   */\n  tag_203\n  tag_55\n  jump\t// in\ntag_203:\n    /* \"#utility.yul\":7968:8085   */\ntag_202:\n    /* \"#utility.yul\":8109:8198   */\n  tag_204\n    /* \"#utility.yul\":8190:8197   */\n  dup10\n    /* \"#utility.yul\":8181:8187   */\n  dup3\n    /* \"#utility.yul\":8170:8179   */\n  dup11\n    /* \"#utility.yul\":8166:8188   */\n  add\n    /* \"#utility.yul\":8109:8198   */\n  tag_71\n  jump\t// in\ntag_204:\n    /* \"#utility.yul\":8099:8198   */\n  swap3\n  pop\n    /* \"#utility.yul\":7900:8208   */\n  pop\n    /* \"#utility.yul\":8268:8271   */\n  0xa0\n    /* \"#utility.yul\":8257:8266   */\n  dup8\n    /* \"#utility.yul\":8253:8272   */\n  add\n    /* \"#utility.yul\":8247:8273   */\n  mload\n    /* \"#utility.yul\":8300:8318   */\n  0xffffffffffffffff\n    /* \"#utility.yul\":8292:8298   */\n  dup2\n    /* \"#utility.yul\":8289:8319   */\n  gt\n    /* \"#utility.yul\":8286:8403   */\n  iszero\n  tag_205\n  jumpi\n    /* \"#utility.yul\":8322:8401   */\n  tag_206\n  tag_55\n  jump\t// in\ntag_206:\n    /* \"#utility.yul\":8286:8403   */\ntag_205:\n    /* \"#utility.yul\":8427:8526   */\n  tag_207\n    /* \"#utility.yul\":8518:8525   */\n  dup10\n    /* \"#utility.yul\":8509:8515   */\n  dup3\n    /* \"#utility.yul\":8498:8507   */\n  dup11\n    /* \"#utility.yul\":8494:8516   */\n  add\n    /* \"#utility.yul\":8427:8526   */\n  tag_79\n  jump\t// in\ntag_207:\n    /* \"#utility.yul\":8417:8526   */\n  swap2\n  pop\n    /* \"#utility.yul\":8218:8536   */\n  pop\n    /* \"#utility.yul\":6780:8543   */\n  swap3\n  swap6\n  pop\n  swap3\n  swap6\n  pop\n  swap3\n  swap6\n  jump\t// out\n    /* \"#utility.yul\":8549:8718   */\ntag_80:\n    /* \"#utility.yul\":8633:8644   */\n  0x00\n    /* \"#utility.yul\":8667:8673   */\n  dup3\n    /* \"#utility.yul\":8662:8665   */\n  dup3\n    /* \"#utility.yul\":8655:8674   */\n  mstore\n    /* \"#utility.yul\":8707:8711   */\n  0x20\n    /* \"#utility.yul\":8702:8705   */\n  dup3\n    /* \"#utility.yul\":8698:8712   */\n  add\n    /* \"#utility.yul\":8683:8712   */\n  swap1\n  pop\n    /* \"#utility.yul\":8549:8718   */\n  swap3\n  swap2\n  pop\n  pop\n  jump\t// out\n    /* \"#utility.yul\":8724:8888   */\ntag_81:\n    /* \"#utility.yul\":8864:8880   */\n  0x496e76616c69642066756e646572000000000000000000000000000000000000\n    /* \"#utility.yul\":8860:8861   */\n  0x00\n    /* \"#utility.yul\":8852:8858   */\n  dup3\n    /* \"#utility.yul\":8848:8862   */\n  add\n    /* \"#utility.yul\":8841:8881   */\n  mstore\n    /* \"#utility.yul\":8724:8888   */\n  pop\n  jump\t// out\n    /* \"#utility.yul\":8894:9260   */\ntag_82:\n    /* \"#utility.yul\":9036:9039   */\n  0x00\n    /* \"#utility.yul\":9057:9124   */\n  tag_211\n    /* \"#utility.yul\":9121:9123   */\n  0x0e\n    /* \"#utility.yul\":9116:9119   */\n  dup4\n    /* \"#utility.yul\":9057:9124   */\n  tag_80\n  jump\t// in\ntag_211:\n    /* \"#utility.yul\":9050:9124   */\n  swap2\n  pop\n    /* \"#utility.yul\":9133:9226   */\n  tag_212\n    /* \"#utility.yul\":9222:9225   */\n  dup3\n    /* \"#utility.yul\":9133:9226   */\n  tag_81\n  jump\t// in\ntag_212:\n    /* \"#utility.yul\":9251:9253   */\n  0x20\n    /* \"#utility.yul\":9246:9249   */\n  dup3\n    /* \"#utility.yul\":9242:9254   */\n  add\n    /* \"#utility.yul\":9235:9254   */\n  swap1\n  pop\n    /* \"#utility.yul\":8894:9260   */\n  swap2\n  swap1\n  pop\n  jump\t// out\n    /* \"#utility.yul\":9266:9685   */\ntag_10:\n    /* \"#utility.yul\":9432:9436   */\n  0x00\n    /* \"#utility.yul\":9470:9472   */\n  0x20\n    /* \"#utility.yul\":9459:9468   */\n  dup3\n    /* \"#utility.yul\":9455:9473   */\n  add\n    /* \"#utility.yul\":9447:9473   */\n  swap1\n  pop\n    /* \"#utility.yul\":9519:9528   */\n  dup2\n    /* \"#utility.yul\":9513:9517   */\n  dup2\n    /* \"#utility.yul\":9509:9529   */\n  sub\n    /* \"#utility.yul\":9505:9506   */\n  0x00\n    /* \"#utility.yul\":9494:9503   */\n  dup4\n    /* \"#utility.yul\":9490:9507   */\n  add\n    /* \"#utility.yul\":9483:9530   */\n  mstore\n    /* \"#utility.yul\":9547:9678   */\n  tag_214\n    /* \"#utility.yul\":9673:9677   */\n  dup2\n    /* \"#utility.yul\":9547:9678   */\n  tag_82\n  jump\t// in\ntag_214:\n    /* \"#utility.yul\":9539:9678   */\n  swap1\n  pop\n    /* \"#utility.yul\":9266:9685   */\n  swap2\n  swap1\n  pop\n  jump\t// out\n    /* \"#utility.yul\":9691:9858   */\ntag_83:\n    /* \"#utility.yul\":9831:9850   */\n  0x496e76616c696420646576656c6f706572000000000000000000000000000000\n    /* \"#utility.yul\":9827:9828   */\n  0x00\n    /* \"#utility.yul\":9819:9825   */\n  dup3\n    /* \"#utility.yul\":9815:9829   */\n  add\n    /* \"#utility.yul\":9808:9851   */\n  mstore\n    /* \"#utility.yul\":9691:9858   */\n  pop\n  jump\t// out\n    /* \"#utility.yul\":9864:10230   */\ntag_84:\n    /* \"#utility.yul\":10006:10009   */\n  0x00\n    /* \"#utility.yul\":10027:10094   */\n  tag_217\n    /* \"#utility.yul\":10091:10093   */\n  0x11\n    /* \"#utility.yul\":10086:10089   */\n  dup4\n    /* \"#utility.yul\":10027:10094   */\n  tag_80\n  jump\t// in\ntag_217:\n    /* \"#utility.yul\":10020:10094   */\n  swap2\n  pop\n    /* \"#utility.yul\":10103:10196   */\n  tag_218\n    /* \"#utility.yul\":10192:10195   */\n  dup3\n    /* \"#utility.yul\":10103:10196   */\n  tag_83\n  jump\t// in\ntag_218:\n    /* \"#utility.yul\":10221:10223   */\n  0x20\n    /* \"#utility.yul\":10216:10219   */\n  dup3\n    /* \"#utility.yul\":10212:10224   */\n  add\n    /* \"#utility.yul\":10205:10224   */\n  swap1\n  pop\n    /* \"#utility.yul\":9864:10230   */\n  swap2\n  swap1\n  pop\n  jump\t// out\n    /* \"#utility.yul\":10236:10655   */\ntag_13:\n    /* \"#utility.yul\":10402:10406   */\n  0x00\n    /* \"#utility.yul\":10440:10442   */\n  0x20\n    /* \"#utility.yul\":10429:10438   */\n  dup3\n    /* \"#utility.yul\":10425:10443   */\n  add\n    /* \"#utility.yul\":10417:10443   */\n  swap1\n  pop\n    /* \"#utility.yul\":10489:10498   */\n  dup2\n    /* \"#utility.yul\":10483:10487   */\n  dup2\n    /* \"#utility.yul\":10479:10499   */\n  sub\n    /* \"#utility.yul\":10475:10476   */\n  0x00\n    /* \"#utility.yul\":10464:10473   */\n  dup4\n    /* \"#utility.yul\":10460:10477   */\n  add\n    /* \"#utility.yul\":10453:10500   */\n  mstore\n    /* \"#utility.yul\":10517:10648   */\n  tag_220\n    /* \"#utility.yul\":10643:10647   */\n  dup2\n    /* \"#utility.yul\":10517:10648   */\n  tag_84\n  jump\t// in\ntag_220:\n    /* \"#utility.yul\":10509:10648   */\n  swap1\n  pop\n    /* \"#utility.yul\":10236:10655   */\n  swap2\n  swap1\n  pop\n  jump\t// out\n    /* \"#utility.yul\":10661:10824   */\ntag_85:\n    /* \"#utility.yul\":10801:10816   */\n  0x496e76616c696420746f6b656e00000000000000000000000000000000000000\n    /* \"#utility.yul\":10797:10798   */\n  0x00\n    /* \"#utility.yul\":10789:10795   */\n  dup3\n    /* \"#utility.yul\":10785:10799   */\n  add\n    /* \"#utility.yul\":10778:10817   */\n  mstore\n    /* \"#utility.yul\":10661:10824   */\n  pop\n  jump\t// out\n    /* \"#utility.yul\":10830:11196   */\ntag_86:\n    /* \"#utility.yul\":10972:10975   */\n  0x00\n    /* \"#utility.yul\":10993:11060   */\n  tag_223\n    /* \"#utility.yul\":11057:11059   */\n  0x0d\n    /* \"#utility.yul\":11052:11055   */\n  dup4\n    /* \"#utility.yul\":10993:11060   */\n  tag_80\n  jump\t// in\ntag_223:\n    /* \"#utility.yul\":10986:11060   */\n  swap2\n  pop\n    /* \"#utility.yul\":11069:11162   */\n  tag_224\n    /* \"#utility.yul\":11158:11161   */\n  dup3\n    /* \"#utility.yul\":11069:11162   */\n  tag_85\n  jump\t// in\ntag_224:\n    /* \"#utility.yul\":11187:11189   */\n  0x20\n    /* \"#utility.yul\":11182:11185   */\n  dup3\n    /* \"#utility.yul\":11178:11190   */\n  add\n    /* \"#utility.yul\":11171:11190   */\n  swap1\n  pop\n    /* \"#utility.yul\":10830:11196   */\n  swap2\n  swap1\n  pop\n  jump\t// out\n    /* \"#utility.yul\":11202:11621   */\ntag_16:\n    /* \"#utility.yul\":11368:11372   */\n  0x00\n    /* \"#utility.yul\":11406:11408   */\n  0x20\n    /* \"#utility.yul\":11395:11404   */\n  dup3\n    /* \"#utility.yul\":11391:11409   */\n  add\n    /* \"#utility.yul\":11383:11409   */\n  swap1\n  pop\n    /* \"#utility.yul\":11455:11464   */\n  dup2\n    /* \"#utility.yul\":11449:11453   */\n  dup2\n    /* \"#utility.yul\":11445:11465   */\n  sub\n    /* \"#utility.yul\":11441:11442   */\n  0x00\n    /* \"#utility.yul\":11430:11439   */\n  dup4\n    /* \"#utility.yul\":11426:11443   */\n  add\n    /* \"#utility.yul\":11419:11466   */\n  mstore\n    /* \"#utility.yul\":11483:11614   */\n  tag_226\n    /* \"#utility.yul\":11609:11613   */\n  dup2\n    /* \"#utility.yul\":11483:11614   */\n  tag_86\n  jump\t// in\ntag_226:\n    /* \"#utility.yul\":11475:11614   */\n  swap1\n  pop\n    /* \"#utility.yul\":11202:11621   */\n  swap2\n  swap1\n  pop\n  jump\t// out\n    /* \"#utility.yul\":11627:11803   */\ntag_87:\n    /* \"#utility.yul\":11767:11795   */\n  0x46756e6465722063616e6e6f7420626520646576656c6f706572000000000000\n    /* \"#utility.yul\":11763:11764   */\n  0x00\n    /* \"#utility.yul\":11755:11761   */\n  dup3\n    /* \"#utility.yul\":11751:11765   */\n  add\n    /* \"#utility.yul\":11744:11796   */\n  mstore\n    /* \"#utility.yul\":11627:11803   */\n  pop\n  jump\t// out\n    /* \"#utility.yul\":11809:12175   */\ntag_88:\n    /* \"#utility.yul\":11951:11954   */\n  0x00\n    /* \"#utility.yul\":11972:12039   */\n  tag_229\n    /* \"#utility.yul\":12036:12038   */\n  0x1a\n    /* \"#utility.yul\":12031:12034   */\n  dup4\n    /* \"#utility.yul\":11972:12039   */\n  tag_80\n  jump\t// in\ntag_229:\n    /* \"#utility.yul\":11965:12039   */\n  swap2\n  pop\n    /* \"#utility.yul\":12048:12141   */\n  tag_230\n    /* \"#utility.yul\":12137:12140   */\n  dup3\n    /* \"#utility.yul\":12048:12141   */\n  tag_87\n  jump\t// in\ntag_230:\n    /* \"#utility.yul\":12166:12168   */\n  0x20\n    /* \"#utility.yul\":12161:12164   */\n  dup3\n    /* \"#utility.yul\":12157:12169   */\n  add\n    /* \"#utility.yul\":12150:12169   */\n  swap1\n  pop\n    /* \"#utility.yul\":11809:12175   */\n  swap2\n  swap1\n  pop\n  jump\t// out\n    /* \"#utility.yul\":12181:12600   */\ntag_19:\n    /* \"#utility.yul\":12347:12351   */\n  0x00\n    /* \"#utility.yul\":12385:12387   */\n  0x20\n    /* \"#utility.yul\":12374:12383   */\n  dup3\n    /* \"#utility.yul\":12370:12388   */\n  add\n    /* \"#utility.yul\":12362:12388   */\n  swap1\n  pop\n    /* \"#utility.yul\":12434:12443   */\n  dup2\n    /* \"#utility.yul\":12428:12432   */\n  dup2\n    /* \"#utility.yul\":12424:12444   */\n  sub\n    /* \"#utility.yul\":12420:12421   */\n  0x00\n    /* \"#utility.yul\":12409:12418   */\n  dup4\n    /* \"#utility.yul\":12405:12422   */\n  add\n    /* \"#utility.yul\":12398:12445   */\n  mstore\n    /* \"#utility.yul\":12462:12593   */\n  tag_232\n    /* \"#utility.yul\":12588:12592   */\n  dup2\n    /* \"#utility.yul\":12462:12593   */\n  tag_88\n  jump\t// in\ntag_232:\n    /* \"#utility.yul\":12454:12593   */\n  swap1\n  pop\n    /* \"#utility.yul\":12181:12600   */\n  swap2\n  swap1\n  pop\n  jump\t// out\n    /* \"#utility.yul\":12606:12769   */\ntag_89:\n    /* \"#utility.yul\":12746:12761   */\n  0x4e6f206d696c6573746f6e657300000000000000000000000000000000000000\n    /* \"#utility.yul\":12742:12743   */\n  0x00\n    /* \"#utility.yul\":12734:12740   */\n  dup3\n    /* \"#utility.yul\":12730:12744   */\n  add\n    /* \"#utility.yul\":12723:12762   */\n  mstore\n    /* \"#utility.yul\":12606:12769   */\n  pop\n  jump\t// out\n    /* \"#utility.yul\":12775:13141   */\ntag_90:\n    /* \"#utility.yul\":12917:12920   */\n  0x00\n    /* \"#utility.yul\":12938:13005   */\n  tag_235\n    /* \"#utility.yul\":13002:13004   */\n  0x0d\n    /* \"#utility.yul\":12997:13000   */\n  dup4\n    /* \"#utility.yul\":12938:13005   */\n  tag_80\n  jump\t// in\ntag_235:\n    /* \"#utility.yul\":12931:13005   */\n  swap2\n  pop\n    /* \"#utility.yul\":13014:13107   */\n  tag_236\n    /* \"#utility.yul\":13103:13106   */\n  dup3\n    /* \"#utility.yul\":13014:13107   */\n  tag_89\n  jump\t// in\ntag_236:\n    /* \"#utility.yul\":13132:13134   */\n  0x20\n    /* \"#utility.yul\":13127:13130   */\n  dup3\n    /* \"#utility.yul\":13123:13135   */\n  add\n    /* \"#utility.yul\":13116:13135   */\n  swap1\n  pop\n    /* \"#utility.yul\":12775:13141   */\n  swap2\n  swap1\n  pop\n  jump\t// out\n    /* \"#utility.yul\":13147:13566   */\ntag_22:\n    /* \"#utility.yul\":13313:13317   */\n  0x00\n    /* \"#utility.yul\":13351:13353   */\n  0x20\n    /* \"#utility.yul\":13340:13349   */\n  dup3\n    /* \"#utility.yul\":13336:13354   */\n  add\n    /* \"#utility.yul\":13328:13354   */\n  swap1\n  pop\n    /* \"#utility.yul\":13400:13409   */\n  dup2\n    /* \"#utility.yul\":13394:13398   */\n  dup2\n    /* \"#utility.yul\":13390:13410   */\n  sub\n    /* \"#utility.yul\":13386:13387   */\n  0x00\n    /* \"#utility.yul\":13375:13384   */\n  dup4\n    /* \"#utility.yul\":13371:13388   */\n  add\n    /* \"#utility.yul\":13364:13411   */\n  mstore\n    /* \"#utility.yul\":13428:13559   */\n  tag_238\n    /* \"#utility.yul\":13554:13558   */\n  dup2\n    /* \"#utility.yul\":13428:13559   */\n  tag_90\n  jump\t// in\ntag_238:\n    /* \"#utility.yul\":13420:13559   */\n  swap1\n  pop\n    /* \"#utility.yul\":13147:13566   */\n  swap2\n  swap1\n  pop\n  jump\t// out\n    /* \"#utility.yul\":13572:13746   */\ntag_91:\n    /* \"#utility.yul\":13712:13738   */\n  0x496e76616c6964206d696c6573746f6e65206172726179730000000000000000\n    /* \"#utility.yul\":13708:13709   */\n  0x00\n    /* \"#utility.yul\":13700:13706   */\n  dup3\n    /* \"#utility.yul\":13696:13710   */\n  add\n    /* \"#utility.yul\":13689:13739   */\n  mstore\n    /* \"#utility.yul\":13572:13746   */\n  pop\n  jump\t// out\n    /* \"#utility.yul\":13752:14118   */\ntag_92:\n    /* \"#utility.yul\":13894:13897   */\n  0x00\n    /* \"#utility.yul\":13915:13982   */\n  tag_241\n    /* \"#utility.yul\":13979:13981   */\n  0x18\n    /* \"#utility.yul\":13974:13977   */\n  dup4\n    /* \"#utility.yul\":13915:13982   */\n  tag_80\n  jump\t// in\ntag_241:\n    /* \"#utility.yul\":13908:13982   */\n  swap2\n  pop\n    /* \"#utility.yul\":13991:14084   */\n  tag_242\n    /* \"#utility.yul\":14080:14083   */\n  dup3\n    /* \"#utility.yul\":13991:14084   */\n  tag_91\n  jump\t// in\ntag_242:\n    /* \"#utility.yul\":14109:14111   */\n  0x20\n    /* \"#utility.yul\":14104:14107   */\n  dup3\n    /* \"#utility.yul\":14100:14112   */\n  add\n    /* \"#utility.yul\":14093:14112   */\n  swap1\n  pop\n    /* \"#utility.yul\":13752:14118   */\n  swap2\n  swap1\n  pop\n  jump\t// out\n    /* \"#utility.yul\":14124:14543   */\ntag_26:\n    /* \"#utility.yul\":14290:14294   */\n  0x00\n    /* \"#utility.yul\":14328:14330   */\n  0x20\n    /* \"#utility.yul\":14317:14326   */\n  dup3\n    /* \"#utility.yul\":14313:14331   */\n  add\n    /* \"#utility.yul\":14305:14331   */\n  swap1\n  pop\n    /* \"#utility.yul\":14377:14386   */\n  dup2\n    /* \"#utility.yul\":14371:14375   */\n  dup2\n    /* \"#utility.yul\":14367:14387   */\n  sub\n    /* \"#utility.yul\":14363:14364   */\n  0x00\n    /* \"#utility.yul\":14352:14361   */\n  dup4\n    /* \"#utility.yul\":14348:14365   */\n  add\n    /* \"#utility.yul\":14341:14388   */\n  mstore\n    /* \"#utility.yul\":14405:14536   */\n  tag_244\n    /* \"#utility.yul\":14531:14535   */\n  dup2\n    /* \"#utility.yul\":14405:14536   */\n  tag_92\n  jump\t// in\ntag_244:\n    /* \"#utility.yul\":14397:14536   */\n  swap1\n  pop\n    /* \"#utility.yul\":14124:14543   */\n  swap2\n  swap1\n  pop\n  jump\t// out\n    /* \"#utility.yul\":14549:14729   */\ntag_32:\n    /* \"#utility.yul\":14597:14674   */\n  0x4e487b7100000000000000000000000000000000000000000000000000000000\n    /* \"#utility.yul\":14594:14595   */\n  0x00\n    /* \"#utility.yul\":14587:14675   */\n  mstore\n    /* \"#utility.yul\":14694:14698   */\n  0x32\n    /* \"#utility.yul\":14691:14692   */\n  0x04\n    /* \"#utility.yul\":14684:14699   */\n  mstore\n    /* \"#utility.yul\":14718:14722   */\n  0x24\n    /* \"#utility.yul\":14715:14716   */\n  0x00\n    /* \"#utility.yul\":14708:14723   */\n  revert\n    /* \"#utility.yul\":14735:14906   */\ntag_93:\n    /* \"#utility.yul\":14875:14898   */\n  0x5a65726f206d696c6573746f6e6520616d6f756e740000000000000000000000\n    /* \"#utility.yul\":14871:14872   */\n  0x00\n    /* \"#utility.yul\":14863:14869   */\n  dup3\n    /* \"#utility.yul\":14859:14873   */\n  add\n    /* \"#utility.yul\":14852:14899   */\n  mstore\n    /* \"#utility.yul\":14735:14906   */\n  pop\n  jump\t// out\n    /* \"#utility.yul\":14912:15278   */\ntag_94:\n    /* \"#utility.yul\":15054:15057   */\n  0x00\n    /* \"#utility.yul\":15075:15142   */\n  tag_248\n    /* \"#utility.yul\":15139:15141   */\n  0x15\n    /* \"#utility.yul\":15134:15137   */\n  dup4\n    /* \"#utility.yul\":15075:15142   */\n  tag_80\n  jump\t// in\ntag_248:\n    /* \"#utility.yul\":15068:15142   */\n  swap2\n  pop\n    /* \"#utility.yul\":15151:15244   */\n  tag_249\n    /* \"#utility.yul\":15240:15243   */\n  dup3\n    /* \"#utility.yul\":15151:15244   */\n  tag_93\n  jump\t// in\ntag_249:\n    /* \"#utility.yul\":15269:15271   */\n  0x20\n    /* \"#utility.yul\":15264:15267   */\n  dup3\n    /* \"#utility.yul\":15260:15272   */\n  add\n    /* \"#utility.yul\":15253:15272   */\n  swap1\n  pop\n    /* \"#utility.yul\":14912:15278   */\n  swap2\n  swap1\n  pop\n  jump\t// out\n    /* \"#utility.yul\":15284:15703   */\ntag_35:\n    /* \"#utility.yul\":15450:15454   */\n  0x00\n    /* \"#utility.yul\":15488:15490   */\n  0x20\n    /* \"#utility.yul\":15477:15486   */\n  dup3\n    /* \"#utility.yul\":15473:15491   */\n  add\n    /* \"#utility.yul\":15465:15491   */\n  swap1\n  pop\n    /* \"#utility.yul\":15537:15546   */\n  dup2\n    /* \"#utility.yul\":15531:15535   */\n  dup2\n    /* \"#utility.yul\":15527:15547   */\n  sub\n    /* \"#utility.yul\":15523:15524   */\n  0x00\n    /* \"#utility.yul\":15512:15521   */\n  dup4\n    /* \"#utility.yul\":15508:15525   */\n  add\n    /* \"#utility.yul\":15501:15548   */\n  mstore\n    /* \"#utility.yul\":15565:15696   */\n  tag_251\n    /* \"#utility.yul\":15691:15695   */\n  dup2\n    /* \"#utility.yul\":15565:15696   */\n  tag_94\n  jump\t// in\ntag_251:\n    /* \"#utility.yul\":15557:15696   */\n  swap1\n  pop\n    /* \"#utility.yul\":15284:15703   */\n  swap2\n  swap1\n  pop\n  jump\t// out\n    /* \"#utility.yul\":15709:15808   */\ntag_95:\n    /* \"#utility.yul\":15761:15767   */\n  0x00\n    /* \"#utility.yul\":15795:15800   */\n  dup2\n    /* \"#utility.yul\":15789:15801   */\n  mload\n    /* \"#utility.yul\":15779:15801   */\n  swap1\n  pop\n    /* \"#utility.yul\":15709:15808   */\n  swap2\n  swap1\n  pop\n  jump\t// out\n    /* \"#utility.yul\":15814:15994   */\ntag_96:\n    /* \"#utility.yul\":15862:15939   */\n  0x4e487b7100000000000000000000000000000000000000000000000000000000\n    /* \"#utility.yul\":15859:15860   */\n  0x00\n    /* \"#utility.yul\":15852:15940   */\n  mstore\n    /* \"#utility.yul\":15959:15963   */\n  0x22\n    /* \"#utility.yul\":15956:15957   */\n  0x04\n    /* \"#utility.yul\":15949:15964   */\n  mstore\n    /* \"#utility.yul\":15983:15987   */\n  0x24\n    /* \"#utility.yul\":15980:15981   */\n  0x00\n    /* \"#utility.yul\":15973:15988   */\n  revert\n    /* \"#utility.yul\":16000:16320   */\ntag_97:\n    /* \"#utility.yul\":16044:16050   */\n  0x00\n    /* \"#utility.yul\":16081:16082   */\n  0x02\n    /* \"#utility.yul\":16075:16079   */\n  dup3\n    /* \"#utility.yul\":16071:16083   */\n  div\n    /* \"#utility.yul\":16061:16083   */\n  swap1\n  pop\n    /* \"#utility.yul\":16128:16129   */\n  0x01\n    /* \"#utility.yul\":16122:16126   */\n  dup3\n    /* \"#utility.yul\":16118:16130   */\n  and\n    /* \"#utility.yul\":16149:16167   */\n  dup1\n    /* \"#utility.yul\":16139:16220   */\n  tag_255\n  jumpi\n    /* \"#utility.yul\":16205:16209   */\n  0x7f\n    /* \"#utility.yul\":16197:16203   */\n  dup3\n    /* \"#utility.yul\":16193:16210   */\n  and\n    /* \"#utility.yul\":16183:16210   */\n  swap2\n  pop\n    /* \"#utility.yul\":16139:16220   */\ntag_255:\n    /* \"#utility.yul\":16267:16269   */\n  0x20\n    /* \"#utility.yul\":16259:16265   */\n  dup3\n    /* \"#utility.yul\":16256:16270   */\n  lt\n    /* \"#utility.yul\":16236:16254   */\n  dup2\n    /* \"#utility.yul\":16233:16271   */\n  sub\n    /* \"#utility.yul\":16230:16314   */\n  tag_256\n  jumpi\n    /* \"#utility.yul\":16286:16304   */\n  tag_257\n  tag_96\n  jump\t// in\ntag_257:\n    /* \"#utility.yul\":16230:16314   */\ntag_256:\n    /* \"#utility.yul\":16051:16320   */\n  pop\n    /* \"#utility.yul\":16000:16320   */\n  swap2\n  swap1\n  pop\n  jump\t// out\n    /* \"#utility.yul\":16326:16467   */\ntag_98:\n    /* \"#utility.yul\":16375:16379   */\n  0x00\n    /* \"#utility.yul\":16398:16401   */\n  dup2\n    /* \"#utility.yul\":16390:16401   */\n  swap1\n  pop\n    /* \"#utility.yul\":16421:16424   */\n  dup2\n    /* \"#utility.yul\":16418:16419   */\n  0x00\n    /* \"#utility.yul\":16411:16425   */\n  mstore\n    /* \"#utility.yul\":16455:16459   */\n  0x20\n    /* \"#utility.yul\":16452:16453   */\n  0x00\n    /* \"#utility.yul\":16442:16460   */\n  keccak256\n    /* \"#utility.yul\":16434:16460   */\n  swap1\n  pop\n    /* \"#utility.yul\":16326:16467   */\n  swap2\n  swap1\n  pop\n  jump\t// out\n    /* \"#utility.yul\":16473:16566   */\ntag_99:\n    /* \"#utility.yul\":16510:16516   */\n  0x00\n    /* \"#utility.yul\":16557:16559   */\n  0x20\n    /* \"#utility.yul\":16552:16554   */\n  0x1f\n    /* \"#utility.yul\":16545:16550   */\n  dup4\n    /* \"#utility.yul\":16541:16555   */\n  add\n    /* \"#utility.yul\":16537:16560   */\n  div\n    /* \"#utility.yul\":16527:16560   */\n  swap1\n  pop\n    /* \"#utility.yul\":16473:16566   */\n  swap2\n  swap1\n  pop\n  jump\t// out\n    /* \"#utility.yul\":16572:16679   */\ntag_100:\n    /* \"#utility.yul\":16616:16624   */\n  0x00\n    /* \"#utility.yul\":16666:16671   */\n  dup3\n    /* \"#utility.yul\":16660:16664   */\n  dup3\n    /* \"#utility.yul\":16656:16672   */\n  shl\n    /* \"#utility.yul\":16635:16672   */\n  swap1\n  pop\n    /* \"#utility.yul\":16572:16679   */\n  swap3\n  swap2\n  pop\n  pop\n  jump\t// out\n    /* \"#utility.yul\":16685:17078   */\ntag_101:\n    /* \"#utility.yul\":16754:16760   */\n  0x00\n    /* \"#utility.yul\":16804:16805   */\n  0x08\n    /* \"#utility.yul\":16792:16802   */\n  dup4\n    /* \"#utility.yul\":16788:16806   */\n  mul\n    /* \"#utility.yul\":16827:16924   */\n  tag_262\n    /* \"#utility.yul\":16857:16923   */\n  0xffffffffffffffffffffffffffffffffffffffffffffffffffffffffffffffff\n    /* \"#utility.yul\":16846:16855   */\n  dup3\n    /* \"#utility.yul\":16827:16924   */\n  tag_100\n  jump\t// in\ntag_262:\n    /* \"#utility.yul\":16945:16984   */\n  tag_263\n    /* \"#utility.yul\":16975:16983   */\n  dup7\n    /* \"#utility.yul\":16964:16973   */\n  dup4\n    /* \"#utility.yul\":16945:16984   */\n  tag_100\n  jump\t// in\ntag_263:\n    /* \"#utility.yul\":16933:16984   */\n  swap6\n  pop\n    /* \"#utility.yul\":17017:17021   */\n  dup1\n    /* \"#utility.yul\":17013:17022   */\n  not\n    /* \"#utility.yul\":17006:17011   */\n  dup5\n    /* \"#utility.yul\":17002:17023   */\n  and\n    /* \"#utility.yul\":16993:17023   */\n  swap4\n  pop\n    /* \"#utility.yul\":17066:17070   */\n  dup1\n    /* \"#utility.yul\":17056:17064   */\n  dup7\n    /* \"#utility.yul\":17052:17071   */\n  and\n    /* \"#utility.yul\":17045:17050   */\n  dup5\n    /* \"#utility.yul\":17042:17072   */\n  or\n    /* \"#utility.yul\":17032:17072   */\n  swap3\n  pop\n    /* \"#utility.yul\":16761:17078   */\n  pop\n  pop\n    /* \"#utility.yul\":16685:17078   */\n  swap4\n  swap3\n  pop\n  pop\n  pop\n  jump\t// out\n    /* \"#utility.yul\":17084:17144   */\ntag_102:\n    /* \"#utility.yul\":17112:17115   */\n  0x00\n    /* \"#utility.yul\":17133:17138   */\n  dup2\n    /* \"#utility.yul\":17126:17138   */\n  swap1\n  pop\n    /* \"#utility.yul\":17084:17144   */\n  swap2\n  swap1\n  pop\n  jump\t// out\n    /* \"#utility.yul\":17150:17292   */\ntag_103:\n    /* \"#utility.yul\":17200:17209   */\n  0x00\n    /* \"#utility.yul\":17233:17286   */\n  tag_266\n    /* \"#utility.yul\":17251:17285   */\n  tag_267\n    /* \"#utility.yul\":17260:17284   */\n  tag_268\n    /* \"#utility.yul\":17278:17283   */\n  dup5\n    /* \"#utility.yul\":17260:17284   */\n  tag_67\n  jump\t// in\ntag_268:\n    /* \"#utility.yul\":17251:17285   */\n  tag_102\n  jump\t// in\ntag_267:\n    /* \"#utility.yul\":17233:17286   */\n  tag_67\n  jump\t// in\ntag_266:\n    /* \"#utility.yul\":17220:17286   */\n  swap1\n  pop\n    /* \"#utility.yul\":17150:17292   */\n  swap2\n  swap1\n  pop\n  jump\t// out\n    /* \"#utility.yul\":17298:17373   */\ntag_104:\n    /* \"#utility.yul\":17341:17344   */\n  0x00\n    /* \"#utility.yul\":17362:17367   */\n  dup2\n    /* \"#utility.yul\":17355:17367   */\n  swap1\n  pop\n    /* \"#utility.yul\":17298:17373   */\n  swap2\n  swap1\n  pop\n  jump\t// out\n    /* \"#utility.yul\":17379:17648   */\ntag_105:\n    /* \"#utility.yul\":17489:17528   */\n  tag_271\n    /* \"#utility.yul\":17520:17527   */\n  dup4\n    /* \"#utility.yul\":17489:17528   */\n  tag_103\n  jump\t// in\ntag_271:\n    /* \"#utility.yul\":17550:17641   */\n  tag_272\n    /* \"#utility.yul\":17599:17640   */\n  tag_273\n    /* \"#utility.yul\":17623:17639   */\n  dup3\n    /* \"#utility.yul\":17599:17640   */\n  tag_104\n  jump\t// in\ntag_273:\n    /* \"#utility.yul\":17591:17597   */\n  dup5\n    /* \"#utility.yul\":17584:17588   */\n  dup5\n    /* \"#utility.yul\":17578:17589   */\n  sload\n    /* \"#utility.yul\":17550:17641   */\n  tag_101\n  jump\t// in\ntag_272:\n    /* \"#utility.yul\":17544:17548   */\n  dup3\n    /* \"#utility.yul\":17537:17642   */\n  sstore\n    /* \"#utility.yul\":17455:17648   */\n  pop\n    /* \"#utility.yul\":17379:17648   */\n  pop\n  pop\n  pop\n  jump\t// out\n    /* \"#utility.yul\":17654:17727   */\ntag_106:\n    /* \"#utility.yul\":17699:17702   */\n  0x00\n    /* \"#utility.yul\":17720:17721   */\n  0x00\n    /* \"#utility.yul\":17713:17721   */\n  swap1\n  pop\n    /* \"#utility.yul\":17654:17727   */\n  swap1\n  jump\t// out\n    /* \"#utility.yul\":17733:17922   */\ntag_107:\n    /* \"#utility.yul\":17810:17842   */\n  tag_276\n  tag_106\n  jump\t// in\ntag_276:\n    /* \"#utility.yul\":17851:17916   */\n  tag_277\n    /* \"#utility.yul\":17909:17915   */\n  dup2\n    /* \"#utility.yul\":17901:17907   */\n  dup5\n    /* \"#utility.yul\":17895:17899   */\n  dup5\n    /* \"#utility.yul\":17851:17916   */\n  tag_105\n  jump\t// in\ntag_277:\n    /* \"#utility.yul\":17786:17922   */\n  pop\n    /* \"#utility.yul\":17733:17922   */\n  pop\n  pop\n  jump\t// out\n    /* \"#utility.yul\":17928:18114   */\ntag_108:\n    /* \"#utility.yul\":17988:18108   */\ntag_279:\n    /* \"#utility.yul\":18005:18008   */\n  dup2\n    /* \"#utility.yul\":17998:18003   */\n  dup2\n    /* \"#utility.yul\":17995:18009   */\n  lt\n    /* \"#utility.yul\":17988:18108   */\n  iszero\n  tag_281\n  jumpi\n    /* \"#utility.yul\":18059:18098   */\n  tag_282\n    /* \"#utility.yul\":18096:18097   */\n  0x00\n    /* \"#utility.yul\":18089:18094   */\n  dup3\n    /* \"#utility.yul\":18059:18098   */\n  tag_107\n  jump\t// in\ntag_282:\n    /* \"#utility.yul\":18032:18033   */\n  0x01\n    /* \"#utility.yul\":18025:18030   */\n  dup2\n    /* \"#utility.yul\":18021:18034   */\n  add\n    /* \"#utility.yul\":18012:18034   */\n  swap1\n  pop\n    /* \"#utility.yul\":17988:18108   */\n  jump(tag_279)\ntag_281:\n    /* \"#utility.yul\":17928:18114   */\n  pop\n  pop\n  jump\t// out\n    /* \"#utility.yul\":18120:18663   */\ntag_109:\n    /* \"#utility.yul\":18221:18223   */\n  0x1f\n    /* \"#utility.yul\":18216:18219   */\n  dup3\n    /* \"#utility.yul\":18213:18224   */\n  gt\n    /* \"#utility.yul\":18210:18656   */\n  iszero\n  tag_284\n  jumpi\n    /* \"#utility.yul\":18255:18293   */\n  tag_285\n    /* \"#utility.yul\":18287:18292   */\n  dup2\n    /* \"#utility.yul\":18255:18293   */\n  tag_98\n  jump\t// in\ntag_285:\n    /* \"#utility.yul\":18339:18368   */\n  tag_286\n    /* \"#utility.yul\":18357:18367   */\n  dup5\n    /* \"#utility.yul\":18339:18368   */\n  tag_99\n  jump\t// in\ntag_286:\n    /* \"#utility.yul\":18329:18337   */\n  dup2\n    /* \"#utility.yul\":18325:18369   */\n  add\n    /* \"#utility.yul\":18522:18524   */\n  0x20\n    /* \"#utility.yul\":18510:18520   */\n  dup6\n    /* \"#utility.yul\":18507:18525   */\n  lt\n    /* \"#utility.yul\":18504:18553   */\n  iszero\n  tag_287\n  jumpi\n    /* \"#utility.yul\":18543:18551   */\n  dup2\n    /* \"#utility.yul\":18528:18551   */\n  swap1\n  pop\n    /* \"#utility.yul\":18504:18553   */\ntag_287:\n    /* \"#utility.yul\":18566:18646   */\n  tag_288\n    /* \"#utility.yul\":18622:18644   */\n  tag_289\n    /* \"#utility.yul\":18640:18643   */\n  dup6\n    /* \"#utility.yul\":18622:18644   */\n  tag_99\n  jump\t// in\ntag_289:\n    /* \"#utility.yul\":18612:18620   */\n  dup4\n    /* \"#utility.yul\":18608:18645   */\n  add\n    /* \"#utility.yul\":18595:18606   */\n  dup3\n    /* \"#utility.yul\":18566:18646   */\n  tag_108\n  jump\t// in\ntag_288:\n    /* \"#utility.yul\":18225:18656   */\n  pop\n  pop\n    /* \"#utility.yul\":18210:18656   */\ntag_284:\n    /* \"#utility.yul\":18120:18663   */\n  pop\n  pop\n  pop\n  jump\t// out\n    /* \"#utility.yul\":18669:18786   */\ntag_110:\n    /* \"#utility.yul\":18723:18731   */\n  0x00\n    /* \"#utility.yul\":18773:18778   */\n  dup3\n    /* \"#utility.yul\":18767:18771   */\n  dup3\n    /* \"#utility.yul\":18763:18779   */\n  shr\n    /* \"#utility.yul\":18742:18779   */\n  swap1\n  pop\n    /* \"#utility.yul\":18669:18786   */\n  swap3\n  swap2\n  pop\n  pop\n  jump\t// out\n    /* \"#utility.yul\":18792:18961   */\ntag_111:\n    /* \"#utility.yul\":18836:18842   */\n  0x00\n    /* \"#utility.yul\":18869:18920   */\n  tag_292\n    /* \"#utility.yul\":18917:18918   */\n  0x00\n    /* \"#utility.yul\":18913:18919   */\n  not\n    /* \"#utility.yul\":18905:18910   */\n  dup5\n    /* \"#utility.yul\":18902:18903   */\n  0x08\n    /* \"#utility.yul\":18898:18911   */\n  mul\n    /* \"#utility.yul\":18869:18920   */\n  tag_110\n  jump\t// in\ntag_292:\n    /* \"#utility.yul\":18865:18921   */\n  not\n    /* \"#utility.yul\":18950:18954   */\n  dup1\n    /* \"#utility.yul\":18944:18948   */\n  dup4\n    /* \"#utility.yul\":18940:18955   */\n  and\n    /* \"#utility.yul\":18930:18955   */\n  swap2\n  pop\n    /* \"#utility.yul\":18843:18961   */\n  pop\n    /* \"#utility.yul\":18792:18961   */\n  swap3\n  swap2\n  pop\n  pop\n  jump\t// out\n    /* \"#utility.yul\":18966:19261   */\ntag_112:\n    /* \"#utility.yul\":19042:19046   */\n  0x00\n    /* \"#utility.yul\":19188:19217   */\n  tag_294\n    /* \"#utility.yul\":19213:19216   */\n  dup4\n    /* \"#utility.yul\":19207:19211   */\n  dup4\n    /* \"#utility.yul\":19188:19217   */\n  tag_111\n  jump\t// in\ntag_294:\n    /* \"#utility.yul\":19180:19217   */\n  swap2\n  pop\n    /* \"#utility.yul\":19250:19253   */\n  dup3\n    /* \"#utility.yul\":19247:19248   */\n  0x02\n    /* \"#utility.yul\":19243:19254   */\n  mul\n    /* \"#utility.yul\":19237:19241   */\n  dup3\n    /* \"#utility.yul\":19234:19255   */\n  or\n    /* \"#utility.yul\":19226:19255   */\n  swap1\n  pop\n    /* \"#utility.yul\":18966:19261   */\n  swap3\n  swap2\n  pop\n  pop\n  jump\t// out\n    /* \"#utility.yul\":19266:20661   */\ntag_44:\n    /* \"#utility.yul\":19383:19420   */\n  tag_296\n    /* \"#utility.yul\":19416:19419   */\n  dup3\n    /* \"#utility.yul\":19383:19420   */\n  tag_95\n  jump\t// in\ntag_296:\n    /* \"#utility.yul\":19485:19503   */\n  0xffffffffffffffff\n    /* \"#utility.yul\":19477:19483   */\n  dup2\n    /* \"#utility.yul\":19474:19504   */\n  gt\n    /* \"#utility.yul\":19471:19527   */\n  iszero\n  tag_297\n  jumpi\n    /* \"#utility.yul\":19507:19525   */\n  tag_298\n  tag_62\n  jump\t// in\ntag_298:\n    /* \"#utility.yul\":19471:19527   */\ntag_297:\n    /* \"#utility.yul\":19551:19589   */\n  tag_299\n    /* \"#utility.yul\":19583:19587   */\n  dup3\n    /* \"#utility.yul\":19577:19588   */\n  sload\n    /* \"#utility.yul\":19551:19589   */\n  tag_97\n  jump\t// in\ntag_299:\n    /* \"#utility.yul\":19636:19703   */\n  tag_300\n    /* \"#utility.yul\":19696:19702   */\n  dup3\n    /* \"#utility.yul\":19688:19694   */\n  dup3\n    /* \"#utility.yul\":19682:19686   */\n  dup6\n    /* \"#utility.yul\":19636:19703   */\n  tag_109\n  jump\t// in\ntag_300:\n    /* \"#utility.yul\":19730:19731   */\n  0x00\n    /* \"#utility.yul\":19754:19758   */\n  0x20\n    /* \"#utility.yul\":19741:19758   */\n  swap1\n  pop\n    /* \"#utility.yul\":19786:19788   */\n  0x1f\n    /* \"#utility.yul\":19778:19784   */\n  dup4\n    /* \"#utility.yul\":19775:19789   */\n  gt\n    /* \"#utility.yul\":19803:19804   */\n  0x01\n    /* \"#utility.yul\":19798:20416   */\n  dup2\n  eq\n  tag_302\n  jumpi\n    /* \"#utility.yul\":20460:20461   */\n  0x00\n    /* \"#utility.yul\":20477:20483   */\n  dup5\n    /* \"#utility.yul\":20474:20551   */\n  iszero\n  tag_303\n  jumpi\n    /* \"#utility.yul\":20526:20535   */\n  dup3\n    /* \"#utility.yul\":20521:20524   */\n  dup8\n    /* \"#utility.yul\":20517:20536   */\n  add\n    /* \"#utility.yul\":20511:20537   */\n  mload\n    /* \"#utility.yul\":20502:20537   */\n  swap1\n  pop\n    /* \"#utility.yul\":20474:20551   */\ntag_303:\n    /* \"#utility.yul\":20577:20644   */\n  tag_304\n    /* \"#utility.yul\":20637:20643   */\n  dup6\n    /* \"#utility.yul\":20630:20635   */\n  dup3\n    /* \"#utility.yul\":20577:20644   */\n  tag_112\n  jump\t// in\ntag_304:\n    /* \"#utility.yul\":20571:20575   */\n  dup7\n    /* \"#utility.yul\":20564:20645   */\n  sstore\n    /* \"#utility.yul\":20433:20655   */\n  pop\n    /* \"#utility.yul\":19768:20655   */\n  jump(tag_301)\n    /* \"#utility.yul\":19798:20416   */\ntag_302:\n    /* \"#utility.yul\":19850:19854   */\n  0x1f\n    /* \"#utility.yul\":19846:19855   */\n  not\n    /* \"#utility.yul\":19838:19844   */\n  dup5\n    /* \"#utility.yul\":19834:19856   */\n  and\n    /* \"#utility.yul\":19884:19921   */\n  tag_305\n    /* \"#utility.yul\":19916:19920   */\n  dup7\n    /* \"#utility.yul\":19884:19921   */\n  tag_98\n  jump\t// in\ntag_305:\n    /* \"#utility.yul\":19943:19944   */\n  0x00\n    /* \"#utility.yul\":19957:20165   */\ntag_306:\n    /* \"#utility.yul\":19971:19978   */\n  dup3\n    /* \"#utility.yul\":19968:19969   */\n  dup2\n    /* \"#utility.yul\":19965:19979   */\n  lt\n    /* \"#utility.yul\":19957:20165   */\n  iszero\n  tag_308\n  jumpi\n    /* \"#utility.yul\":20050:20059   */\n  dup5\n    /* \"#utility.yul\":20045:20048   */\n  dup10\n    /* \"#utility.yul\":20041:20060   */\n  add\n    /* \"#utility.yul\":20035:20061   */\n  mload\n    /* \"#utility.yul\":20027:20033   */\n  dup3\n    /* \"#utility.yul\":20020:20062   */\n  sstore\n    /* \"#utility.yul\":20101:20102   */\n  0x01\n    /* \"#utility.yul\":20093:20099   */\n  dup3\n    /* \"#utility.yul\":20089:20103   */\n  add\n    /* \"#utility.yul\":20079:20103   */\n  swap2\n  pop\n    /* \"#utility.yul\":20148:20150   */\n  0x20\n    /* \"#utility.yul\":20137:20146   */\n  dup6\n    /* \"#utility.yul\":20133:20151   */\n  add\n    /* \"#utility.yul\":20120:20151   */\n  swap5\n  pop\n    /* \"#utility.yul\":19994:19998   */\n  0x20\n    /* \"#utility.yul\":19991:19992   */\n  dup2\n    /* \"#utility.yul\":19987:19999   */\n  add\n    /* \"#utility.yul\":19982:19999   */\n  swap1\n  pop\n    /* \"#utility.yul\":19957:20165   */\n  jump(tag_306)\ntag_308:\n    /* \"#utility.yul\":20193:20199   */\n  dup7\n    /* \"#utility.yul\":20184:20191   */\n  dup4\n    /* \"#utility.yul\":20181:20200   */\n  lt\n    /* \"#utility.yul\":20178:20357   */\n  iszero\n  tag_309\n  jumpi\n    /* \"#utility.yul\":20251:20260   */\n  dup5\n    /* \"#utility.yul\":20246:20249   */\n  dup10\n    /* \"#utility.yul\":20242:20261   */\n  add\n    /* \"#utility.yul\":20236:20262   */\n  mload\n    /* \"#utility.yul\":20294:20342   */\n  tag_310\n    /* \"#utility.yul\":20336:20340   */\n  0x1f\n    /* \"#utility.yul\":20328:20334   */\n  dup10\n    /* \"#utility.yul\":20324:20341   */\n  and\n    /* \"#utility.yul\":20313:20322   */\n  dup3\n    /* \"#utility.yul\":20294:20342   */\n  tag_111\n  jump\t// in\ntag_310:\n    /* \"#utility.yul\":20286:20292   */\n  dup4\n    /* \"#utility.yul\":20279:20343   */\n  sstore\n    /* \"#utility.yul\":20201:20357   */\n  pop\n    /* \"#utility.yul\":20178:20357   */\ntag_309:\n    /* \"#utility.yul\":20403:20404   */\n  0x01\n    /* \"#utility.yul\":20399:20400   */\n  0x02\n    /* \"#utility.yul\":20391:20397   */\n  dup9\n    /* \"#utility.yul\":20387:20401   */\n  mul\n    /* \"#utility.yul\":20383:20405   */\n  add\n    /* \"#utility.yul\":20377:20381   */\n  dup9\n    /* \"#utility.yul\":20370:20406   */\n  sstore\n    /* \"#utility.yul\":19805:20416   */\n  pop\n  pop\n  pop\n    /* \"#utility.yul\":19768:20655   */\ntag_301:\n  pop\n    /* \"#utility.yul\":19358:20661   */\n  pop\n  pop\n  pop\n    /* \"#utility.yul\":19266:20661   */\n  pop\n  pop\n  jump\t// out\n    /* \"#utility.yul\":20667:20847   */\ntag_113:\n    /* \"#utility.yul\":20715:20792   */\n  0x4e487b7100000000000000000000000000000000000000000000000000000000\n    /* \"#utility.yul\":20712:20713   */\n  0x00\n    /* \"#utility.yul\":20705:20793   */\n  mstore\n    /* \"#utility.yul\":20812:20816   */\n  0x11\n    /* \"#utility.yul\":20809:20810   */\n  0x04\n    /* \"#utility.yul\":20802:20817   */\n  mstore\n    /* \"#utility.yul\":20836:20840   */\n  0x24\n    /* \"#utility.yul\":20833:20834   */\n  0x00\n    /* \"#utility.yul\":20826:20841   */\n  revert\n    /* \"#utility.yul\":20853:21044   */\ntag_48:\n    /* \"#utility.yul\":20893:20896   */\n  0x00\n    /* \"#utility.yul\":20912:20932   */\n  tag_313\n    /* \"#utility.yul\":20930:20931   */\n  dup3\n    /* \"#utility.yul\":20912:20932   */\n  tag_67\n  jump\t// in\ntag_313:\n    /* \"#utility.yul\":20907:20932   */\n  swap2\n  pop\n    /* \"#utility.yul\":20946:20966   */\n  tag_314\n    /* \"#utility.yul\":20964:20965   */\n  dup4\n    /* \"#utility.yul\":20946:20966   */\n  tag_67\n  jump\t// in\ntag_314:\n    /* \"#utility.yul\":20941:20966   */\n  swap3\n  pop\n    /* \"#utility.yul\":20989:20990   */\n  dup3\n    /* \"#utility.yul\":20986:20987   */\n  dup3\n    /* \"#utility.yul\":20982:20991   */\n  add\n    /* \"#utility.yul\":20975:20991   */\n  swap1\n  pop\n    /* \"#utility.yul\":21010:21013   */\n  dup1\n    /* \"#utility.yul\":21007:21008   */\n  dup3\n    /* \"#utility.yul\":21004:21014   */\n  gt\n    /* \"#utility.yul\":21001:21037   */\n  iszero\n  tag_315\n  jumpi\n    /* \"#utility.yul\":21017:21035   */\n  tag_316\n  tag_113\n  jump\t// in\ntag_316:\n    /* \"#utility.yul\":21001:21037   */\ntag_315:\n    /* \"#utility.yul\":20853:21044   */\n  swap3\n  swap2\n  pop\n  pop\n  jump\t// out\n    /* \"#utility.yul\":21050:21230   */\ntag_51:\n    /* \"#utility.yul\":21098:21175   */\n  0x4e487b7100000000000000000000000000000000000000000000000000000000\n    /* \"#utility.yul\":21095:21096   */\n  0x00\n    /* \"#utility.yul\":21088:21176   */\n  mstore\n    /* \"#utility.yul\":21195:21199   */\n  0x21\n    /* \"#utility.yul\":21192:21193   */\n  0x04\n    /* \"#utility.yul\":21185:21200   */\n  mstore\n    /* \"#utility.yul\":21219:21223   */\n  0x24\n    /* \"#utility.yul\":21216:21217   */\n  0x00\n    /* \"#utility.yul\":21209:21224   */\n  revert\n    /* \"Contracts/EScrow_cont.sol\":461:13989  contract SimpleMilestoneEscrow is ReentrancyGuard {... */\ntag_52:\n  mload(0x80)\n  mload(0xa0)\n  mload(0xc0)\n  codecopy(0x00, dataOffset(sub_0), dataSize(sub_0))\n  0x00\n  assignImmutable(\"0x162f7b8508eeb042919e192a88cd9658d8d9620c570a09aeeef475bc42e39ecf\")\n  0x00\n  assignImmutable(\"0xb0c7bc42bdbc6fc210fecd6a5f5b923061cceb0f8ca5c7d964d5c22fc0e4b0b6\")\n  0x00\n  assignImmutable(\"0xee6ed107ec78844a4d229eb2881175204622382692a68d0a6bc9dab5b9b1a469\")\n  return(0x00, dataSize(sub_0))\nstop\n\nsub_0: assembly {\n        /* \"Contracts/EScrow_cont.sol\":461:13989  contract SimpleMilestoneEscrow is ReentrancyGuard {... */\n      mstore(0x40, 0x80)\n      callvalue\n      dup1\n      iszero\n      tag_1\n      jumpi\n      revert(0x00, 0x00)\n    tag_1:\n      pop\n      jumpi(tag_2, lt(calldatasize, 0x04))\n      shr(0xe0, calldataload(0x00))\n      dup1\n      0x629e4ed0\n      gt\n      tag_30\n      jumpi\n      dup1\n      0xb95d8dd4\n      gt\n      tag_31\n      jumpi\n      dup1\n      0xdca78388\n      gt\n      tag_32\n      jumpi\n      dup1\n      0xdca78388\n      eq\n      tag_26\n      jumpi\n      dup1\n      0xe89e4ed6\n      eq\n      tag_27\n      jumpi\n      dup1\n      0xebd09054\n      eq\n      tag_28\n      jumpi\n      dup1\n      0xf75fdcaa\n      eq\n      tag_29\n      jumpi\n      jump(tag_2)\n    tag_32:\n      dup1\n      0xb95d8dd4\n      eq\n      tag_23\n      jumpi\n      dup1\n      0xc19d93fb\n      eq\n      tag_24\n      jumpi\n      dup1\n      0xca4b208b\n      eq\n      tag_25\n      jumpi\n      jump(tag_2)\n    tag_31:\n      dup1\n      0x99a5d747\n      gt\n      tag_33\n      jumpi\n      dup1\n      0x99a5d747\n      eq\n      tag_19\n      jumpi\n      dup1\n      0xa525ad3c\n      eq\n      tag_20\n      jumpi\n      dup1\n      0xb4f5a711\n      eq\n      tag_21\n      jumpi\n      dup1\n      0xb60d4288\n      eq\n      tag_22\n      jumpi\n      jump(tag_2)\n    tag_33:\n      dup1\n      0x629e4ed0\n      eq\n      tag_16\n      jumpi\n      dup1\n      0x6f9fb98a\n      eq\n      tag_17\n      jumpi\n      dup1\n      0x725a3b4b\n      eq\n      tag_18\n      jumpi\n      jump(tag_2)\n    tag_30:\n      dup1\n      0x3013ce29\n      gt\n      tag_34\n      jumpi\n      dup1\n      0x45d30a17\n      gt\n      tag_35\n      jumpi\n      dup1\n      0x45d30a17\n      eq\n      tag_12\n      jumpi\n      dup1\n      0x4e69d560\n      eq\n      tag_13\n      jumpi\n      dup1\n      0x5ac482d1\n      eq\n      tag_14\n      jumpi\n      dup1\n      0x60c6d8ae\n      eq\n      tag_15\n      jumpi\n      jump(tag_2)\n    tag_35:\n      dup1\n      0x3013ce29\n      eq\n      tag_9\n      jumpi\n      dup1\n      0x317debf5\n      eq\n      tag_10\n      jumpi\n      dup1\n      0x3ddb47b4\n      eq\n      tag_11\n      jumpi\n      jump(tag_2)\n    tag_34:\n      dup1\n      0x02eab7\n      eq\n      tag_3\n      jumpi\n      dup1\n      0x041ae880\n      eq\n      tag_4\n      jumpi\n      dup1\n      0x0681ca55\n      eq\n      tag_5\n      jumpi\n      dup1\n      0x1a39d8ef\n      eq\n      tag_6\n      jumpi\n      dup1\n      0x1adff0ee\n      eq\n      tag_7\n      jumpi\n      dup1\n      0x2fba2c85\n      eq\n      tag_8\n      jumpi\n    tag_2:\n      revert(0x00, 0x00)\n        /* \"Contracts/EScrow_cont.sol\":12682:12826  function getFeeInfo() external pure returns (address recipient, uint256 basisPoints) {... */\n    tag_3:\n      tag_36\n      tag_37\n      jump\t// in\n    tag_36:\n      mload(0x40)\n      tag_38\n      swap3\n      swap2\n      swap1\n      tag_39\n      jump\t// in\n    tag_38:\n      mload(0x40)\n      dup1\n      swap2\n      sub\n      swap1\n      return\n        /* \"Contracts/EScrow_cont.sol\":1435:1466  address public immutable funder */\n    tag_4:\n      tag_40\n      tag_41\n      jump\t// in\n    tag_40:\n      mload(0x40)\n      tag_42\n      swap2\n      swap1\n      tag_43\n      jump\t// in\n    tag_42:\n      mload(0x40)\n      dup1\n      swap2\n      sub\n      swap1\n      return\n        /* \"Contracts/EScrow_cont.sol\":11366:11467  function milestoneCount() external view returns (uint256) {... */\n    tag_5:\n      tag_44\n      tag_45\n      jump\t// in\n    tag_44:\n      mload(0x40)\n      tag_46\n      swap2\n      swap1\n      tag_47\n      jump\t// in\n    tag_46:\n      mload(0x40)\n      dup1\n      swap2\n      sub\n      swap1\n      return\n        /* \"Contracts/EScrow_cont.sol\":1820:1846  uint256 public totalAmount */\n    tag_6:\n      tag_48\n      tag_49\n      jump\t// in\n    tag_48:\n      mload(0x40)\n      tag_50\n      swap2\n      swap1\n      tag_47\n      jump\t// in\n    tag_50:\n      mload(0x40)\n      dup1\n      swap2\n      sub\n      swap1\n      return\n        /* \"Contracts/EScrow_cont.sol\":10071:10449  function cancelProject() ... */\n    tag_7:\n      tag_51\n      tag_52\n      jump\t// in\n    tag_51:\n      stop\n        /* \"Contracts/EScrow_cont.sol\":10737:10848  function getRemainingBalance() external view returns (uint256) {... */\n    tag_8:\n      tag_53\n      tag_54\n      jump\t// in\n    tag_53:\n      mload(0x40)\n      tag_55\n      swap2\n      swap1\n      tag_47\n      jump\t// in\n    tag_55:\n      mload(0x40)\n      dup1\n      swap2\n      sub\n      swap1\n      return\n        /* \"Contracts/EScrow_cont.sol\":1514:1550  IERC20 public immutable paymentToken */\n    tag_9:\n      tag_56\n      tag_57\n      jump\t// in\n    tag_56:\n      mload(0x40)\n      tag_58\n      swap2\n      swap1\n      tag_59\n      jump\t// in\n    tag_58:\n      mload(0x40)\n      dup1\n      swap2\n      sub\n      swap1\n      return\n        /* \"Contracts/EScrow_cont.sol\":5908:7196  function releaseMilestone(uint256 index) ... */\n    tag_10:\n      tag_60\n      0x04\n      dup1\n      calldatasize\n      sub\n      dup2\n      add\n      swap1\n      tag_61\n      swap2\n      swap1\n      tag_62\n      jump\t// in\n    tag_61:\n      tag_63\n      jump\t// in\n    tag_60:\n      stop\n        /* \"Contracts/EScrow_cont.sol\":11114:11300  function isDisputeExpired() external view returns (bool) {... */\n    tag_11:\n      tag_64\n      tag_65\n      jump\t// in\n    tag_64:\n      mload(0x40)\n      tag_66\n      swap2\n      swap1\n      tag_67\n      jump\t// in\n    tag_66:\n      mload(0x40)\n      dup1\n      swap2\n      sub\n      swap1\n      return\n        /* \"Contracts/EScrow_cont.sol\":1853:1882  uint256 public releasedAmount */\n    tag_12:\n      tag_68\n      tag_69\n      jump\t// in\n    tag_68:\n      mload(0x40)\n      tag_70\n      swap2\n      swap1\n      tag_47\n      jump\t// in\n    tag_70:\n      mload(0x40)\n      dup1\n      swap2\n      sub\n      swap1\n      return\n        /* \"Contracts/EScrow_cont.sol\":11542:11983  function getStatus() external view returns (string memory) {... */\n    tag_13:\n      tag_71\n      tag_72\n      jump\t// in\n    tag_71:\n      mload(0x40)\n      tag_73\n      swap2\n      swap1\n      tag_74\n      jump\t// in\n    tag_73:\n      mload(0x40)\n      dup1\n      swap2\n      sub\n      swap1\n      return\n        /* \"Contracts/EScrow_cont.sol\":9498:9925  function resolveDisputeToFunder() ... */\n    tag_14:\n      tag_75\n      tag_76\n      jump\t// in\n    tag_75:\n      stop\n        /* \"Contracts/EScrow_cont.sol\":1889:1922  uint256 public totalFeesCollected */\n    tag_15:\n      tag_77\n      tag_78\n      jump\t// in\n    tag_77:\n      mload(0x40)\n      tag_79\n      swap2\n      swap1\n      tag_47\n      jump\t// in\n    tag_79:\n      mload(0x40)\n      dup1\n      swap2\n      sub\n      swap1\n      return\n        /* \"Contracts/EScrow_cont.sol\":10565:10669  function getMilestones() external view returns (Milestone[] memory) {... */\n    tag_16:\n      tag_80\n      tag_81\n      jump\t// in\n    tag_80:\n      mload(0x40)\n      tag_82\n      swap2\n      swap1\n      tag_83\n      jump\t// in\n    tag_82:\n      mload(0x40)\n      dup1\n      swap2\n      sub\n      swap1\n      return\n        /* \"Contracts/EScrow_cont.sol\":10915:11040  function getContractBalance() external view returns (uint256) {... */\n    tag_17:\n      tag_84\n      tag_85\n      jump\t// in\n    tag_84:\n      mload(0x40)\n      tag_86\n      swap2\n      swap1\n      tag_47\n      jump\t// in\n    tag_86:\n      mload(0x40)\n      dup1\n      swap2\n      sub\n      swap1\n      return\n        /* \"Contracts/EScrow_cont.sol\":8369:8640  function raiseDispute(string memory reason) ... */\n    tag_18:\n      tag_87\n      0x04\n      dup1\n      calldatasize\n      sub\n      dup2\n      add\n      swap1\n      tag_88\n      swap2\n      swap1\n      tag_89\n      jump\t// in\n    tag_88:\n      tag_90\n      jump\t// in\n    tag_87:\n      stop\n        /* \"Contracts/EScrow_cont.sol\":12168:12297  function calculateFee(uint256 amount) public pure returns (uint256) {... */\n    tag_19:\n      tag_91\n      0x04\n      dup1\n      calldatasize\n      sub\n      dup2\n      add\n      swap1\n      tag_92\n      swap2\n      swap1\n      tag_62\n      jump\t// in\n    tag_92:\n      tag_93\n      jump\t// in\n    tag_91:\n      mload(0x40)\n      tag_94\n      swap2\n      swap1\n      tag_47\n      jump\t// in\n    tag_94:\n      mload(0x40)\n      dup1\n      swap2\n      sub\n      swap1\n      return\n        /* \"Contracts/EScrow_cont.sol\":1702:1748  uint256 public constant FEE_BASIS_POINTS = 150 */\n    tag_20:\n      tag_95\n      tag_96\n      jump\t// in\n    tag_95:\n      mload(0x40)\n      tag_97\n      swap2\n      swap1\n      tag_47\n      jump\t// in\n    tag_97:\n      mload(0x40)\n      dup1\n      swap2\n      sub\n      swap1\n      return\n        /* \"Contracts/EScrow_cont.sol\":8792:9365  function resolveDisputeToDeveloper() ... */\n    tag_21:\n      tag_98\n      tag_99\n      jump\t// in\n    tag_98:\n      stop\n        /* \"Contracts/EScrow_cont.sol\":5370:5679  function fund() external onlyFunder inState(ProjectState.Created) nonReentrant {... */\n    tag_22:\n      tag_100\n      tag_101\n      jump\t// in\n    tag_100:\n      stop\n        /* \"Contracts/EScrow_cont.sol\":1971:2001  uint256 public disputeRaisedAt */\n    tag_23:\n      tag_102\n      tag_103\n      jump\t// in\n    tag_102:\n      mload(0x40)\n      tag_104\n      swap2\n      swap1\n      tag_47\n      jump\t// in\n    tag_104:\n      mload(0x40)\n      dup1\n      swap2\n      sub\n      swap1\n      return\n        /* \"Contracts/EScrow_cont.sol\":1788:1813  ProjectState public state */\n    tag_24:\n      tag_105\n      tag_106\n      jump\t// in\n    tag_105:\n      mload(0x40)\n      tag_107\n      swap2\n      swap1\n      tag_108\n      jump\t// in\n    tag_107:\n      mload(0x40)\n      dup1\n      swap2\n      sub\n      swap1\n      return\n        /* \"Contracts/EScrow_cont.sol\":1473:1507  address public immutable developer */\n    tag_25:\n      tag_109\n      tag_110\n      jump\t// in\n    tag_109:\n      mload(0x40)\n      tag_111\n      swap2\n      swap1\n      tag_43\n      jump\t// in\n    tag_111:\n      mload(0x40)\n      dup1\n      swap2\n      sub\n      swap1\n      return\n        /* \"Contracts/EScrow_cont.sol\":12491:12614  function getNetAmount(uint256 amount) public pure returns (uint256) {... */\n    tag_26:\n      tag_112\n      0x04\n      dup1\n      calldatasize\n      sub\n      dup2\n      add\n      swap1\n      tag_113\n      swap2\n      swap1\n      tag_62\n      jump\t// in\n    tag_113:\n      tag_114\n      jump\t// in\n    tag_112:\n      mload(0x40)\n      tag_115\n      swap2\n      swap1\n      tag_47\n      jump\t// in\n    tag_115:\n      mload(0x40)\n      dup1\n      swap2\n      sub\n      swap1\n      return\n        /* \"Contracts/EScrow_cont.sol\":1935:1964  Milestone[] public milestones */\n    tag_27:\n      tag_116\n      0x04\n      dup1\n      calldatasize\n      sub\n      dup2\n      add\n      swap1\n      tag_117\n      swap2\n      swap1\n      tag_62\n      jump\t// in\n    tag_117:\n      tag_118\n      jump\t// in\n    tag_116:\n      mload(0x40)\n      tag_119\n      swap6\n      swap5\n      swap4\n      swap3\n      swap2\n      swap1\n      tag_120\n      jump\t// in\n    tag_119:\n      mload(0x40)\n      dup1\n      swap2\n      sub\n      swap1\n      return\n        /* \"Contracts/EScrow_cont.sol\":1613:1695  address public constant FEE_RECIPIENT = 0xC869d7a99fa831b4B3bEe7e245F0C9348C2209a3 */\n    tag_28:\n      tag_121\n      tag_122\n      jump\t// in\n    tag_121:\n      mload(0x40)\n      tag_123\n      swap2\n      swap1\n      tag_43\n      jump\t// in\n    tag_123:\n      mload(0x40)\n      dup1\n      swap2\n      sub\n      swap1\n      return\n        /* \"Contracts/EScrow_cont.sol\":7406:8262  function cancelMilestone(uint256 index) ... */\n    tag_29:\n      tag_124\n      0x04\n      dup1\n      calldatasize\n      sub\n      dup2\n      add\n      swap1\n      tag_125\n      swap2\n      swap1\n      tag_62\n      jump\t// in\n    tag_125:\n      tag_126\n      jump\t// in\n    tag_124:\n      stop\n        /* \"Contracts/EScrow_cont.sol\":12682:12826  function getFeeInfo() external pure returns (address recipient, uint256 basisPoints) {... */\n    tag_37:\n        /* \"Contracts/EScrow_cont.sol\":12727:12744  address recipient */\n      0x00\n        /* \"Contracts/EScrow_cont.sol\":12746:12765  uint256 basisPoints */\n      0x00\n        /* \"Contracts/EScrow_cont.sol\":1653:1695  0xC869d7a99fa831b4B3bEe7e245F0C9348C2209a3 */\n      0xc869d7a99fa831b4b3bee7e245f0c9348c2209a3\n        /* \"Contracts/EScrow_cont.sol\":1745:1748  150 */\n      0x96\n        /* \"Contracts/EScrow_cont.sol\":12778:12818  return (FEE_RECIPIENT, FEE_BASIS_POINTS) */\n      swap2\n      pop\n      swap2\n      pop\n        /* \"Contracts/EScrow_cont.sol\":12682:12826  function getFeeInfo() external pure returns (address recipient, uint256 basisPoints) {... */\n      swap1\n      swap2\n      jump\t// out\n        /* \"Contracts/EScrow_cont.sol\":1435:1466  address public immutable funder */\n    tag_41:\n      immutable(\"0xee6ed107ec78844a4d229eb2881175204622382692a68d0a6bc9dab5b9b1a469\")\n      dup2\n      jump\t// out\n        /* \"Contracts/EScrow_cont.sol\":11366:11467  function milestoneCount() external view returns (uint256) {... */\n    tag_45:\n        /* \"Contracts/EScrow_cont.sol\":11415:11422  uint256 */\n      0x00\n        /* \"Contracts/EScrow_cont.sol\":11442:11452  milestones */\n      0x05\n        /* \"Contracts/EScrow_cont.sol\":11442:11459  milestones.length */\n      dup1\n      sload\n      swap1\n      pop\n        /* \"Contracts/EScrow_cont.sol\":11435:11459  return milestones.length */\n      swap1\n      pop\n        /* \"Contracts/EScrow_cont.sol\":11366:11467  function milestoneCount() external view returns (uint256) {... */\n      swap1\n      jump\t// out\n        /* \"Contracts/EScrow_cont.sol\":1820:1846  uint256 public totalAmount */\n    tag_49:\n      sload(0x02)\n      dup2\n      jump\t// out\n        /* \"Contracts/EScrow_cont.sol\":10071:10449  function cancelProject() ... */\n    tag_52:\n        /* \"Contracts/EScrow_cont.sol\":2578:2584  funder */\n      immutable(\"0xee6ed107ec78844a4d229eb2881175204622382692a68d0a6bc9dab5b9b1a469\")\n        /* \"Contracts/EScrow_cont.sol\":2564:2584  msg.sender != funder */\n      0xffffffffffffffffffffffffffffffffffffffff\n      and\n        /* \"Contracts/EScrow_cont.sol\":2564:2574  msg.sender */\n      caller\n        /* \"Contracts/EScrow_cont.sol\":2564:2584  msg.sender != funder */\n      0xffffffffffffffffffffffffffffffffffffffff\n      and\n      eq\n        /* \"Contracts/EScrow_cont.sol\":2560:2604  if (msg.sender != funder) revert NotFunder() */\n      tag_130\n      jumpi\n        /* \"Contracts/EScrow_cont.sol\":2593:2604  NotFunder() */\n      mload(0x40)\n      0xa598aebe00000000000000000000000000000000000000000000000000000000\n      dup2\n      mstore\n      0x04\n      add\n      mload(0x40)\n      dup1\n      swap2\n      sub\n      swap1\n      revert\n        /* \"Contracts/EScrow_cont.sol\":2560:2604  if (msg.sender != funder) revert NotFunder() */\n    tag_130:\n        /* \"Contracts/EScrow_cont.sol\":10154:10173  ProjectState.Funded */\n      0x01\n        /* \"Contracts/EScrow_cont.sol\":2956:2962  _state */\n      dup1\n        /* \"Contracts/EScrow_cont.sol\":2947:2962  state != _state */\n      0x04\n      dup2\n      gt\n      iszero\n      tag_132\n      jumpi\n      tag_133\n      tag_134\n      jump\t// in\n    tag_133:\n    tag_132:\n        /* \"Contracts/EScrow_cont.sol\":2947:2952  state */\n      0x01\n      0x00\n      swap1\n      sload\n      swap1\n      0x0100\n      exp\n      swap1\n      div\n      0xff\n      and\n        /* \"Contracts/EScrow_cont.sol\":2947:2962  state != _state */\n      0x04\n      dup2\n      gt\n      iszero\n      tag_135\n      jumpi\n      tag_136\n      tag_134\n      jump\t// in\n    tag_136:\n    tag_135:\n      eq\n        /* \"Contracts/EScrow_cont.sol\":2943:2985  if (state != _state) revert InvalidState() */\n      tag_137\n      jumpi\n        /* \"Contracts/EScrow_cont.sol\":2971:2985  InvalidState() */\n      mload(0x40)\n      0xbaf3f0f700000000000000000000000000000000000000000000000000000000\n      dup2\n      mstore\n      0x04\n      add\n      mload(0x40)\n      dup1\n      swap2\n      sub\n      swap1\n      revert\n        /* \"Contracts/EScrow_cont.sol\":2943:2985  if (state != _state) revert InvalidState() */\n    tag_137:\n        /* \"@openzeppelin/contracts/security/ReentrancyGuard.sol\":2261:2282  _nonReentrantBefore() */\n      tag_139\n        /* \"@openzeppelin/contracts/security/ReentrancyGuard.sol\":2261:2280  _nonReentrantBefore */\n      tag_140\n        /* \"@openzeppelin/contracts/security/ReentrancyGuard.sol\":2261:2282  _nonReentrantBefore() */\n      jump\t// in\n    tag_139:\n        /* \"Contracts/EScrow_cont.sol\":10214:10231  uint256 remaining */\n      0x00\n        /* \"Contracts/EScrow_cont.sol\":10234:10256  _getRemainingBalance() */\n      tag_142\n        /* \"Contracts/EScrow_cont.sol\":10234:10254  _getRemainingBalance */\n      tag_143\n        /* \"Contracts/EScrow_cont.sol\":10234:10256  _getRemainingBalance() */\n      jump\t// in\n    tag_142:\n        /* \"Contracts/EScrow_cont.sol\":10214:10256  uint256 remaining = _getRemainingBalance() */\n      swap1\n      pop\n        /* \"Contracts/EScrow_cont.sol\":10283:10284  0 */\n      0x00\n        /* \"Contracts/EScrow_cont.sol\":10271:10280  remaining */\n      dup2\n        /* \"Contracts/EScrow_cont.sol\":10271:10284  remaining > 0 */\n      gt\n        /* \"Contracts/EScrow_cont.sol\":10267:10357  if (remaining > 0) {... */\n      iszero\n      tag_144\n      jumpi\n        /* \"Contracts/EScrow_cont.sol\":10301:10345  paymentToken.safeTransfer(funder, remaining) */\n      tag_145\n        /* \"Contracts/EScrow_cont.sol\":10327:10333  funder */\n      immutable(\"0xee6ed107ec78844a4d229eb2881175204622382692a68d0a6bc9dab5b9b1a469\")\n        /* \"Contracts/EScrow_cont.sol\":10335:10344  remaining */\n      dup3\n        /* \"Contracts/EScrow_cont.sol\":10301:10313  paymentToken */\n      immutable(\"0x162f7b8508eeb042919e192a88cd9658d8d9620c570a09aeeef475bc42e39ecf\")\n        /* \"Contracts/EScrow_cont.sol\":10301:10326  paymentToken.safeTransfer */\n      0xffffffffffffffffffffffffffffffffffffffff\n      and\n      tag_146\n      swap1\n        /* \"Contracts/EScrow_cont.sol\":10301:10345  paymentToken.safeTransfer(funder, remaining) */\n      swap3\n      swap2\n      swap1\n      0xffffffff\n      and\n      jump\t// in\n    tag_145:\n        /* \"Contracts/EScrow_cont.sol\":10267:10357  if (remaining > 0) {... */\n    tag_144:\n        /* \"Contracts/EScrow_cont.sol\":10385:10407  ProjectState.Cancelled */\n      0x03\n        /* \"Contracts/EScrow_cont.sol\":10377:10382  state */\n      0x01\n      0x00\n        /* \"Contracts/EScrow_cont.sol\":10377:10407  state = ProjectState.Cancelled */\n      0x0100\n      exp\n      dup2\n      sload\n      dup2\n      0xff\n      mul\n      not\n      and\n      swap1\n      dup4\n      0x04\n      dup2\n      gt\n      iszero\n      tag_147\n      jumpi\n      tag_148\n      tag_134\n      jump\t// in\n    tag_148:\n    tag_147:\n      mul\n      or\n      swap1\n      sstore\n      pop\n        /* \"Contracts/EScrow_cont.sol\":10423:10441  ProjectCancelled() */\n      0x92c439fda90c70ccdedcb94d28a14f9fda69d67124efbbe9bf905740194228c8\n      mload(0x40)\n      mload(0x40)\n      dup1\n      swap2\n      sub\n      swap1\n      log1\n        /* \"Contracts/EScrow_cont.sol\":10203:10449  {... */\n      pop\n        /* \"@openzeppelin/contracts/security/ReentrancyGuard.sol\":2303:2323  _nonReentrantAfter() */\n      tag_149\n        /* \"@openzeppelin/contracts/security/ReentrancyGuard.sol\":2303:2321  _nonReentrantAfter */\n      tag_150\n        /* \"@openzeppelin/contracts/security/ReentrancyGuard.sol\":2303:2323  _nonReentrantAfter() */\n      jump\t// in\n    tag_149:\n        /* \"Contracts/EScrow_cont.sol\":2615:2616  _ */\n      pop\n        /* \"Contracts/EScrow_cont.sol\":10071:10449  function cancelProject() ... */\n      jump\t// out\n        /* \"Contracts/EScrow_cont.sol\":10737:10848  function getRemainingBalance() external view returns (uint256) {... */\n    tag_54:\n        /* \"Contracts/EScrow_cont.sol\":10791:10798  uint256 */\n      0x00\n        /* \"Contracts/EScrow_cont.sol\":10818:10840  _getRemainingBalance() */\n      tag_152\n        /* \"Contracts/EScrow_cont.sol\":10818:10838  _getRemainingBalance */\n      tag_143\n        /* \"Contracts/EScrow_cont.sol\":10818:10840  _getRemainingBalance() */\n      jump\t// in\n    tag_152:\n        /* \"Contracts/EScrow_cont.sol\":10811:10840  return _getRemainingBalance() */\n      swap1\n      pop\n        /* \"Contracts/EScrow_cont.sol\":10737:10848  function getRemainingBalance() external view returns (uint256) {... */\n      swap1\n      jump\t// out\n        /* \"Contracts/EScrow_cont.sol\":1514:1550  IERC20 public immutable paymentToken */\n    tag_57:\n      immutable(\"0x162f7b8508eeb042919e192a88cd9658d8d9620c570a09aeeef475bc42e39ecf\")\n      dup2\n      jump\t// out\n        /* \"Contracts/EScrow_cont.sol\":5908:7196  function releaseMilestone(uint256 index) ... */\n    tag_63:\n        /* \"Contracts/EScrow_cont.sol\":2578:2584  funder */\n      immutable(\"0xee6ed107ec78844a4d229eb2881175204622382692a68d0a6bc9dab5b9b1a469\")\n        /* \"Contracts/EScrow_cont.sol\":2564:2584  msg.sender != funder */\n      0xffffffffffffffffffffffffffffffffffffffff\n      and\n        /* \"Contracts/EScrow_cont.sol\":2564:2574  msg.sender */\n      caller\n        /* \"Contracts/EScrow_cont.sol\":2564:2584  msg.sender != funder */\n      0xffffffffffffffffffffffffffffffffffffffff\n      and\n      eq\n        /* \"Contracts/EScrow_cont.sol\":2560:2604  if (msg.sender != funder) revert NotFunder() */\n      tag_154\n      jumpi\n        /* \"Contracts/EScrow_cont.sol\":2593:2604  NotFunder() */\n      mload(0x40)\n      0xa598aebe00000000000000000000000000000000000000000000000000000000\n      dup2\n      mstore\n      0x04\n      add\n      mload(0x40)\n      dup1\n      swap2\n      sub\n      swap1\n      revert\n        /* \"Contracts/EScrow_cont.sol\":2560:2604  if (msg.sender != funder) revert NotFunder() */\n    tag_154:\n        /* \"Contracts/EScrow_cont.sol\":6007:6026  ProjectState.Funded */\n      0x01\n        /* \"Contracts/EScrow_cont.sol\":2956:2962  _state */\n      dup1\n        /* \"Contracts/EScrow_cont.sol\":2947:2962  state != _state */\n      0x04\n      dup2\n      gt\n      iszero\n      tag_156\n      jumpi\n      tag_157\n      tag_134\n      jump\t// in\n    tag_157:\n    tag_156:\n        /* \"Contracts/EScrow_cont.sol\":2947:2952  state */\n      0x01\n      0x00\n      swap1\n      sload\n      swap1\n      0x0100\n      exp\n      swap1\n      div\n      0xff\n      and\n        /* \"Contracts/EScrow_cont.sol\":2947:2962  state != _state */\n      0x04\n      dup2\n      gt\n      iszero\n      tag_158\n      jumpi\n      tag_159\n      tag_134\n      jump\t// in\n    tag_159:\n    tag_158:\n      eq\n        /* \"Contracts/EScrow_cont.sol\":2943:2985  if (state != _state) revert InvalidState() */\n      tag_160\n      jumpi\n        /* \"Contracts/EScrow_cont.sol\":2971:2985  InvalidState() */\n      mload(0x40)\n      0xbaf3f0f700000000000000000000000000000000000000000000000000000000\n      dup2\n      mstore\n      0x04\n      add\n      mload(0x40)\n      dup1\n      swap2\n      sub\n      swap1\n      revert\n        /* \"Contracts/EScrow_cont.sol\":2943:2985  if (state != _state) revert InvalidState() */\n    tag_160:\n        /* \"Contracts/EScrow_cont.sol\":6053:6058  index */\n      dup2\n        /* \"Contracts/EScrow_cont.sol\":3081:3091  milestones */\n      0x05\n        /* \"Contracts/EScrow_cont.sol\":3081:3098  milestones.length */\n      dup1\n      sload\n      swap1\n      pop\n        /* \"Contracts/EScrow_cont.sol\":3072:3077  index */\n      dup2\n        /* \"Contracts/EScrow_cont.sol\":3072:3098  index >= milestones.length */\n      lt\n        /* \"Contracts/EScrow_cont.sol\":3068:3125  if (index >= milestones.length) revert InvalidMilestone() */\n      tag_162\n      jumpi\n        /* \"Contracts/EScrow_cont.sol\":3107:3125  InvalidMilestone() */\n      mload(0x40)\n      0xba11734000000000000000000000000000000000000000000000000000000000\n      dup2\n      mstore\n      0x04\n      add\n      mload(0x40)\n      dup1\n      swap2\n      sub\n      swap1\n      revert\n        /* \"Contracts/EScrow_cont.sol\":3068:3125  if (index >= milestones.length) revert InvalidMilestone() */\n    tag_162:\n        /* \"@openzeppelin/contracts/security/ReentrancyGuard.sol\":2261:2282  _nonReentrantBefore() */\n      tag_164\n        /* \"@openzeppelin/contracts/security/ReentrancyGuard.sol\":2261:2280  _nonReentrantBefore */\n      tag_140\n        /* \"@openzeppelin/contracts/security/ReentrancyGuard.sol\":2261:2282  _nonReentrantBefore() */\n      jump\t// in\n    tag_164:\n        /* \"Contracts/EScrow_cont.sol\":6099:6126  Milestone storage milestone */\n      0x00\n        /* \"Contracts/EScrow_cont.sol\":6129:6139  milestones */\n      0x05\n        /* \"Contracts/EScrow_cont.sol\":6140:6145  index */\n      dup5\n        /* \"Contracts/EScrow_cont.sol\":6129:6146  milestones[index] */\n      dup2\n      sload\n      dup2\n      lt\n      tag_166\n      jumpi\n      tag_167\n      tag_168\n      jump\t// in\n    tag_167:\n    tag_166:\n      swap1\n      0x00\n      mstore\n      keccak256(0x00, 0x20)\n      swap1\n      0x04\n      mul\n      add\n        /* \"Contracts/EScrow_cont.sol\":6099:6146  Milestone storage milestone = milestones[index] */\n      swap1\n      pop\n        /* \"Contracts/EScrow_cont.sol\":6176:6185  milestone */\n      dup1\n        /* \"Contracts/EScrow_cont.sol\":6176:6194  milestone.released */\n      0x01\n      add\n      0x00\n      swap1\n      sload\n      swap1\n      0x0100\n      exp\n      swap1\n      div\n      0xff\n      and\n        /* \"Contracts/EScrow_cont.sol\":6175:6194  !milestone.released */\n      iszero\n        /* \"Contracts/EScrow_cont.sol\":6167:6215  require(!milestone.released, \"Already released\") */\n      tag_170\n      jumpi\n      mload(0x40)\n      0x08c379a000000000000000000000000000000000000000000000000000000000\n      dup2\n      mstore\n      0x04\n      add\n      tag_171\n      swap1\n      tag_172\n      jump\t// in\n    tag_171:\n      mload(0x40)\n      dup1\n      swap2\n      sub\n      swap1\n      revert\n    tag_170:\n        /* \"Contracts/EScrow_cont.sol\":6235:6244  milestone */\n      dup1\n        /* \"Contracts/EScrow_cont.sol\":6235:6254  milestone.cancelled */\n      0x01\n      add\n      0x01\n      swap1\n      sload\n      swap1\n      0x0100\n      exp\n      swap1\n      div\n      0xff\n      and\n        /* \"Contracts/EScrow_cont.sol\":6234:6254  !milestone.cancelled */\n      iszero\n        /* \"Contracts/EScrow_cont.sol\":6226:6278  require(!milestone.cancelled, \"Milestone cancelled\") */\n      tag_173\n      jumpi\n      mload(0x40)\n      0x08c379a000000000000000000000000000000000000000000000000000000000\n      dup2\n      mstore\n      0x04\n      add\n      tag_174\n      swap1\n      tag_175\n      jump\t// in\n    tag_174:\n      mload(0x40)\n      dup1\n      swap2\n      sub\n      swap1\n      revert\n    tag_173:\n        /* \"Contracts/EScrow_cont.sol\":6407:6411  true */\n      0x01\n        /* \"Contracts/EScrow_cont.sol\":6386:6395  milestone */\n      dup2\n        /* \"Contracts/EScrow_cont.sol\":6386:6404  milestone.released */\n      0x01\n      add\n      0x00\n        /* \"Contracts/EScrow_cont.sol\":6386:6411  milestone.released = true */\n      0x0100\n      exp\n      dup2\n      sload\n      dup2\n      0xff\n      mul\n      not\n      and\n      swap1\n      dup4\n      iszero\n      iszero\n      mul\n      or\n      swap1\n      sstore\n      pop\n        /* \"Contracts/EScrow_cont.sol\":6440:6449  milestone */\n      dup1\n        /* \"Contracts/EScrow_cont.sol\":6440:6456  milestone.amount */\n      0x00\n      add\n      sload\n        /* \"Contracts/EScrow_cont.sol\":6422:6436  releasedAmount */\n      0x03\n      0x00\n        /* \"Contracts/EScrow_cont.sol\":6422:6456  releasedAmount += milestone.amount */\n      dup3\n      dup3\n      sload\n      tag_176\n      swap2\n      swap1\n      tag_177\n      jump\t// in\n    tag_176:\n      swap3\n      pop\n      pop\n      dup2\n      swap1\n      sstore\n      pop\n        /* \"Contracts/EScrow_cont.sol\":6508:6525  uint256 feeAmount */\n      0x00\n        /* \"Contracts/EScrow_cont.sol\":6568:6573  10000 */\n      0x2710\n        /* \"Contracts/EScrow_cont.sol\":1745:1748  150 */\n      0x96\n        /* \"Contracts/EScrow_cont.sol\":6529:6538  milestone */\n      dup4\n        /* \"Contracts/EScrow_cont.sol\":6529:6545  milestone.amount */\n      0x00\n      add\n      sload\n        /* \"Contracts/EScrow_cont.sol\":6529:6564  milestone.amount * FEE_BASIS_POINTS */\n      tag_178\n      swap2\n      swap1\n      tag_179\n      jump\t// in\n    tag_178:\n        /* \"Contracts/EScrow_cont.sol\":6528:6573  (milestone.amount * FEE_BASIS_POINTS) / 10000 */\n      tag_180\n      swap2\n      swap1\n      tag_181\n      jump\t// in\n    tag_180:\n        /* \"Contracts/EScrow_cont.sol\":6508:6573  uint256 feeAmount = (milestone.amount * FEE_BASIS_POINTS) / 10000 */\n      swap1\n      pop\n        /* \"Contracts/EScrow_cont.sol\":6584:6607  uint256 developerAmount */\n      0x00\n        /* \"Contracts/EScrow_cont.sol\":6629:6638  feeAmount */\n      dup2\n        /* \"Contracts/EScrow_cont.sol\":6610:6619  milestone */\n      dup4\n        /* \"Contracts/EScrow_cont.sol\":6610:6626  milestone.amount */\n      0x00\n      add\n      sload\n        /* \"Contracts/EScrow_cont.sol\":6610:6638  milestone.amount - feeAmount */\n      tag_182\n      swap2\n      swap1\n      tag_183\n      jump\t// in\n    tag_182:\n        /* \"Contracts/EScrow_cont.sol\":6584:6638  uint256 developerAmount = milestone.amount - feeAmount */\n      swap1\n      pop\n        /* \"Contracts/EScrow_cont.sol\":6717:6718  0 */\n      0x00\n        /* \"Contracts/EScrow_cont.sol\":6705:6714  feeAmount */\n      dup3\n        /* \"Contracts/EScrow_cont.sol\":6705:6718  feeAmount > 0 */\n      gt\n        /* \"Contracts/EScrow_cont.sol\":6701:6897  if (feeAmount > 0) {... */\n      iszero\n      tag_184\n      jumpi\n        /* \"Contracts/EScrow_cont.sol\":6735:6786  paymentToken.safeTransfer(FEE_RECIPIENT, feeAmount) */\n      tag_185\n        /* \"Contracts/EScrow_cont.sol\":1653:1695  0xC869d7a99fa831b4B3bEe7e245F0C9348C2209a3 */\n      0xc869d7a99fa831b4b3bee7e245f0c9348c2209a3\n        /* \"Contracts/EScrow_cont.sol\":6776:6785  feeAmount */\n      dup4\n        /* \"Contracts/EScrow_cont.sol\":6735:6747  paymentToken */\n      immutable(\"0x162f7b8508eeb042919e192a88cd9658d8d9620c570a09aeeef475bc42e39ecf\")\n        /* \"Contracts/EScrow_cont.sol\":6735:6760  paymentToken.safeTransfer */\n      0xffffffffffffffffffffffffffffffffffffffff\n      and\n      tag_146\n      swap1\n        /* \"Contracts/EScrow_cont.sol\":6735:6786  paymentToken.safeTransfer(FEE_RECIPIENT, feeAmount) */\n      swap3\n      swap2\n      swap1\n      0xffffffff\n      and\n      jump\t// in\n    tag_185:\n        /* \"Contracts/EScrow_cont.sol\":6823:6832  feeAmount */\n      dup2\n        /* \"Contracts/EScrow_cont.sol\":6801:6819  totalFeesCollected */\n      0x04\n      0x00\n        /* \"Contracts/EScrow_cont.sol\":6801:6832  totalFeesCollected += feeAmount */\n      dup3\n      dup3\n      sload\n      tag_186\n      swap2\n      swap1\n      tag_177\n      jump\t// in\n    tag_186:\n      swap3\n      pop\n      pop\n      dup2\n      swap1\n      sstore\n      pop\n        /* \"Contracts/EScrow_cont.sol\":1653:1695  0xC869d7a99fa831b4B3bEe7e245F0C9348C2209a3 */\n      0xc869d7a99fa831b4b3bee7e245f0c9348c2209a3\n        /* \"Contracts/EScrow_cont.sol\":6852:6885  FeePaid(feeAmount, FEE_RECIPIENT) */\n      0xffffffffffffffffffffffffffffffffffffffff\n      and\n      0x421cbbbb1785f7266e99384e78e4f325fe3d7ae36b352351621e7f3b7cc43aa0\n        /* \"Contracts/EScrow_cont.sol\":6860:6869  feeAmount */\n      dup4\n        /* \"Contracts/EScrow_cont.sol\":6852:6885  FeePaid(feeAmount, FEE_RECIPIENT) */\n      mload(0x40)\n      tag_187\n      swap2\n      swap1\n      tag_47\n      jump\t// in\n    tag_187:\n      mload(0x40)\n      dup1\n      swap2\n      sub\n      swap1\n      log2\n        /* \"Contracts/EScrow_cont.sol\":6701:6897  if (feeAmount > 0) {... */\n    tag_184:\n        /* \"Contracts/EScrow_cont.sol\":6968:7021  paymentToken.safeTransfer(developer, developerAmount) */\n      tag_188\n        /* \"Contracts/EScrow_cont.sol\":6994:7003  developer */\n      immutable(\"0xb0c7bc42bdbc6fc210fecd6a5f5b923061cceb0f8ca5c7d964d5c22fc0e4b0b6\")\n        /* \"Contracts/EScrow_cont.sol\":7005:7020  developerAmount */\n      dup3\n        /* \"Contracts/EScrow_cont.sol\":6968:6980  paymentToken */\n      immutable(\"0x162f7b8508eeb042919e192a88cd9658d8d9620c570a09aeeef475bc42e39ecf\")\n        /* \"Contracts/EScrow_cont.sol\":6968:6993  paymentToken.safeTransfer */\n      0xffffffffffffffffffffffffffffffffffffffff\n      and\n      tag_146\n      swap1\n        /* \"Contracts/EScrow_cont.sol\":6968:7021  paymentToken.safeTransfer(developer, developerAmount) */\n      swap3\n      swap2\n      swap1\n      0xffffffff\n      and\n      jump\t// in\n    tag_188:\n        /* \"Contracts/EScrow_cont.sol\":7065:7070  index */\n      dup6\n        /* \"Contracts/EScrow_cont.sol\":7047:7099  MilestoneReleased(index, developerAmount, feeAmount) */\n      0xd33fcd27cbfb73a2d9058c968b560ccb306500bf536133802048489ecc7355e9\n        /* \"Contracts/EScrow_cont.sol\":7072:7087  developerAmount */\n      dup3\n        /* \"Contracts/EScrow_cont.sol\":7089:7098  feeAmount */\n      dup5\n        /* \"Contracts/EScrow_cont.sol\":7047:7099  MilestoneReleased(index, developerAmount, feeAmount) */\n      mload(0x40)\n      tag_189\n      swap3\n      swap2\n      swap1\n      tag_190\n      jump\t// in\n    tag_189:\n      mload(0x40)\n      dup1\n      swap2\n      sub\n      swap1\n      log2\n        /* \"Contracts/EScrow_cont.sol\":7170:7188  _checkCompletion() */\n      tag_191\n        /* \"Contracts/EScrow_cont.sol\":7170:7186  _checkCompletion */\n      tag_192\n        /* \"Contracts/EScrow_cont.sol\":7170:7188  _checkCompletion() */\n      jump\t// in\n    tag_191:\n        /* \"Contracts/EScrow_cont.sol\":6088:7196  {... */\n      pop\n      pop\n      pop\n        /* \"@openzeppelin/contracts/security/ReentrancyGuard.sol\":2303:2323  _nonReentrantAfter() */\n      tag_193\n        /* \"@openzeppelin/contracts/security/ReentrancyGuard.sol\":2303:2321  _nonReentrantAfter */\n      tag_150\n        /* \"@openzeppelin/contracts/security/ReentrancyGuard.sol\":2303:2323  _nonReentrantAfter() */\n      jump\t// in\n    tag_193:\n        /* \"Contracts/EScrow_cont.sol\":2996:2997  _ */\n      pop\n        /* \"Contracts/EScrow_cont.sol\":2615:2616  _ */\n      pop\n        /* \"Contracts/EScrow_cont.sol\":5908:7196  function releaseMilestone(uint256 index) ... */\n      pop\n      jump\t// out\n        /* \"Contracts/EScrow_cont.sol\":11114:11300  function isDisputeExpired() external view returns (bool) {... */\n    tag_65:\n        /* \"Contracts/EScrow_cont.sol\":11165:11169  bool */\n      0x00\n        /* \"Contracts/EScrow_cont.sol\":11195:11216  ProjectState.Disputed */\n      0x04\n        /* \"Contracts/EScrow_cont.sol\":11186:11216  state != ProjectState.Disputed */\n      dup1\n      dup2\n      gt\n      iszero\n      tag_195\n      jumpi\n      tag_196\n      tag_134\n      jump\t// in\n    tag_196:\n    tag_195:\n        /* \"Contracts/EScrow_cont.sol\":11186:11191  state */\n      0x01\n      0x00\n      swap1\n      sload\n      swap1\n      0x0100\n      exp\n      swap1\n      div\n      0xff\n      and\n        /* \"Contracts/EScrow_cont.sol\":11186:11216  state != ProjectState.Disputed */\n      0x04\n      dup2\n      gt\n      iszero\n      tag_197\n      jumpi\n      tag_198\n      tag_134\n      jump\t// in\n    tag_198:\n    tag_197:\n      eq\n        /* \"Contracts/EScrow_cont.sol\":11182:11230  if (state != ProjectState.Disputed) return false */\n      tag_199\n      jumpi\n        /* \"Contracts/EScrow_cont.sol\":11225:11230  false */\n      0x00\n        /* \"Contracts/EScrow_cont.sol\":11218:11230  return false */\n      swap1\n      pop\n      jump(tag_194)\n        /* \"Contracts/EScrow_cont.sol\":11182:11230  if (state != ProjectState.Disputed) return false */\n    tag_199:\n        /* \"Contracts/EScrow_cont.sol\":11285:11292  30 days */\n      0x278d00\n        /* \"Contracts/EScrow_cont.sol\":11267:11282  disputeRaisedAt */\n      sload(0x06)\n        /* \"Contracts/EScrow_cont.sol\":11267:11292  disputeRaisedAt + 30 days */\n      tag_200\n      swap2\n      swap1\n      tag_177\n      jump\t// in\n    tag_200:\n        /* \"Contracts/EScrow_cont.sol\":11248:11263  block.timestamp */\n      timestamp\n        /* \"Contracts/EScrow_cont.sol\":11248:11292  block.timestamp >= disputeRaisedAt + 30 days */\n      lt\n      iszero\n        /* \"Contracts/EScrow_cont.sol\":11241:11292  return block.timestamp >= disputeRaisedAt + 30 days */\n      swap1\n      pop\n        /* \"Contracts/EScrow_cont.sol\":11114:11300  function isDisputeExpired() external view returns (bool) {... */\n    tag_194:\n      swap1\n      jump\t// out\n        /* \"Contracts/EScrow_cont.sol\":1853:1882  uint256 public releasedAmount */\n    tag_69:\n      sload(0x03)\n      dup2\n      jump\t// out\n        /* \"Contracts/EScrow_cont.sol\":11542:11983  function getStatus() external view returns (string memory) {... */\n    tag_72:\n        /* \"Contracts/EScrow_cont.sol\":11586:11599  string memory */\n      0x60\n        /* \"Contracts/EScrow_cont.sol\":11625:11645  ProjectState.Created */\n      0x00\n        /* \"Contracts/EScrow_cont.sol\":11616:11645  state == ProjectState.Created */\n      0x04\n      dup2\n      gt\n      iszero\n      tag_202\n      jumpi\n      tag_203\n      tag_134\n      jump\t// in\n    tag_203:\n    tag_202:\n        /* \"Contracts/EScrow_cont.sol\":11616:11621  state */\n      0x01\n      0x00\n      swap1\n      sload\n      swap1\n      0x0100\n      exp\n      swap1\n      div\n      0xff\n      and\n        /* \"Contracts/EScrow_cont.sol\":11616:11645  state == ProjectState.Created */\n      0x04\n      dup2\n      gt\n      iszero\n      tag_204\n      jumpi\n      tag_205\n      tag_134\n      jump\t// in\n    tag_205:\n    tag_204:\n      sub\n        /* \"Contracts/EScrow_cont.sol\":11612:11683  if (state == ProjectState.Created) return \"Created (Waiting for funds)\" */\n      tag_206\n      jumpi\n        /* \"Contracts/EScrow_cont.sol\":11647:11683  return \"Created (Waiting for funds)\" */\n      mload(0x40)\n      dup1\n      0x40\n      add\n      0x40\n      mstore\n      dup1\n      0x1b\n      dup2\n      mstore\n      0x20\n      add\n      0x43726561746564202857616974696e6720666f722066756e6473290000000000\n      dup2\n      mstore\n      pop\n      swap1\n      pop\n      jump(tag_201)\n        /* \"Contracts/EScrow_cont.sol\":11612:11683  if (state == ProjectState.Created) return \"Created (Waiting for funds)\" */\n    tag_206:\n        /* \"Contracts/EScrow_cont.sol\":11707:11726  ProjectState.Funded */\n      0x01\n        /* \"Contracts/EScrow_cont.sol\":11698:11726  state == ProjectState.Funded */\n      0x04\n      dup2\n      gt\n      iszero\n      tag_207\n      jumpi\n      tag_208\n      tag_134\n      jump\t// in\n    tag_208:\n    tag_207:\n        /* \"Contracts/EScrow_cont.sol\":11698:11703  state */\n      0x01\n      0x00\n      swap1\n      sload\n      swap1\n      0x0100\n      exp\n      swap1\n      div\n      0xff\n      and\n        /* \"Contracts/EScrow_cont.sol\":11698:11726  state == ProjectState.Funded */\n      0x04\n      dup2\n      gt\n      iszero\n      tag_209\n      jumpi\n      tag_210\n      tag_134\n      jump\t// in\n    tag_210:\n    tag_209:\n      sub\n        /* \"Contracts/EScrow_cont.sol\":11694:11752  if (state == ProjectState.Funded) return \"Funded (Active)\" */\n      tag_211\n      jumpi\n        /* \"Contracts/EScrow_cont.sol\":11728:11752  return \"Funded (Active)\" */\n      mload(0x40)\n      dup1\n      0x40\n      add\n      0x40\n      mstore\n      dup1\n      0x0f\n      dup2\n      mstore\n      0x20\n      add\n      0x46756e6465642028416374697665290000000000000000000000000000000000\n      dup2\n      mstore\n      pop\n      swap1\n      pop\n      jump(tag_201)\n        /* \"Contracts/EScrow_cont.sol\":11694:11752  if (state == ProjectState.Funded) return \"Funded (Active)\" */\n    tag_211:\n        /* \"Contracts/EScrow_cont.sol\":11776:11798  ProjectState.Completed */\n      0x02\n        /* \"Contracts/EScrow_cont.sol\":11767:11798  state == ProjectState.Completed */\n      0x04\n      dup2\n      gt\n      iszero\n      tag_212\n      jumpi\n      tag_213\n      tag_134\n      jump\t// in\n    tag_213:\n    tag_212:\n        /* \"Contracts/EScrow_cont.sol\":11767:11772  state */\n      0x01\n      0x00\n      swap1\n      sload\n      swap1\n      0x0100\n      exp\n      swap1\n      div\n      0xff\n      and\n        /* \"Contracts/EScrow_cont.sol\":11767:11798  state == ProjectState.Completed */\n      0x04\n      dup2\n      gt\n      iszero\n      tag_214\n      jumpi\n      tag_215\n      tag_134\n      jump\t// in\n    tag_215:\n    tag_214:\n      sub\n        /* \"Contracts/EScrow_cont.sol\":11763:11818  if (state == ProjectState.Completed) return \"Completed\" */\n      tag_216\n      jumpi\n        /* \"Contracts/EScrow_cont.sol\":11800:11818  return \"Completed\" */\n      mload(0x40)\n      dup1\n      0x40\n      add\n      0x40\n      mstore\n      dup1\n      0x09\n      dup2\n      mstore\n      0x20\n      add\n      0x436f6d706c657465640000000000000000000000000000000000000000000000\n      dup2\n      mstore\n      pop\n      swap1\n      pop\n      jump(tag_201)\n        /* \"Contracts/EScrow_cont.sol\":11763:11818  if (state == ProjectState.Completed) return \"Completed\" */\n    tag_216:\n        /* \"Contracts/EScrow_cont.sol\":11842:11864  ProjectState.Cancelled */\n      0x03\n        /* \"Contracts/EScrow_cont.sol\":11833:11864  state == ProjectState.Cancelled */\n      0x04\n      dup2\n      gt\n      iszero\n      tag_217\n      jumpi\n      tag_218\n      tag_134\n      jump\t// in\n    tag_218:\n    tag_217:\n        /* \"Contracts/EScrow_cont.sol\":11833:11838  state */\n      0x01\n      0x00\n      swap1\n      sload\n      swap1\n      0x0100\n      exp\n      swap1\n      div\n      0xff\n      and\n        /* \"Contracts/EScrow_cont.sol\":11833:11864  state == ProjectState.Cancelled */\n      0x04\n      dup2\n      gt\n      iszero\n      tag_219\n      jumpi\n      tag_220\n      tag_134\n      jump\t// in\n    tag_220:\n    tag_219:\n      sub\n        /* \"Contracts/EScrow_cont.sol\":11829:11884  if (state == ProjectState.Cancelled) return \"Cancelled\" */\n      tag_221\n      jumpi\n        /* \"Contracts/EScrow_cont.sol\":11866:11884  return \"Cancelled\" */\n      mload(0x40)\n      dup1\n      0x40\n      add\n      0x40\n      mstore\n      dup1\n      0x09\n      dup2\n      mstore\n      0x20\n      add\n      0x43616e63656c6c65640000000000000000000000000000000000000000000000\n      dup2\n      mstore\n      pop\n      swap1\n      pop\n      jump(tag_201)\n        /* \"Contracts/EScrow_cont.sol\":11829:11884  if (state == ProjectState.Cancelled) return \"Cancelled\" */\n    tag_221:\n        /* \"Contracts/EScrow_cont.sol\":11908:11929  ProjectState.Disputed */\n      0x04\n        /* \"Contracts/EScrow_cont.sol\":11899:11929  state == ProjectState.Disputed */\n      dup1\n      dup2\n      gt\n      iszero\n      tag_222\n      jumpi\n      tag_223\n      tag_134\n      jump\t// in\n    tag_223:\n    tag_222:\n        /* \"Contracts/EScrow_cont.sol\":11899:11904  state */\n      0x01\n      0x00\n      swap1\n      sload\n      swap1\n      0x0100\n      exp\n      swap1\n      div\n      0xff\n      and\n        /* \"Contracts/EScrow_cont.sol\":11899:11929  state == ProjectState.Disputed */\n      0x04\n      dup2\n      gt\n      iszero\n      tag_224\n      jumpi\n      tag_225\n      tag_134\n      jump\t// in\n    tag_225:\n    tag_224:\n      sub\n        /* \"Contracts/EScrow_cont.sol\":11895:11948  if (state == ProjectState.Disputed) return \"Disputed\" */\n      tag_226\n      jumpi\n        /* \"Contracts/EScrow_cont.sol\":11931:11948  return \"Disputed\" */\n      mload(0x40)\n      dup1\n      0x40\n      add\n      0x40\n      mstore\n      dup1\n      0x08\n      dup2\n      mstore\n      0x20\n      add\n      0x4469737075746564000000000000000000000000000000000000000000000000\n      dup2\n      mstore\n      pop\n      swap1\n      pop\n      jump(tag_201)\n        /* \"Contracts/EScrow_cont.sol\":11895:11948  if (state == ProjectState.Disputed) return \"Disputed\" */\n    tag_226:\n        /* \"Contracts/EScrow_cont.sol\":11959:11975  return \"Unknown\" */\n      mload(0x40)\n      dup1\n      0x40\n      add\n      0x40\n      mstore\n      dup1\n      0x07\n      dup2\n      mstore\n      0x20\n      add\n      0x556e6b6e6f776e00000000000000000000000000000000000000000000000000\n      dup2\n      mstore\n      pop\n      swap1\n      pop\n        /* \"Contracts/EScrow_cont.sol\":11542:11983  function getStatus() external view returns (string memory) {... */\n    tag_201:\n      swap1\n      jump\t// out\n        /* \"Contracts/EScrow_cont.sol\":9498:9925  function resolveDisputeToFunder() ... */\n    tag_76:\n        /* \"Contracts/EScrow_cont.sol\":2578:2584  funder */\n      immutable(\"0xee6ed107ec78844a4d229eb2881175204622382692a68d0a6bc9dab5b9b1a469\")\n        /* \"Contracts/EScrow_cont.sol\":2564:2584  msg.sender != funder */\n      0xffffffffffffffffffffffffffffffffffffffff\n      and\n        /* \"Contracts/EScrow_cont.sol\":2564:2574  msg.sender */\n      caller\n        /* \"Contracts/EScrow_cont.sol\":2564:2584  msg.sender != funder */\n      0xffffffffffffffffffffffffffffffffffffffff\n      and\n      eq\n        /* \"Contracts/EScrow_cont.sol\":2560:2604  if (msg.sender != funder) revert NotFunder() */\n      tag_228\n      jumpi\n        /* \"Contracts/EScrow_cont.sol\":2593:2604  NotFunder() */\n      mload(0x40)\n      0xa598aebe00000000000000000000000000000000000000000000000000000000\n      dup2\n      mstore\n      0x04\n      add\n      mload(0x40)\n      dup1\n      swap2\n      sub\n      swap1\n      revert\n        /* \"Contracts/EScrow_cont.sol\":2560:2604  if (msg.sender != funder) revert NotFunder() */\n    tag_228:\n        /* \"Contracts/EScrow_cont.sol\":9590:9611  ProjectState.Disputed */\n      0x04\n        /* \"Contracts/EScrow_cont.sol\":2956:2962  _state */\n      dup1\n        /* \"Contracts/EScrow_cont.sol\":2947:2962  state != _state */\n      0x04\n      dup2\n      gt\n      iszero\n      tag_230\n      jumpi\n      tag_231\n      tag_134\n      jump\t// in\n    tag_231:\n    tag_230:\n        /* \"Contracts/EScrow_cont.sol\":2947:2952  state */\n      0x01\n      0x00\n      swap1\n      sload\n      swap1\n      0x0100\n      exp\n      swap1\n      div\n      0xff\n      and\n        /* \"Contracts/EScrow_cont.sol\":2947:2962  state != _state */\n      0x04\n      dup2\n      gt\n      iszero\n      tag_232\n      jumpi\n      tag_233\n      tag_134\n      jump\t// in\n    tag_233:\n    tag_232:\n      eq\n        /* \"Contracts/EScrow_cont.sol\":2943:2985  if (state != _state) revert InvalidState() */\n      tag_234\n      jumpi\n        /* \"Contracts/EScrow_cont.sol\":2971:2985  InvalidState() */\n      mload(0x40)\n      0xbaf3f0f700000000000000000000000000000000000000000000000000000000\n      dup2\n      mstore\n      0x04\n      add\n      mload(0x40)\n      dup1\n      swap2\n      sub\n      swap1\n      revert\n        /* \"Contracts/EScrow_cont.sol\":2943:2985  if (state != _state) revert InvalidState() */\n    tag_234:\n        /* \"@openzeppelin/contracts/security/ReentrancyGuard.sol\":2261:2282  _nonReentrantBefore() */\n      tag_236\n        /* \"@openzeppelin/contracts/security/ReentrancyGuard.sol\":2261:2280  _nonReentrantBefore */\n      tag_140\n        /* \"@openzeppelin/contracts/security/ReentrancyGuard.sol\":2261:2282  _nonReentrantBefore() */\n      jump\t// in\n    tag_236:\n        /* \"Contracts/EScrow_cont.sol\":9652:9669  uint256 remaining */\n      0x00\n        /* \"Contracts/EScrow_cont.sol\":9672:9694  _getRemainingBalance() */\n      tag_238\n        /* \"Contracts/EScrow_cont.sol\":9672:9692  _getRemainingBalance */\n      tag_143\n        /* \"Contracts/EScrow_cont.sol\":9672:9694  _getRemainingBalance() */\n      jump\t// in\n    tag_238:\n        /* \"Contracts/EScrow_cont.sol\":9652:9694  uint256 remaining = _getRemainingBalance() */\n      swap1\n      pop\n        /* \"Contracts/EScrow_cont.sol\":9721:9722  0 */\n      0x00\n        /* \"Contracts/EScrow_cont.sol\":9709:9718  remaining */\n      dup2\n        /* \"Contracts/EScrow_cont.sol\":9709:9722  remaining > 0 */\n      gt\n        /* \"Contracts/EScrow_cont.sol\":9705:9795  if (remaining > 0) {... */\n      iszero\n      tag_239\n      jumpi\n        /* \"Contracts/EScrow_cont.sol\":9739:9783  paymentToken.safeTransfer(funder, remaining) */\n      tag_240\n        /* \"Contracts/EScrow_cont.sol\":9765:9771  funder */\n      immutable(\"0xee6ed107ec78844a4d229eb2881175204622382692a68d0a6bc9dab5b9b1a469\")\n        /* \"Contracts/EScrow_cont.sol\":9773:9782  remaining */\n      dup3\n        /* \"Contracts/EScrow_cont.sol\":9739:9751  paymentToken */\n      immutable(\"0x162f7b8508eeb042919e192a88cd9658d8d9620c570a09aeeef475bc42e39ecf\")\n        /* \"Contracts/EScrow_cont.sol\":9739:9764  paymentToken.safeTransfer */\n      0xffffffffffffffffffffffffffffffffffffffff\n      and\n      tag_146\n      swap1\n        /* \"Contracts/EScrow_cont.sol\":9739:9783  paymentToken.safeTransfer(funder, remaining) */\n      swap3\n      swap2\n      swap1\n      0xffffffff\n      and\n      jump\t// in\n    tag_240:\n        /* \"Contracts/EScrow_cont.sol\":9705:9795  if (remaining > 0) {... */\n    tag_239:\n        /* \"Contracts/EScrow_cont.sol\":9823:9845  ProjectState.Cancelled */\n      0x03\n        /* \"Contracts/EScrow_cont.sol\":9815:9820  state */\n      0x01\n      0x00\n        /* \"Contracts/EScrow_cont.sol\":9815:9845  state = ProjectState.Cancelled */\n      0x0100\n      exp\n      dup2\n      sload\n      dup2\n      0xff\n      mul\n      not\n      and\n      swap1\n      dup4\n      0x04\n      dup2\n      gt\n      iszero\n      tag_241\n      jumpi\n      tag_242\n      tag_134\n      jump\t// in\n    tag_242:\n    tag_241:\n      mul\n      or\n      swap1\n      sstore\n      pop\n        /* \"Contracts/EScrow_cont.sol\":9861:9883  DisputeResolved(false) */\n      0x8015c5005d9ad5d85ca80d3f894f08e0159277704c54166e5cff108800fa80cd\n        /* \"Contracts/EScrow_cont.sol\":9877:9882  false */\n      0x00\n        /* \"Contracts/EScrow_cont.sol\":9861:9883  DisputeResolved(false) */\n      mload(0x40)\n      tag_243\n      swap2\n      swap1\n      tag_67\n      jump\t// in\n    tag_243:\n      mload(0x40)\n      dup1\n      swap2\n      sub\n      swap1\n      log1\n        /* \"Contracts/EScrow_cont.sol\":9899:9917  ProjectCancelled() */\n      0x92c439fda90c70ccdedcb94d28a14f9fda69d67124efbbe9bf905740194228c8\n      mload(0x40)\n      mload(0x40)\n      dup1\n      swap2\n      sub\n      swap1\n      log1\n        /* \"Contracts/EScrow_cont.sol\":9641:9925  {... */\n      pop\n        /* \"@openzeppelin/contracts/security/ReentrancyGuard.sol\":2303:2323  _nonReentrantAfter() */\n      tag_244\n        /* \"@openzeppelin/contracts/security/ReentrancyGuard.sol\":2303:2321  _nonReentrantAfter */\n      tag_150\n        /* \"@openzeppelin/contracts/security/ReentrancyGuard.sol\":2303:2323  _nonReentrantAfter() */\n      jump\t// in\n    tag_244:\n        /* \"Contracts/EScrow_cont.sol\":2615:2616  _ */\n      pop\n        /* \"Contracts/EScrow_cont.sol\":9498:9925  function resolveDisputeToFunder() ... */\n      jump\t// out\n        /* \"Contracts/EScrow_cont.sol\":1889:1922  uint256 public totalFeesCollected */\n    tag_78:\n      sload(0x04)\n      dup2\n      jump\t// out\n        /* \"Contracts/EScrow_cont.sol\":10565:10669  function getMilestones() external view returns (Milestone[] memory) {... */\n    tag_81:\n        /* \"Contracts/EScrow_cont.sol\":10613:10631  Milestone[] memory */\n      0x60\n        /* \"Contracts/EScrow_cont.sol\":10651:10661  milestones */\n      0x05\n        /* \"Contracts/EScrow_cont.sol\":10644:10661  return milestones */\n      dup1\n      sload\n      dup1\n      0x20\n      mul\n      0x20\n      add\n      mload(0x40)\n      swap1\n      dup2\n      add\n      0x40\n      mstore\n      dup1\n      swap3\n      swap2\n      swap1\n      dup2\n      dup2\n      mstore\n      0x20\n      add\n      0x00\n      swap1\n    tag_246:\n      dup3\n      dup3\n      lt\n      iszero\n      tag_247\n      jumpi\n      dup4\n      dup3\n      swap1\n      0x00\n      mstore\n      keccak256(0x00, 0x20)\n      swap1\n      0x04\n      mul\n      add\n      mload(0x40)\n      dup1\n      0xa0\n      add\n      0x40\n      mstore\n      swap1\n      dup2\n      0x00\n      dup3\n      add\n      sload\n      dup2\n      mstore\n      0x20\n      add\n      0x01\n      dup3\n      add\n      0x00\n      swap1\n      sload\n      swap1\n      0x0100\n      exp\n      swap1\n      div\n      0xff\n      and\n      iszero\n      iszero\n      iszero\n      iszero\n      dup2\n      mstore\n      0x20\n      add\n      0x01\n      dup3\n      add\n      0x01\n      swap1\n      sload\n      swap1\n      0x0100\n      exp\n      swap1\n      div\n      0xff\n      and\n      iszero\n      iszero\n      iszero\n      iszero\n      dup2\n      mstore\n      0x20\n      add\n      0x02\n      dup3\n      add\n      sload\n      dup2\n      mstore\n      0x20\n      add\n      0x03\n      dup3\n      add\n      dup1\n      sload\n      tag_249\n      swap1\n      tag_250\n      jump\t// in\n    tag_249:\n      dup1\n      0x1f\n      add\n      0x20\n      dup1\n      swap2\n      div\n      mul\n      0x20\n      add\n      mload(0x40)\n      swap1\n      dup2\n      add\n      0x40\n      mstore\n      dup1\n      swap3\n      swap2\n      swap1\n      dup2\n      dup2\n      mstore\n      0x20\n      add\n      dup3\n      dup1\n      sload\n      tag_251\n      swap1\n      tag_250\n      jump\t// in\n    tag_251:\n      dup1\n      iszero\n      tag_252\n      jumpi\n      dup1\n      0x1f\n      lt\n      tag_253\n      jumpi\n      0x0100\n      dup1\n      dup4\n      sload\n      div\n      mul\n      dup4\n      mstore\n      swap2\n      0x20\n      add\n      swap2\n      jump(tag_252)\n    tag_253:\n      dup3\n      add\n      swap2\n      swap1\n      0x00\n      mstore\n      keccak256(0x00, 0x20)\n      swap1\n    tag_254:\n      dup2\n      sload\n      dup2\n      mstore\n      swap1\n      0x01\n      add\n      swap1\n      0x20\n      add\n      dup1\n      dup4\n      gt\n      tag_254\n      jumpi\n      dup3\n      swap1\n      sub\n      0x1f\n      and\n      dup3\n      add\n      swap2\n    tag_252:\n      pop\n      pop\n      pop\n      pop\n      pop\n      dup2\n      mstore\n      pop\n      pop\n      dup2\n      mstore\n      0x20\n      add\n      swap1\n      0x01\n      add\n      swap1\n      jump(tag_246)\n    tag_247:\n      pop\n      pop\n      pop\n      pop\n      swap1\n      pop\n        /* \"Contracts/EScrow_cont.sol\":10565:10669  function getMilestones() external view returns (Milestone[] memory) {... */\n      swap1\n      jump\t// out\n        /* \"Contracts/EScrow_cont.sol\":10915:11040  function getContractBalance() external view returns (uint256) {... */\n    tag_85:\n        /* \"Contracts/EScrow_cont.sol\":10968:10975  uint256 */\n      0x00\n        /* \"Contracts/EScrow_cont.sol\":10995:11007  paymentToken */\n      immutable(\"0x162f7b8508eeb042919e192a88cd9658d8d9620c570a09aeeef475bc42e39ecf\")\n        /* \"Contracts/EScrow_cont.sol\":10995:11017  paymentToken.balanceOf */\n      0xffffffffffffffffffffffffffffffffffffffff\n      and\n      0x70a08231\n        /* \"Contracts/EScrow_cont.sol\":11026:11030  this */\n      address\n        /* \"Contracts/EScrow_cont.sol\":10995:11032  paymentToken.balanceOf(address(this)) */\n      mload(0x40)\n      dup3\n      0xffffffff\n      and\n      0xe0\n      shl\n      dup2\n      mstore\n      0x04\n      add\n      tag_256\n      swap2\n      swap1\n      tag_43\n      jump\t// in\n    tag_256:\n      0x20\n      mload(0x40)\n      dup1\n      dup4\n      sub\n      dup2\n      dup7\n      gas\n      staticcall\n      iszero\n      dup1\n      iszero\n      tag_258\n      jumpi\n      returndatacopy(0x00, 0x00, returndatasize)\n      revert(0x00, returndatasize)\n    tag_258:\n      pop\n      pop\n      pop\n      pop\n      mload(0x40)\n      returndatasize\n      not(0x1f)\n      0x1f\n      dup3\n      add\n      and\n      dup3\n      add\n      dup1\n      0x40\n      mstore\n      pop\n      dup2\n      add\n      swap1\n      tag_259\n      swap2\n      swap1\n      tag_260\n      jump\t// in\n    tag_259:\n        /* \"Contracts/EScrow_cont.sol\":10988:11032  return paymentToken.balanceOf(address(this)) */\n      swap1\n      pop\n        /* \"Contracts/EScrow_cont.sol\":10915:11040  function getContractBalance() external view returns (uint256) {... */\n      swap1\n      jump\t// out\n        /* \"Contracts/EScrow_cont.sol\":8369:8640  function raiseDispute(string memory reason) ... */\n    tag_90:\n        /* \"Contracts/EScrow_cont.sol\":2810:2816  funder */\n      immutable(\"0xee6ed107ec78844a4d229eb2881175204622382692a68d0a6bc9dab5b9b1a469\")\n        /* \"Contracts/EScrow_cont.sol\":2796:2816  msg.sender == funder */\n      0xffffffffffffffffffffffffffffffffffffffff\n      and\n        /* \"Contracts/EScrow_cont.sol\":2796:2806  msg.sender */\n      caller\n        /* \"Contracts/EScrow_cont.sol\":2796:2816  msg.sender == funder */\n      0xffffffffffffffffffffffffffffffffffffffff\n      and\n      eq\n        /* \"Contracts/EScrow_cont.sol\":2796:2843  msg.sender == funder || msg.sender == developer */\n      dup1\n      tag_262\n      jumpi\n      pop\n        /* \"Contracts/EScrow_cont.sol\":2834:2843  developer */\n      immutable(\"0xb0c7bc42bdbc6fc210fecd6a5f5b923061cceb0f8ca5c7d964d5c22fc0e4b0b6\")\n        /* \"Contracts/EScrow_cont.sol\":2820:2843  msg.sender == developer */\n      0xffffffffffffffffffffffffffffffffffffffff\n      and\n        /* \"Contracts/EScrow_cont.sol\":2820:2830  msg.sender */\n      caller\n        /* \"Contracts/EScrow_cont.sol\":2820:2843  msg.sender == developer */\n      0xffffffffffffffffffffffffffffffffffffffff\n      and\n      eq\n        /* \"Contracts/EScrow_cont.sol\":2796:2843  msg.sender == funder || msg.sender == developer */\n    tag_262:\n        /* \"Contracts/EScrow_cont.sol\":2788:2862  require(msg.sender == funder || msg.sender == developer, \"Not authorized\") */\n      tag_263\n      jumpi\n      mload(0x40)\n      0x08c379a000000000000000000000000000000000000000000000000000000000\n      dup2\n      mstore\n      0x04\n      add\n      tag_264\n      swap1\n      tag_265\n      jump\t// in\n    tag_264:\n      mload(0x40)\n      dup1\n      swap2\n      sub\n      swap1\n      revert\n    tag_263:\n        /* \"Contracts/EScrow_cont.sol\":8472:8491  ProjectState.Funded */\n      0x01\n        /* \"Contracts/EScrow_cont.sol\":2956:2962  _state */\n      dup1\n        /* \"Contracts/EScrow_cont.sol\":2947:2962  state != _state */\n      0x04\n      dup2\n      gt\n      iszero\n      tag_267\n      jumpi\n      tag_268\n      tag_134\n      jump\t// in\n    tag_268:\n    tag_267:\n        /* \"Contracts/EScrow_cont.sol\":2947:2952  state */\n      0x01\n      0x00\n      swap1\n      sload\n      swap1\n      0x0100\n      exp\n      swap1\n      div\n      0xff\n      and\n        /* \"Contracts/EScrow_cont.sol\":2947:2962  state != _state */\n      0x04\n      dup2\n      gt\n      iszero\n      tag_269\n      jumpi\n      tag_270\n      tag_134\n      jump\t// in\n    tag_270:\n    tag_269:\n      eq\n        /* \"Contracts/EScrow_cont.sol\":2943:2985  if (state != _state) revert InvalidState() */\n      tag_271\n      jumpi\n        /* \"Contracts/EScrow_cont.sol\":2971:2985  InvalidState() */\n      mload(0x40)\n      0xbaf3f0f700000000000000000000000000000000000000000000000000000000\n      dup2\n      mstore\n      0x04\n      add\n      mload(0x40)\n      dup1\n      swap2\n      sub\n      swap1\n      revert\n        /* \"Contracts/EScrow_cont.sol\":2943:2985  if (state != _state) revert InvalidState() */\n    tag_271:\n        /* \"Contracts/EScrow_cont.sol\":8518:8539  ProjectState.Disputed */\n      0x04\n        /* \"Contracts/EScrow_cont.sol\":8510:8515  state */\n      0x01\n      0x00\n        /* \"Contracts/EScrow_cont.sol\":8510:8539  state = ProjectState.Disputed */\n      0x0100\n      exp\n      dup2\n      sload\n      dup2\n      0xff\n      mul\n      not\n      and\n      swap1\n      dup4\n      0x04\n      dup2\n      gt\n      iszero\n      tag_273\n      jumpi\n      tag_274\n      tag_134\n      jump\t// in\n    tag_274:\n    tag_273:\n      mul\n      or\n      swap1\n      sstore\n      pop\n        /* \"Contracts/EScrow_cont.sol\":8568:8583  block.timestamp */\n      timestamp\n        /* \"Contracts/EScrow_cont.sol\":8550:8565  disputeRaisedAt */\n      0x06\n        /* \"Contracts/EScrow_cont.sol\":8550:8583  disputeRaisedAt = block.timestamp */\n      dup2\n      swap1\n      sstore\n      pop\n        /* \"Contracts/EScrow_cont.sol\":8613:8623  msg.sender */\n      caller\n        /* \"Contracts/EScrow_cont.sol\":8599:8632  DisputeRaised(msg.sender, reason) */\n      0xffffffffffffffffffffffffffffffffffffffff\n      and\n      0x28b099eb575e23e32becd7c30dc8f9b2f98e370cdbf9841ea3338d9000402a25\n        /* \"Contracts/EScrow_cont.sol\":8625:8631  reason */\n      dup4\n        /* \"Contracts/EScrow_cont.sol\":8599:8632  DisputeRaised(msg.sender, reason) */\n      mload(0x40)\n      tag_275\n      swap2\n      swap1\n      tag_74\n      jump\t// in\n    tag_275:\n      mload(0x40)\n      dup1\n      swap2\n      sub\n      swap1\n      log2\n        /* \"Contracts/EScrow_cont.sol\":2873:2874  _ */\n      pop\n        /* \"Contracts/EScrow_cont.sol\":8369:8640  function raiseDispute(string memory reason) ... */\n      pop\n      jump\t// out\n        /* \"Contracts/EScrow_cont.sol\":12168:12297  function calculateFee(uint256 amount) public pure returns (uint256) {... */\n    tag_93:\n        /* \"Contracts/EScrow_cont.sol\":12227:12234  uint256 */\n      0x00\n        /* \"Contracts/EScrow_cont.sol\":12284:12289  10000 */\n      0x2710\n        /* \"Contracts/EScrow_cont.sol\":1745:1748  150 */\n      0x96\n        /* \"Contracts/EScrow_cont.sol\":12255:12261  amount */\n      dup4\n        /* \"Contracts/EScrow_cont.sol\":12255:12280  amount * FEE_BASIS_POINTS */\n      tag_277\n      swap2\n      swap1\n      tag_179\n      jump\t// in\n    tag_277:\n        /* \"Contracts/EScrow_cont.sol\":12254:12289  (amount * FEE_BASIS_POINTS) / 10000 */\n      tag_278\n      swap2\n      swap1\n      tag_181\n      jump\t// in\n    tag_278:\n        /* \"Contracts/EScrow_cont.sol\":12247:12289  return (amount * FEE_BASIS_POINTS) / 10000 */\n      swap1\n      pop\n        /* \"Contracts/EScrow_cont.sol\":12168:12297  function calculateFee(uint256 amount) public pure returns (uint256) {... */\n      swap2\n      swap1\n      pop\n      jump\t// out\n        /* \"Contracts/EScrow_cont.sol\":1702:1748  uint256 public constant FEE_BASIS_POINTS = 150 */\n    tag_96:\n        /* \"Contracts/EScrow_cont.sol\":1745:1748  150 */\n      0x96\n        /* \"Contracts/EScrow_cont.sol\":1702:1748  uint256 public constant FEE_BASIS_POINTS = 150 */\n      dup2\n      jump\t// out\n        /* \"Contracts/EScrow_cont.sol\":8792:9365  function resolveDisputeToDeveloper() ... */\n    tag_99:\n        /* \"Contracts/EScrow_cont.sol\":2690:2699  developer */\n      immutable(\"0xb0c7bc42bdbc6fc210fecd6a5f5b923061cceb0f8ca5c7d964d5c22fc0e4b0b6\")\n        /* \"Contracts/EScrow_cont.sol\":2676:2699  msg.sender != developer */\n      0xffffffffffffffffffffffffffffffffffffffff\n      and\n        /* \"Contracts/EScrow_cont.sol\":2676:2686  msg.sender */\n      caller\n        /* \"Contracts/EScrow_cont.sol\":2676:2699  msg.sender != developer */\n      0xffffffffffffffffffffffffffffffffffffffff\n      and\n      eq\n        /* \"Contracts/EScrow_cont.sol\":2672:2722  if (msg.sender != developer) revert NotDeveloper() */\n      tag_280\n      jumpi\n        /* \"Contracts/EScrow_cont.sol\":2708:2722  NotDeveloper() */\n      mload(0x40)\n      0x8858596300000000000000000000000000000000000000000000000000000000\n      dup2\n      mstore\n      0x04\n      add\n      mload(0x40)\n      dup1\n      swap2\n      sub\n      swap1\n      revert\n        /* \"Contracts/EScrow_cont.sol\":2672:2722  if (msg.sender != developer) revert NotDeveloper() */\n    tag_280:\n        /* \"Contracts/EScrow_cont.sol\":8890:8911  ProjectState.Disputed */\n      0x04\n        /* \"Contracts/EScrow_cont.sol\":2956:2962  _state */\n      dup1\n        /* \"Contracts/EScrow_cont.sol\":2947:2962  state != _state */\n      0x04\n      dup2\n      gt\n      iszero\n      tag_282\n      jumpi\n      tag_283\n      tag_134\n      jump\t// in\n    tag_283:\n    tag_282:\n        /* \"Contracts/EScrow_cont.sol\":2947:2952  state */\n      0x01\n      0x00\n      swap1\n      sload\n      swap1\n      0x0100\n      exp\n      swap1\n      div\n      0xff\n      and\n        /* \"Contracts/EScrow_cont.sol\":2947:2962  state != _state */\n      0x04\n      dup2\n      gt\n      iszero\n      tag_284\n      jumpi\n      tag_285\n      tag_134\n      jump\t// in\n    tag_285:\n    tag_284:\n      eq\n        /* \"Contracts/EScrow_cont.sol\":2943:2985  if (state != _state) revert InvalidState() */\n      tag_286\n      jumpi\n        /* \"Contracts/EScrow_cont.sol\":2971:2985  InvalidState() */\n      mload(0x40)\n      0xbaf3f0f700000000000000000000000000000000000000000000000000000000\n      dup2\n      mstore\n      0x04\n      add\n      mload(0x40)\n      dup1\n      swap2\n      sub\n      swap1\n      revert\n        /* \"Contracts/EScrow_cont.sol\":2943:2985  if (state != _state) revert InvalidState() */\n    tag_286:\n        /* \"@openzeppelin/contracts/security/ReentrancyGuard.sol\":2261:2282  _nonReentrantBefore() */\n      tag_288\n        /* \"@openzeppelin/contracts/security/ReentrancyGuard.sol\":2261:2280  _nonReentrantBefore */\n      tag_140\n        /* \"@openzeppelin/contracts/security/ReentrancyGuard.sol\":2261:2282  _nonReentrantBefore() */\n      jump\t// in\n    tag_288:\n        /* \"Contracts/EScrow_cont.sol\":8997:9004  30 days */\n      0x278d00\n        /* \"Contracts/EScrow_cont.sol\":8979:8994  disputeRaisedAt */\n      sload(0x06)\n        /* \"Contracts/EScrow_cont.sol\":8979:9004  disputeRaisedAt + 30 days */\n      tag_290\n      swap2\n      swap1\n      tag_177\n      jump\t// in\n    tag_290:\n        /* \"Contracts/EScrow_cont.sol\":8960:8975  block.timestamp */\n      timestamp\n        /* \"Contracts/EScrow_cont.sol\":8960:9004  block.timestamp >= disputeRaisedAt + 30 days */\n      lt\n      iszero\n        /* \"Contracts/EScrow_cont.sol\":8952:9027  require(block.timestamp >= disputeRaisedAt + 30 days, \"30 days not passed\") */\n      tag_291\n      jumpi\n      mload(0x40)\n      0x08c379a000000000000000000000000000000000000000000000000000000000\n      dup2\n      mstore\n      0x04\n      add\n      tag_292\n      swap1\n      tag_293\n      jump\t// in\n    tag_292:\n      mload(0x40)\n      dup1\n      swap2\n      sub\n      swap1\n      revert\n    tag_291:\n        /* \"Contracts/EScrow_cont.sol\":9048:9065  uint256 remaining */\n      0x00\n        /* \"Contracts/EScrow_cont.sol\":9068:9090  _getRemainingBalance() */\n      tag_294\n        /* \"Contracts/EScrow_cont.sol\":9068:9088  _getRemainingBalance */\n      tag_143\n        /* \"Contracts/EScrow_cont.sol\":9068:9090  _getRemainingBalance() */\n      jump\t// in\n    tag_294:\n        /* \"Contracts/EScrow_cont.sol\":9048:9090  uint256 remaining = _getRemainingBalance() */\n      swap1\n      pop\n        /* \"Contracts/EScrow_cont.sol\":9117:9118  0 */\n      0x00\n        /* \"Contracts/EScrow_cont.sol\":9105:9114  remaining */\n      dup2\n        /* \"Contracts/EScrow_cont.sol\":9105:9118  remaining > 0 */\n      gt\n        /* \"Contracts/EScrow_cont.sol\":9101:9236  if (remaining > 0) {... */\n      iszero\n      tag_295\n      jumpi\n        /* \"Contracts/EScrow_cont.sol\":9135:9182  paymentToken.safeTransfer(developer, remaining) */\n      tag_296\n        /* \"Contracts/EScrow_cont.sol\":9161:9170  developer */\n      immutable(\"0xb0c7bc42bdbc6fc210fecd6a5f5b923061cceb0f8ca5c7d964d5c22fc0e4b0b6\")\n        /* \"Contracts/EScrow_cont.sol\":9172:9181  remaining */\n      dup3\n        /* \"Contracts/EScrow_cont.sol\":9135:9147  paymentToken */\n      immutable(\"0x162f7b8508eeb042919e192a88cd9658d8d9620c570a09aeeef475bc42e39ecf\")\n        /* \"Contracts/EScrow_cont.sol\":9135:9160  paymentToken.safeTransfer */\n      0xffffffffffffffffffffffffffffffffffffffff\n      and\n      tag_146\n      swap1\n        /* \"Contracts/EScrow_cont.sol\":9135:9182  paymentToken.safeTransfer(developer, remaining) */\n      swap3\n      swap2\n      swap1\n      0xffffffff\n      and\n      jump\t// in\n    tag_296:\n        /* \"Contracts/EScrow_cont.sol\":9215:9224  remaining */\n      dup1\n        /* \"Contracts/EScrow_cont.sol\":9197:9211  releasedAmount */\n      0x03\n      0x00\n        /* \"Contracts/EScrow_cont.sol\":9197:9224  releasedAmount += remaining */\n      dup3\n      dup3\n      sload\n      tag_297\n      swap2\n      swap1\n      tag_177\n      jump\t// in\n    tag_297:\n      swap3\n      pop\n      pop\n      dup2\n      swap1\n      sstore\n      pop\n        /* \"Contracts/EScrow_cont.sol\":9101:9236  if (remaining > 0) {... */\n    tag_295:\n        /* \"Contracts/EScrow_cont.sol\":9264:9286  ProjectState.Completed */\n      0x02\n        /* \"Contracts/EScrow_cont.sol\":9256:9261  state */\n      0x01\n      0x00\n        /* \"Contracts/EScrow_cont.sol\":9256:9286  state = ProjectState.Completed */\n      0x0100\n      exp\n      dup2\n      sload\n      dup2\n      0xff\n      mul\n      not\n      and\n      swap1\n      dup4\n      0x04\n      dup2\n      gt\n      iszero\n      tag_298\n      jumpi\n      tag_299\n      tag_134\n      jump\t// in\n    tag_299:\n    tag_298:\n      mul\n      or\n      swap1\n      sstore\n      pop\n        /* \"Contracts/EScrow_cont.sol\":9302:9323  DisputeResolved(true) */\n      0x8015c5005d9ad5d85ca80d3f894f08e0159277704c54166e5cff108800fa80cd\n        /* \"Contracts/EScrow_cont.sol\":9318:9322  true */\n      0x01\n        /* \"Contracts/EScrow_cont.sol\":9302:9323  DisputeResolved(true) */\n      mload(0x40)\n      tag_300\n      swap2\n      swap1\n      tag_67\n      jump\t// in\n    tag_300:\n      mload(0x40)\n      dup1\n      swap2\n      sub\n      swap1\n      log1\n        /* \"Contracts/EScrow_cont.sol\":9339:9357  ProjectCompleted() */\n      0xe39866727217e43713c3728c5769515e8fb38e990b568b9831c1689dfdf67b66\n      mload(0x40)\n      mload(0x40)\n      dup1\n      swap2\n      sub\n      swap1\n      log1\n        /* \"Contracts/EScrow_cont.sol\":8941:9365  {... */\n      pop\n        /* \"@openzeppelin/contracts/security/ReentrancyGuard.sol\":2303:2323  _nonReentrantAfter() */\n      tag_301\n        /* \"@openzeppelin/contracts/security/ReentrancyGuard.sol\":2303:2321  _nonReentrantAfter */\n      tag_150\n        /* \"@openzeppelin/contracts/security/ReentrancyGuard.sol\":2303:2323  _nonReentrantAfter() */\n      jump\t// in\n    tag_301:\n        /* \"Contracts/EScrow_cont.sol\":2733:2734  _ */\n      pop\n        /* \"Contracts/EScrow_cont.sol\":8792:9365  function resolveDisputeToDeveloper() ... */\n      jump\t// out\n        /* \"Contracts/EScrow_cont.sol\":5370:5679  function fund() external onlyFunder inState(ProjectState.Created) nonReentrant {... */\n    tag_101:\n        /* \"Contracts/EScrow_cont.sol\":2578:2584  funder */\n      immutable(\"0xee6ed107ec78844a4d229eb2881175204622382692a68d0a6bc9dab5b9b1a469\")\n        /* \"Contracts/EScrow_cont.sol\":2564:2584  msg.sender != funder */\n      0xffffffffffffffffffffffffffffffffffffffff\n      and\n        /* \"Contracts/EScrow_cont.sol\":2564:2574  msg.sender */\n      caller\n        /* \"Contracts/EScrow_cont.sol\":2564:2584  msg.sender != funder */\n      0xffffffffffffffffffffffffffffffffffffffff\n      and\n      eq\n        /* \"Contracts/EScrow_cont.sol\":2560:2604  if (msg.sender != funder) revert NotFunder() */\n      tag_303\n      jumpi\n        /* \"Contracts/EScrow_cont.sol\":2593:2604  NotFunder() */\n      mload(0x40)\n      0xa598aebe00000000000000000000000000000000000000000000000000000000\n      dup2\n      mstore\n      0x04\n      add\n      mload(0x40)\n      dup1\n      swap2\n      sub\n      swap1\n      revert\n        /* \"Contracts/EScrow_cont.sol\":2560:2604  if (msg.sender != funder) revert NotFunder() */\n    tag_303:\n        /* \"Contracts/EScrow_cont.sol\":5414:5434  ProjectState.Created */\n      0x00\n        /* \"Contracts/EScrow_cont.sol\":2956:2962  _state */\n      dup1\n        /* \"Contracts/EScrow_cont.sol\":2947:2962  state != _state */\n      0x04\n      dup2\n      gt\n      iszero\n      tag_305\n      jumpi\n      tag_306\n      tag_134\n      jump\t// in\n    tag_306:\n    tag_305:\n        /* \"Contracts/EScrow_cont.sol\":2947:2952  state */\n      0x01\n      0x00\n      swap1\n      sload\n      swap1\n      0x0100\n      exp\n      swap1\n      div\n      0xff\n      and\n        /* \"Contracts/EScrow_cont.sol\":2947:2962  state != _state */\n      0x04\n      dup2\n      gt\n      iszero\n      tag_307\n      jumpi\n      tag_308\n      tag_134\n      jump\t// in\n    tag_308:\n    tag_307:\n      eq\n        /* \"Contracts/EScrow_cont.sol\":2943:2985  if (state != _state) revert InvalidState() */\n      tag_309\n      jumpi\n        /* \"Contracts/EScrow_cont.sol\":2971:2985  InvalidState() */\n      mload(0x40)\n      0xbaf3f0f700000000000000000000000000000000000000000000000000000000\n      dup2\n      mstore\n      0x04\n      add\n      mload(0x40)\n      dup1\n      swap2\n      sub\n      swap1\n      revert\n        /* \"Contracts/EScrow_cont.sol\":2943:2985  if (state != _state) revert InvalidState() */\n    tag_309:\n        /* \"@openzeppelin/contracts/security/ReentrancyGuard.sol\":2261:2282  _nonReentrantBefore() */\n      tag_311\n        /* \"@openzeppelin/contracts/security/ReentrancyGuard.sol\":2261:2280  _nonReentrantBefore */\n      tag_140\n        /* \"@openzeppelin/contracts/security/ReentrancyGuard.sol\":2261:2282  _nonReentrantBefore() */\n      jump\t// in\n    tag_311:\n        /* \"Contracts/EScrow_cont.sol\":5512:5581  paymentToken.safeTransferFrom(msg.sender, address(this), totalAmount) */\n      tag_313\n        /* \"Contracts/EScrow_cont.sol\":5542:5552  msg.sender */\n      caller\n        /* \"Contracts/EScrow_cont.sol\":5562:5566  this */\n      address\n        /* \"Contracts/EScrow_cont.sol\":5569:5580  totalAmount */\n      sload(0x02)\n        /* \"Contracts/EScrow_cont.sol\":5512:5524  paymentToken */\n      immutable(\"0x162f7b8508eeb042919e192a88cd9658d8d9620c570a09aeeef475bc42e39ecf\")\n        /* \"Contracts/EScrow_cont.sol\":5512:5541  paymentToken.safeTransferFrom */\n      0xffffffffffffffffffffffffffffffffffffffff\n      and\n      tag_314\n      swap1\n        /* \"Contracts/EScrow_cont.sol\":5512:5581  paymentToken.safeTransferFrom(msg.sender, address(this), totalAmount) */\n      swap4\n      swap3\n      swap2\n      swap1\n      0xffffffff\n      and\n      jump\t// in\n    tag_313:\n        /* \"Contracts/EScrow_cont.sol\":5610:5629  ProjectState.Funded */\n      0x01\n        /* \"Contracts/EScrow_cont.sol\":5602:5607  state */\n      dup1\n      0x00\n        /* \"Contracts/EScrow_cont.sol\":5602:5629  state = ProjectState.Funded */\n      0x0100\n      exp\n      dup2\n      sload\n      dup2\n      0xff\n      mul\n      not\n      and\n      swap1\n      dup4\n      0x04\n      dup2\n      gt\n      iszero\n      tag_315\n      jumpi\n      tag_316\n      tag_134\n      jump\t// in\n    tag_316:\n    tag_315:\n      mul\n      or\n      swap1\n      sstore\n      pop\n        /* \"Contracts/EScrow_cont.sol\":5645:5671  ProjectFunded(totalAmount) */\n      0x2301e0a2ad8f6e28a7fbb09e96f5c14e588fac346ed5ce607e1a018bc7688646\n        /* \"Contracts/EScrow_cont.sol\":5659:5670  totalAmount */\n      sload(0x02)\n        /* \"Contracts/EScrow_cont.sol\":5645:5671  ProjectFunded(totalAmount) */\n      mload(0x40)\n      tag_317\n      swap2\n      swap1\n      tag_47\n      jump\t// in\n    tag_317:\n      mload(0x40)\n      dup1\n      swap2\n      sub\n      swap1\n      log1\n        /* \"@openzeppelin/contracts/security/ReentrancyGuard.sol\":2303:2323  _nonReentrantAfter() */\n      tag_318\n        /* \"@openzeppelin/contracts/security/ReentrancyGuard.sol\":2303:2321  _nonReentrantAfter */\n      tag_150\n        /* \"@openzeppelin/contracts/security/ReentrancyGuard.sol\":2303:2323  _nonReentrantAfter() */\n      jump\t// in\n    tag_318:\n        /* \"Contracts/EScrow_cont.sol\":2615:2616  _ */\n      pop\n        /* \"Contracts/EScrow_cont.sol\":5370:5679  function fund() external onlyFunder inState(ProjectState.Created) nonReentrant {... */\n      jump\t// out\n        /* \"Contracts/EScrow_cont.sol\":1971:2001  uint256 public disputeRaisedAt */\n    tag_103:\n      sload(0x06)\n      dup2\n      jump\t// out\n        /* \"Contracts/EScrow_cont.sol\":1788:1813  ProjectState public state */\n    tag_106:\n      0x01\n      0x00\n      swap1\n      sload\n      swap1\n      0x0100\n      exp\n      swap1\n      div\n      0xff\n      and\n      dup2\n      jump\t// out\n        /* \"Contracts/EScrow_cont.sol\":1473:1507  address public immutable developer */\n    tag_110:\n      immutable(\"0xb0c7bc42bdbc6fc210fecd6a5f5b923061cceb0f8ca5c7d964d5c22fc0e4b0b6\")\n      dup2\n      jump\t// out\n        /* \"Contracts/EScrow_cont.sol\":12491:12614  function getNetAmount(uint256 amount) public pure returns (uint256) {... */\n    tag_114:\n        /* \"Contracts/EScrow_cont.sol\":12550:12557  uint256 */\n      0x00\n        /* \"Contracts/EScrow_cont.sol\":12586:12606  calculateFee(amount) */\n      tag_320\n        /* \"Contracts/EScrow_cont.sol\":12599:12605  amount */\n      dup3\n        /* \"Contracts/EScrow_cont.sol\":12586:12598  calculateFee */\n      tag_93\n        /* \"Contracts/EScrow_cont.sol\":12586:12606  calculateFee(amount) */\n      jump\t// in\n    tag_320:\n        /* \"Contracts/EScrow_cont.sol\":12577:12583  amount */\n      dup3\n        /* \"Contracts/EScrow_cont.sol\":12577:12606  amount - calculateFee(amount) */\n      tag_321\n      swap2\n      swap1\n      tag_183\n      jump\t// in\n    tag_321:\n        /* \"Contracts/EScrow_cont.sol\":12570:12606  return amount - calculateFee(amount) */\n      swap1\n      pop\n        /* \"Contracts/EScrow_cont.sol\":12491:12614  function getNetAmount(uint256 amount) public pure returns (uint256) {... */\n      swap2\n      swap1\n      pop\n      jump\t// out\n        /* \"Contracts/EScrow_cont.sol\":1935:1964  Milestone[] public milestones */\n    tag_118:\n      0x05\n      dup2\n      dup2\n      sload\n      dup2\n      lt\n      tag_322\n      jumpi\n      0x00\n      dup1\n      revert\n    tag_322:\n      swap1\n      0x00\n      mstore\n      keccak256(0x00, 0x20)\n      swap1\n      0x04\n      mul\n      add\n      0x00\n      swap2\n      pop\n      swap1\n      pop\n      dup1\n      0x00\n      add\n      sload\n      swap1\n      dup1\n      0x01\n      add\n      0x00\n      swap1\n      sload\n      swap1\n      0x0100\n      exp\n      swap1\n      div\n      0xff\n      and\n      swap1\n      dup1\n      0x01\n      add\n      0x01\n      swap1\n      sload\n      swap1\n      0x0100\n      exp\n      swap1\n      div\n      0xff\n      and\n      swap1\n      dup1\n      0x02\n      add\n      sload\n      swap1\n      dup1\n      0x03\n      add\n      dup1\n      sload\n      tag_324\n      swap1\n      tag_250\n      jump\t// in\n    tag_324:\n      dup1\n      0x1f\n      add\n      0x20\n      dup1\n      swap2\n      div\n      mul\n      0x20\n      add\n      mload(0x40)\n      swap1\n      dup2\n      add\n      0x40\n      mstore\n      dup1\n      swap3\n      swap2\n      swap1\n      dup2\n      dup2\n      mstore\n      0x20\n      add\n      dup3\n      dup1\n      sload\n      tag_325\n      swap1\n      tag_250\n      jump\t// in\n    tag_325:\n      dup1\n      iszero\n      tag_326\n      jumpi\n      dup1\n      0x1f\n      lt\n      tag_327\n      jumpi\n      0x0100\n      dup1\n      dup4\n      sload\n      div\n      mul\n      dup4\n      mstore\n      swap2\n      0x20\n      add\n      swap2\n      jump(tag_326)\n    tag_327:\n      dup3\n      add\n      swap2\n      swap1\n      0x00\n      mstore\n      keccak256(0x00, 0x20)\n      swap1\n    tag_328:\n      dup2\n      sload\n      dup2\n      mstore\n      swap1\n      0x01\n      add\n      swap1\n      0x20\n      add\n      dup1\n      dup4\n      gt\n      tag_328\n      jumpi\n      dup3\n      swap1\n      sub\n      0x1f\n      and\n      dup3\n      add\n      swap2\n    tag_326:\n      pop\n      pop\n      pop\n      pop\n      pop\n      swap1\n      pop\n      dup6\n      jump\t// out\n        /* \"Contracts/EScrow_cont.sol\":1613:1695  address public constant FEE_RECIPIENT = 0xC869d7a99fa831b4B3bEe7e245F0C9348C2209a3 */\n    tag_122:\n        /* \"Contracts/EScrow_cont.sol\":1653:1695  0xC869d7a99fa831b4B3bEe7e245F0C9348C2209a3 */\n      0xc869d7a99fa831b4b3bee7e245f0c9348c2209a3\n        /* \"Contracts/EScrow_cont.sol\":1613:1695  address public constant FEE_RECIPIENT = 0xC869d7a99fa831b4B3bEe7e245F0C9348C2209a3 */\n      dup2\n      jump\t// out\n        /* \"Contracts/EScrow_cont.sol\":7406:8262  function cancelMilestone(uint256 index) ... */\n    tag_126:\n        /* \"Contracts/EScrow_cont.sol\":2578:2584  funder */\n      immutable(\"0xee6ed107ec78844a4d229eb2881175204622382692a68d0a6bc9dab5b9b1a469\")\n        /* \"Contracts/EScrow_cont.sol\":2564:2584  msg.sender != funder */\n      0xffffffffffffffffffffffffffffffffffffffff\n      and\n        /* \"Contracts/EScrow_cont.sol\":2564:2574  msg.sender */\n      caller\n        /* \"Contracts/EScrow_cont.sol\":2564:2584  msg.sender != funder */\n      0xffffffffffffffffffffffffffffffffffffffff\n      and\n      eq\n        /* \"Contracts/EScrow_cont.sol\":2560:2604  if (msg.sender != funder) revert NotFunder() */\n      tag_330\n      jumpi\n        /* \"Contracts/EScrow_cont.sol\":2593:2604  NotFunder() */\n      mload(0x40)\n      0xa598aebe00000000000000000000000000000000000000000000000000000000\n      dup2\n      mstore\n      0x04\n      add\n      mload(0x40)\n      dup1\n      swap2\n      sub\n      swap1\n      revert\n        /* \"Contracts/EScrow_cont.sol\":2560:2604  if (msg.sender != funder) revert NotFunder() */\n    tag_330:\n        /* \"Contracts/EScrow_cont.sol\":7504:7523  ProjectState.Funded */\n      0x01\n        /* \"Contracts/EScrow_cont.sol\":2956:2962  _state */\n      dup1\n        /* \"Contracts/EScrow_cont.sol\":2947:2962  state != _state */\n      0x04\n      dup2\n      gt\n      iszero\n      tag_332\n      jumpi\n      tag_333\n      tag_134\n      jump\t// in\n    tag_333:\n    tag_332:\n        /* \"Contracts/EScrow_cont.sol\":2947:2952  state */\n      0x01\n      0x00\n      swap1\n      sload\n      swap1\n      0x0100\n      exp\n      swap1\n      div\n      0xff\n      and\n        /* \"Contracts/EScrow_cont.sol\":2947:2962  state != _state */\n      0x04\n      dup2\n      gt\n      iszero\n      tag_334\n      jumpi\n      tag_335\n      tag_134\n      jump\t// in\n    tag_335:\n    tag_334:\n      eq\n        /* \"Contracts/EScrow_cont.sol\":2943:2985  if (state != _state) revert InvalidState() */\n      tag_336\n      jumpi\n        /* \"Contracts/EScrow_cont.sol\":2971:2985  InvalidState() */\n      mload(0x40)\n      0xbaf3f0f700000000000000000000000000000000000000000000000000000000\n      dup2\n      mstore\n      0x04\n      add\n      mload(0x40)\n      dup1\n      swap2\n      sub\n      swap1\n      revert\n        /* \"Contracts/EScrow_cont.sol\":2943:2985  if (state != _state) revert InvalidState() */\n    tag_336:\n        /* \"Contracts/EScrow_cont.sol\":7550:7555  index */\n      dup2\n        /* \"Contracts/EScrow_cont.sol\":3081:3091  milestones */\n      0x05\n        /* \"Contracts/EScrow_cont.sol\":3081:3098  milestones.length */\n      dup1\n      sload\n      swap1\n      pop\n        /* \"Contracts/EScrow_cont.sol\":3072:3077  index */\n      dup2\n        /* \"Contracts/EScrow_cont.sol\":3072:3098  index >= milestones.length */\n      lt\n        /* \"Contracts/EScrow_cont.sol\":3068:3125  if (index >= milestones.length) revert InvalidMilestone() */\n      tag_338\n      jumpi\n        /* \"Contracts/EScrow_cont.sol\":3107:3125  InvalidMilestone() */\n      mload(0x40)\n      0xba11734000000000000000000000000000000000000000000000000000000000\n      dup2\n      mstore\n      0x04\n      add\n      mload(0x40)\n      dup1\n      swap2\n      sub\n      swap1\n      revert\n        /* \"Contracts/EScrow_cont.sol\":3068:3125  if (index >= milestones.length) revert InvalidMilestone() */\n    tag_338:\n        /* \"@openzeppelin/contracts/security/ReentrancyGuard.sol\":2261:2282  _nonReentrantBefore() */\n      tag_340\n        /* \"@openzeppelin/contracts/security/ReentrancyGuard.sol\":2261:2280  _nonReentrantBefore */\n      tag_140\n        /* \"@openzeppelin/contracts/security/ReentrancyGuard.sol\":2261:2282  _nonReentrantBefore() */\n      jump\t// in\n    tag_340:\n        /* \"Contracts/EScrow_cont.sol\":7596:7623  Milestone storage milestone */\n      0x00\n        /* \"Contracts/EScrow_cont.sol\":7626:7636  milestones */\n      0x05\n        /* \"Contracts/EScrow_cont.sol\":7637:7642  index */\n      dup5\n        /* \"Contracts/EScrow_cont.sol\":7626:7643  milestones[index] */\n      dup2\n      sload\n      dup2\n      lt\n      tag_342\n      jumpi\n      tag_343\n      tag_168\n      jump\t// in\n    tag_343:\n    tag_342:\n      swap1\n      0x00\n      mstore\n      keccak256(0x00, 0x20)\n      swap1\n      0x04\n      mul\n      add\n        /* \"Contracts/EScrow_cont.sol\":7596:7643  Milestone storage milestone = milestones[index] */\n      swap1\n      pop\n        /* \"Contracts/EScrow_cont.sol\":7673:7682  milestone */\n      dup1\n        /* \"Contracts/EScrow_cont.sol\":7673:7691  milestone.released */\n      0x01\n      add\n      0x00\n      swap1\n      sload\n      swap1\n      0x0100\n      exp\n      swap1\n      div\n      0xff\n      and\n        /* \"Contracts/EScrow_cont.sol\":7672:7691  !milestone.released */\n      iszero\n        /* \"Contracts/EScrow_cont.sol\":7664:7712  require(!milestone.released, \"Already released\") */\n      tag_345\n      jumpi\n      mload(0x40)\n      0x08c379a000000000000000000000000000000000000000000000000000000000\n      dup2\n      mstore\n      0x04\n      add\n      tag_346\n      swap1\n      tag_172\n      jump\t// in\n    tag_346:\n      mload(0x40)\n      dup1\n      swap2\n      sub\n      swap1\n      revert\n    tag_345:\n        /* \"Contracts/EScrow_cont.sol\":7732:7741  milestone */\n      dup1\n        /* \"Contracts/EScrow_cont.sol\":7732:7751  milestone.cancelled */\n      0x01\n      add\n      0x01\n      swap1\n      sload\n      swap1\n      0x0100\n      exp\n      swap1\n      div\n      0xff\n      and\n        /* \"Contracts/EScrow_cont.sol\":7731:7751  !milestone.cancelled */\n      iszero\n        /* \"Contracts/EScrow_cont.sol\":7723:7773  require(!milestone.cancelled, \"Already cancelled\") */\n      tag_347\n      jumpi\n      mload(0x40)\n      0x08c379a000000000000000000000000000000000000000000000000000000000\n      dup2\n      mstore\n      0x04\n      add\n      tag_348\n      swap1\n      tag_349\n      jump\t// in\n    tag_348:\n      mload(0x40)\n      dup1\n      swap2\n      sub\n      swap1\n      revert\n    tag_347:\n        /* \"Contracts/EScrow_cont.sol\":7813:7814  0 */\n      0x00\n        /* \"Contracts/EScrow_cont.sol\":7792:7801  milestone */\n      dup2\n        /* \"Contracts/EScrow_cont.sol\":7792:7810  milestone.deadline */\n      0x02\n      add\n      sload\n        /* \"Contracts/EScrow_cont.sol\":7792:7814  milestone.deadline > 0 */\n      gt\n        /* \"Contracts/EScrow_cont.sol\":7784:7834  require(milestone.deadline > 0, \"No deadline set\") */\n      tag_350\n      jumpi\n      mload(0x40)\n      0x08c379a000000000000000000000000000000000000000000000000000000000\n      dup2\n      mstore\n      0x04\n      add\n      tag_351\n      swap1\n      tag_352\n      jump\t// in\n    tag_351:\n      mload(0x40)\n      dup1\n      swap2\n      sub\n      swap1\n      revert\n    tag_350:\n        /* \"Contracts/EScrow_cont.sol\":7871:7880  milestone */\n      dup1\n        /* \"Contracts/EScrow_cont.sol\":7871:7889  milestone.deadline */\n      0x02\n      add\n      sload\n        /* \"Contracts/EScrow_cont.sol\":7853:7868  block.timestamp */\n      timestamp\n        /* \"Contracts/EScrow_cont.sol\":7853:7889  block.timestamp > milestone.deadline */\n      gt\n        /* \"Contracts/EScrow_cont.sol\":7845:7913  require(block.timestamp > milestone.deadline, \"Deadline not passed\") */\n      tag_353\n      jumpi\n      mload(0x40)\n      0x08c379a000000000000000000000000000000000000000000000000000000000\n      dup2\n      mstore\n      0x04\n      add\n      tag_354\n      swap1\n      tag_355\n      jump\t// in\n    tag_354:\n      mload(0x40)\n      dup1\n      swap2\n      sub\n      swap1\n      revert\n    tag_353:\n        /* \"Contracts/EScrow_cont.sol\":7956:7960  true */\n      0x01\n        /* \"Contracts/EScrow_cont.sol\":7934:7943  milestone */\n      dup2\n        /* \"Contracts/EScrow_cont.sol\":7934:7953  milestone.cancelled */\n      0x01\n      add\n      0x01\n        /* \"Contracts/EScrow_cont.sol\":7934:7960  milestone.cancelled = true */\n      0x0100\n      exp\n      dup2\n      sload\n      dup2\n      0xff\n      mul\n      not\n      and\n      swap1\n      dup4\n      iszero\n      iszero\n      mul\n      or\n      swap1\n      sstore\n      pop\n        /* \"Contracts/EScrow_cont.sol\":8043:8094  paymentToken.safeTransfer(funder, milestone.amount) */\n      tag_356\n        /* \"Contracts/EScrow_cont.sol\":8069:8075  funder */\n      immutable(\"0xee6ed107ec78844a4d229eb2881175204622382692a68d0a6bc9dab5b9b1a469\")\n        /* \"Contracts/EScrow_cont.sol\":8077:8086  milestone */\n      dup3\n        /* \"Contracts/EScrow_cont.sol\":8077:8093  milestone.amount */\n      0x00\n      add\n      sload\n        /* \"Contracts/EScrow_cont.sol\":8043:8055  paymentToken */\n      immutable(\"0x162f7b8508eeb042919e192a88cd9658d8d9620c570a09aeeef475bc42e39ecf\")\n        /* \"Contracts/EScrow_cont.sol\":8043:8068  paymentToken.safeTransfer */\n      0xffffffffffffffffffffffffffffffffffffffff\n      and\n      tag_146\n      swap1\n        /* \"Contracts/EScrow_cont.sol\":8043:8094  paymentToken.safeTransfer(funder, milestone.amount) */\n      swap3\n      swap2\n      swap1\n      0xffffffff\n      and\n      jump\t// in\n    tag_356:\n        /* \"Contracts/EScrow_cont.sol\":8139:8144  index */\n      dup4\n        /* \"Contracts/EScrow_cont.sol\":8120:8163  MilestoneCancelled(index, milestone.amount) */\n      0xdadefb9d4c98ce0b09100daf8b195e7882f849f58f6760ff36762958c0f7b8a8\n        /* \"Contracts/EScrow_cont.sol\":8146:8155  milestone */\n      dup3\n        /* \"Contracts/EScrow_cont.sol\":8146:8162  milestone.amount */\n      0x00\n      add\n      sload\n        /* \"Contracts/EScrow_cont.sol\":8120:8163  MilestoneCancelled(index, milestone.amount) */\n      mload(0x40)\n      tag_357\n      swap2\n      swap1\n      tag_47\n      jump\t// in\n    tag_357:\n      mload(0x40)\n      dup1\n      swap2\n      sub\n      swap1\n      log2\n        /* \"Contracts/EScrow_cont.sol\":8234:8254  _checkCancellation() */\n      tag_358\n        /* \"Contracts/EScrow_cont.sol\":8234:8252  _checkCancellation */\n      tag_359\n        /* \"Contracts/EScrow_cont.sol\":8234:8254  _checkCancellation() */\n      jump\t// in\n    tag_358:\n        /* \"Contracts/EScrow_cont.sol\":7585:8262  {... */\n      pop\n        /* \"@openzeppelin/contracts/security/ReentrancyGuard.sol\":2303:2323  _nonReentrantAfter() */\n      tag_360\n        /* \"@openzeppelin/contracts/security/ReentrancyGuard.sol\":2303:2321  _nonReentrantAfter */\n      tag_150\n        /* \"@openzeppelin/contracts/security/ReentrancyGuard.sol\":2303:2323  _nonReentrantAfter() */\n      jump\t// in\n    tag_360:\n        /* \"Contracts/EScrow_cont.sol\":2996:2997  _ */\n      pop\n        /* \"Contracts/EScrow_cont.sol\":2615:2616  _ */\n      pop\n        /* \"Contracts/EScrow_cont.sol\":7406:8262  function cancelMilestone(uint256 index) ... */\n      pop\n      jump\t// out\n        /* \"@openzeppelin/contracts/security/ReentrancyGuard.sol\":2336:2623  function _nonReentrantBefore() private {... */\n    tag_140:\n        /* \"@openzeppelin/contracts/security/ReentrancyGuard.sol\":1759:1760  2 */\n      0x02\n        /* \"@openzeppelin/contracts/security/ReentrancyGuard.sol\":2468:2475  _status */\n      sload(0x00)\n        /* \"@openzeppelin/contracts/security/ReentrancyGuard.sol\":2468:2487  _status != _ENTERED */\n      sub\n        /* \"@openzeppelin/contracts/security/ReentrancyGuard.sol\":2460:2523  require(_status != _ENTERED, \"ReentrancyGuard: reentrant call\") */\n      tag_362\n      jumpi\n      mload(0x40)\n      0x08c379a000000000000000000000000000000000000000000000000000000000\n      dup2\n      mstore\n      0x04\n      add\n      tag_363\n      swap1\n      tag_364\n      jump\t// in\n    tag_363:\n      mload(0x40)\n      dup1\n      swap2\n      sub\n      swap1\n      revert\n    tag_362:\n        /* \"@openzeppelin/contracts/security/ReentrancyGuard.sol\":1759:1760  2 */\n      0x02\n        /* \"@openzeppelin/contracts/security/ReentrancyGuard.sol\":2598:2605  _status */\n      0x00\n        /* \"@openzeppelin/contracts/security/ReentrancyGuard.sol\":2598:2616  _status = _ENTERED */\n      dup2\n      swap1\n      sstore\n      pop\n        /* \"@openzeppelin/contracts/security/ReentrancyGuard.sol\":2336:2623  function _nonReentrantBefore() private {... */\n      jump\t// out\n        /* \"Contracts/EScrow_cont.sol\":13683:13986  function _getRemainingBalance() internal view returns (uint256) {... */\n    tag_143:\n        /* \"Contracts/EScrow_cont.sol\":13738:13745  uint256 */\n      0x00\n        /* \"Contracts/EScrow_cont.sol\":13758:13773  uint256 balance */\n      0x00\n        /* \"Contracts/EScrow_cont.sol\":13776:13788  paymentToken */\n      immutable(\"0x162f7b8508eeb042919e192a88cd9658d8d9620c570a09aeeef475bc42e39ecf\")\n        /* \"Contracts/EScrow_cont.sol\":13776:13798  paymentToken.balanceOf */\n      0xffffffffffffffffffffffffffffffffffffffff\n      and\n      0x70a08231\n        /* \"Contracts/EScrow_cont.sol\":13807:13811  this */\n      address\n        /* \"Contracts/EScrow_cont.sol\":13776:13813  paymentToken.balanceOf(address(this)) */\n      mload(0x40)\n      dup3\n      0xffffffff\n      and\n      0xe0\n      shl\n      dup2\n      mstore\n      0x04\n      add\n      tag_366\n      swap2\n      swap1\n      tag_43\n      jump\t// in\n    tag_366:\n      0x20\n      mload(0x40)\n      dup1\n      dup4\n      sub\n      dup2\n      dup7\n      gas\n      staticcall\n      iszero\n      dup1\n      iszero\n      tag_368\n      jumpi\n      returndatacopy(0x00, 0x00, returndatasize)\n      revert(0x00, returndatasize)\n    tag_368:\n      pop\n      pop\n      pop\n      pop\n      mload(0x40)\n      returndatasize\n      not(0x1f)\n      0x1f\n      dup3\n      add\n      and\n      dup3\n      add\n      dup1\n      0x40\n      mstore\n      pop\n      dup2\n      add\n      swap1\n      tag_369\n      swap2\n      swap1\n      tag_260\n      jump\t// in\n    tag_369:\n        /* \"Contracts/EScrow_cont.sol\":13758:13813  uint256 balance = paymentToken.balanceOf(address(this)) */\n      swap1\n      pop\n        /* \"Contracts/EScrow_cont.sol\":13887:13907  ProjectState.Created */\n      0x00\n        /* \"Contracts/EScrow_cont.sol\":13878:13907  state == ProjectState.Created */\n      0x04\n      dup2\n      gt\n      iszero\n      tag_370\n      jumpi\n      tag_371\n      tag_134\n      jump\t// in\n    tag_371:\n    tag_370:\n        /* \"Contracts/EScrow_cont.sol\":13878:13883  state */\n      0x01\n      0x00\n      swap1\n      sload\n      swap1\n      0x0100\n      exp\n      swap1\n      div\n      0xff\n      and\n        /* \"Contracts/EScrow_cont.sol\":13878:13907  state == ProjectState.Created */\n      0x04\n      dup2\n      gt\n      iszero\n      tag_372\n      jumpi\n      tag_373\n      tag_134\n      jump\t// in\n    tag_373:\n    tag_372:\n      sub\n        /* \"Contracts/EScrow_cont.sol\":13874:13944  if (state == ProjectState.Created) {... */\n      tag_374\n      jumpi\n        /* \"Contracts/EScrow_cont.sol\":13931:13932  0 */\n      0x00\n        /* \"Contracts/EScrow_cont.sol\":13924:13932  return 0 */\n      swap2\n      pop\n      pop\n      jump(tag_365)\n        /* \"Contracts/EScrow_cont.sol\":13874:13944  if (state == ProjectState.Created) {... */\n    tag_374:\n        /* \"Contracts/EScrow_cont.sol\":13971:13978  balance */\n      dup1\n        /* \"Contracts/EScrow_cont.sol\":13964:13978  return balance */\n      swap2\n      pop\n      pop\n        /* \"Contracts/EScrow_cont.sol\":13683:13986  function _getRemainingBalance() internal view returns (uint256) {... */\n    tag_365:\n      swap1\n      jump\t// out\n        /* \"@openzeppelin/contracts/token/ERC20/utils/SafeERC20.sol\":1219:1379  function safeTransfer(IERC20 token, address to, uint256 value) internal {... */\n    tag_146:\n        /* \"@openzeppelin/contracts/token/ERC20/utils/SafeERC20.sol\":1301:1372  _callOptionalReturn(token, abi.encodeCall(token.transfer, (to, value))) */\n      tag_376\n        /* \"@openzeppelin/contracts/token/ERC20/utils/SafeERC20.sol\":1321:1326  token */\n      dup4\n        /* \"@openzeppelin/contracts/token/ERC20/utils/SafeERC20.sol\":1343:1348  token */\n      dup5\n        /* \"@openzeppelin/contracts/token/ERC20/utils/SafeERC20.sol\":1343:1357  token.transfer */\n      0xffffffffffffffffffffffffffffffffffffffff\n      and\n      0xa9059cbb\n        /* \"@openzeppelin/contracts/token/ERC20/utils/SafeERC20.sol\":1360:1362  to */\n      dup6\n        /* \"@openzeppelin/contracts/token/ERC20/utils/SafeERC20.sol\":1364:1369  value */\n      dup6\n        /* \"@openzeppelin/contracts/token/ERC20/utils/SafeERC20.sol\":1328:1371  abi.encodeCall(token.transfer, (to, value)) */\n      add(0x24, mload(0x40))\n      tag_377\n      swap3\n      swap2\n      swap1\n      tag_39\n      jump\t// in\n    tag_377:\n      mload(0x40)\n      0x20\n      dup2\n      dup4\n      sub\n      sub\n      dup2\n      mstore\n      swap1\n      0x40\n      mstore\n      swap2\n      pop\n      0xe0\n      shl\n      0x20\n      dup3\n      add\n      dup1\n      mload\n      0xffffffffffffffffffffffffffffffffffffffffffffffffffffffff\n      dup4\n      dup2\n      dup4\n      and\n      or\n      dup4\n      mstore\n      pop\n      pop\n      pop\n      pop\n        /* \"@openzeppelin/contracts/token/ERC20/utils/SafeERC20.sol\":1301:1320  _callOptionalReturn */\n      tag_378\n        /* \"@openzeppelin/contracts/token/ERC20/utils/SafeERC20.sol\":1301:1372  _callOptionalReturn(token, abi.encodeCall(token.transfer, (to, value))) */\n      jump\t// in\n    tag_376:\n        /* \"@openzeppelin/contracts/token/ERC20/utils/SafeERC20.sol\":1219:1379  function safeTransfer(IERC20 token, address to, uint256 value) internal {... */\n      pop\n      pop\n      pop\n      jump\t// out\n        /* \"@openzeppelin/contracts/security/ReentrancyGuard.sol\":2629:2838  function _nonReentrantAfter() private {... */\n    tag_150:\n        /* \"@openzeppelin/contracts/security/ReentrancyGuard.sol\":1716:1717  1 */\n      0x01\n        /* \"@openzeppelin/contracts/security/ReentrancyGuard.sol\":2809:2816  _status */\n      0x00\n        /* \"@openzeppelin/contracts/security/ReentrancyGuard.sol\":2809:2831  _status = _NOT_ENTERED */\n      dup2\n      swap1\n      sstore\n      pop\n        /* \"@openzeppelin/contracts/security/ReentrancyGuard.sol\":2629:2838  function _nonReentrantAfter() private {... */\n      jump\t// out\n        /* \"Contracts/EScrow_cont.sol\":12954:13256  function _checkCompletion() internal {... */\n    tag_192:\n        /* \"Contracts/EScrow_cont.sol\":13007:13016  uint256 i */\n      0x00\n        /* \"Contracts/EScrow_cont.sol\":13019:13020  0 */\n      0x00\n        /* \"Contracts/EScrow_cont.sol\":13007:13020  uint256 i = 0 */\n      swap1\n      pop\n        /* \"Contracts/EScrow_cont.sol\":13002:13174  for (uint256 i = 0; i < milestones.length; i++) {... */\n    tag_381:\n        /* \"Contracts/EScrow_cont.sol\":13026:13036  milestones */\n      0x05\n        /* \"Contracts/EScrow_cont.sol\":13026:13043  milestones.length */\n      dup1\n      sload\n      swap1\n      pop\n        /* \"Contracts/EScrow_cont.sol\":13022:13023  i */\n      dup2\n        /* \"Contracts/EScrow_cont.sol\":13022:13043  i < milestones.length */\n      lt\n        /* \"Contracts/EScrow_cont.sol\":13002:13174  for (uint256 i = 0; i < milestones.length; i++) {... */\n      iszero\n      tag_382\n      jumpi\n        /* \"Contracts/EScrow_cont.sol\":13070:13080  milestones */\n      0x05\n        /* \"Contracts/EScrow_cont.sol\":13081:13082  i */\n      dup2\n        /* \"Contracts/EScrow_cont.sol\":13070:13083  milestones[i] */\n      dup2\n      sload\n      dup2\n      lt\n      tag_384\n      jumpi\n      tag_385\n      tag_168\n      jump\t// in\n    tag_385:\n    tag_384:\n      swap1\n      0x00\n      mstore\n      keccak256(0x00, 0x20)\n      swap1\n      0x04\n      mul\n      add\n        /* \"Contracts/EScrow_cont.sol\":13070:13092  milestones[i].released */\n      0x01\n      add\n      0x00\n      swap1\n      sload\n      swap1\n      0x0100\n      exp\n      swap1\n      div\n      0xff\n      and\n        /* \"Contracts/EScrow_cont.sol\":13069:13092  !milestones[i].released */\n      iszero\n        /* \"Contracts/EScrow_cont.sol\":13069:13120  !milestones[i].released && !milestones[i].cancelled */\n      dup1\n      iszero\n      tag_387\n      jumpi\n      pop\n        /* \"Contracts/EScrow_cont.sol\":13097:13107  milestones */\n      0x05\n        /* \"Contracts/EScrow_cont.sol\":13108:13109  i */\n      dup2\n        /* \"Contracts/EScrow_cont.sol\":13097:13110  milestones[i] */\n      dup2\n      sload\n      dup2\n      lt\n      tag_388\n      jumpi\n      tag_389\n      tag_168\n      jump\t// in\n    tag_389:\n    tag_388:\n      swap1\n      0x00\n      mstore\n      keccak256(0x00, 0x20)\n      swap1\n      0x04\n      mul\n      add\n        /* \"Contracts/EScrow_cont.sol\":13097:13120  milestones[i].cancelled */\n      0x01\n      add\n      0x01\n      swap1\n      sload\n      swap1\n      0x0100\n      exp\n      swap1\n      div\n      0xff\n      and\n        /* \"Contracts/EScrow_cont.sol\":13096:13120  !milestones[i].cancelled */\n      iszero\n        /* \"Contracts/EScrow_cont.sol\":13069:13120  !milestones[i].released && !milestones[i].cancelled */\n    tag_387:\n        /* \"Contracts/EScrow_cont.sol\":13065:13163  if (!milestones[i].released && !milestones[i].cancelled) {... */\n      iszero\n      tag_391\n      jumpi\n        /* \"Contracts/EScrow_cont.sol\":13141:13148  return; */\n      pop\n      jump(tag_380)\n        /* \"Contracts/EScrow_cont.sol\":13065:13163  if (!milestones[i].released && !milestones[i].cancelled) {... */\n    tag_391:\n        /* \"Contracts/EScrow_cont.sol\":13045:13048  i++ */\n      dup1\n      dup1\n      0x01\n      add\n      swap2\n      pop\n      pop\n        /* \"Contracts/EScrow_cont.sol\":13002:13174  for (uint256 i = 0; i < milestones.length; i++) {... */\n      jump(tag_381)\n    tag_382:\n      pop\n        /* \"Contracts/EScrow_cont.sol\":13192:13214  ProjectState.Completed */\n      0x02\n        /* \"Contracts/EScrow_cont.sol\":13184:13189  state */\n      0x01\n      0x00\n        /* \"Contracts/EScrow_cont.sol\":13184:13214  state = ProjectState.Completed */\n      0x0100\n      exp\n      dup2\n      sload\n      dup2\n      0xff\n      mul\n      not\n      and\n      swap1\n      dup4\n      0x04\n      dup2\n      gt\n      iszero\n      tag_392\n      jumpi\n      tag_393\n      tag_134\n      jump\t// in\n    tag_393:\n    tag_392:\n      mul\n      or\n      swap1\n      sstore\n      pop\n        /* \"Contracts/EScrow_cont.sol\":13230:13248  ProjectCompleted() */\n      0xe39866727217e43713c3728c5769515e8fb38e990b568b9831c1689dfdf67b66\n      mload(0x40)\n      mload(0x40)\n      dup1\n      swap2\n      sub\n      swap1\n      log1\n        /* \"Contracts/EScrow_cont.sol\":12954:13256  function _checkCompletion() internal {... */\n    tag_380:\n      jump\t// out\n        /* \"@openzeppelin/contracts/token/ERC20/utils/SafeERC20.sol\":1618:1806  function safeTransferFrom(IERC20 token, address from, address to, uint256 value) internal {... */\n    tag_314:\n        /* \"@openzeppelin/contracts/token/ERC20/utils/SafeERC20.sol\":1718:1799  _callOptionalReturn(token, abi.encodeCall(token.transferFrom, (from, to, value))) */\n      tag_395\n        /* \"@openzeppelin/contracts/token/ERC20/utils/SafeERC20.sol\":1738:1743  token */\n      dup5\n        /* \"@openzeppelin/contracts/token/ERC20/utils/SafeERC20.sol\":1760:1765  token */\n      dup6\n        /* \"@openzeppelin/contracts/token/ERC20/utils/SafeERC20.sol\":1760:1778  token.transferFrom */\n      0xffffffffffffffffffffffffffffffffffffffff\n      and\n      0x23b872dd\n        /* \"@openzeppelin/contracts/token/ERC20/utils/SafeERC20.sol\":1781:1785  from */\n      dup7\n        /* \"@openzeppelin/contracts/token/ERC20/utils/SafeERC20.sol\":1787:1789  to */\n      dup7\n        /* \"@openzeppelin/contracts/token/ERC20/utils/SafeERC20.sol\":1791:1796  value */\n      dup7\n        /* \"@openzeppelin/contracts/token/ERC20/utils/SafeERC20.sol\":1745:1798  abi.encodeCall(token.transferFrom, (from, to, value)) */\n      add(0x24, mload(0x40))\n      tag_396\n      swap4\n      swap3\n      swap2\n      swap1\n      tag_397\n      jump\t// in\n    tag_396:\n      mload(0x40)\n      0x20\n      dup2\n      dup4\n      sub\n      sub\n      dup2\n      mstore\n      swap1\n      0x40\n      mstore\n      swap2\n      pop\n      0xe0\n      shl\n      0x20\n      dup3\n      add\n      dup1\n      mload\n      0xffffffffffffffffffffffffffffffffffffffffffffffffffffffff\n      dup4\n      dup2\n      dup4\n      and\n      or\n      dup4\n      mstore\n      pop\n      pop\n      pop\n      pop\n        /* \"@openzeppelin/contracts/token/ERC20/utils/SafeERC20.sol\":1718:1737  _callOptionalReturn */\n      tag_378\n        /* \"@openzeppelin/contracts/token/ERC20/utils/SafeERC20.sol\":1718:1799  _callOptionalReturn(token, abi.encodeCall(token.transferFrom, (from, to, value))) */\n      jump\t// in\n    tag_395:\n        /* \"@openzeppelin/contracts/token/ERC20/utils/SafeERC20.sol\":1618:1806  function safeTransferFrom(IERC20 token, address from, address to, uint256 value) internal {... */\n      pop\n      pop\n      pop\n      pop\n      jump\t// out\n        /* \"Contracts/EScrow_cont.sol\":13329:13606  function _checkCancellation() internal {... */\n    tag_359:\n        /* \"Contracts/EScrow_cont.sol\":13384:13393  uint256 i */\n      0x00\n        /* \"Contracts/EScrow_cont.sol\":13396:13397  0 */\n      0x00\n        /* \"Contracts/EScrow_cont.sol\":13384:13397  uint256 i = 0 */\n      swap1\n      pop\n        /* \"Contracts/EScrow_cont.sol\":13379:13524  for (uint256 i = 0; i < milestones.length; i++) {... */\n    tag_399:\n        /* \"Contracts/EScrow_cont.sol\":13403:13413  milestones */\n      0x05\n        /* \"Contracts/EScrow_cont.sol\":13403:13420  milestones.length */\n      dup1\n      sload\n      swap1\n      pop\n        /* \"Contracts/EScrow_cont.sol\":13399:13400  i */\n      dup2\n        /* \"Contracts/EScrow_cont.sol\":13399:13420  i < milestones.length */\n      lt\n        /* \"Contracts/EScrow_cont.sol\":13379:13524  for (uint256 i = 0; i < milestones.length; i++) {... */\n      iszero\n      tag_400\n      jumpi\n        /* \"Contracts/EScrow_cont.sol\":13447:13457  milestones */\n      0x05\n        /* \"Contracts/EScrow_cont.sol\":13458:13459  i */\n      dup2\n        /* \"Contracts/EScrow_cont.sol\":13447:13460  milestones[i] */\n      dup2\n      sload\n      dup2\n      lt\n      tag_402\n      jumpi\n      tag_403\n      tag_168\n      jump\t// in\n    tag_403:\n    tag_402:\n      swap1\n      0x00\n      mstore\n      keccak256(0x00, 0x20)\n      swap1\n      0x04\n      mul\n      add\n        /* \"Contracts/EScrow_cont.sol\":13447:13470  milestones[i].cancelled */\n      0x01\n      add\n      0x01\n      swap1\n      sload\n      swap1\n      0x0100\n      exp\n      swap1\n      div\n      0xff\n      and\n        /* \"Contracts/EScrow_cont.sol\":13442:13513  if (!milestones[i].cancelled) {... */\n      tag_405\n      jumpi\n        /* \"Contracts/EScrow_cont.sol\":13491:13498  return; */\n      pop\n      jump(tag_398)\n        /* \"Contracts/EScrow_cont.sol\":13442:13513  if (!milestones[i].cancelled) {... */\n    tag_405:\n        /* \"Contracts/EScrow_cont.sol\":13422:13425  i++ */\n      dup1\n      dup1\n      0x01\n      add\n      swap2\n      pop\n      pop\n        /* \"Contracts/EScrow_cont.sol\":13379:13524  for (uint256 i = 0; i < milestones.length; i++) {... */\n      jump(tag_399)\n    tag_400:\n      pop\n        /* \"Contracts/EScrow_cont.sol\":13542:13564  ProjectState.Cancelled */\n      0x03\n        /* \"Contracts/EScrow_cont.sol\":13534:13539  state */\n      0x01\n      0x00\n        /* \"Contracts/EScrow_cont.sol\":13534:13564  state = ProjectState.Cancelled */\n      0x0100\n      exp\n      dup2\n      sload\n      dup2\n      0xff\n      mul\n      not\n      and\n      swap1\n      dup4\n      0x04\n      dup2\n      gt\n      iszero\n      tag_406\n      jumpi\n      tag_407\n      tag_134\n      jump\t// in\n    tag_407:\n    tag_406:\n      mul\n      or\n      swap1\n      sstore\n      pop\n        /* \"Contracts/EScrow_cont.sol\":13580:13598  ProjectCancelled() */\n      0x92c439fda90c70ccdedcb94d28a14f9fda69d67124efbbe9bf905740194228c8\n      mload(0x40)\n      mload(0x40)\n      dup1\n      swap2\n      sub\n      swap1\n      log1\n        /* \"Contracts/EScrow_cont.sol\":13329:13606  function _checkCancellation() internal {... */\n    tag_398:\n      jump\t// out\n        /* \"@openzeppelin/contracts/token/ERC20/utils/SafeERC20.sol\":8370:9090  function _callOptionalReturn(IERC20 token, bytes memory data) private {... */\n    tag_378:\n        /* \"@openzeppelin/contracts/token/ERC20/utils/SafeERC20.sol\":8450:8468  uint256 returnSize */\n      0x00\n        /* \"@openzeppelin/contracts/token/ERC20/utils/SafeERC20.sol\":8478:8497  uint256 returnValue */\n      0x00\n        /* \"@openzeppelin/contracts/token/ERC20/utils/SafeERC20.sol\":8616:8620  0x20 */\n      0x20\n        /* \"@openzeppelin/contracts/token/ERC20/utils/SafeERC20.sol\":8613:8614  0 */\n      0x00\n        /* \"@openzeppelin/contracts/token/ERC20/utils/SafeERC20.sol\":8606:8610  data */\n      dup5\n        /* \"@openzeppelin/contracts/token/ERC20/utils/SafeERC20.sol\":8600:8611  mload(data) */\n      mload\n        /* \"@openzeppelin/contracts/token/ERC20/utils/SafeERC20.sol\":8593:8597  0x20 */\n      0x20\n        /* \"@openzeppelin/contracts/token/ERC20/utils/SafeERC20.sol\":8587:8591  data */\n      dup7\n        /* \"@openzeppelin/contracts/token/ERC20/utils/SafeERC20.sol\":8583:8598  add(data, 0x20) */\n      add\n        /* \"@openzeppelin/contracts/token/ERC20/utils/SafeERC20.sol\":8580:8581  0 */\n      0x00\n        /* \"@openzeppelin/contracts/token/ERC20/utils/SafeERC20.sol\":8573:8578  token */\n      dup9\n        /* \"@openzeppelin/contracts/token/ERC20/utils/SafeERC20.sol\":8566:8571  gas() */\n      gas\n        /* \"@openzeppelin/contracts/token/ERC20/utils/SafeERC20.sol\":8561:8621  call(gas(), token, 0, add(data, 0x20), mload(data), 0, 0x20) */\n      call\n        /* \"@openzeppelin/contracts/token/ERC20/utils/SafeERC20.sol\":8673:8680  success */\n      dup1\n        /* \"@openzeppelin/contracts/token/ERC20/utils/SafeERC20.sol\":8663:8839  if iszero(success) {... */\n      tag_409\n      jumpi\n        /* \"@openzeppelin/contracts/token/ERC20/utils/SafeERC20.sol\":8717:8721  0x40 */\n      0x40\n        /* \"@openzeppelin/contracts/token/ERC20/utils/SafeERC20.sol\":8711:8722  mload(0x40) */\n      mload\n        /* \"@openzeppelin/contracts/token/ERC20/utils/SafeERC20.sol\":8762:8778  returndatasize() */\n      returndatasize\n        /* \"@openzeppelin/contracts/token/ERC20/utils/SafeERC20.sol\":8759:8760  0 */\n      0x00\n        /* \"@openzeppelin/contracts/token/ERC20/utils/SafeERC20.sol\":8754:8757  ptr */\n      dup3\n        /* \"@openzeppelin/contracts/token/ERC20/utils/SafeERC20.sol\":8739:8779  returndatacopy(ptr, 0, returndatasize()) */\n      returndatacopy\n        /* \"@openzeppelin/contracts/token/ERC20/utils/SafeERC20.sol\":8808:8824  returndatasize() */\n      returndatasize\n        /* \"@openzeppelin/contracts/token/ERC20/utils/SafeERC20.sol\":8803:8806  ptr */\n      dup2\n        /* \"@openzeppelin/contracts/token/ERC20/utils/SafeERC20.sol\":8796:8825  revert(ptr, returndatasize()) */\n      revert\n        /* \"@openzeppelin/contracts/token/ERC20/utils/SafeERC20.sol\":8663:8839  if iszero(success) {... */\n    tag_409:\n        /* \"@openzeppelin/contracts/token/ERC20/utils/SafeERC20.sol\":8866:8882  returndatasize() */\n      returndatasize\n        /* \"@openzeppelin/contracts/token/ERC20/utils/SafeERC20.sol\":8852:8882  returnSize := returndatasize() */\n      swap3\n      pop\n        /* \"@openzeppelin/contracts/token/ERC20/utils/SafeERC20.sol\":8916:8917  0 */\n      0x00\n        /* \"@openzeppelin/contracts/token/ERC20/utils/SafeERC20.sol\":8910:8918  mload(0) */\n      mload\n        /* \"@openzeppelin/contracts/token/ERC20/utils/SafeERC20.sol\":8895:8918  returnValue := mload(0) */\n      swap2\n      pop\n        /* \"@openzeppelin/contracts/token/ERC20/utils/SafeERC20.sol\":8532:8928  {... */\n      pop\n        /* \"@openzeppelin/contracts/token/ERC20/utils/SafeERC20.sol\":8956:8957  0 */\n      0x00\n        /* \"@openzeppelin/contracts/token/ERC20/utils/SafeERC20.sol\":8942:8952  returnSize */\n      dup3\n        /* \"@openzeppelin/contracts/token/ERC20/utils/SafeERC20.sol\":8942:8957  returnSize == 0 */\n      eq\n        /* \"@openzeppelin/contracts/token/ERC20/utils/SafeERC20.sol\":8942:9010  returnSize == 0 ? address(token).code.length == 0 : returnValue != 1 */\n      tag_410\n      jumpi\n        /* \"@openzeppelin/contracts/token/ERC20/utils/SafeERC20.sol\":9009:9010  1 */\n      0x01\n        /* \"@openzeppelin/contracts/token/ERC20/utils/SafeERC20.sol\":8994:9005  returnValue */\n      dup2\n        /* \"@openzeppelin/contracts/token/ERC20/utils/SafeERC20.sol\":8994:9010  returnValue != 1 */\n      eq\n      iszero\n        /* \"@openzeppelin/contracts/token/ERC20/utils/SafeERC20.sol\":8942:9010  returnSize == 0 ? address(token).code.length == 0 : returnValue != 1 */\n      jump(tag_411)\n    tag_410:\n        /* \"@openzeppelin/contracts/token/ERC20/utils/SafeERC20.sol\":8990:8991  0 */\n      0x00\n        /* \"@openzeppelin/contracts/token/ERC20/utils/SafeERC20.sol\":8968:8973  token */\n      dup5\n        /* \"@openzeppelin/contracts/token/ERC20/utils/SafeERC20.sol\":8960:8986  address(token).code.length */\n      0xffffffffffffffffffffffffffffffffffffffff\n      and\n      extcodesize\n        /* \"@openzeppelin/contracts/token/ERC20/utils/SafeERC20.sol\":8960:8991  address(token).code.length == 0 */\n      eq\n        /* \"@openzeppelin/contracts/token/ERC20/utils/SafeERC20.sol\":8942:9010  returnSize == 0 ? address(token).code.length == 0 : returnValue != 1 */\n    tag_411:\n        /* \"@openzeppelin/contracts/token/ERC20/utils/SafeERC20.sol\":8938:9084  if (returnSize == 0 ? address(token).code.length == 0 : returnValue != 1) {... */\n      iszero\n      tag_412\n      jumpi\n        /* \"@openzeppelin/contracts/token/ERC20/utils/SafeERC20.sol\":9066:9071  token */\n      dup4\n        /* \"@openzeppelin/contracts/token/ERC20/utils/SafeERC20.sol\":9033:9073  SafeERC20FailedOperation(address(token)) */\n      mload(0x40)\n      0x5274afe700000000000000000000000000000000000000000000000000000000\n      dup2\n      mstore\n      0x04\n      add\n      tag_413\n      swap2\n      swap1\n      tag_43\n      jump\t// in\n    tag_413:\n      mload(0x40)\n      dup1\n      swap2\n      sub\n      swap1\n      revert\n        /* \"@openzeppelin/contracts/token/ERC20/utils/SafeERC20.sol\":8938:9084  if (returnSize == 0 ? address(token).code.length == 0 : returnValue != 1) {... */\n    tag_412:\n        /* \"@openzeppelin/contracts/token/ERC20/utils/SafeERC20.sol\":8440:9090  {... */\n      pop\n      pop\n        /* \"@openzeppelin/contracts/token/ERC20/utils/SafeERC20.sol\":8370:9090  function _callOptionalReturn(IERC20 token, bytes memory data) private {... */\n      pop\n      pop\n      jump\t// out\n        /* \"#utility.yul\":7:133   */\n    tag_414:\n        /* \"#utility.yul\":44:51   */\n      0x00\n        /* \"#utility.yul\":84:126   */\n      0xffffffffffffffffffffffffffffffffffffffff\n        /* \"#utility.yul\":77:82   */\n      dup3\n        /* \"#utility.yul\":73:127   */\n      and\n        /* \"#utility.yul\":62:127   */\n      swap1\n      pop\n        /* \"#utility.yul\":7:133   */\n      swap2\n      swap1\n      pop\n      jump\t// out\n        /* \"#utility.yul\":139:235   */\n    tag_415:\n        /* \"#utility.yul\":176:183   */\n      0x00\n        /* \"#utility.yul\":205:229   */\n      tag_483\n        /* \"#utility.yul\":223:228   */\n      dup3\n        /* \"#utility.yul\":205:229   */\n      tag_414\n      jump\t// in\n    tag_483:\n        /* \"#utility.yul\":194:229   */\n      swap1\n      pop\n        /* \"#utility.yul\":139:235   */\n      swap2\n      swap1\n      pop\n      jump\t// out\n        /* \"#utility.yul\":241:359   */\n    tag_416:\n        /* \"#utility.yul\":328:352   */\n      tag_485\n        /* \"#utility.yul\":346:351   */\n      dup2\n        /* \"#utility.yul\":328:352   */\n      tag_415\n      jump\t// in\n    tag_485:\n        /* \"#utility.yul\":323:326   */\n      dup3\n        /* \"#utility.yul\":316:353   */\n      mstore\n        /* \"#utility.yul\":241:359   */\n      pop\n      pop\n      jump\t// out\n        /* \"#utility.yul\":365:442   */\n    tag_417:\n        /* \"#utility.yul\":402:409   */\n      0x00\n        /* \"#utility.yul\":431:436   */\n      dup2\n        /* \"#utility.yul\":420:436   */\n      swap1\n      pop\n        /* \"#utility.yul\":365:442   */\n      swap2\n      swap1\n      pop\n      jump\t// out\n        /* \"#utility.yul\":448:566   */\n    tag_418:\n        /* \"#utility.yul\":535:559   */\n      tag_488\n        /* \"#utility.yul\":553:558   */\n      dup2\n        /* \"#utility.yul\":535:559   */\n      tag_417\n      jump\t// in\n    tag_488:\n        /* \"#utility.yul\":530:533   */\n      dup3\n        /* \"#utility.yul\":523:560   */\n      mstore\n        /* \"#utility.yul\":448:566   */\n      pop\n      pop\n      jump\t// out\n        /* \"#utility.yul\":572:904   */\n    tag_39:\n        /* \"#utility.yul\":693:697   */\n      0x00\n        /* \"#utility.yul\":731:733   */\n      0x40\n        /* \"#utility.yul\":720:729   */\n      dup3\n        /* \"#utility.yul\":716:734   */\n      add\n        /* \"#utility.yul\":708:734   */\n      swap1\n      pop\n        /* \"#utility.yul\":744:815   */\n      tag_490\n        /* \"#utility.yul\":812:813   */\n      0x00\n        /* \"#utility.yul\":801:810   */\n      dup4\n        /* \"#utility.yul\":797:814   */\n      add\n        /* \"#utility.yul\":788:794   */\n      dup6\n        /* \"#utility.yul\":744:815   */\n      tag_416\n      jump\t// in\n    tag_490:\n        /* \"#utility.yul\":825:897   */\n      tag_491\n        /* \"#utility.yul\":893:895   */\n      0x20\n        /* \"#utility.yul\":882:891   */\n      dup4\n        /* \"#utility.yul\":878:896   */\n      add\n        /* \"#utility.yul\":869:875   */\n      dup5\n        /* \"#utility.yul\":825:897   */\n      tag_418\n      jump\t// in\n    tag_491:\n        /* \"#utility.yul\":572:904   */\n      swap4\n      swap3\n      pop\n      pop\n      pop\n      jump\t// out\n        /* \"#utility.yul\":910:1132   */\n    tag_43:\n        /* \"#utility.yul\":1003:1007   */\n      0x00\n        /* \"#utility.yul\":1041:1043   */\n      0x20\n        /* \"#utility.yul\":1030:1039   */\n      dup3\n        /* \"#utility.yul\":1026:1044   */\n      add\n        /* \"#utility.yul\":1018:1044   */\n      swap1\n      pop\n        /* \"#utility.yul\":1054:1125   */\n      tag_493\n        /* \"#utility.yul\":1122:1123   */\n      0x00\n        /* \"#utility.yul\":1111:1120   */\n      dup4\n        /* \"#utility.yul\":1107:1124   */\n      add\n        /* \"#utility.yul\":1098:1104   */\n      dup5\n        /* \"#utility.yul\":1054:1125   */\n      tag_416\n      jump\t// in\n    tag_493:\n        /* \"#utility.yul\":910:1132   */\n      swap3\n      swap2\n      pop\n      pop\n      jump\t// out\n        /* \"#utility.yul\":1138:1360   */\n    tag_47:\n        /* \"#utility.yul\":1231:1235   */\n      0x00\n        /* \"#utility.yul\":1269:1271   */\n      0x20\n        /* \"#utility.yul\":1258:1267   */\n      dup3\n        /* \"#utility.yul\":1254:1272   */\n      add\n        /* \"#utility.yul\":1246:1272   */\n      swap1\n      pop\n        /* \"#utility.yul\":1282:1353   */\n      tag_495\n        /* \"#utility.yul\":1350:1351   */\n      0x00\n        /* \"#utility.yul\":1339:1348   */\n      dup4\n        /* \"#utility.yul\":1335:1352   */\n      add\n        /* \"#utility.yul\":1326:1332   */\n      dup5\n        /* \"#utility.yul\":1282:1353   */\n      tag_418\n      jump\t// in\n    tag_495:\n        /* \"#utility.yul\":1138:1360   */\n      swap3\n      swap2\n      pop\n      pop\n      jump\t// out\n        /* \"#utility.yul\":1366:1426   */\n    tag_419:\n        /* \"#utility.yul\":1394:1397   */\n      0x00\n        /* \"#utility.yul\":1415:1420   */\n      dup2\n        /* \"#utility.yul\":1408:1420   */\n      swap1\n      pop\n        /* \"#utility.yul\":1366:1426   */\n      swap2\n      swap1\n      pop\n      jump\t// out\n        /* \"#utility.yul\":1432:1574   */\n    tag_420:\n        /* \"#utility.yul\":1482:1491   */\n      0x00\n        /* \"#utility.yul\":1515:1568   */\n      tag_498\n        /* \"#utility.yul\":1533:1567   */\n      tag_499\n        /* \"#utility.yul\":1542:1566   */\n      tag_500\n        /* \"#utility.yul\":1560:1565   */\n      dup5\n        /* \"#utility.yul\":1542:1566   */\n      tag_414\n      jump\t// in\n    tag_500:\n        /* \"#utility.yul\":1533:1567   */\n      tag_419\n      jump\t// in\n    tag_499:\n        /* \"#utility.yul\":1515:1568   */\n      tag_414\n      jump\t// in\n    tag_498:\n        /* \"#utility.yul\":1502:1568   */\n      swap1\n      pop\n        /* \"#utility.yul\":1432:1574   */\n      swap2\n      swap1\n      pop\n      jump\t// out\n        /* \"#utility.yul\":1580:1706   */\n    tag_421:\n        /* \"#utility.yul\":1630:1639   */\n      0x00\n        /* \"#utility.yul\":1663:1700   */\n      tag_502\n        /* \"#utility.yul\":1694:1699   */\n      dup3\n        /* \"#utility.yul\":1663:1700   */\n      tag_420\n      jump\t// in\n    tag_502:\n        /* \"#utility.yul\":1650:1700   */\n      swap1\n      pop\n        /* \"#utility.yul\":1580:1706   */\n      swap2\n      swap1\n      pop\n      jump\t// out\n        /* \"#utility.yul\":1712:1852   */\n    tag_422:\n        /* \"#utility.yul\":1776:1785   */\n      0x00\n        /* \"#utility.yul\":1809:1846   */\n      tag_504\n        /* \"#utility.yul\":1840:1845   */\n      dup3\n        /* \"#utility.yul\":1809:1846   */\n      tag_421\n      jump\t// in\n    tag_504:\n        /* \"#utility.yul\":1796:1846   */\n      swap1\n      pop\n        /* \"#utility.yul\":1712:1852   */\n      swap2\n      swap1\n      pop\n      jump\t// out\n        /* \"#utility.yul\":1858:2017   */\n    tag_423:\n        /* \"#utility.yul\":1959:2010   */\n      tag_506\n        /* \"#utility.yul\":2004:2009   */\n      dup2\n        /* \"#utility.yul\":1959:2010   */\n      tag_422\n      jump\t// in\n    tag_506:\n        /* \"#utility.yul\":1954:1957   */\n      dup3\n        /* \"#utility.yul\":1947:2011   */\n      mstore\n        /* \"#utility.yul\":1858:2017   */\n      pop\n      pop\n      jump\t// out\n        /* \"#utility.yul\":2023:2273   */\n    tag_59:\n        /* \"#utility.yul\":2130:2134   */\n      0x00\n        /* \"#utility.yul\":2168:2170   */\n      0x20\n        /* \"#utility.yul\":2157:2166   */\n      dup3\n        /* \"#utility.yul\":2153:2171   */\n      add\n        /* \"#utility.yul\":2145:2171   */\n      swap1\n      pop\n        /* \"#utility.yul\":2181:2266   */\n      tag_508\n        /* \"#utility.yul\":2263:2264   */\n      0x00\n        /* \"#utility.yul\":2252:2261   */\n      dup4\n        /* \"#utility.yul\":2248:2265   */\n      add\n        /* \"#utility.yul\":2239:2245   */\n      dup5\n        /* \"#utility.yul\":2181:2266   */\n      tag_423\n      jump\t// in\n    tag_508:\n        /* \"#utility.yul\":2023:2273   */\n      swap3\n      swap2\n      pop\n      pop\n      jump\t// out\n        /* \"#utility.yul\":2279:2354   */\n    tag_424:\n        /* \"#utility.yul\":2312:2318   */\n      0x00\n        /* \"#utility.yul\":2345:2347   */\n      0x40\n        /* \"#utility.yul\":2339:2348   */\n      mload\n        /* \"#utility.yul\":2329:2348   */\n      swap1\n      pop\n        /* \"#utility.yul\":2279:2354   */\n      swap1\n      jump\t// out\n        /* \"#utility.yul\":2360:2477   */\n    tag_425:\n        /* \"#utility.yul\":2469:2470   */\n      0x00\n        /* \"#utility.yul\":2466:2467   */\n      0x00\n        /* \"#utility.yul\":2459:2471   */\n      revert\n        /* \"#utility.yul\":2483:2600   */\n    tag_426:\n        /* \"#utility.yul\":2592:2593   */\n      0x00\n        /* \"#utility.yul\":2589:2590   */\n      0x00\n        /* \"#utility.yul\":2582:2594   */\n      revert\n        /* \"#utility.yul\":2606:2728   */\n    tag_427:\n        /* \"#utility.yul\":2679:2703   */\n      tag_513\n        /* \"#utility.yul\":2697:2702   */\n      dup2\n        /* \"#utility.yul\":2679:2703   */\n      tag_417\n      jump\t// in\n    tag_513:\n        /* \"#utility.yul\":2672:2677   */\n      dup2\n        /* \"#utility.yul\":2669:2704   */\n      eq\n        /* \"#utility.yul\":2659:2722   */\n      tag_514\n      jumpi\n        /* \"#utility.yul\":2718:2719   */\n      0x00\n        /* \"#utility.yul\":2715:2716   */\n      0x00\n        /* \"#utility.yul\":2708:2720   */\n      revert\n        /* \"#utility.yul\":2659:2722   */\n    tag_514:\n        /* \"#utility.yul\":2606:2728   */\n      pop\n      jump\t// out\n        /* \"#utility.yul\":2734:2873   */\n    tag_428:\n        /* \"#utility.yul\":2780:2785   */\n      0x00\n        /* \"#utility.yul\":2818:2824   */\n      dup2\n        /* \"#utility.yul\":2805:2825   */\n      calldataload\n        /* \"#utility.yul\":2796:2825   */\n      swap1\n      pop\n        /* \"#utility.yul\":2834:2867   */\n      tag_516\n        /* \"#utility.yul\":2861:2866   */\n      dup2\n        /* \"#utility.yul\":2834:2867   */\n      tag_427\n      jump\t// in\n    tag_516:\n        /* \"#utility.yul\":2734:2873   */\n      swap3\n      swap2\n      pop\n      pop\n      jump\t// out\n        /* \"#utility.yul\":2879:3208   */\n    tag_62:\n        /* \"#utility.yul\":2938:2944   */\n      0x00\n        /* \"#utility.yul\":2987:2989   */\n      0x20\n        /* \"#utility.yul\":2975:2984   */\n      dup3\n        /* \"#utility.yul\":2966:2973   */\n      dup5\n        /* \"#utility.yul\":2962:2985   */\n      sub\n        /* \"#utility.yul\":2958:2990   */\n      slt\n        /* \"#utility.yul\":2955:3074   */\n      iszero\n      tag_518\n      jumpi\n        /* \"#utility.yul\":2993:3072   */\n      tag_519\n      tag_425\n      jump\t// in\n    tag_519:\n        /* \"#utility.yul\":2955:3074   */\n    tag_518:\n        /* \"#utility.yul\":3113:3114   */\n      0x00\n        /* \"#utility.yul\":3138:3191   */\n      tag_520\n        /* \"#utility.yul\":3183:3190   */\n      dup5\n        /* \"#utility.yul\":3174:3180   */\n      dup3\n        /* \"#utility.yul\":3163:3172   */\n      dup6\n        /* \"#utility.yul\":3159:3181   */\n      add\n        /* \"#utility.yul\":3138:3191   */\n      tag_428\n      jump\t// in\n    tag_520:\n        /* \"#utility.yul\":3128:3191   */\n      swap2\n      pop\n        /* \"#utility.yul\":3084:3201   */\n      pop\n        /* \"#utility.yul\":2879:3208   */\n      swap3\n      swap2\n      pop\n      pop\n      jump\t// out\n        /* \"#utility.yul\":3214:3304   */\n    tag_429:\n        /* \"#utility.yul\":3248:3255   */\n      0x00\n        /* \"#utility.yul\":3291:3296   */\n      dup2\n        /* \"#utility.yul\":3284:3297   */\n      iszero\n        /* \"#utility.yul\":3277:3298   */\n      iszero\n        /* \"#utility.yul\":3266:3298   */\n      swap1\n      pop\n        /* \"#utility.yul\":3214:3304   */\n      swap2\n      swap1\n      pop\n      jump\t// out\n        /* \"#utility.yul\":3310:3419   */\n    tag_430:\n        /* \"#utility.yul\":3391:3412   */\n      tag_523\n        /* \"#utility.yul\":3406:3411   */\n      dup2\n        /* \"#utility.yul\":3391:3412   */\n      tag_429\n      jump\t// in\n    tag_523:\n        /* \"#utility.yul\":3386:3389   */\n      dup3\n        /* \"#utility.yul\":3379:3413   */\n      mstore\n        /* \"#utility.yul\":3310:3419   */\n      pop\n      pop\n      jump\t// out\n        /* \"#utility.yul\":3425:3635   */\n    tag_67:\n        /* \"#utility.yul\":3512:3516   */\n      0x00\n        /* \"#utility.yul\":3550:3552   */\n      0x20\n        /* \"#utility.yul\":3539:3548   */\n      dup3\n        /* \"#utility.yul\":3535:3553   */\n      add\n        /* \"#utility.yul\":3527:3553   */\n      swap1\n      pop\n        /* \"#utility.yul\":3563:3628   */\n      tag_525\n        /* \"#utility.yul\":3625:3626   */\n      0x00\n        /* \"#utility.yul\":3614:3623   */\n      dup4\n        /* \"#utility.yul\":3610:3627   */\n      add\n        /* \"#utility.yul\":3601:3607   */\n      dup5\n        /* \"#utility.yul\":3563:3628   */\n      tag_430\n      jump\t// in\n    tag_525:\n        /* \"#utility.yul\":3425:3635   */\n      swap3\n      swap2\n      pop\n      pop\n      jump\t// out\n        /* \"#utility.yul\":3641:3740   */\n    tag_431:\n        /* \"#utility.yul\":3693:3699   */\n      0x00\n        /* \"#utility.yul\":3727:3732   */\n      dup2\n        /* \"#utility.yul\":3721:3733   */\n      mload\n        /* \"#utility.yul\":3711:3733   */\n      swap1\n      pop\n        /* \"#utility.yul\":3641:3740   */\n      swap2\n      swap1\n      pop\n      jump\t// out\n        /* \"#utility.yul\":3746:3915   */\n    tag_432:\n        /* \"#utility.yul\":3830:3841   */\n      0x00\n        /* \"#utility.yul\":3864:3870   */\n      dup3\n        /* \"#utility.yul\":3859:3862   */\n      dup3\n        /* \"#utility.yul\":3852:3871   */\n      mstore\n        /* \"#utility.yul\":3904:3908   */\n      0x20\n        /* \"#utility.yul\":3899:3902   */\n      dup3\n        /* \"#utility.yul\":3895:3909   */\n      add\n        /* \"#utility.yul\":3880:3909   */\n      swap1\n      pop\n        /* \"#utility.yul\":3746:3915   */\n      swap3\n      swap2\n      pop\n      pop\n      jump\t// out\n        /* \"#utility.yul\":3921:4060   */\n    tag_433:\n        /* \"#utility.yul\":4010:4016   */\n      dup3\n        /* \"#utility.yul\":4005:4008   */\n      dup2\n        /* \"#utility.yul\":4000:4003   */\n      dup4\n        /* \"#utility.yul\":3994:4017   */\n      mcopy\n        /* \"#utility.yul\":4051:4052   */\n      0x00\n        /* \"#utility.yul\":4042:4048   */\n      dup4\n        /* \"#utility.yul\":4037:4040   */\n      dup4\n        /* \"#utility.yul\":4033:4049   */\n      add\n        /* \"#utility.yul\":4026:4053   */\n      mstore\n        /* \"#utility.yul\":3921:4060   */\n      pop\n      pop\n      pop\n      jump\t// out\n        /* \"#utility.yul\":4066:4168   */\n    tag_434:\n        /* \"#utility.yul\":4107:4113   */\n      0x00\n        /* \"#utility.yul\":4158:4160   */\n      0x1f\n        /* \"#utility.yul\":4154:4161   */\n      not\n        /* \"#utility.yul\":4149:4151   */\n      0x1f\n        /* \"#utility.yul\":4142:4147   */\n      dup4\n        /* \"#utility.yul\":4138:4152   */\n      add\n        /* \"#utility.yul\":4134:4162   */\n      and\n        /* \"#utility.yul\":4124:4162   */\n      swap1\n      pop\n        /* \"#utility.yul\":4066:4168   */\n      swap2\n      swap1\n      pop\n      jump\t// out\n        /* \"#utility.yul\":4174:4551   */\n    tag_435:\n        /* \"#utility.yul\":4262:4265   */\n      0x00\n        /* \"#utility.yul\":4290:4329   */\n      tag_531\n        /* \"#utility.yul\":4323:4328   */\n      dup3\n        /* \"#utility.yul\":4290:4329   */\n      tag_431\n      jump\t// in\n    tag_531:\n        /* \"#utility.yul\":4345:4416   */\n      tag_532\n        /* \"#utility.yul\":4409:4415   */\n      dup2\n        /* \"#utility.yul\":4404:4407   */\n      dup6\n        /* \"#utility.yul\":4345:4416   */\n      tag_432\n      jump\t// in\n    tag_532:\n        /* \"#utility.yul\":4338:4416   */\n      swap4\n      pop\n        /* \"#utility.yul\":4425:4490   */\n      tag_533\n        /* \"#utility.yul\":4483:4489   */\n      dup2\n        /* \"#utility.yul\":4478:4481   */\n      dup6\n        /* \"#utility.yul\":4471:4475   */\n      0x20\n        /* \"#utility.yul\":4464:4469   */\n      dup7\n        /* \"#utility.yul\":4460:4476   */\n      add\n        /* \"#utility.yul\":4425:4490   */\n      tag_433\n      jump\t// in\n    tag_533:\n        /* \"#utility.yul\":4515:4544   */\n      tag_534\n        /* \"#utility.yul\":4537:4543   */\n      dup2\n        /* \"#utility.yul\":4515:4544   */\n      tag_434\n      jump\t// in\n    tag_534:\n        /* \"#utility.yul\":4510:4513   */\n      dup5\n        /* \"#utility.yul\":4506:4545   */\n      add\n        /* \"#utility.yul\":4499:4545   */\n      swap2\n      pop\n        /* \"#utility.yul\":4266:4551   */\n      pop\n        /* \"#utility.yul\":4174:4551   */\n      swap3\n      swap2\n      pop\n      pop\n      jump\t// out\n        /* \"#utility.yul\":4557:4870   */\n    tag_74:\n        /* \"#utility.yul\":4670:4674   */\n      0x00\n        /* \"#utility.yul\":4708:4710   */\n      0x20\n        /* \"#utility.yul\":4697:4706   */\n      dup3\n        /* \"#utility.yul\":4693:4711   */\n      add\n        /* \"#utility.yul\":4685:4711   */\n      swap1\n      pop\n        /* \"#utility.yul\":4757:4766   */\n      dup2\n        /* \"#utility.yul\":4751:4755   */\n      dup2\n        /* \"#utility.yul\":4747:4767   */\n      sub\n        /* \"#utility.yul\":4743:4744   */\n      0x00\n        /* \"#utility.yul\":4732:4741   */\n      dup4\n        /* \"#utility.yul\":4728:4745   */\n      add\n        /* \"#utility.yul\":4721:4768   */\n      mstore\n        /* \"#utility.yul\":4785:4863   */\n      tag_536\n        /* \"#utility.yul\":4858:4862   */\n      dup2\n        /* \"#utility.yul\":4849:4855   */\n      dup5\n        /* \"#utility.yul\":4785:4863   */\n      tag_435\n      jump\t// in\n    tag_536:\n        /* \"#utility.yul\":4777:4863   */\n      swap1\n      pop\n        /* \"#utility.yul\":4557:4870   */\n      swap3\n      swap2\n      pop\n      pop\n      jump\t// out\n        /* \"#utility.yul\":4876:5016   */\n    tag_436:\n        /* \"#utility.yul\":4969:4975   */\n      0x00\n        /* \"#utility.yul\":5003:5008   */\n      dup2\n        /* \"#utility.yul\":4997:5009   */\n      mload\n        /* \"#utility.yul\":4987:5009   */\n      swap1\n      pop\n        /* \"#utility.yul\":4876:5016   */\n      swap2\n      swap1\n      pop\n      jump\t// out\n        /* \"#utility.yul\":5022:5232   */\n    tag_437:\n        /* \"#utility.yul\":5147:5158   */\n      0x00\n        /* \"#utility.yul\":5181:5187   */\n      dup3\n        /* \"#utility.yul\":5176:5179   */\n      dup3\n        /* \"#utility.yul\":5169:5188   */\n      mstore\n        /* \"#utility.yul\":5221:5225   */\n      0x20\n        /* \"#utility.yul\":5216:5219   */\n      dup3\n        /* \"#utility.yul\":5212:5226   */\n      add\n        /* \"#utility.yul\":5197:5226   */\n      swap1\n      pop\n        /* \"#utility.yul\":5022:5232   */\n      swap3\n      swap2\n      pop\n      pop\n      jump\t// out\n        /* \"#utility.yul\":5238:5396   */\n    tag_438:\n        /* \"#utility.yul\":5331:5335   */\n      0x00\n        /* \"#utility.yul\":5354:5357   */\n      dup2\n        /* \"#utility.yul\":5346:5357   */\n      swap1\n      pop\n        /* \"#utility.yul\":5384:5388   */\n      0x20\n        /* \"#utility.yul\":5379:5382   */\n      dup3\n        /* \"#utility.yul\":5375:5389   */\n      add\n        /* \"#utility.yul\":5367:5389   */\n      swap1\n      pop\n        /* \"#utility.yul\":5238:5396   */\n      swap2\n      swap1\n      pop\n      jump\t// out\n        /* \"#utility.yul\":5402:5510   */\n    tag_439:\n        /* \"#utility.yul\":5479:5503   */\n      tag_541\n        /* \"#utility.yul\":5497:5502   */\n      dup2\n        /* \"#utility.yul\":5479:5503   */\n      tag_417\n      jump\t// in\n    tag_541:\n        /* \"#utility.yul\":5474:5477   */\n      dup3\n        /* \"#utility.yul\":5467:5504   */\n      mstore\n        /* \"#utility.yul\":5402:5510   */\n      pop\n      pop\n      jump\t// out\n        /* \"#utility.yul\":5516:5615   */\n    tag_440:\n        /* \"#utility.yul\":5587:5608   */\n      tag_543\n        /* \"#utility.yul\":5602:5607   */\n      dup2\n        /* \"#utility.yul\":5587:5608   */\n      tag_429\n      jump\t// in\n    tag_543:\n        /* \"#utility.yul\":5582:5585   */\n      dup3\n        /* \"#utility.yul\":5575:5609   */\n      mstore\n        /* \"#utility.yul\":5516:5615   */\n      pop\n      pop\n      jump\t// out\n        /* \"#utility.yul\":5621:5780   */\n    tag_441:\n        /* \"#utility.yul\":5695:5706   */\n      0x00\n        /* \"#utility.yul\":5729:5735   */\n      dup3\n        /* \"#utility.yul\":5724:5727   */\n      dup3\n        /* \"#utility.yul\":5717:5736   */\n      mstore\n        /* \"#utility.yul\":5769:5773   */\n      0x20\n        /* \"#utility.yul\":5764:5767   */\n      dup3\n        /* \"#utility.yul\":5760:5774   */\n      add\n        /* \"#utility.yul\":5745:5774   */\n      swap1\n      pop\n        /* \"#utility.yul\":5621:5780   */\n      swap3\n      swap2\n      pop\n      pop\n      jump\t// out\n        /* \"#utility.yul\":5786:6143   */\n    tag_442:\n        /* \"#utility.yul\":5864:5867   */\n      0x00\n        /* \"#utility.yul\":5892:5931   */\n      tag_546\n        /* \"#utility.yul\":5925:5930   */\n      dup3\n        /* \"#utility.yul\":5892:5931   */\n      tag_431\n      jump\t// in\n    tag_546:\n        /* \"#utility.yul\":5947:6008   */\n      tag_547\n        /* \"#utility.yul\":6001:6007   */\n      dup2\n        /* \"#utility.yul\":5996:5999   */\n      dup6\n        /* \"#utility.yul\":5947:6008   */\n      tag_441\n      jump\t// in\n    tag_547:\n        /* \"#utility.yul\":5940:6008   */\n      swap4\n      pop\n        /* \"#utility.yul\":6017:6082   */\n      tag_548\n        /* \"#utility.yul\":6075:6081   */\n      dup2\n        /* \"#utility.yul\":6070:6073   */\n      dup6\n        /* \"#utility.yul\":6063:6067   */\n      0x20\n        /* \"#utility.yul\":6056:6061   */\n      dup7\n        /* \"#utility.yul\":6052:6068   */\n      add\n        /* \"#utility.yul\":6017:6082   */\n      tag_433\n      jump\t// in\n    tag_548:\n        /* \"#utility.yul\":6107:6136   */\n      tag_549\n        /* \"#utility.yul\":6129:6135   */\n      dup2\n        /* \"#utility.yul\":6107:6136   */\n      tag_434\n      jump\t// in\n    tag_549:\n        /* \"#utility.yul\":6102:6105   */\n      dup5\n        /* \"#utility.yul\":6098:6137   */\n      add\n        /* \"#utility.yul\":6091:6137   */\n      swap2\n      pop\n        /* \"#utility.yul\":5868:6143   */\n      pop\n        /* \"#utility.yul\":5786:6143   */\n      swap3\n      swap2\n      pop\n      pop\n      jump\t// out\n        /* \"#utility.yul\":6237:7367   */\n    tag_443:\n        /* \"#utility.yul\":6348:6351   */\n      0x00\n        /* \"#utility.yul\":6384:6388   */\n      0xa0\n        /* \"#utility.yul\":6379:6382   */\n      dup4\n        /* \"#utility.yul\":6375:6389   */\n      add\n        /* \"#utility.yul\":6473:6477   */\n      0x00\n        /* \"#utility.yul\":6466:6471   */\n      dup4\n        /* \"#utility.yul\":6462:6478   */\n      add\n        /* \"#utility.yul\":6456:6479   */\n      mload\n        /* \"#utility.yul\":6492:6555   */\n      tag_551\n        /* \"#utility.yul\":6549:6553   */\n      0x00\n        /* \"#utility.yul\":6544:6547   */\n      dup7\n        /* \"#utility.yul\":6540:6554   */\n      add\n        /* \"#utility.yul\":6526:6538   */\n      dup3\n        /* \"#utility.yul\":6492:6555   */\n      tag_439\n      jump\t// in\n    tag_551:\n        /* \"#utility.yul\":6399:6565   */\n      pop\n        /* \"#utility.yul\":6651:6655   */\n      0x20\n        /* \"#utility.yul\":6644:6649   */\n      dup4\n        /* \"#utility.yul\":6640:6656   */\n      add\n        /* \"#utility.yul\":6634:6657   */\n      mload\n        /* \"#utility.yul\":6670:6727   */\n      tag_552\n        /* \"#utility.yul\":6721:6725   */\n      0x20\n        /* \"#utility.yul\":6716:6719   */\n      dup7\n        /* \"#utility.yul\":6712:6726   */\n      add\n        /* \"#utility.yul\":6698:6710   */\n      dup3\n        /* \"#utility.yul\":6670:6727   */\n      tag_440\n      jump\t// in\n    tag_552:\n        /* \"#utility.yul\":6575:6737   */\n      pop\n        /* \"#utility.yul\":6824:6828   */\n      0x40\n        /* \"#utility.yul\":6817:6822   */\n      dup4\n        /* \"#utility.yul\":6813:6829   */\n      add\n        /* \"#utility.yul\":6807:6830   */\n      mload\n        /* \"#utility.yul\":6843:6900   */\n      tag_553\n        /* \"#utility.yul\":6894:6898   */\n      0x40\n        /* \"#utility.yul\":6889:6892   */\n      dup7\n        /* \"#utility.yul\":6885:6899   */\n      add\n        /* \"#utility.yul\":6871:6883   */\n      dup3\n        /* \"#utility.yul\":6843:6900   */\n      tag_440\n      jump\t// in\n    tag_553:\n        /* \"#utility.yul\":6747:6910   */\n      pop\n        /* \"#utility.yul\":6996:7000   */\n      0x60\n        /* \"#utility.yul\":6989:6994   */\n      dup4\n        /* \"#utility.yul\":6985:7001   */\n      add\n        /* \"#utility.yul\":6979:7002   */\n      mload\n        /* \"#utility.yul\":7015:7078   */\n      tag_554\n        /* \"#utility.yul\":7072:7076   */\n      0x60\n        /* \"#utility.yul\":7067:7070   */\n      dup7\n        /* \"#utility.yul\":7063:7077   */\n      add\n        /* \"#utility.yul\":7049:7061   */\n      dup3\n        /* \"#utility.yul\":7015:7078   */\n      tag_439\n      jump\t// in\n    tag_554:\n        /* \"#utility.yul\":6920:7088   */\n      pop\n        /* \"#utility.yul\":7177:7181   */\n      0x80\n        /* \"#utility.yul\":7170:7175   */\n      dup4\n        /* \"#utility.yul\":7166:7182   */\n      add\n        /* \"#utility.yul\":7160:7183   */\n      mload\n        /* \"#utility.yul\":7230:7233   */\n      dup5\n        /* \"#utility.yul\":7224:7228   */\n      dup3\n        /* \"#utility.yul\":7220:7234   */\n      sub\n        /* \"#utility.yul\":7213:7217   */\n      0x80\n        /* \"#utility.yul\":7208:7211   */\n      dup7\n        /* \"#utility.yul\":7204:7218   */\n      add\n        /* \"#utility.yul\":7197:7235   */\n      mstore\n        /* \"#utility.yul\":7256:7329   */\n      tag_555\n        /* \"#utility.yul\":7324:7328   */\n      dup3\n        /* \"#utility.yul\":7310:7322   */\n      dup3\n        /* \"#utility.yul\":7256:7329   */\n      tag_442\n      jump\t// in\n    tag_555:\n        /* \"#utility.yul\":7248:7329   */\n      swap2\n      pop\n        /* \"#utility.yul\":7098:7340   */\n      pop\n        /* \"#utility.yul\":7357:7361   */\n      dup1\n        /* \"#utility.yul\":7350:7361   */\n      swap2\n      pop\n        /* \"#utility.yul\":6353:7367   */\n      pop\n        /* \"#utility.yul\":6237:7367   */\n      swap3\n      swap2\n      pop\n      pop\n      jump\t// out\n        /* \"#utility.yul\":7373:7633   */\n    tag_444:\n        /* \"#utility.yul\":7494:7504   */\n      0x00\n        /* \"#utility.yul\":7529:7627   */\n      tag_557\n        /* \"#utility.yul\":7623:7626   */\n      dup4\n        /* \"#utility.yul\":7615:7621   */\n      dup4\n        /* \"#utility.yul\":7529:7627   */\n      tag_443\n      jump\t// in\n    tag_557:\n        /* \"#utility.yul\":7515:7627   */\n      swap1\n      pop\n        /* \"#utility.yul\":7373:7633   */\n      swap3\n      swap2\n      pop\n      pop\n      jump\t// out\n        /* \"#utility.yul\":7639:7778   */\n    tag_445:\n        /* \"#utility.yul\":7735:7739   */\n      0x00\n        /* \"#utility.yul\":7767:7771   */\n      0x20\n        /* \"#utility.yul\":7762:7765   */\n      dup3\n        /* \"#utility.yul\":7758:7772   */\n      add\n        /* \"#utility.yul\":7750:7772   */\n      swap1\n      pop\n        /* \"#utility.yul\":7639:7778   */\n      swap2\n      swap1\n      pop\n      jump\t// out\n        /* \"#utility.yul\":7876:8995   */\n    tag_446:\n        /* \"#utility.yul\":8047:8050   */\n      0x00\n        /* \"#utility.yul\":8076:8156   */\n      tag_560\n        /* \"#utility.yul\":8150:8155   */\n      dup3\n        /* \"#utility.yul\":8076:8156   */\n      tag_436\n      jump\t// in\n    tag_560:\n        /* \"#utility.yul\":8172:8284   */\n      tag_561\n        /* \"#utility.yul\":8277:8283   */\n      dup2\n        /* \"#utility.yul\":8272:8275   */\n      dup6\n        /* \"#utility.yul\":8172:8284   */\n      tag_437\n      jump\t// in\n    tag_561:\n        /* \"#utility.yul\":8165:8284   */\n      swap4\n      pop\n        /* \"#utility.yul\":8310:8313   */\n      dup4\n        /* \"#utility.yul\":8355:8359   */\n      0x20\n        /* \"#utility.yul\":8347:8353   */\n      dup3\n        /* \"#utility.yul\":8343:8360   */\n      mul\n        /* \"#utility.yul\":8338:8341   */\n      dup6\n        /* \"#utility.yul\":8334:8361   */\n      add\n        /* \"#utility.yul\":8385:8467   */\n      tag_562\n        /* \"#utility.yul\":8461:8466   */\n      dup6\n        /* \"#utility.yul\":8385:8467   */\n      tag_438\n      jump\t// in\n    tag_562:\n        /* \"#utility.yul\":8490:8497   */\n      dup1\n        /* \"#utility.yul\":8521:8522   */\n      0x00\n        /* \"#utility.yul\":8506:8950   */\n    tag_563:\n        /* \"#utility.yul\":8531:8537   */\n      dup6\n        /* \"#utility.yul\":8528:8529   */\n      dup2\n        /* \"#utility.yul\":8525:8538   */\n      lt\n        /* \"#utility.yul\":8506:8950   */\n      iszero\n      tag_565\n      jumpi\n        /* \"#utility.yul\":8602:8611   */\n      dup5\n        /* \"#utility.yul\":8596:8600   */\n      dup5\n        /* \"#utility.yul\":8592:8612   */\n      sub\n        /* \"#utility.yul\":8587:8590   */\n      dup10\n        /* \"#utility.yul\":8580:8613   */\n      mstore\n        /* \"#utility.yul\":8653:8659   */\n      dup2\n        /* \"#utility.yul\":8647:8660   */\n      mload\n        /* \"#utility.yul\":8681:8797   */\n      tag_566\n        /* \"#utility.yul\":8792:8796   */\n      dup6\n        /* \"#utility.yul\":8777:8790   */\n      dup3\n        /* \"#utility.yul\":8681:8797   */\n      tag_444\n      jump\t// in\n    tag_566:\n        /* \"#utility.yul\":8673:8797   */\n      swap5\n      pop\n        /* \"#utility.yul\":8820:8906   */\n      tag_567\n        /* \"#utility.yul\":8899:8905   */\n      dup4\n        /* \"#utility.yul\":8820:8906   */\n      tag_445\n      jump\t// in\n    tag_567:\n        /* \"#utility.yul\":8810:8906   */\n      swap3\n      pop\n        /* \"#utility.yul\":8935:8939   */\n      0x20\n        /* \"#utility.yul\":8930:8933   */\n      dup11\n        /* \"#utility.yul\":8926:8940   */\n      add\n        /* \"#utility.yul\":8919:8940   */\n      swap10\n      pop\n        /* \"#utility.yul\":8566:8950   */\n      pop\n        /* \"#utility.yul\":8553:8554   */\n      0x01\n        /* \"#utility.yul\":8550:8551   */\n      dup2\n        /* \"#utility.yul\":8546:8555   */\n      add\n        /* \"#utility.yul\":8541:8555   */\n      swap1\n      pop\n        /* \"#utility.yul\":8506:8950   */\n      jump(tag_563)\n    tag_565:\n        /* \"#utility.yul\":8510:8524   */\n      pop\n        /* \"#utility.yul\":8966:8970   */\n      dup3\n        /* \"#utility.yul\":8959:8970   */\n      swap8\n      pop\n        /* \"#utility.yul\":8986:8989   */\n      dup8\n        /* \"#utility.yul\":8979:8989   */\n      swap6\n      pop\n        /* \"#utility.yul\":8052:8995   */\n      pop\n      pop\n      pop\n      pop\n      pop\n        /* \"#utility.yul\":7876:8995   */\n      swap3\n      swap2\n      pop\n      pop\n      jump\t// out\n        /* \"#utility.yul\":9001:9478   */\n    tag_83:\n        /* \"#utility.yul\":9196:9200   */\n      0x00\n        /* \"#utility.yul\":9234:9236   */\n      0x20\n        /* \"#utility.yul\":9223:9232   */\n      dup3\n        /* \"#utility.yul\":9219:9237   */\n      add\n        /* \"#utility.yul\":9211:9237   */\n      swap1\n      pop\n        /* \"#utility.yul\":9283:9292   */\n      dup2\n        /* \"#utility.yul\":9277:9281   */\n      dup2\n        /* \"#utility.yul\":9273:9293   */\n      sub\n        /* \"#utility.yul\":9269:9270   */\n      0x00\n        /* \"#utility.yul\":9258:9267   */\n      dup4\n        /* \"#utility.yul\":9254:9271   */\n      add\n        /* \"#utility.yul\":9247:9294   */\n      mstore\n        /* \"#utility.yul\":9311:9471   */\n      tag_569\n        /* \"#utility.yul\":9466:9470   */\n      dup2\n        /* \"#utility.yul\":9457:9463   */\n      dup5\n        /* \"#utility.yul\":9311:9471   */\n      tag_446\n      jump\t// in\n    tag_569:\n        /* \"#utility.yul\":9303:9471   */\n      swap1\n      pop\n        /* \"#utility.yul\":9001:9478   */\n      swap3\n      swap2\n      pop\n      pop\n      jump\t// out\n        /* \"#utility.yul\":9484:9601   */\n    tag_447:\n        /* \"#utility.yul\":9593:9594   */\n      0x00\n        /* \"#utility.yul\":9590:9591   */\n      0x00\n        /* \"#utility.yul\":9583:9595   */\n      revert\n        /* \"#utility.yul\":9607:9724   */\n    tag_448:\n        /* \"#utility.yul\":9716:9717   */\n      0x00\n        /* \"#utility.yul\":9713:9714   */\n      0x00\n        /* \"#utility.yul\":9706:9718   */\n      revert\n        /* \"#utility.yul\":9730:9910   */\n    tag_449:\n        /* \"#utility.yul\":9778:9855   */\n      0x4e487b7100000000000000000000000000000000000000000000000000000000\n        /* \"#utility.yul\":9775:9776   */\n      0x00\n        /* \"#utility.yul\":9768:9856   */\n      mstore\n        /* \"#utility.yul\":9875:9879   */\n      0x41\n        /* \"#utility.yul\":9872:9873   */\n      0x04\n        /* \"#utility.yul\":9865:9880   */\n      mstore\n        /* \"#utility.yul\":9899:9903   */\n      0x24\n        /* \"#utility.yul\":9896:9897   */\n      0x00\n        /* \"#utility.yul\":9889:9904   */\n      revert\n        /* \"#utility.yul\":9916:10197   */\n    tag_450:\n        /* \"#utility.yul\":9999:10026   */\n      tag_574\n        /* \"#utility.yul\":10021:10025   */\n      dup3\n        /* \"#utility.yul\":9999:10026   */\n      tag_434\n      jump\t// in\n    tag_574:\n        /* \"#utility.yul\":9991:9997   */\n      dup2\n        /* \"#utility.yul\":9987:10027   */\n      add\n        /* \"#utility.yul\":10129:10135   */\n      dup2\n        /* \"#utility.yul\":10117:10127   */\n      dup2\n        /* \"#utility.yul\":10114:10136   */\n      lt\n        /* \"#utility.yul\":10093:10111   */\n      0xffffffffffffffff\n        /* \"#utility.yul\":10081:10091   */\n      dup3\n        /* \"#utility.yul\":10078:10112   */\n      gt\n        /* \"#utility.yul\":10075:10137   */\n      or\n        /* \"#utility.yul\":10072:10160   */\n      iszero\n      tag_575\n      jumpi\n        /* \"#utility.yul\":10140:10158   */\n      tag_576\n      tag_449\n      jump\t// in\n    tag_576:\n        /* \"#utility.yul\":10072:10160   */\n    tag_575:\n        /* \"#utility.yul\":10180:10190   */\n      dup1\n        /* \"#utility.yul\":10176:10178   */\n      0x40\n        /* \"#utility.yul\":10169:10191   */\n      mstore\n        /* \"#utility.yul\":9959:10197   */\n      pop\n        /* \"#utility.yul\":9916:10197   */\n      pop\n      pop\n      jump\t// out\n        /* \"#utility.yul\":10203:10332   */\n    tag_451:\n        /* \"#utility.yul\":10237:10243   */\n      0x00\n        /* \"#utility.yul\":10264:10284   */\n      tag_578\n      tag_424\n      jump\t// in\n    tag_578:\n        /* \"#utility.yul\":10254:10284   */\n      swap1\n      pop\n        /* \"#utility.yul\":10293:10326   */\n      tag_579\n        /* \"#utility.yul\":10321:10325   */\n      dup3\n        /* \"#utility.yul\":10313:10319   */\n      dup3\n        /* \"#utility.yul\":10293:10326   */\n      tag_450\n      jump\t// in\n    tag_579:\n        /* \"#utility.yul\":10203:10332   */\n      swap2\n      swap1\n      pop\n      jump\t// out\n        /* \"#utility.yul\":10338:10646   */\n    tag_452:\n        /* \"#utility.yul\":10400:10404   */\n      0x00\n        /* \"#utility.yul\":10490:10508   */\n      0xffffffffffffffff\n        /* \"#utility.yul\":10482:10488   */\n      dup3\n        /* \"#utility.yul\":10479:10509   */\n      gt\n        /* \"#utility.yul\":10476:10532   */\n      iszero\n      tag_581\n      jumpi\n        /* \"#utility.yul\":10512:10530   */\n      tag_582\n      tag_449\n      jump\t// in\n    tag_582:\n        /* \"#utility.yul\":10476:10532   */\n    tag_581:\n        /* \"#utility.yul\":10550:10579   */\n      tag_583\n        /* \"#utility.yul\":10572:10578   */\n      dup3\n        /* \"#utility.yul\":10550:10579   */\n      tag_434\n      jump\t// in\n    tag_583:\n        /* \"#utility.yul\":10542:10579   */\n      swap1\n      pop\n        /* \"#utility.yul\":10634:10638   */\n      0x20\n        /* \"#utility.yul\":10628:10632   */\n      dup2\n        /* \"#utility.yul\":10624:10639   */\n      add\n        /* \"#utility.yul\":10616:10639   */\n      swap1\n      pop\n        /* \"#utility.yul\":10338:10646   */\n      swap2\n      swap1\n      pop\n      jump\t// out\n        /* \"#utility.yul\":10652:10800   */\n    tag_453:\n        /* \"#utility.yul\":10750:10756   */\n      dup3\n        /* \"#utility.yul\":10745:10748   */\n      dup2\n        /* \"#utility.yul\":10740:10743   */\n      dup4\n        /* \"#utility.yul\":10727:10757   */\n      calldatacopy\n        /* \"#utility.yul\":10791:10792   */\n      0x00\n        /* \"#utility.yul\":10782:10788   */\n      dup4\n        /* \"#utility.yul\":10777:10780   */\n      dup4\n        /* \"#utility.yul\":10773:10789   */\n      add\n        /* \"#utility.yul\":10766:10793   */\n      mstore\n        /* \"#utility.yul\":10652:10800   */\n      pop\n      pop\n      pop\n      jump\t// out\n        /* \"#utility.yul\":10806:11231   */\n    tag_454:\n        /* \"#utility.yul\":10884:10889   */\n      0x00\n        /* \"#utility.yul\":10909:10975   */\n      tag_586\n        /* \"#utility.yul\":10925:10974   */\n      tag_587\n        /* \"#utility.yul\":10967:10973   */\n      dup5\n        /* \"#utility.yul\":10925:10974   */\n      tag_452\n      jump\t// in\n    tag_587:\n        /* \"#utility.yul\":10909:10975   */\n      tag_451\n      jump\t// in\n    tag_586:\n        /* \"#utility.yul\":10900:10975   */\n      swap1\n      pop\n        /* \"#utility.yul\":10998:11004   */\n      dup3\n        /* \"#utility.yul\":10991:10996   */\n      dup2\n        /* \"#utility.yul\":10984:11005   */\n      mstore\n        /* \"#utility.yul\":11036:11040   */\n      0x20\n        /* \"#utility.yul\":11029:11034   */\n      dup2\n        /* \"#utility.yul\":11025:11041   */\n      add\n        /* \"#utility.yul\":11074:11077   */\n      dup5\n        /* \"#utility.yul\":11065:11071   */\n      dup5\n        /* \"#utility.yul\":11060:11063   */\n      dup5\n        /* \"#utility.yul\":11056:11072   */\n      add\n        /* \"#utility.yul\":11053:11078   */\n      gt\n        /* \"#utility.yul\":11050:11162   */\n      iszero\n      tag_588\n      jumpi\n        /* \"#utility.yul\":11081:11160   */\n      tag_589\n      tag_448\n      jump\t// in\n    tag_589:\n        /* \"#utility.yul\":11050:11162   */\n    tag_588:\n        /* \"#utility.yul\":11171:11225   */\n      tag_590\n        /* \"#utility.yul\":11218:11224   */\n      dup5\n        /* \"#utility.yul\":11213:11216   */\n      dup3\n        /* \"#utility.yul\":11208:11211   */\n      dup6\n        /* \"#utility.yul\":11171:11225   */\n      tag_453\n      jump\t// in\n    tag_590:\n        /* \"#utility.yul\":10890:11231   */\n      pop\n        /* \"#utility.yul\":10806:11231   */\n      swap4\n      swap3\n      pop\n      pop\n      pop\n      jump\t// out\n        /* \"#utility.yul\":11251:11591   */\n    tag_455:\n        /* \"#utility.yul\":11307:11312   */\n      0x00\n        /* \"#utility.yul\":11356:11359   */\n      dup3\n        /* \"#utility.yul\":11349:11353   */\n      0x1f\n        /* \"#utility.yul\":11341:11347   */\n      dup4\n        /* \"#utility.yul\":11337:11354   */\n      add\n        /* \"#utility.yul\":11333:11360   */\n      slt\n        /* \"#utility.yul\":11323:11445   */\n      tag_592\n      jumpi\n        /* \"#utility.yul\":11364:11443   */\n      tag_593\n      tag_447\n      jump\t// in\n    tag_593:\n        /* \"#utility.yul\":11323:11445   */\n    tag_592:\n        /* \"#utility.yul\":11481:11487   */\n      dup2\n        /* \"#utility.yul\":11468:11488   */\n      calldataload\n        /* \"#utility.yul\":11506:11585   */\n      tag_594\n        /* \"#utility.yul\":11581:11584   */\n      dup5\n        /* \"#utility.yul\":11573:11579   */\n      dup3\n        /* \"#utility.yul\":11566:11570   */\n      0x20\n        /* \"#utility.yul\":11558:11564   */\n      dup7\n        /* \"#utility.yul\":11554:11571   */\n      add\n        /* \"#utility.yul\":11506:11585   */\n      tag_454\n      jump\t// in\n    tag_594:\n        /* \"#utility.yul\":11497:11585   */\n      swap2\n      pop\n        /* \"#utility.yul\":11313:11591   */\n      pop\n        /* \"#utility.yul\":11251:11591   */\n      swap3\n      swap2\n      pop\n      pop\n      jump\t// out\n        /* \"#utility.yul\":11597:12106   */\n    tag_89:\n        /* \"#utility.yul\":11666:11672   */\n      0x00\n        /* \"#utility.yul\":11715:11717   */\n      0x20\n        /* \"#utility.yul\":11703:11712   */\n      dup3\n        /* \"#utility.yul\":11694:11701   */\n      dup5\n        /* \"#utility.yul\":11690:11713   */\n      sub\n        /* \"#utility.yul\":11686:11718   */\n      slt\n        /* \"#utility.yul\":11683:11802   */\n      iszero\n      tag_596\n      jumpi\n        /* \"#utility.yul\":11721:11800   */\n      tag_597\n      tag_425\n      jump\t// in\n    tag_597:\n        /* \"#utility.yul\":11683:11802   */\n    tag_596:\n        /* \"#utility.yul\":11869:11870   */\n      0x00\n        /* \"#utility.yul\":11858:11867   */\n      dup3\n        /* \"#utility.yul\":11854:11871   */\n      add\n        /* \"#utility.yul\":11841:11872   */\n      calldataload\n        /* \"#utility.yul\":11899:11917   */\n      0xffffffffffffffff\n        /* \"#utility.yul\":11891:11897   */\n      dup2\n        /* \"#utility.yul\":11888:11918   */\n      gt\n        /* \"#utility.yul\":11885:12002   */\n      iszero\n      tag_598\n      jumpi\n        /* \"#utility.yul\":11921:12000   */\n      tag_599\n      tag_426\n      jump\t// in\n    tag_599:\n        /* \"#utility.yul\":11885:12002   */\n    tag_598:\n        /* \"#utility.yul\":12026:12089   */\n      tag_600\n        /* \"#utility.yul\":12081:12088   */\n      dup5\n        /* \"#utility.yul\":12072:12078   */\n      dup3\n        /* \"#utility.yul\":12061:12070   */\n      dup6\n        /* \"#utility.yul\":12057:12079   */\n      add\n        /* \"#utility.yul\":12026:12089   */\n      tag_455\n      jump\t// in\n    tag_600:\n        /* \"#utility.yul\":12016:12089   */\n      swap2\n      pop\n        /* \"#utility.yul\":11812:12099   */\n      pop\n        /* \"#utility.yul\":11597:12106   */\n      swap3\n      swap2\n      pop\n      pop\n      jump\t// out\n        /* \"#utility.yul\":12112:12292   */\n    tag_134:\n        /* \"#utility.yul\":12160:12237   */\n      0x4e487b7100000000000000000000000000000000000000000000000000000000\n        /* \"#utility.yul\":12157:12158   */\n      0x00\n        /* \"#utility.yul\":12150:12238   */\n      mstore\n        /* \"#utility.yul\":12257:12261   */\n      0x21\n        /* \"#utility.yul\":12254:12255   */\n      0x04\n        /* \"#utility.yul\":12247:12262   */\n      mstore\n        /* \"#utility.yul\":12281:12285   */\n      0x24\n        /* \"#utility.yul\":12278:12279   */\n      0x00\n        /* \"#utility.yul\":12271:12286   */\n      revert\n        /* \"#utility.yul\":12298:12419   */\n    tag_456:\n        /* \"#utility.yul\":12387:12388   */\n      0x05\n        /* \"#utility.yul\":12380:12385   */\n      dup2\n        /* \"#utility.yul\":12377:12389   */\n      lt\n        /* \"#utility.yul\":12367:12413   */\n      tag_603\n      jumpi\n        /* \"#utility.yul\":12393:12411   */\n      tag_604\n      tag_134\n      jump\t// in\n    tag_604:\n        /* \"#utility.yul\":12367:12413   */\n    tag_603:\n        /* \"#utility.yul\":12298:12419   */\n      pop\n      jump\t// out\n        /* \"#utility.yul\":12425:12568   */\n    tag_457:\n        /* \"#utility.yul\":12478:12485   */\n      0x00\n        /* \"#utility.yul\":12507:12512   */\n      dup2\n        /* \"#utility.yul\":12496:12512   */\n      swap1\n      pop\n        /* \"#utility.yul\":12513:12562   */\n      tag_606\n        /* \"#utility.yul\":12556:12561   */\n      dup3\n        /* \"#utility.yul\":12513:12562   */\n      tag_456\n      jump\t// in\n    tag_606:\n        /* \"#utility.yul\":12425:12568   */\n      swap2\n      swap1\n      pop\n      jump\t// out\n        /* \"#utility.yul\":12574:12717   */\n    tag_458:\n        /* \"#utility.yul\":12638:12647   */\n      0x00\n        /* \"#utility.yul\":12671:12711   */\n      tag_608\n        /* \"#utility.yul\":12705:12710   */\n      dup3\n        /* \"#utility.yul\":12671:12711   */\n      tag_457\n      jump\t// in\n    tag_608:\n        /* \"#utility.yul\":12658:12711   */\n      swap1\n      pop\n        /* \"#utility.yul\":12574:12717   */\n      swap2\n      swap1\n      pop\n      jump\t// out\n        /* \"#utility.yul\":12723:12882   */\n    tag_459:\n        /* \"#utility.yul\":12824:12875   */\n      tag_610\n        /* \"#utility.yul\":12869:12874   */\n      dup2\n        /* \"#utility.yul\":12824:12875   */\n      tag_458\n      jump\t// in\n    tag_610:\n        /* \"#utility.yul\":12819:12822   */\n      dup3\n        /* \"#utility.yul\":12812:12876   */\n      mstore\n        /* \"#utility.yul\":12723:12882   */\n      pop\n      pop\n      jump\t// out\n        /* \"#utility.yul\":12888:13138   */\n    tag_108:\n        /* \"#utility.yul\":12995:12999   */\n      0x00\n        /* \"#utility.yul\":13033:13035   */\n      0x20\n        /* \"#utility.yul\":13022:13031   */\n      dup3\n        /* \"#utility.yul\":13018:13036   */\n      add\n        /* \"#utility.yul\":13010:13036   */\n      swap1\n      pop\n        /* \"#utility.yul\":13046:13131   */\n      tag_612\n        /* \"#utility.yul\":13128:13129   */\n      0x00\n        /* \"#utility.yul\":13117:13126   */\n      dup4\n        /* \"#utility.yul\":13113:13130   */\n      add\n        /* \"#utility.yul\":13104:13110   */\n      dup5\n        /* \"#utility.yul\":13046:13131   */\n      tag_459\n      jump\t// in\n    tag_612:\n        /* \"#utility.yul\":12888:13138   */\n      swap3\n      swap2\n      pop\n      pop\n      jump\t// out\n        /* \"#utility.yul\":13144:13875   */\n    tag_120:\n        /* \"#utility.yul\":13357:13361   */\n      0x00\n        /* \"#utility.yul\":13395:13398   */\n      0xa0\n        /* \"#utility.yul\":13384:13393   */\n      dup3\n        /* \"#utility.yul\":13380:13399   */\n      add\n        /* \"#utility.yul\":13372:13399   */\n      swap1\n      pop\n        /* \"#utility.yul\":13409:13480   */\n      tag_614\n        /* \"#utility.yul\":13477:13478   */\n      0x00\n        /* \"#utility.yul\":13466:13475   */\n      dup4\n        /* \"#utility.yul\":13462:13479   */\n      add\n        /* \"#utility.yul\":13453:13459   */\n      dup9\n        /* \"#utility.yul\":13409:13480   */\n      tag_418\n      jump\t// in\n    tag_614:\n        /* \"#utility.yul\":13490:13556   */\n      tag_615\n        /* \"#utility.yul\":13552:13554   */\n      0x20\n        /* \"#utility.yul\":13541:13550   */\n      dup4\n        /* \"#utility.yul\":13537:13555   */\n      add\n        /* \"#utility.yul\":13528:13534   */\n      dup8\n        /* \"#utility.yul\":13490:13556   */\n      tag_430\n      jump\t// in\n    tag_615:\n        /* \"#utility.yul\":13566:13632   */\n      tag_616\n        /* \"#utility.yul\":13628:13630   */\n      0x40\n        /* \"#utility.yul\":13617:13626   */\n      dup4\n        /* \"#utility.yul\":13613:13631   */\n      add\n        /* \"#utility.yul\":13604:13610   */\n      dup7\n        /* \"#utility.yul\":13566:13632   */\n      tag_430\n      jump\t// in\n    tag_616:\n        /* \"#utility.yul\":13642:13714   */\n      tag_617\n        /* \"#utility.yul\":13710:13712   */\n      0x60\n        /* \"#utility.yul\":13699:13708   */\n      dup4\n        /* \"#utility.yul\":13695:13713   */\n      add\n        /* \"#utility.yul\":13686:13692   */\n      dup6\n        /* \"#utility.yul\":13642:13714   */\n      tag_418\n      jump\t// in\n    tag_617:\n        /* \"#utility.yul\":13762:13771   */\n      dup2\n        /* \"#utility.yul\":13756:13760   */\n      dup2\n        /* \"#utility.yul\":13752:13772   */\n      sub\n        /* \"#utility.yul\":13746:13749   */\n      0x80\n        /* \"#utility.yul\":13735:13744   */\n      dup4\n        /* \"#utility.yul\":13731:13750   */\n      add\n        /* \"#utility.yul\":13724:13773   */\n      mstore\n        /* \"#utility.yul\":13790:13868   */\n      tag_618\n        /* \"#utility.yul\":13863:13867   */\n      dup2\n        /* \"#utility.yul\":13854:13860   */\n      dup5\n        /* \"#utility.yul\":13790:13868   */\n      tag_435\n      jump\t// in\n    tag_618:\n        /* \"#utility.yul\":13782:13868   */\n      swap1\n      pop\n        /* \"#utility.yul\":13144:13875   */\n      swap7\n      swap6\n      pop\n      pop\n      pop\n      pop\n      pop\n      pop\n      jump\t// out\n        /* \"#utility.yul\":13881:14061   */\n    tag_168:\n        /* \"#utility.yul\":13929:14006   */\n      0x4e487b7100000000000000000000000000000000000000000000000000000000\n        /* \"#utility.yul\":13926:13927   */\n      0x00\n        /* \"#utility.yul\":13919:14007   */\n      mstore\n        /* \"#utility.yul\":14026:14030   */\n      0x32\n        /* \"#utility.yul\":14023:14024   */\n      0x04\n        /* \"#utility.yul\":14016:14031   */\n      mstore\n        /* \"#utility.yul\":14050:14054   */\n      0x24\n        /* \"#utility.yul\":14047:14048   */\n      0x00\n        /* \"#utility.yul\":14040:14055   */\n      revert\n        /* \"#utility.yul\":14067:14233   */\n    tag_460:\n        /* \"#utility.yul\":14207:14225   */\n      0x416c72656164792072656c656173656400000000000000000000000000000000\n        /* \"#utility.yul\":14203:14204   */\n      0x00\n        /* \"#utility.yul\":14195:14201   */\n      dup3\n        /* \"#utility.yul\":14191:14205   */\n      add\n        /* \"#utility.yul\":14184:14226   */\n      mstore\n        /* \"#utility.yul\":14067:14233   */\n      pop\n      jump\t// out\n        /* \"#utility.yul\":14239:14605   */\n    tag_461:\n        /* \"#utility.yul\":14381:14384   */\n      0x00\n        /* \"#utility.yul\":14402:14469   */\n      tag_622\n        /* \"#utility.yul\":14466:14468   */\n      0x10\n        /* \"#utility.yul\":14461:14464   */\n      dup4\n        /* \"#utility.yul\":14402:14469   */\n      tag_432\n      jump\t// in\n    tag_622:\n        /* \"#utility.yul\":14395:14469   */\n      swap2\n      pop\n        /* \"#utility.yul\":14478:14571   */\n      tag_623\n        /* \"#utility.yul\":14567:14570   */\n      dup3\n        /* \"#utility.yul\":14478:14571   */\n      tag_460\n      jump\t// in\n    tag_623:\n        /* \"#utility.yul\":14596:14598   */\n      0x20\n        /* \"#utility.yul\":14591:14594   */\n      dup3\n        /* \"#utility.yul\":14587:14599   */\n      add\n        /* \"#utility.yul\":14580:14599   */\n      swap1\n      pop\n        /* \"#utility.yul\":14239:14605   */\n      swap2\n      swap1\n      pop\n      jump\t// out\n        /* \"#utility.yul\":14611:15030   */\n    tag_172:\n        /* \"#utility.yul\":14777:14781   */\n      0x00\n        /* \"#utility.yul\":14815:14817   */\n      0x20\n        /* \"#utility.yul\":14804:14813   */\n      dup3\n        /* \"#utility.yul\":14800:14818   */\n      add\n        /* \"#utility.yul\":14792:14818   */\n      swap1\n      pop\n        /* \"#utility.yul\":14864:14873   */\n      dup2\n        /* \"#utility.yul\":14858:14862   */\n      dup2\n        /* \"#utility.yul\":14854:14874   */\n      sub\n        /* \"#utility.yul\":14850:14851   */\n      0x00\n        /* \"#utility.yul\":14839:14848   */\n      dup4\n        /* \"#utility.yul\":14835:14852   */\n      add\n        /* \"#utility.yul\":14828:14875   */\n      mstore\n        /* \"#utility.yul\":14892:15023   */\n      tag_625\n        /* \"#utility.yul\":15018:15022   */\n      dup2\n        /* \"#utility.yul\":14892:15023   */\n      tag_461\n      jump\t// in\n    tag_625:\n        /* \"#utility.yul\":14884:15023   */\n      swap1\n      pop\n        /* \"#utility.yul\":14611:15030   */\n      swap2\n      swap1\n      pop\n      jump\t// out\n        /* \"#utility.yul\":15036:15205   */\n    tag_462:\n        /* \"#utility.yul\":15176:15197   */\n      0x4d696c6573746f6e652063616e63656c6c656400000000000000000000000000\n        /* \"#utility.yul\":15172:15173   */\n      0x00\n        /* \"#utility.yul\":15164:15170   */\n      dup3\n        /* \"#utility.yul\":15160:15174   */\n      add\n        /* \"#utility.yul\":15153:15198   */\n      mstore\n        /* \"#utility.yul\":15036:15205   */\n      pop\n      jump\t// out\n        /* \"#utility.yul\":15211:15577   */\n    tag_463:\n        /* \"#utility.yul\":15353:15356   */\n      0x00\n        /* \"#utility.yul\":15374:15441   */\n      tag_628\n        /* \"#utility.yul\":15438:15440   */\n      0x13\n        /* \"#utility.yul\":15433:15436   */\n      dup4\n        /* \"#utility.yul\":15374:15441   */\n      tag_432\n      jump\t// in\n    tag_628:\n        /* \"#utility.yul\":15367:15441   */\n      swap2\n      pop\n        /* \"#utility.yul\":15450:15543   */\n      tag_629\n        /* \"#utility.yul\":15539:15542   */\n      dup3\n        /* \"#utility.yul\":15450:15543   */\n      tag_462\n      jump\t// in\n    tag_629:\n        /* \"#utility.yul\":15568:15570   */\n      0x20\n        /* \"#utility.yul\":15563:15566   */\n      dup3\n        /* \"#utility.yul\":15559:15571   */\n      add\n        /* \"#utility.yul\":15552:15571   */\n      swap1\n      pop\n        /* \"#utility.yul\":15211:15577   */\n      swap2\n      swap1\n      pop\n      jump\t// out\n        /* \"#utility.yul\":15583:16002   */\n    tag_175:\n        /* \"#utility.yul\":15749:15753   */\n      0x00\n        /* \"#utility.yul\":15787:15789   */\n      0x20\n        /* \"#utility.yul\":15776:15785   */\n      dup3\n        /* \"#utility.yul\":15772:15790   */\n      add\n        /* \"#utility.yul\":15764:15790   */\n      swap1\n      pop\n        /* \"#utility.yul\":15836:15845   */\n      dup2\n        /* \"#utility.yul\":15830:15834   */\n      dup2\n        /* \"#utility.yul\":15826:15846   */\n      sub\n        /* \"#utility.yul\":15822:15823   */\n      0x00\n        /* \"#utility.yul\":15811:15820   */\n      dup4\n        /* \"#utility.yul\":15807:15824   */\n      add\n        /* \"#utility.yul\":15800:15847   */\n      mstore\n        /* \"#utility.yul\":15864:15995   */\n      tag_631\n        /* \"#utility.yul\":15990:15994   */\n      dup2\n        /* \"#utility.yul\":15864:15995   */\n      tag_463\n      jump\t// in\n    tag_631:\n        /* \"#utility.yul\":15856:15995   */\n      swap1\n      pop\n        /* \"#utility.yul\":15583:16002   */\n      swap2\n      swap1\n      pop\n      jump\t// out\n        /* \"#utility.yul\":16008:16188   */\n    tag_464:\n        /* \"#utility.yul\":16056:16133   */\n      0x4e487b7100000000000000000000000000000000000000000000000000000000\n        /* \"#utility.yul\":16053:16054   */\n      0x00\n        /* \"#utility.yul\":16046:16134   */\n      mstore\n        /* \"#utility.yul\":16153:16157   */\n      0x11\n        /* \"#utility.yul\":16150:16151   */\n      0x04\n        /* \"#utility.yul\":16143:16158   */\n      mstore\n        /* \"#utility.yul\":16177:16181   */\n      0x24\n        /* \"#utility.yul\":16174:16175   */\n      0x00\n        /* \"#utility.yul\":16167:16182   */\n      revert\n        /* \"#utility.yul\":16194:16385   */\n    tag_177:\n        /* \"#utility.yul\":16234:16237   */\n      0x00\n        /* \"#utility.yul\":16253:16273   */\n      tag_634\n        /* \"#utility.yul\":16271:16272   */\n      dup3\n        /* \"#utility.yul\":16253:16273   */\n      tag_417\n      jump\t// in\n    tag_634:\n        /* \"#utility.yul\":16248:16273   */\n      swap2\n      pop\n        /* \"#utility.yul\":16287:16307   */\n      tag_635\n        /* \"#utility.yul\":16305:16306   */\n      dup4\n        /* \"#utility.yul\":16287:16307   */\n      tag_417\n      jump\t// in\n    tag_635:\n        /* \"#utility.yul\":16282:16307   */\n      swap3\n      pop\n        /* \"#utility.yul\":16330:16331   */\n      dup3\n        /* \"#utility.yul\":16327:16328   */\n      dup3\n        /* \"#utility.yul\":16323:16332   */\n      add\n        /* \"#utility.yul\":16316:16332   */\n      swap1\n      pop\n        /* \"#utility.yul\":16351:16354   */\n      dup1\n        /* \"#utility.yul\":16348:16349   */\n      dup3\n        /* \"#utility.yul\":16345:16355   */\n      gt\n        /* \"#utility.yul\":16342:16378   */\n      iszero\n      tag_636\n      jumpi\n        /* \"#utility.yul\":16358:16376   */\n      tag_637\n      tag_464\n      jump\t// in\n    tag_637:\n        /* \"#utility.yul\":16342:16378   */\n    tag_636:\n        /* \"#utility.yul\":16194:16385   */\n      swap3\n      swap2\n      pop\n      pop\n      jump\t// out\n        /* \"#utility.yul\":16391:16801   */\n    tag_179:\n        /* \"#utility.yul\":16431:16438   */\n      0x00\n        /* \"#utility.yul\":16454:16474   */\n      tag_639\n        /* \"#utility.yul\":16472:16473   */\n      dup3\n        /* \"#utility.yul\":16454:16474   */\n      tag_417\n      jump\t// in\n    tag_639:\n        /* \"#utility.yul\":16449:16474   */\n      swap2\n      pop\n        /* \"#utility.yul\":16488:16508   */\n      tag_640\n        /* \"#utility.yul\":16506:16507   */\n      dup4\n        /* \"#utility.yul\":16488:16508   */\n      tag_417\n      jump\t// in\n    tag_640:\n        /* \"#utility.yul\":16483:16508   */\n      swap3\n      pop\n        /* \"#utility.yul\":16543:16544   */\n      dup3\n        /* \"#utility.yul\":16540:16541   */\n      dup3\n        /* \"#utility.yul\":16536:16545   */\n      mul\n        /* \"#utility.yul\":16565:16595   */\n      tag_641\n        /* \"#utility.yul\":16583:16594   */\n      dup2\n        /* \"#utility.yul\":16565:16595   */\n      tag_417\n      jump\t// in\n    tag_641:\n        /* \"#utility.yul\":16554:16595   */\n      swap2\n      pop\n        /* \"#utility.yul\":16744:16745   */\n      dup3\n        /* \"#utility.yul\":16735:16742   */\n      dup3\n        /* \"#utility.yul\":16731:16746   */\n      div\n        /* \"#utility.yul\":16728:16729   */\n      dup5\n        /* \"#utility.yul\":16725:16747   */\n      eq\n        /* \"#utility.yul\":16705:16706   */\n      dup4\n        /* \"#utility.yul\":16698:16707   */\n      iszero\n        /* \"#utility.yul\":16678:16761   */\n      or\n        /* \"#utility.yul\":16655:16794   */\n      tag_642\n      jumpi\n        /* \"#utility.yul\":16774:16792   */\n      tag_643\n      tag_464\n      jump\t// in\n    tag_643:\n        /* \"#utility.yul\":16655:16794   */\n    tag_642:\n        /* \"#utility.yul\":16439:16801   */\n      pop\n        /* \"#utility.yul\":16391:16801   */\n      swap3\n      swap2\n      pop\n      pop\n      jump\t// out\n        /* \"#utility.yul\":16807:16987   */\n    tag_465:\n        /* \"#utility.yul\":16855:16932   */\n      0x4e487b7100000000000000000000000000000000000000000000000000000000\n        /* \"#utility.yul\":16852:16853   */\n      0x00\n        /* \"#utility.yul\":16845:16933   */\n      mstore\n        /* \"#utility.yul\":16952:16956   */\n      0x12\n        /* \"#utility.yul\":16949:16950   */\n      0x04\n        /* \"#utility.yul\":16942:16957   */\n      mstore\n        /* \"#utility.yul\":16976:16980   */\n      0x24\n        /* \"#utility.yul\":16973:16974   */\n      0x00\n        /* \"#utility.yul\":16966:16981   */\n      revert\n        /* \"#utility.yul\":16993:17178   */\n    tag_181:\n        /* \"#utility.yul\":17033:17034   */\n      0x00\n        /* \"#utility.yul\":17050:17070   */\n      tag_646\n        /* \"#utility.yul\":17068:17069   */\n      dup3\n        /* \"#utility.yul\":17050:17070   */\n      tag_417\n      jump\t// in\n    tag_646:\n        /* \"#utility.yul\":17045:17070   */\n      swap2\n      pop\n        /* \"#utility.yul\":17084:17104   */\n      tag_647\n        /* \"#utility.yul\":17102:17103   */\n      dup4\n        /* \"#utility.yul\":17084:17104   */\n      tag_417\n      jump\t// in\n    tag_647:\n        /* \"#utility.yul\":17079:17104   */\n      swap3\n      pop\n        /* \"#utility.yul\":17123:17124   */\n      dup3\n        /* \"#utility.yul\":17113:17148   */\n      tag_648\n      jumpi\n        /* \"#utility.yul\":17128:17146   */\n      tag_649\n      tag_465\n      jump\t// in\n    tag_649:\n        /* \"#utility.yul\":17113:17148   */\n    tag_648:\n        /* \"#utility.yul\":17170:17171   */\n      dup3\n        /* \"#utility.yul\":17167:17168   */\n      dup3\n        /* \"#utility.yul\":17163:17172   */\n      div\n        /* \"#utility.yul\":17158:17172   */\n      swap1\n      pop\n        /* \"#utility.yul\":16993:17178   */\n      swap3\n      swap2\n      pop\n      pop\n      jump\t// out\n        /* \"#utility.yul\":17184:17378   */\n    tag_183:\n        /* \"#utility.yul\":17224:17228   */\n      0x00\n        /* \"#utility.yul\":17244:17264   */\n      tag_651\n        /* \"#utility.yul\":17262:17263   */\n      dup3\n        /* \"#utility.yul\":17244:17264   */\n      tag_417\n      jump\t// in\n    tag_651:\n        /* \"#utility.yul\":17239:17264   */\n      swap2\n      pop\n        /* \"#utility.yul\":17278:17298   */\n      tag_652\n        /* \"#utility.yul\":17296:17297   */\n      dup4\n        /* \"#utility.yul\":17278:17298   */\n      tag_417\n      jump\t// in\n    tag_652:\n        /* \"#utility.yul\":17273:17298   */\n      swap3\n      pop\n        /* \"#utility.yul\":17322:17323   */\n      dup3\n        /* \"#utility.yul\":17319:17320   */\n      dup3\n        /* \"#utility.yul\":17315:17324   */\n      sub\n        /* \"#utility.yul\":17307:17324   */\n      swap1\n      pop\n        /* \"#utility.yul\":17346:17347   */\n      dup2\n        /* \"#utility.yul\":17340:17344   */\n      dup2\n        /* \"#utility.yul\":17337:17348   */\n      gt\n        /* \"#utility.yul\":17334:17371   */\n      iszero\n      tag_653\n      jumpi\n        /* \"#utility.yul\":17351:17369   */\n      tag_654\n      tag_464\n      jump\t// in\n    tag_654:\n        /* \"#utility.yul\":17334:17371   */\n    tag_653:\n        /* \"#utility.yul\":17184:17378   */\n      swap3\n      swap2\n      pop\n      pop\n      jump\t// out\n        /* \"#utility.yul\":17384:17716   */\n    tag_190:\n        /* \"#utility.yul\":17505:17509   */\n      0x00\n        /* \"#utility.yul\":17543:17545   */\n      0x40\n        /* \"#utility.yul\":17532:17541   */\n      dup3\n        /* \"#utility.yul\":17528:17546   */\n      add\n        /* \"#utility.yul\":17520:17546   */\n      swap1\n      pop\n        /* \"#utility.yul\":17556:17627   */\n      tag_656\n        /* \"#utility.yul\":17624:17625   */\n      0x00\n        /* \"#utility.yul\":17613:17622   */\n      dup4\n        /* \"#utility.yul\":17609:17626   */\n      add\n        /* \"#utility.yul\":17600:17606   */\n      dup6\n        /* \"#utility.yul\":17556:17627   */\n      tag_418\n      jump\t// in\n    tag_656:\n        /* \"#utility.yul\":17637:17709   */\n      tag_657\n        /* \"#utility.yul\":17705:17707   */\n      0x20\n        /* \"#utility.yul\":17694:17703   */\n      dup4\n        /* \"#utility.yul\":17690:17708   */\n      add\n        /* \"#utility.yul\":17681:17687   */\n      dup5\n        /* \"#utility.yul\":17637:17709   */\n      tag_418\n      jump\t// in\n    tag_657:\n        /* \"#utility.yul\":17384:17716   */\n      swap4\n      swap3\n      pop\n      pop\n      pop\n      jump\t// out\n        /* \"#utility.yul\":17722:17902   */\n    tag_466:\n        /* \"#utility.yul\":17770:17847   */\n      0x4e487b7100000000000000000000000000000000000000000000000000000000\n        /* \"#utility.yul\":17767:17768   */\n      0x00\n        /* \"#utility.yul\":17760:17848   */\n      mstore\n        /* \"#utility.yul\":17867:17871   */\n      0x22\n        /* \"#utility.yul\":17864:17865   */\n      0x04\n        /* \"#utility.yul\":17857:17872   */\n      mstore\n        /* \"#utility.yul\":17891:17895   */\n      0x24\n        /* \"#utility.yul\":17888:17889   */\n      0x00\n        /* \"#utility.yul\":17881:17896   */\n      revert\n        /* \"#utility.yul\":17908:18228   */\n    tag_250:\n        /* \"#utility.yul\":17952:17958   */\n      0x00\n        /* \"#utility.yul\":17989:17990   */\n      0x02\n        /* \"#utility.yul\":17983:17987   */\n      dup3\n        /* \"#utility.yul\":17979:17991   */\n      div\n        /* \"#utility.yul\":17969:17991   */\n      swap1\n      pop\n        /* \"#utility.yul\":18036:18037   */\n      0x01\n        /* \"#utility.yul\":18030:18034   */\n      dup3\n        /* \"#utility.yul\":18026:18038   */\n      and\n        /* \"#utility.yul\":18057:18075   */\n      dup1\n        /* \"#utility.yul\":18047:18128   */\n      tag_660\n      jumpi\n        /* \"#utility.yul\":18113:18117   */\n      0x7f\n        /* \"#utility.yul\":18105:18111   */\n      dup3\n        /* \"#utility.yul\":18101:18118   */\n      and\n        /* \"#utility.yul\":18091:18118   */\n      swap2\n      pop\n        /* \"#utility.yul\":18047:18128   */\n    tag_660:\n        /* \"#utility.yul\":18175:18177   */\n      0x20\n        /* \"#utility.yul\":18167:18173   */\n      dup3\n        /* \"#utility.yul\":18164:18178   */\n      lt\n        /* \"#utility.yul\":18144:18162   */\n      dup2\n        /* \"#utility.yul\":18141:18179   */\n      sub\n        /* \"#utility.yul\":18138:18222   */\n      tag_661\n      jumpi\n        /* \"#utility.yul\":18194:18212   */\n      tag_662\n      tag_466\n      jump\t// in\n    tag_662:\n        /* \"#utility.yul\":18138:18222   */\n    tag_661:\n        /* \"#utility.yul\":17959:18228   */\n      pop\n        /* \"#utility.yul\":17908:18228   */\n      swap2\n      swap1\n      pop\n      jump\t// out\n        /* \"#utility.yul\":18234:18377   */\n    tag_467:\n        /* \"#utility.yul\":18291:18296   */\n      0x00\n        /* \"#utility.yul\":18322:18328   */\n      dup2\n        /* \"#utility.yul\":18316:18329   */\n      mload\n        /* \"#utility.yul\":18307:18329   */\n      swap1\n      pop\n        /* \"#utility.yul\":18338:18371   */\n      tag_664\n        /* \"#utility.yul\":18365:18370   */\n      dup2\n        /* \"#utility.yul\":18338:18371   */\n      tag_427\n      jump\t// in\n    tag_664:\n        /* \"#utility.yul\":18234:18377   */\n      swap3\n      swap2\n      pop\n      pop\n      jump\t// out\n        /* \"#utility.yul\":18383:18734   */\n    tag_260:\n        /* \"#utility.yul\":18453:18459   */\n      0x00\n        /* \"#utility.yul\":18502:18504   */\n      0x20\n        /* \"#utility.yul\":18490:18499   */\n      dup3\n        /* \"#utility.yul\":18481:18488   */\n      dup5\n        /* \"#utility.yul\":18477:18500   */\n      sub\n        /* \"#utility.yul\":18473:18505   */\n      slt\n        /* \"#utility.yul\":18470:18589   */\n      iszero\n      tag_666\n      jumpi\n        /* \"#utility.yul\":18508:18587   */\n      tag_667\n      tag_425\n      jump\t// in\n    tag_667:\n        /* \"#utility.yul\":18470:18589   */\n    tag_666:\n        /* \"#utility.yul\":18628:18629   */\n      0x00\n        /* \"#utility.yul\":18653:18717   */\n      tag_668\n        /* \"#utility.yul\":18709:18716   */\n      dup5\n        /* \"#utility.yul\":18700:18706   */\n      dup3\n        /* \"#utility.yul\":18689:18698   */\n      dup6\n        /* \"#utility.yul\":18685:18707   */\n      add\n        /* \"#utility.yul\":18653:18717   */\n      tag_467\n      jump\t// in\n    tag_668:\n        /* \"#utility.yul\":18643:18717   */\n      swap2\n      pop\n        /* \"#utility.yul\":18599:18727   */\n      pop\n        /* \"#utility.yul\":18383:18734   */\n      swap3\n      swap2\n      pop\n      pop\n      jump\t// out\n        /* \"#utility.yul\":18740:18904   */\n    tag_468:\n        /* \"#utility.yul\":18880:18896   */\n      0x4e6f7420617574686f72697a6564000000000000000000000000000000000000\n        /* \"#utility.yul\":18876:18877   */\n      0x00\n        /* \"#utility.yul\":18868:18874   */\n      dup3\n        /* \"#utility.yul\":18864:18878   */\n      add\n        /* \"#utility.yul\":18857:18897   */\n      mstore\n        /* \"#utility.yul\":18740:18904   */\n      pop\n      jump\t// out\n        /* \"#utility.yul\":18910:19276   */\n    tag_469:\n        /* \"#utility.yul\":19052:19055   */\n      0x00\n        /* \"#utility.yul\":19073:19140   */\n      tag_671\n        /* \"#utility.yul\":19137:19139   */\n      0x0e\n        /* \"#utility.yul\":19132:19135   */\n      dup4\n        /* \"#utility.yul\":19073:19140   */\n      tag_432\n      jump\t// in\n    tag_671:\n        /* \"#utility.yul\":19066:19140   */\n      swap2\n      pop\n        /* \"#utility.yul\":19149:19242   */\n      tag_672\n        /* \"#utility.yul\":19238:19241   */\n      dup3\n        /* \"#utility.yul\":19149:19242   */\n      tag_468\n      jump\t// in\n    tag_672:\n        /* \"#utility.yul\":19267:19269   */\n      0x20\n        /* \"#utility.yul\":19262:19265   */\n      dup3\n        /* \"#utility.yul\":19258:19270   */\n      add\n        /* \"#utility.yul\":19251:19270   */\n      swap1\n      pop\n        /* \"#utility.yul\":18910:19276   */\n      swap2\n      swap1\n      pop\n      jump\t// out\n        /* \"#utility.yul\":19282:19701   */\n    tag_265:\n        /* \"#utility.yul\":19448:19452   */\n      0x00\n        /* \"#utility.yul\":19486:19488   */\n      0x20\n        /* \"#utility.yul\":19475:19484   */\n      dup3\n        /* \"#utility.yul\":19471:19489   */\n      add\n        /* \"#utility.yul\":19463:19489   */\n      swap1\n      pop\n        /* \"#utility.yul\":19535:19544   */\n      dup2\n        /* \"#utility.yul\":19529:19533   */\n      dup2\n        /* \"#utility.yul\":19525:19545   */\n      sub\n        /* \"#utility.yul\":19521:19522   */\n      0x00\n        /* \"#utility.yul\":19510:19519   */\n      dup4\n        /* \"#utility.yul\":19506:19523   */\n      add\n        /* \"#utility.yul\":19499:19546   */\n      mstore\n        /* \"#utility.yul\":19563:19694   */\n      tag_674\n        /* \"#utility.yul\":19689:19693   */\n      dup2\n        /* \"#utility.yul\":19563:19694   */\n      tag_469\n      jump\t// in\n    tag_674:\n        /* \"#utility.yul\":19555:19694   */\n      swap1\n      pop\n        /* \"#utility.yul\":19282:19701   */\n      swap2\n      swap1\n      pop\n      jump\t// out\n        /* \"#utility.yul\":19707:19875   */\n    tag_470:\n        /* \"#utility.yul\":19847:19867   */\n      0x33302064617973206e6f74207061737365640000000000000000000000000000\n        /* \"#utility.yul\":19843:19844   */\n      0x00\n        /* \"#utility.yul\":19835:19841   */\n      dup3\n        /* \"#utility.yul\":19831:19845   */\n      add\n        /* \"#utility.yul\":19824:19868   */\n      mstore\n        /* \"#utility.yul\":19707:19875   */\n      pop\n      jump\t// out\n        /* \"#utility.yul\":19881:20247   */\n    tag_471:\n        /* \"#utility.yul\":20023:20026   */\n      0x00\n        /* \"#utility.yul\":20044:20111   */\n      tag_677\n        /* \"#utility.yul\":20108:20110   */\n      0x12\n        /* \"#utility.yul\":20103:20106   */\n      dup4\n        /* \"#utility.yul\":20044:20111   */\n      tag_432\n      jump\t// in\n    tag_677:\n        /* \"#utility.yul\":20037:20111   */\n      swap2\n      pop\n        /* \"#utility.yul\":20120:20213   */\n      tag_678\n        /* \"#utility.yul\":20209:20212   */\n      dup3\n        /* \"#utility.yul\":20120:20213   */\n      tag_470\n      jump\t// in\n    tag_678:\n        /* \"#utility.yul\":20238:20240   */\n      0x20\n        /* \"#utility.yul\":20233:20236   */\n      dup3\n        /* \"#utility.yul\":20229:20241   */\n      add\n        /* \"#utility.yul\":20222:20241   */\n      swap1\n      pop\n        /* \"#utility.yul\":19881:20247   */\n      swap2\n      swap1\n      pop\n      jump\t// out\n        /* \"#utility.yul\":20253:20672   */\n    tag_293:\n        /* \"#utility.yul\":20419:20423   */\n      0x00\n        /* \"#utility.yul\":20457:20459   */\n      0x20\n        /* \"#utility.yul\":20446:20455   */\n      dup3\n        /* \"#utility.yul\":20442:20460   */\n      add\n        /* \"#utility.yul\":20434:20460   */\n      swap1\n      pop\n        /* \"#utility.yul\":20506:20515   */\n      dup2\n        /* \"#utility.yul\":20500:20504   */\n      dup2\n        /* \"#utility.yul\":20496:20516   */\n      sub\n        /* \"#utility.yul\":20492:20493   */\n      0x00\n        /* \"#utility.yul\":20481:20490   */\n      dup4\n        /* \"#utility.yul\":20477:20494   */\n      add\n        /* \"#utility.yul\":20470:20517   */\n      mstore\n        /* \"#utility.yul\":20534:20665   */\n      tag_680\n        /* \"#utility.yul\":20660:20664   */\n      dup2\n        /* \"#utility.yul\":20534:20665   */\n      tag_471\n      jump\t// in\n    tag_680:\n        /* \"#utility.yul\":20526:20665   */\n      swap1\n      pop\n        /* \"#utility.yul\":20253:20672   */\n      swap2\n      swap1\n      pop\n      jump\t// out\n        /* \"#utility.yul\":20678:20845   */\n    tag_472:\n        /* \"#utility.yul\":20818:20837   */\n      0x416c72656164792063616e63656c6c6564000000000000000000000000000000\n        /* \"#utility.yul\":20814:20815   */\n      0x00\n        /* \"#utility.yul\":20806:20812   */\n      dup3\n        /* \"#utility.yul\":20802:20816   */\n      add\n        /* \"#utility.yul\":20795:20838   */\n      mstore\n        /* \"#utility.yul\":20678:20845   */\n      pop\n      jump\t// out\n        /* \"#utility.yul\":20851:21217   */\n    tag_473:\n        /* \"#utility.yul\":20993:20996   */\n      0x00\n        /* \"#utility.yul\":21014:21081   */\n      tag_683\n        /* \"#utility.yul\":21078:21080   */\n      0x11\n        /* \"#utility.yul\":21073:21076   */\n      dup4\n        /* \"#utility.yul\":21014:21081   */\n      tag_432\n      jump\t// in\n    tag_683:\n        /* \"#utility.yul\":21007:21081   */\n      swap2\n      pop\n        /* \"#utility.yul\":21090:21183   */\n      tag_684\n        /* \"#utility.yul\":21179:21182   */\n      dup3\n        /* \"#utility.yul\":21090:21183   */\n      tag_472\n      jump\t// in\n    tag_684:\n        /* \"#utility.yul\":21208:21210   */\n      0x20\n        /* \"#utility.yul\":21203:21206   */\n      dup3\n        /* \"#utility.yul\":21199:21211   */\n      add\n        /* \"#utility.yul\":21192:21211   */\n      swap1\n      pop\n        /* \"#utility.yul\":20851:21217   */\n      swap2\n      swap1\n      pop\n      jump\t// out\n        /* \"#utility.yul\":21223:21642   */\n    tag_349:\n        /* \"#utility.yul\":21389:21393   */\n      0x00\n        /* \"#utility.yul\":21427:21429   */\n      0x20\n        /* \"#utility.yul\":21416:21425   */\n      dup3\n        /* \"#utility.yul\":21412:21430   */\n      add\n        /* \"#utility.yul\":21404:21430   */\n      swap1\n      pop\n        /* \"#utility.yul\":21476:21485   */\n      dup2\n        /* \"#utility.yul\":21470:21474   */\n      dup2\n        /* \"#utility.yul\":21466:21486   */\n      sub\n        /* \"#utility.yul\":21462:21463   */\n      0x00\n        /* \"#utility.yul\":21451:21460   */\n      dup4\n        /* \"#utility.yul\":21447:21464   */\n      add\n        /* \"#utility.yul\":21440:21487   */\n      mstore\n        /* \"#utility.yul\":21504:21635   */\n      tag_686\n        /* \"#utility.yul\":21630:21634   */\n      dup2\n        /* \"#utility.yul\":21504:21635   */\n      tag_473\n      jump\t// in\n    tag_686:\n        /* \"#utility.yul\":21496:21635   */\n      swap1\n      pop\n        /* \"#utility.yul\":21223:21642   */\n      swap2\n      swap1\n      pop\n      jump\t// out\n        /* \"#utility.yul\":21648:21813   */\n    tag_474:\n        /* \"#utility.yul\":21788:21805   */\n      0x4e6f20646561646c696e65207365740000000000000000000000000000000000\n        /* \"#utility.yul\":21784:21785   */\n      0x00\n        /* \"#utility.yul\":21776:21782   */\n      dup3\n        /* \"#utility.yul\":21772:21786   */\n      add\n        /* \"#utility.yul\":21765:21806   */\n      mstore\n        /* \"#utility.yul\":21648:21813   */\n      pop\n      jump\t// out\n        /* \"#utility.yul\":21819:22185   */\n    tag_475:\n        /* \"#utility.yul\":21961:21964   */\n      0x00\n        /* \"#utility.yul\":21982:22049   */\n      tag_689\n        /* \"#utility.yul\":22046:22048   */\n      0x0f\n        /* \"#utility.yul\":22041:22044   */\n      dup4\n        /* \"#utility.yul\":21982:22049   */\n      tag_432\n      jump\t// in\n    tag_689:\n        /* \"#utility.yul\":21975:22049   */\n      swap2\n      pop\n        /* \"#utility.yul\":22058:22151   */\n      tag_690\n        /* \"#utility.yul\":22147:22150   */\n      dup3\n        /* \"#utility.yul\":22058:22151   */\n      tag_474\n      jump\t// in\n    tag_690:\n        /* \"#utility.yul\":22176:22178   */\n      0x20\n        /* \"#utility.yul\":22171:22174   */\n      dup3\n        /* \"#utility.yul\":22167:22179   */\n      add\n        /* \"#utility.yul\":22160:22179   */\n      swap1\n      pop\n        /* \"#utility.yul\":21819:22185   */\n      swap2\n      swap1\n      pop\n      jump\t// out\n        /* \"#utility.yul\":22191:22610   */\n    tag_352:\n        /* \"#utility.yul\":22357:22361   */\n      0x00\n        /* \"#utility.yul\":22395:22397   */\n      0x20\n        /* \"#utility.yul\":22384:22393   */\n      dup3\n        /* \"#utility.yul\":22380:22398   */\n      add\n        /* \"#utility.yul\":22372:22398   */\n      swap1\n      pop\n        /* \"#utility.yul\":22444:22453   */\n      dup2\n        /* \"#utility.yul\":22438:22442   */\n      dup2\n        /* \"#utility.yul\":22434:22454   */\n      sub\n        /* \"#utility.yul\":22430:22431   */\n      0x00\n        /* \"#utility.yul\":22419:22428   */\n      dup4\n        /* \"#utility.yul\":22415:22432   */\n      add\n        /* \"#utility.yul\":22408:22455   */\n      mstore\n        /* \"#utility.yul\":22472:22603   */\n      tag_692\n        /* \"#utility.yul\":22598:22602   */\n      dup2\n        /* \"#utility.yul\":22472:22603   */\n      tag_475\n      jump\t// in\n    tag_692:\n        /* \"#utility.yul\":22464:22603   */\n      swap1\n      pop\n        /* \"#utility.yul\":22191:22610   */\n      swap2\n      swap1\n      pop\n      jump\t// out\n        /* \"#utility.yul\":22616:22785   */\n    tag_476:\n        /* \"#utility.yul\":22756:22777   */\n      0x446561646c696e65206e6f742070617373656400000000000000000000000000\n        /* \"#utility.yul\":22752:22753   */\n      0x00\n        /* \"#utility.yul\":22744:22750   */\n      dup3\n        /* \"#utility.yul\":22740:22754   */\n      add\n        /* \"#utility.yul\":22733:22778   */\n      mstore\n        /* \"#utility.yul\":22616:22785   */\n      pop\n      jump\t// out\n        /* \"#utility.yul\":22791:23157   */\n    tag_477:\n        /* \"#utility.yul\":22933:22936   */\n      0x00\n        /* \"#utility.yul\":22954:23021   */\n      tag_695\n        /* \"#utility.yul\":23018:23020   */\n      0x13\n        /* \"#utility.yul\":23013:23016   */\n      dup4\n        /* \"#utility.yul\":22954:23021   */\n      tag_432\n      jump\t// in\n    tag_695:\n        /* \"#utility.yul\":22947:23021   */\n      swap2\n      pop\n        /* \"#utility.yul\":23030:23123   */\n      tag_696\n        /* \"#utility.yul\":23119:23122   */\n      dup3\n        /* \"#utility.yul\":23030:23123   */\n      tag_476\n      jump\t// in\n    tag_696:\n        /* \"#utility.yul\":23148:23150   */\n      0x20\n        /* \"#utility.yul\":23143:23146   */\n      dup3\n        /* \"#utility.yul\":23139:23151   */\n      add\n        /* \"#utility.yul\":23132:23151   */\n      swap1\n      pop\n        /* \"#utility.yul\":22791:23157   */\n      swap2\n      swap1\n      pop\n      jump\t// out\n        /* \"#utility.yul\":23163:23582   */\n    tag_355:\n        /* \"#utility.yul\":23329:23333   */\n      0x00\n        /* \"#utility.yul\":23367:23369   */\n      0x20\n        /* \"#utility.yul\":23356:23365   */\n      dup3\n        /* \"#utility.yul\":23352:23370   */\n      add\n        /* \"#utility.yul\":23344:23370   */\n      swap1\n      pop\n        /* \"#utility.yul\":23416:23425   */\n      dup2\n        /* \"#utility.yul\":23410:23414   */\n      dup2\n        /* \"#utility.yul\":23406:23426   */\n      sub\n        /* \"#utility.yul\":23402:23403   */\n      0x00\n        /* \"#utility.yul\":23391:23400   */\n      dup4\n        /* \"#utility.yul\":23387:23404   */\n      add\n        /* \"#utility.yul\":23380:23427   */\n      mstore\n        /* \"#utility.yul\":23444:23575   */\n      tag_698\n        /* \"#utility.yul\":23570:23574   */\n      dup2\n        /* \"#utility.yul\":23444:23575   */\n      tag_477\n      jump\t// in\n    tag_698:\n        /* \"#utility.yul\":23436:23575   */\n      swap1\n      pop\n        /* \"#utility.yul\":23163:23582   */\n      swap2\n      swap1\n      pop\n      jump\t// out\n        /* \"#utility.yul\":23588:23769   */\n    tag_478:\n        /* \"#utility.yul\":23728:23761   */\n      0x5265656e7472616e637947756172643a207265656e7472616e742063616c6c00\n        /* \"#utility.yul\":23724:23725   */\n      0x00\n        /* \"#utility.yul\":23716:23722   */\n      dup3\n        /* \"#utility.yul\":23712:23726   */\n      add\n        /* \"#utility.yul\":23705:23762   */\n      mstore\n        /* \"#utility.yul\":23588:23769   */\n      pop\n      jump\t// out\n        /* \"#utility.yul\":23775:24141   */\n    tag_479:\n        /* \"#utility.yul\":23917:23920   */\n      0x00\n        /* \"#utility.yul\":23938:24005   */\n      tag_701\n        /* \"#utility.yul\":24002:24004   */\n      0x1f\n        /* \"#utility.yul\":23997:24000   */\n      dup4\n        /* \"#utility.yul\":23938:24005   */\n      tag_432\n      jump\t// in\n    tag_701:\n        /* \"#utility.yul\":23931:24005   */\n      swap2\n      pop\n        /* \"#utility.yul\":24014:24107   */\n      tag_702\n        /* \"#utility.yul\":24103:24106   */\n      dup3\n        /* \"#utility.yul\":24014:24107   */\n      tag_478\n      jump\t// in\n    tag_702:\n        /* \"#utility.yul\":24132:24134   */\n      0x20\n        /* \"#utility.yul\":24127:24130   */\n      dup3\n        /* \"#utility.yul\":24123:24135   */\n      add\n        /* \"#utility.yul\":24116:24135   */\n      swap1\n      pop\n        /* \"#utility.yul\":23775:24141   */\n      swap2\n      swap1\n      pop\n      jump\t// out\n        /* \"#utility.yul\":24147:24566   */\n    tag_364:\n        /* \"#utility.yul\":24313:24317   */\n      0x00\n        /* \"#utility.yul\":24351:24353   */\n      0x20\n        /* \"#utility.yul\":24340:24349   */\n      dup3\n        /* \"#utility.yul\":24336:24354   */\n      add\n        /* \"#utility.yul\":24328:24354   */\n      swap1\n      pop\n        /* \"#utility.yul\":24400:24409   */\n      dup2\n        /* \"#utility.yul\":24394:24398   */\n      dup2\n        /* \"#utility.yul\":24390:24410   */\n      sub\n        /* \"#utility.yul\":24386:24387   */\n      0x00\n        /* \"#utility.yul\":24375:24384   */\n      dup4\n        /* \"#utility.yul\":24371:24388   */\n      add\n        /* \"#utility.yul\":24364:24411   */\n      mstore\n        /* \"#utility.yul\":24428:24559   */\n      tag_704\n        /* \"#utility.yul\":24554:24558   */\n      dup2\n        /* \"#utility.yul\":24428:24559   */\n      tag_479\n      jump\t// in\n    tag_704:\n        /* \"#utility.yul\":24420:24559   */\n      swap1\n      pop\n        /* \"#utility.yul\":24147:24566   */\n      swap2\n      swap1\n      pop\n      jump\t// out\n        /* \"#utility.yul\":24572:25014   */\n    tag_397:\n        /* \"#utility.yul\":24721:24725   */\n      0x00\n        /* \"#utility.yul\":24759:24761   */\n      0x60\n        /* \"#utility.yul\":24748:24757   */\n      dup3\n        /* \"#utility.yul\":24744:24762   */\n      add\n        /* \"#utility.yul\":24736:24762   */\n      swap1\n      pop\n        /* \"#utility.yul\":24772:24843   */\n      tag_706\n        /* \"#utility.yul\":24840:24841   */\n      0x00\n        /* \"#utility.yul\":24829:24838   */\n      dup4\n        /* \"#utility.yul\":24825:24842   */\n      add\n        /* \"#utility.yul\":24816:24822   */\n      dup7\n        /* \"#utility.yul\":24772:24843   */\n      tag_416\n      jump\t// in\n    tag_706:\n        /* \"#utility.yul\":24853:24925   */\n      tag_707\n        /* \"#utility.yul\":24921:24923   */\n      0x20\n        /* \"#utility.yul\":24910:24919   */\n      dup4\n        /* \"#utility.yul\":24906:24924   */\n      add\n        /* \"#utility.yul\":24897:24903   */\n      dup6\n        /* \"#utility.yul\":24853:24925   */\n      tag_416\n      jump\t// in\n    tag_707:\n        /* \"#utility.yul\":24935:25007   */\n      tag_708\n        /* \"#utility.yul\":25003:25005   */\n      0x40\n        /* \"#utility.yul\":24992:25001   */\n      dup4\n        /* \"#utility.yul\":24988:25006   */\n      add\n        /* \"#utility.yul\":24979:24985   */\n      dup5\n        /* \"#utility.yul\":24935:25007   */\n      tag_418\n      jump\t// in\n    tag_708:\n        /* \"#utility.yul\":24572:25014   */\n      swap5\n      swap4\n      pop\n      pop\n      pop\n      pop\n      jump\t// out\n\n    auxdata: 0xa2646970667358221220c63d0cf58b078182413b8ec4ddd912a7533859b32e9ef63fdaca6530a66c51d364736f6c634300081e0033\n}\n",
				"bytecode": {
					"linkReferences": {},
					"object": "60e060405234801561000f575f5ffd5b50604051613e22380380613e2283398181016040528101906100319190610886565b60015f819055505f73ffffffffffffffffffffffffffffffffffffffff168673ffffffffffffffffffffffffffffffffffffffff16036100a6576040517f08c379a000000000000000000000000000000000000000000000000000000000815260040161009d906109bd565b60405180910390fd5b5f73ffffffffffffffffffffffffffffffffffffffff168573ffffffffffffffffffffffffffffffffffffffff1603610114576040517f08c379a000000000000000000000000000000000000000000000000000000000815260040161010b90610a25565b60405180910390fd5b5f73ffffffffffffffffffffffffffffffffffffffff168473ffffffffffffffffffffffffffffffffffffffff1603610182576040517f08c379a000000000000000000000000000000000000000000000000000000000815260040161017990610a8d565b60405180910390fd5b8473ffffffffffffffffffffffffffffffffffffffff168673ffffffffffffffffffffffffffffffffffffffff16036101f0576040517f08c379a00000000000000000000000000000000000000000000000000000000081526004016101e790610af5565b60405180910390fd5b5f835111610233576040517f08c379a000000000000000000000000000000000000000000000000000000000815260040161022a90610b5d565b60405180910390fd5b81518351148015610245575080518351145b610284576040517f08c379a000000000000000000000000000000000000000000000000000000000815260040161027b90610bc5565b60405180910390fd5b8573ffffffffffffffffffffffffffffffffffffffff1660808173ffffffffffffffffffffffffffffffffffffffff16815250508473ffffffffffffffffffffffffffffffffffffffff1660a08173ffffffffffffffffffffffffffffffffffffffff16815250508373ffffffffffffffffffffffffffffffffffffffff1660c08173ffffffffffffffffffffffffffffffffffffffff16815250505f5f90505f5f90505b84518110156104cd575f85828151811061034657610345610be3565b5b60200260200101511161038e576040517f08c379a000000000000000000000000000000000000000000000000000000000815260040161038590610c5a565b60405180910390fd5b60056040518060a001604052808784815181106103ae576103ad610be3565b5b602002602001015181526020015f151581526020015f151581526020018684815181106103de576103dd610be3565b5b602002602001015181526020018584815181106103fe576103fd610be3565b5b6020026020010151815250908060018154018082558091505060019003905f5260205f2090600402015f909190919091505f820151815f01556020820151816001015f6101000a81548160ff02191690831515021790555060408201518160010160016101000a81548160ff0219169083151502179055506060820151816002015560808201518160030190816104959190610e7f565b5050508481815181106104ab576104aa610be3565b5b6020026020010151826104be9190610f7b565b91508080600101915050610329565b50806002819055505f60015f6101000a81548160ff021916908360048111156104f9576104f8610fae565b5b021790555050505050505050610fdb565b5f604051905090565b5f5ffd5b5f5ffd5b5f73ffffffffffffffffffffffffffffffffffffffff82169050919050565b5f6105448261051b565b9050919050565b6105548161053a565b811461055e575f5ffd5b50565b5f8151905061056f8161054b565b92915050565b5f5ffd5b5f601f19601f8301169050919050565b7f4e487b71000000000000000000000000000000000000000000000000000000005f52604160045260245ffd5b6105bf82610579565b810181811067ffffffffffffffff821117156105de576105dd610589565b5b80604052505050565b5f6105f061050a565b90506105fc82826105b6565b919050565b5f67ffffffffffffffff82111561061b5761061a610589565b5b602082029050602081019050919050565b5f5ffd5b5f819050919050565b61064281610630565b811461064c575f5ffd5b50565b5f8151905061065d81610639565b92915050565b5f61067561067084610601565b6105e7565b905080838252602082019050602084028301858111156106985761069761062c565b5b835b818110156106c157806106ad888261064f565b84526020840193505060208101905061069a565b5050509392505050565b5f82601f8301126106df576106de610575565b5b81516106ef848260208601610663565b91505092915050565b5f67ffffffffffffffff82111561071257610711610589565b5b602082029050602081019050919050565b5f5ffd5b5f67ffffffffffffffff82111561074157610740610589565b5b61074a82610579565b9050602081019050919050565b8281835e5f83830152505050565b5f61077761077284610727565b6105e7565b90508281526020810184848401111561079357610792610723565b5b61079e848285610757565b509392505050565b5f82601f8301126107ba576107b9610575565b5b81516107ca848260208601610765565b91505092915050565b5f6107e56107e0846106f8565b6105e7565b905080838252602082019050602084028301858111156108085761080761062c565b5b835b8181101561084f57805167ffffffffffffffff81111561082d5761082c610575565b5b80860161083a89826107a6565b8552602085019450505060208101905061080a565b5050509392505050565b5f82601f83011261086d5761086c610575565b5b815161087d8482602086016107d3565b91505092915050565b5f5f5f5f5f5f60c087890312156108a05761089f610513565b5b5f6108ad89828a01610561565b96505060206108be89828a01610561565b95505060406108cf89828a01610561565b945050606087015167ffffffffffffffff8111156108f0576108ef610517565b5b6108fc89828a016106cb565b935050608087015167ffffffffffffffff81111561091d5761091c610517565b5b61092989828a016106cb565b92505060a087015167ffffffffffffffff81111561094a57610949610517565b5b61095689828a01610859565b9150509295509295509295565b5f82825260208201905092915050565b7f496e76616c69642066756e6465720000000000000000000000000000000000005f82015250565b5f6109a7600e83610963565b91506109b282610973565b602082019050919050565b5f6020820190508181035f8301526109d48161099b565b9050919050565b7f496e76616c696420646576656c6f7065720000000000000000000000000000005f82015250565b5f610a0f601183610963565b9150610a1a826109db565b602082019050919050565b5f6020820190508181035f830152610a3c81610a03565b9050919050565b7f496e76616c696420746f6b656e000000000000000000000000000000000000005f82015250565b5f610a77600d83610963565b9150610a8282610a43565b602082019050919050565b5f6020820190508181035f830152610aa481610a6b565b9050919050565b7f46756e6465722063616e6e6f7420626520646576656c6f7065720000000000005f82015250565b5f610adf601a83610963565b9150610aea82610aab565b602082019050919050565b5f6020820190508181035f830152610b0c81610ad3565b9050919050565b7f4e6f206d696c6573746f6e6573000000000000000000000000000000000000005f82015250565b5f610b47600d83610963565b9150610b5282610b13565b602082019050919050565b5f6020820190508181035f830152610b7481610b3b565b9050919050565b7f496e76616c6964206d696c6573746f6e652061727261797300000000000000005f82015250565b5f610baf601883610963565b9150610bba82610b7b565b602082019050919050565b5f6020820190508181035f830152610bdc81610ba3565b9050919050565b7f4e487b71000000000000000000000000000000000000000000000000000000005f52603260045260245ffd5b7f5a65726f206d696c6573746f6e6520616d6f756e7400000000000000000000005f82015250565b5f610c44601583610963565b9150610c4f82610c10565b602082019050919050565b5f6020820190508181035f830152610c7181610c38565b9050919050565b5f81519050919050565b7f4e487b71000000000000000000000000000000000000000000000000000000005f52602260045260245ffd5b5f6002820490506001821680610cc657607f821691505b602082108103610cd957610cd8610c82565b5b50919050565b5f819050815f5260205f209050919050565b5f6020601f8301049050919050565b5f82821b905092915050565b5f60088302610d3b7fffffffffffffffffffffffffffffffffffffffffffffffffffffffffffffffff82610d00565b610d458683610d00565b95508019841693508086168417925050509392505050565b5f819050919050565b5f610d80610d7b610d7684610630565b610d5d565b610630565b9050919050565b5f819050919050565b610d9983610d66565b610dad610da582610d87565b848454610d0c565b825550505050565b5f5f905090565b610dc4610db5565b610dcf818484610d90565b505050565b5b81811015610df257610de75f82610dbc565b600181019050610dd5565b5050565b601f821115610e3757610e0881610cdf565b610e1184610cf1565b81016020851015610e20578190505b610e34610e2c85610cf1565b830182610dd4565b50505b505050565b5f82821c905092915050565b5f610e575f1984600802610e3c565b1980831691505092915050565b5f610e6f8383610e48565b9150826002028217905092915050565b610e8882610c78565b67ffffffffffffffff811115610ea157610ea0610589565b5b610eab8254610caf565b610eb6828285610df6565b5f60209050601f831160018114610ee7575f8415610ed5578287015190505b610edf8582610e64565b865550610f46565b601f198416610ef586610cdf565b5f5b82811015610f1c57848901518255600182019150602085019450602081019050610ef7565b86831015610f395784890151610f35601f891682610e48565b8355505b6001600288020188555050505b505050505050565b7f4e487b71000000000000000000000000000000000000000000000000000000005f52601160045260245ffd5b5f610f8582610630565b9150610f9083610630565b9250828201905080821115610fa857610fa7610f4e565b5b92915050565b7f4e487b71000000000000000000000000000000000000000000000000000000005f52602160045260245ffd5b60805160a05160c051612d8361109f5f395f8181610644015281816106fb015281816109a801528181610a8e01528181610f4901528181611164015281816115810152818161177b01528181611c4f0152611d3501525f8181610a6c01528181611256015281816113fc0152818161155f015261184701525f81816104dc01528181610512015281816106220152818161071f01528181610e1701528181610f27015281816112010152818161167a0152818161197f0152611c2a0152612d835ff3fe608060405234801561000f575f5ffd5b50600436106101a6575f3560e01c8063629e4ed0116100f7578063b95d8dd411610095578063dca783881161006f578063dca783881461041b578063e89e4ed61461044b578063ebd090541461047f578063f75fdcaa1461049d576101a6565b8063b95d8dd4146103c1578063c19d93fb146103df578063ca4b208b146103fd576101a6565b806399a5d747116100d157806399a5d7471461035f578063a525ad3c1461038f578063b4f5a711146103ad578063b60d4288146103b7576101a6565b8063629e4ed0146103075780636f9fb98a14610325578063725a3b4b14610343576101a6565b80633013ce291161016457806345d30a171161013e57806345d30a17146102a35780634e69d560146102c15780635ac482d1146102df57806360c6d8ae146102e9576101a6565b80633013ce291461024b578063317debf5146102695780633ddb47b414610285576101a6565b806202eab7146101aa578063041ae880146101c95780630681ca55146101e75780631a39d8ef146102055780631adff0ee146102235780632fba2c851461022d575b5f5ffd5b6101b26104b9565b6040516101c09291906121b6565b60405180910390f35b6101d16104da565b6040516101de91906121dd565b60405180910390f35b6101ef6104fe565b6040516101fc91906121f6565b60405180910390f35b61020d61050a565b60405161021a91906121f6565b60405180910390f35b61022b610510565b005b6102356106eb565b60405161024291906121f6565b60405180910390f35b6102536106f9565b604051610260919061226a565b60405180910390f35b610283600480360381019061027e91906122be565b61071d565b005b61028d610b24565b60405161029a9190612303565b60405180910390f35b6102ab610b80565b6040516102b891906121f6565b60405180910390f35b6102c9610b86565b6040516102d6919061238c565b60405180910390f35b6102e7610e15565b005b6102f1611027565b6040516102fe91906121f6565b60405180910390f35b61030f61102d565b60405161031c9190612540565b60405180910390f35b61032d611161565b60405161033a91906121f6565b60405180910390f35b61035d6004803603810190610358919061268c565b6111ff565b005b610379600480360381019061037491906122be565b6113d3565b60405161038691906121f6565b60405180910390f35b6103976113f5565b6040516103a491906121f6565b60405180910390f35b6103b56113fa565b005b6103bf611678565b005b6103c961182d565b6040516103d691906121f6565b60405180910390f35b6103e7611833565b6040516103f49190612746565b60405180910390f35b610405611845565b60405161041291906121dd565b60405180910390f35b610435600480360381019061043091906122be565b611869565b60405161044291906121f6565b60405180910390f35b610465600480360381019061046091906122be565b611885565b60405161047695949392919061275f565b60405180910390f35b610487611965565b60405161049491906121dd565b60405180910390f35b6104b760048036038101906104b291906122be565b61197d565b005b5f5f73c869d7a99fa831b4b3bee7e245f0c9348c2209a36096915091509091565b7f000000000000000000000000000000000000000000000000000000000000000081565b5f600580549050905090565b60025481565b7f000000000000000000000000000000000000000000000000000000000000000073ffffffffffffffffffffffffffffffffffffffff163373ffffffffffffffffffffffffffffffffffffffff1614610595576040517fa598aebe00000000000000000000000000000000000000000000000000000000815260040160405180910390fd5b60018060048111156105aa576105a96126d3565b5b60015f9054906101000a900460ff1660048111156105cb576105ca6126d3565b5b14610602576040517fbaf3f0f700000000000000000000000000000000000000000000000000000000815260040160405180910390fd5b61060a611ce4565b5f610613611d31565b90505f811115610689576106887f0000000000000000000000000000000000000000000000000000000000000000827f000000000000000000000000000000000000000000000000000000000000000073ffffffffffffffffffffffffffffffffffffffff16611e179092919063ffffffff16565b5b600360015f6101000a81548160ff021916908360048111156106ae576106ad6126d3565b5b02179055507f92c439fda90c70ccdedcb94d28a14f9fda69d67124efbbe9bf905740194228c860405160405180910390a1506106e8611e96565b50565b5f6106f4611d31565b905090565b7f000000000000000000000000000000000000000000000000000000000000000081565b7f000000000000000000000000000000000000000000000000000000000000000073ffffffffffffffffffffffffffffffffffffffff163373ffffffffffffffffffffffffffffffffffffffff16146107a2576040517fa598aebe00000000000000000000000000000000000000000000000000000000815260040160405180910390fd5b60018060048111156107b7576107b66126d3565b5b60015f9054906101000a900460ff1660048111156107d8576107d76126d3565b5b1461080f576040517fbaf3f0f700000000000000000000000000000000000000000000000000000000815260040160405180910390fd5b81600580549050811061084e576040517fba11734000000000000000000000000000000000000000000000000000000000815260040160405180910390fd5b610856611ce4565b5f6005848154811061086b5761086a6127b7565b5b905f5260205f2090600402019050806001015f9054906101000a900460ff16156108ca576040517f08c379a00000000000000000000000000000000000000000000000000000000081526004016108c19061282e565b60405180910390fd5b8060010160019054906101000a900460ff161561091c576040517f08c379a000000000000000000000000000000000000000000000000000000000815260040161091390612896565b60405180910390fd5b6001816001015f6101000a81548160ff021916908315150217905550805f015460035f82825461094c91906128e1565b925050819055505f6127106096835f01546109679190612914565b6109719190612982565b90505f81835f015461098391906129b2565b90505f821115610a67576109ec73c869d7a99fa831b4b3bee7e245f0c9348c2209a3837f000000000000000000000000000000000000000000000000000000000000000073ffffffffffffffffffffffffffffffffffffffff16611e179092919063ffffffff16565b8160045f8282546109fd91906128e1565b9250508190555073c869d7a99fa831b4b3bee7e245f0c9348c2209a373ffffffffffffffffffffffffffffffffffffffff167f421cbbbb1785f7266e99384e78e4f325fe3d7ae36b352351621e7f3b7cc43aa083604051610a5e91906121f6565b60405180910390a25b610ad27f0000000000000000000000000000000000000000000000000000000000000000827f000000000000000000000000000000000000000000000000000000000000000073ffffffffffffffffffffffffffffffffffffffff16611e179092919063ffffffff16565b857fd33fcd27cbfb73a2d9058c968b560ccb306500bf536133802048489ecc7355e98284604051610b049291906129e5565b60405180910390a2610b14611e9f565b505050610b1f611e96565b505050565b5f600480811115610b3857610b376126d3565b5b60015f9054906101000a900460ff166004811115610b5957610b586126d3565b5b14610b66575f9050610b7d565b62278d00600654610b7791906128e1565b42101590505b90565b60035481565b60605f6004811115610b9b57610b9a6126d3565b5b60015f9054906101000a900460ff166004811115610bbc57610bbb6126d3565b5b03610bfe576040518060400160405280601b81526020017f43726561746564202857616974696e6720666f722066756e64732900000000008152509050610e12565b60016004811115610c1257610c116126d3565b5b60015f9054906101000a900460ff166004811115610c3357610c326126d3565b5b03610c75576040518060400160405280600f81526020017f46756e64656420284163746976652900000000000000000000000000000000008152509050610e12565b60026004811115610c8957610c886126d3565b5b60015f9054906101000a900460ff166004811115610caa57610ca96126d3565b5b03610cec576040518060400160405280600981526020017f436f6d706c6574656400000000000000000000000000000000000000000000008152509050610e12565b60036004811115610d0057610cff6126d3565b5b60015f9054906101000a900460ff166004811115610d2157610d206126d3565b5b03610d63576040518060400160405280600981526020017f43616e63656c6c656400000000000000000000000000000000000000000000008152509050610e12565b600480811115610d7657610d756126d3565b5b60015f9054906101000a900460ff166004811115610d9757610d966126d3565b5b03610dd9576040518060400160405280600881526020017f44697370757465640000000000000000000000000000000000000000000000008152509050610e12565b6040518060400160405280600781526020017f556e6b6e6f776e0000000000000000000000000000000000000000000000000081525090505b90565b7f000000000000000000000000000000000000000000000000000000000000000073ffffffffffffffffffffffffffffffffffffffff163373ffffffffffffffffffffffffffffffffffffffff1614610e9a576040517fa598aebe00000000000000000000000000000000000000000000000000000000815260040160405180910390fd5b6004806004811115610eaf57610eae6126d3565b5b60015f9054906101000a900460ff166004811115610ed057610ecf6126d3565b5b14610f07576040517fbaf3f0f700000000000000000000000000000000000000000000000000000000815260040160405180910390fd5b610f0f611ce4565b5f610f18611d31565b90505f811115610f8e57610f8d7f0000000000000000000000000000000000000000000000000000000000000000827f000000000000000000000000000000000000000000000000000000000000000073ffffffffffffffffffffffffffffffffffffffff16611e179092919063ffffffff16565b5b600360015f6101000a81548160ff02191690836004811115610fb357610fb26126d3565b5b02179055507f8015c5005d9ad5d85ca80d3f894f08e0159277704c54166e5cff108800fa80cd5f604051610fe79190612303565b60405180910390a17f92c439fda90c70ccdedcb94d28a14f9fda69d67124efbbe9bf905740194228c860405160405180910390a150611024611e96565b50565b60045481565b60606005805480602002602001604051908101604052809291908181526020015f905b82821015611158578382905f5260205f2090600402016040518060a00160405290815f8201548152602001600182015f9054906101000a900460ff161515151581526020016001820160019054906101000a900460ff16151515158152602001600282015481526020016003820180546110c990612a39565b80601f01602080910402602001604051908101604052809291908181526020018280546110f590612a39565b80156111405780601f1061111757610100808354040283529160200191611140565b820191905f5260205f20905b81548152906001019060200180831161112357829003601f168201915b50505050508152505081526020019060010190611050565b50505050905090565b5f7f000000000000000000000000000000000000000000000000000000000000000073ffffffffffffffffffffffffffffffffffffffff166370a08231306040518263ffffffff1660e01b81526004016111bb91906121dd565b602060405180830381865afa1580156111d6573d5f5f3e3d5ffd5b505050506040513d601f19601f820116820180604052508101906111fa9190612a7d565b905090565b7f000000000000000000000000000000000000000000000000000000000000000073ffffffffffffffffffffffffffffffffffffffff163373ffffffffffffffffffffffffffffffffffffffff1614806112a457507f000000000000000000000000000000000000000000000000000000000000000073ffffffffffffffffffffffffffffffffffffffff163373ffffffffffffffffffffffffffffffffffffffff16145b6112e3576040517f08c379a00000000000000000000000000000000000000000000000000000000081526004016112da90612af2565b60405180910390fd5b60018060048111156112f8576112f76126d3565b5b60015f9054906101000a900460ff166004811115611319576113186126d3565b5b14611350576040517fbaf3f0f700000000000000000000000000000000000000000000000000000000815260040160405180910390fd5b600460015f6101000a81548160ff02191690836004811115611375576113746126d3565b5b0217905550426006819055503373ffffffffffffffffffffffffffffffffffffffff167f28b099eb575e23e32becd7c30dc8f9b2f98e370cdbf9841ea3338d9000402a25836040516113c7919061238c565b60405180910390a25050565b5f6127106096836113e49190612914565b6113ee9190612982565b9050919050565b609681565b7f000000000000000000000000000000000000000000000000000000000000000073ffffffffffffffffffffffffffffffffffffffff163373ffffffffffffffffffffffffffffffffffffffff161461147f576040517f8858596300000000000000000000000000000000000000000000000000000000815260040160405180910390fd5b6004806004811115611494576114936126d3565b5b60015f9054906101000a900460ff1660048111156114b5576114b46126d3565b5b146114ec576040517fbaf3f0f700000000000000000000000000000000000000000000000000000000815260040160405180910390fd5b6114f4611ce4565b62278d0060065461150591906128e1565b421015611547576040517f08c379a000000000000000000000000000000000000000000000000000000000815260040161153e90612b5a565b60405180910390fd5b5f611550611d31565b90505f8111156115de576115c57f0000000000000000000000000000000000000000000000000000000000000000827f000000000000000000000000000000000000000000000000000000000000000073ffffffffffffffffffffffffffffffffffffffff16611e179092919063ffffffff16565b8060035f8282546115d691906128e1565b925050819055505b600260015f6101000a81548160ff02191690836004811115611603576116026126d3565b5b02179055507f8015c5005d9ad5d85ca80d3f894f08e0159277704c54166e5cff108800fa80cd60016040516116389190612303565b60405180910390a17fe39866727217e43713c3728c5769515e8fb38e990b568b9831c1689dfdf67b6660405160405180910390a150611675611e96565b50565b7f000000000000000000000000000000000000000000000000000000000000000073ffffffffffffffffffffffffffffffffffffffff163373ffffffffffffffffffffffffffffffffffffffff16146116fd576040517fa598aebe00000000000000000000000000000000000000000000000000000000815260040160405180910390fd5b5f806004811115611711576117106126d3565b5b60015f9054906101000a900460ff166004811115611732576117316126d3565b5b14611769576040517fbaf3f0f700000000000000000000000000000000000000000000000000000000815260040160405180910390fd5b611771611ce4565b6117c033306002547f000000000000000000000000000000000000000000000000000000000000000073ffffffffffffffffffffffffffffffffffffffff16611f8e909392919063ffffffff16565b6001805f6101000a81548160ff021916908360048111156117e4576117e36126d3565b5b02179055507f2301e0a2ad8f6e28a7fbb09e96f5c14e588fac346ed5ce607e1a018bc768864660025460405161181a91906121f6565b60405180910390a161182a611e96565b50565b60065481565b60015f9054906101000a900460ff1681565b7f000000000000000000000000000000000000000000000000000000000000000081565b5f611873826113d3565b8261187e91906129b2565b9050919050565b60058181548110611894575f80fd5b905f5260205f2090600402015f91509050805f015490806001015f9054906101000a900460ff16908060010160019054906101000a900460ff16908060020154908060030180546118e490612a39565b80601f016020809104026020016040519081016040528092919081815260200182805461191090612a39565b801561195b5780601f106119325761010080835404028352916020019161195b565b820191905f5260205f20905b81548152906001019060200180831161193e57829003601f168201915b5050505050905085565b73c869d7a99fa831b4b3bee7e245f0c9348c2209a381565b7f000000000000000000000000000000000000000000000000000000000000000073ffffffffffffffffffffffffffffffffffffffff163373ffffffffffffffffffffffffffffffffffffffff1614611a02576040517fa598aebe00000000000000000000000000000000000000000000000000000000815260040160405180910390fd5b6001806004811115611a1757611a166126d3565b5b60015f9054906101000a900460ff166004811115611a3857611a376126d3565b5b14611a6f576040517fbaf3f0f700000000000000000000000000000000000000000000000000000000815260040160405180910390fd5b816005805490508110611aae576040517fba11734000000000000000000000000000000000000000000000000000000000815260040160405180910390fd5b611ab6611ce4565b5f60058481548110611acb57611aca6127b7565b5b905f5260205f2090600402019050806001015f9054906101000a900460ff1615611b2a576040517f08c379a0000000000000000000000000000000000000000000000000000000008152600401611b219061282e565b60405180910390fd5b8060010160019054906101000a900460ff1615611b7c576040517f08c379a0000000000000000000000000000000000000000000000000000000008152600401611b7390612bc2565b60405180910390fd5b5f816002015411611bc2576040517f08c379a0000000000000000000000000000000000000000000000000000000008152600401611bb990612c2a565b60405180910390fd5b80600201544211611c08576040517f08c379a0000000000000000000000000000000000000000000000000000000008152600401611bff90612c92565b60405180910390fd5b60018160010160016101000a81548160ff021916908315150217905550611c937f0000000000000000000000000000000000000000000000000000000000000000825f01547f000000000000000000000000000000000000000000000000000000000000000073ffffffffffffffffffffffffffffffffffffffff16611e179092919063ffffffff16565b837fdadefb9d4c98ce0b09100daf8b195e7882f849f58f6760ff36762958c0f7b8a8825f0154604051611cc691906121f6565b60405180910390a2611cd6612010565b50611cdf611e96565b505050565b60025f5403611d28576040517f08c379a0000000000000000000000000000000000000000000000000000000008152600401611d1f90612cfa565b60405180910390fd5b60025f81905550565b5f5f7f000000000000000000000000000000000000000000000000000000000000000073ffffffffffffffffffffffffffffffffffffffff166370a08231306040518263ffffffff1660e01b8152600401611d8c91906121dd565b602060405180830381865afa158015611da7573d5f5f3e3d5ffd5b505050506040513d601f19601f82011682018060405250810190611dcb9190612a7d565b90505f6004811115611de057611ddf6126d3565b5b60015f9054906101000a900460ff166004811115611e0157611e006126d3565b5b03611e0f575f915050611e14565b809150505b90565b611e91838473ffffffffffffffffffffffffffffffffffffffff1663a9059cbb8585604051602401611e4a9291906121b6565b604051602081830303815290604052915060e01b6020820180517bffffffffffffffffffffffffffffffffffffffffffffffffffffffff83818316178352505050506120c4565b505050565b60015f81905550565b5f5f90505b600580549050811015611f345760058181548110611ec557611ec46127b7565b5b905f5260205f2090600402016001015f9054906101000a900460ff16158015611f1c575060058181548110611efd57611efc6127b7565b5b905f5260205f20906004020160010160019054906101000a900460ff16155b15611f275750611f8c565b8080600101915050611ea4565b50600260015f6101000a81548160ff02191690836004811115611f5a57611f596126d3565b5b02179055507fe39866727217e43713c3728c5769515e8fb38e990b568b9831c1689dfdf67b6660405160405180910390a15b565b61200a848573ffffffffffffffffffffffffffffffffffffffff166323b872dd868686604051602401611fc393929190612d18565b604051602081830303815290604052915060e01b6020820180517bffffffffffffffffffffffffffffffffffffffffffffffffffffffff83818316178352505050506120c4565b50505050565b5f5f90505b60058054905081101561206a5760058181548110612036576120356127b7565b5b905f5260205f20906004020160010160019054906101000a900460ff1661205d57506120c2565b8080600101915050612015565b50600360015f6101000a81548160ff021916908360048111156120905761208f6126d3565b5b02179055507f92c439fda90c70ccdedcb94d28a14f9fda69d67124efbbe9bf905740194228c860405160405180910390a15b565b5f5f60205f8451602086015f885af1806120e3576040513d5f823e3d81fd5b3d92505f519150505f82146120fc576001811415612117565b5f8473ffffffffffffffffffffffffffffffffffffffff163b145b1561215957836040517f5274afe700000000000000000000000000000000000000000000000000000000815260040161215091906121dd565b60405180910390fd5b50505050565b5f73ffffffffffffffffffffffffffffffffffffffff82169050919050565b5f6121888261215f565b9050919050565b6121988161217e565b82525050565b5f819050919050565b6121b08161219e565b82525050565b5f6040820190506121c95f83018561218f565b6121d660208301846121a7565b9392505050565b5f6020820190506121f05f83018461218f565b92915050565b5f6020820190506122095f8301846121a7565b92915050565b5f819050919050565b5f61223261222d6122288461215f565b61220f565b61215f565b9050919050565b5f61224382612218565b9050919050565b5f61225482612239565b9050919050565b6122648161224a565b82525050565b5f60208201905061227d5f83018461225b565b92915050565b5f604051905090565b5f5ffd5b5f5ffd5b61229d8161219e565b81146122a7575f5ffd5b50565b5f813590506122b881612294565b92915050565b5f602082840312156122d3576122d261228c565b5b5f6122e0848285016122aa565b91505092915050565b5f8115159050919050565b6122fd816122e9565b82525050565b5f6020820190506123165f8301846122f4565b92915050565b5f81519050919050565b5f82825260208201905092915050565b8281835e5f83830152505050565b5f601f19601f8301169050919050565b5f61235e8261231c565b6123688185612326565b9350612378818560208601612336565b61238181612344565b840191505092915050565b5f6020820190508181035f8301526123a48184612354565b905092915050565b5f81519050919050565b5f82825260208201905092915050565b5f819050602082019050919050565b6123de8161219e565b82525050565b6123ed816122e9565b82525050565b5f82825260208201905092915050565b5f61240d8261231c565b61241781856123f3565b9350612427818560208601612336565b61243081612344565b840191505092915050565b5f60a083015f8301516124505f8601826123d5565b50602083015161246360208601826123e4565b50604083015161247660408601826123e4565b50606083015161248960608601826123d5565b50608083015184820360808601526124a18282612403565b9150508091505092915050565b5f6124b9838361243b565b905092915050565b5f602082019050919050565b5f6124d7826123ac565b6124e181856123b6565b9350836020820285016124f3856123c6565b805f5b8581101561252e578484038952815161250f85826124ae565b945061251a836124c1565b925060208a019950506001810190506124f6565b50829750879550505050505092915050565b5f6020820190508181035f83015261255881846124cd565b905092915050565b5f5ffd5b5f5ffd5b7f4e487b71000000000000000000000000000000000000000000000000000000005f52604160045260245ffd5b61259e82612344565b810181811067ffffffffffffffff821117156125bd576125bc612568565b5b80604052505050565b5f6125cf612283565b90506125db8282612595565b919050565b5f67ffffffffffffffff8211156125fa576125f9612568565b5b61260382612344565b9050602081019050919050565b828183375f83830152505050565b5f61263061262b846125e0565b6125c6565b90508281526020810184848401111561264c5761264b612564565b5b612657848285612610565b509392505050565b5f82601f83011261267357612672612560565b5b813561268384826020860161261e565b91505092915050565b5f602082840312156126a1576126a061228c565b5b5f82013567ffffffffffffffff8111156126be576126bd612290565b5b6126ca8482850161265f565b91505092915050565b7f4e487b71000000000000000000000000000000000000000000000000000000005f52602160045260245ffd5b60058110612711576127106126d3565b5b50565b5f81905061272182612700565b919050565b5f61273082612714565b9050919050565b61274081612726565b82525050565b5f6020820190506127595f830184612737565b92915050565b5f60a0820190506127725f8301886121a7565b61277f60208301876122f4565b61278c60408301866122f4565b61279960608301856121a7565b81810360808301526127ab8184612354565b90509695505050505050565b7f4e487b71000000000000000000000000000000000000000000000000000000005f52603260045260245ffd5b7f416c72656164792072656c6561736564000000000000000000000000000000005f82015250565b5f612818601083612326565b9150612823826127e4565b602082019050919050565b5f6020820190508181035f8301526128458161280c565b9050919050565b7f4d696c6573746f6e652063616e63656c6c6564000000000000000000000000005f82015250565b5f612880601383612326565b915061288b8261284c565b602082019050919050565b5f6020820190508181035f8301526128ad81612874565b9050919050565b7f4e487b71000000000000000000000000000000000000000000000000000000005f52601160045260245ffd5b5f6128eb8261219e565b91506128f68361219e565b925082820190508082111561290e5761290d6128b4565b5b92915050565b5f61291e8261219e565b91506129298361219e565b92508282026129378161219e565b9150828204841483151761294e5761294d6128b4565b5b5092915050565b7f4e487b71000000000000000000000000000000000000000000000000000000005f52601260045260245ffd5b5f61298c8261219e565b91506129978361219e565b9250826129a7576129a6612955565b5b828204905092915050565b5f6129bc8261219e565b91506129c78361219e565b92508282039050818111156129df576129de6128b4565b5b92915050565b5f6040820190506129f85f8301856121a7565b612a0560208301846121a7565b9392505050565b7f4e487b71000000000000000000000000000000000000000000000000000000005f52602260045260245ffd5b5f6002820490506001821680612a5057607f821691505b602082108103612a6357612a62612a0c565b5b50919050565b5f81519050612a7781612294565b92915050565b5f60208284031215612a9257612a9161228c565b5b5f612a9f84828501612a69565b91505092915050565b7f4e6f7420617574686f72697a65640000000000000000000000000000000000005f82015250565b5f612adc600e83612326565b9150612ae782612aa8565b602082019050919050565b5f6020820190508181035f830152612b0981612ad0565b9050919050565b7f33302064617973206e6f742070617373656400000000000000000000000000005f82015250565b5f612b44601283612326565b9150612b4f82612b10565b602082019050919050565b5f6020820190508181035f830152612b7181612b38565b9050919050565b7f416c72656164792063616e63656c6c65640000000000000000000000000000005f82015250565b5f612bac601183612326565b9150612bb782612b78565b602082019050919050565b5f6020820190508181035f830152612bd981612ba0565b9050919050565b7f4e6f20646561646c696e652073657400000000000000000000000000000000005f82015250565b5f612c14600f83612326565b9150612c1f82612be0565b602082019050919050565b5f6020820190508181035f830152612c4181612c08565b9050919050565b7f446561646c696e65206e6f7420706173736564000000000000000000000000005f82015250565b5f612c7c601383612326565b9150612c8782612c48565b602082019050919050565b5f6020820190508181035f830152612ca981612c70565b9050919050565b7f5265656e7472616e637947756172643a207265656e7472616e742063616c6c005f82015250565b5f612ce4601f83612326565b9150612cef82612cb0565b602082019050919050565b5f6020820190508181035f830152612d1181612cd8565b9050919050565b5f606082019050612d2b5f83018661218f565b612d38602083018561218f565b612d4560408301846121a7565b94935050505056fea2646970667358221220c63d0cf58b078182413b8ec4ddd912a7533859b32e9ef63fdaca6530a66c51d364736f6c634300081e0033",
					"opcodes": "PUSH1 0xE0 PUSH1 0x40 MSTORE CALLVALUE DUP1 ISZERO PUSH2 0xF JUMPI PUSH0 PUSH0 REVERT JUMPDEST POP PUSH1 0x40 MLOAD PUSH2 0x3E22 CODESIZE SUB DUP1 PUSH2 0x3E22 DUP4 CODECOPY DUP2 DUP2 ADD PUSH1 0x40 MSTORE DUP2 ADD SWAP1 PUSH2 0x31 SWAP2 SWAP1 PUSH2 0x886 JUMP JUMPDEST PUSH1 0x1 PUSH0 DUP2 SWAP1 SSTORE POP PUSH0 PUSH20 0xFFFFFFFFFFFFFFFFFFFFFFFFFFFFFFFFFFFFFFFF AND DUP7 PUSH20 0xFFFFFFFFFFFFFFFFFFFFFFFFFFFFFFFFFFFFFFFF AND SUB PUSH2 0xA6 JUMPI PUSH1 0x40 MLOAD PUSH32 0x8C379A000000000000000000000000000000000000000000000000000000000 DUP2 MSTORE PUSH1 0x4 ADD PUSH2 0x9D SWAP1 PUSH2 0x9BD JUMP JUMPDEST PUSH1 0x40 MLOAD DUP1 SWAP2 SUB SWAP1 REVERT JUMPDEST PUSH0 PUSH20 0xFFFFFFFFFFFFFFFFFFFFFFFFFFFFFFFFFFFFFFFF AND DUP6 PUSH20 0xFFFFFFFFFFFFFFFFFFFFFFFFFFFFFFFFFFFFFFFF AND SUB PUSH2 0x114 JUMPI PUSH1 0x40 MLOAD PUSH32 0x8C379A000000000000000000000000000000000000000000000000000000000 DUP2 MSTORE PUSH1 0x4 ADD PUSH2 0x10B SWAP1 PUSH2 0xA25 JUMP JUMPDEST PUSH1 0x40 MLOAD DUP1 SWAP2 SUB SWAP1 REVERT JUMPDEST PUSH0 PUSH20 0xFFFFFFFFFFFFFFFFFFFFFFFFFFFFFFFFFFFFFFFF AND DUP5 PUSH20 0xFFFFFFFFFFFFFFFFFFFFFFFFFFFFFFFFFFFFFFFF AND SUB PUSH2 0x182 JUMPI PUSH1 0x40 MLOAD PUSH32 0x8C379A000000000000000000000000000000000000000000000000000000000 DUP2 MSTORE PUSH1 0x4 ADD PUSH2 0x179 SWAP1 PUSH2 0xA8D JUMP JUMPDEST PUSH1 0x40 MLOAD DUP1 SWAP2 SUB SWAP1 REVERT JUMPDEST DUP5 PUSH20 0xFFFFFFFFFFFFFFFFFFFFFFFFFFFFFFFFFFFFFFFF AND DUP7 PUSH20 0xFFFFFFFFFFFFFFFFFFFFFFFFFFFFFFFFFFFFFFFF AND SUB PUSH2 0x1F0 JUMPI PUSH1 0x40 MLOAD PUSH32 0x8C379A000000000000000000000000000000000000000000000000000000000 DUP2 MSTORE PUSH1 0x4 ADD PUSH2 0x1E7 SWAP1 PUSH2 0xAF5 JUMP JUMPDEST PUSH1 0x40 MLOAD DUP1 SWAP2 SUB SWAP1 REVERT JUMPDEST PUSH0 DUP4 MLOAD GT PUSH2 0x233 JUMPI PUSH1 0x40 MLOAD PUSH32 0x8C379A000000000000000000000000000000000000000000000000000000000 DUP2 MSTORE PUSH1 0x4 ADD PUSH2 0x22A SWAP1 PUSH2 0xB5D JUMP JUMPDEST PUSH1 0x40 MLOAD DUP1 SWAP2 SUB SWAP1 REVERT JUMPDEST DUP2 MLOAD DUP4 MLOAD EQ DUP1 ISZERO PUSH2 0x245 JUMPI POP DUP1 MLOAD DUP4 MLOAD EQ JUMPDEST PUSH2 0x284 JUMPI PUSH1 0x40 MLOAD PUSH32 0x8C379A000000000000000000000000000000000000000000000000000000000 DUP2 MSTORE PUSH1 0x4 ADD PUSH2 0x27B SWAP1 PUSH2 0xBC5 JUMP JUMPDEST PUSH1 0x40 MLOAD DUP1 SWAP2 SUB SWAP1 REVERT JUMPDEST DUP6 PUSH20 0xFFFFFFFFFFFFFFFFFFFFFFFFFFFFFFFFFFFFFFFF AND PUSH1 0x80 DUP2 PUSH20 0xFFFFFFFFFFFFFFFFFFFFFFFFFFFFFFFFFFFFFFFF AND DUP2 MSTORE POP POP DUP5 PUSH20 0xFFFFFFFFFFFFFFFFFFFFFFFFFFFFFFFFFFFFFFFF AND PUSH1 0xA0 DUP2 PUSH20 0xFFFFFFFFFFFFFFFFFFFFFFFFFFFFFFFFFFFFFFFF AND DUP2 MSTORE POP POP DUP4 PUSH20 0xFFFFFFFFFFFFFFFFFFFFFFFFFFFFFFFFFFFFFFFF AND PUSH1 0xC0 DUP2 PUSH20 0xFFFFFFFFFFFFFFFFFFFFFFFFFFFFFFFFFFFFFFFF AND DUP2 MSTORE POP POP PUSH0 PUSH0 SWAP1 POP PUSH0 PUSH0 SWAP1 POP JUMPDEST DUP5 MLOAD DUP2 LT ISZERO PUSH2 0x4CD JUMPI PUSH0 DUP6 DUP3 DUP2 MLOAD DUP2 LT PUSH2 0x346 JUMPI PUSH2 0x345 PUSH2 0xBE3 JUMP JUMPDEST JUMPDEST PUSH1 0x20 MUL PUSH1 0x20 ADD ADD MLOAD GT PUSH2 0x38E JUMPI PUSH1 0x40 MLOAD PUSH32 0x8C379A000000000000000000000000000000000000000000000000000000000 DUP2 MSTORE PUSH1 0x4 ADD PUSH2 0x385 SWAP1 PUSH2 0xC5A JUMP JUMPDEST PUSH1 0x40 MLOAD DUP1 SWAP2 SUB SWAP1 REVERT JUMPDEST PUSH1 0x5 PUSH1 0x40 MLOAD DUP1 PUSH1 0xA0 ADD PUSH1 0x40 MSTORE DUP1 DUP8 DUP5 DUP2 MLOAD DUP2 LT PUSH2 0x3AE JUMPI PUSH2 0x3AD PUSH2 0xBE3 JUMP JUMPDEST JUMPDEST PUSH1 0x20 MUL PUSH1 0x20 ADD ADD MLOAD DUP2 MSTORE PUSH1 0x20 ADD PUSH0 ISZERO ISZERO DUP2 MSTORE PUSH1 0x20 ADD PUSH0 ISZERO ISZERO DUP2 MSTORE PUSH1 0x20 ADD DUP7 DUP5 DUP2 MLOAD DUP2 LT PUSH2 0x3DE JUMPI PUSH2 0x3DD PUSH2 0xBE3 JUMP JUMPDEST JUMPDEST PUSH1 0x20 MUL PUSH1 0x20 ADD ADD MLOAD DUP2 MSTORE PUSH1 0x20 ADD DUP6 DUP5 DUP2 MLOAD DUP2 LT PUSH2 0x3FE JUMPI PUSH2 0x3FD PUSH2 0xBE3 JUMP JUMPDEST JUMPDEST PUSH1 0x20 MUL PUSH1 0x20 ADD ADD MLOAD DUP2 MSTORE POP SWAP1 DUP1 PUSH1 0x1 DUP2 SLOAD ADD DUP1 DUP3 SSTORE DUP1 SWAP2 POP POP PUSH1 0x1 SWAP1 SUB SWAP1 PUSH0 MSTORE PUSH1 0x20 PUSH0 KECCAK256 SWAP1 PUSH1 0x4 MUL ADD PUSH0 SWAP1 SWAP2 SWAP1 SWAP2 SWAP1 SWAP2 POP PUSH0 DUP3 ADD MLOAD DUP2 PUSH0 ADD SSTORE PUSH1 0x20 DUP3 ADD MLOAD DUP2 PUSH1 0x1 ADD PUSH0 PUSH2 0x100 EXP DUP2 SLOAD DUP2 PUSH1 0xFF MUL NOT AND SWAP1 DUP4 ISZERO ISZERO MUL OR SWAP1 SSTORE POP PUSH1 0x40 DUP3 ADD MLOAD DUP2 PUSH1 0x1 ADD PUSH1 0x1 PUSH2 0x100 EXP DUP2 SLOAD DUP2 PUSH1 0xFF MUL NOT AND SWAP1 DUP4 ISZERO ISZERO MUL OR SWAP1 SSTORE POP PUSH1 0x60 DUP3 ADD MLOAD DUP2 PUSH1 0x2 ADD SSTORE PUSH1 0x80 DUP3 ADD MLOAD DUP2 PUSH1 0x3 ADD SWAP1 DUP2 PUSH2 0x495 SWAP2 SWAP1 PUSH2 0xE7F JUMP JUMPDEST POP POP POP DUP5 DUP2 DUP2 MLOAD DUP2 LT PUSH2 0x4AB JUMPI PUSH2 0x4AA PUSH2 0xBE3 JUMP JUMPDEST JUMPDEST PUSH1 0x20 MUL PUSH1 0x20 ADD ADD MLOAD DUP3 PUSH2 0x4BE SWAP2 SWAP1 PUSH2 0xF7B JUMP JUMPDEST SWAP2 POP DUP1 DUP1 PUSH1 0x1 ADD SWAP2 POP POP PUSH2 0x329 JUMP JUMPDEST POP DUP1 PUSH1 0x2 DUP2 SWAP1 SSTORE POP PUSH0 PUSH1 0x1 PUSH0 PUSH2 0x100 EXP DUP2 SLOAD DUP2 PUSH1 0xFF MUL NOT AND SWAP1 DUP4 PUSH1 0x4 DUP2 GT ISZERO PUSH2 0x4F9 JUMPI PUSH2 0x4F8 PUSH2 0xFAE JUMP JUMPDEST JUMPDEST MUL OR SWAP1 SSTORE POP POP POP POP POP POP POP POP PUSH2 0xFDB JUMP JUMPDEST PUSH0 PUSH1 0x40 MLOAD SWAP1 POP SWAP1 JUMP JUMPDEST PUSH0 PUSH0 REVERT JUMPDEST PUSH0 PUSH0 REVERT JUMPDEST PUSH0 PUSH20 0xFFFFFFFFFFFFFFFFFFFFFFFFFFFFFFFFFFFFFFFF DUP3 AND SWAP1 POP SWAP2 SWAP1 POP JUMP JUMPDEST PUSH0 PUSH2 0x544 DUP3 PUSH2 0x51B JUMP JUMPDEST SWAP1 POP SWAP2 SWAP1 POP JUMP JUMPDEST PUSH2 0x554 DUP2 PUSH2 0x53A JUMP JUMPDEST DUP2 EQ PUSH2 0x55E JUMPI PUSH0 PUSH0 REVERT JUMPDEST POP JUMP JUMPDEST PUSH0 DUP2 MLOAD SWAP1 POP PUSH2 0x56F DUP2 PUSH2 0x54B JUMP JUMPDEST SWAP3 SWAP2 POP POP JUMP JUMPDEST PUSH0 PUSH0 REVERT JUMPDEST PUSH0 PUSH1 0x1F NOT PUSH1 0x1F DUP4 ADD AND SWAP1 POP SWAP2 SWAP1 POP JUMP JUMPDEST PUSH32 0x4E487B7100000000000000000000000000000000000000000000000000000000 PUSH0 MSTORE PUSH1 0x41 PUSH1 0x4 MSTORE PUSH1 0x24 PUSH0 REVERT JUMPDEST PUSH2 0x5BF DUP3 PUSH2 0x579 JUMP JUMPDEST DUP2 ADD DUP2 DUP2 LT PUSH8 0xFFFFFFFFFFFFFFFF DUP3 GT OR ISZERO PUSH2 0x5DE JUMPI PUSH2 0x5DD PUSH2 0x589 JUMP JUMPDEST JUMPDEST DUP1 PUSH1 0x40 MSTORE POP POP POP JUMP JUMPDEST PUSH0 PUSH2 0x5F0 PUSH2 0x50A JUMP JUMPDEST SWAP1 POP PUSH2 0x5FC DUP3 DUP3 PUSH2 0x5B6 JUMP JUMPDEST SWAP2 SWAP1 POP JUMP JUMPDEST PUSH0 PUSH8 0xFFFFFFFFFFFFFFFF DUP3 GT ISZERO PUSH2 0x61B JUMPI PUSH2 0x61A PUSH2 0x589 JUMP JUMPDEST JUMPDEST PUSH1 0x20 DUP3 MUL SWAP1 POP PUSH1 0x20 DUP2 ADD SWAP1 POP SWAP2 SWAP1 POP JUMP JUMPDEST PUSH0 PUSH0 REVERT JUMPDEST PUSH0 DUP2 SWAP1 POP SWAP2 SWAP1 POP JUMP JUMPDEST PUSH2 0x642 DUP2 PUSH2 0x630 JUMP JUMPDEST DUP2 EQ PUSH2 0x64C JUMPI PUSH0 PUSH0 REVERT JUMPDEST POP JUMP JUMPDEST PUSH0 DUP2 MLOAD SWAP1 POP PUSH2 0x65D DUP2 PUSH2 0x639 JUMP JUMPDEST SWAP3 SWAP2 POP POP JUMP JUMPDEST PUSH0 PUSH2 0x675 PUSH2 0x670 DUP5 PUSH2 0x601 JUMP JUMPDEST PUSH2 0x5E7 JUMP JUMPDEST SWAP1 POP DUP1 DUP4 DUP3 MSTORE PUSH1 0x20 DUP3 ADD SWAP1 POP PUSH1 0x20 DUP5 MUL DUP4 ADD DUP6 DUP2 GT ISZERO PUSH2 0x698 JUMPI PUSH2 0x697 PUSH2 0x62C JUMP JUMPDEST JUMPDEST DUP4 JUMPDEST DUP2 DUP2 LT ISZERO PUSH2 0x6C1 JUMPI DUP1 PUSH2 0x6AD DUP9 DUP3 PUSH2 0x64F JUMP JUMPDEST DUP5 MSTORE PUSH1 0x20 DUP5 ADD SWAP4 POP POP PUSH1 0x20 DUP2 ADD SWAP1 POP PUSH2 0x69A JUMP JUMPDEST POP POP POP SWAP4 SWAP3 POP POP POP JUMP JUMPDEST PUSH0 DUP3 PUSH1 0x1F DUP4 ADD SLT PUSH2 0x6DF JUMPI PUSH2 0x6DE PUSH2 0x575 JUMP JUMPDEST JUMPDEST DUP2 MLOAD PUSH2 0x6EF DUP5 DUP3 PUSH1 0x20 DUP7 ADD PUSH2 0x663 JUMP JUMPDEST SWAP2 POP POP SWAP3 SWAP2 POP POP JUMP JUMPDEST PUSH0 PUSH8 0xFFFFFFFFFFFFFFFF DUP3 GT ISZERO PUSH2 0x712 JUMPI PUSH2 0x711 PUSH2 0x589 JUMP JUMPDEST JUMPDEST PUSH1 0x20 DUP3 MUL SWAP1 POP PUSH1 0x20 DUP2 ADD SWAP1 POP SWAP2 SWAP1 POP JUMP JUMPDEST PUSH0 PUSH0 REVERT JUMPDEST PUSH0 PUSH8 0xFFFFFFFFFFFFFFFF DUP3 GT ISZERO PUSH2 0x741 JUMPI PUSH2 0x740 PUSH2 0x589 JUMP JUMPDEST JUMPDEST PUSH2 0x74A DUP3 PUSH2 0x579 JUMP JUMPDEST SWAP1 POP PUSH1 0x20 DUP2 ADD SWAP1 POP SWAP2 SWAP1 POP JUMP JUMPDEST DUP3 DUP2 DUP4 MCOPY PUSH0 DUP4 DUP4 ADD MSTORE POP POP POP JUMP JUMPDEST PUSH0 PUSH2 0x777 PUSH2 0x772 DUP5 PUSH2 0x727 JUMP JUMPDEST PUSH2 0x5E7 JUMP JUMPDEST SWAP1 POP DUP3 DUP2 MSTORE PUSH1 0x20 DUP2 ADD DUP5 DUP5 DUP5 ADD GT ISZERO PUSH2 0x793 JUMPI PUSH2 0x792 PUSH2 0x723 JUMP JUMPDEST JUMPDEST PUSH2 0x79E DUP5 DUP3 DUP6 PUSH2 0x757 JUMP JUMPDEST POP SWAP4 SWAP3 POP POP POP JUMP JUMPDEST PUSH0 DUP3 PUSH1 0x1F DUP4 ADD SLT PUSH2 0x7BA JUMPI PUSH2 0x7B9 PUSH2 0x575 JUMP JUMPDEST JUMPDEST DUP2 MLOAD PUSH2 0x7CA DUP5 DUP3 PUSH1 0x20 DUP7 ADD PUSH2 0x765 JUMP JUMPDEST SWAP2 POP POP SWAP3 SWAP2 POP POP JUMP JUMPDEST PUSH0 PUSH2 0x7E5 PUSH2 0x7E0 DUP5 PUSH2 0x6F8 JUMP JUMPDEST PUSH2 0x5E7 JUMP JUMPDEST SWAP1 POP DUP1 DUP4 DUP3 MSTORE PUSH1 0x20 DUP3 ADD SWAP1 POP PUSH1 0x20 DUP5 MUL DUP4 ADD DUP6 DUP2 GT ISZERO PUSH2 0x808 JUMPI PUSH2 0x807 PUSH2 0x62C JUMP JUMPDEST JUMPDEST DUP4 JUMPDEST DUP2 DUP2 LT ISZERO PUSH2 0x84F JUMPI DUP1 MLOAD PUSH8 0xFFFFFFFFFFFFFFFF DUP2 GT ISZERO PUSH2 0x82D JUMPI PUSH2 0x82C PUSH2 0x575 JUMP JUMPDEST JUMPDEST DUP1 DUP7 ADD PUSH2 0x83A DUP10 DUP3 PUSH2 0x7A6 JUMP JUMPDEST DUP6 MSTORE PUSH1 0x20 DUP6 ADD SWAP5 POP POP POP PUSH1 0x20 DUP2 ADD SWAP1 POP PUSH2 0x80A JUMP JUMPDEST POP POP POP SWAP4 SWAP3 POP POP POP JUMP JUMPDEST PUSH0 DUP3 PUSH1 0x1F DUP4 ADD SLT PUSH2 0x86D JUMPI PUSH2 0x86C PUSH2 0x575 JUMP JUMPDEST JUMPDEST DUP2 MLOAD PUSH2 0x87D DUP5 DUP3 PUSH1 0x20 DUP7 ADD PUSH2 0x7D3 JUMP JUMPDEST SWAP2 POP POP SWAP3 SWAP2 POP POP JUMP JUMPDEST PUSH0 PUSH0 PUSH0 PUSH0 PUSH0 PUSH0 PUSH1 0xC0 DUP8 DUP10 SUB SLT ISZERO PUSH2 0x8A0 JUMPI PUSH2 0x89F PUSH2 0x513 JUMP JUMPDEST JUMPDEST PUSH0 PUSH2 0x8AD DUP10 DUP3 DUP11 ADD PUSH2 0x561 JUMP JUMPDEST SWAP7 POP POP PUSH1 0x20 PUSH2 0x8BE DUP10 DUP3 DUP11 ADD PUSH2 0x561 JUMP JUMPDEST SWAP6 POP POP PUSH1 0x40 PUSH2 0x8CF DUP10 DUP3 DUP11 ADD PUSH2 0x561 JUMP JUMPDEST SWAP5 POP POP PUSH1 0x60 DUP8 ADD MLOAD PUSH8 0xFFFFFFFFFFFFFFFF DUP2 GT ISZERO PUSH2 0x8F0 JUMPI PUSH2 0x8EF PUSH2 0x517 JUMP JUMPDEST JUMPDEST PUSH2 0x8FC DUP10 DUP3 DUP11 ADD PUSH2 0x6CB JUMP JUMPDEST SWAP4 POP POP PUSH1 0x80 DUP8 ADD MLOAD PUSH8 0xFFFFFFFFFFFFFFFF DUP2 GT ISZERO PUSH2 0x91D JUMPI PUSH2 0x91C PUSH2 0x517 JUMP JUMPDEST JUMPDEST PUSH2 0x929 DUP10 DUP3 DUP11 ADD PUSH2 0x6CB JUMP JUMPDEST SWAP3 POP POP PUSH1 0xA0 DUP8 ADD MLOAD PUSH8 0xFFFFFFFFFFFFFFFF DUP2 GT ISZERO PUSH2 0x94A JUMPI PUSH2 0x949 PUSH2 0x517 JUMP JUMPDEST JUMPDEST PUSH2 0x956 DUP10 DUP3 DUP11 ADD PUSH2 0x859 JUMP JUMPDEST SWAP2 POP POP SWAP3 SWAP6 POP SWAP3 SWAP6 POP SWAP3 SWAP6 JUMP JUMPDEST PUSH0 DUP3 DUP3 MSTORE PUSH1 0x20 DUP3 ADD SWAP1 POP SWAP3 SWAP2 POP POP JUMP JUMPDEST PUSH32 0x496E76616C69642066756E646572000000000000000000000000000000000000 PUSH0 DUP3 ADD MSTORE POP JUMP JUMPDEST PUSH0 PUSH2 0x9A7 PUSH1 0xE DUP4 PUSH2 0x963 JUMP JUMPDEST SWAP2 POP PUSH2 0x9B2 DUP3 PUSH2 0x973 JUMP JUMPDEST PUSH1 0x20 DUP3 ADD SWAP1 POP SWAP2 SWAP1 POP JUMP JUMPDEST PUSH0 PUSH1 0x20 DUP3 ADD SWAP1 POP DUP2 DUP2 SUB PUSH0 DUP4 ADD MSTORE PUSH2 0x9D4 DUP2 PUSH2 0x99B JUMP JUMPDEST SWAP1 POP SWAP2 SWAP1 POP JUMP JUMPDEST PUSH32 0x496E76616C696420646576656C6F706572000000000000000000000000000000 PUSH0 DUP3 ADD MSTORE POP JUMP JUMPDEST PUSH0 PUSH2 0xA0F PUSH1 0x11 DUP4 PUSH2 0x963 JUMP JUMPDEST SWAP2 POP PUSH2 0xA1A DUP3 PUSH2 0x9DB JUMP JUMPDEST PUSH1 0x20 DUP3 ADD SWAP1 POP SWAP2 SWAP1 POP JUMP JUMPDEST PUSH0 PUSH1 0x20 DUP3 ADD SWAP1 POP DUP2 DUP2 SUB PUSH0 DUP4 ADD MSTORE PUSH2 0xA3C DUP2 PUSH2 0xA03 JUMP JUMPDEST SWAP1 POP SWAP2 SWAP1 POP JUMP JUMPDEST PUSH32 0x496E76616C696420746F6B656E00000000000000000000000000000000000000 PUSH0 DUP3 ADD MSTORE POP JUMP JUMPDEST PUSH0 PUSH2 0xA77 PUSH1 0xD DUP4 PUSH2 0x963 JUMP JUMPDEST SWAP2 POP PUSH2 0xA82 DUP3 PUSH2 0xA43 JUMP JUMPDEST PUSH1 0x20 DUP3 ADD SWAP1 POP SWAP2 SWAP1 POP JUMP JUMPDEST PUSH0 PUSH1 0x20 DUP3 ADD SWAP1 POP DUP2 DUP2 SUB PUSH0 DUP4 ADD MSTORE PUSH2 0xAA4 DUP2 PUSH2 0xA6B JUMP JUMPDEST SWAP1 POP SWAP2 SWAP1 POP JUMP JUMPDEST PUSH32 0x46756E6465722063616E6E6F7420626520646576656C6F706572000000000000 PUSH0 DUP3 ADD MSTORE POP JUMP JUMPDEST PUSH0 PUSH2 0xADF PUSH1 0x1A DUP4 PUSH2 0x963 JUMP JUMPDEST SWAP2 POP PUSH2 0xAEA DUP3 PUSH2 0xAAB JUMP JUMPDEST PUSH1 0x20 DUP3 ADD SWAP1 POP SWAP2 SWAP1 POP JUMP JUMPDEST PUSH0 PUSH1 0x20 DUP3 ADD SWAP1 POP DUP2 DUP2 SUB PUSH0 DUP4 ADD MSTORE PUSH2 0xB0C DUP2 PUSH2 0xAD3 JUMP JUMPDEST SWAP1 POP SWAP2 SWAP1 POP JUMP JUMPDEST PUSH32 0x4E6F206D696C6573746F6E657300000000000000000000000000000000000000 PUSH0 DUP3 ADD MSTORE POP JUMP JUMPDEST PUSH0 PUSH2 0xB47 PUSH1 0xD DUP4 PUSH2 0x963 JUMP JUMPDEST SWAP2 POP PUSH2 0xB52 DUP3 PUSH2 0xB13 JUMP JUMPDEST PUSH1 0x20 DUP3 ADD SWAP1 POP SWAP2 SWAP1 POP JUMP JUMPDEST PUSH0 PUSH1 0x20 DUP3 ADD SWAP1 POP DUP2 DUP2 SUB PUSH0 DUP4 ADD MSTORE PUSH2 0xB74 DUP2 PUSH2 0xB3B JUMP JUMPDEST SWAP1 POP SWAP2 SWAP1 POP JUMP JUMPDEST PUSH32 0x496E76616C6964206D696C6573746F6E65206172726179730000000000000000 PUSH0 DUP3 ADD MSTORE POP JUMP JUMPDEST PUSH0 PUSH2 0xBAF PUSH1 0x18 DUP4 PUSH2 0x963 JUMP JUMPDEST SWAP2 POP PUSH2 0xBBA DUP3 PUSH2 0xB7B JUMP JUMPDEST PUSH1 0x20 DUP3 ADD SWAP1 POP SWAP2 SWAP1 POP JUMP JUMPDEST PUSH0 PUSH1 0x20 DUP3 ADD SWAP1 POP DUP2 DUP2 SUB PUSH0 DUP4 ADD MSTORE PUSH2 0xBDC DUP2 PUSH2 0xBA3 JUMP JUMPDEST SWAP1 POP SWAP2 SWAP1 POP JUMP JUMPDEST PUSH32 0x4E487B7100000000000000000000000000000000000000000000000000000000 PUSH0 MSTORE PUSH1 0x32 PUSH1 0x4 MSTORE PUSH1 0x24 PUSH0 REVERT JUMPDEST PUSH32 0x5A65726F206D696C6573746F6E6520616D6F756E740000000000000000000000 PUSH0 DUP3 ADD MSTORE POP JUMP JUMPDEST PUSH0 PUSH2 0xC44 PUSH1 0x15 DUP4 PUSH2 0x963 JUMP JUMPDEST SWAP2 POP PUSH2 0xC4F DUP3 PUSH2 0xC10 JUMP JUMPDEST PUSH1 0x20 DUP3 ADD SWAP1 POP SWAP2 SWAP1 POP JUMP JUMPDEST PUSH0 PUSH1 0x20 DUP3 ADD SWAP1 POP DUP2 DUP2 SUB PUSH0 DUP4 ADD MSTORE PUSH2 0xC71 DUP2 PUSH2 0xC38 JUMP JUMPDEST SWAP1 POP SWAP2 SWAP1 POP JUMP JUMPDEST PUSH0 DUP2 MLOAD SWAP1 POP SWAP2 SWAP1 POP JUMP JUMPDEST PUSH32 0x4E487B7100000000000000000000000000000000000000000000000000000000 PUSH0 MSTORE PUSH1 0x22 PUSH1 0x4 MSTORE PUSH1 0x24 PUSH0 REVERT JUMPDEST PUSH0 PUSH1 0x2 DUP3 DIV SWAP1 POP PUSH1 0x1 DUP3 AND DUP1 PUSH2 0xCC6 JUMPI PUSH1 0x7F DUP3 AND SWAP2 POP JUMPDEST PUSH1 0x20 DUP3 LT DUP2 SUB PUSH2 0xCD9 JUMPI PUSH2 0xCD8 PUSH2 0xC82 JUMP JUMPDEST JUMPDEST POP SWAP2 SWAP1 POP JUMP JUMPDEST PUSH0 DUP2 SWAP1 POP DUP2 PUSH0 MSTORE PUSH1 0x20 PUSH0 KECCAK256 SWAP1 POP SWAP2 SWAP1 POP JUMP JUMPDEST PUSH0 PUSH1 0x20 PUSH1 0x1F DUP4 ADD DIV SWAP1 POP SWAP2 SWAP1 POP JUMP JUMPDEST PUSH0 DUP3 DUP3 SHL SWAP1 POP SWAP3 SWAP2 POP POP JUMP JUMPDEST PUSH0 PUSH1 0x8 DUP4 MUL PUSH2 0xD3B PUSH32 0xFFFFFFFFFFFFFFFFFFFFFFFFFFFFFFFFFFFFFFFFFFFFFFFFFFFFFFFFFFFFFFFF DUP3 PUSH2 0xD00 JUMP JUMPDEST PUSH2 0xD45 DUP7 DUP4 PUSH2 0xD00 JUMP JUMPDEST SWAP6 POP DUP1 NOT DUP5 AND SWAP4 POP DUP1 DUP7 AND DUP5 OR SWAP3 POP POP POP SWAP4 SWAP3 POP POP POP JUMP JUMPDEST PUSH0 DUP2 SWAP1 POP SWAP2 SWAP1 POP JUMP JUMPDEST PUSH0 PUSH2 0xD80 PUSH2 0xD7B PUSH2 0xD76 DUP5 PUSH2 0x630 JUMP JUMPDEST PUSH2 0xD5D JUMP JUMPDEST PUSH2 0x630 JUMP JUMPDEST SWAP1 POP SWAP2 SWAP1 POP JUMP JUMPDEST PUSH0 DUP2 SWAP1 POP SWAP2 SWAP1 POP JUMP JUMPDEST PUSH2 0xD99 DUP4 PUSH2 0xD66 JUMP JUMPDEST PUSH2 0xDAD PUSH2 0xDA5 DUP3 PUSH2 0xD87 JUMP JUMPDEST DUP5 DUP5 SLOAD PUSH2 0xD0C JUMP JUMPDEST DUP3 SSTORE POP POP POP POP JUMP JUMPDEST PUSH0 PUSH0 SWAP1 POP SWAP1 JUMP JUMPDEST PUSH2 0xDC4 PUSH2 0xDB5 JUMP JUMPDEST PUSH2 0xDCF DUP2 DUP5 DUP5 PUSH2 0xD90 JUMP JUMPDEST POP POP POP JUMP JUMPDEST JUMPDEST DUP2 DUP2 LT ISZERO PUSH2 0xDF2 JUMPI PUSH2 0xDE7 PUSH0 DUP3 PUSH2 0xDBC JUMP JUMPDEST PUSH1 0x1 DUP2 ADD SWAP1 POP PUSH2 0xDD5 JUMP JUMPDEST POP POP JUMP JUMPDEST PUSH1 0x1F DUP3 GT ISZERO PUSH2 0xE37 JUMPI PUSH2 0xE08 DUP2 PUSH2 0xCDF JUMP JUMPDEST PUSH2 0xE11 DUP5 PUSH2 0xCF1 JUMP JUMPDEST DUP2 ADD PUSH1 0x20 DUP6 LT ISZERO PUSH2 0xE20 JUMPI DUP2 SWAP1 POP JUMPDEST PUSH2 0xE34 PUSH2 0xE2C DUP6 PUSH2 0xCF1 JUMP JUMPDEST DUP4 ADD DUP3 PUSH2 0xDD4 JUMP JUMPDEST POP POP JUMPDEST POP POP POP JUMP JUMPDEST PUSH0 DUP3 DUP3 SHR SWAP1 POP SWAP3 SWAP2 POP POP JUMP JUMPDEST PUSH0 PUSH2 0xE57 PUSH0 NOT DUP5 PUSH1 0x8 MUL PUSH2 0xE3C JUMP JUMPDEST NOT DUP1 DUP4 AND SWAP2 POP POP SWAP3 SWAP2 POP POP JUMP JUMPDEST PUSH0 PUSH2 0xE6F DUP4 DUP4 PUSH2 0xE48 JUMP JUMPDEST SWAP2 POP DUP3 PUSH1 0x2 MUL DUP3 OR SWAP1 POP SWAP3 SWAP2 POP POP JUMP JUMPDEST PUSH2 0xE88 DUP3 PUSH2 0xC78 JUMP JUMPDEST PUSH8 0xFFFFFFFFFFFFFFFF DUP2 GT ISZERO PUSH2 0xEA1 JUMPI PUSH2 0xEA0 PUSH2 0x589 JUMP JUMPDEST JUMPDEST PUSH2 0xEAB DUP3 SLOAD PUSH2 0xCAF JUMP JUMPDEST PUSH2 0xEB6 DUP3 DUP3 DUP6 PUSH2 0xDF6 JUMP JUMPDEST PUSH0 PUSH1 0x20 SWAP1 POP PUSH1 0x1F DUP4 GT PUSH1 0x1 DUP2 EQ PUSH2 0xEE7 JUMPI PUSH0 DUP5 ISZERO PUSH2 0xED5 JUMPI DUP3 DUP8 ADD MLOAD SWAP1 POP JUMPDEST PUSH2 0xEDF DUP6 DUP3 PUSH2 0xE64 JUMP JUMPDEST DUP7 SSTORE POP PUSH2 0xF46 JUMP JUMPDEST PUSH1 0x1F NOT DUP5 AND PUSH2 0xEF5 DUP7 PUSH2 0xCDF JUMP JUMPDEST PUSH0 JUMPDEST DUP3 DUP2 LT ISZERO PUSH2 0xF1C JUMPI DUP5 DUP10 ADD MLOAD DUP3 SSTORE PUSH1 0x1 DUP3 ADD SWAP2 POP PUSH1 0x20 DUP6 ADD SWAP5 POP PUSH1 0x20 DUP2 ADD SWAP1 POP PUSH2 0xEF7 JUMP JUMPDEST DUP7 DUP4 LT ISZERO PUSH2 0xF39 JUMPI DUP5 DUP10 ADD MLOAD PUSH2 0xF35 PUSH1 0x1F DUP10 AND DUP3 PUSH2 0xE48 JUMP JUMPDEST DUP4 SSTORE POP JUMPDEST PUSH1 0x1 PUSH1 0x2 DUP9 MUL ADD DUP9 SSTORE POP POP POP JUMPDEST POP POP POP POP POP POP JUMP JUMPDEST PUSH32 0x4E487B7100000000000000000000000000000000000000000000000000000000 PUSH0 MSTORE PUSH1 0x11 PUSH1 0x4 MSTORE PUSH1 0x24 PUSH0 REVERT JUMPDEST PUSH0 PUSH2 0xF85 DUP3 PUSH2 0x630 JUMP JUMPDEST SWAP2 POP PUSH2 0xF90 DUP4 PUSH2 0x630 JUMP JUMPDEST SWAP3 POP DUP3 DUP3 ADD SWAP1 POP DUP1 DUP3 GT ISZERO PUSH2 0xFA8 JUMPI PUSH2 0xFA7 PUSH2 0xF4E JUMP JUMPDEST JUMPDEST SWAP3 SWAP2 POP POP JUMP JUMPDEST PUSH32 0x4E487B7100000000000000000000000000000000000000000000000000000000 PUSH0 MSTORE PUSH1 0x21 PUSH1 0x4 MSTORE PUSH1 0x24 PUSH0 REVERT JUMPDEST PUSH1 0x80 MLOAD PUSH1 0xA0 MLOAD PUSH1 0xC0 MLOAD PUSH2 0x2D83 PUSH2 0x109F PUSH0 CODECOPY PUSH0 DUP2 DUP2 PUSH2 0x644 ADD MSTORE DUP2 DUP2 PUSH2 0x6FB ADD MSTORE DUP2 DUP2 PUSH2 0x9A8 ADD MSTORE DUP2 DUP2 PUSH2 0xA8E ADD MSTORE DUP2 DUP2 PUSH2 0xF49 ADD MSTORE DUP2 DUP2 PUSH2 0x1164 ADD MSTORE DUP2 DUP2 PUSH2 0x1581 ADD MSTORE DUP2 DUP2 PUSH2 0x177B ADD MSTORE DUP2 DUP2 PUSH2 0x1C4F ADD MSTORE PUSH2 0x1D35 ADD MSTORE PUSH0 DUP2 DUP2 PUSH2 0xA6C ADD MSTORE DUP2 DUP2 PUSH2 0x1256 ADD MSTORE DUP2 DUP2 PUSH2 0x13FC ADD MSTORE DUP2 DUP2 PUSH2 0x155F ADD MSTORE PUSH2 0x1847 ADD MSTORE PUSH0 DUP2 DUP2 PUSH2 0x4DC ADD MSTORE DUP2 DUP2 PUSH2 0x512 ADD MSTORE DUP2 DUP2 PUSH2 0x622 ADD MSTORE DUP2 DUP2 PUSH2 0x71F ADD MSTORE DUP2 DUP2 PUSH2 0xE17 ADD MSTORE DUP2 DUP2 PUSH2 0xF27 ADD MSTORE DUP2 DUP2 PUSH2 0x1201 ADD MSTORE DUP2 DUP2 PUSH2 0x167A ADD MSTORE DUP2 DUP2 PUSH2 0x197F ADD MSTORE PUSH2 0x1C2A ADD MSTORE PUSH2 0x2D83 PUSH0 RETURN INVALID PUSH1 0x80 PUSH1 0x40 MSTORE CALLVALUE DUP1 ISZERO PUSH2 0xF JUMPI PUSH0 PUSH0 REVERT JUMPDEST POP PUSH1 0x4 CALLDATASIZE LT PUSH2 0x1A6 JUMPI PUSH0 CALLDATALOAD PUSH1 0xE0 SHR DUP1 PUSH4 0x629E4ED0 GT PUSH2 0xF7 JUMPI DUP1 PUSH4 0xB95D8DD4 GT PUSH2 0x95 JUMPI DUP1 PUSH4 0xDCA78388 GT PUSH2 0x6F JUMPI DUP1 PUSH4 0xDCA78388 EQ PUSH2 0x41B JUMPI DUP1 PUSH4 0xE89E4ED6 EQ PUSH2 0x44B JUMPI DUP1 PUSH4 0xEBD09054 EQ PUSH2 0x47F JUMPI DUP1 PUSH4 0xF75FDCAA EQ PUSH2 0x49D JUMPI PUSH2 0x1A6 JUMP JUMPDEST DUP1 PUSH4 0xB95D8DD4 EQ PUSH2 0x3C1 JUMPI DUP1 PUSH4 0xC19D93FB EQ PUSH2 0x3DF JUMPI DUP1 PUSH4 0xCA4B208B EQ PUSH2 0x3FD JUMPI PUSH2 0x1A6 JUMP JUMPDEST DUP1 PUSH4 0x99A5D747 GT PUSH2 0xD1 JUMPI DUP1 PUSH4 0x99A5D747 EQ PUSH2 0x35F JUMPI DUP1 PUSH4 0xA525AD3C EQ PUSH2 0x38F JUMPI DUP1 PUSH4 0xB4F5A711 EQ PUSH2 0x3AD JUMPI DUP1 PUSH4 0xB60D4288 EQ PUSH2 0x3B7 JUMPI PUSH2 0x1A6 JUMP JUMPDEST DUP1 PUSH4 0x629E4ED0 EQ PUSH2 0x307 JUMPI DUP1 PUSH4 0x6F9FB98A EQ PUSH2 0x325 JUMPI DUP1 PUSH4 0x725A3B4B EQ PUSH2 0x343 JUMPI PUSH2 0x1A6 JUMP JUMPDEST DUP1 PUSH4 0x3013CE29 GT PUSH2 0x164 JUMPI DUP1 PUSH4 0x45D30A17 GT PUSH2 0x13E JUMPI DUP1 PUSH4 0x45D30A17 EQ PUSH2 0x2A3 JUMPI DUP1 PUSH4 0x4E69D560 EQ PUSH2 0x2C1 JUMPI DUP1 PUSH4 0x5AC482D1 EQ PUSH2 0x2DF JUMPI DUP1 PUSH4 0x60C6D8AE EQ PUSH2 0x2E9 JUMPI PUSH2 0x1A6 JUMP JUMPDEST DUP1 PUSH4 0x3013CE29 EQ PUSH2 0x24B JUMPI DUP1 PUSH4 0x317DEBF5 EQ PUSH2 0x269 JUMPI DUP1 PUSH4 0x3DDB47B4 EQ PUSH2 0x285 JUMPI PUSH2 0x1A6 JUMP JUMPDEST DUP1 PUSH3 0x2EAB7 EQ PUSH2 0x1AA JUMPI DUP1 PUSH4 0x41AE880 EQ PUSH2 0x1C9 JUMPI DUP1 PUSH4 0x681CA55 EQ PUSH2 0x1E7 JUMPI DUP1 PUSH4 0x1A39D8EF EQ PUSH2 0x205 JUMPI DUP1 PUSH4 0x1ADFF0EE EQ PUSH2 0x223 JUMPI DUP1 PUSH4 0x2FBA2C85 EQ PUSH2 0x22D JUMPI JUMPDEST PUSH0 PUSH0 REVERT JUMPDEST PUSH2 0x1B2 PUSH2 0x4B9 JUMP JUMPDEST PUSH1 0x40 MLOAD PUSH2 0x1C0 SWAP3 SWAP2 SWAP1 PUSH2 0x21B6 JUMP JUMPDEST PUSH1 0x40 MLOAD DUP1 SWAP2 SUB SWAP1 RETURN JUMPDEST PUSH2 0x1D1 PUSH2 0x4DA JUMP JUMPDEST PUSH1 0x40 MLOAD PUSH2 0x1DE SWAP2 SWAP1 PUSH2 0x21DD JUMP JUMPDEST PUSH1 0x40 MLOAD DUP1 SWAP2 SUB SWAP1 RETURN JUMPDEST PUSH2 0x1EF PUSH2 0x4FE JUMP JUMPDEST PUSH1 0x40 MLOAD PUSH2 0x1FC SWAP2 SWAP1 PUSH2 0x21F6 JUMP JUMPDEST PUSH1 0x40 MLOAD DUP1 SWAP2 SUB SWAP1 RETURN JUMPDEST PUSH2 0x20D PUSH2 0x50A JUMP JUMPDEST PUSH1 0x40 MLOAD PUSH2 0x21A SWAP2 SWAP1 PUSH2 0x21F6 JUMP JUMPDEST PUSH1 0x40 MLOAD DUP1 SWAP2 SUB SWAP1 RETURN JUMPDEST PUSH2 0x22B PUSH2 0x510 JUMP JUMPDEST STOP JUMPDEST PUSH2 0x235 PUSH2 0x6EB JUMP JUMPDEST PUSH1 0x40 MLOAD PUSH2 0x242 SWAP2 SWAP1 PUSH2 0x21F6 JUMP JUMPDEST PUSH1 0x40 MLOAD DUP1 SWAP2 SUB SWAP1 RETURN JUMPDEST PUSH2 0x253 PUSH2 0x6F9 JUMP JUMPDEST PUSH1 0x40 MLOAD PUSH2 0x260 SWAP2 SWAP1 PUSH2 0x226A JUMP JUMPDEST PUSH1 0x40 MLOAD DUP1 SWAP2 SUB SWAP1 RETURN JUMPDEST PUSH2 0x283 PUSH1 0x4 DUP1 CALLDATASIZE SUB DUP2 ADD SWAP1 PUSH2 0x27E SWAP2 SWAP1 PUSH2 0x22BE JUMP JUMPDEST PUSH2 0x71D JUMP JUMPDEST STOP JUMPDEST PUSH2 0x28D PUSH2 0xB24 JUMP JUMPDEST PUSH1 0x40 MLOAD PUSH2 0x29A SWAP2 SWAP1 PUSH2 0x2303 JUMP JUMPDEST PUSH1 0x40 MLOAD DUP1 SWAP2 SUB SWAP1 RETURN JUMPDEST PUSH2 0x2AB PUSH2 0xB80 JUMP JUMPDEST PUSH1 0x40 MLOAD PUSH2 0x2B8 SWAP2 SWAP1 PUSH2 0x21F6 JUMP JUMPDEST PUSH1 0x40 MLOAD DUP1 SWAP2 SUB SWAP1 RETURN JUMPDEST PUSH2 0x2C9 PUSH2 0xB86 JUMP JUMPDEST PUSH1 0x40 MLOAD PUSH2 0x2D6 SWAP2 SWAP1 PUSH2 0x238C JUMP JUMPDEST PUSH1 0x40 MLOAD DUP1 SWAP2 SUB SWAP1 RETURN JUMPDEST PUSH2 0x2E7 PUSH2 0xE15 JUMP JUMPDEST STOP JUMPDEST PUSH2 0x2F1 PUSH2 0x1027 JUMP JUMPDEST PUSH1 0x40 MLOAD PUSH2 0x2FE SWAP2 SWAP1 PUSH2 0x21F6 JUMP JUMPDEST PUSH1 0x40 MLOAD DUP1 SWAP2 SUB SWAP1 RETURN JUMPDEST PUSH2 0x30F PUSH2 0x102D JUMP JUMPDEST PUSH1 0x40 MLOAD PUSH2 0x31C SWAP2 SWAP1 PUSH2 0x2540 JUMP JUMPDEST PUSH1 0x40 MLOAD DUP1 SWAP2 SUB SWAP1 RETURN JUMPDEST PUSH2 0x32D PUSH2 0x1161 JUMP JUMPDEST PUSH1 0x40 MLOAD PUSH2 0x33A SWAP2 SWAP1 PUSH2 0x21F6 JUMP JUMPDEST PUSH1 0x40 MLOAD DUP1 SWAP2 SUB SWAP1 RETURN JUMPDEST PUSH2 0x35D PUSH1 0x4 DUP1 CALLDATASIZE SUB DUP2 ADD SWAP1 PUSH2 0x358 SWAP2 SWAP1 PUSH2 0x268C JUMP JUMPDEST PUSH2 0x11FF JUMP JUMPDEST STOP JUMPDEST PUSH2 0x379 PUSH1 0x4 DUP1 CALLDATASIZE SUB DUP2 ADD SWAP1 PUSH2 0x374 SWAP2 SWAP1 PUSH2 0x22BE JUMP JUMPDEST PUSH2 0x13D3 JUMP JUMPDEST PUSH1 0x40 MLOAD PUSH2 0x386 SWAP2 SWAP1 PUSH2 0x21F6 JUMP JUMPDEST PUSH1 0x40 MLOAD DUP1 SWAP2 SUB SWAP1 RETURN JUMPDEST PUSH2 0x397 PUSH2 0x13F5 JUMP JUMPDEST PUSH1 0x40 MLOAD PUSH2 0x3A4 SWAP2 SWAP1 PUSH2 0x21F6 JUMP JUMPDEST PUSH1 0x40 MLOAD DUP1 SWAP2 SUB SWAP1 RETURN JUMPDEST PUSH2 0x3B5 PUSH2 0x13FA JUMP JUMPDEST STOP JUMPDEST PUSH2 0x3BF PUSH2 0x1678 JUMP JUMPDEST STOP JUMPDEST PUSH2 0x3C9 PUSH2 0x182D JUMP JUMPDEST PUSH1 0x40 MLOAD PUSH2 0x3D6 SWAP2 SWAP1 PUSH2 0x21F6 JUMP JUMPDEST PUSH1 0x40 MLOAD DUP1 SWAP2 SUB SWAP1 RETURN JUMPDEST PUSH2 0x3E7 PUSH2 0x1833 JUMP JUMPDEST PUSH1 0x40 MLOAD PUSH2 0x3F4 SWAP2 SWAP1 PUSH2 0x2746 JUMP JUMPDEST PUSH1 0x40 MLOAD DUP1 SWAP2 SUB SWAP1 RETURN JUMPDEST PUSH2 0x405 PUSH2 0x1845 JUMP JUMPDEST PUSH1 0x40 MLOAD PUSH2 0x412 SWAP2 SWAP1 PUSH2 0x21DD JUMP JUMPDEST PUSH1 0x40 MLOAD DUP1 SWAP2 SUB SWAP1 RETURN JUMPDEST PUSH2 0x435 PUSH1 0x4 DUP1 CALLDATASIZE SUB DUP2 ADD SWAP1 PUSH2 0x430 SWAP2 SWAP1 PUSH2 0x22BE JUMP JUMPDEST PUSH2 0x1869 JUMP JUMPDEST PUSH1 0x40 MLOAD PUSH2 0x442 SWAP2 SWAP1 PUSH2 0x21F6 JUMP JUMPDEST PUSH1 0x40 MLOAD DUP1 SWAP2 SUB SWAP1 RETURN JUMPDEST PUSH2 0x465 PUSH1 0x4 DUP1 CALLDATASIZE SUB DUP2 ADD SWAP1 PUSH2 0x460 SWAP2 SWAP1 PUSH2 0x22BE JUMP JUMPDEST PUSH2 0x1885 JUMP JUMPDEST PUSH1 0x40 MLOAD PUSH2 0x476 SWAP6 SWAP5 SWAP4 SWAP3 SWAP2 SWAP1 PUSH2 0x275F JUMP JUMPDEST PUSH1 0x40 MLOAD DUP1 SWAP2 SUB SWAP1 RETURN JUMPDEST PUSH2 0x487 PUSH2 0x1965 JUMP JUMPDEST PUSH1 0x40 MLOAD PUSH2 0x494 SWAP2 SWAP1 PUSH2 0x21DD JUMP JUMPDEST PUSH1 0x40 MLOAD DUP1 SWAP2 SUB SWAP1 RETURN JUMPDEST PUSH2 0x4B7 PUSH1 0x4 DUP1 CALLDATASIZE SUB DUP2 ADD SWAP1 PUSH2 0x4B2 SWAP2 SWAP1 PUSH2 0x22BE JUMP JUMPDEST PUSH2 0x197D JUMP JUMPDEST STOP JUMPDEST PUSH0 PUSH0 PUSH20 0xC869D7A99FA831B4B3BEE7E245F0C9348C2209A3 PUSH1 0x96 SWAP2 POP SWAP2 POP SWAP1 SWAP2 JUMP JUMPDEST PUSH32 0x0 DUP2 JUMP JUMPDEST PUSH0 PUSH1 0x5 DUP1 SLOAD SWAP1 POP SWAP1 POP SWAP1 JUMP JUMPDEST PUSH1 0x2 SLOAD DUP2 JUMP JUMPDEST PUSH32 0x0 PUSH20 0xFFFFFFFFFFFFFFFFFFFFFFFFFFFFFFFFFFFFFFFF AND CALLER PUSH20 0xFFFFFFFFFFFFFFFFFFFFFFFFFFFFFFFFFFFFFFFF AND EQ PUSH2 0x595 JUMPI PUSH1 0x40 MLOAD PUSH32 0xA598AEBE00000000000000000000000000000000000000000000000000000000 DUP2 MSTORE PUSH1 0x4 ADD PUSH1 0x40 MLOAD DUP1 SWAP2 SUB SWAP1 REVERT JUMPDEST PUSH1 0x1 DUP1 PUSH1 0x4 DUP2 GT ISZERO PUSH2 0x5AA JUMPI PUSH2 0x5A9 PUSH2 0x26D3 JUMP JUMPDEST JUMPDEST PUSH1 0x1 PUSH0 SWAP1 SLOAD SWAP1 PUSH2 0x100 EXP SWAP1 DIV PUSH1 0xFF AND PUSH1 0x4 DUP2 GT ISZERO PUSH2 0x5CB JUMPI PUSH2 0x5CA PUSH2 0x26D3 JUMP JUMPDEST JUMPDEST EQ PUSH2 0x602 JUMPI PUSH1 0x40 MLOAD PUSH32 0xBAF3F0F700000000000000000000000000000000000000000000000000000000 DUP2 MSTORE PUSH1 0x4 ADD PUSH1 0x40 MLOAD DUP1 SWAP2 SUB SWAP1 REVERT JUMPDEST PUSH2 0x60A PUSH2 0x1CE4 JUMP JUMPDEST PUSH0 PUSH2 0x613 PUSH2 0x1D31 JUMP JUMPDEST SWAP1 POP PUSH0 DUP2 GT ISZERO PUSH2 0x689 JUMPI PUSH2 0x688 PUSH32 0x0 DUP3 PUSH32 0x0 PUSH20 0xFFFFFFFFFFFFFFFFFFFFFFFFFFFFFFFFFFFFFFFF AND PUSH2 0x1E17 SWAP1 SWAP3 SWAP2 SWAP1 PUSH4 0xFFFFFFFF AND JUMP JUMPDEST JUMPDEST PUSH1 0x3 PUSH1 0x1 PUSH0 PUSH2 0x100 EXP DUP2 SLOAD DUP2 PUSH1 0xFF MUL NOT AND SWAP1 DUP4 PUSH1 0x4 DUP2 GT ISZERO PUSH2 0x6AE JUMPI PUSH2 0x6AD PUSH2 0x26D3 JUMP JUMPDEST JUMPDEST MUL OR SWAP1 SSTORE POP PUSH32 0x92C439FDA90C70CCDEDCB94D28A14F9FDA69D67124EFBBE9BF905740194228C8 PUSH1 0x40 MLOAD PUSH1 0x40 MLOAD DUP1 SWAP2 SUB SWAP1 LOG1 POP PUSH2 0x6E8 PUSH2 0x1E96 JUMP JUMPDEST POP JUMP JUMPDEST PUSH0 PUSH2 0x6F4 PUSH2 0x1D31 JUMP JUMPDEST SWAP1 POP SWAP1 JUMP JUMPDEST PUSH32 0x0 DUP2 JUMP JUMPDEST PUSH32 0x0 PUSH20 0xFFFFFFFFFFFFFFFFFFFFFFFFFFFFFFFFFFFFFFFF AND CALLER PUSH20 0xFFFFFFFFFFFFFFFFFFFFFFFFFFFFFFFFFFFFFFFF AND EQ PUSH2 0x7A2 JUMPI PUSH1 0x40 MLOAD PUSH32 0xA598AEBE00000000000000000000000000000000000000000000000000000000 DUP2 MSTORE PUSH1 0x4 ADD PUSH1 0x40 MLOAD DUP1 SWAP2 SUB SWAP1 REVERT JUMPDEST PUSH1 0x1 DUP1 PUSH1 0x4 DUP2 GT ISZERO PUSH2 0x7B7 JUMPI PUSH2 0x7B6 PUSH2 0x26D3 JUMP JUMPDEST JUMPDEST PUSH1 0x1 PUSH0 SWAP1 SLOAD SWAP1 PUSH2 0x100 EXP SWAP1 DIV PUSH1 0xFF AND PUSH1 0x4 DUP2 GT ISZERO PUSH2 0x7D8 JUMPI PUSH2 0x7D7 PUSH2 0x26D3 JUMP JUMPDEST JUMPDEST EQ PUSH2 0x80F JUMPI PUSH1 0x40 MLOAD PUSH32 0xBAF3F0F700000000000000000000000000000000000000000000000000000000 DUP2 MSTORE PUSH1 0x4 ADD PUSH1 0x40 MLOAD DUP1 SWAP2 SUB SWAP1 REVERT JUMPDEST DUP2 PUSH1 0x5 DUP1 SLOAD SWAP1 POP DUP2 LT PUSH2 0x84E JUMPI PUSH1 0x40 MLOAD PUSH32 0xBA11734000000000000000000000000000000000000000000000000000000000 DUP2 MSTORE PUSH1 0x4 ADD PUSH1 0x40 MLOAD DUP1 SWAP2 SUB SWAP1 REVERT JUMPDEST PUSH2 0x856 PUSH2 0x1CE4 JUMP JUMPDEST PUSH0 PUSH1 0x5 DUP5 DUP2 SLOAD DUP2 LT PUSH2 0x86B JUMPI PUSH2 0x86A PUSH2 0x27B7 JUMP JUMPDEST JUMPDEST SWAP1 PUSH0 MSTORE PUSH1 0x20 PUSH0 KECCAK256 SWAP1 PUSH1 0x4 MUL ADD SWAP1 POP DUP1 PUSH1 0x1 ADD PUSH0 SWAP1 SLOAD SWAP1 PUSH2 0x100 EXP SWAP1 DIV PUSH1 0xFF AND ISZERO PUSH2 0x8CA JUMPI PUSH1 0x40 MLOAD PUSH32 0x8C379A000000000000000000000000000000000000000000000000000000000 DUP2 MSTORE PUSH1 0x4 ADD PUSH2 0x8C1 SWAP1 PUSH2 0x282E JUMP JUMPDEST PUSH1 0x40 MLOAD DUP1 SWAP2 SUB SWAP1 REVERT JUMPDEST DUP1 PUSH1 0x1 ADD PUSH1 0x1 SWAP1 SLOAD SWAP1 PUSH2 0x100 EXP SWAP1 DIV PUSH1 0xFF AND ISZERO PUSH2 0x91C JUMPI PUSH1 0x40 MLOAD PUSH32 0x8C379A000000000000000000000000000000000000000000000000000000000 DUP2 MSTORE PUSH1 0x4 ADD PUSH2 0x913 SWAP1 PUSH2 0x2896 JUMP JUMPDEST PUSH1 0x40 MLOAD DUP1 SWAP2 SUB SWAP1 REVERT JUMPDEST PUSH1 0x1 DUP2 PUSH1 0x1 ADD PUSH0 PUSH2 0x100 EXP DUP2 SLOAD DUP2 PUSH1 0xFF MUL NOT AND SWAP1 DUP4 ISZERO ISZERO MUL OR SWAP1 SSTORE POP DUP1 PUSH0 ADD SLOAD PUSH1 0x3 PUSH0 DUP3 DUP3 SLOAD PUSH2 0x94C SWAP2 SWAP1 PUSH2 0x28E1 JUMP JUMPDEST SWAP3 POP POP DUP2 SWAP1 SSTORE POP PUSH0 PUSH2 0x2710 PUSH1 0x96 DUP4 PUSH0 ADD SLOAD PUSH2 0x967 SWAP2 SWAP1 PUSH2 0x2914 JUMP JUMPDEST PUSH2 0x971 SWAP2 SWAP1 PUSH2 0x2982 JUMP JUMPDEST SWAP1 POP PUSH0 DUP2 DUP4 PUSH0 ADD SLOAD PUSH2 0x983 SWAP2 SWAP1 PUSH2 0x29B2 JUMP JUMPDEST SWAP1 POP PUSH0 DUP3 GT ISZERO PUSH2 0xA67 JUMPI PUSH2 0x9EC PUSH20 0xC869D7A99FA831B4B3BEE7E245F0C9348C2209A3 DUP4 PUSH32 0x0 PUSH20 0xFFFFFFFFFFFFFFFFFFFFFFFFFFFFFFFFFFFFFFFF AND PUSH2 0x1E17 SWAP1 SWAP3 SWAP2 SWAP1 PUSH4 0xFFFFFFFF AND JUMP JUMPDEST DUP2 PUSH1 0x4 PUSH0 DUP3 DUP3 SLOAD PUSH2 0x9FD SWAP2 SWAP1 PUSH2 0x28E1 JUMP JUMPDEST SWAP3 POP POP DUP2 SWAP1 SSTORE POP PUSH20 0xC869D7A99FA831B4B3BEE7E245F0C9348C2209A3 PUSH20 0xFFFFFFFFFFFFFFFFFFFFFFFFFFFFFFFFFFFFFFFF AND PUSH32 0x421CBBBB1785F7266E99384E78E4F325FE3D7AE36B352351621E7F3B7CC43AA0 DUP4 PUSH1 0x40 MLOAD PUSH2 0xA5E SWAP2 SWAP1 PUSH2 0x21F6 JUMP JUMPDEST PUSH1 0x40 MLOAD DUP1 SWAP2 SUB SWAP1 LOG2 JUMPDEST PUSH2 0xAD2 PUSH32 0x0 DUP3 PUSH32 0x0 PUSH20 0xFFFFFFFFFFFFFFFFFFFFFFFFFFFFFFFFFFFFFFFF AND PUSH2 0x1E17 SWAP1 SWAP3 SWAP2 SWAP1 PUSH4 0xFFFFFFFF AND JUMP JUMPDEST DUP6 PUSH32 0xD33FCD27CBFB73A2D9058C968B560CCB306500BF536133802048489ECC7355E9 DUP3 DUP5 PUSH1 0x40 MLOAD PUSH2 0xB04 SWAP3 SWAP2 SWAP1 PUSH2 0x29E5 JUMP JUMPDEST PUSH1 0x40 MLOAD DUP1 SWAP2 SUB SWAP1 LOG2 PUSH2 0xB14 PUSH2 0x1E9F JUMP JUMPDEST POP POP POP PUSH2 0xB1F PUSH2 0x1E96 JUMP JUMPDEST POP POP POP JUMP JUMPDEST PUSH0 PUSH1 0x4 DUP1 DUP2 GT ISZERO PUSH2 0xB38 JUMPI PUSH2 0xB37 PUSH2 0x26D3 JUMP JUMPDEST JUMPDEST PUSH1 0x1 PUSH0 SWAP1 SLOAD SWAP1 PUSH2 0x100 EXP SWAP1 DIV PUSH1 0xFF AND PUSH1 0x4 DUP2 GT ISZERO PUSH2 0xB59 JUMPI PUSH2 0xB58 PUSH2 0x26D3 JUMP JUMPDEST JUMPDEST EQ PUSH2 0xB66 JUMPI PUSH0 SWAP1 POP PUSH2 0xB7D JUMP JUMPDEST PUSH3 0x278D00 PUSH1 0x6 SLOAD PUSH2 0xB77 SWAP2 SWAP1 PUSH2 0x28E1 JUMP JUMPDEST TIMESTAMP LT ISZERO SWAP1 POP JUMPDEST SWAP1 JUMP JUMPDEST PUSH1 0x3 SLOAD DUP2 JUMP JUMPDEST PUSH1 0x60 PUSH0 PUSH1 0x4 DUP2 GT ISZERO PUSH2 0xB9B JUMPI PUSH2 0xB9A PUSH2 0x26D3 JUMP JUMPDEST JUMPDEST PUSH1 0x1 PUSH0 SWAP1 SLOAD SWAP1 PUSH2 0x100 EXP SWAP1 DIV PUSH1 0xFF AND PUSH1 0x4 DUP2 GT ISZERO PUSH2 0xBBC JUMPI PUSH2 0xBBB PUSH2 0x26D3 JUMP JUMPDEST JUMPDEST SUB PUSH2 0xBFE JUMPI PUSH1 0x40 MLOAD DUP1 PUSH1 0x40 ADD PUSH1 0x40 MSTORE DUP1 PUSH1 0x1B DUP2 MSTORE PUSH1 0x20 ADD PUSH32 0x43726561746564202857616974696E6720666F722066756E6473290000000000 DUP2 MSTORE POP SWAP1 POP PUSH2 0xE12 JUMP JUMPDEST PUSH1 0x1 PUSH1 0x4 DUP2 GT ISZERO PUSH2 0xC12 JUMPI PUSH2 0xC11 PUSH2 0x26D3 JUMP JUMPDEST JUMPDEST PUSH1 0x1 PUSH0 SWAP1 SLOAD SWAP1 PUSH2 0x100 EXP SWAP1 DIV PUSH1 0xFF AND PUSH1 0x4 DUP2 GT ISZERO PUSH2 0xC33 JUMPI PUSH2 0xC32 PUSH2 0x26D3 JUMP JUMPDEST JUMPDEST SUB PUSH2 0xC75 JUMPI PUSH1 0x40 MLOAD DUP1 PUSH1 0x40 ADD PUSH1 0x40 MSTORE DUP1 PUSH1 0xF DUP2 MSTORE PUSH1 0x20 ADD PUSH32 0x46756E6465642028416374697665290000000000000000000000000000000000 DUP2 MSTORE POP SWAP1 POP PUSH2 0xE12 JUMP JUMPDEST PUSH1 0x2 PUSH1 0x4 DUP2 GT ISZERO PUSH2 0xC89 JUMPI PUSH2 0xC88 PUSH2 0x26D3 JUMP JUMPDEST JUMPDEST PUSH1 0x1 PUSH0 SWAP1 SLOAD SWAP1 PUSH2 0x100 EXP SWAP1 DIV PUSH1 0xFF AND PUSH1 0x4 DUP2 GT ISZERO PUSH2 0xCAA JUMPI PUSH2 0xCA9 PUSH2 0x26D3 JUMP JUMPDEST JUMPDEST SUB PUSH2 0xCEC JUMPI PUSH1 0x40 MLOAD DUP1 PUSH1 0x40 ADD PUSH1 0x40 MSTORE DUP1 PUSH1 0x9 DUP2 MSTORE PUSH1 0x20 ADD PUSH32 0x436F6D706C657465640000000000000000000000000000000000000000000000 DUP2 MSTORE POP SWAP1 POP PUSH2 0xE12 JUMP JUMPDEST PUSH1 0x3 PUSH1 0x4 DUP2 GT ISZERO PUSH2 0xD00 JUMPI PUSH2 0xCFF PUSH2 0x26D3 JUMP JUMPDEST JUMPDEST PUSH1 0x1 PUSH0 SWAP1 SLOAD SWAP1 PUSH2 0x100 EXP SWAP1 DIV PUSH1 0xFF AND PUSH1 0x4 DUP2 GT ISZERO PUSH2 0xD21 JUMPI PUSH2 0xD20 PUSH2 0x26D3 JUMP JUMPDEST JUMPDEST SUB PUSH2 0xD63 JUMPI PUSH1 0x40 MLOAD DUP1 PUSH1 0x40 ADD PUSH1 0x40 MSTORE DUP1 PUSH1 0x9 DUP2 MSTORE PUSH1 0x20 ADD PUSH32 0x43616E63656C6C65640000000000000000000000000000000000000000000000 DUP2 MSTORE POP SWAP1 POP PUSH2 0xE12 JUMP JUMPDEST PUSH1 0x4 DUP1 DUP2 GT ISZERO PUSH2 0xD76 JUMPI PUSH2 0xD75 PUSH2 0x26D3 JUMP JUMPDEST JUMPDEST PUSH1 0x1 PUSH0 SWAP1 SLOAD SWAP1 PUSH2 0x100 EXP SWAP1 DIV PUSH1 0xFF AND PUSH1 0x4 DUP2 GT ISZERO PUSH2 0xD97 JUMPI PUSH2 0xD96 PUSH2 0x26D3 JUMP JUMPDEST JUMPDEST SUB PUSH2 0xDD9 JUMPI PUSH1 0x40 MLOAD DUP1 PUSH1 0x40 ADD PUSH1 0x40 MSTORE DUP1 PUSH1 0x8 DUP2 MSTORE PUSH1 0x20 ADD PUSH32 0x4469737075746564000000000000000000000000000000000000000000000000 DUP2 MSTORE POP SWAP1 POP PUSH2 0xE12 JUMP JUMPDEST PUSH1 0x40 MLOAD DUP1 PUSH1 0x40 ADD PUSH1 0x40 MSTORE DUP1 PUSH1 0x7 DUP2 MSTORE PUSH1 0x20 ADD PUSH32 0x556E6B6E6F776E00000000000000000000000000000000000000000000000000 DUP2 MSTORE POP SWAP1 POP JUMPDEST SWAP1 JUMP JUMPDEST PUSH32 0x0 PUSH20 0xFFFFFFFFFFFFFFFFFFFFFFFFFFFFFFFFFFFFFFFF AND CALLER PUSH20 0xFFFFFFFFFFFFFFFFFFFFFFFFFFFFFFFFFFFFFFFF AND EQ PUSH2 0xE9A JUMPI PUSH1 0x40 MLOAD PUSH32 0xA598AEBE00000000000000000000000000000000000000000000000000000000 DUP2 MSTORE PUSH1 0x4 ADD PUSH1 0x40 MLOAD DUP1 SWAP2 SUB SWAP1 REVERT JUMPDEST PUSH1 0x4 DUP1 PUSH1 0x4 DUP2 GT ISZERO PUSH2 0xEAF JUMPI PUSH2 0xEAE PUSH2 0x26D3 JUMP JUMPDEST JUMPDEST PUSH1 0x1 PUSH0 SWAP1 SLOAD SWAP1 PUSH2 0x100 EXP SWAP1 DIV PUSH1 0xFF AND PUSH1 0x4 DUP2 GT ISZERO PUSH2 0xED0 JUMPI PUSH2 0xECF PUSH2 0x26D3 JUMP JUMPDEST JUMPDEST EQ PUSH2 0xF07 JUMPI PUSH1 0x40 MLOAD PUSH32 0xBAF3F0F700000000000000000000000000000000000000000000000000000000 DUP2 MSTORE PUSH1 0x4 ADD PUSH1 0x40 MLOAD DUP1 SWAP2 SUB SWAP1 REVERT JUMPDEST PUSH2 0xF0F PUSH2 0x1CE4 JUMP JUMPDEST PUSH0 PUSH2 0xF18 PUSH2 0x1D31 JUMP JUMPDEST SWAP1 POP PUSH0 DUP2 GT ISZERO PUSH2 0xF8E JUMPI PUSH2 0xF8D PUSH32 0x0 DUP3 PUSH32 0x0 PUSH20 0xFFFFFFFFFFFFFFFFFFFFFFFFFFFFFFFFFFFFFFFF AND PUSH2 0x1E17 SWAP1 SWAP3 SWAP2 SWAP1 PUSH4 0xFFFFFFFF AND JUMP JUMPDEST JUMPDEST PUSH1 0x3 PUSH1 0x1 PUSH0 PUSH2 0x100 EXP DUP2 SLOAD DUP2 PUSH1 0xFF MUL NOT AND SWAP1 DUP4 PUSH1 0x4 DUP2 GT ISZERO PUSH2 0xFB3 JUMPI PUSH2 0xFB2 PUSH2 0x26D3 JUMP JUMPDEST JUMPDEST MUL OR SWAP1 SSTORE POP PUSH32 0x8015C5005D9AD5D85CA80D3F894F08E0159277704C54166E5CFF108800FA80CD PUSH0 PUSH1 0x40 MLOAD PUSH2 0xFE7 SWAP2 SWAP1 PUSH2 0x2303 JUMP JUMPDEST PUSH1 0x40 MLOAD DUP1 SWAP2 SUB SWAP1 LOG1 PUSH32 0x92C439FDA90C70CCDEDCB94D28A14F9FDA69D67124EFBBE9BF905740194228C8 PUSH1 0x40 MLOAD PUSH1 0x40 MLOAD DUP1 SWAP2 SUB SWAP1 LOG1 POP PUSH2 0x1024 PUSH2 0x1E96 JUMP JUMPDEST POP JUMP JUMPDEST PUSH1 0x4 SLOAD DUP2 JUMP JUMPDEST PUSH1 0x60 PUSH1 0x5 DUP1 SLOAD DUP1 PUSH1 0x20 MUL PUSH1 0x20 ADD PUSH1 0x40 MLOAD SWAP1 DUP2 ADD PUSH1 0x40 MSTORE DUP1 SWAP3 SWAP2 SWAP1 DUP2 DUP2 MSTORE PUSH1 0x20 ADD PUSH0 SWAP1 JUMPDEST DUP3 DUP3 LT ISZERO PUSH2 0x1158 JUMPI DUP4 DUP3 SWAP1 PUSH0 MSTORE PUSH1 0x20 PUSH0 KECCAK256 SWAP1 PUSH1 0x4 MUL ADD PUSH1 0x40 MLOAD DUP1 PUSH1 0xA0 ADD PUSH1 0x40 MSTORE SWAP1 DUP2 PUSH0 DUP3 ADD SLOAD DUP2 MSTORE PUSH1 0x20 ADD PUSH1 0x1 DUP3 ADD PUSH0 SWAP1 SLOAD SWAP1 PUSH2 0x100 EXP SWAP1 DIV PUSH1 0xFF AND ISZERO ISZERO ISZERO ISZERO DUP2 MSTORE PUSH1 0x20 ADD PUSH1 0x1 DUP3 ADD PUSH1 0x1 SWAP1 SLOAD SWAP1 PUSH2 0x100 EXP SWAP1 DIV PUSH1 0xFF AND ISZERO ISZERO ISZERO ISZERO DUP2 MSTORE PUSH1 0x20 ADD PUSH1 0x2 DUP3 ADD SLOAD DUP2 MSTORE PUSH1 0x20 ADD PUSH1 0x3 DUP3 ADD DUP1 SLOAD PUSH2 0x10C9 SWAP1 PUSH2 0x2A39 JUMP JUMPDEST DUP1 PUSH1 0x1F ADD PUSH1 0x20 DUP1 SWAP2 DIV MUL PUSH1 0x20 ADD PUSH1 0x40 MLOAD SWAP1 DUP2 ADD PUSH1 0x40 MSTORE DUP1 SWAP3 SWAP2 SWAP1 DUP2 DUP2 MSTORE PUSH1 0x20 ADD DUP3 DUP1 SLOAD PUSH2 0x10F5 SWAP1 PUSH2 0x2A39 JUMP JUMPDEST DUP1 ISZERO PUSH2 0x1140 JUMPI DUP1 PUSH1 0x1F LT PUSH2 0x1117 JUMPI PUSH2 0x100 DUP1 DUP4 SLOAD DIV MUL DUP4 MSTORE SWAP2 PUSH1 0x20 ADD SWAP2 PUSH2 0x1140 JUMP JUMPDEST DUP3 ADD SWAP2 SWAP1 PUSH0 MSTORE PUSH1 0x20 PUSH0 KECCAK256 SWAP1 JUMPDEST DUP2 SLOAD DUP2 MSTORE SWAP1 PUSH1 0x1 ADD SWAP1 PUSH1 0x20 ADD DUP1 DUP4 GT PUSH2 0x1123 JUMPI DUP3 SWAP1 SUB PUSH1 0x1F AND DUP3 ADD SWAP2 JUMPDEST POP POP POP POP POP DUP2 MSTORE POP POP DUP2 MSTORE PUSH1 0x20 ADD SWAP1 PUSH1 0x1 ADD SWAP1 PUSH2 0x1050 JUMP JUMPDEST POP POP POP POP SWAP1 POP SWAP1 JUMP JUMPDEST PUSH0 PUSH32 0x0 PUSH20 0xFFFFFFFFFFFFFFFFFFFFFFFFFFFFFFFFFFFFFFFF AND PUSH4 0x70A08231 ADDRESS PUSH1 0x40 MLOAD DUP3 PUSH4 0xFFFFFFFF AND PUSH1 0xE0 SHL DUP2 MSTORE PUSH1 0x4 ADD PUSH2 0x11BB SWAP2 SWAP1 PUSH2 0x21DD JUMP JUMPDEST PUSH1 0x20 PUSH1 0x40 MLOAD DUP1 DUP4 SUB DUP2 DUP7 GAS STATICCALL ISZERO DUP1 ISZERO PUSH2 0x11D6 JUMPI RETURNDATASIZE PUSH0 PUSH0 RETURNDATACOPY RETURNDATASIZE PUSH0 REVERT JUMPDEST POP POP POP POP PUSH1 0x40 MLOAD RETURNDATASIZE PUSH1 0x1F NOT PUSH1 0x1F DUP3 ADD AND DUP3 ADD DUP1 PUSH1 0x40 MSTORE POP DUP2 ADD SWAP1 PUSH2 0x11FA SWAP2 SWAP1 PUSH2 0x2A7D JUMP JUMPDEST SWAP1 POP SWAP1 JUMP JUMPDEST PUSH32 0x0 PUSH20 0xFFFFFFFFFFFFFFFFFFFFFFFFFFFFFFFFFFFFFFFF AND CALLER PUSH20 0xFFFFFFFFFFFFFFFFFFFFFFFFFFFFFFFFFFFFFFFF AND EQ DUP1 PUSH2 0x12A4 JUMPI POP PUSH32 0x0 PUSH20 0xFFFFFFFFFFFFFFFFFFFFFFFFFFFFFFFFFFFFFFFF AND CALLER PUSH20 0xFFFFFFFFFFFFFFFFFFFFFFFFFFFFFFFFFFFFFFFF AND EQ JUMPDEST PUSH2 0x12E3 JUMPI PUSH1 0x40 MLOAD PUSH32 0x8C379A000000000000000000000000000000000000000000000000000000000 DUP2 MSTORE PUSH1 0x4 ADD PUSH2 0x12DA SWAP1 PUSH2 0x2AF2 JUMP JUMPDEST PUSH1 0x40 MLOAD DUP1 SWAP2 SUB SWAP1 REVERT JUMPDEST PUSH1 0x1 DUP1 PUSH1 0x4 DUP2 GT ISZERO PUSH2 0x12F8 JUMPI PUSH2 0x12F7 PUSH2 0x26D3 JUMP JUMPDEST JUMPDEST PUSH1 0x1 PUSH0 SWAP1 SLOAD SWAP1 PUSH2 0x100 EXP SWAP1 DIV PUSH1 0xFF AND PUSH1 0x4 DUP2 GT ISZERO PUSH2 0x1319 JUMPI PUSH2 0x1318 PUSH2 0x26D3 JUMP JUMPDEST JUMPDEST EQ PUSH2 0x1350 JUMPI PUSH1 0x40 MLOAD PUSH32 0xBAF3F0F700000000000000000000000000000000000000000000000000000000 DUP2 MSTORE PUSH1 0x4 ADD PUSH1 0x40 MLOAD DUP1 SWAP2 SUB SWAP1 REVERT JUMPDEST PUSH1 0x4 PUSH1 0x1 PUSH0 PUSH2 0x100 EXP DUP2 SLOAD DUP2 PUSH1 0xFF MUL NOT AND SWAP1 DUP4 PUSH1 0x4 DUP2 GT ISZERO PUSH2 0x1375 JUMPI PUSH2 0x1374 PUSH2 0x26D3 JUMP JUMPDEST JUMPDEST MUL OR SWAP1 SSTORE POP TIMESTAMP PUSH1 0x6 DUP2 SWAP1 SSTORE POP CALLER PUSH20 0xFFFFFFFFFFFFFFFFFFFFFFFFFFFFFFFFFFFFFFFF AND PUSH32 0x28B099EB575E23E32BECD7C30DC8F9B2F98E370CDBF9841EA3338D9000402A25 DUP4 PUSH1 0x40 MLOAD PUSH2 0x13C7 SWAP2 SWAP1 PUSH2 0x238C JUMP JUMPDEST PUSH1 0x40 MLOAD DUP1 SWAP2 SUB SWAP1 LOG2 POP POP JUMP JUMPDEST PUSH0 PUSH2 0x2710 PUSH1 0x96 DUP4 PUSH2 0x13E4 SWAP2 SWAP1 PUSH2 0x2914 JUMP JUMPDEST PUSH2 0x13EE SWAP2 SWAP1 PUSH2 0x2982 JUMP JUMPDEST SWAP1 POP SWAP2 SWAP1 POP JUMP JUMPDEST PUSH1 0x96 DUP2 JUMP JUMPDEST PUSH32 0x0 PUSH20 0xFFFFFFFFFFFFFFFFFFFFFFFFFFFFFFFFFFFFFFFF AND CALLER PUSH20 0xFFFFFFFFFFFFFFFFFFFFFFFFFFFFFFFFFFFFFFFF AND EQ PUSH2 0x147F JUMPI PUSH1 0x40 MLOAD PUSH32 0x8858596300000000000000000000000000000000000000000000000000000000 DUP2 MSTORE PUSH1 0x4 ADD PUSH1 0x40 MLOAD DUP1 SWAP2 SUB SWAP1 REVERT JUMPDEST PUSH1 0x4 DUP1 PUSH1 0x4 DUP2 GT ISZERO PUSH2 0x1494 JUMPI PUSH2 0x1493 PUSH2 0x26D3 JUMP JUMPDEST JUMPDEST PUSH1 0x1 PUSH0 SWAP1 SLOAD SWAP1 PUSH2 0x100 EXP SWAP1 DIV PUSH1 0xFF AND PUSH1 0x4 DUP2 GT ISZERO PUSH2 0x14B5 JUMPI PUSH2 0x14B4 PUSH2 0x26D3 JUMP JUMPDEST JUMPDEST EQ PUSH2 0x14EC JUMPI PUSH1 0x40 MLOAD PUSH32 0xBAF3F0F700000000000000000000000000000000000000000000000000000000 DUP2 MSTORE PUSH1 0x4 ADD PUSH1 0x40 MLOAD DUP1 SWAP2 SUB SWAP1 REVERT JUMPDEST PUSH2 0x14F4 PUSH2 0x1CE4 JUMP JUMPDEST PUSH3 0x278D00 PUSH1 0x6 SLOAD PUSH2 0x1505 SWAP2 SWAP1 PUSH2 0x28E1 JUMP JUMPDEST TIMESTAMP LT ISZERO PUSH2 0x1547 JUMPI PUSH1 0x40 MLOAD PUSH32 0x8C379A000000000000000000000000000000000000000000000000000000000 DUP2 MSTORE PUSH1 0x4 ADD PUSH2 0x153E SWAP1 PUSH2 0x2B5A JUMP JUMPDEST PUSH1 0x40 MLOAD DUP1 SWAP2 SUB SWAP1 REVERT JUMPDEST PUSH0 PUSH2 0x1550 PUSH2 0x1D31 JUMP JUMPDEST SWAP1 POP PUSH0 DUP2 GT ISZERO PUSH2 0x15DE JUMPI PUSH2 0x15C5 PUSH32 0x0 DUP3 PUSH32 0x0 PUSH20 0xFFFFFFFFFFFFFFFFFFFFFFFFFFFFFFFFFFFFFFFF AND PUSH2 0x1E17 SWAP1 SWAP3 SWAP2 SWAP1 PUSH4 0xFFFFFFFF AND JUMP JUMPDEST DUP1 PUSH1 0x3 PUSH0 DUP3 DUP3 SLOAD PUSH2 0x15D6 SWAP2 SWAP1 PUSH2 0x28E1 JUMP JUMPDEST SWAP3 POP POP DUP2 SWAP1 SSTORE POP JUMPDEST PUSH1 0x2 PUSH1 0x1 PUSH0 PUSH2 0x100 EXP DUP2 SLOAD DUP2 PUSH1 0xFF MUL NOT AND SWAP1 DUP4 PUSH1 0x4 DUP2 GT ISZERO PUSH2 0x1603 JUMPI PUSH2 0x1602 PUSH2 0x26D3 JUMP JUMPDEST JUMPDEST MUL OR SWAP1 SSTORE POP PUSH32 0x8015C5005D9AD5D85CA80D3F894F08E0159277704C54166E5CFF108800FA80CD PUSH1 0x1 PUSH1 0x40 MLOAD PUSH2 0x1638 SWAP2 SWAP1 PUSH2 0x2303 JUMP JUMPDEST PUSH1 0x40 MLOAD DUP1 SWAP2 SUB SWAP1 LOG1 PUSH32 0xE39866727217E43713C3728C5769515E8FB38E990B568B9831C1689DFDF67B66 PUSH1 0x40 MLOAD PUSH1 0x40 MLOAD DUP1 SWAP2 SUB SWAP1 LOG1 POP PUSH2 0x1675 PUSH2 0x1E96 JUMP JUMPDEST POP JUMP JUMPDEST PUSH32 0x0 PUSH20 0xFFFFFFFFFFFFFFFFFFFFFFFFFFFFFFFFFFFFFFFF AND CALLER PUSH20 0xFFFFFFFFFFFFFFFFFFFFFFFFFFFFFFFFFFFFFFFF AND EQ PUSH2 0x16FD JUMPI PUSH1 0x40 MLOAD PUSH32 0xA598AEBE00000000000000000000000000000000000000000000000000000000 DUP2 MSTORE PUSH1 0x4 ADD PUSH1 0x40 MLOAD DUP1 SWAP2 SUB SWAP1 REVERT JUMPDEST PUSH0 DUP1 PUSH1 0x4 DUP2 GT ISZERO PUSH2 0x1711 JUMPI PUSH2 0x1710 PUSH2 0x26D3 JUMP JUMPDEST JUMPDEST PUSH1 0x1 PUSH0 SWAP1 SLOAD SWAP1 PUSH2 0x100 EXP SWAP1 DIV PUSH1 0xFF AND PUSH1 0x4 DUP2 GT ISZERO PUSH2 0x1732 JUMPI PUSH2 0x1731 PUSH2 0x26D3 JUMP JUMPDEST JUMPDEST EQ PUSH2 0x1769 JUMPI PUSH1 0x40 MLOAD PUSH32 0xBAF3F0F700000000000000000000000000000000000000000000000000000000 DUP2 MSTORE PUSH1 0x4 ADD PUSH1 0x40 MLOAD DUP1 SWAP2 SUB SWAP1 REVERT JUMPDEST PUSH2 0x1771 PUSH2 0x1CE4 JUMP JUMPDEST PUSH2 0x17C0 CALLER ADDRESS PUSH1 0x2 SLOAD PUSH32 0x0 PUSH20 0xFFFFFFFFFFFFFFFFFFFFFFFFFFFFFFFFFFFFFFFF AND PUSH2 0x1F8E SWAP1 SWAP4 SWAP3 SWAP2 SWAP1 PUSH4 0xFFFFFFFF AND JUMP JUMPDEST PUSH1 0x1 DUP1 PUSH0 PUSH2 0x100 EXP DUP2 SLOAD DUP2 PUSH1 0xFF MUL NOT AND SWAP1 DUP4 PUSH1 0x4 DUP2 GT ISZERO PUSH2 0x17E4 JUMPI PUSH2 0x17E3 PUSH2 0x26D3 JUMP JUMPDEST JUMPDEST MUL OR SWAP1 SSTORE POP PUSH32 0x2301E0A2AD8F6E28A7FBB09E96F5C14E588FAC346ED5CE607E1A018BC7688646 PUSH1 0x2 SLOAD PUSH1 0x40 MLOAD PUSH2 0x181A SWAP2 SWAP1 PUSH2 0x21F6 JUMP JUMPDEST PUSH1 0x40 MLOAD DUP1 SWAP2 SUB SWAP1 LOG1 PUSH2 0x182A PUSH2 0x1E96 JUMP JUMPDEST POP JUMP JUMPDEST PUSH1 0x6 SLOAD DUP2 JUMP JUMPDEST PUSH1 0x1 PUSH0 SWAP1 SLOAD SWAP1 PUSH2 0x100 EXP SWAP1 DIV PUSH1 0xFF AND DUP2 JUMP JUMPDEST PUSH32 0x0 DUP2 JUMP JUMPDEST PUSH0 PUSH2 0x1873 DUP3 PUSH2 0x13D3 JUMP JUMPDEST DUP3 PUSH2 0x187E SWAP2 SWAP1 PUSH2 0x29B2 JUMP JUMPDEST SWAP1 POP SWAP2 SWAP1 POP JUMP JUMPDEST PUSH1 0x5 DUP2 DUP2 SLOAD DUP2 LT PUSH2 0x1894 JUMPI PUSH0 DUP1 REVERT JUMPDEST SWAP1 PUSH0 MSTORE PUSH1 0x20 PUSH0 KECCAK256 SWAP1 PUSH1 0x4 MUL ADD PUSH0 SWAP2 POP SWAP1 POP DUP1 PUSH0 ADD SLOAD SWAP1 DUP1 PUSH1 0x1 ADD PUSH0 SWAP1 SLOAD SWAP1 PUSH2 0x100 EXP SWAP1 DIV PUSH1 0xFF AND SWAP1 DUP1 PUSH1 0x1 ADD PUSH1 0x1 SWAP1 SLOAD SWAP1 PUSH2 0x100 EXP SWAP1 DIV PUSH1 0xFF AND SWAP1 DUP1 PUSH1 0x2 ADD SLOAD SWAP1 DUP1 PUSH1 0x3 ADD DUP1 SLOAD PUSH2 0x18E4 SWAP1 PUSH2 0x2A39 JUMP JUMPDEST DUP1 PUSH1 0x1F ADD PUSH1 0x20 DUP1 SWAP2 DIV MUL PUSH1 0x20 ADD PUSH1 0x40 MLOAD SWAP1 DUP2 ADD PUSH1 0x40 MSTORE DUP1 SWAP3 SWAP2 SWAP1 DUP2 DUP2 MSTORE PUSH1 0x20 ADD DUP3 DUP1 SLOAD PUSH2 0x1910 SWAP1 PUSH2 0x2A39 JUMP JUMPDEST DUP1 ISZERO PUSH2 0x195B JUMPI DUP1 PUSH1 0x1F LT PUSH2 0x1932 JUMPI PUSH2 0x100 DUP1 DUP4 SLOAD DIV MUL DUP4 MSTORE SWAP2 PUSH1 0x20 ADD SWAP2 PUSH2 0x195B JUMP JUMPDEST DUP3 ADD SWAP2 SWAP1 PUSH0 MSTORE PUSH1 0x20 PUSH0 KECCAK256 SWAP1 JUMPDEST DUP2 SLOAD DUP2 MSTORE SWAP1 PUSH1 0x1 ADD SWAP1 PUSH1 0x20 ADD DUP1 DUP4 GT PUSH2 0x193E JUMPI DUP3 SWAP1 SUB PUSH1 0x1F AND DUP3 ADD SWAP2 JUMPDEST POP POP POP POP POP SWAP1 POP DUP6 JUMP JUMPDEST PUSH20 0xC869D7A99FA831B4B3BEE7E245F0C9348C2209A3 DUP2 JUMP JUMPDEST PUSH32 0x0 PUSH20 0xFFFFFFFFFFFFFFFFFFFFFFFFFFFFFFFFFFFFFFFF AND CALLER PUSH20 0xFFFFFFFFFFFFFFFFFFFFFFFFFFFFFFFFFFFFFFFF AND EQ PUSH2 0x1A02 JUMPI PUSH1 0x40 MLOAD PUSH32 0xA598AEBE00000000000000000000000000000000000000000000000000000000 DUP2 MSTORE PUSH1 0x4 ADD PUSH1 0x40 MLOAD DUP1 SWAP2 SUB SWAP1 REVERT JUMPDEST PUSH1 0x1 DUP1 PUSH1 0x4 DUP2 GT ISZERO PUSH2 0x1A17 JUMPI PUSH2 0x1A16 PUSH2 0x26D3 JUMP JUMPDEST JUMPDEST PUSH1 0x1 PUSH0 SWAP1 SLOAD SWAP1 PUSH2 0x100 EXP SWAP1 DIV PUSH1 0xFF AND PUSH1 0x4 DUP2 GT ISZERO PUSH2 0x1A38 JUMPI PUSH2 0x1A37 PUSH2 0x26D3 JUMP JUMPDEST JUMPDEST EQ PUSH2 0x1A6F JUMPI PUSH1 0x40 MLOAD PUSH32 0xBAF3F0F700000000000000000000000000000000000000000000000000000000 DUP2 MSTORE PUSH1 0x4 ADD PUSH1 0x40 MLOAD DUP1 SWAP2 SUB SWAP1 REVERT JUMPDEST DUP2 PUSH1 0x5 DUP1 SLOAD SWAP1 POP DUP2 LT PUSH2 0x1AAE JUMPI PUSH1 0x40 MLOAD PUSH32 0xBA11734000000000000000000000000000000000000000000000000000000000 DUP2 MSTORE PUSH1 0x4 ADD PUSH1 0x40 MLOAD DUP1 SWAP2 SUB SWAP1 REVERT JUMPDEST PUSH2 0x1AB6 PUSH2 0x1CE4 JUMP JUMPDEST PUSH0 PUSH1 0x5 DUP5 DUP2 SLOAD DUP2 LT PUSH2 0x1ACB JUMPI PUSH2 0x1ACA PUSH2 0x27B7 JUMP JUMPDEST JUMPDEST SWAP1 PUSH0 MSTORE PUSH1 0x20 PUSH0 KECCAK256 SWAP1 PUSH1 0x4 MUL ADD SWAP1 POP DUP1 PUSH1 0x1 ADD PUSH0 SWAP1 SLOAD SWAP1 PUSH2 0x100 EXP SWAP1 DIV PUSH1 0xFF AND ISZERO PUSH2 0x1B2A JUMPI PUSH1 0x40 MLOAD PUSH32 0x8C379A000000000000000000000000000000000000000000000000000000000 DUP2 MSTORE PUSH1 0x4 ADD PUSH2 0x1B21 SWAP1 PUSH2 0x282E JUMP JUMPDEST PUSH1 0x40 MLOAD DUP1 SWAP2 SUB SWAP1 REVERT JUMPDEST DUP1 PUSH1 0x1 ADD PUSH1 0x1 SWAP1 SLOAD SWAP1 PUSH2 0x100 EXP SWAP1 DIV PUSH1 0xFF AND ISZERO PUSH2 0x1B7C JUMPI PUSH1 0x40 MLOAD PUSH32 0x8C379A000000000000000000000000000000000000000000000000000000000 DUP2 MSTORE PUSH1 0x4 ADD PUSH2 0x1B73 SWAP1 PUSH2 0x2BC2 JUMP JUMPDEST PUSH1 0x40 MLOAD DUP1 SWAP2 SUB SWAP1 REVERT JUMPDEST PUSH0 DUP2 PUSH1 0x2 ADD SLOAD GT PUSH2 0x1BC2 JUMPI PUSH1 0x40 MLOAD PUSH32 0x8C379A000000000000000000000000000000000000000000000000000000000 DUP2 MSTORE PUSH1 0x4 ADD PUSH2 0x1BB9 SWAP1 PUSH2 0x2C2A JUMP JUMPDEST PUSH1 0x40 MLOAD DUP1 SWAP2 SUB SWAP1 REVERT JUMPDEST DUP1 PUSH1 0x2 ADD SLOAD TIMESTAMP GT PUSH2 0x1C08 JUMPI PUSH1 0x40 MLOAD PUSH32 0x8C379A000000000000000000000000000000000000000000000000000000000 DUP2 MSTORE PUSH1 0x4 ADD PUSH2 0x1BFF SWAP1 PUSH2 0x2C92 JUMP JUMPDEST PUSH1 0x40 MLOAD DUP1 SWAP2 SUB SWAP1 REVERT JUMPDEST PUSH1 0x1 DUP2 PUSH1 0x1 ADD PUSH1 0x1 PUSH2 0x100 EXP DUP2 SLOAD DUP2 PUSH1 0xFF MUL NOT AND SWAP1 DUP4 ISZERO ISZERO MUL OR SWAP1 SSTORE POP PUSH2 0x1C93 PUSH32 0x0 DUP3 PUSH0 ADD SLOAD PUSH32 0x0 PUSH20 0xFFFFFFFFFFFFFFFFFFFFFFFFFFFFFFFFFFFFFFFF AND PUSH2 0x1E17 SWAP1 SWAP3 SWAP2 SWAP1 PUSH4 0xFFFFFFFF AND JUMP JUMPDEST DUP4 PUSH32 0xDADEFB9D4C98CE0B09100DAF8B195E7882F849F58F6760FF36762958C0F7B8A8 DUP3 PUSH0 ADD SLOAD PUSH1 0x40 MLOAD PUSH2 0x1CC6 SWAP2 SWAP1 PUSH2 0x21F6 JUMP JUMPDEST PUSH1 0x40 MLOAD DUP1 SWAP2 SUB SWAP1 LOG2 PUSH2 0x1CD6 PUSH2 0x2010 JUMP JUMPDEST POP PUSH2 0x1CDF PUSH2 0x1E96 JUMP JUMPDEST POP POP POP JUMP JUMPDEST PUSH1 0x2 PUSH0 SLOAD SUB PUSH2 0x1D28 JUMPI PUSH1 0x40 MLOAD PUSH32 0x8C379A000000000000000000000000000000000000000000000000000000000 DUP2 MSTORE PUSH1 0x4 ADD PUSH2 0x1D1F SWAP1 PUSH2 0x2CFA JUMP JUMPDEST PUSH1 0x40 MLOAD DUP1 SWAP2 SUB SWAP1 REVERT JUMPDEST PUSH1 0x2 PUSH0 DUP2 SWAP1 SSTORE POP JUMP JUMPDEST PUSH0 PUSH0 PUSH32 0x0 PUSH20 0xFFFFFFFFFFFFFFFFFFFFFFFFFFFFFFFFFFFFFFFF AND PUSH4 0x70A08231 ADDRESS PUSH1 0x40 MLOAD DUP3 PUSH4 0xFFFFFFFF AND PUSH1 0xE0 SHL DUP2 MSTORE PUSH1 0x4 ADD PUSH2 0x1D8C SWAP2 SWAP1 PUSH2 0x21DD JUMP JUMPDEST PUSH1 0x20 PUSH1 0x40 MLOAD DUP1 DUP4 SUB DUP2 DUP7 GAS STATICCALL ISZERO DUP1 ISZERO PUSH2 0x1DA7 JUMPI RETURNDATASIZE PUSH0 PUSH0 RETURNDATACOPY RETURNDATASIZE PUSH0 REVERT JUMPDEST POP POP POP POP PUSH1 0x40 MLOAD RETURNDATASIZE PUSH1 0x1F NOT PUSH1 0x1F DUP3 ADD AND DUP3 ADD DUP1 PUSH1 0x40 MSTORE POP DUP2 ADD SWAP1 PUSH2 0x1DCB SWAP2 SWAP1 PUSH2 0x2A7D JUMP JUMPDEST SWAP1 POP PUSH0 PUSH1 0x4 DUP2 GT ISZERO PUSH2 0x1DE0 JUMPI PUSH2 0x1DDF PUSH2 0x26D3 JUMP JUMPDEST JUMPDEST PUSH1 0x1 PUSH0 SWAP1 SLOAD SWAP1 PUSH2 0x100 EXP SWAP1 DIV PUSH1 0xFF AND PUSH1 0x4 DUP2 GT ISZERO PUSH2 0x1E01 JUMPI PUSH2 0x1E00 PUSH2 0x26D3 JUMP JUMPDEST JUMPDEST SUB PUSH2 0x1E0F JUMPI PUSH0 SWAP2 POP POP PUSH2 0x1E14 JUMP JUMPDEST DUP1 SWAP2 POP POP JUMPDEST SWAP1 JUMP JUMPDEST PUSH2 0x1E91 DUP4 DUP5 PUSH20 0xFFFFFFFFFFFFFFFFFFFFFFFFFFFFFFFFFFFFFFFF AND PUSH4 0xA9059CBB DUP6 DUP6 PUSH1 0x40 MLOAD PUSH1 0x24 ADD PUSH2 0x1E4A SWAP3 SWAP2 SWAP1 PUSH2 0x21B6 JUMP JUMPDEST PUSH1 0x40 MLOAD PUSH1 0x20 DUP2 DUP4 SUB SUB DUP2 MSTORE SWAP1 PUSH1 0x40 MSTORE SWAP2 POP PUSH1 0xE0 SHL PUSH1 0x20 DUP3 ADD DUP1 MLOAD PUSH28 0xFFFFFFFFFFFFFFFFFFFFFFFFFFFFFFFFFFFFFFFFFFFFFFFFFFFFFFFF DUP4 DUP2 DUP4 AND OR DUP4 MSTORE POP POP POP POP PUSH2 0x20C4 JUMP JUMPDEST POP POP POP JUMP JUMPDEST PUSH1 0x1 PUSH0 DUP2 SWAP1 SSTORE POP JUMP JUMPDEST PUSH0 PUSH0 SWAP1 POP JUMPDEST PUSH1 0x5 DUP1 SLOAD SWAP1 POP DUP2 LT ISZERO PUSH2 0x1F34 JUMPI PUSH1 0x5 DUP2 DUP2 SLOAD DUP2 LT PUSH2 0x1EC5 JUMPI PUSH2 0x1EC4 PUSH2 0x27B7 JUMP JUMPDEST JUMPDEST SWAP1 PUSH0 MSTORE PUSH1 0x20 PUSH0 KECCAK256 SWAP1 PUSH1 0x4 MUL ADD PUSH1 0x1 ADD PUSH0 SWAP1 SLOAD SWAP1 PUSH2 0x100 EXP SWAP1 DIV PUSH1 0xFF AND ISZERO DUP1 ISZERO PUSH2 0x1F1C JUMPI POP PUSH1 0x5 DUP2 DUP2 SLOAD DUP2 LT PUSH2 0x1EFD JUMPI PUSH2 0x1EFC PUSH2 0x27B7 JUMP JUMPDEST JUMPDEST SWAP1 PUSH0 MSTORE PUSH1 0x20 PUSH0 KECCAK256 SWAP1 PUSH1 0x4 MUL ADD PUSH1 0x1 ADD PUSH1 0x1 SWAP1 SLOAD SWAP1 PUSH2 0x100 EXP SWAP1 DIV PUSH1 0xFF AND ISZERO JUMPDEST ISZERO PUSH2 0x1F27 JUMPI POP PUSH2 0x1F8C JUMP JUMPDEST DUP1 DUP1 PUSH1 0x1 ADD SWAP2 POP POP PUSH2 0x1EA4 JUMP JUMPDEST POP PUSH1 0x2 PUSH1 0x1 PUSH0 PUSH2 0x100 EXP DUP2 SLOAD DUP2 PUSH1 0xFF MUL NOT AND SWAP1 DUP4 PUSH1 0x4 DUP2 GT ISZERO PUSH2 0x1F5A JUMPI PUSH2 0x1F59 PUSH2 0x26D3 JUMP JUMPDEST JUMPDEST MUL OR SWAP1 SSTORE POP PUSH32 0xE39866727217E43713C3728C5769515E8FB38E990B568B9831C1689DFDF67B66 PUSH1 0x40 MLOAD PUSH1 0x40 MLOAD DUP1 SWAP2 SUB SWAP1 LOG1 JUMPDEST JUMP JUMPDEST PUSH2 0x200A DUP5 DUP6 PUSH20 0xFFFFFFFFFFFFFFFFFFFFFFFFFFFFFFFFFFFFFFFF AND PUSH4 0x23B872DD DUP7 DUP7 DUP7 PUSH1 0x40 MLOAD PUSH1 0x24 ADD PUSH2 0x1FC3 SWAP4 SWAP3 SWAP2 SWAP1 PUSH2 0x2D18 JUMP JUMPDEST PUSH1 0x40 MLOAD PUSH1 0x20 DUP2 DUP4 SUB SUB DUP2 MSTORE SWAP1 PUSH1 0x40 MSTORE SWAP2 POP PUSH1 0xE0 SHL PUSH1 0x20 DUP3 ADD DUP1 MLOAD PUSH28 0xFFFFFFFFFFFFFFFFFFFFFFFFFFFFFFFFFFFFFFFFFFFFFFFFFFFFFFFF DUP4 DUP2 DUP4 AND OR DUP4 MSTORE POP POP POP POP PUSH2 0x20C4 JUMP JUMPDEST POP POP POP POP JUMP JUMPDEST PUSH0 PUSH0 SWAP1 POP JUMPDEST PUSH1 0x5 DUP1 SLOAD SWAP1 POP DUP2 LT ISZERO PUSH2 0x206A JUMPI PUSH1 0x5 DUP2 DUP2 SLOAD DUP2 LT PUSH2 0x2036 JUMPI PUSH2 0x2035 PUSH2 0x27B7 JUMP JUMPDEST JUMPDEST SWAP1 PUSH0 MSTORE PUSH1 0x20 PUSH0 KECCAK256 SWAP1 PUSH1 0x4 MUL ADD PUSH1 0x1 ADD PUSH1 0x1 SWAP1 SLOAD SWAP1 PUSH2 0x100 EXP SWAP1 DIV PUSH1 0xFF AND PUSH2 0x205D JUMPI POP PUSH2 0x20C2 JUMP JUMPDEST DUP1 DUP1 PUSH1 0x1 ADD SWAP2 POP POP PUSH2 0x2015 JUMP JUMPDEST POP PUSH1 0x3 PUSH1 0x1 PUSH0 PUSH2 0x100 EXP DUP2 SLOAD DUP2 PUSH1 0xFF MUL NOT AND SWAP1 DUP4 PUSH1 0x4 DUP2 GT ISZERO PUSH2 0x2090 JUMPI PUSH2 0x208F PUSH2 0x26D3 JUMP JUMPDEST JUMPDEST MUL OR SWAP1 SSTORE POP PUSH32 0x92C439FDA90C70CCDEDCB94D28A14F9FDA69D67124EFBBE9BF905740194228C8 PUSH1 0x40 MLOAD PUSH1 0x40 MLOAD DUP1 SWAP2 SUB SWAP1 LOG1 JUMPDEST JUMP JUMPDEST PUSH0 PUSH0 PUSH1 0x20 PUSH0 DUP5 MLOAD PUSH1 0x20 DUP7 ADD PUSH0 DUP9 GAS CALL DUP1 PUSH2 0x20E3 JUMPI PUSH1 0x40 MLOAD RETURNDATASIZE PUSH0 DUP3 RETURNDATACOPY RETURNDATASIZE DUP2 REVERT JUMPDEST RETURNDATASIZE SWAP3 POP PUSH0 MLOAD SWAP2 POP POP PUSH0 DUP3 EQ PUSH2 0x20FC JUMPI PUSH1 0x1 DUP2 EQ ISZERO PUSH2 0x2117 JUMP JUMPDEST PUSH0 DUP5 PUSH20 0xFFFFFFFFFFFFFFFFFFFFFFFFFFFFFFFFFFFFFFFF AND EXTCODESIZE EQ JUMPDEST ISZERO PUSH2 0x2159 JUMPI DUP4 PUSH1 0x40 MLOAD PUSH32 0x5274AFE700000000000000000000000000000000000000000000000000000000 DUP2 MSTORE PUSH1 0x4 ADD PUSH2 0x2150 SWAP2 SWAP1 PUSH2 0x21DD JUMP JUMPDEST PUSH1 0x40 MLOAD DUP1 SWAP2 SUB SWAP1 REVERT JUMPDEST POP POP POP POP JUMP JUMPDEST PUSH0 PUSH20 0xFFFFFFFFFFFFFFFFFFFFFFFFFFFFFFFFFFFFFFFF DUP3 AND SWAP1 POP SWAP2 SWAP1 POP JUMP JUMPDEST PUSH0 PUSH2 0x2188 DUP3 PUSH2 0x215F JUMP JUMPDEST SWAP1 POP SWAP2 SWAP1 POP JUMP JUMPDEST PUSH2 0x2198 DUP2 PUSH2 0x217E JUMP JUMPDEST DUP3 MSTORE POP POP JUMP JUMPDEST PUSH0 DUP2 SWAP1 POP SWAP2 SWAP1 POP JUMP JUMPDEST PUSH2 0x21B0 DUP2 PUSH2 0x219E JUMP JUMPDEST DUP3 MSTORE POP POP JUMP JUMPDEST PUSH0 PUSH1 0x40 DUP3 ADD SWAP1 POP PUSH2 0x21C9 PUSH0 DUP4 ADD DUP6 PUSH2 0x218F JUMP JUMPDEST PUSH2 0x21D6 PUSH1 0x20 DUP4 ADD DUP5 PUSH2 0x21A7 JUMP JUMPDEST SWAP4 SWAP3 POP POP POP JUMP JUMPDEST PUSH0 PUSH1 0x20 DUP3 ADD SWAP1 POP PUSH2 0x21F0 PUSH0 DUP4 ADD DUP5 PUSH2 0x218F JUMP JUMPDEST SWAP3 SWAP2 POP POP JUMP JUMPDEST PUSH0 PUSH1 0x20 DUP3 ADD SWAP1 POP PUSH2 0x2209 PUSH0 DUP4 ADD DUP5 PUSH2 0x21A7 JUMP JUMPDEST SWAP3 SWAP2 POP POP JUMP JUMPDEST PUSH0 DUP2 SWAP1 POP SWAP2 SWAP1 POP JUMP JUMPDEST PUSH0 PUSH2 0x2232 PUSH2 0x222D PUSH2 0x2228 DUP5 PUSH2 0x215F JUMP JUMPDEST PUSH2 0x220F JUMP JUMPDEST PUSH2 0x215F JUMP JUMPDEST SWAP1 POP SWAP2 SWAP1 POP JUMP JUMPDEST PUSH0 PUSH2 0x2243 DUP3 PUSH2 0x2218 JUMP JUMPDEST SWAP1 POP SWAP2 SWAP1 POP JUMP JUMPDEST PUSH0 PUSH2 0x2254 DUP3 PUSH2 0x2239 JUMP JUMPDEST SWAP1 POP SWAP2 SWAP1 POP JUMP JUMPDEST PUSH2 0x2264 DUP2 PUSH2 0x224A JUMP JUMPDEST DUP3 MSTORE POP POP JUMP JUMPDEST PUSH0 PUSH1 0x20 DUP3 ADD SWAP1 POP PUSH2 0x227D PUSH0 DUP4 ADD DUP5 PUSH2 0x225B JUMP JUMPDEST SWAP3 SWAP2 POP POP JUMP JUMPDEST PUSH0 PUSH1 0x40 MLOAD SWAP1 POP SWAP1 JUMP JUMPDEST PUSH0 PUSH0 REVERT JUMPDEST PUSH0 PUSH0 REVERT JUMPDEST PUSH2 0x229D DUP2 PUSH2 0x219E JUMP JUMPDEST DUP2 EQ PUSH2 0x22A7 JUMPI PUSH0 PUSH0 REVERT JUMPDEST POP JUMP JUMPDEST PUSH0 DUP2 CALLDATALOAD SWAP1 POP PUSH2 0x22B8 DUP2 PUSH2 0x2294 JUMP JUMPDEST SWAP3 SWAP2 POP POP JUMP JUMPDEST PUSH0 PUSH1 0x20 DUP3 DUP5 SUB SLT ISZERO PUSH2 0x22D3 JUMPI PUSH2 0x22D2 PUSH2 0x228C JUMP JUMPDEST JUMPDEST PUSH0 PUSH2 0x22E0 DUP5 DUP3 DUP6 ADD PUSH2 0x22AA JUMP JUMPDEST SWAP2 POP POP SWAP3 SWAP2 POP POP JUMP JUMPDEST PUSH0 DUP2 ISZERO ISZERO SWAP1 POP SWAP2 SWAP1 POP JUMP JUMPDEST PUSH2 0x22FD DUP2 PUSH2 0x22E9 JUMP JUMPDEST DUP3 MSTORE POP POP JUMP JUMPDEST PUSH0 PUSH1 0x20 DUP3 ADD SWAP1 POP PUSH2 0x2316 PUSH0 DUP4 ADD DUP5 PUSH2 0x22F4 JUMP JUMPDEST SWAP3 SWAP2 POP POP JUMP JUMPDEST PUSH0 DUP2 MLOAD SWAP1 POP SWAP2 SWAP1 POP JUMP JUMPDEST PUSH0 DUP3 DUP3 MSTORE PUSH1 0x20 DUP3 ADD SWAP1 POP SWAP3 SWAP2 POP POP JUMP JUMPDEST DUP3 DUP2 DUP4 MCOPY PUSH0 DUP4 DUP4 ADD MSTORE POP POP POP JUMP JUMPDEST PUSH0 PUSH1 0x1F NOT PUSH1 0x1F DUP4 ADD AND SWAP1 POP SWAP2 SWAP1 POP JUMP JUMPDEST PUSH0 PUSH2 0x235E DUP3 PUSH2 0x231C JUMP JUMPDEST PUSH2 0x2368 DUP2 DUP6 PUSH2 0x2326 JUMP JUMPDEST SWAP4 POP PUSH2 0x2378 DUP2 DUP6 PUSH1 0x20 DUP7 ADD PUSH2 0x2336 JUMP JUMPDEST PUSH2 0x2381 DUP2 PUSH2 0x2344 JUMP JUMPDEST DUP5 ADD SWAP2 POP POP SWAP3 SWAP2 POP POP JUMP JUMPDEST PUSH0 PUSH1 0x20 DUP3 ADD SWAP1 POP DUP2 DUP2 SUB PUSH0 DUP4 ADD MSTORE PUSH2 0x23A4 DUP2 DUP5 PUSH2 0x2354 JUMP JUMPDEST SWAP1 POP SWAP3 SWAP2 POP POP JUMP JUMPDEST PUSH0 DUP2 MLOAD SWAP1 POP SWAP2 SWAP1 POP JUMP JUMPDEST PUSH0 DUP3 DUP3 MSTORE PUSH1 0x20 DUP3 ADD SWAP1 POP SWAP3 SWAP2 POP POP JUMP JUMPDEST PUSH0 DUP2 SWAP1 POP PUSH1 0x20 DUP3 ADD SWAP1 POP SWAP2 SWAP1 POP JUMP JUMPDEST PUSH2 0x23DE DUP2 PUSH2 0x219E JUMP JUMPDEST DUP3 MSTORE POP POP JUMP JUMPDEST PUSH2 0x23ED DUP2 PUSH2 0x22E9 JUMP JUMPDEST DUP3 MSTORE POP POP JUMP JUMPDEST PUSH0 DUP3 DUP3 MSTORE PUSH1 0x20 DUP3 ADD SWAP1 POP SWAP3 SWAP2 POP POP JUMP JUMPDEST PUSH0 PUSH2 0x240D DUP3 PUSH2 0x231C JUMP JUMPDEST PUSH2 0x2417 DUP2 DUP6 PUSH2 0x23F3 JUMP JUMPDEST SWAP4 POP PUSH2 0x2427 DUP2 DUP6 PUSH1 0x20 DUP7 ADD PUSH2 0x2336 JUMP JUMPDEST PUSH2 0x2430 DUP2 PUSH2 0x2344 JUMP JUMPDEST DUP5 ADD SWAP2 POP POP SWAP3 SWAP2 POP POP JUMP JUMPDEST PUSH0 PUSH1 0xA0 DUP4 ADD PUSH0 DUP4 ADD MLOAD PUSH2 0x2450 PUSH0 DUP7 ADD DUP3 PUSH2 0x23D5 JUMP JUMPDEST POP PUSH1 0x20 DUP4 ADD MLOAD PUSH2 0x2463 PUSH1 0x20 DUP7 ADD DUP3 PUSH2 0x23E4 JUMP JUMPDEST POP PUSH1 0x40 DUP4 ADD MLOAD PUSH2 0x2476 PUSH1 0x40 DUP7 ADD DUP3 PUSH2 0x23E4 JUMP JUMPDEST POP PUSH1 0x60 DUP4 ADD MLOAD PUSH2 0x2489 PUSH1 0x60 DUP7 ADD DUP3 PUSH2 0x23D5 JUMP JUMPDEST POP PUSH1 0x80 DUP4 ADD MLOAD DUP5 DUP3 SUB PUSH1 0x80 DUP7 ADD MSTORE PUSH2 0x24A1 DUP3 DUP3 PUSH2 0x2403 JUMP JUMPDEST SWAP2 POP POP DUP1 SWAP2 POP POP SWAP3 SWAP2 POP POP JUMP JUMPDEST PUSH0 PUSH2 0x24B9 DUP4 DUP4 PUSH2 0x243B JUMP JUMPDEST SWAP1 POP SWAP3 SWAP2 POP POP JUMP JUMPDEST PUSH0 PUSH1 0x20 DUP3 ADD SWAP1 POP SWAP2 SWAP1 POP JUMP JUMPDEST PUSH0 PUSH2 0x24D7 DUP3 PUSH2 0x23AC JUMP JUMPDEST PUSH2 0x24E1 DUP2 DUP6 PUSH2 0x23B6 JUMP JUMPDEST SWAP4 POP DUP4 PUSH1 0x20 DUP3 MUL DUP6 ADD PUSH2 0x24F3 DUP6 PUSH2 0x23C6 JUMP JUMPDEST DUP1 PUSH0 JUMPDEST DUP6 DUP2 LT ISZERO PUSH2 0x252E JUMPI DUP5 DUP5 SUB DUP10 MSTORE DUP2 MLOAD PUSH2 0x250F DUP6 DUP3 PUSH2 0x24AE JUMP JUMPDEST SWAP5 POP PUSH2 0x251A DUP4 PUSH2 0x24C1 JUMP JUMPDEST SWAP3 POP PUSH1 0x20 DUP11 ADD SWAP10 POP POP PUSH1 0x1 DUP2 ADD SWAP1 POP PUSH2 0x24F6 JUMP JUMPDEST POP DUP3 SWAP8 POP DUP8 SWAP6 POP POP POP POP POP POP SWAP3 SWAP2 POP POP JUMP JUMPDEST PUSH0 PUSH1 0x20 DUP3 ADD SWAP1 POP DUP2 DUP2 SUB PUSH0 DUP4 ADD MSTORE PUSH2 0x2558 DUP2 DUP5 PUSH2 0x24CD JUMP JUMPDEST SWAP1 POP SWAP3 SWAP2 POP POP JUMP JUMPDEST PUSH0 PUSH0 REVERT JUMPDEST PUSH0 PUSH0 REVERT JUMPDEST PUSH32 0x4E487B7100000000000000000000000000000000000000000000000000000000 PUSH0 MSTORE PUSH1 0x41 PUSH1 0x4 MSTORE PUSH1 0x24 PUSH0 REVERT JUMPDEST PUSH2 0x259E DUP3 PUSH2 0x2344 JUMP JUMPDEST DUP2 ADD DUP2 DUP2 LT PUSH8 0xFFFFFFFFFFFFFFFF DUP3 GT OR ISZERO PUSH2 0x25BD JUMPI PUSH2 0x25BC PUSH2 0x2568 JUMP JUMPDEST JUMPDEST DUP1 PUSH1 0x40 MSTORE POP POP POP JUMP JUMPDEST PUSH0 PUSH2 0x25CF PUSH2 0x2283 JUMP JUMPDEST SWAP1 POP PUSH2 0x25DB DUP3 DUP3 PUSH2 0x2595 JUMP JUMPDEST SWAP2 SWAP1 POP JUMP JUMPDEST PUSH0 PUSH8 0xFFFFFFFFFFFFFFFF DUP3 GT ISZERO PUSH2 0x25FA JUMPI PUSH2 0x25F9 PUSH2 0x2568 JUMP JUMPDEST JUMPDEST PUSH2 0x2603 DUP3 PUSH2 0x2344 JUMP JUMPDEST SWAP1 POP PUSH1 0x20 DUP2 ADD SWAP1 POP SWAP2 SWAP1 POP JUMP JUMPDEST DUP3 DUP2 DUP4 CALLDATACOPY PUSH0 DUP4 DUP4 ADD MSTORE POP POP POP JUMP JUMPDEST PUSH0 PUSH2 0x2630 PUSH2 0x262B DUP5 PUSH2 0x25E0 JUMP JUMPDEST PUSH2 0x25C6 JUMP JUMPDEST SWAP1 POP DUP3 DUP2 MSTORE PUSH1 0x20 DUP2 ADD DUP5 DUP5 DUP5 ADD GT ISZERO PUSH2 0x264C JUMPI PUSH2 0x264B PUSH2 0x2564 JUMP JUMPDEST JUMPDEST PUSH2 0x2657 DUP5 DUP3 DUP6 PUSH2 0x2610 JUMP JUMPDEST POP SWAP4 SWAP3 POP POP POP JUMP JUMPDEST PUSH0 DUP3 PUSH1 0x1F DUP4 ADD SLT PUSH2 0x2673 JUMPI PUSH2 0x2672 PUSH2 0x2560 JUMP JUMPDEST JUMPDEST DUP2 CALLDATALOAD PUSH2 0x2683 DUP5 DUP3 PUSH1 0x20 DUP7 ADD PUSH2 0x261E JUMP JUMPDEST SWAP2 POP POP SWAP3 SWAP2 POP POP JUMP JUMPDEST PUSH0 PUSH1 0x20 DUP3 DUP5 SUB SLT ISZERO PUSH2 0x26A1 JUMPI PUSH2 0x26A0 PUSH2 0x228C JUMP JUMPDEST JUMPDEST PUSH0 DUP3 ADD CALLDATALOAD PUSH8 0xFFFFFFFFFFFFFFFF DUP2 GT ISZERO PUSH2 0x26BE JUMPI PUSH2 0x26BD PUSH2 0x2290 JUMP JUMPDEST JUMPDEST PUSH2 0x26CA DUP5 DUP3 DUP6 ADD PUSH2 0x265F JUMP JUMPDEST SWAP2 POP POP SWAP3 SWAP2 POP POP JUMP JUMPDEST PUSH32 0x4E487B7100000000000000000000000000000000000000000000000000000000 PUSH0 MSTORE PUSH1 0x21 PUSH1 0x4 MSTORE PUSH1 0x24 PUSH0 REVERT JUMPDEST PUSH1 0x5 DUP2 LT PUSH2 0x2711 JUMPI PUSH2 0x2710 PUSH2 0x26D3 JUMP JUMPDEST JUMPDEST POP JUMP JUMPDEST PUSH0 DUP2 SWAP1 POP PUSH2 0x2721 DUP3 PUSH2 0x2700 JUMP JUMPDEST SWAP2 SWAP1 POP JUMP JUMPDEST PUSH0 PUSH2 0x2730 DUP3 PUSH2 0x2714 JUMP JUMPDEST SWAP1 POP SWAP2 SWAP1 POP JUMP JUMPDEST PUSH2 0x2740 DUP2 PUSH2 0x2726 JUMP JUMPDEST DUP3 MSTORE POP POP JUMP JUMPDEST PUSH0 PUSH1 0x20 DUP3 ADD SWAP1 POP PUSH2 0x2759 PUSH0 DUP4 ADD DUP5 PUSH2 0x2737 JUMP JUMPDEST SWAP3 SWAP2 POP POP JUMP JUMPDEST PUSH0 PUSH1 0xA0 DUP3 ADD SWAP1 POP PUSH2 0x2772 PUSH0 DUP4 ADD DUP9 PUSH2 0x21A7 JUMP JUMPDEST PUSH2 0x277F PUSH1 0x20 DUP4 ADD DUP8 PUSH2 0x22F4 JUMP JUMPDEST PUSH2 0x278C PUSH1 0x40 DUP4 ADD DUP7 PUSH2 0x22F4 JUMP JUMPDEST PUSH2 0x2799 PUSH1 0x60 DUP4 ADD DUP6 PUSH2 0x21A7 JUMP JUMPDEST DUP2 DUP2 SUB PUSH1 0x80 DUP4 ADD MSTORE PUSH2 0x27AB DUP2 DUP5 PUSH2 0x2354 JUMP JUMPDEST SWAP1 POP SWAP7 SWAP6 POP POP POP POP POP POP JUMP JUMPDEST PUSH32 0x4E487B7100000000000000000000000000000000000000000000000000000000 PUSH0 MSTORE PUSH1 0x32 PUSH1 0x4 MSTORE PUSH1 0x24 PUSH0 REVERT JUMPDEST PUSH32 0x416C72656164792072656C656173656400000000000000000000000000000000 PUSH0 DUP3 ADD MSTORE POP JUMP JUMPDEST PUSH0 PUSH2 0x2818 PUSH1 0x10 DUP4 PUSH2 0x2326 JUMP JUMPDEST SWAP2 POP PUSH2 0x2823 DUP3 PUSH2 0x27E4 JUMP JUMPDEST PUSH1 0x20 DUP3 ADD SWAP1 POP SWAP2 SWAP1 POP JUMP JUMPDEST PUSH0 PUSH1 0x20 DUP3 ADD SWAP1 POP DUP2 DUP2 SUB PUSH0 DUP4 ADD MSTORE PUSH2 0x2845 DUP2 PUSH2 0x280C JUMP JUMPDEST SWAP1 POP SWAP2 SWAP1 POP JUMP JUMPDEST PUSH32 0x4D696C6573746F6E652063616E63656C6C656400000000000000000000000000 PUSH0 DUP3 ADD MSTORE POP JUMP JUMPDEST PUSH0 PUSH2 0x2880 PUSH1 0x13 DUP4 PUSH2 0x2326 JUMP JUMPDEST SWAP2 POP PUSH2 0x288B DUP3 PUSH2 0x284C JUMP JUMPDEST PUSH1 0x20 DUP3 ADD SWAP1 POP SWAP2 SWAP1 POP JUMP JUMPDEST PUSH0 PUSH1 0x20 DUP3 ADD SWAP1 POP DUP2 DUP2 SUB PUSH0 DUP4 ADD MSTORE PUSH2 0x28AD DUP2 PUSH2 0x2874 JUMP JUMPDEST SWAP1 POP SWAP2 SWAP1 POP JUMP JUMPDEST PUSH32 0x4E487B7100000000000000000000000000000000000000000000000000000000 PUSH0 MSTORE PUSH1 0x11 PUSH1 0x4 MSTORE PUSH1 0x24 PUSH0 REVERT JUMPDEST PUSH0 PUSH2 0x28EB DUP3 PUSH2 0x219E JUMP JUMPDEST SWAP2 POP PUSH2 0x28F6 DUP4 PUSH2 0x219E JUMP JUMPDEST SWAP3 POP DUP3 DUP3 ADD SWAP1 POP DUP1 DUP3 GT ISZERO PUSH2 0x290E JUMPI PUSH2 0x290D PUSH2 0x28B4 JUMP JUMPDEST JUMPDEST SWAP3 SWAP2 POP POP JUMP JUMPDEST PUSH0 PUSH2 0x291E DUP3 PUSH2 0x219E JUMP JUMPDEST SWAP2 POP PUSH2 0x2929 DUP4 PUSH2 0x219E JUMP JUMPDEST SWAP3 POP DUP3 DUP3 MUL PUSH2 0x2937 DUP2 PUSH2 0x219E JUMP JUMPDEST SWAP2 POP DUP3 DUP3 DIV DUP5 EQ DUP4 ISZERO OR PUSH2 0x294E JUMPI PUSH2 0x294D PUSH2 0x28B4 JUMP JUMPDEST JUMPDEST POP SWAP3 SWAP2 POP POP JUMP JUMPDEST PUSH32 0x4E487B7100000000000000000000000000000000000000000000000000000000 PUSH0 MSTORE PUSH1 0x12 PUSH1 0x4 MSTORE PUSH1 0x24 PUSH0 REVERT JUMPDEST PUSH0 PUSH2 0x298C DUP3 PUSH2 0x219E JUMP JUMPDEST SWAP2 POP PUSH2 0x2997 DUP4 PUSH2 0x219E JUMP JUMPDEST SWAP3 POP DUP3 PUSH2 0x29A7 JUMPI PUSH2 0x29A6 PUSH2 0x2955 JUMP JUMPDEST JUMPDEST DUP3 DUP3 DIV SWAP1 POP SWAP3 SWAP2 POP POP JUMP JUMPDEST PUSH0 PUSH2 0x29BC DUP3 PUSH2 0x219E JUMP JUMPDEST SWAP2 POP PUSH2 0x29C7 DUP4 PUSH2 0x219E JUMP JUMPDEST SWAP3 POP DUP3 DUP3 SUB SWAP1 POP DUP2 DUP2 GT ISZERO PUSH2 0x29DF JUMPI PUSH2 0x29DE PUSH2 0x28B4 JUMP JUMPDEST JUMPDEST SWAP3 SWAP2 POP POP JUMP JUMPDEST PUSH0 PUSH1 0x40 DUP3 ADD SWAP1 POP PUSH2 0x29F8 PUSH0 DUP4 ADD DUP6 PUSH2 0x21A7 JUMP JUMPDEST PUSH2 0x2A05 PUSH1 0x20 DUP4 ADD DUP5 PUSH2 0x21A7 JUMP JUMPDEST SWAP4 SWAP3 POP POP POP JUMP JUMPDEST PUSH32 0x4E487B7100000000000000000000000000000000000000000000000000000000 PUSH0 MSTORE PUSH1 0x22 PUSH1 0x4 MSTORE PUSH1 0x24 PUSH0 REVERT JUMPDEST PUSH0 PUSH1 0x2 DUP3 DIV SWAP1 POP PUSH1 0x1 DUP3 AND DUP1 PUSH2 0x2A50 JUMPI PUSH1 0x7F DUP3 AND SWAP2 POP JUMPDEST PUSH1 0x20 DUP3 LT DUP2 SUB PUSH2 0x2A63 JUMPI PUSH2 0x2A62 PUSH2 0x2A0C JUMP JUMPDEST JUMPDEST POP SWAP2 SWAP1 POP JUMP JUMPDEST PUSH0 DUP2 MLOAD SWAP1 POP PUSH2 0x2A77 DUP2 PUSH2 0x2294 JUMP JUMPDEST SWAP3 SWAP2 POP POP JUMP JUMPDEST PUSH0 PUSH1 0x20 DUP3 DUP5 SUB SLT ISZERO PUSH2 0x2A92 JUMPI PUSH2 0x2A91 PUSH2 0x228C JUMP JUMPDEST JUMPDEST PUSH0 PUSH2 0x2A9F DUP5 DUP3 DUP6 ADD PUSH2 0x2A69 JUMP JUMPDEST SWAP2 POP POP SWAP3 SWAP2 POP POP JUMP JUMPDEST PUSH32 0x4E6F7420617574686F72697A6564000000000000000000000000000000000000 PUSH0 DUP3 ADD MSTORE POP JUMP JUMPDEST PUSH0 PUSH2 0x2ADC PUSH1 0xE DUP4 PUSH2 0x2326 JUMP JUMPDEST SWAP2 POP PUSH2 0x2AE7 DUP3 PUSH2 0x2AA8 JUMP JUMPDEST PUSH1 0x20 DUP3 ADD SWAP1 POP SWAP2 SWAP1 POP JUMP JUMPDEST PUSH0 PUSH1 0x20 DUP3 ADD SWAP1 POP DUP2 DUP2 SUB PUSH0 DUP4 ADD MSTORE PUSH2 0x2B09 DUP2 PUSH2 0x2AD0 JUMP JUMPDEST SWAP1 POP SWAP2 SWAP1 POP JUMP JUMPDEST PUSH32 0x33302064617973206E6F74207061737365640000000000000000000000000000 PUSH0 DUP3 ADD MSTORE POP JUMP JUMPDEST PUSH0 PUSH2 0x2B44 PUSH1 0x12 DUP4 PUSH2 0x2326 JUMP JUMPDEST SWAP2 POP PUSH2 0x2B4F DUP3 PUSH2 0x2B10 JUMP JUMPDEST PUSH1 0x20 DUP3 ADD SWAP1 POP SWAP2 SWAP1 POP JUMP JUMPDEST PUSH0 PUSH1 0x20 DUP3 ADD SWAP1 POP DUP2 DUP2 SUB PUSH0 DUP4 ADD MSTORE PUSH2 0x2B71 DUP2 PUSH2 0x2B38 JUMP JUMPDEST SWAP1 POP SWAP2 SWAP1 POP JUMP JUMPDEST PUSH32 0x416C72656164792063616E63656C6C6564000000000000000000000000000000 PUSH0 DUP3 ADD MSTORE POP JUMP JUMPDEST PUSH0 PUSH2 0x2BAC PUSH1 0x11 DUP4 PUSH2 0x2326 JUMP JUMPDEST SWAP2 POP PUSH2 0x2BB7 DUP3 PUSH2 0x2B78 JUMP JUMPDEST PUSH1 0x20 DUP3 ADD SWAP1 POP SWAP2 SWAP1 POP JUMP JUMPDEST PUSH0 PUSH1 0x20 DUP3 ADD SWAP1 POP DUP2 DUP2 SUB PUSH0 DUP4 ADD MSTORE PUSH2 0x2BD9 DUP2 PUSH2 0x2BA0 JUMP JUMPDEST SWAP1 POP SWAP2 SWAP1 POP JUMP JUMPDEST PUSH32 0x4E6F20646561646C696E65207365740000000000000000000000000000000000 PUSH0 DUP3 ADD MSTORE POP JUMP JUMPDEST PUSH0 PUSH2 0x2C14 PUSH1 0xF DUP4 PUSH2 0x2326 JUMP JUMPDEST SWAP2 POP PUSH2 0x2C1F DUP3 PUSH2 0x2BE0 JUMP JUMPDEST PUSH1 0x20 DUP3 ADD SWAP1 POP SWAP2 SWAP1 POP JUMP JUMPDEST PUSH0 PUSH1 0x20 DUP3 ADD SWAP1 POP DUP2 DUP2 SUB PUSH0 DUP4 ADD MSTORE PUSH2 0x2C41 DUP2 PUSH2 0x2C08 JUMP JUMPDEST SWAP1 POP SWAP2 SWAP1 POP JUMP JUMPDEST PUSH32 0x446561646C696E65206E6F742070617373656400000000000000000000000000 PUSH0 DUP3 ADD MSTORE POP JUMP JUMPDEST PUSH0 PUSH2 0x2C7C PUSH1 0x13 DUP4 PUSH2 0x2326 JUMP JUMPDEST SWAP2 POP PUSH2 0x2C87 DUP3 PUSH2 0x2C48 JUMP JUMPDEST PUSH1 0x20 DUP3 ADD SWAP1 POP SWAP2 SWAP1 POP JUMP JUMPDEST PUSH0 PUSH1 0x20 DUP3 ADD SWAP1 POP DUP2 DUP2 SUB PUSH0 DUP4 ADD MSTORE PUSH2 0x2CA9 DUP2 PUSH2 0x2C70 JUMP JUMPDEST SWAP1 POP SWAP2 SWAP1 POP JUMP JUMPDEST PUSH32 0x5265656E7472616E637947756172643A207265656E7472616E742063616C6C00 PUSH0 DUP3 ADD MSTORE POP JUMP JUMPDEST PUSH0 PUSH2 0x2CE4 PUSH1 0x1F DUP4 PUSH2 0x2326 JUMP JUMPDEST SWAP2 POP PUSH2 0x2CEF DUP3 PUSH2 0x2CB0 JUMP JUMPDEST PUSH1 0x20 DUP3 ADD SWAP1 POP SWAP2 SWAP1 POP JUMP JUMPDEST PUSH0 PUSH1 0x20 DUP3 ADD SWAP1 POP DUP2 DUP2 SUB PUSH0 DUP4 ADD MSTORE PUSH2 0x2D11 DUP2 PUSH2 0x2CD8 JUMP JUMPDEST SWAP1 POP SWAP2 SWAP1 POP JUMP JUMPDEST PUSH0 PUSH1 0x60 DUP3 ADD SWAP1 POP PUSH2 0x2D2B PUSH0 DUP4 ADD DUP7 PUSH2 0x218F JUMP JUMPDEST PUSH2 0x2D38 PUSH1 0x20 DUP4 ADD DUP6 PUSH2 0x218F JUMP JUMPDEST PUSH2 0x2D45 PUSH1 0x40 DUP4 ADD DUP5 PUSH2 0x21A7 JUMP JUMPDEST SWAP5 SWAP4 POP POP POP POP JUMP INVALID LOG2 PUSH5 0x6970667358 0x22 SLT KECCAK256 0xC6 RETURNDATASIZE 0xC CREATE2 DUP12 SMOD DUP2 DUP3 COINBASE EXTCODESIZE DUP15 0xC4 0xDD 0xD9 SLT 0xA7 MSTORE8 CODESIZE MSIZE 0xB3 0x2E SWAP15 0xF6 EXTCODEHASH 0xDA 0xCA PUSH6 0x30A66C51D364 PUSH20 0x6F6C634300081E00330000000000000000000000 "
				},
				"gasEstimates": {
					"creation": {
						"codeDepositCost": "2330200",
						"executionCost": "infinite",
						"totalCost": "infinite"
					},
					"external": {
						"FEE_BASIS_POINTS()": "392",
						"FEE_RECIPIENT()": "461",
						"calculateFee(uint256)": "infinite",
						"cancelMilestone(uint256)": "infinite",
						"cancelProject()": "infinite",
						"developer()": "infinite",
						"disputeRaisedAt()": "2470",
						"fund()": "infinite",
						"funder()": "infinite",
						"getContractBalance()": "infinite",
						"getFeeInfo()": "516",
						"getMilestones()": "infinite",
						"getNetAmount(uint256)": "infinite",
						"getRemainingBalance()": "infinite",
						"getStatus()": "infinite",
						"isDisputeExpired()": "infinite",
						"milestoneCount()": "2508",
						"milestones(uint256)": "infinite",
						"paymentToken()": "infinite",
						"raiseDispute(string)": "infinite",
						"releaseMilestone(uint256)": "infinite",
						"releasedAmount()": "2470",
						"resolveDisputeToDeveloper()": "infinite",
						"resolveDisputeToFunder()": "infinite",
						"state()": "2621",
						"totalAmount()": "2515",
						"totalFeesCollected()": "2536"
					},
					"internal": {
						"_checkCancellation()": "infinite",
						"_checkCompletion()": "infinite",
						"_getRemainingBalance()": "infinite"
					}
				},
				"methodIdentifiers": {
					"FEE_BASIS_POINTS()": "a525ad3c",
					"FEE_RECIPIENT()": "ebd09054",
					"calculateFee(uint256)": "99a5d747",
					"cancelMilestone(uint256)": "f75fdcaa",
					"cancelProject()": "1adff0ee",
					"developer()": "ca4b208b",
					"disputeRaisedAt()": "b95d8dd4",
					"fund()": "b60d4288",
					"funder()": "041ae880",
					"getContractBalance()": "6f9fb98a",
					"getFeeInfo()": "0002eab7",
					"getMilestones()": "629e4ed0",
					"getNetAmount(uint256)": "dca78388",
					"getRemainingBalance()": "2fba2c85",
					"getStatus()": "4e69d560",
					"isDisputeExpired()": "3ddb47b4",
					"milestoneCount()": "0681ca55",
					"milestones(uint256)": "e89e4ed6",
					"paymentToken()": "3013ce29",
					"raiseDispute(string)": "725a3b4b",
					"releaseMilestone(uint256)": "317debf5",
					"releasedAmount()": "45d30a17",
					"resolveDisputeToDeveloper()": "b4f5a711",
					"resolveDisputeToFunder()": "5ac482d1",
					"state()": "c19d93fb",
					"totalAmount()": "1a39d8ef",
					"totalFeesCollected()": "60c6d8ae"
				}
			},
			"storageLayout": {
				"storage": [
					{
						"astId": 100,
						"contract": "Contracts/EScrow_cont.sol:SimpleMilestoneEscrow",
						"label": "_status",
						"offset": 0,
						"slot": "0",
						"type": "t_uint256"
					},
					{
						"astId": 773,
						"contract": "Contracts/EScrow_cont.sol:SimpleMilestoneEscrow",
						"label": "state",
						"offset": 0,
						"slot": "1",
						"type": "t_enum(ProjectState)746"
					},
					{
						"astId": 775,
						"contract": "Contracts/EScrow_cont.sol:SimpleMilestoneEscrow",
						"label": "totalAmount",
						"offset": 0,
						"slot": "2",
						"type": "t_uint256"
					},
					{
						"astId": 777,
						"contract": "Contracts/EScrow_cont.sol:SimpleMilestoneEscrow",
						"label": "releasedAmount",
						"offset": 0,
						"slot": "3",
						"type": "t_uint256"
					},
					{
						"astId": 779,
						"contract": "Contracts/EScrow_cont.sol:SimpleMilestoneEscrow",
						"label": "totalFeesCollected",
						"offset": 0,
						"slot": "4",
						"type": "t_uint256"
					},
					{
						"astId": 783,
						"contract": "Contracts/EScrow_cont.sol:SimpleMilestoneEscrow",
						"label": "milestones",
						"offset": 0,
						"slot": "5",
						"type": "t_array(t_struct(Milestone)757_storage)dyn_storage"
					},
					{
						"astId": 785,
						"contract": "Contracts/EScrow_cont.sol:SimpleMilestoneEscrow",
						"label": "disputeRaisedAt",
						"offset": 0,
						"slot": "6",
						"type": "t_uint256"
					}
				],
				"types": {
					"t_array(t_struct(Milestone)757_storage)dyn_storage": {
						"base": "t_struct(Milestone)757_storage",
						"encoding": "dynamic_array",
						"label": "struct SimpleMilestoneEscrow.Milestone[]",
						"numberOfBytes": "32"
					},
					"t_bool": {
						"encoding": "inplace",
						"label": "bool",
						"numberOfBytes": "1"
					},
					"t_enum(ProjectState)746": {
						"encoding": "inplace",
						"label": "enum SimpleMilestoneEscrow.ProjectState",
						"numberOfBytes": "1"
					},
					"t_string_storage": {
						"encoding": "bytes",
						"label": "string",
						"numberOfBytes": "32"
					},
					"t_struct(Milestone)757_storage": {
						"encoding": "inplace",
						"label": "struct SimpleMilestoneEscrow.Milestone",
						"members": [
							{
								"astId": 748,
								"contract": "Contracts/EScrow_cont.sol:SimpleMilestoneEscrow",
								"label": "amount",
								"offset": 0,
								"slot": "0",
								"type": "t_uint256"
							},
							{
								"astId": 750,
								"contract": "Contracts/EScrow_cont.sol:SimpleMilestoneEscrow",
								"label": "released",
								"offset": 0,
								"slot": "1",
								"type": "t_bool"
							},
							{
								"astId": 752,
								"contract": "Contracts/EScrow_cont.sol:SimpleMilestoneEscrow",
								"label": "cancelled",
								"offset": 1,
								"slot": "1",
								"type": "t_bool"
							},
							{
								"astId": 754,
								"contract": "Contracts/EScrow_cont.sol:SimpleMilestoneEscrow",
								"label": "deadline",
								"offset": 0,
								"slot": "2",
								"type": "t_uint256"
							},
							{
								"astId": 756,
								"contract": "Contracts/EScrow_cont.sol:SimpleMilestoneEscrow",
								"label": "description",
								"offset": 0,
								"slot": "3",
								"type": "t_string_storage"
							}
						],
						"numberOfBytes": "128"
					},
					"t_uint256": {
						"encoding": "inplace",
						"label": "uint256",
						"numberOfBytes": "32"
					}
				}
			},
			"userdoc": {
				"kind": "user",
				"methods": {
					"calculateFee(uint256)": {
						"notice": "Calculate fee for a given amount"
					},
					"cancelMilestone(uint256)": {
						"notice": "Cancel a milestone after deadline"
					},
					"cancelProject()": {
						"notice": "Cancel the project and refund all remaining funds"
					},
					"constructor": {
						"notice": "Deploy a new escrow contract"
					},
					"fund()": {
						"notice": "Fund the escrow with tokens"
					},
					"getContractBalance()": {
						"notice": "Get contract balance"
					},
					"getFeeInfo()": {
						"notice": "Get fee configuration"
					},
					"getMilestones()": {
						"notice": "Get all milestones"
					},
					"getNetAmount(uint256)": {
						"notice": "Get net amount after fee for a given amount"
					},
					"getRemainingBalance()": {
						"notice": "Get remaining balance"
					},
					"getStatus()": {
						"notice": "Get project status as string"
					},
					"isDisputeExpired()": {
						"notice": "Check if dispute is expired"
					},
					"milestoneCount()": {
						"notice": "Get milestone count"
					},
					"raiseDispute(string)": {
						"notice": "Raise a dispute"
					},
					"releaseMilestone(uint256)": {
						"notice": "Release a milestone payment to developer with 1.5% fee"
					},
					"resolveDisputeToDeveloper()": {
						"notice": "Resolve dispute by releasing to developer (after 30 days)"
					},
					"resolveDisputeToFunder()": {
						"notice": "Resolve dispute by refunding to funder"
					}
				},
				"notice": "A simple escrow contract between a funder and developer with milestones",
				"version": 1
			}
		}
	}
}