{
	"Contracts/Funding.sol": {
		"SimpleMilestoneEscrow": {
			"abi": [
				{
					"inputs": [
						{
							"internalType": "address",
							"name": "_funder",
							"type": "address"
						},
						{
							"internalType": "address",
							"name": "_developer",
							"type": "address"
						},
						{
							"internalType": "address",
							"name": "_token",
							"type": "address"
						},
						{
							"internalType": "uint256[]",
							"name": "_milestoneAmounts",
							"type": "uint256[]"
						},
						{
							"internalType": "uint256[]",
							"name": "_milestoneDeadlines",
							"type": "uint256[]"
						},
						{
							"internalType": "string[]",
							"name": "_milestoneDescriptions",
							"type": "string[]"
						}
					],
					"stateMutability": "nonpayable",
					"type": "constructor"
				},
				{
					"inputs": [],
					"name": "AlreadyFunded",
					"type": "error"
				},
				{
					"inputs": [],
					"name": "AlreadyReleased",
					"type": "error"
				},
				{
					"inputs": [],
					"name": "DeadlineNotPassed",
					"type": "error"
				},
				{
					"inputs": [],
					"name": "InvalidMilestone",
					"type": "error"
				},
				{
					"inputs": [],
					"name": "InvalidState",
					"type": "error"
				},
				{
					"inputs": [],
					"name": "NotDeveloper",
					"type": "error"
				},
				{
					"inputs": [],
					"name": "NotFunded",
					"type": "error"
				},
				{
					"inputs": [],
					"name": "NotFunder",
					"type": "error"
				},
				{
					"inputs": [
						{
							"internalType": "address",
							"name": "token",
							"type": "address"
						}
					],
					"name": "SafeERC20FailedOperation",
					"type": "error"
				},
				{
					"inputs": [],
					"name": "ZeroAddress",
					"type": "error"
				},
				{
					"inputs": [],
					"name": "ZeroAmount",
					"type": "error"
				},
				{
					"anonymous": false,
					"inputs": [
						{
							"indexed": true,
							"internalType": "address",
							"name": "by",
							"type": "address"
						},
						{
							"indexed": false,
							"internalType": "string",
							"name": "reason",
							"type": "string"
						}
					],
					"name": "DisputeRaised",
					"type": "event"
				},
				{
					"anonymous": false,
					"inputs": [
						{
							"indexed": false,
							"internalType": "bool",
							"name": "completed",
							"type": "bool"
						}
					],
					"name": "DisputeResolved",
					"type": "event"
				},
				{
					"anonymous": false,
					"inputs": [
						{
							"indexed": true,
							"internalType": "uint256",
							"name": "index",
							"type": "uint256"
						},
						{
							"indexed": false,
							"internalType": "uint256",
							"name": "amount",
							"type": "uint256"
						}
					],
					"name": "MilestoneCancelled",
					"type": "event"
				},
				{
					"anonymous": false,
					"inputs": [
						{
							"indexed": true,
							"internalType": "uint256",
							"name": "index",
							"type": "uint256"
						},
						{
							"indexed": false,
							"internalType": "uint256",
							"name": "amount",
							"type": "uint256"
						}
					],
					"name": "MilestoneReleased",
					"type": "event"
				},
				{
					"anonymous": false,
					"inputs": [],
					"name": "ProjectCancelled",
					"type": "event"
				},
				{
					"anonymous": false,
					"inputs": [],
					"name": "ProjectCompleted",
					"type": "event"
				},
				{
					"anonymous": false,
					"inputs": [
						{
							"indexed": false,
							"internalType": "uint256",
							"name": "amount",
							"type": "uint256"
						}
					],
					"name": "ProjectFunded",
					"type": "event"
				},
				{
					"inputs": [
						{
							"internalType": "uint256",
							"name": "index",
							"type": "uint256"
						}
					],
					"name": "cancelMilestone",
					"outputs": [],
					"stateMutability": "nonpayable",
					"type": "function"
				},
				{
					"inputs": [],
					"name": "cancelProject",
					"outputs": [],
					"stateMutability": "nonpayable",
					"type": "function"
				},
				{
					"inputs": [],
					"name": "developer",
					"outputs": [
						{
							"internalType": "address",
							"name": "",
							"type": "address"
						}
					],
					"stateMutability": "view",
					"type": "function"
				},
				{
					"inputs": [],
					"name": "disputeRaisedAt",
					"outputs": [
						{
							"internalType": "uint256",
							"name": "",
							"type": "uint256"
						}
					],
					"stateMutability": "view",
					"type": "function"
				},
				{
					"inputs": [],
					"name": "fund",
					"outputs": [],
					"stateMutability": "nonpayable",
					"type": "function"
				},
				{
					"inputs": [],
					"name": "funder",
					"outputs": [
						{
							"internalType": "address",
							"name": "",
							"type": "address"
						}
					],
					"stateMutability": "view",
					"type": "function"
				},
				{
					"inputs": [],
					"name": "getContractBalance",
					"outputs": [
						{
							"internalType": "uint256",
							"name": "",
							"type": "uint256"
						}
					],
					"stateMutability": "view",
					"type": "function"
				},
				{
					"inputs": [],
					"name": "getMilestones",
					"outputs": [
						{
							"components": [
								{
									"internalType": "uint256",
									"name": "amount",
									"type": "uint256"
								},
								{
									"internalType": "bool",
									"name": "released",
									"type": "bool"
								},
								{
									"internalType": "bool",
									"name": "cancelled",
									"type": "bool"
								},
								{
									"internalType": "uint256",
									"name": "deadline",
									"type": "uint256"
								},
								{
									"internalType": "string",
									"name": "description",
									"type": "string"
								}
							],
							"internalType": "struct SimpleMilestoneEscrow.Milestone[]",
							"name": "",
							"type": "tuple[]"
						}
					],
					"stateMutability": "view",
					"type": "function"
				},
				{
					"inputs": [],
					"name": "getRemainingBalance",
					"outputs": [
						{
							"internalType": "uint256",
							"name": "",
							"type": "uint256"
						}
					],
					"stateMutability": "view",
					"type": "function"
				},
				{
					"inputs": [],
					"name": "getStatus",
					"outputs": [
						{
							"internalType": "string",
							"name": "",
							"type": "string"
						}
					],
					"stateMutability": "view",
					"type": "function"
				},
				{
					"inputs": [],
					"name": "isDisputeExpired",
					"outputs": [
						{
							"internalType": "bool",
							"name": "",
							"type": "bool"
						}
					],
					"stateMutability": "view",
					"type": "function"
				},
				{
					"inputs": [],
					"name": "milestoneCount",
					"outputs": [
						{
							"internalType": "uint256",
							"name": "",
							"type": "uint256"
						}
					],
					"stateMutability": "view",
					"type": "function"
				},
				{
					"inputs": [
						{
							"internalType": "uint256",
							"name": "",
							"type": "uint256"
						}
					],
					"name": "milestones",
					"outputs": [
						{
							"internalType": "uint256",
							"name": "amount",
							"type": "uint256"
						},
						{
							"internalType": "bool",
							"name": "released",
							"type": "bool"
						},
						{
							"internalType": "bool",
							"name": "cancelled",
							"type": "bool"
						},
						{
							"internalType": "uint256",
							"name": "deadline",
							"type": "uint256"
						},
						{
							"internalType": "string",
							"name": "description",
							"type": "string"
						}
					],
					"stateMutability": "view",
					"type": "function"
				},
				{
					"inputs": [],
					"name": "paymentToken",
					"outputs": [
						{
							"internalType": "contract IERC20",
							"name": "",
							"type": "address"
						}
					],
					"stateMutability": "view",
					"type": "function"
				},
				{
					"inputs": [
						{
							"internalType": "string",
							"name": "reason",
							"type": "string"
						}
					],
					"name": "raiseDispute",
					"outputs": [],
					"stateMutability": "nonpayable",
					"type": "function"
				},
				{
					"inputs": [
						{
							"internalType": "uint256",
							"name": "index",
							"type": "uint256"
						}
					],
					"name": "releaseMilestone",
					"outputs": [],
					"stateMutability": "nonpayable",
					"type": "function"
				},
				{
					"inputs": [],
					"name": "releasedAmount",
					"outputs": [
						{
							"internalType": "uint256",
							"name": "",
							"type": "uint256"
						}
					],
					"stateMutability": "view",
					"type": "function"
				},
				{
					"inputs": [],
					"name": "resolveDisputeToDeveloper",
					"outputs": [],
					"stateMutability": "nonpayable",
					"type": "function"
				},
				{
					"inputs": [],
					"name": "resolveDisputeToFunder",
					"outputs": [],
					"stateMutability": "nonpayable",
					"type": "function"
				},
				{
					"inputs": [],
					"name": "state",
					"outputs": [
						{
							"internalType": "enum SimpleMilestoneEscrow.ProjectState",
							"name": "",
							"type": "uint8"
						}
					],
					"stateMutability": "view",
					"type": "function"
				},
				{
					"inputs": [],
					"name": "totalAmount",
					"outputs": [
						{
							"internalType": "uint256",
							"name": "",
							"type": "uint256"
						}
					],
					"stateMutability": "view",
					"type": "function"
				}
			],
			"devdoc": {
				"details": "No upgradeability, no factory, no arbitrator - just funder and developer",
				"errors": {
					"SafeERC20FailedOperation(address)": [
						{
							"details": "An operation with an ERC-20 token failed."
						}
					]
				},
				"kind": "dev",
				"methods": {
					"cancelMilestone(uint256)": {
						"params": {
							"index": "The milestone index to cancel"
						}
					},
					"constructor": {
						"params": {
							"_developer": "The developer address",
							"_funder": "The funder address",
							"_milestoneAmounts": "Array of milestone amounts",
							"_milestoneDeadlines": "Array of milestone deadlines (timestamp, 0 = no deadline)",
							"_milestoneDescriptions": "Array of milestone descriptions",
							"_token": "The ERC20 token address for payments"
						}
					},
					"fund()": {
						"details": "Must be called by funder after approving tokens"
					},
					"raiseDispute(string)": {
						"params": {
							"reason": "The reason for dispute"
						}
					},
					"releaseMilestone(uint256)": {
						"params": {
							"index": "The milestone index to release"
						}
					}
				},
				"title": "SimpleMilestoneEscrow",
				"version": 1
			},
			"evm": {
				"assembly": "    /* \"Contracts/Funding.sol\":461:12069  contract SimpleMilestoneEscrow is ReentrancyGuard {... */\n  mstore(0x40, 0xe0)\n    /* \"Contracts/Funding.sol\":3287:4835  constructor(... */\n  callvalue\n  dup1\n  iszero\n  tag_1\n  jumpi\n  revert(0x00, 0x00)\ntag_1:\n  pop\n  mload(0x40)\n  sub(codesize, bytecodeSize)\n  dup1\n  bytecodeSize\n  dup4\n  codecopy\n  dup2\n  dup2\n  add\n  0x40\n  mstore\n  dup2\n  add\n  swap1\n  tag_2\n  swap2\n  swap1\n  tag_3\n  jump\t// in\ntag_2:\n    /* \"@openzeppelin/contracts/security/ReentrancyGuard.sol\":1716:1717  1 */\n  0x01\n    /* \"@openzeppelin/contracts/security/ReentrancyGuard.sol\":1821:1828  _status */\n  0x00\n    /* \"@openzeppelin/contracts/security/ReentrancyGuard.sol\":1821:1843  _status = _NOT_ENTERED */\n  dup2\n  swap1\n  sstore\n  pop\n    /* \"Contracts/Funding.sol\":3593:3594  0 */\n  0x00\n    /* \"Contracts/Funding.sol\":3574:3595  _funder != address(0) */\n  0xffffffffffffffffffffffffffffffffffffffff\n  and\n    /* \"Contracts/Funding.sol\":3574:3581  _funder */\n  dup7\n    /* \"Contracts/Funding.sol\":3574:3595  _funder != address(0) */\n  0xffffffffffffffffffffffffffffffffffffffff\n  and\n  sub\n    /* \"Contracts/Funding.sol\":3566:3614  require(_funder != address(0), \"Invalid funder\") */\n  tag_8\n  jumpi\n  mload(0x40)\n  0x08c379a000000000000000000000000000000000000000000000000000000000\n  dup2\n  mstore\n  0x04\n  add\n  tag_9\n  swap1\n  tag_10\n  jump\t// in\ntag_9:\n  mload(0x40)\n  dup1\n  swap2\n  sub\n  swap1\n  revert\ntag_8:\n    /* \"Contracts/Funding.sol\":3655:3656  0 */\n  0x00\n    /* \"Contracts/Funding.sol\":3633:3657  _developer != address(0) */\n  0xffffffffffffffffffffffffffffffffffffffff\n  and\n    /* \"Contracts/Funding.sol\":3633:3643  _developer */\n  dup6\n    /* \"Contracts/Funding.sol\":3633:3657  _developer != address(0) */\n  0xffffffffffffffffffffffffffffffffffffffff\n  and\n  sub\n    /* \"Contracts/Funding.sol\":3625:3679  require(_developer != address(0), \"Invalid developer\") */\n  tag_11\n  jumpi\n  mload(0x40)\n  0x08c379a000000000000000000000000000000000000000000000000000000000\n  dup2\n  mstore\n  0x04\n  add\n  tag_12\n  swap1\n  tag_13\n  jump\t// in\ntag_12:\n  mload(0x40)\n  dup1\n  swap2\n  sub\n  swap1\n  revert\ntag_11:\n    /* \"Contracts/Funding.sol\":3716:3717  0 */\n  0x00\n    /* \"Contracts/Funding.sol\":3698:3718  _token != address(0) */\n  0xffffffffffffffffffffffffffffffffffffffff\n  and\n    /* \"Contracts/Funding.sol\":3698:3704  _token */\n  dup5\n    /* \"Contracts/Funding.sol\":3698:3718  _token != address(0) */\n  0xffffffffffffffffffffffffffffffffffffffff\n  and\n  sub\n    /* \"Contracts/Funding.sol\":3690:3736  require(_token != address(0), \"Invalid token\") */\n  tag_14\n  jumpi\n  mload(0x40)\n  0x08c379a000000000000000000000000000000000000000000000000000000000\n  dup2\n  mstore\n  0x04\n  add\n  tag_15\n  swap1\n  tag_16\n  jump\t// in\ntag_15:\n  mload(0x40)\n  dup1\n  swap2\n  sub\n  swap1\n  revert\ntag_14:\n    /* \"Contracts/Funding.sol\":3766:3776  _developer */\n  dup5\n    /* \"Contracts/Funding.sol\":3755:3776  _funder != _developer */\n  0xffffffffffffffffffffffffffffffffffffffff\n  and\n    /* \"Contracts/Funding.sol\":3755:3762  _funder */\n  dup7\n    /* \"Contracts/Funding.sol\":3755:3776  _funder != _developer */\n  0xffffffffffffffffffffffffffffffffffffffff\n  and\n  sub\n    /* \"Contracts/Funding.sol\":3747:3807  require(_funder != _developer, \"Funder cannot be developer\") */\n  tag_17\n  jumpi\n  mload(0x40)\n  0x08c379a000000000000000000000000000000000000000000000000000000000\n  dup2\n  mstore\n  0x04\n  add\n  tag_18\n  swap1\n  tag_19\n  jump\t// in\ntag_18:\n  mload(0x40)\n  dup1\n  swap2\n  sub\n  swap1\n  revert\ntag_17:\n    /* \"Contracts/Funding.sol\":3853:3854  0 */\n  0x00\n    /* \"Contracts/Funding.sol\":3826:3843  _milestoneAmounts */\n  dup4\n    /* \"Contracts/Funding.sol\":3826:3850  _milestoneAmounts.length */\n  mload\n    /* \"Contracts/Funding.sol\":3826:3854  _milestoneAmounts.length > 0 */\n  gt\n    /* \"Contracts/Funding.sol\":3818:3872  require(_milestoneAmounts.length > 0, \"No milestones\") */\n  tag_20\n  jumpi\n  mload(0x40)\n  0x08c379a000000000000000000000000000000000000000000000000000000000\n  dup2\n  mstore\n  0x04\n  add\n  tag_21\n  swap1\n  tag_22\n  jump\t// in\ntag_21:\n  mload(0x40)\n  dup1\n  swap2\n  sub\n  swap1\n  revert\ntag_20:\n    /* \"Contracts/Funding.sol\":3933:3952  _milestoneDeadlines */\n  dup2\n    /* \"Contracts/Funding.sol\":3933:3959  _milestoneDeadlines.length */\n  mload\n    /* \"Contracts/Funding.sol\":3905:3922  _milestoneAmounts */\n  dup4\n    /* \"Contracts/Funding.sol\":3905:3929  _milestoneAmounts.length */\n  mload\n    /* \"Contracts/Funding.sol\":3905:3959  _milestoneAmounts.length == _milestoneDeadlines.length */\n  eq\n    /* \"Contracts/Funding.sol\":3905:4034  _milestoneAmounts.length == _milestoneDeadlines.length && ... */\n  dup1\n  iszero\n  tag_23\n  jumpi\n  pop\n    /* \"Contracts/Funding.sol\":4005:4027  _milestoneDescriptions */\n  dup1\n    /* \"Contracts/Funding.sol\":4005:4034  _milestoneDescriptions.length */\n  mload\n    /* \"Contracts/Funding.sol\":3977:3994  _milestoneAmounts */\n  dup4\n    /* \"Contracts/Funding.sol\":3977:4001  _milestoneAmounts.length */\n  mload\n    /* \"Contracts/Funding.sol\":3977:4034  _milestoneAmounts.length == _milestoneDescriptions.length */\n  eq\n    /* \"Contracts/Funding.sol\":3905:4034  _milestoneAmounts.length == _milestoneDeadlines.length && ... */\ntag_23:\n    /* \"Contracts/Funding.sol\":3883:4086  require(... */\n  tag_24\n  jumpi\n  mload(0x40)\n  0x08c379a000000000000000000000000000000000000000000000000000000000\n  dup2\n  mstore\n  0x04\n  add\n  tag_25\n  swap1\n  tag_26\n  jump\t// in\ntag_25:\n  mload(0x40)\n  dup1\n  swap2\n  sub\n  swap1\n  revert\ntag_24:\n    /* \"Contracts/Funding.sol\":4116:4123  _funder */\n  dup6\n    /* \"Contracts/Funding.sol\":4107:4123  funder = _funder */\n  0xffffffffffffffffffffffffffffffffffffffff\n  and\n  0x80\n  dup2\n  0xffffffffffffffffffffffffffffffffffffffff\n  and\n  dup2\n  mstore\n  pop\n  pop\n    /* \"Contracts/Funding.sol\":4146:4156  _developer */\n  dup5\n    /* \"Contracts/Funding.sol\":4134:4156  developer = _developer */\n  0xffffffffffffffffffffffffffffffffffffffff\n  and\n  0xa0\n  dup2\n  0xffffffffffffffffffffffffffffffffffffffff\n  and\n  dup2\n  mstore\n  pop\n  pop\n    /* \"Contracts/Funding.sol\":4189:4195  _token */\n  dup4\n    /* \"Contracts/Funding.sol\":4167:4196  paymentToken = IERC20(_token) */\n  0xffffffffffffffffffffffffffffffffffffffff\n  and\n  0xc0\n  dup2\n  0xffffffffffffffffffffffffffffffffffffffff\n  and\n  dup2\n  mstore\n  pop\n  pop\n    /* \"Contracts/Funding.sol\":4247:4258  uint256 sum */\n  0x00\n    /* \"Contracts/Funding.sol\":4261:4262  0 */\n  0x00\n    /* \"Contracts/Funding.sol\":4247:4262  uint256 sum = 0 */\n  swap1\n  pop\n    /* \"Contracts/Funding.sol\":4278:4287  uint256 i */\n  0x00\n    /* \"Contracts/Funding.sol\":4290:4291  0 */\n  0x00\n    /* \"Contracts/Funding.sol\":4278:4291  uint256 i = 0 */\n  swap1\n  pop\n    /* \"Contracts/Funding.sol\":4273:4751  for (uint256 i = 0; i < _milestoneAmounts.length; i++) {... */\ntag_27:\n    /* \"Contracts/Funding.sol\":4297:4314  _milestoneAmounts */\n  dup5\n    /* \"Contracts/Funding.sol\":4297:4321  _milestoneAmounts.length */\n  mload\n    /* \"Contracts/Funding.sol\":4293:4294  i */\n  dup2\n    /* \"Contracts/Funding.sol\":4293:4321  i < _milestoneAmounts.length */\n  lt\n    /* \"Contracts/Funding.sol\":4273:4751  for (uint256 i = 0; i < _milestoneAmounts.length; i++) {... */\n  iszero\n  tag_28\n  jumpi\n    /* \"Contracts/Funding.sol\":4374:4375  0 */\n  0x00\n    /* \"Contracts/Funding.sol\":4351:4368  _milestoneAmounts */\n  dup6\n    /* \"Contracts/Funding.sol\":4369:4370  i */\n  dup3\n    /* \"Contracts/Funding.sol\":4351:4371  _milestoneAmounts[i] */\n  dup2\n  mload\n  dup2\n  lt\n  tag_30\n  jumpi\n  tag_31\n  tag_32\n  jump\t// in\ntag_31:\ntag_30:\n  0x20\n  mul\n  0x20\n  add\n  add\n  mload\n    /* \"Contracts/Funding.sol\":4351:4375  _milestoneAmounts[i] > 0 */\n  gt\n    /* \"Contracts/Funding.sol\":4343:4401  require(_milestoneAmounts[i] > 0, \"Zero milestone amount\") */\n  tag_33\n  jumpi\n  mload(0x40)\n  0x08c379a000000000000000000000000000000000000000000000000000000000\n  dup2\n  mstore\n  0x04\n  add\n  tag_34\n  swap1\n  tag_35\n  jump\t// in\ntag_34:\n  mload(0x40)\n  dup1\n  swap2\n  sub\n  swap1\n  revert\ntag_33:\n    /* \"Contracts/Funding.sol\":4430:4440  milestones */\n  0x04\n    /* \"Contracts/Funding.sol\":4446:4696  Milestone({... */\n  mload(0x40)\n  dup1\n  0xa0\n  add\n  0x40\n  mstore\n  dup1\n    /* \"Contracts/Funding.sol\":4483:4500  _milestoneAmounts */\n  dup8\n    /* \"Contracts/Funding.sol\":4501:4502  i */\n  dup5\n    /* \"Contracts/Funding.sol\":4483:4503  _milestoneAmounts[i] */\n  dup2\n  mload\n  dup2\n  lt\n  tag_36\n  jumpi\n  tag_37\n  tag_32\n  jump\t// in\ntag_37:\ntag_36:\n  0x20\n  mul\n  0x20\n  add\n  add\n  mload\n    /* \"Contracts/Funding.sol\":4446:4696  Milestone({... */\n  dup2\n  mstore\n  0x20\n  add\n    /* \"Contracts/Funding.sol\":4532:4537  false */\n  0x00\n    /* \"Contracts/Funding.sol\":4446:4696  Milestone({... */\n  iszero\n  iszero\n  dup2\n  mstore\n  0x20\n  add\n    /* \"Contracts/Funding.sol\":4567:4572  false */\n  0x00\n    /* \"Contracts/Funding.sol\":4446:4696  Milestone({... */\n  iszero\n  iszero\n  dup2\n  mstore\n  0x20\n  add\n    /* \"Contracts/Funding.sol\":4601:4620  _milestoneDeadlines */\n  dup7\n    /* \"Contracts/Funding.sol\":4621:4622  i */\n  dup5\n    /* \"Contracts/Funding.sol\":4601:4623  _milestoneDeadlines[i] */\n  dup2\n  mload\n  dup2\n  lt\n  tag_38\n  jumpi\n  tag_39\n  tag_32\n  jump\t// in\ntag_39:\ntag_38:\n  0x20\n  mul\n  0x20\n  add\n  add\n  mload\n    /* \"Contracts/Funding.sol\":4446:4696  Milestone({... */\n  dup2\n  mstore\n  0x20\n  add\n    /* \"Contracts/Funding.sol\":4655:4677  _milestoneDescriptions */\n  dup6\n    /* \"Contracts/Funding.sol\":4678:4679  i */\n  dup5\n    /* \"Contracts/Funding.sol\":4655:4680  _milestoneDescriptions[i] */\n  dup2\n  mload\n  dup2\n  lt\n  tag_40\n  jumpi\n  tag_41\n  tag_32\n  jump\t// in\ntag_41:\ntag_40:\n  0x20\n  mul\n  0x20\n  add\n  add\n  mload\n    /* \"Contracts/Funding.sol\":4446:4696  Milestone({... */\n  dup2\n  mstore\n  pop\n    /* \"Contracts/Funding.sol\":4430:4697  milestones.push(Milestone({... */\n  swap1\n  dup1\n  0x01\n  dup2\n  sload\n  add\n  dup1\n  dup3\n  sstore\n  dup1\n  swap2\n  pop\n  pop\n  0x01\n  swap1\n  sub\n  swap1\n  0x00\n  mstore\n  keccak256(0x00, 0x20)\n  swap1\n  0x04\n  mul\n  add\n  0x00\n  swap1\n  swap2\n  swap1\n  swap2\n  swap1\n  swap2\n  pop\n  0x00\n  dup3\n  add\n  mload\n  dup2\n  0x00\n  add\n  sstore\n  0x20\n  dup3\n  add\n  mload\n  dup2\n  0x01\n  add\n  exp(0x0100, 0x00)\n  dup2\n  sload\n  dup2\n  0xff\n  mul\n  not\n  and\n  swap1\n  dup4\n  iszero\n  iszero\n  mul\n  or\n  swap1\n  sstore\n  pop\n  0x40\n  dup3\n  add\n  mload\n  dup2\n  0x01\n  add\n  exp(0x0100, 0x01)\n  dup2\n  sload\n  dup2\n  0xff\n  mul\n  not\n  and\n  swap1\n  dup4\n  iszero\n  iszero\n  mul\n  or\n  swap1\n  sstore\n  pop\n  0x60\n  dup3\n  add\n  mload\n  dup2\n  0x02\n  add\n  sstore\n  0x80\n  dup3\n  add\n  mload\n  dup2\n  0x03\n  add\n  swap1\n  dup2\n  tag_43\n  swap2\n  swap1\n  tag_44\n  jump\t// in\ntag_43:\n  pop\n  pop\n  pop\n    /* \"Contracts/Funding.sol\":4719:4736  _milestoneAmounts */\n  dup5\n    /* \"Contracts/Funding.sol\":4737:4738  i */\n  dup2\n    /* \"Contracts/Funding.sol\":4719:4739  _milestoneAmounts[i] */\n  dup2\n  mload\n  dup2\n  lt\n  tag_45\n  jumpi\n  tag_46\n  tag_32\n  jump\t// in\ntag_46:\ntag_45:\n  0x20\n  mul\n  0x20\n  add\n  add\n  mload\n    /* \"Contracts/Funding.sol\":4712:4739  sum += _milestoneAmounts[i] */\n  dup3\n  tag_47\n  swap2\n  swap1\n  tag_48\n  jump\t// in\ntag_47:\n  swap2\n  pop\n    /* \"Contracts/Funding.sol\":4323:4326  i++ */\n  dup1\n  dup1\n  0x01\n  add\n  swap2\n  pop\n  pop\n    /* \"Contracts/Funding.sol\":4273:4751  for (uint256 i = 0; i < _milestoneAmounts.length; i++) {... */\n  jump(tag_27)\ntag_28:\n  pop\n    /* \"Contracts/Funding.sol\":4785:4788  sum */\n  dup1\n    /* \"Contracts/Funding.sol\":4771:4782  totalAmount */\n  0x02\n    /* \"Contracts/Funding.sol\":4771:4788  totalAmount = sum */\n  dup2\n  swap1\n  sstore\n  pop\n    /* \"Contracts/Funding.sol\":4807:4827  ProjectState.Created */\n  0x00\n    /* \"Contracts/Funding.sol\":4799:4804  state */\n  0x01\n  0x00\n    /* \"Contracts/Funding.sol\":4799:4827  state = ProjectState.Created */\n  0x0100\n  exp\n  dup2\n  sload\n  dup2\n  0xff\n  mul\n  not\n  and\n  swap1\n  dup4\n  0x04\n  dup2\n  gt\n  iszero\n  tag_49\n  jumpi\n  tag_50\n  tag_51\n  jump\t// in\ntag_50:\ntag_49:\n  mul\n  or\n  swap1\n  sstore\n  pop\n    /* \"Contracts/Funding.sol\":3527:4835  {... */\n  pop\n    /* \"Contracts/Funding.sol\":3287:4835  constructor(... */\n  pop\n  pop\n  pop\n  pop\n  pop\n  pop\n    /* \"Contracts/Funding.sol\":461:12069  contract SimpleMilestoneEscrow is ReentrancyGuard {... */\n  jump(tag_52)\n    /* \"#utility.yul\":7:82   */\ntag_53:\n    /* \"#utility.yul\":40:46   */\n  0x00\n    /* \"#utility.yul\":73:75   */\n  0x40\n    /* \"#utility.yul\":67:76   */\n  mload\n    /* \"#utility.yul\":57:76   */\n  swap1\n  pop\n    /* \"#utility.yul\":7:82   */\n  swap1\n  jump\t// out\n    /* \"#utility.yul\":88:205   */\ntag_54:\n    /* \"#utility.yul\":197:198   */\n  0x00\n    /* \"#utility.yul\":194:195   */\n  0x00\n    /* \"#utility.yul\":187:199   */\n  revert\n    /* \"#utility.yul\":211:328   */\ntag_55:\n    /* \"#utility.yul\":320:321   */\n  0x00\n    /* \"#utility.yul\":317:318   */\n  0x00\n    /* \"#utility.yul\":310:322   */\n  revert\n    /* \"#utility.yul\":334:460   */\ntag_56:\n    /* \"#utility.yul\":371:378   */\n  0x00\n    /* \"#utility.yul\":411:453   */\n  0xffffffffffffffffffffffffffffffffffffffff\n    /* \"#utility.yul\":404:409   */\n  dup3\n    /* \"#utility.yul\":400:454   */\n  and\n    /* \"#utility.yul\":389:454   */\n  swap1\n  pop\n    /* \"#utility.yul\":334:460   */\n  swap2\n  swap1\n  pop\n  jump\t// out\n    /* \"#utility.yul\":466:562   */\ntag_57:\n    /* \"#utility.yul\":503:510   */\n  0x00\n    /* \"#utility.yul\":532:556   */\n  tag_120\n    /* \"#utility.yul\":550:555   */\n  dup3\n    /* \"#utility.yul\":532:556   */\n  tag_56\n  jump\t// in\ntag_120:\n    /* \"#utility.yul\":521:556   */\n  swap1\n  pop\n    /* \"#utility.yul\":466:562   */\n  swap2\n  swap1\n  pop\n  jump\t// out\n    /* \"#utility.yul\":568:690   */\ntag_58:\n    /* \"#utility.yul\":641:665   */\n  tag_122\n    /* \"#utility.yul\":659:664   */\n  dup2\n    /* \"#utility.yul\":641:665   */\n  tag_57\n  jump\t// in\ntag_122:\n    /* \"#utility.yul\":634:639   */\n  dup2\n    /* \"#utility.yul\":631:666   */\n  eq\n    /* \"#utility.yul\":621:684   */\n  tag_123\n  jumpi\n    /* \"#utility.yul\":680:681   */\n  0x00\n    /* \"#utility.yul\":677:678   */\n  0x00\n    /* \"#utility.yul\":670:682   */\n  revert\n    /* \"#utility.yul\":621:684   */\ntag_123:\n    /* \"#utility.yul\":568:690   */\n  pop\n  jump\t// out\n    /* \"#utility.yul\":696:839   */\ntag_59:\n    /* \"#utility.yul\":753:758   */\n  0x00\n    /* \"#utility.yul\":784:790   */\n  dup2\n    /* \"#utility.yul\":778:791   */\n  mload\n    /* \"#utility.yul\":769:791   */\n  swap1\n  pop\n    /* \"#utility.yul\":800:833   */\n  tag_125\n    /* \"#utility.yul\":827:832   */\n  dup2\n    /* \"#utility.yul\":800:833   */\n  tag_58\n  jump\t// in\ntag_125:\n    /* \"#utility.yul\":696:839   */\n  swap3\n  swap2\n  pop\n  pop\n  jump\t// out\n    /* \"#utility.yul\":845:962   */\ntag_60:\n    /* \"#utility.yul\":954:955   */\n  0x00\n    /* \"#utility.yul\":951:952   */\n  0x00\n    /* \"#utility.yul\":944:956   */\n  revert\n    /* \"#utility.yul\":968:1070   */\ntag_61:\n    /* \"#utility.yul\":1009:1015   */\n  0x00\n    /* \"#utility.yul\":1060:1062   */\n  0x1f\n    /* \"#utility.yul\":1056:1063   */\n  not\n    /* \"#utility.yul\":1051:1053   */\n  0x1f\n    /* \"#utility.yul\":1044:1049   */\n  dup4\n    /* \"#utility.yul\":1040:1054   */\n  add\n    /* \"#utility.yul\":1036:1064   */\n  and\n    /* \"#utility.yul\":1026:1064   */\n  swap1\n  pop\n    /* \"#utility.yul\":968:1070   */\n  swap2\n  swap1\n  pop\n  jump\t// out\n    /* \"#utility.yul\":1076:1256   */\ntag_62:\n    /* \"#utility.yul\":1124:1201   */\n  0x4e487b7100000000000000000000000000000000000000000000000000000000\n    /* \"#utility.yul\":1121:1122   */\n  0x00\n    /* \"#utility.yul\":1114:1202   */\n  mstore\n    /* \"#utility.yul\":1221:1225   */\n  0x41\n    /* \"#utility.yul\":1218:1219   */\n  0x04\n    /* \"#utility.yul\":1211:1226   */\n  mstore\n    /* \"#utility.yul\":1245:1249   */\n  0x24\n    /* \"#utility.yul\":1242:1243   */\n  0x00\n    /* \"#utility.yul\":1235:1250   */\n  revert\n    /* \"#utility.yul\":1262:1543   */\ntag_63:\n    /* \"#utility.yul\":1345:1372   */\n  tag_130\n    /* \"#utility.yul\":1367:1371   */\n  dup3\n    /* \"#utility.yul\":1345:1372   */\n  tag_61\n  jump\t// in\ntag_130:\n    /* \"#utility.yul\":1337:1343   */\n  dup2\n    /* \"#utility.yul\":1333:1373   */\n  add\n    /* \"#utility.yul\":1475:1481   */\n  dup2\n    /* \"#utility.yul\":1463:1473   */\n  dup2\n    /* \"#utility.yul\":1460:1482   */\n  lt\n    /* \"#utility.yul\":1439:1457   */\n  0xffffffffffffffff\n    /* \"#utility.yul\":1427:1437   */\n  dup3\n    /* \"#utility.yul\":1424:1458   */\n  gt\n    /* \"#utility.yul\":1421:1483   */\n  or\n    /* \"#utility.yul\":1418:1506   */\n  iszero\n  tag_131\n  jumpi\n    /* \"#utility.yul\":1486:1504   */\n  tag_132\n  tag_62\n  jump\t// in\ntag_132:\n    /* \"#utility.yul\":1418:1506   */\ntag_131:\n    /* \"#utility.yul\":1526:1536   */\n  dup1\n    /* \"#utility.yul\":1522:1524   */\n  0x40\n    /* \"#utility.yul\":1515:1537   */\n  mstore\n    /* \"#utility.yul\":1305:1543   */\n  pop\n    /* \"#utility.yul\":1262:1543   */\n  pop\n  pop\n  jump\t// out\n    /* \"#utility.yul\":1549:1678   */\ntag_64:\n    /* \"#utility.yul\":1583:1589   */\n  0x00\n    /* \"#utility.yul\":1610:1630   */\n  tag_134\n  tag_53\n  jump\t// in\ntag_134:\n    /* \"#utility.yul\":1600:1630   */\n  swap1\n  pop\n    /* \"#utility.yul\":1639:1672   */\n  tag_135\n    /* \"#utility.yul\":1667:1671   */\n  dup3\n    /* \"#utility.yul\":1659:1665   */\n  dup3\n    /* \"#utility.yul\":1639:1672   */\n  tag_63\n  jump\t// in\ntag_135:\n    /* \"#utility.yul\":1549:1678   */\n  swap2\n  swap1\n  pop\n  jump\t// out\n    /* \"#utility.yul\":1684:1995   */\ntag_65:\n    /* \"#utility.yul\":1761:1765   */\n  0x00\n    /* \"#utility.yul\":1851:1869   */\n  0xffffffffffffffff\n    /* \"#utility.yul\":1843:1849   */\n  dup3\n    /* \"#utility.yul\":1840:1870   */\n  gt\n    /* \"#utility.yul\":1837:1893   */\n  iszero\n  tag_137\n  jumpi\n    /* \"#utility.yul\":1873:1891   */\n  tag_138\n  tag_62\n  jump\t// in\ntag_138:\n    /* \"#utility.yul\":1837:1893   */\ntag_137:\n    /* \"#utility.yul\":1923:1927   */\n  0x20\n    /* \"#utility.yul\":1915:1921   */\n  dup3\n    /* \"#utility.yul\":1911:1928   */\n  mul\n    /* \"#utility.yul\":1903:1928   */\n  swap1\n  pop\n    /* \"#utility.yul\":1983:1987   */\n  0x20\n    /* \"#utility.yul\":1977:1981   */\n  dup2\n    /* \"#utility.yul\":1973:1988   */\n  add\n    /* \"#utility.yul\":1965:1988   */\n  swap1\n  pop\n    /* \"#utility.yul\":1684:1995   */\n  swap2\n  swap1\n  pop\n  jump\t// out\n    /* \"#utility.yul\":2001:2118   */\ntag_66:\n    /* \"#utility.yul\":2110:2111   */\n  0x00\n    /* \"#utility.yul\":2107:2108   */\n  0x00\n    /* \"#utility.yul\":2100:2112   */\n  revert\n    /* \"#utility.yul\":2124:2201   */\ntag_67:\n    /* \"#utility.yul\":2161:2168   */\n  0x00\n    /* \"#utility.yul\":2190:2195   */\n  dup2\n    /* \"#utility.yul\":2179:2195   */\n  swap1\n  pop\n    /* \"#utility.yul\":2124:2201   */\n  swap2\n  swap1\n  pop\n  jump\t// out\n    /* \"#utility.yul\":2207:2329   */\ntag_68:\n    /* \"#utility.yul\":2280:2304   */\n  tag_142\n    /* \"#utility.yul\":2298:2303   */\n  dup2\n    /* \"#utility.yul\":2280:2304   */\n  tag_67\n  jump\t// in\ntag_142:\n    /* \"#utility.yul\":2273:2278   */\n  dup2\n    /* \"#utility.yul\":2270:2305   */\n  eq\n    /* \"#utility.yul\":2260:2323   */\n  tag_143\n  jumpi\n    /* \"#utility.yul\":2319:2320   */\n  0x00\n    /* \"#utility.yul\":2316:2317   */\n  0x00\n    /* \"#utility.yul\":2309:2321   */\n  revert\n    /* \"#utility.yul\":2260:2323   */\ntag_143:\n    /* \"#utility.yul\":2207:2329   */\n  pop\n  jump\t// out\n    /* \"#utility.yul\":2335:2478   */\ntag_69:\n    /* \"#utility.yul\":2392:2397   */\n  0x00\n    /* \"#utility.yul\":2423:2429   */\n  dup2\n    /* \"#utility.yul\":2417:2430   */\n  mload\n    /* \"#utility.yul\":2408:2430   */\n  swap1\n  pop\n    /* \"#utility.yul\":2439:2472   */\n  tag_145\n    /* \"#utility.yul\":2466:2471   */\n  dup2\n    /* \"#utility.yul\":2439:2472   */\n  tag_68\n  jump\t// in\ntag_145:\n    /* \"#utility.yul\":2335:2478   */\n  swap3\n  swap2\n  pop\n  pop\n  jump\t// out\n    /* \"#utility.yul\":2501:3233   */\ntag_70:\n    /* \"#utility.yul\":2608:2613   */\n  0x00\n    /* \"#utility.yul\":2633:2714   */\n  tag_147\n    /* \"#utility.yul\":2649:2713   */\n  tag_148\n    /* \"#utility.yul\":2706:2712   */\n  dup5\n    /* \"#utility.yul\":2649:2713   */\n  tag_65\n  jump\t// in\ntag_148:\n    /* \"#utility.yul\":2633:2714   */\n  tag_64\n  jump\t// in\ntag_147:\n    /* \"#utility.yul\":2624:2714   */\n  swap1\n  pop\n    /* \"#utility.yul\":2734:2739   */\n  dup1\n    /* \"#utility.yul\":2763:2769   */\n  dup4\n    /* \"#utility.yul\":2756:2761   */\n  dup3\n    /* \"#utility.yul\":2749:2770   */\n  mstore\n    /* \"#utility.yul\":2797:2801   */\n  0x20\n    /* \"#utility.yul\":2790:2795   */\n  dup3\n    /* \"#utility.yul\":2786:2802   */\n  add\n    /* \"#utility.yul\":2779:2802   */\n  swap1\n  pop\n    /* \"#utility.yul\":2850:2854   */\n  0x20\n    /* \"#utility.yul\":2842:2848   */\n  dup5\n    /* \"#utility.yul\":2838:2855   */\n  mul\n    /* \"#utility.yul\":2830:2836   */\n  dup4\n    /* \"#utility.yul\":2826:2856   */\n  add\n    /* \"#utility.yul\":2879:2882   */\n  dup6\n    /* \"#utility.yul\":2871:2877   */\n  dup2\n    /* \"#utility.yul\":2868:2883   */\n  gt\n    /* \"#utility.yul\":2865:2987   */\n  iszero\n  tag_149\n  jumpi\n    /* \"#utility.yul\":2898:2977   */\n  tag_150\n  tag_66\n  jump\t// in\ntag_150:\n    /* \"#utility.yul\":2865:2987   */\ntag_149:\n    /* \"#utility.yul\":3013:3019   */\n  dup4\n    /* \"#utility.yul\":2996:3227   */\ntag_151:\n    /* \"#utility.yul\":3030:3036   */\n  dup2\n    /* \"#utility.yul\":3025:3028   */\n  dup2\n    /* \"#utility.yul\":3022:3037   */\n  lt\n    /* \"#utility.yul\":2996:3227   */\n  iszero\n  tag_153\n  jumpi\n    /* \"#utility.yul\":3105:3108   */\n  dup1\n    /* \"#utility.yul\":3134:3182   */\n  tag_154\n    /* \"#utility.yul\":3178:3181   */\n  dup9\n    /* \"#utility.yul\":3166:3176   */\n  dup3\n    /* \"#utility.yul\":3134:3182   */\n  tag_69\n  jump\t// in\ntag_154:\n    /* \"#utility.yul\":3129:3132   */\n  dup5\n    /* \"#utility.yul\":3122:3183   */\n  mstore\n    /* \"#utility.yul\":3212:3216   */\n  0x20\n    /* \"#utility.yul\":3207:3210   */\n  dup5\n    /* \"#utility.yul\":3203:3217   */\n  add\n    /* \"#utility.yul\":3196:3217   */\n  swap4\n  pop\n    /* \"#utility.yul\":3072:3227   */\n  pop\n    /* \"#utility.yul\":3056:3060   */\n  0x20\n    /* \"#utility.yul\":3051:3054   */\n  dup2\n    /* \"#utility.yul\":3047:3061   */\n  add\n    /* \"#utility.yul\":3040:3061   */\n  swap1\n  pop\n    /* \"#utility.yul\":2996:3227   */\n  jump(tag_151)\ntag_153:\n    /* \"#utility.yul\":3000:3021   */\n  pop\n    /* \"#utility.yul\":2614:3233   */\n  pop\n  pop\n    /* \"#utility.yul\":2501:3233   */\n  swap4\n  swap3\n  pop\n  pop\n  pop\n  jump\t// out\n    /* \"#utility.yul\":3256:3641   */\ntag_71:\n    /* \"#utility.yul\":3338:3343   */\n  0x00\n    /* \"#utility.yul\":3387:3390   */\n  dup3\n    /* \"#utility.yul\":3380:3384   */\n  0x1f\n    /* \"#utility.yul\":3372:3378   */\n  dup4\n    /* \"#utility.yul\":3368:3385   */\n  add\n    /* \"#utility.yul\":3364:3391   */\n  slt\n    /* \"#utility.yul\":3354:3476   */\n  tag_156\n  jumpi\n    /* \"#utility.yul\":3395:3474   */\n  tag_157\n  tag_60\n  jump\t// in\ntag_157:\n    /* \"#utility.yul\":3354:3476   */\ntag_156:\n    /* \"#utility.yul\":3505:3511   */\n  dup2\n    /* \"#utility.yul\":3499:3512   */\n  mload\n    /* \"#utility.yul\":3530:3635   */\n  tag_158\n    /* \"#utility.yul\":3631:3634   */\n  dup5\n    /* \"#utility.yul\":3623:3629   */\n  dup3\n    /* \"#utility.yul\":3616:3620   */\n  0x20\n    /* \"#utility.yul\":3608:3614   */\n  dup7\n    /* \"#utility.yul\":3604:3621   */\n  add\n    /* \"#utility.yul\":3530:3635   */\n  tag_70\n  jump\t// in\ntag_158:\n    /* \"#utility.yul\":3521:3635   */\n  swap2\n  pop\n    /* \"#utility.yul\":3344:3641   */\n  pop\n    /* \"#utility.yul\":3256:3641   */\n  swap3\n  swap2\n  pop\n  pop\n  jump\t// out\n    /* \"#utility.yul\":3647:3968   */\ntag_72:\n    /* \"#utility.yul\":3734:3738   */\n  0x00\n    /* \"#utility.yul\":3824:3842   */\n  0xffffffffffffffff\n    /* \"#utility.yul\":3816:3822   */\n  dup3\n    /* \"#utility.yul\":3813:3843   */\n  gt\n    /* \"#utility.yul\":3810:3866   */\n  iszero\n  tag_160\n  jumpi\n    /* \"#utility.yul\":3846:3864   */\n  tag_161\n  tag_62\n  jump\t// in\ntag_161:\n    /* \"#utility.yul\":3810:3866   */\ntag_160:\n    /* \"#utility.yul\":3896:3900   */\n  0x20\n    /* \"#utility.yul\":3888:3894   */\n  dup3\n    /* \"#utility.yul\":3884:3901   */\n  mul\n    /* \"#utility.yul\":3876:3901   */\n  swap1\n  pop\n    /* \"#utility.yul\":3956:3960   */\n  0x20\n    /* \"#utility.yul\":3950:3954   */\n  dup2\n    /* \"#utility.yul\":3946:3961   */\n  add\n    /* \"#utility.yul\":3938:3961   */\n  swap1\n  pop\n    /* \"#utility.yul\":3647:3968   */\n  swap2\n  swap1\n  pop\n  jump\t// out\n    /* \"#utility.yul\":3974:4091   */\ntag_73:\n    /* \"#utility.yul\":4083:4084   */\n  0x00\n    /* \"#utility.yul\":4080:4081   */\n  0x00\n    /* \"#utility.yul\":4073:4085   */\n  revert\n    /* \"#utility.yul\":4097:4405   */\ntag_74:\n    /* \"#utility.yul\":4159:4163   */\n  0x00\n    /* \"#utility.yul\":4249:4267   */\n  0xffffffffffffffff\n    /* \"#utility.yul\":4241:4247   */\n  dup3\n    /* \"#utility.yul\":4238:4268   */\n  gt\n    /* \"#utility.yul\":4235:4291   */\n  iszero\n  tag_164\n  jumpi\n    /* \"#utility.yul\":4271:4289   */\n  tag_165\n  tag_62\n  jump\t// in\ntag_165:\n    /* \"#utility.yul\":4235:4291   */\ntag_164:\n    /* \"#utility.yul\":4309:4338   */\n  tag_166\n    /* \"#utility.yul\":4331:4337   */\n  dup3\n    /* \"#utility.yul\":4309:4338   */\n  tag_61\n  jump\t// in\ntag_166:\n    /* \"#utility.yul\":4301:4338   */\n  swap1\n  pop\n    /* \"#utility.yul\":4393:4397   */\n  0x20\n    /* \"#utility.yul\":4387:4391   */\n  dup2\n    /* \"#utility.yul\":4383:4398   */\n  add\n    /* \"#utility.yul\":4375:4398   */\n  swap1\n  pop\n    /* \"#utility.yul\":4097:4405   */\n  swap2\n  swap1\n  pop\n  jump\t// out\n    /* \"#utility.yul\":4411:4550   */\ntag_75:\n    /* \"#utility.yul\":4500:4506   */\n  dup3\n    /* \"#utility.yul\":4495:4498   */\n  dup2\n    /* \"#utility.yul\":4490:4493   */\n  dup4\n    /* \"#utility.yul\":4484:4507   */\n  mcopy\n    /* \"#utility.yul\":4541:4542   */\n  0x00\n    /* \"#utility.yul\":4532:4538   */\n  dup4\n    /* \"#utility.yul\":4527:4530   */\n  dup4\n    /* \"#utility.yul\":4523:4539   */\n  add\n    /* \"#utility.yul\":4516:4543   */\n  mstore\n    /* \"#utility.yul\":4411:4550   */\n  pop\n  pop\n  pop\n  jump\t// out\n    /* \"#utility.yul\":4556:4990   */\ntag_76:\n    /* \"#utility.yul\":4645:4650   */\n  0x00\n    /* \"#utility.yul\":4670:4736   */\n  tag_169\n    /* \"#utility.yul\":4686:4735   */\n  tag_170\n    /* \"#utility.yul\":4728:4734   */\n  dup5\n    /* \"#utility.yul\":4686:4735   */\n  tag_74\n  jump\t// in\ntag_170:\n    /* \"#utility.yul\":4670:4736   */\n  tag_64\n  jump\t// in\ntag_169:\n    /* \"#utility.yul\":4661:4736   */\n  swap1\n  pop\n    /* \"#utility.yul\":4759:4765   */\n  dup3\n    /* \"#utility.yul\":4752:4757   */\n  dup2\n    /* \"#utility.yul\":4745:4766   */\n  mstore\n    /* \"#utility.yul\":4797:4801   */\n  0x20\n    /* \"#utility.yul\":4790:4795   */\n  dup2\n    /* \"#utility.yul\":4786:4802   */\n  add\n    /* \"#utility.yul\":4835:4838   */\n  dup5\n    /* \"#utility.yul\":4826:4832   */\n  dup5\n    /* \"#utility.yul\":4821:4824   */\n  dup5\n    /* \"#utility.yul\":4817:4833   */\n  add\n    /* \"#utility.yul\":4814:4839   */\n  gt\n    /* \"#utility.yul\":4811:4923   */\n  iszero\n  tag_171\n  jumpi\n    /* \"#utility.yul\":4842:4921   */\n  tag_172\n  tag_73\n  jump\t// in\ntag_172:\n    /* \"#utility.yul\":4811:4923   */\ntag_171:\n    /* \"#utility.yul\":4932:4984   */\n  tag_173\n    /* \"#utility.yul\":4977:4983   */\n  dup5\n    /* \"#utility.yul\":4972:4975   */\n  dup3\n    /* \"#utility.yul\":4967:4970   */\n  dup6\n    /* \"#utility.yul\":4932:4984   */\n  tag_75\n  jump\t// in\ntag_173:\n    /* \"#utility.yul\":4651:4990   */\n  pop\n    /* \"#utility.yul\":4556:4990   */\n  swap4\n  swap3\n  pop\n  pop\n  pop\n  jump\t// out\n    /* \"#utility.yul\":5010:5365   */\ntag_77:\n    /* \"#utility.yul\":5077:5082   */\n  0x00\n    /* \"#utility.yul\":5126:5129   */\n  dup3\n    /* \"#utility.yul\":5119:5123   */\n  0x1f\n    /* \"#utility.yul\":5111:5117   */\n  dup4\n    /* \"#utility.yul\":5107:5124   */\n  add\n    /* \"#utility.yul\":5103:5130   */\n  slt\n    /* \"#utility.yul\":5093:5215   */\n  tag_175\n  jumpi\n    /* \"#utility.yul\":5134:5213   */\n  tag_176\n  tag_60\n  jump\t// in\ntag_176:\n    /* \"#utility.yul\":5093:5215   */\ntag_175:\n    /* \"#utility.yul\":5244:5250   */\n  dup2\n    /* \"#utility.yul\":5238:5251   */\n  mload\n    /* \"#utility.yul\":5269:5359   */\n  tag_177\n    /* \"#utility.yul\":5355:5358   */\n  dup5\n    /* \"#utility.yul\":5347:5353   */\n  dup3\n    /* \"#utility.yul\":5340:5344   */\n  0x20\n    /* \"#utility.yul\":5332:5338   */\n  dup7\n    /* \"#utility.yul\":5328:5345   */\n  add\n    /* \"#utility.yul\":5269:5359   */\n  tag_76\n  jump\t// in\ntag_177:\n    /* \"#utility.yul\":5260:5359   */\n  swap2\n  pop\n    /* \"#utility.yul\":5083:5365   */\n  pop\n    /* \"#utility.yul\":5010:5365   */\n  swap3\n  swap2\n  pop\n  pop\n  jump\t// out\n    /* \"#utility.yul\":5387:6347   */\ntag_78:\n    /* \"#utility.yul\":5504:5509   */\n  0x00\n    /* \"#utility.yul\":5529:5620   */\n  tag_179\n    /* \"#utility.yul\":5545:5619   */\n  tag_180\n    /* \"#utility.yul\":5612:5618   */\n  dup5\n    /* \"#utility.yul\":5545:5619   */\n  tag_72\n  jump\t// in\ntag_180:\n    /* \"#utility.yul\":5529:5620   */\n  tag_64\n  jump\t// in\ntag_179:\n    /* \"#utility.yul\":5520:5620   */\n  swap1\n  pop\n    /* \"#utility.yul\":5640:5645   */\n  dup1\n    /* \"#utility.yul\":5669:5675   */\n  dup4\n    /* \"#utility.yul\":5662:5667   */\n  dup3\n    /* \"#utility.yul\":5655:5676   */\n  mstore\n    /* \"#utility.yul\":5703:5707   */\n  0x20\n    /* \"#utility.yul\":5696:5701   */\n  dup3\n    /* \"#utility.yul\":5692:5708   */\n  add\n    /* \"#utility.yul\":5685:5708   */\n  swap1\n  pop\n    /* \"#utility.yul\":5756:5760   */\n  0x20\n    /* \"#utility.yul\":5748:5754   */\n  dup5\n    /* \"#utility.yul\":5744:5761   */\n  mul\n    /* \"#utility.yul\":5736:5742   */\n  dup4\n    /* \"#utility.yul\":5732:5762   */\n  add\n    /* \"#utility.yul\":5785:5788   */\n  dup6\n    /* \"#utility.yul\":5777:5783   */\n  dup2\n    /* \"#utility.yul\":5774:5789   */\n  gt\n    /* \"#utility.yul\":5771:5893   */\n  iszero\n  tag_181\n  jumpi\n    /* \"#utility.yul\":5804:5883   */\n  tag_182\n  tag_66\n  jump\t// in\ntag_182:\n    /* \"#utility.yul\":5771:5893   */\ntag_181:\n    /* \"#utility.yul\":5919:5925   */\n  dup4\n    /* \"#utility.yul\":5902:6341   */\ntag_183:\n    /* \"#utility.yul\":5936:5942   */\n  dup2\n    /* \"#utility.yul\":5931:5934   */\n  dup2\n    /* \"#utility.yul\":5928:5943   */\n  lt\n    /* \"#utility.yul\":5902:6341   */\n  iszero\n  tag_185\n  jumpi\n    /* \"#utility.yul\":6018:6021   */\n  dup1\n    /* \"#utility.yul\":6012:6022   */\n  mload\n    /* \"#utility.yul\":6054:6072   */\n  0xffffffffffffffff\n    /* \"#utility.yul\":6041:6052   */\n  dup2\n    /* \"#utility.yul\":6038:6073   */\n  gt\n    /* \"#utility.yul\":6035:6157   */\n  iszero\n  tag_186\n  jumpi\n    /* \"#utility.yul\":6076:6155   */\n  tag_187\n  tag_60\n  jump\t// in\ntag_187:\n    /* \"#utility.yul\":6035:6157   */\ntag_186:\n    /* \"#utility.yul\":6200:6211   */\n  dup1\n    /* \"#utility.yul\":6192:6198   */\n  dup7\n    /* \"#utility.yul\":6188:6212   */\n  add\n    /* \"#utility.yul\":6238:6296   */\n  tag_188\n    /* \"#utility.yul\":6292:6295   */\n  dup10\n    /* \"#utility.yul\":6280:6290   */\n  dup3\n    /* \"#utility.yul\":6238:6296   */\n  tag_77\n  jump\t// in\ntag_188:\n    /* \"#utility.yul\":6233:6236   */\n  dup6\n    /* \"#utility.yul\":6226:6297   */\n  mstore\n    /* \"#utility.yul\":6326:6330   */\n  0x20\n    /* \"#utility.yul\":6321:6324   */\n  dup6\n    /* \"#utility.yul\":6317:6331   */\n  add\n    /* \"#utility.yul\":6310:6331   */\n  swap5\n  pop\n    /* \"#utility.yul\":5978:6341   */\n  pop\n  pop\n    /* \"#utility.yul\":5962:5966   */\n  0x20\n    /* \"#utility.yul\":5957:5960   */\n  dup2\n    /* \"#utility.yul\":5953:5967   */\n  add\n    /* \"#utility.yul\":5946:5967   */\n  swap1\n  pop\n    /* \"#utility.yul\":5902:6341   */\n  jump(tag_183)\ntag_185:\n    /* \"#utility.yul\":5906:5927   */\n  pop\n    /* \"#utility.yul\":5510:6347   */\n  pop\n  pop\n    /* \"#utility.yul\":5387:6347   */\n  swap4\n  swap3\n  pop\n  pop\n  pop\n  jump\t// out\n    /* \"#utility.yul\":6369:6774   */\ntag_79:\n    /* \"#utility.yul\":6461:6466   */\n  0x00\n    /* \"#utility.yul\":6510:6513   */\n  dup3\n    /* \"#utility.yul\":6503:6507   */\n  0x1f\n    /* \"#utility.yul\":6495:6501   */\n  dup4\n    /* \"#utility.yul\":6491:6508   */\n  add\n    /* \"#utility.yul\":6487:6514   */\n  slt\n    /* \"#utility.yul\":6477:6599   */\n  tag_190\n  jumpi\n    /* \"#utility.yul\":6518:6597   */\n  tag_191\n  tag_60\n  jump\t// in\ntag_191:\n    /* \"#utility.yul\":6477:6599   */\ntag_190:\n    /* \"#utility.yul\":6628:6634   */\n  dup2\n    /* \"#utility.yul\":6622:6635   */\n  mload\n    /* \"#utility.yul\":6653:6768   */\n  tag_192\n    /* \"#utility.yul\":6764:6767   */\n  dup5\n    /* \"#utility.yul\":6756:6762   */\n  dup3\n    /* \"#utility.yul\":6749:6753   */\n  0x20\n    /* \"#utility.yul\":6741:6747   */\n  dup7\n    /* \"#utility.yul\":6737:6754   */\n  add\n    /* \"#utility.yul\":6653:6768   */\n  tag_78\n  jump\t// in\ntag_192:\n    /* \"#utility.yul\":6644:6768   */\n  swap2\n  pop\n    /* \"#utility.yul\":6467:6774   */\n  pop\n    /* \"#utility.yul\":6369:6774   */\n  swap3\n  swap2\n  pop\n  pop\n  jump\t// out\n    /* \"#utility.yul\":6780:8543   */\ntag_3:\n    /* \"#utility.yul\":6980:6986   */\n  0x00\n    /* \"#utility.yul\":6988:6994   */\n  0x00\n    /* \"#utility.yul\":6996:7002   */\n  0x00\n    /* \"#utility.yul\":7004:7010   */\n  0x00\n    /* \"#utility.yul\":7012:7018   */\n  0x00\n    /* \"#utility.yul\":7020:7026   */\n  0x00\n    /* \"#utility.yul\":7069:7072   */\n  0xc0\n    /* \"#utility.yul\":7057:7066   */\n  dup8\n    /* \"#utility.yul\":7048:7055   */\n  dup10\n    /* \"#utility.yul\":7044:7067   */\n  sub\n    /* \"#utility.yul\":7040:7073   */\n  slt\n    /* \"#utility.yul\":7037:7157   */\n  iszero\n  tag_194\n  jumpi\n    /* \"#utility.yul\":7076:7155   */\n  tag_195\n  tag_54\n  jump\t// in\ntag_195:\n    /* \"#utility.yul\":7037:7157   */\ntag_194:\n    /* \"#utility.yul\":7196:7197   */\n  0x00\n    /* \"#utility.yul\":7221:7285   */\n  tag_196\n    /* \"#utility.yul\":7277:7284   */\n  dup10\n    /* \"#utility.yul\":7268:7274   */\n  dup3\n    /* \"#utility.yul\":7257:7266   */\n  dup11\n    /* \"#utility.yul\":7253:7275   */\n  add\n    /* \"#utility.yul\":7221:7285   */\n  tag_59\n  jump\t// in\ntag_196:\n    /* \"#utility.yul\":7211:7285   */\n  swap7\n  pop\n    /* \"#utility.yul\":7167:7295   */\n  pop\n    /* \"#utility.yul\":7334:7336   */\n  0x20\n    /* \"#utility.yul\":7360:7424   */\n  tag_197\n    /* \"#utility.yul\":7416:7423   */\n  dup10\n    /* \"#utility.yul\":7407:7413   */\n  dup3\n    /* \"#utility.yul\":7396:7405   */\n  dup11\n    /* \"#utility.yul\":7392:7414   */\n  add\n    /* \"#utility.yul\":7360:7424   */\n  tag_59\n  jump\t// in\ntag_197:\n    /* \"#utility.yul\":7350:7424   */\n  swap6\n  pop\n    /* \"#utility.yul\":7305:7434   */\n  pop\n    /* \"#utility.yul\":7473:7475   */\n  0x40\n    /* \"#utility.yul\":7499:7563   */\n  tag_198\n    /* \"#utility.yul\":7555:7562   */\n  dup10\n    /* \"#utility.yul\":7546:7552   */\n  dup3\n    /* \"#utility.yul\":7535:7544   */\n  dup11\n    /* \"#utility.yul\":7531:7553   */\n  add\n    /* \"#utility.yul\":7499:7563   */\n  tag_59\n  jump\t// in\ntag_198:\n    /* \"#utility.yul\":7489:7563   */\n  swap5\n  pop\n    /* \"#utility.yul\":7444:7573   */\n  pop\n    /* \"#utility.yul\":7633:7635   */\n  0x60\n    /* \"#utility.yul\":7622:7631   */\n  dup8\n    /* \"#utility.yul\":7618:7636   */\n  add\n    /* \"#utility.yul\":7612:7637   */\n  mload\n    /* \"#utility.yul\":7664:7682   */\n  0xffffffffffffffff\n    /* \"#utility.yul\":7656:7662   */\n  dup2\n    /* \"#utility.yul\":7653:7683   */\n  gt\n    /* \"#utility.yul\":7650:7767   */\n  iszero\n  tag_199\n  jumpi\n    /* \"#utility.yul\":7686:7765   */\n  tag_200\n  tag_55\n  jump\t// in\ntag_200:\n    /* \"#utility.yul\":7650:7767   */\ntag_199:\n    /* \"#utility.yul\":7791:7880   */\n  tag_201\n    /* \"#utility.yul\":7872:7879   */\n  dup10\n    /* \"#utility.yul\":7863:7869   */\n  dup3\n    /* \"#utility.yul\":7852:7861   */\n  dup11\n    /* \"#utility.yul\":7848:7870   */\n  add\n    /* \"#utility.yul\":7791:7880   */\n  tag_71\n  jump\t// in\ntag_201:\n    /* \"#utility.yul\":7781:7880   */\n  swap4\n  pop\n    /* \"#utility.yul\":7583:7890   */\n  pop\n    /* \"#utility.yul\":7950:7953   */\n  0x80\n    /* \"#utility.yul\":7939:7948   */\n  dup8\n    /* \"#utility.yul\":7935:7954   */\n  add\n    /* \"#utility.yul\":7929:7955   */\n  mload\n    /* \"#utility.yul\":7982:8000   */\n  0xffffffffffffffff\n    /* \"#utility.yul\":7974:7980   */\n  dup2\n    /* \"#utility.yul\":7971:8001   */\n  gt\n    /* \"#utility.yul\":7968:8085   */\n  iszero\n  tag_202\n  jumpi\n    /* \"#utility.yul\":8004:8083   */\n  tag_203\n  tag_55\n  jump\t// in\ntag_203:\n    /* \"#utility.yul\":7968:8085   */\ntag_202:\n    /* \"#utility.yul\":8109:8198   */\n  tag_204\n    /* \"#utility.yul\":8190:8197   */\n  dup10\n    /* \"#utility.yul\":8181:8187   */\n  dup3\n    /* \"#utility.yul\":8170:8179   */\n  dup11\n    /* \"#utility.yul\":8166:8188   */\n  add\n    /* \"#utility.yul\":8109:8198   */\n  tag_71\n  jump\t// in\ntag_204:\n    /* \"#utility.yul\":8099:8198   */\n  swap3\n  pop\n    /* \"#utility.yul\":7900:8208   */\n  pop\n    /* \"#utility.yul\":8268:8271   */\n  0xa0\n    /* \"#utility.yul\":8257:8266   */\n  dup8\n    /* \"#utility.yul\":8253:8272   */\n  add\n    /* \"#utility.yul\":8247:8273   */\n  mload\n    /* \"#utility.yul\":8300:8318   */\n  0xffffffffffffffff\n    /* \"#utility.yul\":8292:8298   */\n  dup2\n    /* \"#utility.yul\":8289:8319   */\n  gt\n    /* \"#utility.yul\":8286:8403   */\n  iszero\n  tag_205\n  jumpi\n    /* \"#utility.yul\":8322:8401   */\n  tag_206\n  tag_55\n  jump\t// in\ntag_206:\n    /* \"#utility.yul\":8286:8403   */\ntag_205:\n    /* \"#utility.yul\":8427:8526   */\n  tag_207\n    /* \"#utility.yul\":8518:8525   */\n  dup10\n    /* \"#utility.yul\":8509:8515   */\n  dup3\n    /* \"#utility.yul\":8498:8507   */\n  dup11\n    /* \"#utility.yul\":8494:8516   */\n  add\n    /* \"#utility.yul\":8427:8526   */\n  tag_79\n  jump\t// in\ntag_207:\n    /* \"#utility.yul\":8417:8526   */\n  swap2\n  pop\n    /* \"#utility.yul\":8218:8536   */\n  pop\n    /* \"#utility.yul\":6780:8543   */\n  swap3\n  swap6\n  pop\n  swap3\n  swap6\n  pop\n  swap3\n  swap6\n  jump\t// out\n    /* \"#utility.yul\":8549:8718   */\ntag_80:\n    /* \"#utility.yul\":8633:8644   */\n  0x00\n    /* \"#utility.yul\":8667:8673   */\n  dup3\n    /* \"#utility.yul\":8662:8665   */\n  dup3\n    /* \"#utility.yul\":8655:8674   */\n  mstore\n    /* \"#utility.yul\":8707:8711   */\n  0x20\n    /* \"#utility.yul\":8702:8705   */\n  dup3\n    /* \"#utility.yul\":8698:8712   */\n  add\n    /* \"#utility.yul\":8683:8712   */\n  swap1\n  pop\n    /* \"#utility.yul\":8549:8718   */\n  swap3\n  swap2\n  pop\n  pop\n  jump\t// out\n    /* \"#utility.yul\":8724:8888   */\ntag_81:\n    /* \"#utility.yul\":8864:8880   */\n  0x496e76616c69642066756e646572000000000000000000000000000000000000\n    /* \"#utility.yul\":8860:8861   */\n  0x00\n    /* \"#utility.yul\":8852:8858   */\n  dup3\n    /* \"#utility.yul\":8848:8862   */\n  add\n    /* \"#utility.yul\":8841:8881   */\n  mstore\n    /* \"#utility.yul\":8724:8888   */\n  pop\n  jump\t// out\n    /* \"#utility.yul\":8894:9260   */\ntag_82:\n    /* \"#utility.yul\":9036:9039   */\n  0x00\n    /* \"#utility.yul\":9057:9124   */\n  tag_211\n    /* \"#utility.yul\":9121:9123   */\n  0x0e\n    /* \"#utility.yul\":9116:9119   */\n  dup4\n    /* \"#utility.yul\":9057:9124   */\n  tag_80\n  jump\t// in\ntag_211:\n    /* \"#utility.yul\":9050:9124   */\n  swap2\n  pop\n    /* \"#utility.yul\":9133:9226   */\n  tag_212\n    /* \"#utility.yul\":9222:9225   */\n  dup3\n    /* \"#utility.yul\":9133:9226   */\n  tag_81\n  jump\t// in\ntag_212:\n    /* \"#utility.yul\":9251:9253   */\n  0x20\n    /* \"#utility.yul\":9246:9249   */\n  dup3\n    /* \"#utility.yul\":9242:9254   */\n  add\n    /* \"#utility.yul\":9235:9254   */\n  swap1\n  pop\n    /* \"#utility.yul\":8894:9260   */\n  swap2\n  swap1\n  pop\n  jump\t// out\n    /* \"#utility.yul\":9266:9685   */\ntag_10:\n    /* \"#utility.yul\":9432:9436   */\n  0x00\n    /* \"#utility.yul\":9470:9472   */\n  0x20\n    /* \"#utility.yul\":9459:9468   */\n  dup3\n    /* \"#utility.yul\":9455:9473   */\n  add\n    /* \"#utility.yul\":9447:9473   */\n  swap1\n  pop\n    /* \"#utility.yul\":9519:9528   */\n  dup2\n    /* \"#utility.yul\":9513:9517   */\n  dup2\n    /* \"#utility.yul\":9509:9529   */\n  sub\n    /* \"#utility.yul\":9505:9506   */\n  0x00\n    /* \"#utility.yul\":9494:9503   */\n  dup4\n    /* \"#utility.yul\":9490:9507   */\n  add\n    /* \"#utility.yul\":9483:9530   */\n  mstore\n    /* \"#utility.yul\":9547:9678   */\n  tag_214\n    /* \"#utility.yul\":9673:9677   */\n  dup2\n    /* \"#utility.yul\":9547:9678   */\n  tag_82\n  jump\t// in\ntag_214:\n    /* \"#utility.yul\":9539:9678   */\n  swap1\n  pop\n    /* \"#utility.yul\":9266:9685   */\n  swap2\n  swap1\n  pop\n  jump\t// out\n    /* \"#utility.yul\":9691:9858   */\ntag_83:\n    /* \"#utility.yul\":9831:9850   */\n  0x496e76616c696420646576656c6f706572000000000000000000000000000000\n    /* \"#utility.yul\":9827:9828   */\n  0x00\n    /* \"#utility.yul\":9819:9825   */\n  dup3\n    /* \"#utility.yul\":9815:9829   */\n  add\n    /* \"#utility.yul\":9808:9851   */\n  mstore\n    /* \"#utility.yul\":9691:9858   */\n  pop\n  jump\t// out\n    /* \"#utility.yul\":9864:10230   */\ntag_84:\n    /* \"#utility.yul\":10006:10009   */\n  0x00\n    /* \"#utility.yul\":10027:10094   */\n  tag_217\n    /* \"#utility.yul\":10091:10093   */\n  0x11\n    /* \"#utility.yul\":10086:10089   */\n  dup4\n    /* \"#utility.yul\":10027:10094   */\n  tag_80\n  jump\t// in\ntag_217:\n    /* \"#utility.yul\":10020:10094   */\n  swap2\n  pop\n    /* \"#utility.yul\":10103:10196   */\n  tag_218\n    /* \"#utility.yul\":10192:10195   */\n  dup3\n    /* \"#utility.yul\":10103:10196   */\n  tag_83\n  jump\t// in\ntag_218:\n    /* \"#utility.yul\":10221:10223   */\n  0x20\n    /* \"#utility.yul\":10216:10219   */\n  dup3\n    /* \"#utility.yul\":10212:10224   */\n  add\n    /* \"#utility.yul\":10205:10224   */\n  swap1\n  pop\n    /* \"#utility.yul\":9864:10230   */\n  swap2\n  swap1\n  pop\n  jump\t// out\n    /* \"#utility.yul\":10236:10655   */\ntag_13:\n    /* \"#utility.yul\":10402:10406   */\n  0x00\n    /* \"#utility.yul\":10440:10442   */\n  0x20\n    /* \"#utility.yul\":10429:10438   */\n  dup3\n    /* \"#utility.yul\":10425:10443   */\n  add\n    /* \"#utility.yul\":10417:10443   */\n  swap1\n  pop\n    /* \"#utility.yul\":10489:10498   */\n  dup2\n    /* \"#utility.yul\":10483:10487   */\n  dup2\n    /* \"#utility.yul\":10479:10499   */\n  sub\n    /* \"#utility.yul\":10475:10476   */\n  0x00\n    /* \"#utility.yul\":10464:10473   */\n  dup4\n    /* \"#utility.yul\":10460:10477   */\n  add\n    /* \"#utility.yul\":10453:10500   */\n  mstore\n    /* \"#utility.yul\":10517:10648   */\n  tag_220\n    /* \"#utility.yul\":10643:10647   */\n  dup2\n    /* \"#utility.yul\":10517:10648   */\n  tag_84\n  jump\t// in\ntag_220:\n    /* \"#utility.yul\":10509:10648   */\n  swap1\n  pop\n    /* \"#utility.yul\":10236:10655   */\n  swap2\n  swap1\n  pop\n  jump\t// out\n    /* \"#utility.yul\":10661:10824   */\ntag_85:\n    /* \"#utility.yul\":10801:10816   */\n  0x496e76616c696420746f6b656e00000000000000000000000000000000000000\n    /* \"#utility.yul\":10797:10798   */\n  0x00\n    /* \"#utility.yul\":10789:10795   */\n  dup3\n    /* \"#utility.yul\":10785:10799   */\n  add\n    /* \"#utility.yul\":10778:10817   */\n  mstore\n    /* \"#utility.yul\":10661:10824   */\n  pop\n  jump\t// out\n    /* \"#utility.yul\":10830:11196   */\ntag_86:\n    /* \"#utility.yul\":10972:10975   */\n  0x00\n    /* \"#utility.yul\":10993:11060   */\n  tag_223\n    /* \"#utility.yul\":11057:11059   */\n  0x0d\n    /* \"#utility.yul\":11052:11055   */\n  dup4\n    /* \"#utility.yul\":10993:11060   */\n  tag_80\n  jump\t// in\ntag_223:\n    /* \"#utility.yul\":10986:11060   */\n  swap2\n  pop\n    /* \"#utility.yul\":11069:11162   */\n  tag_224\n    /* \"#utility.yul\":11158:11161   */\n  dup3\n    /* \"#utility.yul\":11069:11162   */\n  tag_85\n  jump\t// in\ntag_224:\n    /* \"#utility.yul\":11187:11189   */\n  0x20\n    /* \"#utility.yul\":11182:11185   */\n  dup3\n    /* \"#utility.yul\":11178:11190   */\n  add\n    /* \"#utility.yul\":11171:11190   */\n  swap1\n  pop\n    /* \"#utility.yul\":10830:11196   */\n  swap2\n  swap1\n  pop\n  jump\t// out\n    /* \"#utility.yul\":11202:11621   */\ntag_16:\n    /* \"#utility.yul\":11368:11372   */\n  0x00\n    /* \"#utility.yul\":11406:11408   */\n  0x20\n    /* \"#utility.yul\":11395:11404   */\n  dup3\n    /* \"#utility.yul\":11391:11409   */\n  add\n    /* \"#utility.yul\":11383:11409   */\n  swap1\n  pop\n    /* \"#utility.yul\":11455:11464   */\n  dup2\n    /* \"#utility.yul\":11449:11453   */\n  dup2\n    /* \"#utility.yul\":11445:11465   */\n  sub\n    /* \"#utility.yul\":11441:11442   */\n  0x00\n    /* \"#utility.yul\":11430:11439   */\n  dup4\n    /* \"#utility.yul\":11426:11443   */\n  add\n    /* \"#utility.yul\":11419:11466   */\n  mstore\n    /* \"#utility.yul\":11483:11614   */\n  tag_226\n    /* \"#utility.yul\":11609:11613   */\n  dup2\n    /* \"#utility.yul\":11483:11614   */\n  tag_86\n  jump\t// in\ntag_226:\n    /* \"#utility.yul\":11475:11614   */\n  swap1\n  pop\n    /* \"#utility.yul\":11202:11621   */\n  swap2\n  swap1\n  pop\n  jump\t// out\n    /* \"#utility.yul\":11627:11803   */\ntag_87:\n    /* \"#utility.yul\":11767:11795   */\n  0x46756e6465722063616e6e6f7420626520646576656c6f706572000000000000\n    /* \"#utility.yul\":11763:11764   */\n  0x00\n    /* \"#utility.yul\":11755:11761   */\n  dup3\n    /* \"#utility.yul\":11751:11765   */\n  add\n    /* \"#utility.yul\":11744:11796   */\n  mstore\n    /* \"#utility.yul\":11627:11803   */\n  pop\n  jump\t// out\n    /* \"#utility.yul\":11809:12175   */\ntag_88:\n    /* \"#utility.yul\":11951:11954   */\n  0x00\n    /* \"#utility.yul\":11972:12039   */\n  tag_229\n    /* \"#utility.yul\":12036:12038   */\n  0x1a\n    /* \"#utility.yul\":12031:12034   */\n  dup4\n    /* \"#utility.yul\":11972:12039   */\n  tag_80\n  jump\t// in\ntag_229:\n    /* \"#utility.yul\":11965:12039   */\n  swap2\n  pop\n    /* \"#utility.yul\":12048:12141   */\n  tag_230\n    /* \"#utility.yul\":12137:12140   */\n  dup3\n    /* \"#utility.yul\":12048:12141   */\n  tag_87\n  jump\t// in\ntag_230:\n    /* \"#utility.yul\":12166:12168   */\n  0x20\n    /* \"#utility.yul\":12161:12164   */\n  dup3\n    /* \"#utility.yul\":12157:12169   */\n  add\n    /* \"#utility.yul\":12150:12169   */\n  swap1\n  pop\n    /* \"#utility.yul\":11809:12175   */\n  swap2\n  swap1\n  pop\n  jump\t// out\n    /* \"#utility.yul\":12181:12600   */\ntag_19:\n    /* \"#utility.yul\":12347:12351   */\n  0x00\n    /* \"#utility.yul\":12385:12387   */\n  0x20\n    /* \"#utility.yul\":12374:12383   */\n  dup3\n    /* \"#utility.yul\":12370:12388   */\n  add\n    /* \"#utility.yul\":12362:12388   */\n  swap1\n  pop\n    /* \"#utility.yul\":12434:12443   */\n  dup2\n    /* \"#utility.yul\":12428:12432   */\n  dup2\n    /* \"#utility.yul\":12424:12444   */\n  sub\n    /* \"#utility.yul\":12420:12421   */\n  0x00\n    /* \"#utility.yul\":12409:12418   */\n  dup4\n    /* \"#utility.yul\":12405:12422   */\n  add\n    /* \"#utility.yul\":12398:12445   */\n  mstore\n    /* \"#utility.yul\":12462:12593   */\n  tag_232\n    /* \"#utility.yul\":12588:12592   */\n  dup2\n    /* \"#utility.yul\":12462:12593   */\n  tag_88\n  jump\t// in\ntag_232:\n    /* \"#utility.yul\":12454:12593   */\n  swap1\n  pop\n    /* \"#utility.yul\":12181:12600   */\n  swap2\n  swap1\n  pop\n  jump\t// out\n    /* \"#utility.yul\":12606:12769   */\ntag_89:\n    /* \"#utility.yul\":12746:12761   */\n  0x4e6f206d696c6573746f6e657300000000000000000000000000000000000000\n    /* \"#utility.yul\":12742:12743   */\n  0x00\n    /* \"#utility.yul\":12734:12740   */\n  dup3\n    /* \"#utility.yul\":12730:12744   */\n  add\n    /* \"#utility.yul\":12723:12762   */\n  mstore\n    /* \"#utility.yul\":12606:12769   */\n  pop\n  jump\t// out\n    /* \"#utility.yul\":12775:13141   */\ntag_90:\n    /* \"#utility.yul\":12917:12920   */\n  0x00\n    /* \"#utility.yul\":12938:13005   */\n  tag_235\n    /* \"#utility.yul\":13002:13004   */\n  0x0d\n    /* \"#utility.yul\":12997:13000   */\n  dup4\n    /* \"#utility.yul\":12938:13005   */\n  tag_80\n  jump\t// in\ntag_235:\n    /* \"#utility.yul\":12931:13005   */\n  swap2\n  pop\n    /* \"#utility.yul\":13014:13107   */\n  tag_236\n    /* \"#utility.yul\":13103:13106   */\n  dup3\n    /* \"#utility.yul\":13014:13107   */\n  tag_89\n  jump\t// in\ntag_236:\n    /* \"#utility.yul\":13132:13134   */\n  0x20\n    /* \"#utility.yul\":13127:13130   */\n  dup3\n    /* \"#utility.yul\":13123:13135   */\n  add\n    /* \"#utility.yul\":13116:13135   */\n  swap1\n  pop\n    /* \"#utility.yul\":12775:13141   */\n  swap2\n  swap1\n  pop\n  jump\t// out\n    /* \"#utility.yul\":13147:13566   */\ntag_22:\n    /* \"#utility.yul\":13313:13317   */\n  0x00\n    /* \"#utility.yul\":13351:13353   */\n  0x20\n    /* \"#utility.yul\":13340:13349   */\n  dup3\n    /* \"#utility.yul\":13336:13354   */\n  add\n    /* \"#utility.yul\":13328:13354   */\n  swap1\n  pop\n    /* \"#utility.yul\":13400:13409   */\n  dup2\n    /* \"#utility.yul\":13394:13398   */\n  dup2\n    /* \"#utility.yul\":13390:13410   */\n  sub\n    /* \"#utility.yul\":13386:13387   */\n  0x00\n    /* \"#utility.yul\":13375:13384   */\n  dup4\n    /* \"#utility.yul\":13371:13388   */\n  add\n    /* \"#utility.yul\":13364:13411   */\n  mstore\n    /* \"#utility.yul\":13428:13559   */\n  tag_238\n    /* \"#utility.yul\":13554:13558   */\n  dup2\n    /* \"#utility.yul\":13428:13559   */\n  tag_90\n  jump\t// in\ntag_238:\n    /* \"#utility.yul\":13420:13559   */\n  swap1\n  pop\n    /* \"#utility.yul\":13147:13566   */\n  swap2\n  swap1\n  pop\n  jump\t// out\n    /* \"#utility.yul\":13572:13746   */\ntag_91:\n    /* \"#utility.yul\":13712:13738   */\n  0x496e76616c6964206d696c6573746f6e65206172726179730000000000000000\n    /* \"#utility.yul\":13708:13709   */\n  0x00\n    /* \"#utility.yul\":13700:13706   */\n  dup3\n    /* \"#utility.yul\":13696:13710   */\n  add\n    /* \"#utility.yul\":13689:13739   */\n  mstore\n    /* \"#utility.yul\":13572:13746   */\n  pop\n  jump\t// out\n    /* \"#utility.yul\":13752:14118   */\ntag_92:\n    /* \"#utility.yul\":13894:13897   */\n  0x00\n    /* \"#utility.yul\":13915:13982   */\n  tag_241\n    /* \"#utility.yul\":13979:13981   */\n  0x18\n    /* \"#utility.yul\":13974:13977   */\n  dup4\n    /* \"#utility.yul\":13915:13982   */\n  tag_80\n  jump\t// in\ntag_241:\n    /* \"#utility.yul\":13908:13982   */\n  swap2\n  pop\n    /* \"#utility.yul\":13991:14084   */\n  tag_242\n    /* \"#utility.yul\":14080:14083   */\n  dup3\n    /* \"#utility.yul\":13991:14084   */\n  tag_91\n  jump\t// in\ntag_242:\n    /* \"#utility.yul\":14109:14111   */\n  0x20\n    /* \"#utility.yul\":14104:14107   */\n  dup3\n    /* \"#utility.yul\":14100:14112   */\n  add\n    /* \"#utility.yul\":14093:14112   */\n  swap1\n  pop\n    /* \"#utility.yul\":13752:14118   */\n  swap2\n  swap1\n  pop\n  jump\t// out\n    /* \"#utility.yul\":14124:14543   */\ntag_26:\n    /* \"#utility.yul\":14290:14294   */\n  0x00\n    /* \"#utility.yul\":14328:14330   */\n  0x20\n    /* \"#utility.yul\":14317:14326   */\n  dup3\n    /* \"#utility.yul\":14313:14331   */\n  add\n    /* \"#utility.yul\":14305:14331   */\n  swap1\n  pop\n    /* \"#utility.yul\":14377:14386   */\n  dup2\n    /* \"#utility.yul\":14371:14375   */\n  dup2\n    /* \"#utility.yul\":14367:14387   */\n  sub\n    /* \"#utility.yul\":14363:14364   */\n  0x00\n    /* \"#utility.yul\":14352:14361   */\n  dup4\n    /* \"#utility.yul\":14348:14365   */\n  add\n    /* \"#utility.yul\":14341:14388   */\n  mstore\n    /* \"#utility.yul\":14405:14536   */\n  tag_244\n    /* \"#utility.yul\":14531:14535   */\n  dup2\n    /* \"#utility.yul\":14405:14536   */\n  tag_92\n  jump\t// in\ntag_244:\n    /* \"#utility.yul\":14397:14536   */\n  swap1\n  pop\n    /* \"#utility.yul\":14124:14543   */\n  swap2\n  swap1\n  pop\n  jump\t// out\n    /* \"#utility.yul\":14549:14729   */\ntag_32:\n    /* \"#utility.yul\":14597:14674   */\n  0x4e487b7100000000000000000000000000000000000000000000000000000000\n    /* \"#utility.yul\":14594:14595   */\n  0x00\n    /* \"#utility.yul\":14587:14675   */\n  mstore\n    /* \"#utility.yul\":14694:14698   */\n  0x32\n    /* \"#utility.yul\":14691:14692   */\n  0x04\n    /* \"#utility.yul\":14684:14699   */\n  mstore\n    /* \"#utility.yul\":14718:14722   */\n  0x24\n    /* \"#utility.yul\":14715:14716   */\n  0x00\n    /* \"#utility.yul\":14708:14723   */\n  revert\n    /* \"#utility.yul\":14735:14906   */\ntag_93:\n    /* \"#utility.yul\":14875:14898   */\n  0x5a65726f206d696c6573746f6e6520616d6f756e740000000000000000000000\n    /* \"#utility.yul\":14871:14872   */\n  0x00\n    /* \"#utility.yul\":14863:14869   */\n  dup3\n    /* \"#utility.yul\":14859:14873   */\n  add\n    /* \"#utility.yul\":14852:14899   */\n  mstore\n    /* \"#utility.yul\":14735:14906   */\n  pop\n  jump\t// out\n    /* \"#utility.yul\":14912:15278   */\ntag_94:\n    /* \"#utility.yul\":15054:15057   */\n  0x00\n    /* \"#utility.yul\":15075:15142   */\n  tag_248\n    /* \"#utility.yul\":15139:15141   */\n  0x15\n    /* \"#utility.yul\":15134:15137   */\n  dup4\n    /* \"#utility.yul\":15075:15142   */\n  tag_80\n  jump\t// in\ntag_248:\n    /* \"#utility.yul\":15068:15142   */\n  swap2\n  pop\n    /* \"#utility.yul\":15151:15244   */\n  tag_249\n    /* \"#utility.yul\":15240:15243   */\n  dup3\n    /* \"#utility.yul\":15151:15244   */\n  tag_93\n  jump\t// in\ntag_249:\n    /* \"#utility.yul\":15269:15271   */\n  0x20\n    /* \"#utility.yul\":15264:15267   */\n  dup3\n    /* \"#utility.yul\":15260:15272   */\n  add\n    /* \"#utility.yul\":15253:15272   */\n  swap1\n  pop\n    /* \"#utility.yul\":14912:15278   */\n  swap2\n  swap1\n  pop\n  jump\t// out\n    /* \"#utility.yul\":15284:15703   */\ntag_35:\n    /* \"#utility.yul\":15450:15454   */\n  0x00\n    /* \"#utility.yul\":15488:15490   */\n  0x20\n    /* \"#utility.yul\":15477:15486   */\n  dup3\n    /* \"#utility.yul\":15473:15491   */\n  add\n    /* \"#utility.yul\":15465:15491   */\n  swap1\n  pop\n    /* \"#utility.yul\":15537:15546   */\n  dup2\n    /* \"#utility.yul\":15531:15535   */\n  dup2\n    /* \"#utility.yul\":15527:15547   */\n  sub\n    /* \"#utility.yul\":15523:15524   */\n  0x00\n    /* \"#utility.yul\":15512:15521   */\n  dup4\n    /* \"#utility.yul\":15508:15525   */\n  add\n    /* \"#utility.yul\":15501:15548   */\n  mstore\n    /* \"#utility.yul\":15565:15696   */\n  tag_251\n    /* \"#utility.yul\":15691:15695   */\n  dup2\n    /* \"#utility.yul\":15565:15696   */\n  tag_94\n  jump\t// in\ntag_251:\n    /* \"#utility.yul\":15557:15696   */\n  swap1\n  pop\n    /* \"#utility.yul\":15284:15703   */\n  swap2\n  swap1\n  pop\n  jump\t// out\n    /* \"#utility.yul\":15709:15808   */\ntag_95:\n    /* \"#utility.yul\":15761:15767   */\n  0x00\n    /* \"#utility.yul\":15795:15800   */\n  dup2\n    /* \"#utility.yul\":15789:15801   */\n  mload\n    /* \"#utility.yul\":15779:15801   */\n  swap1\n  pop\n    /* \"#utility.yul\":15709:15808   */\n  swap2\n  swap1\n  pop\n  jump\t// out\n    /* \"#utility.yul\":15814:15994   */\ntag_96:\n    /* \"#utility.yul\":15862:15939   */\n  0x4e487b7100000000000000000000000000000000000000000000000000000000\n    /* \"#utility.yul\":15859:15860   */\n  0x00\n    /* \"#utility.yul\":15852:15940   */\n  mstore\n    /* \"#utility.yul\":15959:15963   */\n  0x22\n    /* \"#utility.yul\":15956:15957   */\n  0x04\n    /* \"#utility.yul\":15949:15964   */\n  mstore\n    /* \"#utility.yul\":15983:15987   */\n  0x24\n    /* \"#utility.yul\":15980:15981   */\n  0x00\n    /* \"#utility.yul\":15973:15988   */\n  revert\n    /* \"#utility.yul\":16000:16320   */\ntag_97:\n    /* \"#utility.yul\":16044:16050   */\n  0x00\n    /* \"#utility.yul\":16081:16082   */\n  0x02\n    /* \"#utility.yul\":16075:16079   */\n  dup3\n    /* \"#utility.yul\":16071:16083   */\n  div\n    /* \"#utility.yul\":16061:16083   */\n  swap1\n  pop\n    /* \"#utility.yul\":16128:16129   */\n  0x01\n    /* \"#utility.yul\":16122:16126   */\n  dup3\n    /* \"#utility.yul\":16118:16130   */\n  and\n    /* \"#utility.yul\":16149:16167   */\n  dup1\n    /* \"#utility.yul\":16139:16220   */\n  tag_255\n  jumpi\n    /* \"#utility.yul\":16205:16209   */\n  0x7f\n    /* \"#utility.yul\":16197:16203   */\n  dup3\n    /* \"#utility.yul\":16193:16210   */\n  and\n    /* \"#utility.yul\":16183:16210   */\n  swap2\n  pop\n    /* \"#utility.yul\":16139:16220   */\ntag_255:\n    /* \"#utility.yul\":16267:16269   */\n  0x20\n    /* \"#utility.yul\":16259:16265   */\n  dup3\n    /* \"#utility.yul\":16256:16270   */\n  lt\n    /* \"#utility.yul\":16236:16254   */\n  dup2\n    /* \"#utility.yul\":16233:16271   */\n  sub\n    /* \"#utility.yul\":16230:16314   */\n  tag_256\n  jumpi\n    /* \"#utility.yul\":16286:16304   */\n  tag_257\n  tag_96\n  jump\t// in\ntag_257:\n    /* \"#utility.yul\":16230:16314   */\ntag_256:\n    /* \"#utility.yul\":16051:16320   */\n  pop\n    /* \"#utility.yul\":16000:16320   */\n  swap2\n  swap1\n  pop\n  jump\t// out\n    /* \"#utility.yul\":16326:16467   */\ntag_98:\n    /* \"#utility.yul\":16375:16379   */\n  0x00\n    /* \"#utility.yul\":16398:16401   */\n  dup2\n    /* \"#utility.yul\":16390:16401   */\n  swap1\n  pop\n    /* \"#utility.yul\":16421:16424   */\n  dup2\n    /* \"#utility.yul\":16418:16419   */\n  0x00\n    /* \"#utility.yul\":16411:16425   */\n  mstore\n    /* \"#utility.yul\":16455:16459   */\n  0x20\n    /* \"#utility.yul\":16452:16453   */\n  0x00\n    /* \"#utility.yul\":16442:16460   */\n  keccak256\n    /* \"#utility.yul\":16434:16460   */\n  swap1\n  pop\n    /* \"#utility.yul\":16326:16467   */\n  swap2\n  swap1\n  pop\n  jump\t// out\n    /* \"#utility.yul\":16473:16566   */\ntag_99:\n    /* \"#utility.yul\":16510:16516   */\n  0x00\n    /* \"#utility.yul\":16557:16559   */\n  0x20\n    /* \"#utility.yul\":16552:16554   */\n  0x1f\n    /* \"#utility.yul\":16545:16550   */\n  dup4\n    /* \"#utility.yul\":16541:16555   */\n  add\n    /* \"#utility.yul\":16537:16560   */\n  div\n    /* \"#utility.yul\":16527:16560   */\n  swap1\n  pop\n    /* \"#utility.yul\":16473:16566   */\n  swap2\n  swap1\n  pop\n  jump\t// out\n    /* \"#utility.yul\":16572:16679   */\ntag_100:\n    /* \"#utility.yul\":16616:16624   */\n  0x00\n    /* \"#utility.yul\":16666:16671   */\n  dup3\n    /* \"#utility.yul\":16660:16664   */\n  dup3\n    /* \"#utility.yul\":16656:16672   */\n  shl\n    /* \"#utility.yul\":16635:16672   */\n  swap1\n  pop\n    /* \"#utility.yul\":16572:16679   */\n  swap3\n  swap2\n  pop\n  pop\n  jump\t// out\n    /* \"#utility.yul\":16685:17078   */\ntag_101:\n    /* \"#utility.yul\":16754:16760   */\n  0x00\n    /* \"#utility.yul\":16804:16805   */\n  0x08\n    /* \"#utility.yul\":16792:16802   */\n  dup4\n    /* \"#utility.yul\":16788:16806   */\n  mul\n    /* \"#utility.yul\":16827:16924   */\n  tag_262\n    /* \"#utility.yul\":16857:16923   */\n  0xffffffffffffffffffffffffffffffffffffffffffffffffffffffffffffffff\n    /* \"#utility.yul\":16846:16855   */\n  dup3\n    /* \"#utility.yul\":16827:16924   */\n  tag_100\n  jump\t// in\ntag_262:\n    /* \"#utility.yul\":16945:16984   */\n  tag_263\n    /* \"#utility.yul\":16975:16983   */\n  dup7\n    /* \"#utility.yul\":16964:16973   */\n  dup4\n    /* \"#utility.yul\":16945:16984   */\n  tag_100\n  jump\t// in\ntag_263:\n    /* \"#utility.yul\":16933:16984   */\n  swap6\n  pop\n    /* \"#utility.yul\":17017:17021   */\n  dup1\n    /* \"#utility.yul\":17013:17022   */\n  not\n    /* \"#utility.yul\":17006:17011   */\n  dup5\n    /* \"#utility.yul\":17002:17023   */\n  and\n    /* \"#utility.yul\":16993:17023   */\n  swap4\n  pop\n    /* \"#utility.yul\":17066:17070   */\n  dup1\n    /* \"#utility.yul\":17056:17064   */\n  dup7\n    /* \"#utility.yul\":17052:17071   */\n  and\n    /* \"#utility.yul\":17045:17050   */\n  dup5\n    /* \"#utility.yul\":17042:17072   */\n  or\n    /* \"#utility.yul\":17032:17072   */\n  swap3\n  pop\n    /* \"#utility.yul\":16761:17078   */\n  pop\n  pop\n    /* \"#utility.yul\":16685:17078   */\n  swap4\n  swap3\n  pop\n  pop\n  pop\n  jump\t// out\n    /* \"#utility.yul\":17084:17144   */\ntag_102:\n    /* \"#utility.yul\":17112:17115   */\n  0x00\n    /* \"#utility.yul\":17133:17138   */\n  dup2\n    /* \"#utility.yul\":17126:17138   */\n  swap1\n  pop\n    /* \"#utility.yul\":17084:17144   */\n  swap2\n  swap1\n  pop\n  jump\t// out\n    /* \"#utility.yul\":17150:17292   */\ntag_103:\n    /* \"#utility.yul\":17200:17209   */\n  0x00\n    /* \"#utility.yul\":17233:17286   */\n  tag_266\n    /* \"#utility.yul\":17251:17285   */\n  tag_267\n    /* \"#utility.yul\":17260:17284   */\n  tag_268\n    /* \"#utility.yul\":17278:17283   */\n  dup5\n    /* \"#utility.yul\":17260:17284   */\n  tag_67\n  jump\t// in\ntag_268:\n    /* \"#utility.yul\":17251:17285   */\n  tag_102\n  jump\t// in\ntag_267:\n    /* \"#utility.yul\":17233:17286   */\n  tag_67\n  jump\t// in\ntag_266:\n    /* \"#utility.yul\":17220:17286   */\n  swap1\n  pop\n    /* \"#utility.yul\":17150:17292   */\n  swap2\n  swap1\n  pop\n  jump\t// out\n    /* \"#utility.yul\":17298:17373   */\ntag_104:\n    /* \"#utility.yul\":17341:17344   */\n  0x00\n    /* \"#utility.yul\":17362:17367   */\n  dup2\n    /* \"#utility.yul\":17355:17367   */\n  swap1\n  pop\n    /* \"#utility.yul\":17298:17373   */\n  swap2\n  swap1\n  pop\n  jump\t// out\n    /* \"#utility.yul\":17379:17648   */\ntag_105:\n    /* \"#utility.yul\":17489:17528   */\n  tag_271\n    /* \"#utility.yul\":17520:17527   */\n  dup4\n    /* \"#utility.yul\":17489:17528   */\n  tag_103\n  jump\t// in\ntag_271:\n    /* \"#utility.yul\":17550:17641   */\n  tag_272\n    /* \"#utility.yul\":17599:17640   */\n  tag_273\n    /* \"#utility.yul\":17623:17639   */\n  dup3\n    /* \"#utility.yul\":17599:17640   */\n  tag_104\n  jump\t// in\ntag_273:\n    /* \"#utility.yul\":17591:17597   */\n  dup5\n    /* \"#utility.yul\":17584:17588   */\n  dup5\n    /* \"#utility.yul\":17578:17589   */\n  sload\n    /* \"#utility.yul\":17550:17641   */\n  tag_101\n  jump\t// in\ntag_272:\n    /* \"#utility.yul\":17544:17548   */\n  dup3\n    /* \"#utility.yul\":17537:17642   */\n  sstore\n    /* \"#utility.yul\":17455:17648   */\n  pop\n    /* \"#utility.yul\":17379:17648   */\n  pop\n  pop\n  pop\n  jump\t// out\n    /* \"#utility.yul\":17654:17727   */\ntag_106:\n    /* \"#utility.yul\":17699:17702   */\n  0x00\n    /* \"#utility.yul\":17720:17721   */\n  0x00\n    /* \"#utility.yul\":17713:17721   */\n  swap1\n  pop\n    /* \"#utility.yul\":17654:17727   */\n  swap1\n  jump\t// out\n    /* \"#utility.yul\":17733:17922   */\ntag_107:\n    /* \"#utility.yul\":17810:17842   */\n  tag_276\n  tag_106\n  jump\t// in\ntag_276:\n    /* \"#utility.yul\":17851:17916   */\n  tag_277\n    /* \"#utility.yul\":17909:17915   */\n  dup2\n    /* \"#utility.yul\":17901:17907   */\n  dup5\n    /* \"#utility.yul\":17895:17899   */\n  dup5\n    /* \"#utility.yul\":17851:17916   */\n  tag_105\n  jump\t// in\ntag_277:\n    /* \"#utility.yul\":17786:17922   */\n  pop\n    /* \"#utility.yul\":17733:17922   */\n  pop\n  pop\n  jump\t// out\n    /* \"#utility.yul\":17928:18114   */\ntag_108:\n    /* \"#utility.yul\":17988:18108   */\ntag_279:\n    /* \"#utility.yul\":18005:18008   */\n  dup2\n    /* \"#utility.yul\":17998:18003   */\n  dup2\n    /* \"#utility.yul\":17995:18009   */\n  lt\n    /* \"#utility.yul\":17988:18108   */\n  iszero\n  tag_281\n  jumpi\n    /* \"#utility.yul\":18059:18098   */\n  tag_282\n    /* \"#utility.yul\":18096:18097   */\n  0x00\n    /* \"#utility.yul\":18089:18094   */\n  dup3\n    /* \"#utility.yul\":18059:18098   */\n  tag_107\n  jump\t// in\ntag_282:\n    /* \"#utility.yul\":18032:18033   */\n  0x01\n    /* \"#utility.yul\":18025:18030   */\n  dup2\n    /* \"#utility.yul\":18021:18034   */\n  add\n    /* \"#utility.yul\":18012:18034   */\n  swap1\n  pop\n    /* \"#utility.yul\":17988:18108   */\n  jump(tag_279)\ntag_281:\n    /* \"#utility.yul\":17928:18114   */\n  pop\n  pop\n  jump\t// out\n    /* \"#utility.yul\":18120:18663   */\ntag_109:\n    /* \"#utility.yul\":18221:18223   */\n  0x1f\n    /* \"#utility.yul\":18216:18219   */\n  dup3\n    /* \"#utility.yul\":18213:18224   */\n  gt\n    /* \"#utility.yul\":18210:18656   */\n  iszero\n  tag_284\n  jumpi\n    /* \"#utility.yul\":18255:18293   */\n  tag_285\n    /* \"#utility.yul\":18287:18292   */\n  dup2\n    /* \"#utility.yul\":18255:18293   */\n  tag_98\n  jump\t// in\ntag_285:\n    /* \"#utility.yul\":18339:18368   */\n  tag_286\n    /* \"#utility.yul\":18357:18367   */\n  dup5\n    /* \"#utility.yul\":18339:18368   */\n  tag_99\n  jump\t// in\ntag_286:\n    /* \"#utility.yul\":18329:18337   */\n  dup2\n    /* \"#utility.yul\":18325:18369   */\n  add\n    /* \"#utility.yul\":18522:18524   */\n  0x20\n    /* \"#utility.yul\":18510:18520   */\n  dup6\n    /* \"#utility.yul\":18507:18525   */\n  lt\n    /* \"#utility.yul\":18504:18553   */\n  iszero\n  tag_287\n  jumpi\n    /* \"#utility.yul\":18543:18551   */\n  dup2\n    /* \"#utility.yul\":18528:18551   */\n  swap1\n  pop\n    /* \"#utility.yul\":18504:18553   */\ntag_287:\n    /* \"#utility.yul\":18566:18646   */\n  tag_288\n    /* \"#utility.yul\":18622:18644   */\n  tag_289\n    /* \"#utility.yul\":18640:18643   */\n  dup6\n    /* \"#utility.yul\":18622:18644   */\n  tag_99\n  jump\t// in\ntag_289:\n    /* \"#utility.yul\":18612:18620   */\n  dup4\n    /* \"#utility.yul\":18608:18645   */\n  add\n    /* \"#utility.yul\":18595:18606   */\n  dup3\n    /* \"#utility.yul\":18566:18646   */\n  tag_108\n  jump\t// in\ntag_288:\n    /* \"#utility.yul\":18225:18656   */\n  pop\n  pop\n    /* \"#utility.yul\":18210:18656   */\ntag_284:\n    /* \"#utility.yul\":18120:18663   */\n  pop\n  pop\n  pop\n  jump\t// out\n    /* \"#utility.yul\":18669:18786   */\ntag_110:\n    /* \"#utility.yul\":18723:18731   */\n  0x00\n    /* \"#utility.yul\":18773:18778   */\n  dup3\n    /* \"#utility.yul\":18767:18771   */\n  dup3\n    /* \"#utility.yul\":18763:18779   */\n  shr\n    /* \"#utility.yul\":18742:18779   */\n  swap1\n  pop\n    /* \"#utility.yul\":18669:18786   */\n  swap3\n  swap2\n  pop\n  pop\n  jump\t// out\n    /* \"#utility.yul\":18792:18961   */\ntag_111:\n    /* \"#utility.yul\":18836:18842   */\n  0x00\n    /* \"#utility.yul\":18869:18920   */\n  tag_292\n    /* \"#utility.yul\":18917:18918   */\n  0x00\n    /* \"#utility.yul\":18913:18919   */\n  not\n    /* \"#utility.yul\":18905:18910   */\n  dup5\n    /* \"#utility.yul\":18902:18903   */\n  0x08\n    /* \"#utility.yul\":18898:18911   */\n  mul\n    /* \"#utility.yul\":18869:18920   */\n  tag_110\n  jump\t// in\ntag_292:\n    /* \"#utility.yul\":18865:18921   */\n  not\n    /* \"#utility.yul\":18950:18954   */\n  dup1\n    /* \"#utility.yul\":18944:18948   */\n  dup4\n    /* \"#utility.yul\":18940:18955   */\n  and\n    /* \"#utility.yul\":18930:18955   */\n  swap2\n  pop\n    /* \"#utility.yul\":18843:18961   */\n  pop\n    /* \"#utility.yul\":18792:18961   */\n  swap3\n  swap2\n  pop\n  pop\n  jump\t// out\n    /* \"#utility.yul\":18966:19261   */\ntag_112:\n    /* \"#utility.yul\":19042:19046   */\n  0x00\n    /* \"#utility.yul\":19188:19217   */\n  tag_294\n    /* \"#utility.yul\":19213:19216   */\n  dup4\n    /* \"#utility.yul\":19207:19211   */\n  dup4\n    /* \"#utility.yul\":19188:19217   */\n  tag_111\n  jump\t// in\ntag_294:\n    /* \"#utility.yul\":19180:19217   */\n  swap2\n  pop\n    /* \"#utility.yul\":19250:19253   */\n  dup3\n    /* \"#utility.yul\":19247:19248   */\n  0x02\n    /* \"#utility.yul\":19243:19254   */\n  mul\n    /* \"#utility.yul\":19237:19241   */\n  dup3\n    /* \"#utility.yul\":19234:19255   */\n  or\n    /* \"#utility.yul\":19226:19255   */\n  swap1\n  pop\n    /* \"#utility.yul\":18966:19261   */\n  swap3\n  swap2\n  pop\n  pop\n  jump\t// out\n    /* \"#utility.yul\":19266:20661   */\ntag_44:\n    /* \"#utility.yul\":19383:19420   */\n  tag_296\n    /* \"#utility.yul\":19416:19419   */\n  dup3\n    /* \"#utility.yul\":19383:19420   */\n  tag_95\n  jump\t// in\ntag_296:\n    /* \"#utility.yul\":19485:19503   */\n  0xffffffffffffffff\n    /* \"#utility.yul\":19477:19483   */\n  dup2\n    /* \"#utility.yul\":19474:19504   */\n  gt\n    /* \"#utility.yul\":19471:19527   */\n  iszero\n  tag_297\n  jumpi\n    /* \"#utility.yul\":19507:19525   */\n  tag_298\n  tag_62\n  jump\t// in\ntag_298:\n    /* \"#utility.yul\":19471:19527   */\ntag_297:\n    /* \"#utility.yul\":19551:19589   */\n  tag_299\n    /* \"#utility.yul\":19583:19587   */\n  dup3\n    /* \"#utility.yul\":19577:19588   */\n  sload\n    /* \"#utility.yul\":19551:19589   */\n  tag_97\n  jump\t// in\ntag_299:\n    /* \"#utility.yul\":19636:19703   */\n  tag_300\n    /* \"#utility.yul\":19696:19702   */\n  dup3\n    /* \"#utility.yul\":19688:19694   */\n  dup3\n    /* \"#utility.yul\":19682:19686   */\n  dup6\n    /* \"#utility.yul\":19636:19703   */\n  tag_109\n  jump\t// in\ntag_300:\n    /* \"#utility.yul\":19730:19731   */\n  0x00\n    /* \"#utility.yul\":19754:19758   */\n  0x20\n    /* \"#utility.yul\":19741:19758   */\n  swap1\n  pop\n    /* \"#utility.yul\":19786:19788   */\n  0x1f\n    /* \"#utility.yul\":19778:19784   */\n  dup4\n    /* \"#utility.yul\":19775:19789   */\n  gt\n    /* \"#utility.yul\":19803:19804   */\n  0x01\n    /* \"#utility.yul\":19798:20416   */\n  dup2\n  eq\n  tag_302\n  jumpi\n    /* \"#utility.yul\":20460:20461   */\n  0x00\n    /* \"#utility.yul\":20477:20483   */\n  dup5\n    /* \"#utility.yul\":20474:20551   */\n  iszero\n  tag_303\n  jumpi\n    /* \"#utility.yul\":20526:20535   */\n  dup3\n    /* \"#utility.yul\":20521:20524   */\n  dup8\n    /* \"#utility.yul\":20517:20536   */\n  add\n    /* \"#utility.yul\":20511:20537   */\n  mload\n    /* \"#utility.yul\":20502:20537   */\n  swap1\n  pop\n    /* \"#utility.yul\":20474:20551   */\ntag_303:\n    /* \"#utility.yul\":20577:20644   */\n  tag_304\n    /* \"#utility.yul\":20637:20643   */\n  dup6\n    /* \"#utility.yul\":20630:20635   */\n  dup3\n    /* \"#utility.yul\":20577:20644   */\n  tag_112\n  jump\t// in\ntag_304:\n    /* \"#utility.yul\":20571:20575   */\n  dup7\n    /* \"#utility.yul\":20564:20645   */\n  sstore\n    /* \"#utility.yul\":20433:20655   */\n  pop\n    /* \"#utility.yul\":19768:20655   */\n  jump(tag_301)\n    /* \"#utility.yul\":19798:20416   */\ntag_302:\n    /* \"#utility.yul\":19850:19854   */\n  0x1f\n    /* \"#utility.yul\":19846:19855   */\n  not\n    /* \"#utility.yul\":19838:19844   */\n  dup5\n    /* \"#utility.yul\":19834:19856   */\n  and\n    /* \"#utility.yul\":19884:19921   */\n  tag_305\n    /* \"#utility.yul\":19916:19920   */\n  dup7\n    /* \"#utility.yul\":19884:19921   */\n  tag_98\n  jump\t// in\ntag_305:\n    /* \"#utility.yul\":19943:19944   */\n  0x00\n    /* \"#utility.yul\":19957:20165   */\ntag_306:\n    /* \"#utility.yul\":19971:19978   */\n  dup3\n    /* \"#utility.yul\":19968:19969   */\n  dup2\n    /* \"#utility.yul\":19965:19979   */\n  lt\n    /* \"#utility.yul\":19957:20165   */\n  iszero\n  tag_308\n  jumpi\n    /* \"#utility.yul\":20050:20059   */\n  dup5\n    /* \"#utility.yul\":20045:20048   */\n  dup10\n    /* \"#utility.yul\":20041:20060   */\n  add\n    /* \"#utility.yul\":20035:20061   */\n  mload\n    /* \"#utility.yul\":20027:20033   */\n  dup3\n    /* \"#utility.yul\":20020:20062   */\n  sstore\n    /* \"#utility.yul\":20101:20102   */\n  0x01\n    /* \"#utility.yul\":20093:20099   */\n  dup3\n    /* \"#utility.yul\":20089:20103   */\n  add\n    /* \"#utility.yul\":20079:20103   */\n  swap2\n  pop\n    /* \"#utility.yul\":20148:20150   */\n  0x20\n    /* \"#utility.yul\":20137:20146   */\n  dup6\n    /* \"#utility.yul\":20133:20151   */\n  add\n    /* \"#utility.yul\":20120:20151   */\n  swap5\n  pop\n    /* \"#utility.yul\":19994:19998   */\n  0x20\n    /* \"#utility.yul\":19991:19992   */\n  dup2\n    /* \"#utility.yul\":19987:19999   */\n  add\n    /* \"#utility.yul\":19982:19999   */\n  swap1\n  pop\n    /* \"#utility.yul\":19957:20165   */\n  jump(tag_306)\ntag_308:\n    /* \"#utility.yul\":20193:20199   */\n  dup7\n    /* \"#utility.yul\":20184:20191   */\n  dup4\n    /* \"#utility.yul\":20181:20200   */\n  lt\n    /* \"#utility.yul\":20178:20357   */\n  iszero\n  tag_309\n  jumpi\n    /* \"#utility.yul\":20251:20260   */\n  dup5\n    /* \"#utility.yul\":20246:20249   */\n  dup10\n    /* \"#utility.yul\":20242:20261   */\n  add\n    /* \"#utility.yul\":20236:20262   */\n  mload\n    /* \"#utility.yul\":20294:20342   */\n  tag_310\n    /* \"#utility.yul\":20336:20340   */\n  0x1f\n    /* \"#utility.yul\":20328:20334   */\n  dup10\n    /* \"#utility.yul\":20324:20341   */\n  and\n    /* \"#utility.yul\":20313:20322   */\n  dup3\n    /* \"#utility.yul\":20294:20342   */\n  tag_111\n  jump\t// in\ntag_310:\n    /* \"#utility.yul\":20286:20292   */\n  dup4\n    /* \"#utility.yul\":20279:20343   */\n  sstore\n    /* \"#utility.yul\":20201:20357   */\n  pop\n    /* \"#utility.yul\":20178:20357   */\ntag_309:\n    /* \"#utility.yul\":20403:20404   */\n  0x01\n    /* \"#utility.yul\":20399:20400   */\n  0x02\n    /* \"#utility.yul\":20391:20397   */\n  dup9\n    /* \"#utility.yul\":20387:20401   */\n  mul\n    /* \"#utility.yul\":20383:20405   */\n  add\n    /* \"#utility.yul\":20377:20381   */\n  dup9\n    /* \"#utility.yul\":20370:20406   */\n  sstore\n    /* \"#utility.yul\":19805:20416   */\n  pop\n  pop\n  pop\n    /* \"#utility.yul\":19768:20655   */\ntag_301:\n  pop\n    /* \"#utility.yul\":19358:20661   */\n  pop\n  pop\n  pop\n    /* \"#utility.yul\":19266:20661   */\n  pop\n  pop\n  jump\t// out\n    /* \"#utility.yul\":20667:20847   */\ntag_113:\n    /* \"#utility.yul\":20715:20792   */\n  0x4e487b7100000000000000000000000000000000000000000000000000000000\n    /* \"#utility.yul\":20712:20713   */\n  0x00\n    /* \"#utility.yul\":20705:20793   */\n  mstore\n    /* \"#utility.yul\":20812:20816   */\n  0x11\n    /* \"#utility.yul\":20809:20810   */\n  0x04\n    /* \"#utility.yul\":20802:20817   */\n  mstore\n    /* \"#utility.yul\":20836:20840   */\n  0x24\n    /* \"#utility.yul\":20833:20834   */\n  0x00\n    /* \"#utility.yul\":20826:20841   */\n  revert\n    /* \"#utility.yul\":20853:21044   */\ntag_48:\n    /* \"#utility.yul\":20893:20896   */\n  0x00\n    /* \"#utility.yul\":20912:20932   */\n  tag_313\n    /* \"#utility.yul\":20930:20931   */\n  dup3\n    /* \"#utility.yul\":20912:20932   */\n  tag_67\n  jump\t// in\ntag_313:\n    /* \"#utility.yul\":20907:20932   */\n  swap2\n  pop\n    /* \"#utility.yul\":20946:20966   */\n  tag_314\n    /* \"#utility.yul\":20964:20965   */\n  dup4\n    /* \"#utility.yul\":20946:20966   */\n  tag_67\n  jump\t// in\ntag_314:\n    /* \"#utility.yul\":20941:20966   */\n  swap3\n  pop\n    /* \"#utility.yul\":20989:20990   */\n  dup3\n    /* \"#utility.yul\":20986:20987   */\n  dup3\n    /* \"#utility.yul\":20982:20991   */\n  add\n    /* \"#utility.yul\":20975:20991   */\n  swap1\n  pop\n    /* \"#utility.yul\":21010:21013   */\n  dup1\n    /* \"#utility.yul\":21007:21008   */\n  dup3\n    /* \"#utility.yul\":21004:21014   */\n  gt\n    /* \"#utility.yul\":21001:21037   */\n  iszero\n  tag_315\n  jumpi\n    /* \"#utility.yul\":21017:21035   */\n  tag_316\n  tag_113\n  jump\t// in\ntag_316:\n    /* \"#utility.yul\":21001:21037   */\ntag_315:\n    /* \"#utility.yul\":20853:21044   */\n  swap3\n  swap2\n  pop\n  pop\n  jump\t// out\n    /* \"#utility.yul\":21050:21230   */\ntag_51:\n    /* \"#utility.yul\":21098:21175   */\n  0x4e487b7100000000000000000000000000000000000000000000000000000000\n    /* \"#utility.yul\":21095:21096   */\n  0x00\n    /* \"#utility.yul\":21088:21176   */\n  mstore\n    /* \"#utility.yul\":21195:21199   */\n  0x21\n    /* \"#utility.yul\":21192:21193   */\n  0x04\n    /* \"#utility.yul\":21185:21200   */\n  mstore\n    /* \"#utility.yul\":21219:21223   */\n  0x24\n    /* \"#utility.yul\":21216:21217   */\n  0x00\n    /* \"#utility.yul\":21209:21224   */\n  revert\n    /* \"Contracts/Funding.sol\":461:12069  contract SimpleMilestoneEscrow is ReentrancyGuard {... */\ntag_52:\n  mload(0x80)\n  mload(0xa0)\n  mload(0xc0)\n  codecopy(0x00, dataOffset(sub_0), dataSize(sub_0))\n  0x00\n  assignImmutable(\"0x162f7b8508eeb042919e192a88cd9658d8d9620c570a09aeeef475bc42e39ecf\")\n  0x00\n  assignImmutable(\"0xb0c7bc42bdbc6fc210fecd6a5f5b923061cceb0f8ca5c7d964d5c22fc0e4b0b6\")\n  0x00\n  assignImmutable(\"0xee6ed107ec78844a4d229eb2881175204622382692a68d0a6bc9dab5b9b1a469\")\n  return(0x00, dataSize(sub_0))\nstop\n\nsub_0: assembly {\n        /* \"Contracts/Funding.sol\":461:12069  contract SimpleMilestoneEscrow is ReentrancyGuard {... */\n      mstore(0x40, 0x80)\n      callvalue\n      dup1\n      iszero\n      tag_1\n      jumpi\n      revert(0x00, 0x00)\n    tag_1:\n      pop\n      jumpi(tag_2, lt(calldatasize, 0x04))\n      shr(0xe0, calldataload(0x00))\n      dup1\n      0x5ac482d1\n      gt\n      tag_24\n      jumpi\n      dup1\n      0xb60d4288\n      gt\n      tag_25\n      jumpi\n      dup1\n      0xb60d4288\n      eq\n      tag_18\n      jumpi\n      dup1\n      0xb95d8dd4\n      eq\n      tag_19\n      jumpi\n      dup1\n      0xc19d93fb\n      eq\n      tag_20\n      jumpi\n      dup1\n      0xca4b208b\n      eq\n      tag_21\n      jumpi\n      dup1\n      0xe89e4ed6\n      eq\n      tag_22\n      jumpi\n      dup1\n      0xf75fdcaa\n      eq\n      tag_23\n      jumpi\n      jump(tag_2)\n    tag_25:\n      dup1\n      0x5ac482d1\n      eq\n      tag_13\n      jumpi\n      dup1\n      0x629e4ed0\n      eq\n      tag_14\n      jumpi\n      dup1\n      0x6f9fb98a\n      eq\n      tag_15\n      jumpi\n      dup1\n      0x725a3b4b\n      eq\n      tag_16\n      jumpi\n      dup1\n      0xb4f5a711\n      eq\n      tag_17\n      jumpi\n      jump(tag_2)\n    tag_24:\n      dup1\n      0x3013ce29\n      gt\n      tag_26\n      jumpi\n      dup1\n      0x3013ce29\n      eq\n      tag_8\n      jumpi\n      dup1\n      0x317debf5\n      eq\n      tag_9\n      jumpi\n      dup1\n      0x3ddb47b4\n      eq\n      tag_10\n      jumpi\n      dup1\n      0x45d30a17\n      eq\n      tag_11\n      jumpi\n      dup1\n      0x4e69d560\n      eq\n      tag_12\n      jumpi\n      jump(tag_2)\n    tag_26:\n      dup1\n      0x041ae880\n      eq\n      tag_3\n      jumpi\n      dup1\n      0x0681ca55\n      eq\n      tag_4\n      jumpi\n      dup1\n      0x1a39d8ef\n      eq\n      tag_5\n      jumpi\n      dup1\n      0x1adff0ee\n      eq\n      tag_6\n      jumpi\n      dup1\n      0x2fba2c85\n      eq\n      tag_7\n      jumpi\n    tag_2:\n      revert(0x00, 0x00)\n        /* \"Contracts/Funding.sol\":1435:1466  address public immutable funder */\n    tag_3:\n      tag_27\n      tag_28\n      jump\t// in\n    tag_27:\n      mload(0x40)\n      tag_29\n      swap2\n      swap1\n      tag_30\n      jump\t// in\n    tag_29:\n      mload(0x40)\n      dup1\n      swap2\n      sub\n      swap1\n      return\n        /* \"Contracts/Funding.sol\":10289:10390  function milestoneCount() external view returns (uint256) {... */\n    tag_4:\n      tag_31\n      tag_32\n      jump\t// in\n    tag_31:\n      mload(0x40)\n      tag_33\n      swap2\n      swap1\n      tag_34\n      jump\t// in\n    tag_33:\n      mload(0x40)\n      dup1\n      swap2\n      sub\n      swap1\n      return\n        /* \"Contracts/Funding.sol\":1595:1621  uint256 public totalAmount */\n    tag_5:\n      tag_35\n      tag_36\n      jump\t// in\n    tag_35:\n      mload(0x40)\n      tag_37\n      swap2\n      swap1\n      tag_34\n      jump\t// in\n    tag_37:\n      mload(0x40)\n      dup1\n      swap2\n      sub\n      swap1\n      return\n        /* \"Contracts/Funding.sol\":8994:9372  function cancelProject() ... */\n    tag_6:\n      tag_38\n      tag_39\n      jump\t// in\n    tag_38:\n      stop\n        /* \"Contracts/Funding.sol\":9660:9771  function getRemainingBalance() external view returns (uint256) {... */\n    tag_7:\n      tag_40\n      tag_41\n      jump\t// in\n    tag_40:\n      mload(0x40)\n      tag_42\n      swap2\n      swap1\n      tag_34\n      jump\t// in\n    tag_42:\n      mload(0x40)\n      dup1\n      swap2\n      sub\n      swap1\n      return\n        /* \"Contracts/Funding.sol\":1514:1550  IERC20 public immutable paymentToken */\n    tag_8:\n      tag_43\n      tag_44\n      jump\t// in\n    tag_43:\n      mload(0x40)\n      tag_45\n      swap2\n      swap1\n      tag_46\n      jump\t// in\n    tag_45:\n      mload(0x40)\n      dup1\n      swap2\n      sub\n      swap1\n      return\n        /* \"Contracts/Funding.sol\":5471:6380  function releaseMilestone(uint256 index) ... */\n    tag_9:\n      tag_47\n      0x04\n      dup1\n      calldatasize\n      sub\n      dup2\n      add\n      swap1\n      tag_48\n      swap2\n      swap1\n      tag_49\n      jump\t// in\n    tag_48:\n      tag_50\n      jump\t// in\n    tag_47:\n      stop\n        /* \"Contracts/Funding.sol\":10037:10223  function isDisputeExpired() external view returns (bool) {... */\n    tag_10:\n      tag_51\n      tag_52\n      jump\t// in\n    tag_51:\n      mload(0x40)\n      tag_53\n      swap2\n      swap1\n      tag_54\n      jump\t// in\n    tag_53:\n      mload(0x40)\n      dup1\n      swap2\n      sub\n      swap1\n      return\n        /* \"Contracts/Funding.sol\":1628:1657  uint256 public releasedAmount */\n    tag_11:\n      tag_55\n      tag_56\n      jump\t// in\n    tag_55:\n      mload(0x40)\n      tag_57\n      swap2\n      swap1\n      tag_34\n      jump\t// in\n    tag_57:\n      mload(0x40)\n      dup1\n      swap2\n      sub\n      swap1\n      return\n        /* \"Contracts/Funding.sol\":10465:10906  function getStatus() external view returns (string memory) {... */\n    tag_12:\n      tag_58\n      tag_59\n      jump\t// in\n    tag_58:\n      mload(0x40)\n      tag_60\n      swap2\n      swap1\n      tag_61\n      jump\t// in\n    tag_60:\n      mload(0x40)\n      dup1\n      swap2\n      sub\n      swap1\n      return\n        /* \"Contracts/Funding.sol\":8471:8898  function resolveDisputeToFunder() ... */\n    tag_13:\n      tag_62\n      tag_63\n      jump\t// in\n    tag_62:\n      stop\n        /* \"Contracts/Funding.sol\":9488:9592  function getMilestones() external view returns (Milestone[] memory) {... */\n    tag_14:\n      tag_64\n      tag_65\n      jump\t// in\n    tag_64:\n      mload(0x40)\n      tag_66\n      swap2\n      swap1\n      tag_67\n      jump\t// in\n    tag_66:\n      mload(0x40)\n      dup1\n      swap2\n      sub\n      swap1\n      return\n        /* \"Contracts/Funding.sol\":9838:9963  function getContractBalance() external view returns (uint256) {... */\n    tag_15:\n      tag_68\n      tag_69\n      jump\t// in\n    tag_68:\n      mload(0x40)\n      tag_70\n      swap2\n      swap1\n      tag_34\n      jump\t// in\n    tag_70:\n      mload(0x40)\n      dup1\n      swap2\n      sub\n      swap1\n      return\n        /* \"Contracts/Funding.sol\":7441:7712  function raiseDispute(string memory reason) ... */\n    tag_16:\n      tag_71\n      0x04\n      dup1\n      calldatasize\n      sub\n      dup2\n      add\n      swap1\n      tag_72\n      swap2\n      swap1\n      tag_73\n      jump\t// in\n    tag_72:\n      tag_74\n      jump\t// in\n    tag_71:\n      stop\n        /* \"Contracts/Funding.sol\":7816:8386  function resolveDisputeToDeveloper() ... */\n    tag_17:\n      tag_75\n      tag_76\n      jump\t// in\n    tag_75:\n      stop\n        /* \"Contracts/Funding.sol\":5023:5332  function fund() external onlyFunder inState(ProjectState.Created) nonReentrant {... */\n    tag_18:\n      tag_77\n      tag_78\n      jump\t// in\n    tag_77:\n      stop\n        /* \"Contracts/Funding.sol\":1706:1736  uint256 public disputeRaisedAt */\n    tag_19:\n      tag_79\n      tag_80\n      jump\t// in\n    tag_79:\n      mload(0x40)\n      tag_81\n      swap2\n      swap1\n      tag_34\n      jump\t// in\n    tag_81:\n      mload(0x40)\n      dup1\n      swap2\n      sub\n      swap1\n      return\n        /* \"Contracts/Funding.sol\":1563:1588  ProjectState public state */\n    tag_20:\n      tag_82\n      tag_83\n      jump\t// in\n    tag_82:\n      mload(0x40)\n      tag_84\n      swap2\n      swap1\n      tag_85\n      jump\t// in\n    tag_84:\n      mload(0x40)\n      dup1\n      swap2\n      sub\n      swap1\n      return\n        /* \"Contracts/Funding.sol\":1473:1507  address public immutable developer */\n    tag_21:\n      tag_86\n      tag_87\n      jump\t// in\n    tag_86:\n      mload(0x40)\n      tag_88\n      swap2\n      swap1\n      tag_30\n      jump\t// in\n    tag_88:\n      mload(0x40)\n      dup1\n      swap2\n      sub\n      swap1\n      return\n        /* \"Contracts/Funding.sol\":1670:1699  Milestone[] public milestones */\n    tag_22:\n      tag_89\n      0x04\n      dup1\n      calldatasize\n      sub\n      dup2\n      add\n      swap1\n      tag_90\n      swap2\n      swap1\n      tag_49\n      jump\t// in\n    tag_90:\n      tag_91\n      jump\t// in\n    tag_89:\n      mload(0x40)\n      tag_92\n      swap6\n      swap5\n      swap4\n      swap3\n      swap2\n      swap1\n      tag_93\n      jump\t// in\n    tag_92:\n      mload(0x40)\n      dup1\n      swap2\n      sub\n      swap1\n      return\n        /* \"Contracts/Funding.sol\":6511:7334  function cancelMilestone(uint256 index) ... */\n    tag_23:\n      tag_94\n      0x04\n      dup1\n      calldatasize\n      sub\n      dup2\n      add\n      swap1\n      tag_95\n      swap2\n      swap1\n      tag_49\n      jump\t// in\n    tag_95:\n      tag_96\n      jump\t// in\n    tag_94:\n      stop\n        /* \"Contracts/Funding.sol\":1435:1466  address public immutable funder */\n    tag_28:\n      immutable(\"0xee6ed107ec78844a4d229eb2881175204622382692a68d0a6bc9dab5b9b1a469\")\n      dup2\n      jump\t// out\n        /* \"Contracts/Funding.sol\":10289:10390  function milestoneCount() external view returns (uint256) {... */\n    tag_32:\n        /* \"Contracts/Funding.sol\":10338:10345  uint256 */\n      0x00\n        /* \"Contracts/Funding.sol\":10365:10375  milestones */\n      0x04\n        /* \"Contracts/Funding.sol\":10365:10382  milestones.length */\n      dup1\n      sload\n      swap1\n      pop\n        /* \"Contracts/Funding.sol\":10358:10382  return milestones.length */\n      swap1\n      pop\n        /* \"Contracts/Funding.sol\":10289:10390  function milestoneCount() external view returns (uint256) {... */\n      swap1\n      jump\t// out\n        /* \"Contracts/Funding.sol\":1595:1621  uint256 public totalAmount */\n    tag_36:\n      sload(0x02)\n      dup2\n      jump\t// out\n        /* \"Contracts/Funding.sol\":8994:9372  function cancelProject() ... */\n    tag_39:\n        /* \"Contracts/Funding.sol\":2231:2237  funder */\n      immutable(\"0xee6ed107ec78844a4d229eb2881175204622382692a68d0a6bc9dab5b9b1a469\")\n        /* \"Contracts/Funding.sol\":2217:2237  msg.sender != funder */\n      0xffffffffffffffffffffffffffffffffffffffff\n      and\n        /* \"Contracts/Funding.sol\":2217:2227  msg.sender */\n      caller\n        /* \"Contracts/Funding.sol\":2217:2237  msg.sender != funder */\n      0xffffffffffffffffffffffffffffffffffffffff\n      and\n      eq\n        /* \"Contracts/Funding.sol\":2213:2257  if (msg.sender != funder) revert NotFunder() */\n      tag_99\n      jumpi\n        /* \"Contracts/Funding.sol\":2246:2257  NotFunder() */\n      mload(0x40)\n      0xa598aebe00000000000000000000000000000000000000000000000000000000\n      dup2\n      mstore\n      0x04\n      add\n      mload(0x40)\n      dup1\n      swap2\n      sub\n      swap1\n      revert\n        /* \"Contracts/Funding.sol\":2213:2257  if (msg.sender != funder) revert NotFunder() */\n    tag_99:\n        /* \"Contracts/Funding.sol\":9077:9096  ProjectState.Funded */\n      0x01\n        /* \"Contracts/Funding.sol\":2609:2615  _state */\n      dup1\n        /* \"Contracts/Funding.sol\":2600:2615  state != _state */\n      0x04\n      dup2\n      gt\n      iszero\n      tag_101\n      jumpi\n      tag_102\n      tag_103\n      jump\t// in\n    tag_102:\n    tag_101:\n        /* \"Contracts/Funding.sol\":2600:2605  state */\n      0x01\n      0x00\n      swap1\n      sload\n      swap1\n      0x0100\n      exp\n      swap1\n      div\n      0xff\n      and\n        /* \"Contracts/Funding.sol\":2600:2615  state != _state */\n      0x04\n      dup2\n      gt\n      iszero\n      tag_104\n      jumpi\n      tag_105\n      tag_103\n      jump\t// in\n    tag_105:\n    tag_104:\n      eq\n        /* \"Contracts/Funding.sol\":2596:2638  if (state != _state) revert InvalidState() */\n      tag_106\n      jumpi\n        /* \"Contracts/Funding.sol\":2624:2638  InvalidState() */\n      mload(0x40)\n      0xbaf3f0f700000000000000000000000000000000000000000000000000000000\n      dup2\n      mstore\n      0x04\n      add\n      mload(0x40)\n      dup1\n      swap2\n      sub\n      swap1\n      revert\n        /* \"Contracts/Funding.sol\":2596:2638  if (state != _state) revert InvalidState() */\n    tag_106:\n        /* \"@openzeppelin/contracts/security/ReentrancyGuard.sol\":2261:2282  _nonReentrantBefore() */\n      tag_108\n        /* \"@openzeppelin/contracts/security/ReentrancyGuard.sol\":2261:2280  _nonReentrantBefore */\n      tag_109\n        /* \"@openzeppelin/contracts/security/ReentrancyGuard.sol\":2261:2282  _nonReentrantBefore() */\n      jump\t// in\n    tag_108:\n        /* \"Contracts/Funding.sol\":9137:9154  uint256 remaining */\n      0x00\n        /* \"Contracts/Funding.sol\":9157:9179  _getRemainingBalance() */\n      tag_111\n        /* \"Contracts/Funding.sol\":9157:9177  _getRemainingBalance */\n      tag_112\n        /* \"Contracts/Funding.sol\":9157:9179  _getRemainingBalance() */\n      jump\t// in\n    tag_111:\n        /* \"Contracts/Funding.sol\":9137:9179  uint256 remaining = _getRemainingBalance() */\n      swap1\n      pop\n        /* \"Contracts/Funding.sol\":9206:9207  0 */\n      0x00\n        /* \"Contracts/Funding.sol\":9194:9203  remaining */\n      dup2\n        /* \"Contracts/Funding.sol\":9194:9207  remaining > 0 */\n      gt\n        /* \"Contracts/Funding.sol\":9190:9280  if (remaining > 0) {... */\n      iszero\n      tag_113\n      jumpi\n        /* \"Contracts/Funding.sol\":9224:9268  paymentToken.safeTransfer(funder, remaining) */\n      tag_114\n        /* \"Contracts/Funding.sol\":9250:9256  funder */\n      immutable(\"0xee6ed107ec78844a4d229eb2881175204622382692a68d0a6bc9dab5b9b1a469\")\n        /* \"Contracts/Funding.sol\":9258:9267  remaining */\n      dup3\n        /* \"Contracts/Funding.sol\":9224:9236  paymentToken */\n      immutable(\"0x162f7b8508eeb042919e192a88cd9658d8d9620c570a09aeeef475bc42e39ecf\")\n        /* \"Contracts/Funding.sol\":9224:9249  paymentToken.safeTransfer */\n      0xffffffffffffffffffffffffffffffffffffffff\n      and\n      tag_115\n      swap1\n        /* \"Contracts/Funding.sol\":9224:9268  paymentToken.safeTransfer(funder, remaining) */\n      swap3\n      swap2\n      swap1\n      0xffffffff\n      and\n      jump\t// in\n    tag_114:\n        /* \"Contracts/Funding.sol\":9190:9280  if (remaining > 0) {... */\n    tag_113:\n        /* \"Contracts/Funding.sol\":9308:9330  ProjectState.Cancelled */\n      0x03\n        /* \"Contracts/Funding.sol\":9300:9305  state */\n      0x01\n      0x00\n        /* \"Contracts/Funding.sol\":9300:9330  state = ProjectState.Cancelled */\n      0x0100\n      exp\n      dup2\n      sload\n      dup2\n      0xff\n      mul\n      not\n      and\n      swap1\n      dup4\n      0x04\n      dup2\n      gt\n      iszero\n      tag_116\n      jumpi\n      tag_117\n      tag_103\n      jump\t// in\n    tag_117:\n    tag_116:\n      mul\n      or\n      swap1\n      sstore\n      pop\n        /* \"Contracts/Funding.sol\":9346:9364  ProjectCancelled() */\n      0x92c439fda90c70ccdedcb94d28a14f9fda69d67124efbbe9bf905740194228c8\n      mload(0x40)\n      mload(0x40)\n      dup1\n      swap2\n      sub\n      swap1\n      log1\n        /* \"Contracts/Funding.sol\":9126:9372  {... */\n      pop\n        /* \"@openzeppelin/contracts/security/ReentrancyGuard.sol\":2303:2323  _nonReentrantAfter() */\n      tag_118\n        /* \"@openzeppelin/contracts/security/ReentrancyGuard.sol\":2303:2321  _nonReentrantAfter */\n      tag_119\n        /* \"@openzeppelin/contracts/security/ReentrancyGuard.sol\":2303:2323  _nonReentrantAfter() */\n      jump\t// in\n    tag_118:\n        /* \"Contracts/Funding.sol\":2268:2269  _ */\n      pop\n        /* \"Contracts/Funding.sol\":8994:9372  function cancelProject() ... */\n      jump\t// out\n        /* \"Contracts/Funding.sol\":9660:9771  function getRemainingBalance() external view returns (uint256) {... */\n    tag_41:\n        /* \"Contracts/Funding.sol\":9714:9721  uint256 */\n      0x00\n        /* \"Contracts/Funding.sol\":9741:9763  _getRemainingBalance() */\n      tag_121\n        /* \"Contracts/Funding.sol\":9741:9761  _getRemainingBalance */\n      tag_112\n        /* \"Contracts/Funding.sol\":9741:9763  _getRemainingBalance() */\n      jump\t// in\n    tag_121:\n        /* \"Contracts/Funding.sol\":9734:9763  return _getRemainingBalance() */\n      swap1\n      pop\n        /* \"Contracts/Funding.sol\":9660:9771  function getRemainingBalance() external view returns (uint256) {... */\n      swap1\n      jump\t// out\n        /* \"Contracts/Funding.sol\":1514:1550  IERC20 public immutable paymentToken */\n    tag_44:\n      immutable(\"0x162f7b8508eeb042919e192a88cd9658d8d9620c570a09aeeef475bc42e39ecf\")\n      dup2\n      jump\t// out\n        /* \"Contracts/Funding.sol\":5471:6380  function releaseMilestone(uint256 index) ... */\n    tag_50:\n        /* \"Contracts/Funding.sol\":2231:2237  funder */\n      immutable(\"0xee6ed107ec78844a4d229eb2881175204622382692a68d0a6bc9dab5b9b1a469\")\n        /* \"Contracts/Funding.sol\":2217:2237  msg.sender != funder */\n      0xffffffffffffffffffffffffffffffffffffffff\n      and\n        /* \"Contracts/Funding.sol\":2217:2227  msg.sender */\n      caller\n        /* \"Contracts/Funding.sol\":2217:2237  msg.sender != funder */\n      0xffffffffffffffffffffffffffffffffffffffff\n      and\n      eq\n        /* \"Contracts/Funding.sol\":2213:2257  if (msg.sender != funder) revert NotFunder() */\n      tag_123\n      jumpi\n        /* \"Contracts/Funding.sol\":2246:2257  NotFunder() */\n      mload(0x40)\n      0xa598aebe00000000000000000000000000000000000000000000000000000000\n      dup2\n      mstore\n      0x04\n      add\n      mload(0x40)\n      dup1\n      swap2\n      sub\n      swap1\n      revert\n        /* \"Contracts/Funding.sol\":2213:2257  if (msg.sender != funder) revert NotFunder() */\n    tag_123:\n        /* \"Contracts/Funding.sol\":5570:5589  ProjectState.Funded */\n      0x01\n        /* \"Contracts/Funding.sol\":2609:2615  _state */\n      dup1\n        /* \"Contracts/Funding.sol\":2600:2615  state != _state */\n      0x04\n      dup2\n      gt\n      iszero\n      tag_125\n      jumpi\n      tag_126\n      tag_103\n      jump\t// in\n    tag_126:\n    tag_125:\n        /* \"Contracts/Funding.sol\":2600:2605  state */\n      0x01\n      0x00\n      swap1\n      sload\n      swap1\n      0x0100\n      exp\n      swap1\n      div\n      0xff\n      and\n        /* \"Contracts/Funding.sol\":2600:2615  state != _state */\n      0x04\n      dup2\n      gt\n      iszero\n      tag_127\n      jumpi\n      tag_128\n      tag_103\n      jump\t// in\n    tag_128:\n    tag_127:\n      eq\n        /* \"Contracts/Funding.sol\":2596:2638  if (state != _state) revert InvalidState() */\n      tag_129\n      jumpi\n        /* \"Contracts/Funding.sol\":2624:2638  InvalidState() */\n      mload(0x40)\n      0xbaf3f0f700000000000000000000000000000000000000000000000000000000\n      dup2\n      mstore\n      0x04\n      add\n      mload(0x40)\n      dup1\n      swap2\n      sub\n      swap1\n      revert\n        /* \"Contracts/Funding.sol\":2596:2638  if (state != _state) revert InvalidState() */\n    tag_129:\n        /* \"Contracts/Funding.sol\":5616:5621  index */\n      dup2\n        /* \"Contracts/Funding.sol\":2734:2744  milestones */\n      0x04\n        /* \"Contracts/Funding.sol\":2734:2751  milestones.length */\n      dup1\n      sload\n      swap1\n      pop\n        /* \"Contracts/Funding.sol\":2725:2730  index */\n      dup2\n        /* \"Contracts/Funding.sol\":2725:2751  index >= milestones.length */\n      lt\n        /* \"Contracts/Funding.sol\":2721:2778  if (index >= milestones.length) revert InvalidMilestone() */\n      tag_131\n      jumpi\n        /* \"Contracts/Funding.sol\":2760:2778  InvalidMilestone() */\n      mload(0x40)\n      0xba11734000000000000000000000000000000000000000000000000000000000\n      dup2\n      mstore\n      0x04\n      add\n      mload(0x40)\n      dup1\n      swap2\n      sub\n      swap1\n      revert\n        /* \"Contracts/Funding.sol\":2721:2778  if (index >= milestones.length) revert InvalidMilestone() */\n    tag_131:\n        /* \"@openzeppelin/contracts/security/ReentrancyGuard.sol\":2261:2282  _nonReentrantBefore() */\n      tag_133\n        /* \"@openzeppelin/contracts/security/ReentrancyGuard.sol\":2261:2280  _nonReentrantBefore */\n      tag_109\n        /* \"@openzeppelin/contracts/security/ReentrancyGuard.sol\":2261:2282  _nonReentrantBefore() */\n      jump\t// in\n    tag_133:\n        /* \"Contracts/Funding.sol\":5662:5689  Milestone storage milestone */\n      0x00\n        /* \"Contracts/Funding.sol\":5692:5702  milestones */\n      0x04\n        /* \"Contracts/Funding.sol\":5703:5708  index */\n      dup5\n        /* \"Contracts/Funding.sol\":5692:5709  milestones[index] */\n      dup2\n      sload\n      dup2\n      lt\n      tag_135\n      jumpi\n      tag_136\n      tag_137\n      jump\t// in\n    tag_136:\n    tag_135:\n      swap1\n      0x00\n      mstore\n      keccak256(0x00, 0x20)\n      swap1\n      0x04\n      mul\n      add\n        /* \"Contracts/Funding.sol\":5662:5709  Milestone storage milestone = milestones[index] */\n      swap1\n      pop\n        /* \"Contracts/Funding.sol\":5739:5748  milestone */\n      dup1\n        /* \"Contracts/Funding.sol\":5739:5757  milestone.released */\n      0x01\n      add\n      0x00\n      swap1\n      sload\n      swap1\n      0x0100\n      exp\n      swap1\n      div\n      0xff\n      and\n        /* \"Contracts/Funding.sol\":5738:5757  !milestone.released */\n      iszero\n        /* \"Contracts/Funding.sol\":5730:5778  require(!milestone.released, \"Already released\") */\n      tag_139\n      jumpi\n      mload(0x40)\n      0x08c379a000000000000000000000000000000000000000000000000000000000\n      dup2\n      mstore\n      0x04\n      add\n      tag_140\n      swap1\n      tag_141\n      jump\t// in\n    tag_140:\n      mload(0x40)\n      dup1\n      swap2\n      sub\n      swap1\n      revert\n    tag_139:\n        /* \"Contracts/Funding.sol\":5798:5807  milestone */\n      dup1\n        /* \"Contracts/Funding.sol\":5798:5817  milestone.cancelled */\n      0x01\n      add\n      0x01\n      swap1\n      sload\n      swap1\n      0x0100\n      exp\n      swap1\n      div\n      0xff\n      and\n        /* \"Contracts/Funding.sol\":5797:5817  !milestone.cancelled */\n      iszero\n        /* \"Contracts/Funding.sol\":5789:5841  require(!milestone.cancelled, \"Milestone cancelled\") */\n      tag_142\n      jumpi\n      mload(0x40)\n      0x08c379a000000000000000000000000000000000000000000000000000000000\n      dup2\n      mstore\n      0x04\n      add\n      tag_143\n      swap1\n      tag_144\n      jump\t// in\n    tag_143:\n      mload(0x40)\n      dup1\n      swap2\n      sub\n      swap1\n      revert\n    tag_142:\n        /* \"Contracts/Funding.sol\":5921:5922  0 */\n      0x00\n        /* \"Contracts/Funding.sol\":5900:5909  milestone */\n      dup2\n        /* \"Contracts/Funding.sol\":5900:5918  milestone.deadline */\n      0x02\n      add\n      sload\n        /* \"Contracts/Funding.sol\":5900:5922  milestone.deadline > 0 */\n      gt\n        /* \"Contracts/Funding.sol\":5896:6016  if (milestone.deadline > 0) {... */\n      iszero\n      tag_145\n      jumpi\n        /* \"Contracts/Funding.sol\":5966:5975  milestone */\n      dup1\n        /* \"Contracts/Funding.sol\":5966:5984  milestone.deadline */\n      0x02\n      add\n      sload\n        /* \"Contracts/Funding.sol\":5947:5962  block.timestamp */\n      timestamp\n        /* \"Contracts/Funding.sol\":5947:5984  block.timestamp <= milestone.deadline */\n      gt\n      iszero\n        /* \"Contracts/Funding.sol\":5939:6004  require(block.timestamp <= milestone.deadline, \"Deadline passed\") */\n      tag_146\n      jumpi\n      mload(0x40)\n      0x08c379a000000000000000000000000000000000000000000000000000000000\n      dup2\n      mstore\n      0x04\n      add\n      tag_147\n      swap1\n      tag_148\n      jump\t// in\n    tag_147:\n      mload(0x40)\n      dup1\n      swap2\n      sub\n      swap1\n      revert\n    tag_146:\n        /* \"Contracts/Funding.sol\":5896:6016  if (milestone.deadline > 0) {... */\n    tag_145:\n        /* \"Contracts/Funding.sol\":6057:6061  true */\n      0x01\n        /* \"Contracts/Funding.sol\":6036:6045  milestone */\n      dup2\n        /* \"Contracts/Funding.sol\":6036:6054  milestone.released */\n      0x01\n      add\n      0x00\n        /* \"Contracts/Funding.sol\":6036:6061  milestone.released = true */\n      0x0100\n      exp\n      dup2\n      sload\n      dup2\n      0xff\n      mul\n      not\n      and\n      swap1\n      dup4\n      iszero\n      iszero\n      mul\n      or\n      swap1\n      sstore\n      pop\n        /* \"Contracts/Funding.sol\":6090:6099  milestone */\n      dup1\n        /* \"Contracts/Funding.sol\":6090:6106  milestone.amount */\n      0x00\n      add\n      sload\n        /* \"Contracts/Funding.sol\":6072:6086  releasedAmount */\n      0x03\n      0x00\n        /* \"Contracts/Funding.sol\":6072:6106  releasedAmount += milestone.amount */\n      dup3\n      dup3\n      sload\n      tag_149\n      swap2\n      swap1\n      tag_150\n      jump\t// in\n    tag_149:\n      swap3\n      pop\n      pop\n      dup2\n      swap1\n      sstore\n      pop\n        /* \"Contracts/Funding.sol\":6161:6215  paymentToken.safeTransfer(developer, milestone.amount) */\n      tag_151\n        /* \"Contracts/Funding.sol\":6187:6196  developer */\n      immutable(\"0xb0c7bc42bdbc6fc210fecd6a5f5b923061cceb0f8ca5c7d964d5c22fc0e4b0b6\")\n        /* \"Contracts/Funding.sol\":6198:6207  milestone */\n      dup3\n        /* \"Contracts/Funding.sol\":6198:6214  milestone.amount */\n      0x00\n      add\n      sload\n        /* \"Contracts/Funding.sol\":6161:6173  paymentToken */\n      immutable(\"0x162f7b8508eeb042919e192a88cd9658d8d9620c570a09aeeef475bc42e39ecf\")\n        /* \"Contracts/Funding.sol\":6161:6186  paymentToken.safeTransfer */\n      0xffffffffffffffffffffffffffffffffffffffff\n      and\n      tag_115\n      swap1\n        /* \"Contracts/Funding.sol\":6161:6215  paymentToken.safeTransfer(developer, milestone.amount) */\n      swap3\n      swap2\n      swap1\n      0xffffffff\n      and\n      jump\t// in\n    tag_151:\n        /* \"Contracts/Funding.sol\":6259:6264  index */\n      dup4\n        /* \"Contracts/Funding.sol\":6241:6283  MilestoneReleased(index, milestone.amount) */\n      0x9e069181c12760c2cd0078ed4facdbe1f3614543b0fbff5dbcac3cbc61a0b64e\n        /* \"Contracts/Funding.sol\":6266:6275  milestone */\n      dup3\n        /* \"Contracts/Funding.sol\":6266:6282  milestone.amount */\n      0x00\n      add\n      sload\n        /* \"Contracts/Funding.sol\":6241:6283  MilestoneReleased(index, milestone.amount) */\n      mload(0x40)\n      tag_152\n      swap2\n      swap1\n      tag_34\n      jump\t// in\n    tag_152:\n      mload(0x40)\n      dup1\n      swap2\n      sub\n      swap1\n      log2\n        /* \"Contracts/Funding.sol\":6354:6372  _checkCompletion() */\n      tag_153\n        /* \"Contracts/Funding.sol\":6354:6370  _checkCompletion */\n      tag_154\n        /* \"Contracts/Funding.sol\":6354:6372  _checkCompletion() */\n      jump\t// in\n    tag_153:\n        /* \"Contracts/Funding.sol\":5651:6380  {... */\n      pop\n        /* \"@openzeppelin/contracts/security/ReentrancyGuard.sol\":2303:2323  _nonReentrantAfter() */\n      tag_155\n        /* \"@openzeppelin/contracts/security/ReentrancyGuard.sol\":2303:2321  _nonReentrantAfter */\n      tag_119\n        /* \"@openzeppelin/contracts/security/ReentrancyGuard.sol\":2303:2323  _nonReentrantAfter() */\n      jump\t// in\n    tag_155:\n        /* \"Contracts/Funding.sol\":2649:2650  _ */\n      pop\n        /* \"Contracts/Funding.sol\":2268:2269  _ */\n      pop\n        /* \"Contracts/Funding.sol\":5471:6380  function releaseMilestone(uint256 index) ... */\n      pop\n      jump\t// out\n        /* \"Contracts/Funding.sol\":10037:10223  function isDisputeExpired() external view returns (bool) {... */\n    tag_52:\n        /* \"Contracts/Funding.sol\":10088:10092  bool */\n      0x00\n        /* \"Contracts/Funding.sol\":10118:10139  ProjectState.Disputed */\n      0x04\n        /* \"Contracts/Funding.sol\":10109:10139  state != ProjectState.Disputed */\n      dup1\n      dup2\n      gt\n      iszero\n      tag_157\n      jumpi\n      tag_158\n      tag_103\n      jump\t// in\n    tag_158:\n    tag_157:\n        /* \"Contracts/Funding.sol\":10109:10114  state */\n      0x01\n      0x00\n      swap1\n      sload\n      swap1\n      0x0100\n      exp\n      swap1\n      div\n      0xff\n      and\n        /* \"Contracts/Funding.sol\":10109:10139  state != ProjectState.Disputed */\n      0x04\n      dup2\n      gt\n      iszero\n      tag_159\n      jumpi\n      tag_160\n      tag_103\n      jump\t// in\n    tag_160:\n    tag_159:\n      eq\n        /* \"Contracts/Funding.sol\":10105:10153  if (state != ProjectState.Disputed) return false */\n      tag_161\n      jumpi\n        /* \"Contracts/Funding.sol\":10148:10153  false */\n      0x00\n        /* \"Contracts/Funding.sol\":10141:10153  return false */\n      swap1\n      pop\n      jump(tag_156)\n        /* \"Contracts/Funding.sol\":10105:10153  if (state != ProjectState.Disputed) return false */\n    tag_161:\n        /* \"Contracts/Funding.sol\":10208:10215  30 days */\n      0x278d00\n        /* \"Contracts/Funding.sol\":10190:10205  disputeRaisedAt */\n      sload(0x05)\n        /* \"Contracts/Funding.sol\":10190:10215  disputeRaisedAt + 30 days */\n      tag_162\n      swap2\n      swap1\n      tag_150\n      jump\t// in\n    tag_162:\n        /* \"Contracts/Funding.sol\":10171:10186  block.timestamp */\n      timestamp\n        /* \"Contracts/Funding.sol\":10171:10215  block.timestamp >= disputeRaisedAt + 30 days */\n      lt\n      iszero\n        /* \"Contracts/Funding.sol\":10164:10215  return block.timestamp >= disputeRaisedAt + 30 days */\n      swap1\n      pop\n        /* \"Contracts/Funding.sol\":10037:10223  function isDisputeExpired() external view returns (bool) {... */\n    tag_156:\n      swap1\n      jump\t// out\n        /* \"Contracts/Funding.sol\":1628:1657  uint256 public releasedAmount */\n    tag_56:\n      sload(0x03)\n      dup2\n      jump\t// out\n        /* \"Contracts/Funding.sol\":10465:10906  function getStatus() external view returns (string memory) {... */\n    tag_59:\n        /* \"Contracts/Funding.sol\":10509:10522  string memory */\n      0x60\n        /* \"Contracts/Funding.sol\":10548:10568  ProjectState.Created */\n      0x00\n        /* \"Contracts/Funding.sol\":10539:10568  state == ProjectState.Created */\n      0x04\n      dup2\n      gt\n      iszero\n      tag_164\n      jumpi\n      tag_165\n      tag_103\n      jump\t// in\n    tag_165:\n    tag_164:\n        /* \"Contracts/Funding.sol\":10539:10544  state */\n      0x01\n      0x00\n      swap1\n      sload\n      swap1\n      0x0100\n      exp\n      swap1\n      div\n      0xff\n      and\n        /* \"Contracts/Funding.sol\":10539:10568  state == ProjectState.Created */\n      0x04\n      dup2\n      gt\n      iszero\n      tag_166\n      jumpi\n      tag_167\n      tag_103\n      jump\t// in\n    tag_167:\n    tag_166:\n      sub\n        /* \"Contracts/Funding.sol\":10535:10606  if (state == ProjectState.Created) return \"Created (Waiting for funds)\" */\n      tag_168\n      jumpi\n        /* \"Contracts/Funding.sol\":10570:10606  return \"Created (Waiting for funds)\" */\n      mload(0x40)\n      dup1\n      0x40\n      add\n      0x40\n      mstore\n      dup1\n      0x1b\n      dup2\n      mstore\n      0x20\n      add\n      0x43726561746564202857616974696e6720666f722066756e6473290000000000\n      dup2\n      mstore\n      pop\n      swap1\n      pop\n      jump(tag_163)\n        /* \"Contracts/Funding.sol\":10535:10606  if (state == ProjectState.Created) return \"Created (Waiting for funds)\" */\n    tag_168:\n        /* \"Contracts/Funding.sol\":10630:10649  ProjectState.Funded */\n      0x01\n        /* \"Contracts/Funding.sol\":10621:10649  state == ProjectState.Funded */\n      0x04\n      dup2\n      gt\n      iszero\n      tag_169\n      jumpi\n      tag_170\n      tag_103\n      jump\t// in\n    tag_170:\n    tag_169:\n        /* \"Contracts/Funding.sol\":10621:10626  state */\n      0x01\n      0x00\n      swap1\n      sload\n      swap1\n      0x0100\n      exp\n      swap1\n      div\n      0xff\n      and\n        /* \"Contracts/Funding.sol\":10621:10649  state == ProjectState.Funded */\n      0x04\n      dup2\n      gt\n      iszero\n      tag_171\n      jumpi\n      tag_172\n      tag_103\n      jump\t// in\n    tag_172:\n    tag_171:\n      sub\n        /* \"Contracts/Funding.sol\":10617:10675  if (state == ProjectState.Funded) return \"Funded (Active)\" */\n      tag_173\n      jumpi\n        /* \"Contracts/Funding.sol\":10651:10675  return \"Funded (Active)\" */\n      mload(0x40)\n      dup1\n      0x40\n      add\n      0x40\n      mstore\n      dup1\n      0x0f\n      dup2\n      mstore\n      0x20\n      add\n      0x46756e6465642028416374697665290000000000000000000000000000000000\n      dup2\n      mstore\n      pop\n      swap1\n      pop\n      jump(tag_163)\n        /* \"Contracts/Funding.sol\":10617:10675  if (state == ProjectState.Funded) return \"Funded (Active)\" */\n    tag_173:\n        /* \"Contracts/Funding.sol\":10699:10721  ProjectState.Completed */\n      0x02\n        /* \"Contracts/Funding.sol\":10690:10721  state == ProjectState.Completed */\n      0x04\n      dup2\n      gt\n      iszero\n      tag_174\n      jumpi\n      tag_175\n      tag_103\n      jump\t// in\n    tag_175:\n    tag_174:\n        /* \"Contracts/Funding.sol\":10690:10695  state */\n      0x01\n      0x00\n      swap1\n      sload\n      swap1\n      0x0100\n      exp\n      swap1\n      div\n      0xff\n      and\n        /* \"Contracts/Funding.sol\":10690:10721  state == ProjectState.Completed */\n      0x04\n      dup2\n      gt\n      iszero\n      tag_176\n      jumpi\n      tag_177\n      tag_103\n      jump\t// in\n    tag_177:\n    tag_176:\n      sub\n        /* \"Contracts/Funding.sol\":10686:10741  if (state == ProjectState.Completed) return \"Completed\" */\n      tag_178\n      jumpi\n        /* \"Contracts/Funding.sol\":10723:10741  return \"Completed\" */\n      mload(0x40)\n      dup1\n      0x40\n      add\n      0x40\n      mstore\n      dup1\n      0x09\n      dup2\n      mstore\n      0x20\n      add\n      0x436f6d706c657465640000000000000000000000000000000000000000000000\n      dup2\n      mstore\n      pop\n      swap1\n      pop\n      jump(tag_163)\n        /* \"Contracts/Funding.sol\":10686:10741  if (state == ProjectState.Completed) return \"Completed\" */\n    tag_178:\n        /* \"Contracts/Funding.sol\":10765:10787  ProjectState.Cancelled */\n      0x03\n        /* \"Contracts/Funding.sol\":10756:10787  state == ProjectState.Cancelled */\n      0x04\n      dup2\n      gt\n      iszero\n      tag_179\n      jumpi\n      tag_180\n      tag_103\n      jump\t// in\n    tag_180:\n    tag_179:\n        /* \"Contracts/Funding.sol\":10756:10761  state */\n      0x01\n      0x00\n      swap1\n      sload\n      swap1\n      0x0100\n      exp\n      swap1\n      div\n      0xff\n      and\n        /* \"Contracts/Funding.sol\":10756:10787  state == ProjectState.Cancelled */\n      0x04\n      dup2\n      gt\n      iszero\n      tag_181\n      jumpi\n      tag_182\n      tag_103\n      jump\t// in\n    tag_182:\n    tag_181:\n      sub\n        /* \"Contracts/Funding.sol\":10752:10807  if (state == ProjectState.Cancelled) return \"Cancelled\" */\n      tag_183\n      jumpi\n        /* \"Contracts/Funding.sol\":10789:10807  return \"Cancelled\" */\n      mload(0x40)\n      dup1\n      0x40\n      add\n      0x40\n      mstore\n      dup1\n      0x09\n      dup2\n      mstore\n      0x20\n      add\n      0x43616e63656c6c65640000000000000000000000000000000000000000000000\n      dup2\n      mstore\n      pop\n      swap1\n      pop\n      jump(tag_163)\n        /* \"Contracts/Funding.sol\":10752:10807  if (state == ProjectState.Cancelled) return \"Cancelled\" */\n    tag_183:\n        /* \"Contracts/Funding.sol\":10831:10852  ProjectState.Disputed */\n      0x04\n        /* \"Contracts/Funding.sol\":10822:10852  state == ProjectState.Disputed */\n      dup1\n      dup2\n      gt\n      iszero\n      tag_184\n      jumpi\n      tag_185\n      tag_103\n      jump\t// in\n    tag_185:\n    tag_184:\n        /* \"Contracts/Funding.sol\":10822:10827  state */\n      0x01\n      0x00\n      swap1\n      sload\n      swap1\n      0x0100\n      exp\n      swap1\n      div\n      0xff\n      and\n        /* \"Contracts/Funding.sol\":10822:10852  state == ProjectState.Disputed */\n      0x04\n      dup2\n      gt\n      iszero\n      tag_186\n      jumpi\n      tag_187\n      tag_103\n      jump\t// in\n    tag_187:\n    tag_186:\n      sub\n        /* \"Contracts/Funding.sol\":10818:10871  if (state == ProjectState.Disputed) return \"Disputed\" */\n      tag_188\n      jumpi\n        /* \"Contracts/Funding.sol\":10854:10871  return \"Disputed\" */\n      mload(0x40)\n      dup1\n      0x40\n      add\n      0x40\n      mstore\n      dup1\n      0x08\n      dup2\n      mstore\n      0x20\n      add\n      0x4469737075746564000000000000000000000000000000000000000000000000\n      dup2\n      mstore\n      pop\n      swap1\n      pop\n      jump(tag_163)\n        /* \"Contracts/Funding.sol\":10818:10871  if (state == ProjectState.Disputed) return \"Disputed\" */\n    tag_188:\n        /* \"Contracts/Funding.sol\":10882:10898  return \"Unknown\" */\n      mload(0x40)\n      dup1\n      0x40\n      add\n      0x40\n      mstore\n      dup1\n      0x07\n      dup2\n      mstore\n      0x20\n      add\n      0x556e6b6e6f776e00000000000000000000000000000000000000000000000000\n      dup2\n      mstore\n      pop\n      swap1\n      pop\n        /* \"Contracts/Funding.sol\":10465:10906  function getStatus() external view returns (string memory) {... */\n    tag_163:\n      swap1\n      jump\t// out\n        /* \"Contracts/Funding.sol\":8471:8898  function resolveDisputeToFunder() ... */\n    tag_63:\n        /* \"Contracts/Funding.sol\":2231:2237  funder */\n      immutable(\"0xee6ed107ec78844a4d229eb2881175204622382692a68d0a6bc9dab5b9b1a469\")\n        /* \"Contracts/Funding.sol\":2217:2237  msg.sender != funder */\n      0xffffffffffffffffffffffffffffffffffffffff\n      and\n        /* \"Contracts/Funding.sol\":2217:2227  msg.sender */\n      caller\n        /* \"Contracts/Funding.sol\":2217:2237  msg.sender != funder */\n      0xffffffffffffffffffffffffffffffffffffffff\n      and\n      eq\n        /* \"Contracts/Funding.sol\":2213:2257  if (msg.sender != funder) revert NotFunder() */\n      tag_190\n      jumpi\n        /* \"Contracts/Funding.sol\":2246:2257  NotFunder() */\n      mload(0x40)\n      0xa598aebe00000000000000000000000000000000000000000000000000000000\n      dup2\n      mstore\n      0x04\n      add\n      mload(0x40)\n      dup1\n      swap2\n      sub\n      swap1\n      revert\n        /* \"Contracts/Funding.sol\":2213:2257  if (msg.sender != funder) revert NotFunder() */\n    tag_190:\n        /* \"Contracts/Funding.sol\":8563:8584  ProjectState.Disputed */\n      0x04\n        /* \"Contracts/Funding.sol\":2609:2615  _state */\n      dup1\n        /* \"Contracts/Funding.sol\":2600:2615  state != _state */\n      0x04\n      dup2\n      gt\n      iszero\n      tag_192\n      jumpi\n      tag_193\n      tag_103\n      jump\t// in\n    tag_193:\n    tag_192:\n        /* \"Contracts/Funding.sol\":2600:2605  state */\n      0x01\n      0x00\n      swap1\n      sload\n      swap1\n      0x0100\n      exp\n      swap1\n      div\n      0xff\n      and\n        /* \"Contracts/Funding.sol\":2600:2615  state != _state */\n      0x04\n      dup2\n      gt\n      iszero\n      tag_194\n      jumpi\n      tag_195\n      tag_103\n      jump\t// in\n    tag_195:\n    tag_194:\n      eq\n        /* \"Contracts/Funding.sol\":2596:2638  if (state != _state) revert InvalidState() */\n      tag_196\n      jumpi\n        /* \"Contracts/Funding.sol\":2624:2638  InvalidState() */\n      mload(0x40)\n      0xbaf3f0f700000000000000000000000000000000000000000000000000000000\n      dup2\n      mstore\n      0x04\n      add\n      mload(0x40)\n      dup1\n      swap2\n      sub\n      swap1\n      revert\n        /* \"Contracts/Funding.sol\":2596:2638  if (state != _state) revert InvalidState() */\n    tag_196:\n        /* \"@openzeppelin/contracts/security/ReentrancyGuard.sol\":2261:2282  _nonReentrantBefore() */\n      tag_198\n        /* \"@openzeppelin/contracts/security/ReentrancyGuard.sol\":2261:2280  _nonReentrantBefore */\n      tag_109\n        /* \"@openzeppelin/contracts/security/ReentrancyGuard.sol\":2261:2282  _nonReentrantBefore() */\n      jump\t// in\n    tag_198:\n        /* \"Contracts/Funding.sol\":8625:8642  uint256 remaining */\n      0x00\n        /* \"Contracts/Funding.sol\":8645:8667  _getRemainingBalance() */\n      tag_200\n        /* \"Contracts/Funding.sol\":8645:8665  _getRemainingBalance */\n      tag_112\n        /* \"Contracts/Funding.sol\":8645:8667  _getRemainingBalance() */\n      jump\t// in\n    tag_200:\n        /* \"Contracts/Funding.sol\":8625:8667  uint256 remaining = _getRemainingBalance() */\n      swap1\n      pop\n        /* \"Contracts/Funding.sol\":8694:8695  0 */\n      0x00\n        /* \"Contracts/Funding.sol\":8682:8691  remaining */\n      dup2\n        /* \"Contracts/Funding.sol\":8682:8695  remaining > 0 */\n      gt\n        /* \"Contracts/Funding.sol\":8678:8768  if (remaining > 0) {... */\n      iszero\n      tag_201\n      jumpi\n        /* \"Contracts/Funding.sol\":8712:8756  paymentToken.safeTransfer(funder, remaining) */\n      tag_202\n        /* \"Contracts/Funding.sol\":8738:8744  funder */\n      immutable(\"0xee6ed107ec78844a4d229eb2881175204622382692a68d0a6bc9dab5b9b1a469\")\n        /* \"Contracts/Funding.sol\":8746:8755  remaining */\n      dup3\n        /* \"Contracts/Funding.sol\":8712:8724  paymentToken */\n      immutable(\"0x162f7b8508eeb042919e192a88cd9658d8d9620c570a09aeeef475bc42e39ecf\")\n        /* \"Contracts/Funding.sol\":8712:8737  paymentToken.safeTransfer */\n      0xffffffffffffffffffffffffffffffffffffffff\n      and\n      tag_115\n      swap1\n        /* \"Contracts/Funding.sol\":8712:8756  paymentToken.safeTransfer(funder, remaining) */\n      swap3\n      swap2\n      swap1\n      0xffffffff\n      and\n      jump\t// in\n    tag_202:\n        /* \"Contracts/Funding.sol\":8678:8768  if (remaining > 0) {... */\n    tag_201:\n        /* \"Contracts/Funding.sol\":8796:8818  ProjectState.Cancelled */\n      0x03\n        /* \"Contracts/Funding.sol\":8788:8793  state */\n      0x01\n      0x00\n        /* \"Contracts/Funding.sol\":8788:8818  state = ProjectState.Cancelled */\n      0x0100\n      exp\n      dup2\n      sload\n      dup2\n      0xff\n      mul\n      not\n      and\n      swap1\n      dup4\n      0x04\n      dup2\n      gt\n      iszero\n      tag_203\n      jumpi\n      tag_204\n      tag_103\n      jump\t// in\n    tag_204:\n    tag_203:\n      mul\n      or\n      swap1\n      sstore\n      pop\n        /* \"Contracts/Funding.sol\":8834:8856  DisputeResolved(false) */\n      0x8015c5005d9ad5d85ca80d3f894f08e0159277704c54166e5cff108800fa80cd\n        /* \"Contracts/Funding.sol\":8850:8855  false */\n      0x00\n        /* \"Contracts/Funding.sol\":8834:8856  DisputeResolved(false) */\n      mload(0x40)\n      tag_205\n      swap2\n      swap1\n      tag_54\n      jump\t// in\n    tag_205:\n      mload(0x40)\n      dup1\n      swap2\n      sub\n      swap1\n      log1\n        /* \"Contracts/Funding.sol\":8872:8890  ProjectCancelled() */\n      0x92c439fda90c70ccdedcb94d28a14f9fda69d67124efbbe9bf905740194228c8\n      mload(0x40)\n      mload(0x40)\n      dup1\n      swap2\n      sub\n      swap1\n      log1\n        /* \"Contracts/Funding.sol\":8614:8898  {... */\n      pop\n        /* \"@openzeppelin/contracts/security/ReentrancyGuard.sol\":2303:2323  _nonReentrantAfter() */\n      tag_206\n        /* \"@openzeppelin/contracts/security/ReentrancyGuard.sol\":2303:2321  _nonReentrantAfter */\n      tag_119\n        /* \"@openzeppelin/contracts/security/ReentrancyGuard.sol\":2303:2323  _nonReentrantAfter() */\n      jump\t// in\n    tag_206:\n        /* \"Contracts/Funding.sol\":2268:2269  _ */\n      pop\n        /* \"Contracts/Funding.sol\":8471:8898  function resolveDisputeToFunder() ... */\n      jump\t// out\n        /* \"Contracts/Funding.sol\":9488:9592  function getMilestones() external view returns (Milestone[] memory) {... */\n    tag_65:\n        /* \"Contracts/Funding.sol\":9536:9554  Milestone[] memory */\n      0x60\n        /* \"Contracts/Funding.sol\":9574:9584  milestones */\n      0x04\n        /* \"Contracts/Funding.sol\":9567:9584  return milestones */\n      dup1\n      sload\n      dup1\n      0x20\n      mul\n      0x20\n      add\n      mload(0x40)\n      swap1\n      dup2\n      add\n      0x40\n      mstore\n      dup1\n      swap3\n      swap2\n      swap1\n      dup2\n      dup2\n      mstore\n      0x20\n      add\n      0x00\n      swap1\n    tag_208:\n      dup3\n      dup3\n      lt\n      iszero\n      tag_209\n      jumpi\n      dup4\n      dup3\n      swap1\n      0x00\n      mstore\n      keccak256(0x00, 0x20)\n      swap1\n      0x04\n      mul\n      add\n      mload(0x40)\n      dup1\n      0xa0\n      add\n      0x40\n      mstore\n      swap1\n      dup2\n      0x00\n      dup3\n      add\n      sload\n      dup2\n      mstore\n      0x20\n      add\n      0x01\n      dup3\n      add\n      0x00\n      swap1\n      sload\n      swap1\n      0x0100\n      exp\n      swap1\n      div\n      0xff\n      and\n      iszero\n      iszero\n      iszero\n      iszero\n      dup2\n      mstore\n      0x20\n      add\n      0x01\n      dup3\n      add\n      0x01\n      swap1\n      sload\n      swap1\n      0x0100\n      exp\n      swap1\n      div\n      0xff\n      and\n      iszero\n      iszero\n      iszero\n      iszero\n      dup2\n      mstore\n      0x20\n      add\n      0x02\n      dup3\n      add\n      sload\n      dup2\n      mstore\n      0x20\n      add\n      0x03\n      dup3\n      add\n      dup1\n      sload\n      tag_211\n      swap1\n      tag_212\n      jump\t// in\n    tag_211:\n      dup1\n      0x1f\n      add\n      0x20\n      dup1\n      swap2\n      div\n      mul\n      0x20\n      add\n      mload(0x40)\n      swap1\n      dup2\n      add\n      0x40\n      mstore\n      dup1\n      swap3\n      swap2\n      swap1\n      dup2\n      dup2\n      mstore\n      0x20\n      add\n      dup3\n      dup1\n      sload\n      tag_213\n      swap1\n      tag_212\n      jump\t// in\n    tag_213:\n      dup1\n      iszero\n      tag_214\n      jumpi\n      dup1\n      0x1f\n      lt\n      tag_215\n      jumpi\n      0x0100\n      dup1\n      dup4\n      sload\n      div\n      mul\n      dup4\n      mstore\n      swap2\n      0x20\n      add\n      swap2\n      jump(tag_214)\n    tag_215:\n      dup3\n      add\n      swap2\n      swap1\n      0x00\n      mstore\n      keccak256(0x00, 0x20)\n      swap1\n    tag_216:\n      dup2\n      sload\n      dup2\n      mstore\n      swap1\n      0x01\n      add\n      swap1\n      0x20\n      add\n      dup1\n      dup4\n      gt\n      tag_216\n      jumpi\n      dup3\n      swap1\n      sub\n      0x1f\n      and\n      dup3\n      add\n      swap2\n    tag_214:\n      pop\n      pop\n      pop\n      pop\n      pop\n      dup2\n      mstore\n      pop\n      pop\n      dup2\n      mstore\n      0x20\n      add\n      swap1\n      0x01\n      add\n      swap1\n      jump(tag_208)\n    tag_209:\n      pop\n      pop\n      pop\n      pop\n      swap1\n      pop\n        /* \"Contracts/Funding.sol\":9488:9592  function getMilestones() external view returns (Milestone[] memory) {... */\n      swap1\n      jump\t// out\n        /* \"Contracts/Funding.sol\":9838:9963  function getContractBalance() external view returns (uint256) {... */\n    tag_69:\n        /* \"Contracts/Funding.sol\":9891:9898  uint256 */\n      0x00\n        /* \"Contracts/Funding.sol\":9918:9930  paymentToken */\n      immutable(\"0x162f7b8508eeb042919e192a88cd9658d8d9620c570a09aeeef475bc42e39ecf\")\n        /* \"Contracts/Funding.sol\":9918:9940  paymentToken.balanceOf */\n      0xffffffffffffffffffffffffffffffffffffffff\n      and\n      0x70a08231\n        /* \"Contracts/Funding.sol\":9949:9953  this */\n      address\n        /* \"Contracts/Funding.sol\":9918:9955  paymentToken.balanceOf(address(this)) */\n      mload(0x40)\n      dup3\n      0xffffffff\n      and\n      0xe0\n      shl\n      dup2\n      mstore\n      0x04\n      add\n      tag_218\n      swap2\n      swap1\n      tag_30\n      jump\t// in\n    tag_218:\n      0x20\n      mload(0x40)\n      dup1\n      dup4\n      sub\n      dup2\n      dup7\n      gas\n      staticcall\n      iszero\n      dup1\n      iszero\n      tag_220\n      jumpi\n      returndatacopy(0x00, 0x00, returndatasize)\n      revert(0x00, returndatasize)\n    tag_220:\n      pop\n      pop\n      pop\n      pop\n      mload(0x40)\n      returndatasize\n      not(0x1f)\n      0x1f\n      dup3\n      add\n      and\n      dup3\n      add\n      dup1\n      0x40\n      mstore\n      pop\n      dup2\n      add\n      swap1\n      tag_221\n      swap2\n      swap1\n      tag_222\n      jump\t// in\n    tag_221:\n        /* \"Contracts/Funding.sol\":9911:9955  return paymentToken.balanceOf(address(this)) */\n      swap1\n      pop\n        /* \"Contracts/Funding.sol\":9838:9963  function getContractBalance() external view returns (uint256) {... */\n      swap1\n      jump\t// out\n        /* \"Contracts/Funding.sol\":7441:7712  function raiseDispute(string memory reason) ... */\n    tag_74:\n        /* \"Contracts/Funding.sol\":2463:2469  funder */\n      immutable(\"0xee6ed107ec78844a4d229eb2881175204622382692a68d0a6bc9dab5b9b1a469\")\n        /* \"Contracts/Funding.sol\":2449:2469  msg.sender == funder */\n      0xffffffffffffffffffffffffffffffffffffffff\n      and\n        /* \"Contracts/Funding.sol\":2449:2459  msg.sender */\n      caller\n        /* \"Contracts/Funding.sol\":2449:2469  msg.sender == funder */\n      0xffffffffffffffffffffffffffffffffffffffff\n      and\n      eq\n        /* \"Contracts/Funding.sol\":2449:2496  msg.sender == funder || msg.sender == developer */\n      dup1\n      tag_224\n      jumpi\n      pop\n        /* \"Contracts/Funding.sol\":2487:2496  developer */\n      immutable(\"0xb0c7bc42bdbc6fc210fecd6a5f5b923061cceb0f8ca5c7d964d5c22fc0e4b0b6\")\n        /* \"Contracts/Funding.sol\":2473:2496  msg.sender == developer */\n      0xffffffffffffffffffffffffffffffffffffffff\n      and\n        /* \"Contracts/Funding.sol\":2473:2483  msg.sender */\n      caller\n        /* \"Contracts/Funding.sol\":2473:2496  msg.sender == developer */\n      0xffffffffffffffffffffffffffffffffffffffff\n      and\n      eq\n        /* \"Contracts/Funding.sol\":2449:2496  msg.sender == funder || msg.sender == developer */\n    tag_224:\n        /* \"Contracts/Funding.sol\":2441:2515  require(msg.sender == funder || msg.sender == developer, \"Not authorized\") */\n      tag_225\n      jumpi\n      mload(0x40)\n      0x08c379a000000000000000000000000000000000000000000000000000000000\n      dup2\n      mstore\n      0x04\n      add\n      tag_226\n      swap1\n      tag_227\n      jump\t// in\n    tag_226:\n      mload(0x40)\n      dup1\n      swap2\n      sub\n      swap1\n      revert\n    tag_225:\n        /* \"Contracts/Funding.sol\":7544:7563  ProjectState.Funded */\n      0x01\n        /* \"Contracts/Funding.sol\":2609:2615  _state */\n      dup1\n        /* \"Contracts/Funding.sol\":2600:2615  state != _state */\n      0x04\n      dup2\n      gt\n      iszero\n      tag_229\n      jumpi\n      tag_230\n      tag_103\n      jump\t// in\n    tag_230:\n    tag_229:\n        /* \"Contracts/Funding.sol\":2600:2605  state */\n      0x01\n      0x00\n      swap1\n      sload\n      swap1\n      0x0100\n      exp\n      swap1\n      div\n      0xff\n      and\n        /* \"Contracts/Funding.sol\":2600:2615  state != _state */\n      0x04\n      dup2\n      gt\n      iszero\n      tag_231\n      jumpi\n      tag_232\n      tag_103\n      jump\t// in\n    tag_232:\n    tag_231:\n      eq\n        /* \"Contracts/Funding.sol\":2596:2638  if (state != _state) revert InvalidState() */\n      tag_233\n      jumpi\n        /* \"Contracts/Funding.sol\":2624:2638  InvalidState() */\n      mload(0x40)\n      0xbaf3f0f700000000000000000000000000000000000000000000000000000000\n      dup2\n      mstore\n      0x04\n      add\n      mload(0x40)\n      dup1\n      swap2\n      sub\n      swap1\n      revert\n        /* \"Contracts/Funding.sol\":2596:2638  if (state != _state) revert InvalidState() */\n    tag_233:\n        /* \"Contracts/Funding.sol\":7590:7611  ProjectState.Disputed */\n      0x04\n        /* \"Contracts/Funding.sol\":7582:7587  state */\n      0x01\n      0x00\n        /* \"Contracts/Funding.sol\":7582:7611  state = ProjectState.Disputed */\n      0x0100\n      exp\n      dup2\n      sload\n      dup2\n      0xff\n      mul\n      not\n      and\n      swap1\n      dup4\n      0x04\n      dup2\n      gt\n      iszero\n      tag_235\n      jumpi\n      tag_236\n      tag_103\n      jump\t// in\n    tag_236:\n    tag_235:\n      mul\n      or\n      swap1\n      sstore\n      pop\n        /* \"Contracts/Funding.sol\":7640:7655  block.timestamp */\n      timestamp\n        /* \"Contracts/Funding.sol\":7622:7637  disputeRaisedAt */\n      0x05\n        /* \"Contracts/Funding.sol\":7622:7655  disputeRaisedAt = block.timestamp */\n      dup2\n      swap1\n      sstore\n      pop\n        /* \"Contracts/Funding.sol\":7685:7695  msg.sender */\n      caller\n        /* \"Contracts/Funding.sol\":7671:7704  DisputeRaised(msg.sender, reason) */\n      0xffffffffffffffffffffffffffffffffffffffff\n      and\n      0x28b099eb575e23e32becd7c30dc8f9b2f98e370cdbf9841ea3338d9000402a25\n        /* \"Contracts/Funding.sol\":7697:7703  reason */\n      dup4\n        /* \"Contracts/Funding.sol\":7671:7704  DisputeRaised(msg.sender, reason) */\n      mload(0x40)\n      tag_237\n      swap2\n      swap1\n      tag_61\n      jump\t// in\n    tag_237:\n      mload(0x40)\n      dup1\n      swap2\n      sub\n      swap1\n      log2\n        /* \"Contracts/Funding.sol\":2526:2527  _ */\n      pop\n        /* \"Contracts/Funding.sol\":7441:7712  function raiseDispute(string memory reason) ... */\n      pop\n      jump\t// out\n        /* \"Contracts/Funding.sol\":7816:8386  function resolveDisputeToDeveloper() ... */\n    tag_76:\n        /* \"Contracts/Funding.sol\":2343:2352  developer */\n      immutable(\"0xb0c7bc42bdbc6fc210fecd6a5f5b923061cceb0f8ca5c7d964d5c22fc0e4b0b6\")\n        /* \"Contracts/Funding.sol\":2329:2352  msg.sender != developer */\n      0xffffffffffffffffffffffffffffffffffffffff\n      and\n        /* \"Contracts/Funding.sol\":2329:2339  msg.sender */\n      caller\n        /* \"Contracts/Funding.sol\":2329:2352  msg.sender != developer */\n      0xffffffffffffffffffffffffffffffffffffffff\n      and\n      eq\n        /* \"Contracts/Funding.sol\":2325:2375  if (msg.sender != developer) revert NotDeveloper() */\n      tag_239\n      jumpi\n        /* \"Contracts/Funding.sol\":2361:2375  NotDeveloper() */\n      mload(0x40)\n      0x8858596300000000000000000000000000000000000000000000000000000000\n      dup2\n      mstore\n      0x04\n      add\n      mload(0x40)\n      dup1\n      swap2\n      sub\n      swap1\n      revert\n        /* \"Contracts/Funding.sol\":2325:2375  if (msg.sender != developer) revert NotDeveloper() */\n    tag_239:\n        /* \"Contracts/Funding.sol\":7914:7935  ProjectState.Disputed */\n      0x04\n        /* \"Contracts/Funding.sol\":2609:2615  _state */\n      dup1\n        /* \"Contracts/Funding.sol\":2600:2615  state != _state */\n      0x04\n      dup2\n      gt\n      iszero\n      tag_241\n      jumpi\n      tag_242\n      tag_103\n      jump\t// in\n    tag_242:\n    tag_241:\n        /* \"Contracts/Funding.sol\":2600:2605  state */\n      0x01\n      0x00\n      swap1\n      sload\n      swap1\n      0x0100\n      exp\n      swap1\n      div\n      0xff\n      and\n        /* \"Contracts/Funding.sol\":2600:2615  state != _state */\n      0x04\n      dup2\n      gt\n      iszero\n      tag_243\n      jumpi\n      tag_244\n      tag_103\n      jump\t// in\n    tag_244:\n    tag_243:\n      eq\n        /* \"Contracts/Funding.sol\":2596:2638  if (state != _state) revert InvalidState() */\n      tag_245\n      jumpi\n        /* \"Contracts/Funding.sol\":2624:2638  InvalidState() */\n      mload(0x40)\n      0xbaf3f0f700000000000000000000000000000000000000000000000000000000\n      dup2\n      mstore\n      0x04\n      add\n      mload(0x40)\n      dup1\n      swap2\n      sub\n      swap1\n      revert\n        /* \"Contracts/Funding.sol\":2596:2638  if (state != _state) revert InvalidState() */\n    tag_245:\n        /* \"@openzeppelin/contracts/security/ReentrancyGuard.sol\":2261:2282  _nonReentrantBefore() */\n      tag_247\n        /* \"@openzeppelin/contracts/security/ReentrancyGuard.sol\":2261:2280  _nonReentrantBefore */\n      tag_109\n        /* \"@openzeppelin/contracts/security/ReentrancyGuard.sol\":2261:2282  _nonReentrantBefore() */\n      jump\t// in\n    tag_247:\n        /* \"Contracts/Funding.sol\":8021:8028  30 days */\n      0x278d00\n        /* \"Contracts/Funding.sol\":8003:8018  disputeRaisedAt */\n      sload(0x05)\n        /* \"Contracts/Funding.sol\":8003:8028  disputeRaisedAt + 30 days */\n      tag_249\n      swap2\n      swap1\n      tag_150\n      jump\t// in\n    tag_249:\n        /* \"Contracts/Funding.sol\":7984:7999  block.timestamp */\n      timestamp\n        /* \"Contracts/Funding.sol\":7984:8028  block.timestamp >= disputeRaisedAt + 30 days */\n      lt\n      iszero\n        /* \"Contracts/Funding.sol\":7976:8051  require(block.timestamp >= disputeRaisedAt + 30 days, \"30 days not passed\") */\n      tag_250\n      jumpi\n      mload(0x40)\n      0x08c379a000000000000000000000000000000000000000000000000000000000\n      dup2\n      mstore\n      0x04\n      add\n      tag_251\n      swap1\n      tag_252\n      jump\t// in\n    tag_251:\n      mload(0x40)\n      dup1\n      swap2\n      sub\n      swap1\n      revert\n    tag_250:\n        /* \"Contracts/Funding.sol\":8072:8089  uint256 remaining */\n      0x00\n        /* \"Contracts/Funding.sol\":8092:8114  _getRemainingBalance() */\n      tag_253\n        /* \"Contracts/Funding.sol\":8092:8112  _getRemainingBalance */\n      tag_112\n        /* \"Contracts/Funding.sol\":8092:8114  _getRemainingBalance() */\n      jump\t// in\n    tag_253:\n        /* \"Contracts/Funding.sol\":8072:8114  uint256 remaining = _getRemainingBalance() */\n      swap1\n      pop\n        /* \"Contracts/Funding.sol\":8141:8142  0 */\n      0x00\n        /* \"Contracts/Funding.sol\":8129:8138  remaining */\n      dup2\n        /* \"Contracts/Funding.sol\":8129:8142  remaining > 0 */\n      gt\n        /* \"Contracts/Funding.sol\":8125:8218  if (remaining > 0) {... */\n      iszero\n      tag_254\n      jumpi\n        /* \"Contracts/Funding.sol\":8159:8206  paymentToken.safeTransfer(developer, remaining) */\n      tag_255\n        /* \"Contracts/Funding.sol\":8185:8194  developer */\n      immutable(\"0xb0c7bc42bdbc6fc210fecd6a5f5b923061cceb0f8ca5c7d964d5c22fc0e4b0b6\")\n        /* \"Contracts/Funding.sol\":8196:8205  remaining */\n      dup3\n        /* \"Contracts/Funding.sol\":8159:8171  paymentToken */\n      immutable(\"0x162f7b8508eeb042919e192a88cd9658d8d9620c570a09aeeef475bc42e39ecf\")\n        /* \"Contracts/Funding.sol\":8159:8184  paymentToken.safeTransfer */\n      0xffffffffffffffffffffffffffffffffffffffff\n      and\n      tag_115\n      swap1\n        /* \"Contracts/Funding.sol\":8159:8206  paymentToken.safeTransfer(developer, remaining) */\n      swap3\n      swap2\n      swap1\n      0xffffffff\n      and\n      jump\t// in\n    tag_255:\n        /* \"Contracts/Funding.sol\":8125:8218  if (remaining > 0) {... */\n    tag_254:\n        /* \"Contracts/Funding.sol\":8246:8268  ProjectState.Completed */\n      0x02\n        /* \"Contracts/Funding.sol\":8238:8243  state */\n      0x01\n      0x00\n        /* \"Contracts/Funding.sol\":8238:8268  state = ProjectState.Completed */\n      0x0100\n      exp\n      dup2\n      sload\n      dup2\n      0xff\n      mul\n      not\n      and\n      swap1\n      dup4\n      0x04\n      dup2\n      gt\n      iszero\n      tag_256\n      jumpi\n      tag_257\n      tag_103\n      jump\t// in\n    tag_257:\n    tag_256:\n      mul\n      or\n      swap1\n      sstore\n      pop\n        /* \"Contracts/Funding.sol\":8296:8307  totalAmount */\n      sload(0x02)\n        /* \"Contracts/Funding.sol\":8279:8293  releasedAmount */\n      0x03\n        /* \"Contracts/Funding.sol\":8279:8307  releasedAmount = totalAmount */\n      dup2\n      swap1\n      sstore\n      pop\n        /* \"Contracts/Funding.sol\":8323:8344  DisputeResolved(true) */\n      0x8015c5005d9ad5d85ca80d3f894f08e0159277704c54166e5cff108800fa80cd\n        /* \"Contracts/Funding.sol\":8339:8343  true */\n      0x01\n        /* \"Contracts/Funding.sol\":8323:8344  DisputeResolved(true) */\n      mload(0x40)\n      tag_258\n      swap2\n      swap1\n      tag_54\n      jump\t// in\n    tag_258:\n      mload(0x40)\n      dup1\n      swap2\n      sub\n      swap1\n      log1\n        /* \"Contracts/Funding.sol\":8360:8378  ProjectCompleted() */\n      0xe39866727217e43713c3728c5769515e8fb38e990b568b9831c1689dfdf67b66\n      mload(0x40)\n      mload(0x40)\n      dup1\n      swap2\n      sub\n      swap1\n      log1\n        /* \"Contracts/Funding.sol\":7965:8386  {... */\n      pop\n        /* \"@openzeppelin/contracts/security/ReentrancyGuard.sol\":2303:2323  _nonReentrantAfter() */\n      tag_259\n        /* \"@openzeppelin/contracts/security/ReentrancyGuard.sol\":2303:2321  _nonReentrantAfter */\n      tag_119\n        /* \"@openzeppelin/contracts/security/ReentrancyGuard.sol\":2303:2323  _nonReentrantAfter() */\n      jump\t// in\n    tag_259:\n        /* \"Contracts/Funding.sol\":2386:2387  _ */\n      pop\n        /* \"Contracts/Funding.sol\":7816:8386  function resolveDisputeToDeveloper() ... */\n      jump\t// out\n        /* \"Contracts/Funding.sol\":5023:5332  function fund() external onlyFunder inState(ProjectState.Created) nonReentrant {... */\n    tag_78:\n        /* \"Contracts/Funding.sol\":2231:2237  funder */\n      immutable(\"0xee6ed107ec78844a4d229eb2881175204622382692a68d0a6bc9dab5b9b1a469\")\n        /* \"Contracts/Funding.sol\":2217:2237  msg.sender != funder */\n      0xffffffffffffffffffffffffffffffffffffffff\n      and\n        /* \"Contracts/Funding.sol\":2217:2227  msg.sender */\n      caller\n        /* \"Contracts/Funding.sol\":2217:2237  msg.sender != funder */\n      0xffffffffffffffffffffffffffffffffffffffff\n      and\n      eq\n        /* \"Contracts/Funding.sol\":2213:2257  if (msg.sender != funder) revert NotFunder() */\n      tag_261\n      jumpi\n        /* \"Contracts/Funding.sol\":2246:2257  NotFunder() */\n      mload(0x40)\n      0xa598aebe00000000000000000000000000000000000000000000000000000000\n      dup2\n      mstore\n      0x04\n      add\n      mload(0x40)\n      dup1\n      swap2\n      sub\n      swap1\n      revert\n        /* \"Contracts/Funding.sol\":2213:2257  if (msg.sender != funder) revert NotFunder() */\n    tag_261:\n        /* \"Contracts/Funding.sol\":5067:5087  ProjectState.Created */\n      0x00\n        /* \"Contracts/Funding.sol\":2609:2615  _state */\n      dup1\n        /* \"Contracts/Funding.sol\":2600:2615  state != _state */\n      0x04\n      dup2\n      gt\n      iszero\n      tag_263\n      jumpi\n      tag_264\n      tag_103\n      jump\t// in\n    tag_264:\n    tag_263:\n        /* \"Contracts/Funding.sol\":2600:2605  state */\n      0x01\n      0x00\n      swap1\n      sload\n      swap1\n      0x0100\n      exp\n      swap1\n      div\n      0xff\n      and\n        /* \"Contracts/Funding.sol\":2600:2615  state != _state */\n      0x04\n      dup2\n      gt\n      iszero\n      tag_265\n      jumpi\n      tag_266\n      tag_103\n      jump\t// in\n    tag_266:\n    tag_265:\n      eq\n        /* \"Contracts/Funding.sol\":2596:2638  if (state != _state) revert InvalidState() */\n      tag_267\n      jumpi\n        /* \"Contracts/Funding.sol\":2624:2638  InvalidState() */\n      mload(0x40)\n      0xbaf3f0f700000000000000000000000000000000000000000000000000000000\n      dup2\n      mstore\n      0x04\n      add\n      mload(0x40)\n      dup1\n      swap2\n      sub\n      swap1\n      revert\n        /* \"Contracts/Funding.sol\":2596:2638  if (state != _state) revert InvalidState() */\n    tag_267:\n        /* \"@openzeppelin/contracts/security/ReentrancyGuard.sol\":2261:2282  _nonReentrantBefore() */\n      tag_269\n        /* \"@openzeppelin/contracts/security/ReentrancyGuard.sol\":2261:2280  _nonReentrantBefore */\n      tag_109\n        /* \"@openzeppelin/contracts/security/ReentrancyGuard.sol\":2261:2282  _nonReentrantBefore() */\n      jump\t// in\n    tag_269:\n        /* \"Contracts/Funding.sol\":5165:5234  paymentToken.safeTransferFrom(msg.sender, address(this), totalAmount) */\n      tag_271\n        /* \"Contracts/Funding.sol\":5195:5205  msg.sender */\n      caller\n        /* \"Contracts/Funding.sol\":5215:5219  this */\n      address\n        /* \"Contracts/Funding.sol\":5222:5233  totalAmount */\n      sload(0x02)\n        /* \"Contracts/Funding.sol\":5165:5177  paymentToken */\n      immutable(\"0x162f7b8508eeb042919e192a88cd9658d8d9620c570a09aeeef475bc42e39ecf\")\n        /* \"Contracts/Funding.sol\":5165:5194  paymentToken.safeTransferFrom */\n      0xffffffffffffffffffffffffffffffffffffffff\n      and\n      tag_272\n      swap1\n        /* \"Contracts/Funding.sol\":5165:5234  paymentToken.safeTransferFrom(msg.sender, address(this), totalAmount) */\n      swap4\n      swap3\n      swap2\n      swap1\n      0xffffffff\n      and\n      jump\t// in\n    tag_271:\n        /* \"Contracts/Funding.sol\":5263:5282  ProjectState.Funded */\n      0x01\n        /* \"Contracts/Funding.sol\":5255:5260  state */\n      dup1\n      0x00\n        /* \"Contracts/Funding.sol\":5255:5282  state = ProjectState.Funded */\n      0x0100\n      exp\n      dup2\n      sload\n      dup2\n      0xff\n      mul\n      not\n      and\n      swap1\n      dup4\n      0x04\n      dup2\n      gt\n      iszero\n      tag_273\n      jumpi\n      tag_274\n      tag_103\n      jump\t// in\n    tag_274:\n    tag_273:\n      mul\n      or\n      swap1\n      sstore\n      pop\n        /* \"Contracts/Funding.sol\":5298:5324  ProjectFunded(totalAmount) */\n      0x2301e0a2ad8f6e28a7fbb09e96f5c14e588fac346ed5ce607e1a018bc7688646\n        /* \"Contracts/Funding.sol\":5312:5323  totalAmount */\n      sload(0x02)\n        /* \"Contracts/Funding.sol\":5298:5324  ProjectFunded(totalAmount) */\n      mload(0x40)\n      tag_275\n      swap2\n      swap1\n      tag_34\n      jump\t// in\n    tag_275:\n      mload(0x40)\n      dup1\n      swap2\n      sub\n      swap1\n      log1\n        /* \"@openzeppelin/contracts/security/ReentrancyGuard.sol\":2303:2323  _nonReentrantAfter() */\n      tag_276\n        /* \"@openzeppelin/contracts/security/ReentrancyGuard.sol\":2303:2321  _nonReentrantAfter */\n      tag_119\n        /* \"@openzeppelin/contracts/security/ReentrancyGuard.sol\":2303:2323  _nonReentrantAfter() */\n      jump\t// in\n    tag_276:\n        /* \"Contracts/Funding.sol\":2268:2269  _ */\n      pop\n        /* \"Contracts/Funding.sol\":5023:5332  function fund() external onlyFunder inState(ProjectState.Created) nonReentrant {... */\n      jump\t// out\n        /* \"Contracts/Funding.sol\":1706:1736  uint256 public disputeRaisedAt */\n    tag_80:\n      sload(0x05)\n      dup2\n      jump\t// out\n        /* \"Contracts/Funding.sol\":1563:1588  ProjectState public state */\n    tag_83:\n      0x01\n      0x00\n      swap1\n      sload\n      swap1\n      0x0100\n      exp\n      swap1\n      div\n      0xff\n      and\n      dup2\n      jump\t// out\n        /* \"Contracts/Funding.sol\":1473:1507  address public immutable developer */\n    tag_87:\n      immutable(\"0xb0c7bc42bdbc6fc210fecd6a5f5b923061cceb0f8ca5c7d964d5c22fc0e4b0b6\")\n      dup2\n      jump\t// out\n        /* \"Contracts/Funding.sol\":1670:1699  Milestone[] public milestones */\n    tag_91:\n      0x04\n      dup2\n      dup2\n      sload\n      dup2\n      lt\n      tag_277\n      jumpi\n      0x00\n      dup1\n      revert\n    tag_277:\n      swap1\n      0x00\n      mstore\n      keccak256(0x00, 0x20)\n      swap1\n      0x04\n      mul\n      add\n      0x00\n      swap2\n      pop\n      swap1\n      pop\n      dup1\n      0x00\n      add\n      sload\n      swap1\n      dup1\n      0x01\n      add\n      0x00\n      swap1\n      sload\n      swap1\n      0x0100\n      exp\n      swap1\n      div\n      0xff\n      and\n      swap1\n      dup1\n      0x01\n      add\n      0x01\n      swap1\n      sload\n      swap1\n      0x0100\n      exp\n      swap1\n      div\n      0xff\n      and\n      swap1\n      dup1\n      0x02\n      add\n      sload\n      swap1\n      dup1\n      0x03\n      add\n      dup1\n      sload\n      tag_279\n      swap1\n      tag_212\n      jump\t// in\n    tag_279:\n      dup1\n      0x1f\n      add\n      0x20\n      dup1\n      swap2\n      div\n      mul\n      0x20\n      add\n      mload(0x40)\n      swap1\n      dup2\n      add\n      0x40\n      mstore\n      dup1\n      swap3\n      swap2\n      swap1\n      dup2\n      dup2\n      mstore\n      0x20\n      add\n      dup3\n      dup1\n      sload\n      tag_280\n      swap1\n      tag_212\n      jump\t// in\n    tag_280:\n      dup1\n      iszero\n      tag_281\n      jumpi\n      dup1\n      0x1f\n      lt\n      tag_282\n      jumpi\n      0x0100\n      dup1\n      dup4\n      sload\n      div\n      mul\n      dup4\n      mstore\n      swap2\n      0x20\n      add\n      swap2\n      jump(tag_281)\n    tag_282:\n      dup3\n      add\n      swap2\n      swap1\n      0x00\n      mstore\n      keccak256(0x00, 0x20)\n      swap1\n    tag_283:\n      dup2\n      sload\n      dup2\n      mstore\n      swap1\n      0x01\n      add\n      swap1\n      0x20\n      add\n      dup1\n      dup4\n      gt\n      tag_283\n      jumpi\n      dup3\n      swap1\n      sub\n      0x1f\n      and\n      dup3\n      add\n      swap2\n    tag_281:\n      pop\n      pop\n      pop\n      pop\n      pop\n      swap1\n      pop\n      dup6\n      jump\t// out\n        /* \"Contracts/Funding.sol\":6511:7334  function cancelMilestone(uint256 index) ... */\n    tag_96:\n        /* \"Contracts/Funding.sol\":2231:2237  funder */\n      immutable(\"0xee6ed107ec78844a4d229eb2881175204622382692a68d0a6bc9dab5b9b1a469\")\n        /* \"Contracts/Funding.sol\":2217:2237  msg.sender != funder */\n      0xffffffffffffffffffffffffffffffffffffffff\n      and\n        /* \"Contracts/Funding.sol\":2217:2227  msg.sender */\n      caller\n        /* \"Contracts/Funding.sol\":2217:2237  msg.sender != funder */\n      0xffffffffffffffffffffffffffffffffffffffff\n      and\n      eq\n        /* \"Contracts/Funding.sol\":2213:2257  if (msg.sender != funder) revert NotFunder() */\n      tag_285\n      jumpi\n        /* \"Contracts/Funding.sol\":2246:2257  NotFunder() */\n      mload(0x40)\n      0xa598aebe00000000000000000000000000000000000000000000000000000000\n      dup2\n      mstore\n      0x04\n      add\n      mload(0x40)\n      dup1\n      swap2\n      sub\n      swap1\n      revert\n        /* \"Contracts/Funding.sol\":2213:2257  if (msg.sender != funder) revert NotFunder() */\n    tag_285:\n        /* \"Contracts/Funding.sol\":6609:6628  ProjectState.Funded */\n      0x01\n        /* \"Contracts/Funding.sol\":2609:2615  _state */\n      dup1\n        /* \"Contracts/Funding.sol\":2600:2615  state != _state */\n      0x04\n      dup2\n      gt\n      iszero\n      tag_287\n      jumpi\n      tag_288\n      tag_103\n      jump\t// in\n    tag_288:\n    tag_287:\n        /* \"Contracts/Funding.sol\":2600:2605  state */\n      0x01\n      0x00\n      swap1\n      sload\n      swap1\n      0x0100\n      exp\n      swap1\n      div\n      0xff\n      and\n        /* \"Contracts/Funding.sol\":2600:2615  state != _state */\n      0x04\n      dup2\n      gt\n      iszero\n      tag_289\n      jumpi\n      tag_290\n      tag_103\n      jump\t// in\n    tag_290:\n    tag_289:\n      eq\n        /* \"Contracts/Funding.sol\":2596:2638  if (state != _state) revert InvalidState() */\n      tag_291\n      jumpi\n        /* \"Contracts/Funding.sol\":2624:2638  InvalidState() */\n      mload(0x40)\n      0xbaf3f0f700000000000000000000000000000000000000000000000000000000\n      dup2\n      mstore\n      0x04\n      add\n      mload(0x40)\n      dup1\n      swap2\n      sub\n      swap1\n      revert\n        /* \"Contracts/Funding.sol\":2596:2638  if (state != _state) revert InvalidState() */\n    tag_291:\n        /* \"Contracts/Funding.sol\":6655:6660  index */\n      dup2\n        /* \"Contracts/Funding.sol\":2734:2744  milestones */\n      0x04\n        /* \"Contracts/Funding.sol\":2734:2751  milestones.length */\n      dup1\n      sload\n      swap1\n      pop\n        /* \"Contracts/Funding.sol\":2725:2730  index */\n      dup2\n        /* \"Contracts/Funding.sol\":2725:2751  index >= milestones.length */\n      lt\n        /* \"Contracts/Funding.sol\":2721:2778  if (index >= milestones.length) revert InvalidMilestone() */\n      tag_293\n      jumpi\n        /* \"Contracts/Funding.sol\":2760:2778  InvalidMilestone() */\n      mload(0x40)\n      0xba11734000000000000000000000000000000000000000000000000000000000\n      dup2\n      mstore\n      0x04\n      add\n      mload(0x40)\n      dup1\n      swap2\n      sub\n      swap1\n      revert\n        /* \"Contracts/Funding.sol\":2721:2778  if (index >= milestones.length) revert InvalidMilestone() */\n    tag_293:\n        /* \"@openzeppelin/contracts/security/ReentrancyGuard.sol\":2261:2282  _nonReentrantBefore() */\n      tag_295\n        /* \"@openzeppelin/contracts/security/ReentrancyGuard.sol\":2261:2280  _nonReentrantBefore */\n      tag_109\n        /* \"@openzeppelin/contracts/security/ReentrancyGuard.sol\":2261:2282  _nonReentrantBefore() */\n      jump\t// in\n    tag_295:\n        /* \"Contracts/Funding.sol\":6701:6728  Milestone storage milestone */\n      0x00\n        /* \"Contracts/Funding.sol\":6731:6741  milestones */\n      0x04\n        /* \"Contracts/Funding.sol\":6742:6747  index */\n      dup5\n        /* \"Contracts/Funding.sol\":6731:6748  milestones[index] */\n      dup2\n      sload\n      dup2\n      lt\n      tag_297\n      jumpi\n      tag_298\n      tag_137\n      jump\t// in\n    tag_298:\n    tag_297:\n      swap1\n      0x00\n      mstore\n      keccak256(0x00, 0x20)\n      swap1\n      0x04\n      mul\n      add\n        /* \"Contracts/Funding.sol\":6701:6748  Milestone storage milestone = milestones[index] */\n      swap1\n      pop\n        /* \"Contracts/Funding.sol\":6778:6787  milestone */\n      dup1\n        /* \"Contracts/Funding.sol\":6778:6796  milestone.released */\n      0x01\n      add\n      0x00\n      swap1\n      sload\n      swap1\n      0x0100\n      exp\n      swap1\n      div\n      0xff\n      and\n        /* \"Contracts/Funding.sol\":6777:6796  !milestone.released */\n      iszero\n        /* \"Contracts/Funding.sol\":6769:6817  require(!milestone.released, \"Already released\") */\n      tag_300\n      jumpi\n      mload(0x40)\n      0x08c379a000000000000000000000000000000000000000000000000000000000\n      dup2\n      mstore\n      0x04\n      add\n      tag_301\n      swap1\n      tag_141\n      jump\t// in\n    tag_301:\n      mload(0x40)\n      dup1\n      swap2\n      sub\n      swap1\n      revert\n    tag_300:\n        /* \"Contracts/Funding.sol\":6837:6846  milestone */\n      dup1\n        /* \"Contracts/Funding.sol\":6837:6856  milestone.cancelled */\n      0x01\n      add\n      0x01\n      swap1\n      sload\n      swap1\n      0x0100\n      exp\n      swap1\n      div\n      0xff\n      and\n        /* \"Contracts/Funding.sol\":6836:6856  !milestone.cancelled */\n      iszero\n        /* \"Contracts/Funding.sol\":6828:6878  require(!milestone.cancelled, \"Already cancelled\") */\n      tag_302\n      jumpi\n      mload(0x40)\n      0x08c379a000000000000000000000000000000000000000000000000000000000\n      dup2\n      mstore\n      0x04\n      add\n      tag_303\n      swap1\n      tag_304\n      jump\t// in\n    tag_303:\n      mload(0x40)\n      dup1\n      swap2\n      sub\n      swap1\n      revert\n    tag_302:\n        /* \"Contracts/Funding.sol\":6918:6919  0 */\n      0x00\n        /* \"Contracts/Funding.sol\":6897:6906  milestone */\n      dup2\n        /* \"Contracts/Funding.sol\":6897:6915  milestone.deadline */\n      0x02\n      add\n      sload\n        /* \"Contracts/Funding.sol\":6897:6919  milestone.deadline > 0 */\n      gt\n        /* \"Contracts/Funding.sol\":6889:6939  require(milestone.deadline > 0, \"No deadline set\") */\n      tag_305\n      jumpi\n      mload(0x40)\n      0x08c379a000000000000000000000000000000000000000000000000000000000\n      dup2\n      mstore\n      0x04\n      add\n      tag_306\n      swap1\n      tag_307\n      jump\t// in\n    tag_306:\n      mload(0x40)\n      dup1\n      swap2\n      sub\n      swap1\n      revert\n    tag_305:\n        /* \"Contracts/Funding.sol\":6976:6985  milestone */\n      dup1\n        /* \"Contracts/Funding.sol\":6976:6994  milestone.deadline */\n      0x02\n      add\n      sload\n        /* \"Contracts/Funding.sol\":6958:6973  block.timestamp */\n      timestamp\n        /* \"Contracts/Funding.sol\":6958:6994  block.timestamp > milestone.deadline */\n      gt\n        /* \"Contracts/Funding.sol\":6950:7018  require(block.timestamp > milestone.deadline, \"Deadline not passed\") */\n      tag_308\n      jumpi\n      mload(0x40)\n      0x08c379a000000000000000000000000000000000000000000000000000000000\n      dup2\n      mstore\n      0x04\n      add\n      tag_309\n      swap1\n      tag_310\n      jump\t// in\n    tag_309:\n      mload(0x40)\n      dup1\n      swap2\n      sub\n      swap1\n      revert\n    tag_308:\n        /* \"Contracts/Funding.sol\":7061:7065  true */\n      0x01\n        /* \"Contracts/Funding.sol\":7039:7048  milestone */\n      dup2\n        /* \"Contracts/Funding.sol\":7039:7058  milestone.cancelled */\n      0x01\n      add\n      0x01\n        /* \"Contracts/Funding.sol\":7039:7065  milestone.cancelled = true */\n      0x0100\n      exp\n      dup2\n      sload\n      dup2\n      0xff\n      mul\n      not\n      and\n      swap1\n      dup4\n      iszero\n      iszero\n      mul\n      or\n      swap1\n      sstore\n      pop\n        /* \"Contracts/Funding.sol\":7115:7166  paymentToken.safeTransfer(funder, milestone.amount) */\n      tag_311\n        /* \"Contracts/Funding.sol\":7141:7147  funder */\n      immutable(\"0xee6ed107ec78844a4d229eb2881175204622382692a68d0a6bc9dab5b9b1a469\")\n        /* \"Contracts/Funding.sol\":7149:7158  milestone */\n      dup3\n        /* \"Contracts/Funding.sol\":7149:7165  milestone.amount */\n      0x00\n      add\n      sload\n        /* \"Contracts/Funding.sol\":7115:7127  paymentToken */\n      immutable(\"0x162f7b8508eeb042919e192a88cd9658d8d9620c570a09aeeef475bc42e39ecf\")\n        /* \"Contracts/Funding.sol\":7115:7140  paymentToken.safeTransfer */\n      0xffffffffffffffffffffffffffffffffffffffff\n      and\n      tag_115\n      swap1\n        /* \"Contracts/Funding.sol\":7115:7166  paymentToken.safeTransfer(funder, milestone.amount) */\n      swap3\n      swap2\n      swap1\n      0xffffffff\n      and\n      jump\t// in\n    tag_311:\n        /* \"Contracts/Funding.sol\":7211:7216  index */\n      dup4\n        /* \"Contracts/Funding.sol\":7192:7235  MilestoneCancelled(index, milestone.amount) */\n      0xdadefb9d4c98ce0b09100daf8b195e7882f849f58f6760ff36762958c0f7b8a8\n        /* \"Contracts/Funding.sol\":7218:7227  milestone */\n      dup3\n        /* \"Contracts/Funding.sol\":7218:7234  milestone.amount */\n      0x00\n      add\n      sload\n        /* \"Contracts/Funding.sol\":7192:7235  MilestoneCancelled(index, milestone.amount) */\n      mload(0x40)\n      tag_312\n      swap2\n      swap1\n      tag_34\n      jump\t// in\n    tag_312:\n      mload(0x40)\n      dup1\n      swap2\n      sub\n      swap1\n      log2\n        /* \"Contracts/Funding.sol\":7306:7326  _checkCancellation() */\n      tag_313\n        /* \"Contracts/Funding.sol\":7306:7324  _checkCancellation */\n      tag_314\n        /* \"Contracts/Funding.sol\":7306:7326  _checkCancellation() */\n      jump\t// in\n    tag_313:\n        /* \"Contracts/Funding.sol\":6690:7334  {... */\n      pop\n        /* \"@openzeppelin/contracts/security/ReentrancyGuard.sol\":2303:2323  _nonReentrantAfter() */\n      tag_315\n        /* \"@openzeppelin/contracts/security/ReentrancyGuard.sol\":2303:2321  _nonReentrantAfter */\n      tag_119\n        /* \"@openzeppelin/contracts/security/ReentrancyGuard.sol\":2303:2323  _nonReentrantAfter() */\n      jump\t// in\n    tag_315:\n        /* \"Contracts/Funding.sol\":2649:2650  _ */\n      pop\n        /* \"Contracts/Funding.sol\":2268:2269  _ */\n      pop\n        /* \"Contracts/Funding.sol\":6511:7334  function cancelMilestone(uint256 index) ... */\n      pop\n      jump\t// out\n        /* \"@openzeppelin/contracts/security/ReentrancyGuard.sol\":2336:2623  function _nonReentrantBefore() private {... */\n    tag_109:\n        /* \"@openzeppelin/contracts/security/ReentrancyGuard.sol\":1759:1760  2 */\n      0x02\n        /* \"@openzeppelin/contracts/security/ReentrancyGuard.sol\":2468:2475  _status */\n      sload(0x00)\n        /* \"@openzeppelin/contracts/security/ReentrancyGuard.sol\":2468:2487  _status != _ENTERED */\n      sub\n        /* \"@openzeppelin/contracts/security/ReentrancyGuard.sol\":2460:2523  require(_status != _ENTERED, \"ReentrancyGuard: reentrant call\") */\n      tag_317\n      jumpi\n      mload(0x40)\n      0x08c379a000000000000000000000000000000000000000000000000000000000\n      dup2\n      mstore\n      0x04\n      add\n      tag_318\n      swap1\n      tag_319\n      jump\t// in\n    tag_318:\n      mload(0x40)\n      dup1\n      swap2\n      sub\n      swap1\n      revert\n    tag_317:\n        /* \"@openzeppelin/contracts/security/ReentrancyGuard.sol\":1759:1760  2 */\n      0x02\n        /* \"@openzeppelin/contracts/security/ReentrancyGuard.sol\":2598:2605  _status */\n      0x00\n        /* \"@openzeppelin/contracts/security/ReentrancyGuard.sol\":2598:2616  _status = _ENTERED */\n      dup2\n      swap1\n      sstore\n      pop\n        /* \"@openzeppelin/contracts/security/ReentrancyGuard.sol\":2336:2623  function _nonReentrantBefore() private {... */\n      jump\t// out\n        /* \"Contracts/Funding.sol\":11763:12066  function _getRemainingBalance() internal view returns (uint256) {... */\n    tag_112:\n        /* \"Contracts/Funding.sol\":11818:11825  uint256 */\n      0x00\n        /* \"Contracts/Funding.sol\":11838:11853  uint256 balance */\n      0x00\n        /* \"Contracts/Funding.sol\":11856:11868  paymentToken */\n      immutable(\"0x162f7b8508eeb042919e192a88cd9658d8d9620c570a09aeeef475bc42e39ecf\")\n        /* \"Contracts/Funding.sol\":11856:11878  paymentToken.balanceOf */\n      0xffffffffffffffffffffffffffffffffffffffff\n      and\n      0x70a08231\n        /* \"Contracts/Funding.sol\":11887:11891  this */\n      address\n        /* \"Contracts/Funding.sol\":11856:11893  paymentToken.balanceOf(address(this)) */\n      mload(0x40)\n      dup3\n      0xffffffff\n      and\n      0xe0\n      shl\n      dup2\n      mstore\n      0x04\n      add\n      tag_321\n      swap2\n      swap1\n      tag_30\n      jump\t// in\n    tag_321:\n      0x20\n      mload(0x40)\n      dup1\n      dup4\n      sub\n      dup2\n      dup7\n      gas\n      staticcall\n      iszero\n      dup1\n      iszero\n      tag_323\n      jumpi\n      returndatacopy(0x00, 0x00, returndatasize)\n      revert(0x00, returndatasize)\n    tag_323:\n      pop\n      pop\n      pop\n      pop\n      mload(0x40)\n      returndatasize\n      not(0x1f)\n      0x1f\n      dup3\n      add\n      and\n      dup3\n      add\n      dup1\n      0x40\n      mstore\n      pop\n      dup2\n      add\n      swap1\n      tag_324\n      swap2\n      swap1\n      tag_222\n      jump\t// in\n    tag_324:\n        /* \"Contracts/Funding.sol\":11838:11893  uint256 balance = paymentToken.balanceOf(address(this)) */\n      swap1\n      pop\n        /* \"Contracts/Funding.sol\":11967:11987  ProjectState.Created */\n      0x00\n        /* \"Contracts/Funding.sol\":11958:11987  state == ProjectState.Created */\n      0x04\n      dup2\n      gt\n      iszero\n      tag_325\n      jumpi\n      tag_326\n      tag_103\n      jump\t// in\n    tag_326:\n    tag_325:\n        /* \"Contracts/Funding.sol\":11958:11963  state */\n      0x01\n      0x00\n      swap1\n      sload\n      swap1\n      0x0100\n      exp\n      swap1\n      div\n      0xff\n      and\n        /* \"Contracts/Funding.sol\":11958:11987  state == ProjectState.Created */\n      0x04\n      dup2\n      gt\n      iszero\n      tag_327\n      jumpi\n      tag_328\n      tag_103\n      jump\t// in\n    tag_328:\n    tag_327:\n      sub\n        /* \"Contracts/Funding.sol\":11954:12024  if (state == ProjectState.Created) {... */\n      tag_329\n      jumpi\n        /* \"Contracts/Funding.sol\":12011:12012  0 */\n      0x00\n        /* \"Contracts/Funding.sol\":12004:12012  return 0 */\n      swap2\n      pop\n      pop\n      jump(tag_320)\n        /* \"Contracts/Funding.sol\":11954:12024  if (state == ProjectState.Created) {... */\n    tag_329:\n        /* \"Contracts/Funding.sol\":12051:12058  balance */\n      dup1\n        /* \"Contracts/Funding.sol\":12044:12058  return balance */\n      swap2\n      pop\n      pop\n        /* \"Contracts/Funding.sol\":11763:12066  function _getRemainingBalance() internal view returns (uint256) {... */\n    tag_320:\n      swap1\n      jump\t// out\n        /* \"@openzeppelin/contracts/token/ERC20/utils/SafeERC20.sol\":1219:1379  function safeTransfer(IERC20 token, address to, uint256 value) internal {... */\n    tag_115:\n        /* \"@openzeppelin/contracts/token/ERC20/utils/SafeERC20.sol\":1301:1372  _callOptionalReturn(token, abi.encodeCall(token.transfer, (to, value))) */\n      tag_331\n        /* \"@openzeppelin/contracts/token/ERC20/utils/SafeERC20.sol\":1321:1326  token */\n      dup4\n        /* \"@openzeppelin/contracts/token/ERC20/utils/SafeERC20.sol\":1343:1348  token */\n      dup5\n        /* \"@openzeppelin/contracts/token/ERC20/utils/SafeERC20.sol\":1343:1357  token.transfer */\n      0xffffffffffffffffffffffffffffffffffffffff\n      and\n      0xa9059cbb\n        /* \"@openzeppelin/contracts/token/ERC20/utils/SafeERC20.sol\":1360:1362  to */\n      dup6\n        /* \"@openzeppelin/contracts/token/ERC20/utils/SafeERC20.sol\":1364:1369  value */\n      dup6\n        /* \"@openzeppelin/contracts/token/ERC20/utils/SafeERC20.sol\":1328:1371  abi.encodeCall(token.transfer, (to, value)) */\n      add(0x24, mload(0x40))\n      tag_332\n      swap3\n      swap2\n      swap1\n      tag_333\n      jump\t// in\n    tag_332:\n      mload(0x40)\n      0x20\n      dup2\n      dup4\n      sub\n      sub\n      dup2\n      mstore\n      swap1\n      0x40\n      mstore\n      swap2\n      pop\n      0xe0\n      shl\n      0x20\n      dup3\n      add\n      dup1\n      mload\n      0xffffffffffffffffffffffffffffffffffffffffffffffffffffffff\n      dup4\n      dup2\n      dup4\n      and\n      or\n      dup4\n      mstore\n      pop\n      pop\n      pop\n      pop\n        /* \"@openzeppelin/contracts/token/ERC20/utils/SafeERC20.sol\":1301:1320  _callOptionalReturn */\n      tag_334\n        /* \"@openzeppelin/contracts/token/ERC20/utils/SafeERC20.sol\":1301:1372  _callOptionalReturn(token, abi.encodeCall(token.transfer, (to, value))) */\n      jump\t// in\n    tag_331:\n        /* \"@openzeppelin/contracts/token/ERC20/utils/SafeERC20.sol\":1219:1379  function safeTransfer(IERC20 token, address to, uint256 value) internal {... */\n      pop\n      pop\n      pop\n      jump\t// out\n        /* \"@openzeppelin/contracts/security/ReentrancyGuard.sol\":2629:2838  function _nonReentrantAfter() private {... */\n    tag_119:\n        /* \"@openzeppelin/contracts/security/ReentrancyGuard.sol\":1716:1717  1 */\n      0x01\n        /* \"@openzeppelin/contracts/security/ReentrancyGuard.sol\":2809:2816  _status */\n      0x00\n        /* \"@openzeppelin/contracts/security/ReentrancyGuard.sol\":2809:2831  _status = _NOT_ENTERED */\n      dup2\n      swap1\n      sstore\n      pop\n        /* \"@openzeppelin/contracts/security/ReentrancyGuard.sol\":2629:2838  function _nonReentrantAfter() private {... */\n      jump\t// out\n        /* \"Contracts/Funding.sol\":11034:11336  function _checkCompletion() internal {... */\n    tag_154:\n        /* \"Contracts/Funding.sol\":11087:11096  uint256 i */\n      0x00\n        /* \"Contracts/Funding.sol\":11099:11100  0 */\n      0x00\n        /* \"Contracts/Funding.sol\":11087:11100  uint256 i = 0 */\n      swap1\n      pop\n        /* \"Contracts/Funding.sol\":11082:11254  for (uint256 i = 0; i < milestones.length; i++) {... */\n    tag_337:\n        /* \"Contracts/Funding.sol\":11106:11116  milestones */\n      0x04\n        /* \"Contracts/Funding.sol\":11106:11123  milestones.length */\n      dup1\n      sload\n      swap1\n      pop\n        /* \"Contracts/Funding.sol\":11102:11103  i */\n      dup2\n        /* \"Contracts/Funding.sol\":11102:11123  i < milestones.length */\n      lt\n        /* \"Contracts/Funding.sol\":11082:11254  for (uint256 i = 0; i < milestones.length; i++) {... */\n      iszero\n      tag_338\n      jumpi\n        /* \"Contracts/Funding.sol\":11150:11160  milestones */\n      0x04\n        /* \"Contracts/Funding.sol\":11161:11162  i */\n      dup2\n        /* \"Contracts/Funding.sol\":11150:11163  milestones[i] */\n      dup2\n      sload\n      dup2\n      lt\n      tag_340\n      jumpi\n      tag_341\n      tag_137\n      jump\t// in\n    tag_341:\n    tag_340:\n      swap1\n      0x00\n      mstore\n      keccak256(0x00, 0x20)\n      swap1\n      0x04\n      mul\n      add\n        /* \"Contracts/Funding.sol\":11150:11172  milestones[i].released */\n      0x01\n      add\n      0x00\n      swap1\n      sload\n      swap1\n      0x0100\n      exp\n      swap1\n      div\n      0xff\n      and\n        /* \"Contracts/Funding.sol\":11149:11172  !milestones[i].released */\n      iszero\n        /* \"Contracts/Funding.sol\":11149:11200  !milestones[i].released && !milestones[i].cancelled */\n      dup1\n      iszero\n      tag_343\n      jumpi\n      pop\n        /* \"Contracts/Funding.sol\":11177:11187  milestones */\n      0x04\n        /* \"Contracts/Funding.sol\":11188:11189  i */\n      dup2\n        /* \"Contracts/Funding.sol\":11177:11190  milestones[i] */\n      dup2\n      sload\n      dup2\n      lt\n      tag_344\n      jumpi\n      tag_345\n      tag_137\n      jump\t// in\n    tag_345:\n    tag_344:\n      swap1\n      0x00\n      mstore\n      keccak256(0x00, 0x20)\n      swap1\n      0x04\n      mul\n      add\n        /* \"Contracts/Funding.sol\":11177:11200  milestones[i].cancelled */\n      0x01\n      add\n      0x01\n      swap1\n      sload\n      swap1\n      0x0100\n      exp\n      swap1\n      div\n      0xff\n      and\n        /* \"Contracts/Funding.sol\":11176:11200  !milestones[i].cancelled */\n      iszero\n        /* \"Contracts/Funding.sol\":11149:11200  !milestones[i].released && !milestones[i].cancelled */\n    tag_343:\n        /* \"Contracts/Funding.sol\":11145:11243  if (!milestones[i].released && !milestones[i].cancelled) {... */\n      iszero\n      tag_347\n      jumpi\n        /* \"Contracts/Funding.sol\":11221:11228  return; */\n      pop\n      jump(tag_336)\n        /* \"Contracts/Funding.sol\":11145:11243  if (!milestones[i].released && !milestones[i].cancelled) {... */\n    tag_347:\n        /* \"Contracts/Funding.sol\":11125:11128  i++ */\n      dup1\n      dup1\n      0x01\n      add\n      swap2\n      pop\n      pop\n        /* \"Contracts/Funding.sol\":11082:11254  for (uint256 i = 0; i < milestones.length; i++) {... */\n      jump(tag_337)\n    tag_338:\n      pop\n        /* \"Contracts/Funding.sol\":11272:11294  ProjectState.Completed */\n      0x02\n        /* \"Contracts/Funding.sol\":11264:11269  state */\n      0x01\n      0x00\n        /* \"Contracts/Funding.sol\":11264:11294  state = ProjectState.Completed */\n      0x0100\n      exp\n      dup2\n      sload\n      dup2\n      0xff\n      mul\n      not\n      and\n      swap1\n      dup4\n      0x04\n      dup2\n      gt\n      iszero\n      tag_348\n      jumpi\n      tag_349\n      tag_103\n      jump\t// in\n    tag_349:\n    tag_348:\n      mul\n      or\n      swap1\n      sstore\n      pop\n        /* \"Contracts/Funding.sol\":11310:11328  ProjectCompleted() */\n      0xe39866727217e43713c3728c5769515e8fb38e990b568b9831c1689dfdf67b66\n      mload(0x40)\n      mload(0x40)\n      dup1\n      swap2\n      sub\n      swap1\n      log1\n        /* \"Contracts/Funding.sol\":11034:11336  function _checkCompletion() internal {... */\n    tag_336:\n      jump\t// out\n        /* \"@openzeppelin/contracts/token/ERC20/utils/SafeERC20.sol\":1618:1806  function safeTransferFrom(IERC20 token, address from, address to, uint256 value) internal {... */\n    tag_272:\n        /* \"@openzeppelin/contracts/token/ERC20/utils/SafeERC20.sol\":1718:1799  _callOptionalReturn(token, abi.encodeCall(token.transferFrom, (from, to, value))) */\n      tag_351\n        /* \"@openzeppelin/contracts/token/ERC20/utils/SafeERC20.sol\":1738:1743  token */\n      dup5\n        /* \"@openzeppelin/contracts/token/ERC20/utils/SafeERC20.sol\":1760:1765  token */\n      dup6\n        /* \"@openzeppelin/contracts/token/ERC20/utils/SafeERC20.sol\":1760:1778  token.transferFrom */\n      0xffffffffffffffffffffffffffffffffffffffff\n      and\n      0x23b872dd\n        /* \"@openzeppelin/contracts/token/ERC20/utils/SafeERC20.sol\":1781:1785  from */\n      dup7\n        /* \"@openzeppelin/contracts/token/ERC20/utils/SafeERC20.sol\":1787:1789  to */\n      dup7\n        /* \"@openzeppelin/contracts/token/ERC20/utils/SafeERC20.sol\":1791:1796  value */\n      dup7\n        /* \"@openzeppelin/contracts/token/ERC20/utils/SafeERC20.sol\":1745:1798  abi.encodeCall(token.transferFrom, (from, to, value)) */\n      add(0x24, mload(0x40))\n      tag_352\n      swap4\n      swap3\n      swap2\n      swap1\n      tag_353\n      jump\t// in\n    tag_352:\n      mload(0x40)\n      0x20\n      dup2\n      dup4\n      sub\n      sub\n      dup2\n      mstore\n      swap1\n      0x40\n      mstore\n      swap2\n      pop\n      0xe0\n      shl\n      0x20\n      dup3\n      add\n      dup1\n      mload\n      0xffffffffffffffffffffffffffffffffffffffffffffffffffffffff\n      dup4\n      dup2\n      dup4\n      and\n      or\n      dup4\n      mstore\n      pop\n      pop\n      pop\n      pop\n        /* \"@openzeppelin/contracts/token/ERC20/utils/SafeERC20.sol\":1718:1737  _callOptionalReturn */\n      tag_334\n        /* \"@openzeppelin/contracts/token/ERC20/utils/SafeERC20.sol\":1718:1799  _callOptionalReturn(token, abi.encodeCall(token.transferFrom, (from, to, value))) */\n      jump\t// in\n    tag_351:\n        /* \"@openzeppelin/contracts/token/ERC20/utils/SafeERC20.sol\":1618:1806  function safeTransferFrom(IERC20 token, address from, address to, uint256 value) internal {... */\n      pop\n      pop\n      pop\n      pop\n      jump\t// out\n        /* \"Contracts/Funding.sol\":11409:11686  function _checkCancellation() internal {... */\n    tag_314:\n        /* \"Contracts/Funding.sol\":11464:11473  uint256 i */\n      0x00\n        /* \"Contracts/Funding.sol\":11476:11477  0 */\n      0x00\n        /* \"Contracts/Funding.sol\":11464:11477  uint256 i = 0 */\n      swap1\n      pop\n        /* \"Contracts/Funding.sol\":11459:11604  for (uint256 i = 0; i < milestones.length; i++) {... */\n    tag_355:\n        /* \"Contracts/Funding.sol\":11483:11493  milestones */\n      0x04\n        /* \"Contracts/Funding.sol\":11483:11500  milestones.length */\n      dup1\n      sload\n      swap1\n      pop\n        /* \"Contracts/Funding.sol\":11479:11480  i */\n      dup2\n        /* \"Contracts/Funding.sol\":11479:11500  i < milestones.length */\n      lt\n        /* \"Contracts/Funding.sol\":11459:11604  for (uint256 i = 0; i < milestones.length; i++) {... */\n      iszero\n      tag_356\n      jumpi\n        /* \"Contracts/Funding.sol\":11527:11537  milestones */\n      0x04\n        /* \"Contracts/Funding.sol\":11538:11539  i */\n      dup2\n        /* \"Contracts/Funding.sol\":11527:11540  milestones[i] */\n      dup2\n      sload\n      dup2\n      lt\n      tag_358\n      jumpi\n      tag_359\n      tag_137\n      jump\t// in\n    tag_359:\n    tag_358:\n      swap1\n      0x00\n      mstore\n      keccak256(0x00, 0x20)\n      swap1\n      0x04\n      mul\n      add\n        /* \"Contracts/Funding.sol\":11527:11550  milestones[i].cancelled */\n      0x01\n      add\n      0x01\n      swap1\n      sload\n      swap1\n      0x0100\n      exp\n      swap1\n      div\n      0xff\n      and\n        /* \"Contracts/Funding.sol\":11522:11593  if (!milestones[i].cancelled) {... */\n      tag_361\n      jumpi\n        /* \"Contracts/Funding.sol\":11571:11578  return; */\n      pop\n      jump(tag_354)\n        /* \"Contracts/Funding.sol\":11522:11593  if (!milestones[i].cancelled) {... */\n    tag_361:\n        /* \"Contracts/Funding.sol\":11502:11505  i++ */\n      dup1\n      dup1\n      0x01\n      add\n      swap2\n      pop\n      pop\n        /* \"Contracts/Funding.sol\":11459:11604  for (uint256 i = 0; i < milestones.length; i++) {... */\n      jump(tag_355)\n    tag_356:\n      pop\n        /* \"Contracts/Funding.sol\":11622:11644  ProjectState.Cancelled */\n      0x03\n        /* \"Contracts/Funding.sol\":11614:11619  state */\n      0x01\n      0x00\n        /* \"Contracts/Funding.sol\":11614:11644  state = ProjectState.Cancelled */\n      0x0100\n      exp\n      dup2\n      sload\n      dup2\n      0xff\n      mul\n      not\n      and\n      swap1\n      dup4\n      0x04\n      dup2\n      gt\n      iszero\n      tag_362\n      jumpi\n      tag_363\n      tag_103\n      jump\t// in\n    tag_363:\n    tag_362:\n      mul\n      or\n      swap1\n      sstore\n      pop\n        /* \"Contracts/Funding.sol\":11660:11678  ProjectCancelled() */\n      0x92c439fda90c70ccdedcb94d28a14f9fda69d67124efbbe9bf905740194228c8\n      mload(0x40)\n      mload(0x40)\n      dup1\n      swap2\n      sub\n      swap1\n      log1\n        /* \"Contracts/Funding.sol\":11409:11686  function _checkCancellation() internal {... */\n    tag_354:\n      jump\t// out\n        /* \"@openzeppelin/contracts/token/ERC20/utils/SafeERC20.sol\":8370:9090  function _callOptionalReturn(IERC20 token, bytes memory data) private {... */\n    tag_334:\n        /* \"@openzeppelin/contracts/token/ERC20/utils/SafeERC20.sol\":8450:8468  uint256 returnSize */\n      0x00\n        /* \"@openzeppelin/contracts/token/ERC20/utils/SafeERC20.sol\":8478:8497  uint256 returnValue */\n      0x00\n        /* \"@openzeppelin/contracts/token/ERC20/utils/SafeERC20.sol\":8616:8620  0x20 */\n      0x20\n        /* \"@openzeppelin/contracts/token/ERC20/utils/SafeERC20.sol\":8613:8614  0 */\n      0x00\n        /* \"@openzeppelin/contracts/token/ERC20/utils/SafeERC20.sol\":8606:8610  data */\n      dup5\n        /* \"@openzeppelin/contracts/token/ERC20/utils/SafeERC20.sol\":8600:8611  mload(data) */\n      mload\n        /* \"@openzeppelin/contracts/token/ERC20/utils/SafeERC20.sol\":8593:8597  0x20 */\n      0x20\n        /* \"@openzeppelin/contracts/token/ERC20/utils/SafeERC20.sol\":8587:8591  data */\n      dup7\n        /* \"@openzeppelin/contracts/token/ERC20/utils/SafeERC20.sol\":8583:8598  add(data, 0x20) */\n      add\n        /* \"@openzeppelin/contracts/token/ERC20/utils/SafeERC20.sol\":8580:8581  0 */\n      0x00\n        /* \"@openzeppelin/contracts/token/ERC20/utils/SafeERC20.sol\":8573:8578  token */\n      dup9\n        /* \"@openzeppelin/contracts/token/ERC20/utils/SafeERC20.sol\":8566:8571  gas() */\n      gas\n        /* \"@openzeppelin/contracts/token/ERC20/utils/SafeERC20.sol\":8561:8621  call(gas(), token, 0, add(data, 0x20), mload(data), 0, 0x20) */\n      call\n        /* \"@openzeppelin/contracts/token/ERC20/utils/SafeERC20.sol\":8673:8680  success */\n      dup1\n        /* \"@openzeppelin/contracts/token/ERC20/utils/SafeERC20.sol\":8663:8839  if iszero(success) {... */\n      tag_365\n      jumpi\n        /* \"@openzeppelin/contracts/token/ERC20/utils/SafeERC20.sol\":8717:8721  0x40 */\n      0x40\n        /* \"@openzeppelin/contracts/token/ERC20/utils/SafeERC20.sol\":8711:8722  mload(0x40) */\n      mload\n        /* \"@openzeppelin/contracts/token/ERC20/utils/SafeERC20.sol\":8762:8778  returndatasize() */\n      returndatasize\n        /* \"@openzeppelin/contracts/token/ERC20/utils/SafeERC20.sol\":8759:8760  0 */\n      0x00\n        /* \"@openzeppelin/contracts/token/ERC20/utils/SafeERC20.sol\":8754:8757  ptr */\n      dup3\n        /* \"@openzeppelin/contracts/token/ERC20/utils/SafeERC20.sol\":8739:8779  returndatacopy(ptr, 0, returndatasize()) */\n      returndatacopy\n        /* \"@openzeppelin/contracts/token/ERC20/utils/SafeERC20.sol\":8808:8824  returndatasize() */\n      returndatasize\n        /* \"@openzeppelin/contracts/token/ERC20/utils/SafeERC20.sol\":8803:8806  ptr */\n      dup2\n        /* \"@openzeppelin/contracts/token/ERC20/utils/SafeERC20.sol\":8796:8825  revert(ptr, returndatasize()) */\n      revert\n        /* \"@openzeppelin/contracts/token/ERC20/utils/SafeERC20.sol\":8663:8839  if iszero(success) {... */\n    tag_365:\n        /* \"@openzeppelin/contracts/token/ERC20/utils/SafeERC20.sol\":8866:8882  returndatasize() */\n      returndatasize\n        /* \"@openzeppelin/contracts/token/ERC20/utils/SafeERC20.sol\":8852:8882  returnSize := returndatasize() */\n      swap3\n      pop\n        /* \"@openzeppelin/contracts/token/ERC20/utils/SafeERC20.sol\":8916:8917  0 */\n      0x00\n        /* \"@openzeppelin/contracts/token/ERC20/utils/SafeERC20.sol\":8910:8918  mload(0) */\n      mload\n        /* \"@openzeppelin/contracts/token/ERC20/utils/SafeERC20.sol\":8895:8918  returnValue := mload(0) */\n      swap2\n      pop\n        /* \"@openzeppelin/contracts/token/ERC20/utils/SafeERC20.sol\":8532:8928  {... */\n      pop\n        /* \"@openzeppelin/contracts/token/ERC20/utils/SafeERC20.sol\":8956:8957  0 */\n      0x00\n        /* \"@openzeppelin/contracts/token/ERC20/utils/SafeERC20.sol\":8942:8952  returnSize */\n      dup3\n        /* \"@openzeppelin/contracts/token/ERC20/utils/SafeERC20.sol\":8942:8957  returnSize == 0 */\n      eq\n        /* \"@openzeppelin/contracts/token/ERC20/utils/SafeERC20.sol\":8942:9010  returnSize == 0 ? address(token).code.length == 0 : returnValue != 1 */\n      tag_366\n      jumpi\n        /* \"@openzeppelin/contracts/token/ERC20/utils/SafeERC20.sol\":9009:9010  1 */\n      0x01\n        /* \"@openzeppelin/contracts/token/ERC20/utils/SafeERC20.sol\":8994:9005  returnValue */\n      dup2\n        /* \"@openzeppelin/contracts/token/ERC20/utils/SafeERC20.sol\":8994:9010  returnValue != 1 */\n      eq\n      iszero\n        /* \"@openzeppelin/contracts/token/ERC20/utils/SafeERC20.sol\":8942:9010  returnSize == 0 ? address(token).code.length == 0 : returnValue != 1 */\n      jump(tag_367)\n    tag_366:\n        /* \"@openzeppelin/contracts/token/ERC20/utils/SafeERC20.sol\":8990:8991  0 */\n      0x00\n        /* \"@openzeppelin/contracts/token/ERC20/utils/SafeERC20.sol\":8968:8973  token */\n      dup5\n        /* \"@openzeppelin/contracts/token/ERC20/utils/SafeERC20.sol\":8960:8986  address(token).code.length */\n      0xffffffffffffffffffffffffffffffffffffffff\n      and\n      extcodesize\n        /* \"@openzeppelin/contracts/token/ERC20/utils/SafeERC20.sol\":8960:8991  address(token).code.length == 0 */\n      eq\n        /* \"@openzeppelin/contracts/token/ERC20/utils/SafeERC20.sol\":8942:9010  returnSize == 0 ? address(token).code.length == 0 : returnValue != 1 */\n    tag_367:\n        /* \"@openzeppelin/contracts/token/ERC20/utils/SafeERC20.sol\":8938:9084  if (returnSize == 0 ? address(token).code.length == 0 : returnValue != 1) {... */\n      iszero\n      tag_368\n      jumpi\n        /* \"@openzeppelin/contracts/token/ERC20/utils/SafeERC20.sol\":9066:9071  token */\n      dup4\n        /* \"@openzeppelin/contracts/token/ERC20/utils/SafeERC20.sol\":9033:9073  SafeERC20FailedOperation(address(token)) */\n      mload(0x40)\n      0x5274afe700000000000000000000000000000000000000000000000000000000\n      dup2\n      mstore\n      0x04\n      add\n      tag_369\n      swap2\n      swap1\n      tag_30\n      jump\t// in\n    tag_369:\n      mload(0x40)\n      dup1\n      swap2\n      sub\n      swap1\n      revert\n        /* \"@openzeppelin/contracts/token/ERC20/utils/SafeERC20.sol\":8938:9084  if (returnSize == 0 ? address(token).code.length == 0 : returnValue != 1) {... */\n    tag_368:\n        /* \"@openzeppelin/contracts/token/ERC20/utils/SafeERC20.sol\":8440:9090  {... */\n      pop\n      pop\n        /* \"@openzeppelin/contracts/token/ERC20/utils/SafeERC20.sol\":8370:9090  function _callOptionalReturn(IERC20 token, bytes memory data) private {... */\n      pop\n      pop\n      jump\t// out\n        /* \"#utility.yul\":7:133   */\n    tag_370:\n        /* \"#utility.yul\":44:51   */\n      0x00\n        /* \"#utility.yul\":84:126   */\n      0xffffffffffffffffffffffffffffffffffffffff\n        /* \"#utility.yul\":77:82   */\n      dup3\n        /* \"#utility.yul\":73:127   */\n      and\n        /* \"#utility.yul\":62:127   */\n      swap1\n      pop\n        /* \"#utility.yul\":7:133   */\n      swap2\n      swap1\n      pop\n      jump\t// out\n        /* \"#utility.yul\":139:235   */\n    tag_371:\n        /* \"#utility.yul\":176:183   */\n      0x00\n        /* \"#utility.yul\":205:229   */\n      tag_440\n        /* \"#utility.yul\":223:228   */\n      dup3\n        /* \"#utility.yul\":205:229   */\n      tag_370\n      jump\t// in\n    tag_440:\n        /* \"#utility.yul\":194:229   */\n      swap1\n      pop\n        /* \"#utility.yul\":139:235   */\n      swap2\n      swap1\n      pop\n      jump\t// out\n        /* \"#utility.yul\":241:359   */\n    tag_372:\n        /* \"#utility.yul\":328:352   */\n      tag_442\n        /* \"#utility.yul\":346:351   */\n      dup2\n        /* \"#utility.yul\":328:352   */\n      tag_371\n      jump\t// in\n    tag_442:\n        /* \"#utility.yul\":323:326   */\n      dup3\n        /* \"#utility.yul\":316:353   */\n      mstore\n        /* \"#utility.yul\":241:359   */\n      pop\n      pop\n      jump\t// out\n        /* \"#utility.yul\":365:587   */\n    tag_30:\n        /* \"#utility.yul\":458:462   */\n      0x00\n        /* \"#utility.yul\":496:498   */\n      0x20\n        /* \"#utility.yul\":485:494   */\n      dup3\n        /* \"#utility.yul\":481:499   */\n      add\n        /* \"#utility.yul\":473:499   */\n      swap1\n      pop\n        /* \"#utility.yul\":509:580   */\n      tag_444\n        /* \"#utility.yul\":577:578   */\n      0x00\n        /* \"#utility.yul\":566:575   */\n      dup4\n        /* \"#utility.yul\":562:579   */\n      add\n        /* \"#utility.yul\":553:559   */\n      dup5\n        /* \"#utility.yul\":509:580   */\n      tag_372\n      jump\t// in\n    tag_444:\n        /* \"#utility.yul\":365:587   */\n      swap3\n      swap2\n      pop\n      pop\n      jump\t// out\n        /* \"#utility.yul\":593:670   */\n    tag_373:\n        /* \"#utility.yul\":630:637   */\n      0x00\n        /* \"#utility.yul\":659:664   */\n      dup2\n        /* \"#utility.yul\":648:664   */\n      swap1\n      pop\n        /* \"#utility.yul\":593:670   */\n      swap2\n      swap1\n      pop\n      jump\t// out\n        /* \"#utility.yul\":676:794   */\n    tag_374:\n        /* \"#utility.yul\":763:787   */\n      tag_447\n        /* \"#utility.yul\":781:786   */\n      dup2\n        /* \"#utility.yul\":763:787   */\n      tag_373\n      jump\t// in\n    tag_447:\n        /* \"#utility.yul\":758:761   */\n      dup3\n        /* \"#utility.yul\":751:788   */\n      mstore\n        /* \"#utility.yul\":676:794   */\n      pop\n      pop\n      jump\t// out\n        /* \"#utility.yul\":800:1022   */\n    tag_34:\n        /* \"#utility.yul\":893:897   */\n      0x00\n        /* \"#utility.yul\":931:933   */\n      0x20\n        /* \"#utility.yul\":920:929   */\n      dup3\n        /* \"#utility.yul\":916:934   */\n      add\n        /* \"#utility.yul\":908:934   */\n      swap1\n      pop\n        /* \"#utility.yul\":944:1015   */\n      tag_449\n        /* \"#utility.yul\":1012:1013   */\n      0x00\n        /* \"#utility.yul\":1001:1010   */\n      dup4\n        /* \"#utility.yul\":997:1014   */\n      add\n        /* \"#utility.yul\":988:994   */\n      dup5\n        /* \"#utility.yul\":944:1015   */\n      tag_374\n      jump\t// in\n    tag_449:\n        /* \"#utility.yul\":800:1022   */\n      swap3\n      swap2\n      pop\n      pop\n      jump\t// out\n        /* \"#utility.yul\":1028:1088   */\n    tag_375:\n        /* \"#utility.yul\":1056:1059   */\n      0x00\n        /* \"#utility.yul\":1077:1082   */\n      dup2\n        /* \"#utility.yul\":1070:1082   */\n      swap1\n      pop\n        /* \"#utility.yul\":1028:1088   */\n      swap2\n      swap1\n      pop\n      jump\t// out\n        /* \"#utility.yul\":1094:1236   */\n    tag_376:\n        /* \"#utility.yul\":1144:1153   */\n      0x00\n        /* \"#utility.yul\":1177:1230   */\n      tag_452\n        /* \"#utility.yul\":1195:1229   */\n      tag_453\n        /* \"#utility.yul\":1204:1228   */\n      tag_454\n        /* \"#utility.yul\":1222:1227   */\n      dup5\n        /* \"#utility.yul\":1204:1228   */\n      tag_370\n      jump\t// in\n    tag_454:\n        /* \"#utility.yul\":1195:1229   */\n      tag_375\n      jump\t// in\n    tag_453:\n        /* \"#utility.yul\":1177:1230   */\n      tag_370\n      jump\t// in\n    tag_452:\n        /* \"#utility.yul\":1164:1230   */\n      swap1\n      pop\n        /* \"#utility.yul\":1094:1236   */\n      swap2\n      swap1\n      pop\n      jump\t// out\n        /* \"#utility.yul\":1242:1368   */\n    tag_377:\n        /* \"#utility.yul\":1292:1301   */\n      0x00\n        /* \"#utility.yul\":1325:1362   */\n      tag_456\n        /* \"#utility.yul\":1356:1361   */\n      dup3\n        /* \"#utility.yul\":1325:1362   */\n      tag_376\n      jump\t// in\n    tag_456:\n        /* \"#utility.yul\":1312:1362   */\n      swap1\n      pop\n        /* \"#utility.yul\":1242:1368   */\n      swap2\n      swap1\n      pop\n      jump\t// out\n        /* \"#utility.yul\":1374:1514   */\n    tag_378:\n        /* \"#utility.yul\":1438:1447   */\n      0x00\n        /* \"#utility.yul\":1471:1508   */\n      tag_458\n        /* \"#utility.yul\":1502:1507   */\n      dup3\n        /* \"#utility.yul\":1471:1508   */\n      tag_377\n      jump\t// in\n    tag_458:\n        /* \"#utility.yul\":1458:1508   */\n      swap1\n      pop\n        /* \"#utility.yul\":1374:1514   */\n      swap2\n      swap1\n      pop\n      jump\t// out\n        /* \"#utility.yul\":1520:1679   */\n    tag_379:\n        /* \"#utility.yul\":1621:1672   */\n      tag_460\n        /* \"#utility.yul\":1666:1671   */\n      dup2\n        /* \"#utility.yul\":1621:1672   */\n      tag_378\n      jump\t// in\n    tag_460:\n        /* \"#utility.yul\":1616:1619   */\n      dup3\n        /* \"#utility.yul\":1609:1673   */\n      mstore\n        /* \"#utility.yul\":1520:1679   */\n      pop\n      pop\n      jump\t// out\n        /* \"#utility.yul\":1685:1935   */\n    tag_46:\n        /* \"#utility.yul\":1792:1796   */\n      0x00\n        /* \"#utility.yul\":1830:1832   */\n      0x20\n        /* \"#utility.yul\":1819:1828   */\n      dup3\n        /* \"#utility.yul\":1815:1833   */\n      add\n        /* \"#utility.yul\":1807:1833   */\n      swap1\n      pop\n        /* \"#utility.yul\":1843:1928   */\n      tag_462\n        /* \"#utility.yul\":1925:1926   */\n      0x00\n        /* \"#utility.yul\":1914:1923   */\n      dup4\n        /* \"#utility.yul\":1910:1927   */\n      add\n        /* \"#utility.yul\":1901:1907   */\n      dup5\n        /* \"#utility.yul\":1843:1928   */\n      tag_379\n      jump\t// in\n    tag_462:\n        /* \"#utility.yul\":1685:1935   */\n      swap3\n      swap2\n      pop\n      pop\n      jump\t// out\n        /* \"#utility.yul\":1941:2016   */\n    tag_380:\n        /* \"#utility.yul\":1974:1980   */\n      0x00\n        /* \"#utility.yul\":2007:2009   */\n      0x40\n        /* \"#utility.yul\":2001:2010   */\n      mload\n        /* \"#utility.yul\":1991:2010   */\n      swap1\n      pop\n        /* \"#utility.yul\":1941:2016   */\n      swap1\n      jump\t// out\n        /* \"#utility.yul\":2022:2139   */\n    tag_381:\n        /* \"#utility.yul\":2131:2132   */\n      0x00\n        /* \"#utility.yul\":2128:2129   */\n      0x00\n        /* \"#utility.yul\":2121:2133   */\n      revert\n        /* \"#utility.yul\":2145:2262   */\n    tag_382:\n        /* \"#utility.yul\":2254:2255   */\n      0x00\n        /* \"#utility.yul\":2251:2252   */\n      0x00\n        /* \"#utility.yul\":2244:2256   */\n      revert\n        /* \"#utility.yul\":2268:2390   */\n    tag_383:\n        /* \"#utility.yul\":2341:2365   */\n      tag_467\n        /* \"#utility.yul\":2359:2364   */\n      dup2\n        /* \"#utility.yul\":2341:2365   */\n      tag_373\n      jump\t// in\n    tag_467:\n        /* \"#utility.yul\":2334:2339   */\n      dup2\n        /* \"#utility.yul\":2331:2366   */\n      eq\n        /* \"#utility.yul\":2321:2384   */\n      tag_468\n      jumpi\n        /* \"#utility.yul\":2380:2381   */\n      0x00\n        /* \"#utility.yul\":2377:2378   */\n      0x00\n        /* \"#utility.yul\":2370:2382   */\n      revert\n        /* \"#utility.yul\":2321:2384   */\n    tag_468:\n        /* \"#utility.yul\":2268:2390   */\n      pop\n      jump\t// out\n        /* \"#utility.yul\":2396:2535   */\n    tag_384:\n        /* \"#utility.yul\":2442:2447   */\n      0x00\n        /* \"#utility.yul\":2480:2486   */\n      dup2\n        /* \"#utility.yul\":2467:2487   */\n      calldataload\n        /* \"#utility.yul\":2458:2487   */\n      swap1\n      pop\n        /* \"#utility.yul\":2496:2529   */\n      tag_470\n        /* \"#utility.yul\":2523:2528   */\n      dup2\n        /* \"#utility.yul\":2496:2529   */\n      tag_383\n      jump\t// in\n    tag_470:\n        /* \"#utility.yul\":2396:2535   */\n      swap3\n      swap2\n      pop\n      pop\n      jump\t// out\n        /* \"#utility.yul\":2541:2870   */\n    tag_49:\n        /* \"#utility.yul\":2600:2606   */\n      0x00\n        /* \"#utility.yul\":2649:2651   */\n      0x20\n        /* \"#utility.yul\":2637:2646   */\n      dup3\n        /* \"#utility.yul\":2628:2635   */\n      dup5\n        /* \"#utility.yul\":2624:2647   */\n      sub\n        /* \"#utility.yul\":2620:2652   */\n      slt\n        /* \"#utility.yul\":2617:2736   */\n      iszero\n      tag_472\n      jumpi\n        /* \"#utility.yul\":2655:2734   */\n      tag_473\n      tag_381\n      jump\t// in\n    tag_473:\n        /* \"#utility.yul\":2617:2736   */\n    tag_472:\n        /* \"#utility.yul\":2775:2776   */\n      0x00\n        /* \"#utility.yul\":2800:2853   */\n      tag_474\n        /* \"#utility.yul\":2845:2852   */\n      dup5\n        /* \"#utility.yul\":2836:2842   */\n      dup3\n        /* \"#utility.yul\":2825:2834   */\n      dup6\n        /* \"#utility.yul\":2821:2843   */\n      add\n        /* \"#utility.yul\":2800:2853   */\n      tag_384\n      jump\t// in\n    tag_474:\n        /* \"#utility.yul\":2790:2853   */\n      swap2\n      pop\n        /* \"#utility.yul\":2746:2863   */\n      pop\n        /* \"#utility.yul\":2541:2870   */\n      swap3\n      swap2\n      pop\n      pop\n      jump\t// out\n        /* \"#utility.yul\":2876:2966   */\n    tag_385:\n        /* \"#utility.yul\":2910:2917   */\n      0x00\n        /* \"#utility.yul\":2953:2958   */\n      dup2\n        /* \"#utility.yul\":2946:2959   */\n      iszero\n        /* \"#utility.yul\":2939:2960   */\n      iszero\n        /* \"#utility.yul\":2928:2960   */\n      swap1\n      pop\n        /* \"#utility.yul\":2876:2966   */\n      swap2\n      swap1\n      pop\n      jump\t// out\n        /* \"#utility.yul\":2972:3081   */\n    tag_386:\n        /* \"#utility.yul\":3053:3074   */\n      tag_477\n        /* \"#utility.yul\":3068:3073   */\n      dup2\n        /* \"#utility.yul\":3053:3074   */\n      tag_385\n      jump\t// in\n    tag_477:\n        /* \"#utility.yul\":3048:3051   */\n      dup3\n        /* \"#utility.yul\":3041:3075   */\n      mstore\n        /* \"#utility.yul\":2972:3081   */\n      pop\n      pop\n      jump\t// out\n        /* \"#utility.yul\":3087:3297   */\n    tag_54:\n        /* \"#utility.yul\":3174:3178   */\n      0x00\n        /* \"#utility.yul\":3212:3214   */\n      0x20\n        /* \"#utility.yul\":3201:3210   */\n      dup3\n        /* \"#utility.yul\":3197:3215   */\n      add\n        /* \"#utility.yul\":3189:3215   */\n      swap1\n      pop\n        /* \"#utility.yul\":3225:3290   */\n      tag_479\n        /* \"#utility.yul\":3287:3288   */\n      0x00\n        /* \"#utility.yul\":3276:3285   */\n      dup4\n        /* \"#utility.yul\":3272:3289   */\n      add\n        /* \"#utility.yul\":3263:3269   */\n      dup5\n        /* \"#utility.yul\":3225:3290   */\n      tag_386\n      jump\t// in\n    tag_479:\n        /* \"#utility.yul\":3087:3297   */\n      swap3\n      swap2\n      pop\n      pop\n      jump\t// out\n        /* \"#utility.yul\":3303:3402   */\n    tag_387:\n        /* \"#utility.yul\":3355:3361   */\n      0x00\n        /* \"#utility.yul\":3389:3394   */\n      dup2\n        /* \"#utility.yul\":3383:3395   */\n      mload\n        /* \"#utility.yul\":3373:3395   */\n      swap1\n      pop\n        /* \"#utility.yul\":3303:3402   */\n      swap2\n      swap1\n      pop\n      jump\t// out\n        /* \"#utility.yul\":3408:3577   */\n    tag_388:\n        /* \"#utility.yul\":3492:3503   */\n      0x00\n        /* \"#utility.yul\":3526:3532   */\n      dup3\n        /* \"#utility.yul\":3521:3524   */\n      dup3\n        /* \"#utility.yul\":3514:3533   */\n      mstore\n        /* \"#utility.yul\":3566:3570   */\n      0x20\n        /* \"#utility.yul\":3561:3564   */\n      dup3\n        /* \"#utility.yul\":3557:3571   */\n      add\n        /* \"#utility.yul\":3542:3571   */\n      swap1\n      pop\n        /* \"#utility.yul\":3408:3577   */\n      swap3\n      swap2\n      pop\n      pop\n      jump\t// out\n        /* \"#utility.yul\":3583:3722   */\n    tag_389:\n        /* \"#utility.yul\":3672:3678   */\n      dup3\n        /* \"#utility.yul\":3667:3670   */\n      dup2\n        /* \"#utility.yul\":3662:3665   */\n      dup4\n        /* \"#utility.yul\":3656:3679   */\n      mcopy\n        /* \"#utility.yul\":3713:3714   */\n      0x00\n        /* \"#utility.yul\":3704:3710   */\n      dup4\n        /* \"#utility.yul\":3699:3702   */\n      dup4\n        /* \"#utility.yul\":3695:3711   */\n      add\n        /* \"#utility.yul\":3688:3715   */\n      mstore\n        /* \"#utility.yul\":3583:3722   */\n      pop\n      pop\n      pop\n      jump\t// out\n        /* \"#utility.yul\":3728:3830   */\n    tag_390:\n        /* \"#utility.yul\":3769:3775   */\n      0x00\n        /* \"#utility.yul\":3820:3822   */\n      0x1f\n        /* \"#utility.yul\":3816:3823   */\n      not\n        /* \"#utility.yul\":3811:3813   */\n      0x1f\n        /* \"#utility.yul\":3804:3809   */\n      dup4\n        /* \"#utility.yul\":3800:3814   */\n      add\n        /* \"#utility.yul\":3796:3824   */\n      and\n        /* \"#utility.yul\":3786:3824   */\n      swap1\n      pop\n        /* \"#utility.yul\":3728:3830   */\n      swap2\n      swap1\n      pop\n      jump\t// out\n        /* \"#utility.yul\":3836:4213   */\n    tag_391:\n        /* \"#utility.yul\":3924:3927   */\n      0x00\n        /* \"#utility.yul\":3952:3991   */\n      tag_485\n        /* \"#utility.yul\":3985:3990   */\n      dup3\n        /* \"#utility.yul\":3952:3991   */\n      tag_387\n      jump\t// in\n    tag_485:\n        /* \"#utility.yul\":4007:4078   */\n      tag_486\n        /* \"#utility.yul\":4071:4077   */\n      dup2\n        /* \"#utility.yul\":4066:4069   */\n      dup6\n        /* \"#utility.yul\":4007:4078   */\n      tag_388\n      jump\t// in\n    tag_486:\n        /* \"#utility.yul\":4000:4078   */\n      swap4\n      pop\n        /* \"#utility.yul\":4087:4152   */\n      tag_487\n        /* \"#utility.yul\":4145:4151   */\n      dup2\n        /* \"#utility.yul\":4140:4143   */\n      dup6\n        /* \"#utility.yul\":4133:4137   */\n      0x20\n        /* \"#utility.yul\":4126:4131   */\n      dup7\n        /* \"#utility.yul\":4122:4138   */\n      add\n        /* \"#utility.yul\":4087:4152   */\n      tag_389\n      jump\t// in\n    tag_487:\n        /* \"#utility.yul\":4177:4206   */\n      tag_488\n        /* \"#utility.yul\":4199:4205   */\n      dup2\n        /* \"#utility.yul\":4177:4206   */\n      tag_390\n      jump\t// in\n    tag_488:\n        /* \"#utility.yul\":4172:4175   */\n      dup5\n        /* \"#utility.yul\":4168:4207   */\n      add\n        /* \"#utility.yul\":4161:4207   */\n      swap2\n      pop\n        /* \"#utility.yul\":3928:4213   */\n      pop\n        /* \"#utility.yul\":3836:4213   */\n      swap3\n      swap2\n      pop\n      pop\n      jump\t// out\n        /* \"#utility.yul\":4219:4532   */\n    tag_61:\n        /* \"#utility.yul\":4332:4336   */\n      0x00\n        /* \"#utility.yul\":4370:4372   */\n      0x20\n        /* \"#utility.yul\":4359:4368   */\n      dup3\n        /* \"#utility.yul\":4355:4373   */\n      add\n        /* \"#utility.yul\":4347:4373   */\n      swap1\n      pop\n        /* \"#utility.yul\":4419:4428   */\n      dup2\n        /* \"#utility.yul\":4413:4417   */\n      dup2\n        /* \"#utility.yul\":4409:4429   */\n      sub\n        /* \"#utility.yul\":4405:4406   */\n      0x00\n        /* \"#utility.yul\":4394:4403   */\n      dup4\n        /* \"#utility.yul\":4390:4407   */\n      add\n        /* \"#utility.yul\":4383:4430   */\n      mstore\n        /* \"#utility.yul\":4447:4525   */\n      tag_490\n        /* \"#utility.yul\":4520:4524   */\n      dup2\n        /* \"#utility.yul\":4511:4517   */\n      dup5\n        /* \"#utility.yul\":4447:4525   */\n      tag_391\n      jump\t// in\n    tag_490:\n        /* \"#utility.yul\":4439:4525   */\n      swap1\n      pop\n        /* \"#utility.yul\":4219:4532   */\n      swap3\n      swap2\n      pop\n      pop\n      jump\t// out\n        /* \"#utility.yul\":4538:4678   */\n    tag_392:\n        /* \"#utility.yul\":4631:4637   */\n      0x00\n        /* \"#utility.yul\":4665:4670   */\n      dup2\n        /* \"#utility.yul\":4659:4671   */\n      mload\n        /* \"#utility.yul\":4649:4671   */\n      swap1\n      pop\n        /* \"#utility.yul\":4538:4678   */\n      swap2\n      swap1\n      pop\n      jump\t// out\n        /* \"#utility.yul\":4684:4894   */\n    tag_393:\n        /* \"#utility.yul\":4809:4820   */\n      0x00\n        /* \"#utility.yul\":4843:4849   */\n      dup3\n        /* \"#utility.yul\":4838:4841   */\n      dup3\n        /* \"#utility.yul\":4831:4850   */\n      mstore\n        /* \"#utility.yul\":4883:4887   */\n      0x20\n        /* \"#utility.yul\":4878:4881   */\n      dup3\n        /* \"#utility.yul\":4874:4888   */\n      add\n        /* \"#utility.yul\":4859:4888   */\n      swap1\n      pop\n        /* \"#utility.yul\":4684:4894   */\n      swap3\n      swap2\n      pop\n      pop\n      jump\t// out\n        /* \"#utility.yul\":4900:5058   */\n    tag_394:\n        /* \"#utility.yul\":4993:4997   */\n      0x00\n        /* \"#utility.yul\":5016:5019   */\n      dup2\n        /* \"#utility.yul\":5008:5019   */\n      swap1\n      pop\n        /* \"#utility.yul\":5046:5050   */\n      0x20\n        /* \"#utility.yul\":5041:5044   */\n      dup3\n        /* \"#utility.yul\":5037:5051   */\n      add\n        /* \"#utility.yul\":5029:5051   */\n      swap1\n      pop\n        /* \"#utility.yul\":4900:5058   */\n      swap2\n      swap1\n      pop\n      jump\t// out\n        /* \"#utility.yul\":5064:5172   */\n    tag_395:\n        /* \"#utility.yul\":5141:5165   */\n      tag_495\n        /* \"#utility.yul\":5159:5164   */\n      dup2\n        /* \"#utility.yul\":5141:5165   */\n      tag_373\n      jump\t// in\n    tag_495:\n        /* \"#utility.yul\":5136:5139   */\n      dup3\n        /* \"#utility.yul\":5129:5166   */\n      mstore\n        /* \"#utility.yul\":5064:5172   */\n      pop\n      pop\n      jump\t// out\n        /* \"#utility.yul\":5178:5277   */\n    tag_396:\n        /* \"#utility.yul\":5249:5270   */\n      tag_497\n        /* \"#utility.yul\":5264:5269   */\n      dup2\n        /* \"#utility.yul\":5249:5270   */\n      tag_385\n      jump\t// in\n    tag_497:\n        /* \"#utility.yul\":5244:5247   */\n      dup3\n        /* \"#utility.yul\":5237:5271   */\n      mstore\n        /* \"#utility.yul\":5178:5277   */\n      pop\n      pop\n      jump\t// out\n        /* \"#utility.yul\":5283:5442   */\n    tag_397:\n        /* \"#utility.yul\":5357:5368   */\n      0x00\n        /* \"#utility.yul\":5391:5397   */\n      dup3\n        /* \"#utility.yul\":5386:5389   */\n      dup3\n        /* \"#utility.yul\":5379:5398   */\n      mstore\n        /* \"#utility.yul\":5431:5435   */\n      0x20\n        /* \"#utility.yul\":5426:5429   */\n      dup3\n        /* \"#utility.yul\":5422:5436   */\n      add\n        /* \"#utility.yul\":5407:5436   */\n      swap1\n      pop\n        /* \"#utility.yul\":5283:5442   */\n      swap3\n      swap2\n      pop\n      pop\n      jump\t// out\n        /* \"#utility.yul\":5448:5805   */\n    tag_398:\n        /* \"#utility.yul\":5526:5529   */\n      0x00\n        /* \"#utility.yul\":5554:5593   */\n      tag_500\n        /* \"#utility.yul\":5587:5592   */\n      dup3\n        /* \"#utility.yul\":5554:5593   */\n      tag_387\n      jump\t// in\n    tag_500:\n        /* \"#utility.yul\":5609:5670   */\n      tag_501\n        /* \"#utility.yul\":5663:5669   */\n      dup2\n        /* \"#utility.yul\":5658:5661   */\n      dup6\n        /* \"#utility.yul\":5609:5670   */\n      tag_397\n      jump\t// in\n    tag_501:\n        /* \"#utility.yul\":5602:5670   */\n      swap4\n      pop\n        /* \"#utility.yul\":5679:5744   */\n      tag_502\n        /* \"#utility.yul\":5737:5743   */\n      dup2\n        /* \"#utility.yul\":5732:5735   */\n      dup6\n        /* \"#utility.yul\":5725:5729   */\n      0x20\n        /* \"#utility.yul\":5718:5723   */\n      dup7\n        /* \"#utility.yul\":5714:5730   */\n      add\n        /* \"#utility.yul\":5679:5744   */\n      tag_389\n      jump\t// in\n    tag_502:\n        /* \"#utility.yul\":5769:5798   */\n      tag_503\n        /* \"#utility.yul\":5791:5797   */\n      dup2\n        /* \"#utility.yul\":5769:5798   */\n      tag_390\n      jump\t// in\n    tag_503:\n        /* \"#utility.yul\":5764:5767   */\n      dup5\n        /* \"#utility.yul\":5760:5799   */\n      add\n        /* \"#utility.yul\":5753:5799   */\n      swap2\n      pop\n        /* \"#utility.yul\":5530:5805   */\n      pop\n        /* \"#utility.yul\":5448:5805   */\n      swap3\n      swap2\n      pop\n      pop\n      jump\t// out\n        /* \"#utility.yul\":5899:7029   */\n    tag_399:\n        /* \"#utility.yul\":6010:6013   */\n      0x00\n        /* \"#utility.yul\":6046:6050   */\n      0xa0\n        /* \"#utility.yul\":6041:6044   */\n      dup4\n        /* \"#utility.yul\":6037:6051   */\n      add\n        /* \"#utility.yul\":6135:6139   */\n      0x00\n        /* \"#utility.yul\":6128:6133   */\n      dup4\n        /* \"#utility.yul\":6124:6140   */\n      add\n        /* \"#utility.yul\":6118:6141   */\n      mload\n        /* \"#utility.yul\":6154:6217   */\n      tag_505\n        /* \"#utility.yul\":6211:6215   */\n      0x00\n        /* \"#utility.yul\":6206:6209   */\n      dup7\n        /* \"#utility.yul\":6202:6216   */\n      add\n        /* \"#utility.yul\":6188:6200   */\n      dup3\n        /* \"#utility.yul\":6154:6217   */\n      tag_395\n      jump\t// in\n    tag_505:\n        /* \"#utility.yul\":6061:6227   */\n      pop\n        /* \"#utility.yul\":6313:6317   */\n      0x20\n        /* \"#utility.yul\":6306:6311   */\n      dup4\n        /* \"#utility.yul\":6302:6318   */\n      add\n        /* \"#utility.yul\":6296:6319   */\n      mload\n        /* \"#utility.yul\":6332:6389   */\n      tag_506\n        /* \"#utility.yul\":6383:6387   */\n      0x20\n        /* \"#utility.yul\":6378:6381   */\n      dup7\n        /* \"#utility.yul\":6374:6388   */\n      add\n        /* \"#utility.yul\":6360:6372   */\n      dup3\n        /* \"#utility.yul\":6332:6389   */\n      tag_396\n      jump\t// in\n    tag_506:\n        /* \"#utility.yul\":6237:6399   */\n      pop\n        /* \"#utility.yul\":6486:6490   */\n      0x40\n        /* \"#utility.yul\":6479:6484   */\n      dup4\n        /* \"#utility.yul\":6475:6491   */\n      add\n        /* \"#utility.yul\":6469:6492   */\n      mload\n        /* \"#utility.yul\":6505:6562   */\n      tag_507\n        /* \"#utility.yul\":6556:6560   */\n      0x40\n        /* \"#utility.yul\":6551:6554   */\n      dup7\n        /* \"#utility.yul\":6547:6561   */\n      add\n        /* \"#utility.yul\":6533:6545   */\n      dup3\n        /* \"#utility.yul\":6505:6562   */\n      tag_396\n      jump\t// in\n    tag_507:\n        /* \"#utility.yul\":6409:6572   */\n      pop\n        /* \"#utility.yul\":6658:6662   */\n      0x60\n        /* \"#utility.yul\":6651:6656   */\n      dup4\n        /* \"#utility.yul\":6647:6663   */\n      add\n        /* \"#utility.yul\":6641:6664   */\n      mload\n        /* \"#utility.yul\":6677:6740   */\n      tag_508\n        /* \"#utility.yul\":6734:6738   */\n      0x60\n        /* \"#utility.yul\":6729:6732   */\n      dup7\n        /* \"#utility.yul\":6725:6739   */\n      add\n        /* \"#utility.yul\":6711:6723   */\n      dup3\n        /* \"#utility.yul\":6677:6740   */\n      tag_395\n      jump\t// in\n    tag_508:\n        /* \"#utility.yul\":6582:6750   */\n      pop\n        /* \"#utility.yul\":6839:6843   */\n      0x80\n        /* \"#utility.yul\":6832:6837   */\n      dup4\n        /* \"#utility.yul\":6828:6844   */\n      add\n        /* \"#utility.yul\":6822:6845   */\n      mload\n        /* \"#utility.yul\":6892:6895   */\n      dup5\n        /* \"#utility.yul\":6886:6890   */\n      dup3\n        /* \"#utility.yul\":6882:6896   */\n      sub\n        /* \"#utility.yul\":6875:6879   */\n      0x80\n        /* \"#utility.yul\":6870:6873   */\n      dup7\n        /* \"#utility.yul\":6866:6880   */\n      add\n        /* \"#utility.yul\":6859:6897   */\n      mstore\n        /* \"#utility.yul\":6918:6991   */\n      tag_509\n        /* \"#utility.yul\":6986:6990   */\n      dup3\n        /* \"#utility.yul\":6972:6984   */\n      dup3\n        /* \"#utility.yul\":6918:6991   */\n      tag_398\n      jump\t// in\n    tag_509:\n        /* \"#utility.yul\":6910:6991   */\n      swap2\n      pop\n        /* \"#utility.yul\":6760:7002   */\n      pop\n        /* \"#utility.yul\":7019:7023   */\n      dup1\n        /* \"#utility.yul\":7012:7023   */\n      swap2\n      pop\n        /* \"#utility.yul\":6015:7029   */\n      pop\n        /* \"#utility.yul\":5899:7029   */\n      swap3\n      swap2\n      pop\n      pop\n      jump\t// out\n        /* \"#utility.yul\":7035:7295   */\n    tag_400:\n        /* \"#utility.yul\":7156:7166   */\n      0x00\n        /* \"#utility.yul\":7191:7289   */\n      tag_511\n        /* \"#utility.yul\":7285:7288   */\n      dup4\n        /* \"#utility.yul\":7277:7283   */\n      dup4\n        /* \"#utility.yul\":7191:7289   */\n      tag_399\n      jump\t// in\n    tag_511:\n        /* \"#utility.yul\":7177:7289   */\n      swap1\n      pop\n        /* \"#utility.yul\":7035:7295   */\n      swap3\n      swap2\n      pop\n      pop\n      jump\t// out\n        /* \"#utility.yul\":7301:7440   */\n    tag_401:\n        /* \"#utility.yul\":7397:7401   */\n      0x00\n        /* \"#utility.yul\":7429:7433   */\n      0x20\n        /* \"#utility.yul\":7424:7427   */\n      dup3\n        /* \"#utility.yul\":7420:7434   */\n      add\n        /* \"#utility.yul\":7412:7434   */\n      swap1\n      pop\n        /* \"#utility.yul\":7301:7440   */\n      swap2\n      swap1\n      pop\n      jump\t// out\n        /* \"#utility.yul\":7538:8657   */\n    tag_402:\n        /* \"#utility.yul\":7709:7712   */\n      0x00\n        /* \"#utility.yul\":7738:7818   */\n      tag_514\n        /* \"#utility.yul\":7812:7817   */\n      dup3\n        /* \"#utility.yul\":7738:7818   */\n      tag_392\n      jump\t// in\n    tag_514:\n        /* \"#utility.yul\":7834:7946   */\n      tag_515\n        /* \"#utility.yul\":7939:7945   */\n      dup2\n        /* \"#utility.yul\":7934:7937   */\n      dup6\n        /* \"#utility.yul\":7834:7946   */\n      tag_393\n      jump\t// in\n    tag_515:\n        /* \"#utility.yul\":7827:7946   */\n      swap4\n      pop\n        /* \"#utility.yul\":7972:7975   */\n      dup4\n        /* \"#utility.yul\":8017:8021   */\n      0x20\n        /* \"#utility.yul\":8009:8015   */\n      dup3\n        /* \"#utility.yul\":8005:8022   */\n      mul\n        /* \"#utility.yul\":8000:8003   */\n      dup6\n        /* \"#utility.yul\":7996:8023   */\n      add\n        /* \"#utility.yul\":8047:8129   */\n      tag_516\n        /* \"#utility.yul\":8123:8128   */\n      dup6\n        /* \"#utility.yul\":8047:8129   */\n      tag_394\n      jump\t// in\n    tag_516:\n        /* \"#utility.yul\":8152:8159   */\n      dup1\n        /* \"#utility.yul\":8183:8184   */\n      0x00\n        /* \"#utility.yul\":8168:8612   */\n    tag_517:\n        /* \"#utility.yul\":8193:8199   */\n      dup6\n        /* \"#utility.yul\":8190:8191   */\n      dup2\n        /* \"#utility.yul\":8187:8200   */\n      lt\n        /* \"#utility.yul\":8168:8612   */\n      iszero\n      tag_519\n      jumpi\n        /* \"#utility.yul\":8264:8273   */\n      dup5\n        /* \"#utility.yul\":8258:8262   */\n      dup5\n        /* \"#utility.yul\":8254:8274   */\n      sub\n        /* \"#utility.yul\":8249:8252   */\n      dup10\n        /* \"#utility.yul\":8242:8275   */\n      mstore\n        /* \"#utility.yul\":8315:8321   */\n      dup2\n        /* \"#utility.yul\":8309:8322   */\n      mload\n        /* \"#utility.yul\":8343:8459   */\n      tag_520\n        /* \"#utility.yul\":8454:8458   */\n      dup6\n        /* \"#utility.yul\":8439:8452   */\n      dup3\n        /* \"#utility.yul\":8343:8459   */\n      tag_400\n      jump\t// in\n    tag_520:\n        /* \"#utility.yul\":8335:8459   */\n      swap5\n      pop\n        /* \"#utility.yul\":8482:8568   */\n      tag_521\n        /* \"#utility.yul\":8561:8567   */\n      dup4\n        /* \"#utility.yul\":8482:8568   */\n      tag_401\n      jump\t// in\n    tag_521:\n        /* \"#utility.yul\":8472:8568   */\n      swap3\n      pop\n        /* \"#utility.yul\":8597:8601   */\n      0x20\n        /* \"#utility.yul\":8592:8595   */\n      dup11\n        /* \"#utility.yul\":8588:8602   */\n      add\n        /* \"#utility.yul\":8581:8602   */\n      swap10\n      pop\n        /* \"#utility.yul\":8228:8612   */\n      pop\n        /* \"#utility.yul\":8215:8216   */\n      0x01\n        /* \"#utility.yul\":8212:8213   */\n      dup2\n        /* \"#utility.yul\":8208:8217   */\n      add\n        /* \"#utility.yul\":8203:8217   */\n      swap1\n      pop\n        /* \"#utility.yul\":8168:8612   */\n      jump(tag_517)\n    tag_519:\n        /* \"#utility.yul\":8172:8186   */\n      pop\n        /* \"#utility.yul\":8628:8632   */\n      dup3\n        /* \"#utility.yul\":8621:8632   */\n      swap8\n      pop\n        /* \"#utility.yul\":8648:8651   */\n      dup8\n        /* \"#utility.yul\":8641:8651   */\n      swap6\n      pop\n        /* \"#utility.yul\":7714:8657   */\n      pop\n      pop\n      pop\n      pop\n      pop\n        /* \"#utility.yul\":7538:8657   */\n      swap3\n      swap2\n      pop\n      pop\n      jump\t// out\n        /* \"#utility.yul\":8663:9140   */\n    tag_67:\n        /* \"#utility.yul\":8858:8862   */\n      0x00\n        /* \"#utility.yul\":8896:8898   */\n      0x20\n        /* \"#utility.yul\":8885:8894   */\n      dup3\n        /* \"#utility.yul\":8881:8899   */\n      add\n        /* \"#utility.yul\":8873:8899   */\n      swap1\n      pop\n        /* \"#utility.yul\":8945:8954   */\n      dup2\n        /* \"#utility.yul\":8939:8943   */\n      dup2\n        /* \"#utility.yul\":8935:8955   */\n      sub\n        /* \"#utility.yul\":8931:8932   */\n      0x00\n        /* \"#utility.yul\":8920:8929   */\n      dup4\n        /* \"#utility.yul\":8916:8933   */\n      add\n        /* \"#utility.yul\":8909:8956   */\n      mstore\n        /* \"#utility.yul\":8973:9133   */\n      tag_523\n        /* \"#utility.yul\":9128:9132   */\n      dup2\n        /* \"#utility.yul\":9119:9125   */\n      dup5\n        /* \"#utility.yul\":8973:9133   */\n      tag_402\n      jump\t// in\n    tag_523:\n        /* \"#utility.yul\":8965:9133   */\n      swap1\n      pop\n        /* \"#utility.yul\":8663:9140   */\n      swap3\n      swap2\n      pop\n      pop\n      jump\t// out\n        /* \"#utility.yul\":9146:9263   */\n    tag_403:\n        /* \"#utility.yul\":9255:9256   */\n      0x00\n        /* \"#utility.yul\":9252:9253   */\n      0x00\n        /* \"#utility.yul\":9245:9257   */\n      revert\n        /* \"#utility.yul\":9269:9386   */\n    tag_404:\n        /* \"#utility.yul\":9378:9379   */\n      0x00\n        /* \"#utility.yul\":9375:9376   */\n      0x00\n        /* \"#utility.yul\":9368:9380   */\n      revert\n        /* \"#utility.yul\":9392:9572   */\n    tag_405:\n        /* \"#utility.yul\":9440:9517   */\n      0x4e487b7100000000000000000000000000000000000000000000000000000000\n        /* \"#utility.yul\":9437:9438   */\n      0x00\n        /* \"#utility.yul\":9430:9518   */\n      mstore\n        /* \"#utility.yul\":9537:9541   */\n      0x41\n        /* \"#utility.yul\":9534:9535   */\n      0x04\n        /* \"#utility.yul\":9527:9542   */\n      mstore\n        /* \"#utility.yul\":9561:9565   */\n      0x24\n        /* \"#utility.yul\":9558:9559   */\n      0x00\n        /* \"#utility.yul\":9551:9566   */\n      revert\n        /* \"#utility.yul\":9578:9859   */\n    tag_406:\n        /* \"#utility.yul\":9661:9688   */\n      tag_528\n        /* \"#utility.yul\":9683:9687   */\n      dup3\n        /* \"#utility.yul\":9661:9688   */\n      tag_390\n      jump\t// in\n    tag_528:\n        /* \"#utility.yul\":9653:9659   */\n      dup2\n        /* \"#utility.yul\":9649:9689   */\n      add\n        /* \"#utility.yul\":9791:9797   */\n      dup2\n        /* \"#utility.yul\":9779:9789   */\n      dup2\n        /* \"#utility.yul\":9776:9798   */\n      lt\n        /* \"#utility.yul\":9755:9773   */\n      0xffffffffffffffff\n        /* \"#utility.yul\":9743:9753   */\n      dup3\n        /* \"#utility.yul\":9740:9774   */\n      gt\n        /* \"#utility.yul\":9737:9799   */\n      or\n        /* \"#utility.yul\":9734:9822   */\n      iszero\n      tag_529\n      jumpi\n        /* \"#utility.yul\":9802:9820   */\n      tag_530\n      tag_405\n      jump\t// in\n    tag_530:\n        /* \"#utility.yul\":9734:9822   */\n    tag_529:\n        /* \"#utility.yul\":9842:9852   */\n      dup1\n        /* \"#utility.yul\":9838:9840   */\n      0x40\n        /* \"#utility.yul\":9831:9853   */\n      mstore\n        /* \"#utility.yul\":9621:9859   */\n      pop\n        /* \"#utility.yul\":9578:9859   */\n      pop\n      pop\n      jump\t// out\n        /* \"#utility.yul\":9865:9994   */\n    tag_407:\n        /* \"#utility.yul\":9899:9905   */\n      0x00\n        /* \"#utility.yul\":9926:9946   */\n      tag_532\n      tag_380\n      jump\t// in\n    tag_532:\n        /* \"#utility.yul\":9916:9946   */\n      swap1\n      pop\n        /* \"#utility.yul\":9955:9988   */\n      tag_533\n        /* \"#utility.yul\":9983:9987   */\n      dup3\n        /* \"#utility.yul\":9975:9981   */\n      dup3\n        /* \"#utility.yul\":9955:9988   */\n      tag_406\n      jump\t// in\n    tag_533:\n        /* \"#utility.yul\":9865:9994   */\n      swap2\n      swap1\n      pop\n      jump\t// out\n        /* \"#utility.yul\":10000:10308   */\n    tag_408:\n        /* \"#utility.yul\":10062:10066   */\n      0x00\n        /* \"#utility.yul\":10152:10170   */\n      0xffffffffffffffff\n        /* \"#utility.yul\":10144:10150   */\n      dup3\n        /* \"#utility.yul\":10141:10171   */\n      gt\n        /* \"#utility.yul\":10138:10194   */\n      iszero\n      tag_535\n      jumpi\n        /* \"#utility.yul\":10174:10192   */\n      tag_536\n      tag_405\n      jump\t// in\n    tag_536:\n        /* \"#utility.yul\":10138:10194   */\n    tag_535:\n        /* \"#utility.yul\":10212:10241   */\n      tag_537\n        /* \"#utility.yul\":10234:10240   */\n      dup3\n        /* \"#utility.yul\":10212:10241   */\n      tag_390\n      jump\t// in\n    tag_537:\n        /* \"#utility.yul\":10204:10241   */\n      swap1\n      pop\n        /* \"#utility.yul\":10296:10300   */\n      0x20\n        /* \"#utility.yul\":10290:10294   */\n      dup2\n        /* \"#utility.yul\":10286:10301   */\n      add\n        /* \"#utility.yul\":10278:10301   */\n      swap1\n      pop\n        /* \"#utility.yul\":10000:10308   */\n      swap2\n      swap1\n      pop\n      jump\t// out\n        /* \"#utility.yul\":10314:10462   */\n    tag_409:\n        /* \"#utility.yul\":10412:10418   */\n      dup3\n        /* \"#utility.yul\":10407:10410   */\n      dup2\n        /* \"#utility.yul\":10402:10405   */\n      dup4\n        /* \"#utility.yul\":10389:10419   */\n      calldatacopy\n        /* \"#utility.yul\":10453:10454   */\n      0x00\n        /* \"#utility.yul\":10444:10450   */\n      dup4\n        /* \"#utility.yul\":10439:10442   */\n      dup4\n        /* \"#utility.yul\":10435:10451   */\n      add\n        /* \"#utility.yul\":10428:10455   */\n      mstore\n        /* \"#utility.yul\":10314:10462   */\n      pop\n      pop\n      pop\n      jump\t// out\n        /* \"#utility.yul\":10468:10893   */\n    tag_410:\n        /* \"#utility.yul\":10546:10551   */\n      0x00\n        /* \"#utility.yul\":10571:10637   */\n      tag_540\n        /* \"#utility.yul\":10587:10636   */\n      tag_541\n        /* \"#utility.yul\":10629:10635   */\n      dup5\n        /* \"#utility.yul\":10587:10636   */\n      tag_408\n      jump\t// in\n    tag_541:\n        /* \"#utility.yul\":10571:10637   */\n      tag_407\n      jump\t// in\n    tag_540:\n        /* \"#utility.yul\":10562:10637   */\n      swap1\n      pop\n        /* \"#utility.yul\":10660:10666   */\n      dup3\n        /* \"#utility.yul\":10653:10658   */\n      dup2\n        /* \"#utility.yul\":10646:10667   */\n      mstore\n        /* \"#utility.yul\":10698:10702   */\n      0x20\n        /* \"#utility.yul\":10691:10696   */\n      dup2\n        /* \"#utility.yul\":10687:10703   */\n      add\n        /* \"#utility.yul\":10736:10739   */\n      dup5\n        /* \"#utility.yul\":10727:10733   */\n      dup5\n        /* \"#utility.yul\":10722:10725   */\n      dup5\n        /* \"#utility.yul\":10718:10734   */\n      add\n        /* \"#utility.yul\":10715:10740   */\n      gt\n        /* \"#utility.yul\":10712:10824   */\n      iszero\n      tag_542\n      jumpi\n        /* \"#utility.yul\":10743:10822   */\n      tag_543\n      tag_404\n      jump\t// in\n    tag_543:\n        /* \"#utility.yul\":10712:10824   */\n    tag_542:\n        /* \"#utility.yul\":10833:10887   */\n      tag_544\n        /* \"#utility.yul\":10880:10886   */\n      dup5\n        /* \"#utility.yul\":10875:10878   */\n      dup3\n        /* \"#utility.yul\":10870:10873   */\n      dup6\n        /* \"#utility.yul\":10833:10887   */\n      tag_409\n      jump\t// in\n    tag_544:\n        /* \"#utility.yul\":10552:10893   */\n      pop\n        /* \"#utility.yul\":10468:10893   */\n      swap4\n      swap3\n      pop\n      pop\n      pop\n      jump\t// out\n        /* \"#utility.yul\":10913:11253   */\n    tag_411:\n        /* \"#utility.yul\":10969:10974   */\n      0x00\n        /* \"#utility.yul\":11018:11021   */\n      dup3\n        /* \"#utility.yul\":11011:11015   */\n      0x1f\n        /* \"#utility.yul\":11003:11009   */\n      dup4\n        /* \"#utility.yul\":10999:11016   */\n      add\n        /* \"#utility.yul\":10995:11022   */\n      slt\n        /* \"#utility.yul\":10985:11107   */\n      tag_546\n      jumpi\n        /* \"#utility.yul\":11026:11105   */\n      tag_547\n      tag_403\n      jump\t// in\n    tag_547:\n        /* \"#utility.yul\":10985:11107   */\n    tag_546:\n        /* \"#utility.yul\":11143:11149   */\n      dup2\n        /* \"#utility.yul\":11130:11150   */\n      calldataload\n        /* \"#utility.yul\":11168:11247   */\n      tag_548\n        /* \"#utility.yul\":11243:11246   */\n      dup5\n        /* \"#utility.yul\":11235:11241   */\n      dup3\n        /* \"#utility.yul\":11228:11232   */\n      0x20\n        /* \"#utility.yul\":11220:11226   */\n      dup7\n        /* \"#utility.yul\":11216:11233   */\n      add\n        /* \"#utility.yul\":11168:11247   */\n      tag_410\n      jump\t// in\n    tag_548:\n        /* \"#utility.yul\":11159:11247   */\n      swap2\n      pop\n        /* \"#utility.yul\":10975:11253   */\n      pop\n        /* \"#utility.yul\":10913:11253   */\n      swap3\n      swap2\n      pop\n      pop\n      jump\t// out\n        /* \"#utility.yul\":11259:11768   */\n    tag_73:\n        /* \"#utility.yul\":11328:11334   */\n      0x00\n        /* \"#utility.yul\":11377:11379   */\n      0x20\n        /* \"#utility.yul\":11365:11374   */\n      dup3\n        /* \"#utility.yul\":11356:11363   */\n      dup5\n        /* \"#utility.yul\":11352:11375   */\n      sub\n        /* \"#utility.yul\":11348:11380   */\n      slt\n        /* \"#utility.yul\":11345:11464   */\n      iszero\n      tag_550\n      jumpi\n        /* \"#utility.yul\":11383:11462   */\n      tag_551\n      tag_381\n      jump\t// in\n    tag_551:\n        /* \"#utility.yul\":11345:11464   */\n    tag_550:\n        /* \"#utility.yul\":11531:11532   */\n      0x00\n        /* \"#utility.yul\":11520:11529   */\n      dup3\n        /* \"#utility.yul\":11516:11533   */\n      add\n        /* \"#utility.yul\":11503:11534   */\n      calldataload\n        /* \"#utility.yul\":11561:11579   */\n      0xffffffffffffffff\n        /* \"#utility.yul\":11553:11559   */\n      dup2\n        /* \"#utility.yul\":11550:11580   */\n      gt\n        /* \"#utility.yul\":11547:11664   */\n      iszero\n      tag_552\n      jumpi\n        /* \"#utility.yul\":11583:11662   */\n      tag_553\n      tag_382\n      jump\t// in\n    tag_553:\n        /* \"#utility.yul\":11547:11664   */\n    tag_552:\n        /* \"#utility.yul\":11688:11751   */\n      tag_554\n        /* \"#utility.yul\":11743:11750   */\n      dup5\n        /* \"#utility.yul\":11734:11740   */\n      dup3\n        /* \"#utility.yul\":11723:11732   */\n      dup6\n        /* \"#utility.yul\":11719:11741   */\n      add\n        /* \"#utility.yul\":11688:11751   */\n      tag_411\n      jump\t// in\n    tag_554:\n        /* \"#utility.yul\":11678:11751   */\n      swap2\n      pop\n        /* \"#utility.yul\":11474:11761   */\n      pop\n        /* \"#utility.yul\":11259:11768   */\n      swap3\n      swap2\n      pop\n      pop\n      jump\t// out\n        /* \"#utility.yul\":11774:11954   */\n    tag_103:\n        /* \"#utility.yul\":11822:11899   */\n      0x4e487b7100000000000000000000000000000000000000000000000000000000\n        /* \"#utility.yul\":11819:11820   */\n      0x00\n        /* \"#utility.yul\":11812:11900   */\n      mstore\n        /* \"#utility.yul\":11919:11923   */\n      0x21\n        /* \"#utility.yul\":11916:11917   */\n      0x04\n        /* \"#utility.yul\":11909:11924   */\n      mstore\n        /* \"#utility.yul\":11943:11947   */\n      0x24\n        /* \"#utility.yul\":11940:11941   */\n      0x00\n        /* \"#utility.yul\":11933:11948   */\n      revert\n        /* \"#utility.yul\":11960:12081   */\n    tag_412:\n        /* \"#utility.yul\":12049:12050   */\n      0x05\n        /* \"#utility.yul\":12042:12047   */\n      dup2\n        /* \"#utility.yul\":12039:12051   */\n      lt\n        /* \"#utility.yul\":12029:12075   */\n      tag_557\n      jumpi\n        /* \"#utility.yul\":12055:12073   */\n      tag_558\n      tag_103\n      jump\t// in\n    tag_558:\n        /* \"#utility.yul\":12029:12075   */\n    tag_557:\n        /* \"#utility.yul\":11960:12081   */\n      pop\n      jump\t// out\n        /* \"#utility.yul\":12087:12230   */\n    tag_413:\n        /* \"#utility.yul\":12140:12147   */\n      0x00\n        /* \"#utility.yul\":12169:12174   */\n      dup2\n        /* \"#utility.yul\":12158:12174   */\n      swap1\n      pop\n        /* \"#utility.yul\":12175:12224   */\n      tag_560\n        /* \"#utility.yul\":12218:12223   */\n      dup3\n        /* \"#utility.yul\":12175:12224   */\n      tag_412\n      jump\t// in\n    tag_560:\n        /* \"#utility.yul\":12087:12230   */\n      swap2\n      swap1\n      pop\n      jump\t// out\n        /* \"#utility.yul\":12236:12379   */\n    tag_414:\n        /* \"#utility.yul\":12300:12309   */\n      0x00\n        /* \"#utility.yul\":12333:12373   */\n      tag_562\n        /* \"#utility.yul\":12367:12372   */\n      dup3\n        /* \"#utility.yul\":12333:12373   */\n      tag_413\n      jump\t// in\n    tag_562:\n        /* \"#utility.yul\":12320:12373   */\n      swap1\n      pop\n        /* \"#utility.yul\":12236:12379   */\n      swap2\n      swap1\n      pop\n      jump\t// out\n        /* \"#utility.yul\":12385:12544   */\n    tag_415:\n        /* \"#utility.yul\":12486:12537   */\n      tag_564\n        /* \"#utility.yul\":12531:12536   */\n      dup2\n        /* \"#utility.yul\":12486:12537   */\n      tag_414\n      jump\t// in\n    tag_564:\n        /* \"#utility.yul\":12481:12484   */\n      dup3\n        /* \"#utility.yul\":12474:12538   */\n      mstore\n        /* \"#utility.yul\":12385:12544   */\n      pop\n      pop\n      jump\t// out\n        /* \"#utility.yul\":12550:12800   */\n    tag_85:\n        /* \"#utility.yul\":12657:12661   */\n      0x00\n        /* \"#utility.yul\":12695:12697   */\n      0x20\n        /* \"#utility.yul\":12684:12693   */\n      dup3\n        /* \"#utility.yul\":12680:12698   */\n      add\n        /* \"#utility.yul\":12672:12698   */\n      swap1\n      pop\n        /* \"#utility.yul\":12708:12793   */\n      tag_566\n        /* \"#utility.yul\":12790:12791   */\n      0x00\n        /* \"#utility.yul\":12779:12788   */\n      dup4\n        /* \"#utility.yul\":12775:12792   */\n      add\n        /* \"#utility.yul\":12766:12772   */\n      dup5\n        /* \"#utility.yul\":12708:12793   */\n      tag_415\n      jump\t// in\n    tag_566:\n        /* \"#utility.yul\":12550:12800   */\n      swap3\n      swap2\n      pop\n      pop\n      jump\t// out\n        /* \"#utility.yul\":12806:13537   */\n    tag_93:\n        /* \"#utility.yul\":13019:13023   */\n      0x00\n        /* \"#utility.yul\":13057:13060   */\n      0xa0\n        /* \"#utility.yul\":13046:13055   */\n      dup3\n        /* \"#utility.yul\":13042:13061   */\n      add\n        /* \"#utility.yul\":13034:13061   */\n      swap1\n      pop\n        /* \"#utility.yul\":13071:13142   */\n      tag_568\n        /* \"#utility.yul\":13139:13140   */\n      0x00\n        /* \"#utility.yul\":13128:13137   */\n      dup4\n        /* \"#utility.yul\":13124:13141   */\n      add\n        /* \"#utility.yul\":13115:13121   */\n      dup9\n        /* \"#utility.yul\":13071:13142   */\n      tag_374\n      jump\t// in\n    tag_568:\n        /* \"#utility.yul\":13152:13218   */\n      tag_569\n        /* \"#utility.yul\":13214:13216   */\n      0x20\n        /* \"#utility.yul\":13203:13212   */\n      dup4\n        /* \"#utility.yul\":13199:13217   */\n      add\n        /* \"#utility.yul\":13190:13196   */\n      dup8\n        /* \"#utility.yul\":13152:13218   */\n      tag_386\n      jump\t// in\n    tag_569:\n        /* \"#utility.yul\":13228:13294   */\n      tag_570\n        /* \"#utility.yul\":13290:13292   */\n      0x40\n        /* \"#utility.yul\":13279:13288   */\n      dup4\n        /* \"#utility.yul\":13275:13293   */\n      add\n        /* \"#utility.yul\":13266:13272   */\n      dup7\n        /* \"#utility.yul\":13228:13294   */\n      tag_386\n      jump\t// in\n    tag_570:\n        /* \"#utility.yul\":13304:13376   */\n      tag_571\n        /* \"#utility.yul\":13372:13374   */\n      0x60\n        /* \"#utility.yul\":13361:13370   */\n      dup4\n        /* \"#utility.yul\":13357:13375   */\n      add\n        /* \"#utility.yul\":13348:13354   */\n      dup6\n        /* \"#utility.yul\":13304:13376   */\n      tag_374\n      jump\t// in\n    tag_571:\n        /* \"#utility.yul\":13424:13433   */\n      dup2\n        /* \"#utility.yul\":13418:13422   */\n      dup2\n        /* \"#utility.yul\":13414:13434   */\n      sub\n        /* \"#utility.yul\":13408:13411   */\n      0x80\n        /* \"#utility.yul\":13397:13406   */\n      dup4\n        /* \"#utility.yul\":13393:13412   */\n      add\n        /* \"#utility.yul\":13386:13435   */\n      mstore\n        /* \"#utility.yul\":13452:13530   */\n      tag_572\n        /* \"#utility.yul\":13525:13529   */\n      dup2\n        /* \"#utility.yul\":13516:13522   */\n      dup5\n        /* \"#utility.yul\":13452:13530   */\n      tag_391\n      jump\t// in\n    tag_572:\n        /* \"#utility.yul\":13444:13530   */\n      swap1\n      pop\n        /* \"#utility.yul\":12806:13537   */\n      swap7\n      swap6\n      pop\n      pop\n      pop\n      pop\n      pop\n      pop\n      jump\t// out\n        /* \"#utility.yul\":13543:13723   */\n    tag_137:\n        /* \"#utility.yul\":13591:13668   */\n      0x4e487b7100000000000000000000000000000000000000000000000000000000\n        /* \"#utility.yul\":13588:13589   */\n      0x00\n        /* \"#utility.yul\":13581:13669   */\n      mstore\n        /* \"#utility.yul\":13688:13692   */\n      0x32\n        /* \"#utility.yul\":13685:13686   */\n      0x04\n        /* \"#utility.yul\":13678:13693   */\n      mstore\n        /* \"#utility.yul\":13712:13716   */\n      0x24\n        /* \"#utility.yul\":13709:13710   */\n      0x00\n        /* \"#utility.yul\":13702:13717   */\n      revert\n        /* \"#utility.yul\":13729:13895   */\n    tag_416:\n        /* \"#utility.yul\":13869:13887   */\n      0x416c72656164792072656c656173656400000000000000000000000000000000\n        /* \"#utility.yul\":13865:13866   */\n      0x00\n        /* \"#utility.yul\":13857:13863   */\n      dup3\n        /* \"#utility.yul\":13853:13867   */\n      add\n        /* \"#utility.yul\":13846:13888   */\n      mstore\n        /* \"#utility.yul\":13729:13895   */\n      pop\n      jump\t// out\n        /* \"#utility.yul\":13901:14267   */\n    tag_417:\n        /* \"#utility.yul\":14043:14046   */\n      0x00\n        /* \"#utility.yul\":14064:14131   */\n      tag_576\n        /* \"#utility.yul\":14128:14130   */\n      0x10\n        /* \"#utility.yul\":14123:14126   */\n      dup4\n        /* \"#utility.yul\":14064:14131   */\n      tag_388\n      jump\t// in\n    tag_576:\n        /* \"#utility.yul\":14057:14131   */\n      swap2\n      pop\n        /* \"#utility.yul\":14140:14233   */\n      tag_577\n        /* \"#utility.yul\":14229:14232   */\n      dup3\n        /* \"#utility.yul\":14140:14233   */\n      tag_416\n      jump\t// in\n    tag_577:\n        /* \"#utility.yul\":14258:14260   */\n      0x20\n        /* \"#utility.yul\":14253:14256   */\n      dup3\n        /* \"#utility.yul\":14249:14261   */\n      add\n        /* \"#utility.yul\":14242:14261   */\n      swap1\n      pop\n        /* \"#utility.yul\":13901:14267   */\n      swap2\n      swap1\n      pop\n      jump\t// out\n        /* \"#utility.yul\":14273:14692   */\n    tag_141:\n        /* \"#utility.yul\":14439:14443   */\n      0x00\n        /* \"#utility.yul\":14477:14479   */\n      0x20\n        /* \"#utility.yul\":14466:14475   */\n      dup3\n        /* \"#utility.yul\":14462:14480   */\n      add\n        /* \"#utility.yul\":14454:14480   */\n      swap1\n      pop\n        /* \"#utility.yul\":14526:14535   */\n      dup2\n        /* \"#utility.yul\":14520:14524   */\n      dup2\n        /* \"#utility.yul\":14516:14536   */\n      sub\n        /* \"#utility.yul\":14512:14513   */\n      0x00\n        /* \"#utility.yul\":14501:14510   */\n      dup4\n        /* \"#utility.yul\":14497:14514   */\n      add\n        /* \"#utility.yul\":14490:14537   */\n      mstore\n        /* \"#utility.yul\":14554:14685   */\n      tag_579\n        /* \"#utility.yul\":14680:14684   */\n      dup2\n        /* \"#utility.yul\":14554:14685   */\n      tag_417\n      jump\t// in\n    tag_579:\n        /* \"#utility.yul\":14546:14685   */\n      swap1\n      pop\n        /* \"#utility.yul\":14273:14692   */\n      swap2\n      swap1\n      pop\n      jump\t// out\n        /* \"#utility.yul\":14698:14867   */\n    tag_418:\n        /* \"#utility.yul\":14838:14859   */\n      0x4d696c6573746f6e652063616e63656c6c656400000000000000000000000000\n        /* \"#utility.yul\":14834:14835   */\n      0x00\n        /* \"#utility.yul\":14826:14832   */\n      dup3\n        /* \"#utility.yul\":14822:14836   */\n      add\n        /* \"#utility.yul\":14815:14860   */\n      mstore\n        /* \"#utility.yul\":14698:14867   */\n      pop\n      jump\t// out\n        /* \"#utility.yul\":14873:15239   */\n    tag_419:\n        /* \"#utility.yul\":15015:15018   */\n      0x00\n        /* \"#utility.yul\":15036:15103   */\n      tag_582\n        /* \"#utility.yul\":15100:15102   */\n      0x13\n        /* \"#utility.yul\":15095:15098   */\n      dup4\n        /* \"#utility.yul\":15036:15103   */\n      tag_388\n      jump\t// in\n    tag_582:\n        /* \"#utility.yul\":15029:15103   */\n      swap2\n      pop\n        /* \"#utility.yul\":15112:15205   */\n      tag_583\n        /* \"#utility.yul\":15201:15204   */\n      dup3\n        /* \"#utility.yul\":15112:15205   */\n      tag_418\n      jump\t// in\n    tag_583:\n        /* \"#utility.yul\":15230:15232   */\n      0x20\n        /* \"#utility.yul\":15225:15228   */\n      dup3\n        /* \"#utility.yul\":15221:15233   */\n      add\n        /* \"#utility.yul\":15214:15233   */\n      swap1\n      pop\n        /* \"#utility.yul\":14873:15239   */\n      swap2\n      swap1\n      pop\n      jump\t// out\n        /* \"#utility.yul\":15245:15664   */\n    tag_144:\n        /* \"#utility.yul\":15411:15415   */\n      0x00\n        /* \"#utility.yul\":15449:15451   */\n      0x20\n        /* \"#utility.yul\":15438:15447   */\n      dup3\n        /* \"#utility.yul\":15434:15452   */\n      add\n        /* \"#utility.yul\":15426:15452   */\n      swap1\n      pop\n        /* \"#utility.yul\":15498:15507   */\n      dup2\n        /* \"#utility.yul\":15492:15496   */\n      dup2\n        /* \"#utility.yul\":15488:15508   */\n      sub\n        /* \"#utility.yul\":15484:15485   */\n      0x00\n        /* \"#utility.yul\":15473:15482   */\n      dup4\n        /* \"#utility.yul\":15469:15486   */\n      add\n        /* \"#utility.yul\":15462:15509   */\n      mstore\n        /* \"#utility.yul\":15526:15657   */\n      tag_585\n        /* \"#utility.yul\":15652:15656   */\n      dup2\n        /* \"#utility.yul\":15526:15657   */\n      tag_419\n      jump\t// in\n    tag_585:\n        /* \"#utility.yul\":15518:15657   */\n      swap1\n      pop\n        /* \"#utility.yul\":15245:15664   */\n      swap2\n      swap1\n      pop\n      jump\t// out\n        /* \"#utility.yul\":15670:15835   */\n    tag_420:\n        /* \"#utility.yul\":15810:15827   */\n      0x446561646c696e65207061737365640000000000000000000000000000000000\n        /* \"#utility.yul\":15806:15807   */\n      0x00\n        /* \"#utility.yul\":15798:15804   */\n      dup3\n        /* \"#utility.yul\":15794:15808   */\n      add\n        /* \"#utility.yul\":15787:15828   */\n      mstore\n        /* \"#utility.yul\":15670:15835   */\n      pop\n      jump\t// out\n        /* \"#utility.yul\":15841:16207   */\n    tag_421:\n        /* \"#utility.yul\":15983:15986   */\n      0x00\n        /* \"#utility.yul\":16004:16071   */\n      tag_588\n        /* \"#utility.yul\":16068:16070   */\n      0x0f\n        /* \"#utility.yul\":16063:16066   */\n      dup4\n        /* \"#utility.yul\":16004:16071   */\n      tag_388\n      jump\t// in\n    tag_588:\n        /* \"#utility.yul\":15997:16071   */\n      swap2\n      pop\n        /* \"#utility.yul\":16080:16173   */\n      tag_589\n        /* \"#utility.yul\":16169:16172   */\n      dup3\n        /* \"#utility.yul\":16080:16173   */\n      tag_420\n      jump\t// in\n    tag_589:\n        /* \"#utility.yul\":16198:16200   */\n      0x20\n        /* \"#utility.yul\":16193:16196   */\n      dup3\n        /* \"#utility.yul\":16189:16201   */\n      add\n        /* \"#utility.yul\":16182:16201   */\n      swap1\n      pop\n        /* \"#utility.yul\":15841:16207   */\n      swap2\n      swap1\n      pop\n      jump\t// out\n        /* \"#utility.yul\":16213:16632   */\n    tag_148:\n        /* \"#utility.yul\":16379:16383   */\n      0x00\n        /* \"#utility.yul\":16417:16419   */\n      0x20\n        /* \"#utility.yul\":16406:16415   */\n      dup3\n        /* \"#utility.yul\":16402:16420   */\n      add\n        /* \"#utility.yul\":16394:16420   */\n      swap1\n      pop\n        /* \"#utility.yul\":16466:16475   */\n      dup2\n        /* \"#utility.yul\":16460:16464   */\n      dup2\n        /* \"#utility.yul\":16456:16476   */\n      sub\n        /* \"#utility.yul\":16452:16453   */\n      0x00\n        /* \"#utility.yul\":16441:16450   */\n      dup4\n        /* \"#utility.yul\":16437:16454   */\n      add\n        /* \"#utility.yul\":16430:16477   */\n      mstore\n        /* \"#utility.yul\":16494:16625   */\n      tag_591\n        /* \"#utility.yul\":16620:16624   */\n      dup2\n        /* \"#utility.yul\":16494:16625   */\n      tag_421\n      jump\t// in\n    tag_591:\n        /* \"#utility.yul\":16486:16625   */\n      swap1\n      pop\n        /* \"#utility.yul\":16213:16632   */\n      swap2\n      swap1\n      pop\n      jump\t// out\n        /* \"#utility.yul\":16638:16818   */\n    tag_422:\n        /* \"#utility.yul\":16686:16763   */\n      0x4e487b7100000000000000000000000000000000000000000000000000000000\n        /* \"#utility.yul\":16683:16684   */\n      0x00\n        /* \"#utility.yul\":16676:16764   */\n      mstore\n        /* \"#utility.yul\":16783:16787   */\n      0x11\n        /* \"#utility.yul\":16780:16781   */\n      0x04\n        /* \"#utility.yul\":16773:16788   */\n      mstore\n        /* \"#utility.yul\":16807:16811   */\n      0x24\n        /* \"#utility.yul\":16804:16805   */\n      0x00\n        /* \"#utility.yul\":16797:16812   */\n      revert\n        /* \"#utility.yul\":16824:17015   */\n    tag_150:\n        /* \"#utility.yul\":16864:16867   */\n      0x00\n        /* \"#utility.yul\":16883:16903   */\n      tag_594\n        /* \"#utility.yul\":16901:16902   */\n      dup3\n        /* \"#utility.yul\":16883:16903   */\n      tag_373\n      jump\t// in\n    tag_594:\n        /* \"#utility.yul\":16878:16903   */\n      swap2\n      pop\n        /* \"#utility.yul\":16917:16937   */\n      tag_595\n        /* \"#utility.yul\":16935:16936   */\n      dup4\n        /* \"#utility.yul\":16917:16937   */\n      tag_373\n      jump\t// in\n    tag_595:\n        /* \"#utility.yul\":16912:16937   */\n      swap3\n      pop\n        /* \"#utility.yul\":16960:16961   */\n      dup3\n        /* \"#utility.yul\":16957:16958   */\n      dup3\n        /* \"#utility.yul\":16953:16962   */\n      add\n        /* \"#utility.yul\":16946:16962   */\n      swap1\n      pop\n        /* \"#utility.yul\":16981:16984   */\n      dup1\n        /* \"#utility.yul\":16978:16979   */\n      dup3\n        /* \"#utility.yul\":16975:16985   */\n      gt\n        /* \"#utility.yul\":16972:17008   */\n      iszero\n      tag_596\n      jumpi\n        /* \"#utility.yul\":16988:17006   */\n      tag_597\n      tag_422\n      jump\t// in\n    tag_597:\n        /* \"#utility.yul\":16972:17008   */\n    tag_596:\n        /* \"#utility.yul\":16824:17015   */\n      swap3\n      swap2\n      pop\n      pop\n      jump\t// out\n        /* \"#utility.yul\":17021:17201   */\n    tag_423:\n        /* \"#utility.yul\":17069:17146   */\n      0x4e487b7100000000000000000000000000000000000000000000000000000000\n        /* \"#utility.yul\":17066:17067   */\n      0x00\n        /* \"#utility.yul\":17059:17147   */\n      mstore\n        /* \"#utility.yul\":17166:17170   */\n      0x22\n        /* \"#utility.yul\":17163:17164   */\n      0x04\n        /* \"#utility.yul\":17156:17171   */\n      mstore\n        /* \"#utility.yul\":17190:17194   */\n      0x24\n        /* \"#utility.yul\":17187:17188   */\n      0x00\n        /* \"#utility.yul\":17180:17195   */\n      revert\n        /* \"#utility.yul\":17207:17527   */\n    tag_212:\n        /* \"#utility.yul\":17251:17257   */\n      0x00\n        /* \"#utility.yul\":17288:17289   */\n      0x02\n        /* \"#utility.yul\":17282:17286   */\n      dup3\n        /* \"#utility.yul\":17278:17290   */\n      div\n        /* \"#utility.yul\":17268:17290   */\n      swap1\n      pop\n        /* \"#utility.yul\":17335:17336   */\n      0x01\n        /* \"#utility.yul\":17329:17333   */\n      dup3\n        /* \"#utility.yul\":17325:17337   */\n      and\n        /* \"#utility.yul\":17356:17374   */\n      dup1\n        /* \"#utility.yul\":17346:17427   */\n      tag_600\n      jumpi\n        /* \"#utility.yul\":17412:17416   */\n      0x7f\n        /* \"#utility.yul\":17404:17410   */\n      dup3\n        /* \"#utility.yul\":17400:17417   */\n      and\n        /* \"#utility.yul\":17390:17417   */\n      swap2\n      pop\n        /* \"#utility.yul\":17346:17427   */\n    tag_600:\n        /* \"#utility.yul\":17474:17476   */\n      0x20\n        /* \"#utility.yul\":17466:17472   */\n      dup3\n        /* \"#utility.yul\":17463:17477   */\n      lt\n        /* \"#utility.yul\":17443:17461   */\n      dup2\n        /* \"#utility.yul\":17440:17478   */\n      sub\n        /* \"#utility.yul\":17437:17521   */\n      tag_601\n      jumpi\n        /* \"#utility.yul\":17493:17511   */\n      tag_602\n      tag_423\n      jump\t// in\n    tag_602:\n        /* \"#utility.yul\":17437:17521   */\n    tag_601:\n        /* \"#utility.yul\":17258:17527   */\n      pop\n        /* \"#utility.yul\":17207:17527   */\n      swap2\n      swap1\n      pop\n      jump\t// out\n        /* \"#utility.yul\":17533:17676   */\n    tag_424:\n        /* \"#utility.yul\":17590:17595   */\n      0x00\n        /* \"#utility.yul\":17621:17627   */\n      dup2\n        /* \"#utility.yul\":17615:17628   */\n      mload\n        /* \"#utility.yul\":17606:17628   */\n      swap1\n      pop\n        /* \"#utility.yul\":17637:17670   */\n      tag_604\n        /* \"#utility.yul\":17664:17669   */\n      dup2\n        /* \"#utility.yul\":17637:17670   */\n      tag_383\n      jump\t// in\n    tag_604:\n        /* \"#utility.yul\":17533:17676   */\n      swap3\n      swap2\n      pop\n      pop\n      jump\t// out\n        /* \"#utility.yul\":17682:18033   */\n    tag_222:\n        /* \"#utility.yul\":17752:17758   */\n      0x00\n        /* \"#utility.yul\":17801:17803   */\n      0x20\n        /* \"#utility.yul\":17789:17798   */\n      dup3\n        /* \"#utility.yul\":17780:17787   */\n      dup5\n        /* \"#utility.yul\":17776:17799   */\n      sub\n        /* \"#utility.yul\":17772:17804   */\n      slt\n        /* \"#utility.yul\":17769:17888   */\n      iszero\n      tag_606\n      jumpi\n        /* \"#utility.yul\":17807:17886   */\n      tag_607\n      tag_381\n      jump\t// in\n    tag_607:\n        /* \"#utility.yul\":17769:17888   */\n    tag_606:\n        /* \"#utility.yul\":17927:17928   */\n      0x00\n        /* \"#utility.yul\":17952:18016   */\n      tag_608\n        /* \"#utility.yul\":18008:18015   */\n      dup5\n        /* \"#utility.yul\":17999:18005   */\n      dup3\n        /* \"#utility.yul\":17988:17997   */\n      dup6\n        /* \"#utility.yul\":17984:18006   */\n      add\n        /* \"#utility.yul\":17952:18016   */\n      tag_424\n      jump\t// in\n    tag_608:\n        /* \"#utility.yul\":17942:18016   */\n      swap2\n      pop\n        /* \"#utility.yul\":17898:18026   */\n      pop\n        /* \"#utility.yul\":17682:18033   */\n      swap3\n      swap2\n      pop\n      pop\n      jump\t// out\n        /* \"#utility.yul\":18039:18203   */\n    tag_425:\n        /* \"#utility.yul\":18179:18195   */\n      0x4e6f7420617574686f72697a6564000000000000000000000000000000000000\n        /* \"#utility.yul\":18175:18176   */\n      0x00\n        /* \"#utility.yul\":18167:18173   */\n      dup3\n        /* \"#utility.yul\":18163:18177   */\n      add\n        /* \"#utility.yul\":18156:18196   */\n      mstore\n        /* \"#utility.yul\":18039:18203   */\n      pop\n      jump\t// out\n        /* \"#utility.yul\":18209:18575   */\n    tag_426:\n        /* \"#utility.yul\":18351:18354   */\n      0x00\n        /* \"#utility.yul\":18372:18439   */\n      tag_611\n        /* \"#utility.yul\":18436:18438   */\n      0x0e\n        /* \"#utility.yul\":18431:18434   */\n      dup4\n        /* \"#utility.yul\":18372:18439   */\n      tag_388\n      jump\t// in\n    tag_611:\n        /* \"#utility.yul\":18365:18439   */\n      swap2\n      pop\n        /* \"#utility.yul\":18448:18541   */\n      tag_612\n        /* \"#utility.yul\":18537:18540   */\n      dup3\n        /* \"#utility.yul\":18448:18541   */\n      tag_425\n      jump\t// in\n    tag_612:\n        /* \"#utility.yul\":18566:18568   */\n      0x20\n        /* \"#utility.yul\":18561:18564   */\n      dup3\n        /* \"#utility.yul\":18557:18569   */\n      add\n        /* \"#utility.yul\":18550:18569   */\n      swap1\n      pop\n        /* \"#utility.yul\":18209:18575   */\n      swap2\n      swap1\n      pop\n      jump\t// out\n        /* \"#utility.yul\":18581:19000   */\n    tag_227:\n        /* \"#utility.yul\":18747:18751   */\n      0x00\n        /* \"#utility.yul\":18785:18787   */\n      0x20\n        /* \"#utility.yul\":18774:18783   */\n      dup3\n        /* \"#utility.yul\":18770:18788   */\n      add\n        /* \"#utility.yul\":18762:18788   */\n      swap1\n      pop\n        /* \"#utility.yul\":18834:18843   */\n      dup2\n        /* \"#utility.yul\":18828:18832   */\n      dup2\n        /* \"#utility.yul\":18824:18844   */\n      sub\n        /* \"#utility.yul\":18820:18821   */\n      0x00\n        /* \"#utility.yul\":18809:18818   */\n      dup4\n        /* \"#utility.yul\":18805:18822   */\n      add\n        /* \"#utility.yul\":18798:18845   */\n      mstore\n        /* \"#utility.yul\":18862:18993   */\n      tag_614\n        /* \"#utility.yul\":18988:18992   */\n      dup2\n        /* \"#utility.yul\":18862:18993   */\n      tag_426\n      jump\t// in\n    tag_614:\n        /* \"#utility.yul\":18854:18993   */\n      swap1\n      pop\n        /* \"#utility.yul\":18581:19000   */\n      swap2\n      swap1\n      pop\n      jump\t// out\n        /* \"#utility.yul\":19006:19174   */\n    tag_427:\n        /* \"#utility.yul\":19146:19166   */\n      0x33302064617973206e6f74207061737365640000000000000000000000000000\n        /* \"#utility.yul\":19142:19143   */\n      0x00\n        /* \"#utility.yul\":19134:19140   */\n      dup3\n        /* \"#utility.yul\":19130:19144   */\n      add\n        /* \"#utility.yul\":19123:19167   */\n      mstore\n        /* \"#utility.yul\":19006:19174   */\n      pop\n      jump\t// out\n        /* \"#utility.yul\":19180:19546   */\n    tag_428:\n        /* \"#utility.yul\":19322:19325   */\n      0x00\n        /* \"#utility.yul\":19343:19410   */\n      tag_617\n        /* \"#utility.yul\":19407:19409   */\n      0x12\n        /* \"#utility.yul\":19402:19405   */\n      dup4\n        /* \"#utility.yul\":19343:19410   */\n      tag_388\n      jump\t// in\n    tag_617:\n        /* \"#utility.yul\":19336:19410   */\n      swap2\n      pop\n        /* \"#utility.yul\":19419:19512   */\n      tag_618\n        /* \"#utility.yul\":19508:19511   */\n      dup3\n        /* \"#utility.yul\":19419:19512   */\n      tag_427\n      jump\t// in\n    tag_618:\n        /* \"#utility.yul\":19537:19539   */\n      0x20\n        /* \"#utility.yul\":19532:19535   */\n      dup3\n        /* \"#utility.yul\":19528:19540   */\n      add\n        /* \"#utility.yul\":19521:19540   */\n      swap1\n      pop\n        /* \"#utility.yul\":19180:19546   */\n      swap2\n      swap1\n      pop\n      jump\t// out\n        /* \"#utility.yul\":19552:19971   */\n    tag_252:\n        /* \"#utility.yul\":19718:19722   */\n      0x00\n        /* \"#utility.yul\":19756:19758   */\n      0x20\n        /* \"#utility.yul\":19745:19754   */\n      dup3\n        /* \"#utility.yul\":19741:19759   */\n      add\n        /* \"#utility.yul\":19733:19759   */\n      swap1\n      pop\n        /* \"#utility.yul\":19805:19814   */\n      dup2\n        /* \"#utility.yul\":19799:19803   */\n      dup2\n        /* \"#utility.yul\":19795:19815   */\n      sub\n        /* \"#utility.yul\":19791:19792   */\n      0x00\n        /* \"#utility.yul\":19780:19789   */\n      dup4\n        /* \"#utility.yul\":19776:19793   */\n      add\n        /* \"#utility.yul\":19769:19816   */\n      mstore\n        /* \"#utility.yul\":19833:19964   */\n      tag_620\n        /* \"#utility.yul\":19959:19963   */\n      dup2\n        /* \"#utility.yul\":19833:19964   */\n      tag_428\n      jump\t// in\n    tag_620:\n        /* \"#utility.yul\":19825:19964   */\n      swap1\n      pop\n        /* \"#utility.yul\":19552:19971   */\n      swap2\n      swap1\n      pop\n      jump\t// out\n        /* \"#utility.yul\":19977:20144   */\n    tag_429:\n        /* \"#utility.yul\":20117:20136   */\n      0x416c72656164792063616e63656c6c6564000000000000000000000000000000\n        /* \"#utility.yul\":20113:20114   */\n      0x00\n        /* \"#utility.yul\":20105:20111   */\n      dup3\n        /* \"#utility.yul\":20101:20115   */\n      add\n        /* \"#utility.yul\":20094:20137   */\n      mstore\n        /* \"#utility.yul\":19977:20144   */\n      pop\n      jump\t// out\n        /* \"#utility.yul\":20150:20516   */\n    tag_430:\n        /* \"#utility.yul\":20292:20295   */\n      0x00\n        /* \"#utility.yul\":20313:20380   */\n      tag_623\n        /* \"#utility.yul\":20377:20379   */\n      0x11\n        /* \"#utility.yul\":20372:20375   */\n      dup4\n        /* \"#utility.yul\":20313:20380   */\n      tag_388\n      jump\t// in\n    tag_623:\n        /* \"#utility.yul\":20306:20380   */\n      swap2\n      pop\n        /* \"#utility.yul\":20389:20482   */\n      tag_624\n        /* \"#utility.yul\":20478:20481   */\n      dup3\n        /* \"#utility.yul\":20389:20482   */\n      tag_429\n      jump\t// in\n    tag_624:\n        /* \"#utility.yul\":20507:20509   */\n      0x20\n        /* \"#utility.yul\":20502:20505   */\n      dup3\n        /* \"#utility.yul\":20498:20510   */\n      add\n        /* \"#utility.yul\":20491:20510   */\n      swap1\n      pop\n        /* \"#utility.yul\":20150:20516   */\n      swap2\n      swap1\n      pop\n      jump\t// out\n        /* \"#utility.yul\":20522:20941   */\n    tag_304:\n        /* \"#utility.yul\":20688:20692   */\n      0x00\n        /* \"#utility.yul\":20726:20728   */\n      0x20\n        /* \"#utility.yul\":20715:20724   */\n      dup3\n        /* \"#utility.yul\":20711:20729   */\n      add\n        /* \"#utility.yul\":20703:20729   */\n      swap1\n      pop\n        /* \"#utility.yul\":20775:20784   */\n      dup2\n        /* \"#utility.yul\":20769:20773   */\n      dup2\n        /* \"#utility.yul\":20765:20785   */\n      sub\n        /* \"#utility.yul\":20761:20762   */\n      0x00\n        /* \"#utility.yul\":20750:20759   */\n      dup4\n        /* \"#utility.yul\":20746:20763   */\n      add\n        /* \"#utility.yul\":20739:20786   */\n      mstore\n        /* \"#utility.yul\":20803:20934   */\n      tag_626\n        /* \"#utility.yul\":20929:20933   */\n      dup2\n        /* \"#utility.yul\":20803:20934   */\n      tag_430\n      jump\t// in\n    tag_626:\n        /* \"#utility.yul\":20795:20934   */\n      swap1\n      pop\n        /* \"#utility.yul\":20522:20941   */\n      swap2\n      swap1\n      pop\n      jump\t// out\n        /* \"#utility.yul\":20947:21112   */\n    tag_431:\n        /* \"#utility.yul\":21087:21104   */\n      0x4e6f20646561646c696e65207365740000000000000000000000000000000000\n        /* \"#utility.yul\":21083:21084   */\n      0x00\n        /* \"#utility.yul\":21075:21081   */\n      dup3\n        /* \"#utility.yul\":21071:21085   */\n      add\n        /* \"#utility.yul\":21064:21105   */\n      mstore\n        /* \"#utility.yul\":20947:21112   */\n      pop\n      jump\t// out\n        /* \"#utility.yul\":21118:21484   */\n    tag_432:\n        /* \"#utility.yul\":21260:21263   */\n      0x00\n        /* \"#utility.yul\":21281:21348   */\n      tag_629\n        /* \"#utility.yul\":21345:21347   */\n      0x0f\n        /* \"#utility.yul\":21340:21343   */\n      dup4\n        /* \"#utility.yul\":21281:21348   */\n      tag_388\n      jump\t// in\n    tag_629:\n        /* \"#utility.yul\":21274:21348   */\n      swap2\n      pop\n        /* \"#utility.yul\":21357:21450   */\n      tag_630\n        /* \"#utility.yul\":21446:21449   */\n      dup3\n        /* \"#utility.yul\":21357:21450   */\n      tag_431\n      jump\t// in\n    tag_630:\n        /* \"#utility.yul\":21475:21477   */\n      0x20\n        /* \"#utility.yul\":21470:21473   */\n      dup3\n        /* \"#utility.yul\":21466:21478   */\n      add\n        /* \"#utility.yul\":21459:21478   */\n      swap1\n      pop\n        /* \"#utility.yul\":21118:21484   */\n      swap2\n      swap1\n      pop\n      jump\t// out\n        /* \"#utility.yul\":21490:21909   */\n    tag_307:\n        /* \"#utility.yul\":21656:21660   */\n      0x00\n        /* \"#utility.yul\":21694:21696   */\n      0x20\n        /* \"#utility.yul\":21683:21692   */\n      dup3\n        /* \"#utility.yul\":21679:21697   */\n      add\n        /* \"#utility.yul\":21671:21697   */\n      swap1\n      pop\n        /* \"#utility.yul\":21743:21752   */\n      dup2\n        /* \"#utility.yul\":21737:21741   */\n      dup2\n        /* \"#utility.yul\":21733:21753   */\n      sub\n        /* \"#utility.yul\":21729:21730   */\n      0x00\n        /* \"#utility.yul\":21718:21727   */\n      dup4\n        /* \"#utility.yul\":21714:21731   */\n      add\n        /* \"#utility.yul\":21707:21754   */\n      mstore\n        /* \"#utility.yul\":21771:21902   */\n      tag_632\n        /* \"#utility.yul\":21897:21901   */\n      dup2\n        /* \"#utility.yul\":21771:21902   */\n      tag_432\n      jump\t// in\n    tag_632:\n        /* \"#utility.yul\":21763:21902   */\n      swap1\n      pop\n        /* \"#utility.yul\":21490:21909   */\n      swap2\n      swap1\n      pop\n      jump\t// out\n        /* \"#utility.yul\":21915:22084   */\n    tag_433:\n        /* \"#utility.yul\":22055:22076   */\n      0x446561646c696e65206e6f742070617373656400000000000000000000000000\n        /* \"#utility.yul\":22051:22052   */\n      0x00\n        /* \"#utility.yul\":22043:22049   */\n      dup3\n        /* \"#utility.yul\":22039:22053   */\n      add\n        /* \"#utility.yul\":22032:22077   */\n      mstore\n        /* \"#utility.yul\":21915:22084   */\n      pop\n      jump\t// out\n        /* \"#utility.yul\":22090:22456   */\n    tag_434:\n        /* \"#utility.yul\":22232:22235   */\n      0x00\n        /* \"#utility.yul\":22253:22320   */\n      tag_635\n        /* \"#utility.yul\":22317:22319   */\n      0x13\n        /* \"#utility.yul\":22312:22315   */\n      dup4\n        /* \"#utility.yul\":22253:22320   */\n      tag_388\n      jump\t// in\n    tag_635:\n        /* \"#utility.yul\":22246:22320   */\n      swap2\n      pop\n        /* \"#utility.yul\":22329:22422   */\n      tag_636\n        /* \"#utility.yul\":22418:22421   */\n      dup3\n        /* \"#utility.yul\":22329:22422   */\n      tag_433\n      jump\t// in\n    tag_636:\n        /* \"#utility.yul\":22447:22449   */\n      0x20\n        /* \"#utility.yul\":22442:22445   */\n      dup3\n        /* \"#utility.yul\":22438:22450   */\n      add\n        /* \"#utility.yul\":22431:22450   */\n      swap1\n      pop\n        /* \"#utility.yul\":22090:22456   */\n      swap2\n      swap1\n      pop\n      jump\t// out\n        /* \"#utility.yul\":22462:22881   */\n    tag_310:\n        /* \"#utility.yul\":22628:22632   */\n      0x00\n        /* \"#utility.yul\":22666:22668   */\n      0x20\n        /* \"#utility.yul\":22655:22664   */\n      dup3\n        /* \"#utility.yul\":22651:22669   */\n      add\n        /* \"#utility.yul\":22643:22669   */\n      swap1\n      pop\n        /* \"#utility.yul\":22715:22724   */\n      dup2\n        /* \"#utility.yul\":22709:22713   */\n      dup2\n        /* \"#utility.yul\":22705:22725   */\n      sub\n        /* \"#utility.yul\":22701:22702   */\n      0x00\n        /* \"#utility.yul\":22690:22699   */\n      dup4\n        /* \"#utility.yul\":22686:22703   */\n      add\n        /* \"#utility.yul\":22679:22726   */\n      mstore\n        /* \"#utility.yul\":22743:22874   */\n      tag_638\n        /* \"#utility.yul\":22869:22873   */\n      dup2\n        /* \"#utility.yul\":22743:22874   */\n      tag_434\n      jump\t// in\n    tag_638:\n        /* \"#utility.yul\":22735:22874   */\n      swap1\n      pop\n        /* \"#utility.yul\":22462:22881   */\n      swap2\n      swap1\n      pop\n      jump\t// out\n        /* \"#utility.yul\":22887:23068   */\n    tag_435:\n        /* \"#utility.yul\":23027:23060   */\n      0x5265656e7472616e637947756172643a207265656e7472616e742063616c6c00\n        /* \"#utility.yul\":23023:23024   */\n      0x00\n        /* \"#utility.yul\":23015:23021   */\n      dup3\n        /* \"#utility.yul\":23011:23025   */\n      add\n        /* \"#utility.yul\":23004:23061   */\n      mstore\n        /* \"#utility.yul\":22887:23068   */\n      pop\n      jump\t// out\n        /* \"#utility.yul\":23074:23440   */\n    tag_436:\n        /* \"#utility.yul\":23216:23219   */\n      0x00\n        /* \"#utility.yul\":23237:23304   */\n      tag_641\n        /* \"#utility.yul\":23301:23303   */\n      0x1f\n        /* \"#utility.yul\":23296:23299   */\n      dup4\n        /* \"#utility.yul\":23237:23304   */\n      tag_388\n      jump\t// in\n    tag_641:\n        /* \"#utility.yul\":23230:23304   */\n      swap2\n      pop\n        /* \"#utility.yul\":23313:23406   */\n      tag_642\n        /* \"#utility.yul\":23402:23405   */\n      dup3\n        /* \"#utility.yul\":23313:23406   */\n      tag_435\n      jump\t// in\n    tag_642:\n        /* \"#utility.yul\":23431:23433   */\n      0x20\n        /* \"#utility.yul\":23426:23429   */\n      dup3\n        /* \"#utility.yul\":23422:23434   */\n      add\n        /* \"#utility.yul\":23415:23434   */\n      swap1\n      pop\n        /* \"#utility.yul\":23074:23440   */\n      swap2\n      swap1\n      pop\n      jump\t// out\n        /* \"#utility.yul\":23446:23865   */\n    tag_319:\n        /* \"#utility.yul\":23612:23616   */\n      0x00\n        /* \"#utility.yul\":23650:23652   */\n      0x20\n        /* \"#utility.yul\":23639:23648   */\n      dup3\n        /* \"#utility.yul\":23635:23653   */\n      add\n        /* \"#utility.yul\":23627:23653   */\n      swap1\n      pop\n        /* \"#utility.yul\":23699:23708   */\n      dup2\n        /* \"#utility.yul\":23693:23697   */\n      dup2\n        /* \"#utility.yul\":23689:23709   */\n      sub\n        /* \"#utility.yul\":23685:23686   */\n      0x00\n        /* \"#utility.yul\":23674:23683   */\n      dup4\n        /* \"#utility.yul\":23670:23687   */\n      add\n        /* \"#utility.yul\":23663:23710   */\n      mstore\n        /* \"#utility.yul\":23727:23858   */\n      tag_644\n        /* \"#utility.yul\":23853:23857   */\n      dup2\n        /* \"#utility.yul\":23727:23858   */\n      tag_436\n      jump\t// in\n    tag_644:\n        /* \"#utility.yul\":23719:23858   */\n      swap1\n      pop\n        /* \"#utility.yul\":23446:23865   */\n      swap2\n      swap1\n      pop\n      jump\t// out\n        /* \"#utility.yul\":23871:24203   */\n    tag_333:\n        /* \"#utility.yul\":23992:23996   */\n      0x00\n        /* \"#utility.yul\":24030:24032   */\n      0x40\n        /* \"#utility.yul\":24019:24028   */\n      dup3\n        /* \"#utility.yul\":24015:24033   */\n      add\n        /* \"#utility.yul\":24007:24033   */\n      swap1\n      pop\n        /* \"#utility.yul\":24043:24114   */\n      tag_646\n        /* \"#utility.yul\":24111:24112   */\n      0x00\n        /* \"#utility.yul\":24100:24109   */\n      dup4\n        /* \"#utility.yul\":24096:24113   */\n      add\n        /* \"#utility.yul\":24087:24093   */\n      dup6\n        /* \"#utility.yul\":24043:24114   */\n      tag_372\n      jump\t// in\n    tag_646:\n        /* \"#utility.yul\":24124:24196   */\n      tag_647\n        /* \"#utility.yul\":24192:24194   */\n      0x20\n        /* \"#utility.yul\":24181:24190   */\n      dup4\n        /* \"#utility.yul\":24177:24195   */\n      add\n        /* \"#utility.yul\":24168:24174   */\n      dup5\n        /* \"#utility.yul\":24124:24196   */\n      tag_374\n      jump\t// in\n    tag_647:\n        /* \"#utility.yul\":23871:24203   */\n      swap4\n      swap3\n      pop\n      pop\n      pop\n      jump\t// out\n        /* \"#utility.yul\":24209:24651   */\n    tag_353:\n        /* \"#utility.yul\":24358:24362   */\n      0x00\n        /* \"#utility.yul\":24396:24398   */\n      0x60\n        /* \"#utility.yul\":24385:24394   */\n      dup3\n        /* \"#utility.yul\":24381:24399   */\n      add\n        /* \"#utility.yul\":24373:24399   */\n      swap1\n      pop\n        /* \"#utility.yul\":24409:24480   */\n      tag_649\n        /* \"#utility.yul\":24477:24478   */\n      0x00\n        /* \"#utility.yul\":24466:24475   */\n      dup4\n        /* \"#utility.yul\":24462:24479   */\n      add\n        /* \"#utility.yul\":24453:24459   */\n      dup7\n        /* \"#utility.yul\":24409:24480   */\n      tag_372\n      jump\t// in\n    tag_649:\n        /* \"#utility.yul\":24490:24562   */\n      tag_650\n        /* \"#utility.yul\":24558:24560   */\n      0x20\n        /* \"#utility.yul\":24547:24556   */\n      dup4\n        /* \"#utility.yul\":24543:24561   */\n      add\n        /* \"#utility.yul\":24534:24540   */\n      dup6\n        /* \"#utility.yul\":24490:24562   */\n      tag_372\n      jump\t// in\n    tag_650:\n        /* \"#utility.yul\":24572:24644   */\n      tag_651\n        /* \"#utility.yul\":24640:24642   */\n      0x40\n        /* \"#utility.yul\":24629:24638   */\n      dup4\n        /* \"#utility.yul\":24625:24643   */\n      add\n        /* \"#utility.yul\":24616:24622   */\n      dup5\n        /* \"#utility.yul\":24572:24644   */\n      tag_374\n      jump\t// in\n    tag_651:\n        /* \"#utility.yul\":24209:24651   */\n      swap5\n      swap4\n      pop\n      pop\n      pop\n      pop\n      jump\t// out\n\n    auxdata: 0xa264697066735822122019a42b789a5ecc11285ac63bdcff7af63c4a08f20e48aff25617d9ada9a1f65f64736f6c634300081e0033\n}\n",
				"bytecode": {
					"linkReferences": {},
					"object": "60e060405234801561000f575f5ffd5b50604051613af2380380613af283398181016040528101906100319190610886565b60015f819055505f73ffffffffffffffffffffffffffffffffffffffff168673ffffffffffffffffffffffffffffffffffffffff16036100a6576040517f08c379a000000000000000000000000000000000000000000000000000000000815260040161009d906109bd565b60405180910390fd5b5f73ffffffffffffffffffffffffffffffffffffffff168573ffffffffffffffffffffffffffffffffffffffff1603610114576040517f08c379a000000000000000000000000000000000000000000000000000000000815260040161010b90610a25565b60405180910390fd5b5f73ffffffffffffffffffffffffffffffffffffffff168473ffffffffffffffffffffffffffffffffffffffff1603610182576040517f08c379a000000000000000000000000000000000000000000000000000000000815260040161017990610a8d565b60405180910390fd5b8473ffffffffffffffffffffffffffffffffffffffff168673ffffffffffffffffffffffffffffffffffffffff16036101f0576040517f08c379a00000000000000000000000000000000000000000000000000000000081526004016101e790610af5565b60405180910390fd5b5f835111610233576040517f08c379a000000000000000000000000000000000000000000000000000000000815260040161022a90610b5d565b60405180910390fd5b81518351148015610245575080518351145b610284576040517f08c379a000000000000000000000000000000000000000000000000000000000815260040161027b90610bc5565b60405180910390fd5b8573ffffffffffffffffffffffffffffffffffffffff1660808173ffffffffffffffffffffffffffffffffffffffff16815250508473ffffffffffffffffffffffffffffffffffffffff1660a08173ffffffffffffffffffffffffffffffffffffffff16815250508373ffffffffffffffffffffffffffffffffffffffff1660c08173ffffffffffffffffffffffffffffffffffffffff16815250505f5f90505f5f90505b84518110156104cd575f85828151811061034657610345610be3565b5b60200260200101511161038e576040517f08c379a000000000000000000000000000000000000000000000000000000000815260040161038590610c5a565b60405180910390fd5b60046040518060a001604052808784815181106103ae576103ad610be3565b5b602002602001015181526020015f151581526020015f151581526020018684815181106103de576103dd610be3565b5b602002602001015181526020018584815181106103fe576103fd610be3565b5b6020026020010151815250908060018154018082558091505060019003905f5260205f2090600402015f909190919091505f820151815f01556020820151816001015f6101000a81548160ff02191690831515021790555060408201518160010160016101000a81548160ff0219169083151502179055506060820151816002015560808201518160030190816104959190610e7f565b5050508481815181106104ab576104aa610be3565b5b6020026020010151826104be9190610f7b565b91508080600101915050610329565b50806002819055505f60015f6101000a81548160ff021916908360048111156104f9576104f8610fae565b5b021790555050505050505050610fdb565b5f604051905090565b5f5ffd5b5f5ffd5b5f73ffffffffffffffffffffffffffffffffffffffff82169050919050565b5f6105448261051b565b9050919050565b6105548161053a565b811461055e575f5ffd5b50565b5f8151905061056f8161054b565b92915050565b5f5ffd5b5f601f19601f8301169050919050565b7f4e487b71000000000000000000000000000000000000000000000000000000005f52604160045260245ffd5b6105bf82610579565b810181811067ffffffffffffffff821117156105de576105dd610589565b5b80604052505050565b5f6105f061050a565b90506105fc82826105b6565b919050565b5f67ffffffffffffffff82111561061b5761061a610589565b5b602082029050602081019050919050565b5f5ffd5b5f819050919050565b61064281610630565b811461064c575f5ffd5b50565b5f8151905061065d81610639565b92915050565b5f61067561067084610601565b6105e7565b905080838252602082019050602084028301858111156106985761069761062c565b5b835b818110156106c157806106ad888261064f565b84526020840193505060208101905061069a565b5050509392505050565b5f82601f8301126106df576106de610575565b5b81516106ef848260208601610663565b91505092915050565b5f67ffffffffffffffff82111561071257610711610589565b5b602082029050602081019050919050565b5f5ffd5b5f67ffffffffffffffff82111561074157610740610589565b5b61074a82610579565b9050602081019050919050565b8281835e5f83830152505050565b5f61077761077284610727565b6105e7565b90508281526020810184848401111561079357610792610723565b5b61079e848285610757565b509392505050565b5f82601f8301126107ba576107b9610575565b5b81516107ca848260208601610765565b91505092915050565b5f6107e56107e0846106f8565b6105e7565b905080838252602082019050602084028301858111156108085761080761062c565b5b835b8181101561084f57805167ffffffffffffffff81111561082d5761082c610575565b5b80860161083a89826107a6565b8552602085019450505060208101905061080a565b5050509392505050565b5f82601f83011261086d5761086c610575565b5b815161087d8482602086016107d3565b91505092915050565b5f5f5f5f5f5f60c087890312156108a05761089f610513565b5b5f6108ad89828a01610561565b96505060206108be89828a01610561565b95505060406108cf89828a01610561565b945050606087015167ffffffffffffffff8111156108f0576108ef610517565b5b6108fc89828a016106cb565b935050608087015167ffffffffffffffff81111561091d5761091c610517565b5b61092989828a016106cb565b92505060a087015167ffffffffffffffff81111561094a57610949610517565b5b61095689828a01610859565b9150509295509295509295565b5f82825260208201905092915050565b7f496e76616c69642066756e6465720000000000000000000000000000000000005f82015250565b5f6109a7600e83610963565b91506109b282610973565b602082019050919050565b5f6020820190508181035f8301526109d48161099b565b9050919050565b7f496e76616c696420646576656c6f7065720000000000000000000000000000005f82015250565b5f610a0f601183610963565b9150610a1a826109db565b602082019050919050565b5f6020820190508181035f830152610a3c81610a03565b9050919050565b7f496e76616c696420746f6b656e000000000000000000000000000000000000005f82015250565b5f610a77600d83610963565b9150610a8282610a43565b602082019050919050565b5f6020820190508181035f830152610aa481610a6b565b9050919050565b7f46756e6465722063616e6e6f7420626520646576656c6f7065720000000000005f82015250565b5f610adf601a83610963565b9150610aea82610aab565b602082019050919050565b5f6020820190508181035f830152610b0c81610ad3565b9050919050565b7f4e6f206d696c6573746f6e6573000000000000000000000000000000000000005f82015250565b5f610b47600d83610963565b9150610b5282610b13565b602082019050919050565b5f6020820190508181035f830152610b7481610b3b565b9050919050565b7f496e76616c6964206d696c6573746f6e652061727261797300000000000000005f82015250565b5f610baf601883610963565b9150610bba82610b7b565b602082019050919050565b5f6020820190508181035f830152610bdc81610ba3565b9050919050565b7f4e487b71000000000000000000000000000000000000000000000000000000005f52603260045260245ffd5b7f5a65726f206d696c6573746f6e6520616d6f756e7400000000000000000000005f82015250565b5f610c44601583610963565b9150610c4f82610c10565b602082019050919050565b5f6020820190508181035f830152610c7181610c38565b9050919050565b5f81519050919050565b7f4e487b71000000000000000000000000000000000000000000000000000000005f52602260045260245ffd5b5f6002820490506001821680610cc657607f821691505b602082108103610cd957610cd8610c82565b5b50919050565b5f819050815f5260205f209050919050565b5f6020601f8301049050919050565b5f82821b905092915050565b5f60088302610d3b7fffffffffffffffffffffffffffffffffffffffffffffffffffffffffffffffff82610d00565b610d458683610d00565b95508019841693508086168417925050509392505050565b5f819050919050565b5f610d80610d7b610d7684610630565b610d5d565b610630565b9050919050565b5f819050919050565b610d9983610d66565b610dad610da582610d87565b848454610d0c565b825550505050565b5f5f905090565b610dc4610db5565b610dcf818484610d90565b505050565b5b81811015610df257610de75f82610dbc565b600181019050610dd5565b5050565b601f821115610e3757610e0881610cdf565b610e1184610cf1565b81016020851015610e20578190505b610e34610e2c85610cf1565b830182610dd4565b50505b505050565b5f82821c905092915050565b5f610e575f1984600802610e3c565b1980831691505092915050565b5f610e6f8383610e48565b9150826002028217905092915050565b610e8882610c78565b67ffffffffffffffff811115610ea157610ea0610589565b5b610eab8254610caf565b610eb6828285610df6565b5f60209050601f831160018114610ee7575f8415610ed5578287015190505b610edf8582610e64565b865550610f46565b601f198416610ef586610cdf565b5f5b82811015610f1c57848901518255600182019150602085019450602081019050610ef7565b86831015610f395784890151610f35601f891682610e48565b8355505b6001600288020188555050505b505050505050565b7f4e487b71000000000000000000000000000000000000000000000000000000005f52601160045260245ffd5b5f610f8582610630565b9150610f9083610630565b9250828201905080821115610fa857610fa7610f4e565b5b92915050565b7f4e487b71000000000000000000000000000000000000000000000000000000005f52602160045260245ffd5b60805160a05160c051612a5a6110985f395f81816104d9015281816105900152818161086601528181610d2001528181610f350152818161132b01528181611516015281816119b60152611a9c01525f818161084101528181611027015281816111a60152818161130901526115e201525f8181610371015281816103a7015281816104b7015281816105b401528181610bee01528181610cfe01528181610fd201528181611415015281816116e601526119910152612a5a5ff3fe608060405234801561000f575f5ffd5b5060043610610135575f3560e01c80635ac482d1116100b6578063b60d42881161007a578063b60d4288146102bb578063b95d8dd4146102c5578063c19d93fb146102e3578063ca4b208b14610301578063e89e4ed61461031f578063f75fdcaa1461035357610135565b80635ac482d11461024f578063629e4ed0146102595780636f9fb98a14610277578063725a3b4b14610295578063b4f5a711146102b157610135565b80633013ce29116100fd5780633013ce29146101bb578063317debf5146101d95780633ddb47b4146101f557806345d30a17146102135780634e69d5601461023157610135565b8063041ae880146101395780630681ca55146101575780631a39d8ef146101755780631adff0ee146101935780632fba2c851461019d575b5f5ffd5b61014161036f565b60405161014e9190611f05565b60405180910390f35b61015f610393565b60405161016c9190611f36565b60405180910390f35b61017d61039f565b60405161018a9190611f36565b60405180910390f35b61019b6103a5565b005b6101a5610580565b6040516101b29190611f36565b60405180910390f35b6101c361058e565b6040516101d09190611faa565b60405180910390f35b6101f360048036038101906101ee9190611ffe565b6105b2565b005b6101fd6108fb565b60405161020a9190612043565b60405180910390f35b61021b610957565b6040516102289190611f36565b60405180910390f35b61023961095d565b60405161024691906120cc565b60405180910390f35b610257610bec565b005b610261610dfe565b60405161026e9190612280565b60405180910390f35b61027f610f32565b60405161028c9190611f36565b60405180910390f35b6102af60048036038101906102aa91906123cc565b610fd0565b005b6102b96111a4565b005b6102c3611413565b005b6102cd6115c8565b6040516102da9190611f36565b60405180910390f35b6102eb6115ce565b6040516102f89190612486565b60405180910390f35b6103096115e0565b6040516103169190611f05565b60405180910390f35b61033960048036038101906103349190611ffe565b611604565b60405161034a95949392919061249f565b60405180910390f35b61036d60048036038101906103689190611ffe565b6116e4565b005b7f000000000000000000000000000000000000000000000000000000000000000081565b5f600480549050905090565b60025481565b7f000000000000000000000000000000000000000000000000000000000000000073ffffffffffffffffffffffffffffffffffffffff163373ffffffffffffffffffffffffffffffffffffffff161461042a576040517fa598aebe00000000000000000000000000000000000000000000000000000000815260040160405180910390fd5b600180600481111561043f5761043e612413565b5b60015f9054906101000a900460ff1660048111156104605761045f612413565b5b14610497576040517fbaf3f0f700000000000000000000000000000000000000000000000000000000815260040160405180910390fd5b61049f611a4b565b5f6104a8611a98565b90505f81111561051e5761051d7f0000000000000000000000000000000000000000000000000000000000000000827f000000000000000000000000000000000000000000000000000000000000000073ffffffffffffffffffffffffffffffffffffffff16611b7e9092919063ffffffff16565b5b600360015f6101000a81548160ff0219169083600481111561054357610542612413565b5b02179055507f92c439fda90c70ccdedcb94d28a14f9fda69d67124efbbe9bf905740194228c860405160405180910390a15061057d611bfd565b50565b5f610589611a98565b905090565b7f000000000000000000000000000000000000000000000000000000000000000081565b7f000000000000000000000000000000000000000000000000000000000000000073ffffffffffffffffffffffffffffffffffffffff163373ffffffffffffffffffffffffffffffffffffffff1614610637576040517fa598aebe00000000000000000000000000000000000000000000000000000000815260040160405180910390fd5b600180600481111561064c5761064b612413565b5b60015f9054906101000a900460ff16600481111561066d5761066c612413565b5b146106a4576040517fbaf3f0f700000000000000000000000000000000000000000000000000000000815260040160405180910390fd5b8160048054905081106106e3576040517fba11734000000000000000000000000000000000000000000000000000000000815260040160405180910390fd5b6106eb611a4b565b5f60048481548110610700576106ff6124f7565b5b905f5260205f2090600402019050806001015f9054906101000a900460ff161561075f576040517f08c379a00000000000000000000000000000000000000000000000000000000081526004016107569061256e565b60405180910390fd5b8060010160019054906101000a900460ff16156107b1576040517f08c379a00000000000000000000000000000000000000000000000000000000081526004016107a8906125d6565b60405180910390fd5b5f81600201541115610805578060020154421115610804576040517f08c379a00000000000000000000000000000000000000000000000000000000081526004016107fb9061263e565b60405180910390fd5b5b6001816001015f6101000a81548160ff021916908315150217905550805f015460035f8282546108359190612689565b925050819055506108aa7f0000000000000000000000000000000000000000000000000000000000000000825f01547f000000000000000000000000000000000000000000000000000000000000000073ffffffffffffffffffffffffffffffffffffffff16611b7e9092919063ffffffff16565b837f9e069181c12760c2cd0078ed4facdbe1f3614543b0fbff5dbcac3cbc61a0b64e825f01546040516108dd9190611f36565b60405180910390a26108ed611c06565b506108f6611bfd565b505050565b5f60048081111561090f5761090e612413565b5b60015f9054906101000a900460ff1660048111156109305761092f612413565b5b1461093d575f9050610954565b62278d0060055461094e9190612689565b42101590505b90565b60035481565b60605f600481111561097257610971612413565b5b60015f9054906101000a900460ff16600481111561099357610992612413565b5b036109d5576040518060400160405280601b81526020017f43726561746564202857616974696e6720666f722066756e64732900000000008152509050610be9565b600160048111156109e9576109e8612413565b5b60015f9054906101000a900460ff166004811115610a0a57610a09612413565b5b03610a4c576040518060400160405280600f81526020017f46756e64656420284163746976652900000000000000000000000000000000008152509050610be9565b60026004811115610a6057610a5f612413565b5b60015f9054906101000a900460ff166004811115610a8157610a80612413565b5b03610ac3576040518060400160405280600981526020017f436f6d706c6574656400000000000000000000000000000000000000000000008152509050610be9565b60036004811115610ad757610ad6612413565b5b60015f9054906101000a900460ff166004811115610af857610af7612413565b5b03610b3a576040518060400160405280600981526020017f43616e63656c6c656400000000000000000000000000000000000000000000008152509050610be9565b600480811115610b4d57610b4c612413565b5b60015f9054906101000a900460ff166004811115610b6e57610b6d612413565b5b03610bb0576040518060400160405280600881526020017f44697370757465640000000000000000000000000000000000000000000000008152509050610be9565b6040518060400160405280600781526020017f556e6b6e6f776e0000000000000000000000000000000000000000000000000081525090505b90565b7f000000000000000000000000000000000000000000000000000000000000000073ffffffffffffffffffffffffffffffffffffffff163373ffffffffffffffffffffffffffffffffffffffff1614610c71576040517fa598aebe00000000000000000000000000000000000000000000000000000000815260040160405180910390fd5b6004806004811115610c8657610c85612413565b5b60015f9054906101000a900460ff166004811115610ca757610ca6612413565b5b14610cde576040517fbaf3f0f700000000000000000000000000000000000000000000000000000000815260040160405180910390fd5b610ce6611a4b565b5f610cef611a98565b90505f811115610d6557610d647f0000000000000000000000000000000000000000000000000000000000000000827f000000000000000000000000000000000000000000000000000000000000000073ffffffffffffffffffffffffffffffffffffffff16611b7e9092919063ffffffff16565b5b600360015f6101000a81548160ff02191690836004811115610d8a57610d89612413565b5b02179055507f8015c5005d9ad5d85ca80d3f894f08e0159277704c54166e5cff108800fa80cd5f604051610dbe9190612043565b60405180910390a17f92c439fda90c70ccdedcb94d28a14f9fda69d67124efbbe9bf905740194228c860405160405180910390a150610dfb611bfd565b50565b60606004805480602002602001604051908101604052809291908181526020015f905b82821015610f29578382905f5260205f2090600402016040518060a00160405290815f8201548152602001600182015f9054906101000a900460ff161515151581526020016001820160019054906101000a900460ff1615151515815260200160028201548152602001600382018054610e9a906126e9565b80601f0160208091040260200160405190810160405280929190818152602001828054610ec6906126e9565b8015610f115780601f10610ee857610100808354040283529160200191610f11565b820191905f5260205f20905b815481529060010190602001808311610ef457829003601f168201915b50505050508152505081526020019060010190610e21565b50505050905090565b5f7f000000000000000000000000000000000000000000000000000000000000000073ffffffffffffffffffffffffffffffffffffffff166370a08231306040518263ffffffff1660e01b8152600401610f8c9190611f05565b602060405180830381865afa158015610fa7573d5f5f3e3d5ffd5b505050506040513d601f19601f82011682018060405250810190610fcb919061272d565b905090565b7f000000000000000000000000000000000000000000000000000000000000000073ffffffffffffffffffffffffffffffffffffffff163373ffffffffffffffffffffffffffffffffffffffff16148061107557507f000000000000000000000000000000000000000000000000000000000000000073ffffffffffffffffffffffffffffffffffffffff163373ffffffffffffffffffffffffffffffffffffffff16145b6110b4576040517f08c379a00000000000000000000000000000000000000000000000000000000081526004016110ab906127a2565b60405180910390fd5b60018060048111156110c9576110c8612413565b5b60015f9054906101000a900460ff1660048111156110ea576110e9612413565b5b14611121576040517fbaf3f0f700000000000000000000000000000000000000000000000000000000815260040160405180910390fd5b600460015f6101000a81548160ff0219169083600481111561114657611145612413565b5b0217905550426005819055503373ffffffffffffffffffffffffffffffffffffffff167f28b099eb575e23e32becd7c30dc8f9b2f98e370cdbf9841ea3338d9000402a258360405161119891906120cc565b60405180910390a25050565b7f000000000000000000000000000000000000000000000000000000000000000073ffffffffffffffffffffffffffffffffffffffff163373ffffffffffffffffffffffffffffffffffffffff1614611229576040517f8858596300000000000000000000000000000000000000000000000000000000815260040160405180910390fd5b600480600481111561123e5761123d612413565b5b60015f9054906101000a900460ff16600481111561125f5761125e612413565b5b14611296576040517fbaf3f0f700000000000000000000000000000000000000000000000000000000815260040160405180910390fd5b61129e611a4b565b62278d006005546112af9190612689565b4210156112f1576040517f08c379a00000000000000000000000000000000000000000000000000000000081526004016112e89061280a565b60405180910390fd5b5f6112fa611a98565b90505f8111156113705761136f7f0000000000000000000000000000000000000000000000000000000000000000827f000000000000000000000000000000000000000000000000000000000000000073ffffffffffffffffffffffffffffffffffffffff16611b7e9092919063ffffffff16565b5b600260015f6101000a81548160ff0219169083600481111561139557611394612413565b5b02179055506002546003819055507f8015c5005d9ad5d85ca80d3f894f08e0159277704c54166e5cff108800fa80cd60016040516113d39190612043565b60405180910390a17fe39866727217e43713c3728c5769515e8fb38e990b568b9831c1689dfdf67b6660405160405180910390a150611410611bfd565b50565b7f000000000000000000000000000000000000000000000000000000000000000073ffffffffffffffffffffffffffffffffffffffff163373ffffffffffffffffffffffffffffffffffffffff1614611498576040517fa598aebe00000000000000000000000000000000000000000000000000000000815260040160405180910390fd5b5f8060048111156114ac576114ab612413565b5b60015f9054906101000a900460ff1660048111156114cd576114cc612413565b5b14611504576040517fbaf3f0f700000000000000000000000000000000000000000000000000000000815260040160405180910390fd5b61150c611a4b565b61155b33306002547f000000000000000000000000000000000000000000000000000000000000000073ffffffffffffffffffffffffffffffffffffffff16611cf5909392919063ffffffff16565b6001805f6101000a81548160ff0219169083600481111561157f5761157e612413565b5b02179055507f2301e0a2ad8f6e28a7fbb09e96f5c14e588fac346ed5ce607e1a018bc76886466002546040516115b59190611f36565b60405180910390a16115c5611bfd565b50565b60055481565b60015f9054906101000a900460ff1681565b7f000000000000000000000000000000000000000000000000000000000000000081565b60048181548110611613575f80fd5b905f5260205f2090600402015f91509050805f015490806001015f9054906101000a900460ff16908060010160019054906101000a900460ff1690806002015490806003018054611663906126e9565b80601f016020809104026020016040519081016040528092919081815260200182805461168f906126e9565b80156116da5780601f106116b1576101008083540402835291602001916116da565b820191905f5260205f20905b8154815290600101906020018083116116bd57829003601f168201915b5050505050905085565b7f000000000000000000000000000000000000000000000000000000000000000073ffffffffffffffffffffffffffffffffffffffff163373ffffffffffffffffffffffffffffffffffffffff1614611769576040517fa598aebe00000000000000000000000000000000000000000000000000000000815260040160405180910390fd5b600180600481111561177e5761177d612413565b5b60015f9054906101000a900460ff16600481111561179f5761179e612413565b5b146117d6576040517fbaf3f0f700000000000000000000000000000000000000000000000000000000815260040160405180910390fd5b816004805490508110611815576040517fba11734000000000000000000000000000000000000000000000000000000000815260040160405180910390fd5b61181d611a4b565b5f60048481548110611832576118316124f7565b5b905f5260205f2090600402019050806001015f9054906101000a900460ff1615611891576040517f08c379a00000000000000000000000000000000000000000000000000000000081526004016118889061256e565b60405180910390fd5b8060010160019054906101000a900460ff16156118e3576040517f08c379a00000000000000000000000000000000000000000000000000000000081526004016118da90612872565b60405180910390fd5b5f816002015411611929576040517f08c379a0000000000000000000000000000000000000000000000000000000008152600401611920906128da565b60405180910390fd5b8060020154421161196f576040517f08c379a000000000000000000000000000000000000000000000000000000000815260040161196690612942565b60405180910390fd5b60018160010160016101000a81548160ff0219169083151502179055506119fa7f0000000000000000000000000000000000000000000000000000000000000000825f01547f000000000000000000000000000000000000000000000000000000000000000073ffffffffffffffffffffffffffffffffffffffff16611b7e9092919063ffffffff16565b837fdadefb9d4c98ce0b09100daf8b195e7882f849f58f6760ff36762958c0f7b8a8825f0154604051611a2d9190611f36565b60405180910390a2611a3d611d77565b50611a46611bfd565b505050565b60025f5403611a8f576040517f08c379a0000000000000000000000000000000000000000000000000000000008152600401611a86906129aa565b60405180910390fd5b60025f81905550565b5f5f7f000000000000000000000000000000000000000000000000000000000000000073ffffffffffffffffffffffffffffffffffffffff166370a08231306040518263ffffffff1660e01b8152600401611af39190611f05565b602060405180830381865afa158015611b0e573d5f5f3e3d5ffd5b505050506040513d601f19601f82011682018060405250810190611b32919061272d565b90505f6004811115611b4757611b46612413565b5b60015f9054906101000a900460ff166004811115611b6857611b67612413565b5b03611b76575f915050611b7b565b809150505b90565b611bf8838473ffffffffffffffffffffffffffffffffffffffff1663a9059cbb8585604051602401611bb19291906129c8565b604051602081830303815290604052915060e01b6020820180517bffffffffffffffffffffffffffffffffffffffffffffffffffffffff8381831617835250505050611e2b565b505050565b60015f81905550565b5f5f90505b600480549050811015611c9b5760048181548110611c2c57611c2b6124f7565b5b905f5260205f2090600402016001015f9054906101000a900460ff16158015611c83575060048181548110611c6457611c636124f7565b5b905f5260205f20906004020160010160019054906101000a900460ff16155b15611c8e5750611cf3565b8080600101915050611c0b565b50600260015f6101000a81548160ff02191690836004811115611cc157611cc0612413565b5b02179055507fe39866727217e43713c3728c5769515e8fb38e990b568b9831c1689dfdf67b6660405160405180910390a15b565b611d71848573ffffffffffffffffffffffffffffffffffffffff166323b872dd868686604051602401611d2a939291906129ef565b604051602081830303815290604052915060e01b6020820180517bffffffffffffffffffffffffffffffffffffffffffffffffffffffff8381831617835250505050611e2b565b50505050565b5f5f90505b600480549050811015611dd15760048181548110611d9d57611d9c6124f7565b5b905f5260205f20906004020160010160019054906101000a900460ff16611dc45750611e29565b8080600101915050611d7c565b50600360015f6101000a81548160ff02191690836004811115611df757611df6612413565b5b02179055507f92c439fda90c70ccdedcb94d28a14f9fda69d67124efbbe9bf905740194228c860405160405180910390a15b565b5f5f60205f8451602086015f885af180611e4a576040513d5f823e3d81fd5b3d92505f519150505f8214611e63576001811415611e7e565b5f8473ffffffffffffffffffffffffffffffffffffffff163b145b15611ec057836040517f5274afe7000000000000000000000000000000000000000000000000000000008152600401611eb79190611f05565b60405180910390fd5b50505050565b5f73ffffffffffffffffffffffffffffffffffffffff82169050919050565b5f611eef82611ec6565b9050919050565b611eff81611ee5565b82525050565b5f602082019050611f185f830184611ef6565b92915050565b5f819050919050565b611f3081611f1e565b82525050565b5f602082019050611f495f830184611f27565b92915050565b5f819050919050565b5f611f72611f6d611f6884611ec6565b611f4f565b611ec6565b9050919050565b5f611f8382611f58565b9050919050565b5f611f9482611f79565b9050919050565b611fa481611f8a565b82525050565b5f602082019050611fbd5f830184611f9b565b92915050565b5f604051905090565b5f5ffd5b5f5ffd5b611fdd81611f1e565b8114611fe7575f5ffd5b50565b5f81359050611ff881611fd4565b92915050565b5f6020828403121561201357612012611fcc565b5b5f61202084828501611fea565b91505092915050565b5f8115159050919050565b61203d81612029565b82525050565b5f6020820190506120565f830184612034565b92915050565b5f81519050919050565b5f82825260208201905092915050565b8281835e5f83830152505050565b5f601f19601f8301169050919050565b5f61209e8261205c565b6120a88185612066565b93506120b8818560208601612076565b6120c181612084565b840191505092915050565b5f6020820190508181035f8301526120e48184612094565b905092915050565b5f81519050919050565b5f82825260208201905092915050565b5f819050602082019050919050565b61211e81611f1e565b82525050565b61212d81612029565b82525050565b5f82825260208201905092915050565b5f61214d8261205c565b6121578185612133565b9350612167818560208601612076565b61217081612084565b840191505092915050565b5f60a083015f8301516121905f860182612115565b5060208301516121a36020860182612124565b5060408301516121b66040860182612124565b5060608301516121c96060860182612115565b50608083015184820360808601526121e18282612143565b9150508091505092915050565b5f6121f9838361217b565b905092915050565b5f602082019050919050565b5f612217826120ec565b61222181856120f6565b93508360208202850161223385612106565b805f5b8581101561226e578484038952815161224f85826121ee565b945061225a83612201565b925060208a01995050600181019050612236565b50829750879550505050505092915050565b5f6020820190508181035f830152612298818461220d565b905092915050565b5f5ffd5b5f5ffd5b7f4e487b71000000000000000000000000000000000000000000000000000000005f52604160045260245ffd5b6122de82612084565b810181811067ffffffffffffffff821117156122fd576122fc6122a8565b5b80604052505050565b5f61230f611fc3565b905061231b82826122d5565b919050565b5f67ffffffffffffffff82111561233a576123396122a8565b5b61234382612084565b9050602081019050919050565b828183375f83830152505050565b5f61237061236b84612320565b612306565b90508281526020810184848401111561238c5761238b6122a4565b5b612397848285612350565b509392505050565b5f82601f8301126123b3576123b26122a0565b5b81356123c384826020860161235e565b91505092915050565b5f602082840312156123e1576123e0611fcc565b5b5f82013567ffffffffffffffff8111156123fe576123fd611fd0565b5b61240a8482850161239f565b91505092915050565b7f4e487b71000000000000000000000000000000000000000000000000000000005f52602160045260245ffd5b6005811061245157612450612413565b5b50565b5f81905061246182612440565b919050565b5f61247082612454565b9050919050565b61248081612466565b82525050565b5f6020820190506124995f830184612477565b92915050565b5f60a0820190506124b25f830188611f27565b6124bf6020830187612034565b6124cc6040830186612034565b6124d96060830185611f27565b81810360808301526124eb8184612094565b90509695505050505050565b7f4e487b71000000000000000000000000000000000000000000000000000000005f52603260045260245ffd5b7f416c72656164792072656c6561736564000000000000000000000000000000005f82015250565b5f612558601083612066565b915061256382612524565b602082019050919050565b5f6020820190508181035f8301526125858161254c565b9050919050565b7f4d696c6573746f6e652063616e63656c6c6564000000000000000000000000005f82015250565b5f6125c0601383612066565b91506125cb8261258c565b602082019050919050565b5f6020820190508181035f8301526125ed816125b4565b9050919050565b7f446561646c696e652070617373656400000000000000000000000000000000005f82015250565b5f612628600f83612066565b9150612633826125f4565b602082019050919050565b5f6020820190508181035f8301526126558161261c565b9050919050565b7f4e487b71000000000000000000000000000000000000000000000000000000005f52601160045260245ffd5b5f61269382611f1e565b915061269e83611f1e565b92508282019050808211156126b6576126b561265c565b5b92915050565b7f4e487b71000000000000000000000000000000000000000000000000000000005f52602260045260245ffd5b5f600282049050600182168061270057607f821691505b602082108103612713576127126126bc565b5b50919050565b5f8151905061272781611fd4565b92915050565b5f6020828403121561274257612741611fcc565b5b5f61274f84828501612719565b91505092915050565b7f4e6f7420617574686f72697a65640000000000000000000000000000000000005f82015250565b5f61278c600e83612066565b915061279782612758565b602082019050919050565b5f6020820190508181035f8301526127b981612780565b9050919050565b7f33302064617973206e6f742070617373656400000000000000000000000000005f82015250565b5f6127f4601283612066565b91506127ff826127c0565b602082019050919050565b5f6020820190508181035f830152612821816127e8565b9050919050565b7f416c72656164792063616e63656c6c65640000000000000000000000000000005f82015250565b5f61285c601183612066565b915061286782612828565b602082019050919050565b5f6020820190508181035f83015261288981612850565b9050919050565b7f4e6f20646561646c696e652073657400000000000000000000000000000000005f82015250565b5f6128c4600f83612066565b91506128cf82612890565b602082019050919050565b5f6020820190508181035f8301526128f1816128b8565b9050919050565b7f446561646c696e65206e6f7420706173736564000000000000000000000000005f82015250565b5f61292c601383612066565b9150612937826128f8565b602082019050919050565b5f6020820190508181035f83015261295981612920565b9050919050565b7f5265656e7472616e637947756172643a207265656e7472616e742063616c6c005f82015250565b5f612994601f83612066565b915061299f82612960565b602082019050919050565b5f6020820190508181035f8301526129c181612988565b9050919050565b5f6040820190506129db5f830185611ef6565b6129e86020830184611f27565b9392505050565b5f606082019050612a025f830186611ef6565b612a0f6020830185611ef6565b612a1c6040830184611f27565b94935050505056fea264697066735822122019a42b789a5ecc11285ac63bdcff7af63c4a08f20e48aff25617d9ada9a1f65f64736f6c634300081e0033",
					"opcodes": "PUSH1 0xE0 PUSH1 0x40 MSTORE CALLVALUE DUP1 ISZERO PUSH2 0xF JUMPI PUSH0 PUSH0 REVERT JUMPDEST POP PUSH1 0x40 MLOAD PUSH2 0x3AF2 CODESIZE SUB DUP1 PUSH2 0x3AF2 DUP4 CODECOPY DUP2 DUP2 ADD PUSH1 0x40 MSTORE DUP2 ADD SWAP1 PUSH2 0x31 SWAP2 SWAP1 PUSH2 0x886 JUMP JUMPDEST PUSH1 0x1 PUSH0 DUP2 SWAP1 SSTORE POP PUSH0 PUSH20 0xFFFFFFFFFFFFFFFFFFFFFFFFFFFFFFFFFFFFFFFF AND DUP7 PUSH20 0xFFFFFFFFFFFFFFFFFFFFFFFFFFFFFFFFFFFFFFFF AND SUB PUSH2 0xA6 JUMPI PUSH1 0x40 MLOAD PUSH32 0x8C379A000000000000000000000000000000000000000000000000000000000 DUP2 MSTORE PUSH1 0x4 ADD PUSH2 0x9D SWAP1 PUSH2 0x9BD JUMP JUMPDEST PUSH1 0x40 MLOAD DUP1 SWAP2 SUB SWAP1 REVERT JUMPDEST PUSH0 PUSH20 0xFFFFFFFFFFFFFFFFFFFFFFFFFFFFFFFFFFFFFFFF AND DUP6 PUSH20 0xFFFFFFFFFFFFFFFFFFFFFFFFFFFFFFFFFFFFFFFF AND SUB PUSH2 0x114 JUMPI PUSH1 0x40 MLOAD PUSH32 0x8C379A000000000000000000000000000000000000000000000000000000000 DUP2 MSTORE PUSH1 0x4 ADD PUSH2 0x10B SWAP1 PUSH2 0xA25 JUMP JUMPDEST PUSH1 0x40 MLOAD DUP1 SWAP2 SUB SWAP1 REVERT JUMPDEST PUSH0 PUSH20 0xFFFFFFFFFFFFFFFFFFFFFFFFFFFFFFFFFFFFFFFF AND DUP5 PUSH20 0xFFFFFFFFFFFFFFFFFFFFFFFFFFFFFFFFFFFFFFFF AND SUB PUSH2 0x182 JUMPI PUSH1 0x40 MLOAD PUSH32 0x8C379A000000000000000000000000000000000000000000000000000000000 DUP2 MSTORE PUSH1 0x4 ADD PUSH2 0x179 SWAP1 PUSH2 0xA8D JUMP JUMPDEST PUSH1 0x40 MLOAD DUP1 SWAP2 SUB SWAP1 REVERT JUMPDEST DUP5 PUSH20 0xFFFFFFFFFFFFFFFFFFFFFFFFFFFFFFFFFFFFFFFF AND DUP7 PUSH20 0xFFFFFFFFFFFFFFFFFFFFFFFFFFFFFFFFFFFFFFFF AND SUB PUSH2 0x1F0 JUMPI PUSH1 0x40 MLOAD PUSH32 0x8C379A000000000000000000000000000000000000000000000000000000000 DUP2 MSTORE PUSH1 0x4 ADD PUSH2 0x1E7 SWAP1 PUSH2 0xAF5 JUMP JUMPDEST PUSH1 0x40 MLOAD DUP1 SWAP2 SUB SWAP1 REVERT JUMPDEST PUSH0 DUP4 MLOAD GT PUSH2 0x233 JUMPI PUSH1 0x40 MLOAD PUSH32 0x8C379A000000000000000000000000000000000000000000000000000000000 DUP2 MSTORE PUSH1 0x4 ADD PUSH2 0x22A SWAP1 PUSH2 0xB5D JUMP JUMPDEST PUSH1 0x40 MLOAD DUP1 SWAP2 SUB SWAP1 REVERT JUMPDEST DUP2 MLOAD DUP4 MLOAD EQ DUP1 ISZERO PUSH2 0x245 JUMPI POP DUP1 MLOAD DUP4 MLOAD EQ JUMPDEST PUSH2 0x284 JUMPI PUSH1 0x40 MLOAD PUSH32 0x8C379A000000000000000000000000000000000000000000000000000000000 DUP2 MSTORE PUSH1 0x4 ADD PUSH2 0x27B SWAP1 PUSH2 0xBC5 JUMP JUMPDEST PUSH1 0x40 MLOAD DUP1 SWAP2 SUB SWAP1 REVERT JUMPDEST DUP6 PUSH20 0xFFFFFFFFFFFFFFFFFFFFFFFFFFFFFFFFFFFFFFFF AND PUSH1 0x80 DUP2 PUSH20 0xFFFFFFFFFFFFFFFFFFFFFFFFFFFFFFFFFFFFFFFF AND DUP2 MSTORE POP POP DUP5 PUSH20 0xFFFFFFFFFFFFFFFFFFFFFFFFFFFFFFFFFFFFFFFF AND PUSH1 0xA0 DUP2 PUSH20 0xFFFFFFFFFFFFFFFFFFFFFFFFFFFFFFFFFFFFFFFF AND DUP2 MSTORE POP POP DUP4 PUSH20 0xFFFFFFFFFFFFFFFFFFFFFFFFFFFFFFFFFFFFFFFF AND PUSH1 0xC0 DUP2 PUSH20 0xFFFFFFFFFFFFFFFFFFFFFFFFFFFFFFFFFFFFFFFF AND DUP2 MSTORE POP POP PUSH0 PUSH0 SWAP1 POP PUSH0 PUSH0 SWAP1 POP JUMPDEST DUP5 MLOAD DUP2 LT ISZERO PUSH2 0x4CD JUMPI PUSH0 DUP6 DUP3 DUP2 MLOAD DUP2 LT PUSH2 0x346 JUMPI PUSH2 0x345 PUSH2 0xBE3 JUMP JUMPDEST JUMPDEST PUSH1 0x20 MUL PUSH1 0x20 ADD ADD MLOAD GT PUSH2 0x38E JUMPI PUSH1 0x40 MLOAD PUSH32 0x8C379A000000000000000000000000000000000000000000000000000000000 DUP2 MSTORE PUSH1 0x4 ADD PUSH2 0x385 SWAP1 PUSH2 0xC5A JUMP JUMPDEST PUSH1 0x40 MLOAD DUP1 SWAP2 SUB SWAP1 REVERT JUMPDEST PUSH1 0x4 PUSH1 0x40 MLOAD DUP1 PUSH1 0xA0 ADD PUSH1 0x40 MSTORE DUP1 DUP8 DUP5 DUP2 MLOAD DUP2 LT PUSH2 0x3AE JUMPI PUSH2 0x3AD PUSH2 0xBE3 JUMP JUMPDEST JUMPDEST PUSH1 0x20 MUL PUSH1 0x20 ADD ADD MLOAD DUP2 MSTORE PUSH1 0x20 ADD PUSH0 ISZERO ISZERO DUP2 MSTORE PUSH1 0x20 ADD PUSH0 ISZERO ISZERO DUP2 MSTORE PUSH1 0x20 ADD DUP7 DUP5 DUP2 MLOAD DUP2 LT PUSH2 0x3DE JUMPI PUSH2 0x3DD PUSH2 0xBE3 JUMP JUMPDEST JUMPDEST PUSH1 0x20 MUL PUSH1 0x20 ADD ADD MLOAD DUP2 MSTORE PUSH1 0x20 ADD DUP6 DUP5 DUP2 MLOAD DUP2 LT PUSH2 0x3FE JUMPI PUSH2 0x3FD PUSH2 0xBE3 JUMP JUMPDEST JUMPDEST PUSH1 0x20 MUL PUSH1 0x20 ADD ADD MLOAD DUP2 MSTORE POP SWAP1 DUP1 PUSH1 0x1 DUP2 SLOAD ADD DUP1 DUP3 SSTORE DUP1 SWAP2 POP POP PUSH1 0x1 SWAP1 SUB SWAP1 PUSH0 MSTORE PUSH1 0x20 PUSH0 KECCAK256 SWAP1 PUSH1 0x4 MUL ADD PUSH0 SWAP1 SWAP2 SWAP1 SWAP2 SWAP1 SWAP2 POP PUSH0 DUP3 ADD MLOAD DUP2 PUSH0 ADD SSTORE PUSH1 0x20 DUP3 ADD MLOAD DUP2 PUSH1 0x1 ADD PUSH0 PUSH2 0x100 EXP DUP2 SLOAD DUP2 PUSH1 0xFF MUL NOT AND SWAP1 DUP4 ISZERO ISZERO MUL OR SWAP1 SSTORE POP PUSH1 0x40 DUP3 ADD MLOAD DUP2 PUSH1 0x1 ADD PUSH1 0x1 PUSH2 0x100 EXP DUP2 SLOAD DUP2 PUSH1 0xFF MUL NOT AND SWAP1 DUP4 ISZERO ISZERO MUL OR SWAP1 SSTORE POP PUSH1 0x60 DUP3 ADD MLOAD DUP2 PUSH1 0x2 ADD SSTORE PUSH1 0x80 DUP3 ADD MLOAD DUP2 PUSH1 0x3 ADD SWAP1 DUP2 PUSH2 0x495 SWAP2 SWAP1 PUSH2 0xE7F JUMP JUMPDEST POP POP POP DUP5 DUP2 DUP2 MLOAD DUP2 LT PUSH2 0x4AB JUMPI PUSH2 0x4AA PUSH2 0xBE3 JUMP JUMPDEST JUMPDEST PUSH1 0x20 MUL PUSH1 0x20 ADD ADD MLOAD DUP3 PUSH2 0x4BE SWAP2 SWAP1 PUSH2 0xF7B JUMP JUMPDEST SWAP2 POP DUP1 DUP1 PUSH1 0x1 ADD SWAP2 POP POP PUSH2 0x329 JUMP JUMPDEST POP DUP1 PUSH1 0x2 DUP2 SWAP1 SSTORE POP PUSH0 PUSH1 0x1 PUSH0 PUSH2 0x100 EXP DUP2 SLOAD DUP2 PUSH1 0xFF MUL NOT AND SWAP1 DUP4 PUSH1 0x4 DUP2 GT ISZERO PUSH2 0x4F9 JUMPI PUSH2 0x4F8 PUSH2 0xFAE JUMP JUMPDEST JUMPDEST MUL OR SWAP1 SSTORE POP POP POP POP POP POP POP POP PUSH2 0xFDB JUMP JUMPDEST PUSH0 PUSH1 0x40 MLOAD SWAP1 POP SWAP1 JUMP JUMPDEST PUSH0 PUSH0 REVERT JUMPDEST PUSH0 PUSH0 REVERT JUMPDEST PUSH0 PUSH20 0xFFFFFFFFFFFFFFFFFFFFFFFFFFFFFFFFFFFFFFFF DUP3 AND SWAP1 POP SWAP2 SWAP1 POP JUMP JUMPDEST PUSH0 PUSH2 0x544 DUP3 PUSH2 0x51B JUMP JUMPDEST SWAP1 POP SWAP2 SWAP1 POP JUMP JUMPDEST PUSH2 0x554 DUP2 PUSH2 0x53A JUMP JUMPDEST DUP2 EQ PUSH2 0x55E JUMPI PUSH0 PUSH0 REVERT JUMPDEST POP JUMP JUMPDEST PUSH0 DUP2 MLOAD SWAP1 POP PUSH2 0x56F DUP2 PUSH2 0x54B JUMP JUMPDEST SWAP3 SWAP2 POP POP JUMP JUMPDEST PUSH0 PUSH0 REVERT JUMPDEST PUSH0 PUSH1 0x1F NOT PUSH1 0x1F DUP4 ADD AND SWAP1 POP SWAP2 SWAP1 POP JUMP JUMPDEST PUSH32 0x4E487B7100000000000000000000000000000000000000000000000000000000 PUSH0 MSTORE PUSH1 0x41 PUSH1 0x4 MSTORE PUSH1 0x24 PUSH0 REVERT JUMPDEST PUSH2 0x5BF DUP3 PUSH2 0x579 JUMP JUMPDEST DUP2 ADD DUP2 DUP2 LT PUSH8 0xFFFFFFFFFFFFFFFF DUP3 GT OR ISZERO PUSH2 0x5DE JUMPI PUSH2 0x5DD PUSH2 0x589 JUMP JUMPDEST JUMPDEST DUP1 PUSH1 0x40 MSTORE POP POP POP JUMP JUMPDEST PUSH0 PUSH2 0x5F0 PUSH2 0x50A JUMP JUMPDEST SWAP1 POP PUSH2 0x5FC DUP3 DUP3 PUSH2 0x5B6 JUMP JUMPDEST SWAP2 SWAP1 POP JUMP JUMPDEST PUSH0 PUSH8 0xFFFFFFFFFFFFFFFF DUP3 GT ISZERO PUSH2 0x61B JUMPI PUSH2 0x61A PUSH2 0x589 JUMP JUMPDEST JUMPDEST PUSH1 0x20 DUP3 MUL SWAP1 POP PUSH1 0x20 DUP2 ADD SWAP1 POP SWAP2 SWAP1 POP JUMP JUMPDEST PUSH0 PUSH0 REVERT JUMPDEST PUSH0 DUP2 SWAP1 POP SWAP2 SWAP1 POP JUMP JUMPDEST PUSH2 0x642 DUP2 PUSH2 0x630 JUMP JUMPDEST DUP2 EQ PUSH2 0x64C JUMPI PUSH0 PUSH0 REVERT JUMPDEST POP JUMP JUMPDEST PUSH0 DUP2 MLOAD SWAP1 POP PUSH2 0x65D DUP2 PUSH2 0x639 JUMP JUMPDEST SWAP3 SWAP2 POP POP JUMP JUMPDEST PUSH0 PUSH2 0x675 PUSH2 0x670 DUP5 PUSH2 0x601 JUMP JUMPDEST PUSH2 0x5E7 JUMP JUMPDEST SWAP1 POP DUP1 DUP4 DUP3 MSTORE PUSH1 0x20 DUP3 ADD SWAP1 POP PUSH1 0x20 DUP5 MUL DUP4 ADD DUP6 DUP2 GT ISZERO PUSH2 0x698 JUMPI PUSH2 0x697 PUSH2 0x62C JUMP JUMPDEST JUMPDEST DUP4 JUMPDEST DUP2 DUP2 LT ISZERO PUSH2 0x6C1 JUMPI DUP1 PUSH2 0x6AD DUP9 DUP3 PUSH2 0x64F JUMP JUMPDEST DUP5 MSTORE PUSH1 0x20 DUP5 ADD SWAP4 POP POP PUSH1 0x20 DUP2 ADD SWAP1 POP PUSH2 0x69A JUMP JUMPDEST POP POP POP SWAP4 SWAP3 POP POP POP JUMP JUMPDEST PUSH0 DUP3 PUSH1 0x1F DUP4 ADD SLT PUSH2 0x6DF JUMPI PUSH2 0x6DE PUSH2 0x575 JUMP JUMPDEST JUMPDEST DUP2 MLOAD PUSH2 0x6EF DUP5 DUP3 PUSH1 0x20 DUP7 ADD PUSH2 0x663 JUMP JUMPDEST SWAP2 POP POP SWAP3 SWAP2 POP POP JUMP JUMPDEST PUSH0 PUSH8 0xFFFFFFFFFFFFFFFF DUP3 GT ISZERO PUSH2 0x712 JUMPI PUSH2 0x711 PUSH2 0x589 JUMP JUMPDEST JUMPDEST PUSH1 0x20 DUP3 MUL SWAP1 POP PUSH1 0x20 DUP2 ADD SWAP1 POP SWAP2 SWAP1 POP JUMP JUMPDEST PUSH0 PUSH0 REVERT JUMPDEST PUSH0 PUSH8 0xFFFFFFFFFFFFFFFF DUP3 GT ISZERO PUSH2 0x741 JUMPI PUSH2 0x740 PUSH2 0x589 JUMP JUMPDEST JUMPDEST PUSH2 0x74A DUP3 PUSH2 0x579 JUMP JUMPDEST SWAP1 POP PUSH1 0x20 DUP2 ADD SWAP1 POP SWAP2 SWAP1 POP JUMP JUMPDEST DUP3 DUP2 DUP4 MCOPY PUSH0 DUP4 DUP4 ADD MSTORE POP POP POP JUMP JUMPDEST PUSH0 PUSH2 0x777 PUSH2 0x772 DUP5 PUSH2 0x727 JUMP JUMPDEST PUSH2 0x5E7 JUMP JUMPDEST SWAP1 POP DUP3 DUP2 MSTORE PUSH1 0x20 DUP2 ADD DUP5 DUP5 DUP5 ADD GT ISZERO PUSH2 0x793 JUMPI PUSH2 0x792 PUSH2 0x723 JUMP JUMPDEST JUMPDEST PUSH2 0x79E DUP5 DUP3 DUP6 PUSH2 0x757 JUMP JUMPDEST POP SWAP4 SWAP3 POP POP POP JUMP JUMPDEST PUSH0 DUP3 PUSH1 0x1F DUP4 ADD SLT PUSH2 0x7BA JUMPI PUSH2 0x7B9 PUSH2 0x575 JUMP JUMPDEST JUMPDEST DUP2 MLOAD PUSH2 0x7CA DUP5 DUP3 PUSH1 0x20 DUP7 ADD PUSH2 0x765 JUMP JUMPDEST SWAP2 POP POP SWAP3 SWAP2 POP POP JUMP JUMPDEST PUSH0 PUSH2 0x7E5 PUSH2 0x7E0 DUP5 PUSH2 0x6F8 JUMP JUMPDEST PUSH2 0x5E7 JUMP JUMPDEST SWAP1 POP DUP1 DUP4 DUP3 MSTORE PUSH1 0x20 DUP3 ADD SWAP1 POP PUSH1 0x20 DUP5 MUL DUP4 ADD DUP6 DUP2 GT ISZERO PUSH2 0x808 JUMPI PUSH2 0x807 PUSH2 0x62C JUMP JUMPDEST JUMPDEST DUP4 JUMPDEST DUP2 DUP2 LT ISZERO PUSH2 0x84F JUMPI DUP1 MLOAD PUSH8 0xFFFFFFFFFFFFFFFF DUP2 GT ISZERO PUSH2 0x82D JUMPI PUSH2 0x82C PUSH2 0x575 JUMP JUMPDEST JUMPDEST DUP1 DUP7 ADD PUSH2 0x83A DUP10 DUP3 PUSH2 0x7A6 JUMP JUMPDEST DUP6 MSTORE PUSH1 0x20 DUP6 ADD SWAP5 POP POP POP PUSH1 0x20 DUP2 ADD SWAP1 POP PUSH2 0x80A JUMP JUMPDEST POP POP POP SWAP4 SWAP3 POP POP POP JUMP JUMPDEST PUSH0 DUP3 PUSH1 0x1F DUP4 ADD SLT PUSH2 0x86D JUMPI PUSH2 0x86C PUSH2 0x575 JUMP JUMPDEST JUMPDEST DUP2 MLOAD PUSH2 0x87D DUP5 DUP3 PUSH1 0x20 DUP7 ADD PUSH2 0x7D3 JUMP JUMPDEST SWAP2 POP POP SWAP3 SWAP2 POP POP JUMP JUMPDEST PUSH0 PUSH0 PUSH0 PUSH0 PUSH0 PUSH0 PUSH1 0xC0 DUP8 DUP10 SUB SLT ISZERO PUSH2 0x8A0 JUMPI PUSH2 0x89F PUSH2 0x513 JUMP JUMPDEST JUMPDEST PUSH0 PUSH2 0x8AD DUP10 DUP3 DUP11 ADD PUSH2 0x561 JUMP JUMPDEST SWAP7 POP POP PUSH1 0x20 PUSH2 0x8BE DUP10 DUP3 DUP11 ADD PUSH2 0x561 JUMP JUMPDEST SWAP6 POP POP PUSH1 0x40 PUSH2 0x8CF DUP10 DUP3 DUP11 ADD PUSH2 0x561 JUMP JUMPDEST SWAP5 POP POP PUSH1 0x60 DUP8 ADD MLOAD PUSH8 0xFFFFFFFFFFFFFFFF DUP2 GT ISZERO PUSH2 0x8F0 JUMPI PUSH2 0x8EF PUSH2 0x517 JUMP JUMPDEST JUMPDEST PUSH2 0x8FC DUP10 DUP3 DUP11 ADD PUSH2 0x6CB JUMP JUMPDEST SWAP4 POP POP PUSH1 0x80 DUP8 ADD MLOAD PUSH8 0xFFFFFFFFFFFFFFFF DUP2 GT ISZERO PUSH2 0x91D JUMPI PUSH2 0x91C PUSH2 0x517 JUMP JUMPDEST JUMPDEST PUSH2 0x929 DUP10 DUP3 DUP11 ADD PUSH2 0x6CB JUMP JUMPDEST SWAP3 POP POP PUSH1 0xA0 DUP8 ADD MLOAD PUSH8 0xFFFFFFFFFFFFFFFF DUP2 GT ISZERO PUSH2 0x94A JUMPI PUSH2 0x949 PUSH2 0x517 JUMP JUMPDEST JUMPDEST PUSH2 0x956 DUP10 DUP3 DUP11 ADD PUSH2 0x859 JUMP JUMPDEST SWAP2 POP POP SWAP3 SWAP6 POP SWAP3 SWAP6 POP SWAP3 SWAP6 JUMP JUMPDEST PUSH0 DUP3 DUP3 MSTORE PUSH1 0x20 DUP3 ADD SWAP1 POP SWAP3 SWAP2 POP POP JUMP JUMPDEST PUSH32 0x496E76616C69642066756E646572000000000000000000000000000000000000 PUSH0 DUP3 ADD MSTORE POP JUMP JUMPDEST PUSH0 PUSH2 0x9A7 PUSH1 0xE DUP4 PUSH2 0x963 JUMP JUMPDEST SWAP2 POP PUSH2 0x9B2 DUP3 PUSH2 0x973 JUMP JUMPDEST PUSH1 0x20 DUP3 ADD SWAP1 POP SWAP2 SWAP1 POP JUMP JUMPDEST PUSH0 PUSH1 0x20 DUP3 ADD SWAP1 POP DUP2 DUP2 SUB PUSH0 DUP4 ADD MSTORE PUSH2 0x9D4 DUP2 PUSH2 0x99B JUMP JUMPDEST SWAP1 POP SWAP2 SWAP1 POP JUMP JUMPDEST PUSH32 0x496E76616C696420646576656C6F706572000000000000000000000000000000 PUSH0 DUP3 ADD MSTORE POP JUMP JUMPDEST PUSH0 PUSH2 0xA0F PUSH1 0x11 DUP4 PUSH2 0x963 JUMP JUMPDEST SWAP2 POP PUSH2 0xA1A DUP3 PUSH2 0x9DB JUMP JUMPDEST PUSH1 0x20 DUP3 ADD SWAP1 POP SWAP2 SWAP1 POP JUMP JUMPDEST PUSH0 PUSH1 0x20 DUP3 ADD SWAP1 POP DUP2 DUP2 SUB PUSH0 DUP4 ADD MSTORE PUSH2 0xA3C DUP2 PUSH2 0xA03 JUMP JUMPDEST SWAP1 POP SWAP2 SWAP1 POP JUMP JUMPDEST PUSH32 0x496E76616C696420746F6B656E00000000000000000000000000000000000000 PUSH0 DUP3 ADD MSTORE POP JUMP JUMPDEST PUSH0 PUSH2 0xA77 PUSH1 0xD DUP4 PUSH2 0x963 JUMP JUMPDEST SWAP2 POP PUSH2 0xA82 DUP3 PUSH2 0xA43 JUMP JUMPDEST PUSH1 0x20 DUP3 ADD SWAP1 POP SWAP2 SWAP1 POP JUMP JUMPDEST PUSH0 PUSH1 0x20 DUP3 ADD SWAP1 POP DUP2 DUP2 SUB PUSH0 DUP4 ADD MSTORE PUSH2 0xAA4 DUP2 PUSH2 0xA6B JUMP JUMPDEST SWAP1 POP SWAP2 SWAP1 POP JUMP JUMPDEST PUSH32 0x46756E6465722063616E6E6F7420626520646576656C6F706572000000000000 PUSH0 DUP3 ADD MSTORE POP JUMP JUMPDEST PUSH0 PUSH2 0xADF PUSH1 0x1A DUP4 PUSH2 0x963 JUMP JUMPDEST SWAP2 POP PUSH2 0xAEA DUP3 PUSH2 0xAAB JUMP JUMPDEST PUSH1 0x20 DUP3 ADD SWAP1 POP SWAP2 SWAP1 POP JUMP JUMPDEST PUSH0 PUSH1 0x20 DUP3 ADD SWAP1 POP DUP2 DUP2 SUB PUSH0 DUP4 ADD MSTORE PUSH2 0xB0C DUP2 PUSH2 0xAD3 JUMP JUMPDEST SWAP1 POP SWAP2 SWAP1 POP JUMP JUMPDEST PUSH32 0x4E6F206D696C6573746F6E657300000000000000000000000000000000000000 PUSH0 DUP3 ADD MSTORE POP JUMP JUMPDEST PUSH0 PUSH2 0xB47 PUSH1 0xD DUP4 PUSH2 0x963 JUMP JUMPDEST SWAP2 POP PUSH2 0xB52 DUP3 PUSH2 0xB13 JUMP JUMPDEST PUSH1 0x20 DUP3 ADD SWAP1 POP SWAP2 SWAP1 POP JUMP JUMPDEST PUSH0 PUSH1 0x20 DUP3 ADD SWAP1 POP DUP2 DUP2 SUB PUSH0 DUP4 ADD MSTORE PUSH2 0xB74 DUP2 PUSH2 0xB3B JUMP JUMPDEST SWAP1 POP SWAP2 SWAP1 POP JUMP JUMPDEST PUSH32 0x496E76616C6964206D696C6573746F6E65206172726179730000000000000000 PUSH0 DUP3 ADD MSTORE POP JUMP JUMPDEST PUSH0 PUSH2 0xBAF PUSH1 0x18 DUP4 PUSH2 0x963 JUMP JUMPDEST SWAP2 POP PUSH2 0xBBA DUP3 PUSH2 0xB7B JUMP JUMPDEST PUSH1 0x20 DUP3 ADD SWAP1 POP SWAP2 SWAP1 POP JUMP JUMPDEST PUSH0 PUSH1 0x20 DUP3 ADD SWAP1 POP DUP2 DUP2 SUB PUSH0 DUP4 ADD MSTORE PUSH2 0xBDC DUP2 PUSH2 0xBA3 JUMP JUMPDEST SWAP1 POP SWAP2 SWAP1 POP JUMP JUMPDEST PUSH32 0x4E487B7100000000000000000000000000000000000000000000000000000000 PUSH0 MSTORE PUSH1 0x32 PUSH1 0x4 MSTORE PUSH1 0x24 PUSH0 REVERT JUMPDEST PUSH32 0x5A65726F206D696C6573746F6E6520616D6F756E740000000000000000000000 PUSH0 DUP3 ADD MSTORE POP JUMP JUMPDEST PUSH0 PUSH2 0xC44 PUSH1 0x15 DUP4 PUSH2 0x963 JUMP JUMPDEST SWAP2 POP PUSH2 0xC4F DUP3 PUSH2 0xC10 JUMP JUMPDEST PUSH1 0x20 DUP3 ADD SWAP1 POP SWAP2 SWAP1 POP JUMP JUMPDEST PUSH0 PUSH1 0x20 DUP3 ADD SWAP1 POP DUP2 DUP2 SUB PUSH0 DUP4 ADD MSTORE PUSH2 0xC71 DUP2 PUSH2 0xC38 JUMP JUMPDEST SWAP1 POP SWAP2 SWAP1 POP JUMP JUMPDEST PUSH0 DUP2 MLOAD SWAP1 POP SWAP2 SWAP1 POP JUMP JUMPDEST PUSH32 0x4E487B7100000000000000000000000000000000000000000000000000000000 PUSH0 MSTORE PUSH1 0x22 PUSH1 0x4 MSTORE PUSH1 0x24 PUSH0 REVERT JUMPDEST PUSH0 PUSH1 0x2 DUP3 DIV SWAP1 POP PUSH1 0x1 DUP3 AND DUP1 PUSH2 0xCC6 JUMPI PUSH1 0x7F DUP3 AND SWAP2 POP JUMPDEST PUSH1 0x20 DUP3 LT DUP2 SUB PUSH2 0xCD9 JUMPI PUSH2 0xCD8 PUSH2 0xC82 JUMP JUMPDEST JUMPDEST POP SWAP2 SWAP1 POP JUMP JUMPDEST PUSH0 DUP2 SWAP1 POP DUP2 PUSH0 MSTORE PUSH1 0x20 PUSH0 KECCAK256 SWAP1 POP SWAP2 SWAP1 POP JUMP JUMPDEST PUSH0 PUSH1 0x20 PUSH1 0x1F DUP4 ADD DIV SWAP1 POP SWAP2 SWAP1 POP JUMP JUMPDEST PUSH0 DUP3 DUP3 SHL SWAP1 POP SWAP3 SWAP2 POP POP JUMP JUMPDEST PUSH0 PUSH1 0x8 DUP4 MUL PUSH2 0xD3B PUSH32 0xFFFFFFFFFFFFFFFFFFFFFFFFFFFFFFFFFFFFFFFFFFFFFFFFFFFFFFFFFFFFFFFF DUP3 PUSH2 0xD00 JUMP JUMPDEST PUSH2 0xD45 DUP7 DUP4 PUSH2 0xD00 JUMP JUMPDEST SWAP6 POP DUP1 NOT DUP5 AND SWAP4 POP DUP1 DUP7 AND DUP5 OR SWAP3 POP POP POP SWAP4 SWAP3 POP POP POP JUMP JUMPDEST PUSH0 DUP2 SWAP1 POP SWAP2 SWAP1 POP JUMP JUMPDEST PUSH0 PUSH2 0xD80 PUSH2 0xD7B PUSH2 0xD76 DUP5 PUSH2 0x630 JUMP JUMPDEST PUSH2 0xD5D JUMP JUMPDEST PUSH2 0x630 JUMP JUMPDEST SWAP1 POP SWAP2 SWAP1 POP JUMP JUMPDEST PUSH0 DUP2 SWAP1 POP SWAP2 SWAP1 POP JUMP JUMPDEST PUSH2 0xD99 DUP4 PUSH2 0xD66 JUMP JUMPDEST PUSH2 0xDAD PUSH2 0xDA5 DUP3 PUSH2 0xD87 JUMP JUMPDEST DUP5 DUP5 SLOAD PUSH2 0xD0C JUMP JUMPDEST DUP3 SSTORE POP POP POP POP JUMP JUMPDEST PUSH0 PUSH0 SWAP1 POP SWAP1 JUMP JUMPDEST PUSH2 0xDC4 PUSH2 0xDB5 JUMP JUMPDEST PUSH2 0xDCF DUP2 DUP5 DUP5 PUSH2 0xD90 JUMP JUMPDEST POP POP POP JUMP JUMPDEST JUMPDEST DUP2 DUP2 LT ISZERO PUSH2 0xDF2 JUMPI PUSH2 0xDE7 PUSH0 DUP3 PUSH2 0xDBC JUMP JUMPDEST PUSH1 0x1 DUP2 ADD SWAP1 POP PUSH2 0xDD5 JUMP JUMPDEST POP POP JUMP JUMPDEST PUSH1 0x1F DUP3 GT ISZERO PUSH2 0xE37 JUMPI PUSH2 0xE08 DUP2 PUSH2 0xCDF JUMP JUMPDEST PUSH2 0xE11 DUP5 PUSH2 0xCF1 JUMP JUMPDEST DUP2 ADD PUSH1 0x20 DUP6 LT ISZERO PUSH2 0xE20 JUMPI DUP2 SWAP1 POP JUMPDEST PUSH2 0xE34 PUSH2 0xE2C DUP6 PUSH2 0xCF1 JUMP JUMPDEST DUP4 ADD DUP3 PUSH2 0xDD4 JUMP JUMPDEST POP POP JUMPDEST POP POP POP JUMP JUMPDEST PUSH0 DUP3 DUP3 SHR SWAP1 POP SWAP3 SWAP2 POP POP JUMP JUMPDEST PUSH0 PUSH2 0xE57 PUSH0 NOT DUP5 PUSH1 0x8 MUL PUSH2 0xE3C JUMP JUMPDEST NOT DUP1 DUP4 AND SWAP2 POP POP SWAP3 SWAP2 POP POP JUMP JUMPDEST PUSH0 PUSH2 0xE6F DUP4 DUP4 PUSH2 0xE48 JUMP JUMPDEST SWAP2 POP DUP3 PUSH1 0x2 MUL DUP3 OR SWAP1 POP SWAP3 SWAP2 POP POP JUMP JUMPDEST PUSH2 0xE88 DUP3 PUSH2 0xC78 JUMP JUMPDEST PUSH8 0xFFFFFFFFFFFFFFFF DUP2 GT ISZERO PUSH2 0xEA1 JUMPI PUSH2 0xEA0 PUSH2 0x589 JUMP JUMPDEST JUMPDEST PUSH2 0xEAB DUP3 SLOAD PUSH2 0xCAF JUMP JUMPDEST PUSH2 0xEB6 DUP3 DUP3 DUP6 PUSH2 0xDF6 JUMP JUMPDEST PUSH0 PUSH1 0x20 SWAP1 POP PUSH1 0x1F DUP4 GT PUSH1 0x1 DUP2 EQ PUSH2 0xEE7 JUMPI PUSH0 DUP5 ISZERO PUSH2 0xED5 JUMPI DUP3 DUP8 ADD MLOAD SWAP1 POP JUMPDEST PUSH2 0xEDF DUP6 DUP3 PUSH2 0xE64 JUMP JUMPDEST DUP7 SSTORE POP PUSH2 0xF46 JUMP JUMPDEST PUSH1 0x1F NOT DUP5 AND PUSH2 0xEF5 DUP7 PUSH2 0xCDF JUMP JUMPDEST PUSH0 JUMPDEST DUP3 DUP2 LT ISZERO PUSH2 0xF1C JUMPI DUP5 DUP10 ADD MLOAD DUP3 SSTORE PUSH1 0x1 DUP3 ADD SWAP2 POP PUSH1 0x20 DUP6 ADD SWAP5 POP PUSH1 0x20 DUP2 ADD SWAP1 POP PUSH2 0xEF7 JUMP JUMPDEST DUP7 DUP4 LT ISZERO PUSH2 0xF39 JUMPI DUP5 DUP10 ADD MLOAD PUSH2 0xF35 PUSH1 0x1F DUP10 AND DUP3 PUSH2 0xE48 JUMP JUMPDEST DUP4 SSTORE POP JUMPDEST PUSH1 0x1 PUSH1 0x2 DUP9 MUL ADD DUP9 SSTORE POP POP POP JUMPDEST POP POP POP POP POP POP JUMP JUMPDEST PUSH32 0x4E487B7100000000000000000000000000000000000000000000000000000000 PUSH0 MSTORE PUSH1 0x11 PUSH1 0x4 MSTORE PUSH1 0x24 PUSH0 REVERT JUMPDEST PUSH0 PUSH2 0xF85 DUP3 PUSH2 0x630 JUMP JUMPDEST SWAP2 POP PUSH2 0xF90 DUP4 PUSH2 0x630 JUMP JUMPDEST SWAP3 POP DUP3 DUP3 ADD SWAP1 POP DUP1 DUP3 GT ISZERO PUSH2 0xFA8 JUMPI PUSH2 0xFA7 PUSH2 0xF4E JUMP JUMPDEST JUMPDEST SWAP3 SWAP2 POP POP JUMP JUMPDEST PUSH32 0x4E487B7100000000000000000000000000000000000000000000000000000000 PUSH0 MSTORE PUSH1 0x21 PUSH1 0x4 MSTORE PUSH1 0x24 PUSH0 REVERT JUMPDEST PUSH1 0x80 MLOAD PUSH1 0xA0 MLOAD PUSH1 0xC0 MLOAD PUSH2 0x2A5A PUSH2 0x1098 PUSH0 CODECOPY PUSH0 DUP2 DUP2 PUSH2 0x4D9 ADD MSTORE DUP2 DUP2 PUSH2 0x590 ADD MSTORE DUP2 DUP2 PUSH2 0x866 ADD MSTORE DUP2 DUP2 PUSH2 0xD20 ADD MSTORE DUP2 DUP2 PUSH2 0xF35 ADD MSTORE DUP2 DUP2 PUSH2 0x132B ADD MSTORE DUP2 DUP2 PUSH2 0x1516 ADD MSTORE DUP2 DUP2 PUSH2 0x19B6 ADD MSTORE PUSH2 0x1A9C ADD MSTORE PUSH0 DUP2 DUP2 PUSH2 0x841 ADD MSTORE DUP2 DUP2 PUSH2 0x1027 ADD MSTORE DUP2 DUP2 PUSH2 0x11A6 ADD MSTORE DUP2 DUP2 PUSH2 0x1309 ADD MSTORE PUSH2 0x15E2 ADD MSTORE PUSH0 DUP2 DUP2 PUSH2 0x371 ADD MSTORE DUP2 DUP2 PUSH2 0x3A7 ADD MSTORE DUP2 DUP2 PUSH2 0x4B7 ADD MSTORE DUP2 DUP2 PUSH2 0x5B4 ADD MSTORE DUP2 DUP2 PUSH2 0xBEE ADD MSTORE DUP2 DUP2 PUSH2 0xCFE ADD MSTORE DUP2 DUP2 PUSH2 0xFD2 ADD MSTORE DUP2 DUP2 PUSH2 0x1415 ADD MSTORE DUP2 DUP2 PUSH2 0x16E6 ADD MSTORE PUSH2 0x1991 ADD MSTORE PUSH2 0x2A5A PUSH0 RETURN INVALID PUSH1 0x80 PUSH1 0x40 MSTORE CALLVALUE DUP1 ISZERO PUSH2 0xF JUMPI PUSH0 PUSH0 REVERT JUMPDEST POP PUSH1 0x4 CALLDATASIZE LT PUSH2 0x135 JUMPI PUSH0 CALLDATALOAD PUSH1 0xE0 SHR DUP1 PUSH4 0x5AC482D1 GT PUSH2 0xB6 JUMPI DUP1 PUSH4 0xB60D4288 GT PUSH2 0x7A JUMPI DUP1 PUSH4 0xB60D4288 EQ PUSH2 0x2BB JUMPI DUP1 PUSH4 0xB95D8DD4 EQ PUSH2 0x2C5 JUMPI DUP1 PUSH4 0xC19D93FB EQ PUSH2 0x2E3 JUMPI DUP1 PUSH4 0xCA4B208B EQ PUSH2 0x301 JUMPI DUP1 PUSH4 0xE89E4ED6 EQ PUSH2 0x31F JUMPI DUP1 PUSH4 0xF75FDCAA EQ PUSH2 0x353 JUMPI PUSH2 0x135 JUMP JUMPDEST DUP1 PUSH4 0x5AC482D1 EQ PUSH2 0x24F JUMPI DUP1 PUSH4 0x629E4ED0 EQ PUSH2 0x259 JUMPI DUP1 PUSH4 0x6F9FB98A EQ PUSH2 0x277 JUMPI DUP1 PUSH4 0x725A3B4B EQ PUSH2 0x295 JUMPI DUP1 PUSH4 0xB4F5A711 EQ PUSH2 0x2B1 JUMPI PUSH2 0x135 JUMP JUMPDEST DUP1 PUSH4 0x3013CE29 GT PUSH2 0xFD JUMPI DUP1 PUSH4 0x3013CE29 EQ PUSH2 0x1BB JUMPI DUP1 PUSH4 0x317DEBF5 EQ PUSH2 0x1D9 JUMPI DUP1 PUSH4 0x3DDB47B4 EQ PUSH2 0x1F5 JUMPI DUP1 PUSH4 0x45D30A17 EQ PUSH2 0x213 JUMPI DUP1 PUSH4 0x4E69D560 EQ PUSH2 0x231 JUMPI PUSH2 0x135 JUMP JUMPDEST DUP1 PUSH4 0x41AE880 EQ PUSH2 0x139 JUMPI DUP1 PUSH4 0x681CA55 EQ PUSH2 0x157 JUMPI DUP1 PUSH4 0x1A39D8EF EQ PUSH2 0x175 JUMPI DUP1 PUSH4 0x1ADFF0EE EQ PUSH2 0x193 JUMPI DUP1 PUSH4 0x2FBA2C85 EQ PUSH2 0x19D JUMPI JUMPDEST PUSH0 PUSH0 REVERT JUMPDEST PUSH2 0x141 PUSH2 0x36F JUMP JUMPDEST PUSH1 0x40 MLOAD PUSH2 0x14E SWAP2 SWAP1 PUSH2 0x1F05 JUMP JUMPDEST PUSH1 0x40 MLOAD DUP1 SWAP2 SUB SWAP1 RETURN JUMPDEST PUSH2 0x15F PUSH2 0x393 JUMP JUMPDEST PUSH1 0x40 MLOAD PUSH2 0x16C SWAP2 SWAP1 PUSH2 0x1F36 JUMP JUMPDEST PUSH1 0x40 MLOAD DUP1 SWAP2 SUB SWAP1 RETURN JUMPDEST PUSH2 0x17D PUSH2 0x39F JUMP JUMPDEST PUSH1 0x40 MLOAD PUSH2 0x18A SWAP2 SWAP1 PUSH2 0x1F36 JUMP JUMPDEST PUSH1 0x40 MLOAD DUP1 SWAP2 SUB SWAP1 RETURN JUMPDEST PUSH2 0x19B PUSH2 0x3A5 JUMP JUMPDEST STOP JUMPDEST PUSH2 0x1A5 PUSH2 0x580 JUMP JUMPDEST PUSH1 0x40 MLOAD PUSH2 0x1B2 SWAP2 SWAP1 PUSH2 0x1F36 JUMP JUMPDEST PUSH1 0x40 MLOAD DUP1 SWAP2 SUB SWAP1 RETURN JUMPDEST PUSH2 0x1C3 PUSH2 0x58E JUMP JUMPDEST PUSH1 0x40 MLOAD PUSH2 0x1D0 SWAP2 SWAP1 PUSH2 0x1FAA JUMP JUMPDEST PUSH1 0x40 MLOAD DUP1 SWAP2 SUB SWAP1 RETURN JUMPDEST PUSH2 0x1F3 PUSH1 0x4 DUP1 CALLDATASIZE SUB DUP2 ADD SWAP1 PUSH2 0x1EE SWAP2 SWAP1 PUSH2 0x1FFE JUMP JUMPDEST PUSH2 0x5B2 JUMP JUMPDEST STOP JUMPDEST PUSH2 0x1FD PUSH2 0x8FB JUMP JUMPDEST PUSH1 0x40 MLOAD PUSH2 0x20A SWAP2 SWAP1 PUSH2 0x2043 JUMP JUMPDEST PUSH1 0x40 MLOAD DUP1 SWAP2 SUB SWAP1 RETURN JUMPDEST PUSH2 0x21B PUSH2 0x957 JUMP JUMPDEST PUSH1 0x40 MLOAD PUSH2 0x228 SWAP2 SWAP1 PUSH2 0x1F36 JUMP JUMPDEST PUSH1 0x40 MLOAD DUP1 SWAP2 SUB SWAP1 RETURN JUMPDEST PUSH2 0x239 PUSH2 0x95D JUMP JUMPDEST PUSH1 0x40 MLOAD PUSH2 0x246 SWAP2 SWAP1 PUSH2 0x20CC JUMP JUMPDEST PUSH1 0x40 MLOAD DUP1 SWAP2 SUB SWAP1 RETURN JUMPDEST PUSH2 0x257 PUSH2 0xBEC JUMP JUMPDEST STOP JUMPDEST PUSH2 0x261 PUSH2 0xDFE JUMP JUMPDEST PUSH1 0x40 MLOAD PUSH2 0x26E SWAP2 SWAP1 PUSH2 0x2280 JUMP JUMPDEST PUSH1 0x40 MLOAD DUP1 SWAP2 SUB SWAP1 RETURN JUMPDEST PUSH2 0x27F PUSH2 0xF32 JUMP JUMPDEST PUSH1 0x40 MLOAD PUSH2 0x28C SWAP2 SWAP1 PUSH2 0x1F36 JUMP JUMPDEST PUSH1 0x40 MLOAD DUP1 SWAP2 SUB SWAP1 RETURN JUMPDEST PUSH2 0x2AF PUSH1 0x4 DUP1 CALLDATASIZE SUB DUP2 ADD SWAP1 PUSH2 0x2AA SWAP2 SWAP1 PUSH2 0x23CC JUMP JUMPDEST PUSH2 0xFD0 JUMP JUMPDEST STOP JUMPDEST PUSH2 0x2B9 PUSH2 0x11A4 JUMP JUMPDEST STOP JUMPDEST PUSH2 0x2C3 PUSH2 0x1413 JUMP JUMPDEST STOP JUMPDEST PUSH2 0x2CD PUSH2 0x15C8 JUMP JUMPDEST PUSH1 0x40 MLOAD PUSH2 0x2DA SWAP2 SWAP1 PUSH2 0x1F36 JUMP JUMPDEST PUSH1 0x40 MLOAD DUP1 SWAP2 SUB SWAP1 RETURN JUMPDEST PUSH2 0x2EB PUSH2 0x15CE JUMP JUMPDEST PUSH1 0x40 MLOAD PUSH2 0x2F8 SWAP2 SWAP1 PUSH2 0x2486 JUMP JUMPDEST PUSH1 0x40 MLOAD DUP1 SWAP2 SUB SWAP1 RETURN JUMPDEST PUSH2 0x309 PUSH2 0x15E0 JUMP JUMPDEST PUSH1 0x40 MLOAD PUSH2 0x316 SWAP2 SWAP1 PUSH2 0x1F05 JUMP JUMPDEST PUSH1 0x40 MLOAD DUP1 SWAP2 SUB SWAP1 RETURN JUMPDEST PUSH2 0x339 PUSH1 0x4 DUP1 CALLDATASIZE SUB DUP2 ADD SWAP1 PUSH2 0x334 SWAP2 SWAP1 PUSH2 0x1FFE JUMP JUMPDEST PUSH2 0x1604 JUMP JUMPDEST PUSH1 0x40 MLOAD PUSH2 0x34A SWAP6 SWAP5 SWAP4 SWAP3 SWAP2 SWAP1 PUSH2 0x249F JUMP JUMPDEST PUSH1 0x40 MLOAD DUP1 SWAP2 SUB SWAP1 RETURN JUMPDEST PUSH2 0x36D PUSH1 0x4 DUP1 CALLDATASIZE SUB DUP2 ADD SWAP1 PUSH2 0x368 SWAP2 SWAP1 PUSH2 0x1FFE JUMP JUMPDEST PUSH2 0x16E4 JUMP JUMPDEST STOP JUMPDEST PUSH32 0x0 DUP2 JUMP JUMPDEST PUSH0 PUSH1 0x4 DUP1 SLOAD SWAP1 POP SWAP1 POP SWAP1 JUMP JUMPDEST PUSH1 0x2 SLOAD DUP2 JUMP JUMPDEST PUSH32 0x0 PUSH20 0xFFFFFFFFFFFFFFFFFFFFFFFFFFFFFFFFFFFFFFFF AND CALLER PUSH20 0xFFFFFFFFFFFFFFFFFFFFFFFFFFFFFFFFFFFFFFFF AND EQ PUSH2 0x42A JUMPI PUSH1 0x40 MLOAD PUSH32 0xA598AEBE00000000000000000000000000000000000000000000000000000000 DUP2 MSTORE PUSH1 0x4 ADD PUSH1 0x40 MLOAD DUP1 SWAP2 SUB SWAP1 REVERT JUMPDEST PUSH1 0x1 DUP1 PUSH1 0x4 DUP2 GT ISZERO PUSH2 0x43F JUMPI PUSH2 0x43E PUSH2 0x2413 JUMP JUMPDEST JUMPDEST PUSH1 0x1 PUSH0 SWAP1 SLOAD SWAP1 PUSH2 0x100 EXP SWAP1 DIV PUSH1 0xFF AND PUSH1 0x4 DUP2 GT ISZERO PUSH2 0x460 JUMPI PUSH2 0x45F PUSH2 0x2413 JUMP JUMPDEST JUMPDEST EQ PUSH2 0x497 JUMPI PUSH1 0x40 MLOAD PUSH32 0xBAF3F0F700000000000000000000000000000000000000000000000000000000 DUP2 MSTORE PUSH1 0x4 ADD PUSH1 0x40 MLOAD DUP1 SWAP2 SUB SWAP1 REVERT JUMPDEST PUSH2 0x49F PUSH2 0x1A4B JUMP JUMPDEST PUSH0 PUSH2 0x4A8 PUSH2 0x1A98 JUMP JUMPDEST SWAP1 POP PUSH0 DUP2 GT ISZERO PUSH2 0x51E JUMPI PUSH2 0x51D PUSH32 0x0 DUP3 PUSH32 0x0 PUSH20 0xFFFFFFFFFFFFFFFFFFFFFFFFFFFFFFFFFFFFFFFF AND PUSH2 0x1B7E SWAP1 SWAP3 SWAP2 SWAP1 PUSH4 0xFFFFFFFF AND JUMP JUMPDEST JUMPDEST PUSH1 0x3 PUSH1 0x1 PUSH0 PUSH2 0x100 EXP DUP2 SLOAD DUP2 PUSH1 0xFF MUL NOT AND SWAP1 DUP4 PUSH1 0x4 DUP2 GT ISZERO PUSH2 0x543 JUMPI PUSH2 0x542 PUSH2 0x2413 JUMP JUMPDEST JUMPDEST MUL OR SWAP1 SSTORE POP PUSH32 0x92C439FDA90C70CCDEDCB94D28A14F9FDA69D67124EFBBE9BF905740194228C8 PUSH1 0x40 MLOAD PUSH1 0x40 MLOAD DUP1 SWAP2 SUB SWAP1 LOG1 POP PUSH2 0x57D PUSH2 0x1BFD JUMP JUMPDEST POP JUMP JUMPDEST PUSH0 PUSH2 0x589 PUSH2 0x1A98 JUMP JUMPDEST SWAP1 POP SWAP1 JUMP JUMPDEST PUSH32 0x0 DUP2 JUMP JUMPDEST PUSH32 0x0 PUSH20 0xFFFFFFFFFFFFFFFFFFFFFFFFFFFFFFFFFFFFFFFF AND CALLER PUSH20 0xFFFFFFFFFFFFFFFFFFFFFFFFFFFFFFFFFFFFFFFF AND EQ PUSH2 0x637 JUMPI PUSH1 0x40 MLOAD PUSH32 0xA598AEBE00000000000000000000000000000000000000000000000000000000 DUP2 MSTORE PUSH1 0x4 ADD PUSH1 0x40 MLOAD DUP1 SWAP2 SUB SWAP1 REVERT JUMPDEST PUSH1 0x1 DUP1 PUSH1 0x4 DUP2 GT ISZERO PUSH2 0x64C JUMPI PUSH2 0x64B PUSH2 0x2413 JUMP JUMPDEST JUMPDEST PUSH1 0x1 PUSH0 SWAP1 SLOAD SWAP1 PUSH2 0x100 EXP SWAP1 DIV PUSH1 0xFF AND PUSH1 0x4 DUP2 GT ISZERO PUSH2 0x66D JUMPI PUSH2 0x66C PUSH2 0x2413 JUMP JUMPDEST JUMPDEST EQ PUSH2 0x6A4 JUMPI PUSH1 0x40 MLOAD PUSH32 0xBAF3F0F700000000000000000000000000000000000000000000000000000000 DUP2 MSTORE PUSH1 0x4 ADD PUSH1 0x40 MLOAD DUP1 SWAP2 SUB SWAP1 REVERT JUMPDEST DUP2 PUSH1 0x4 DUP1 SLOAD SWAP1 POP DUP2 LT PUSH2 0x6E3 JUMPI PUSH1 0x40 MLOAD PUSH32 0xBA11734000000000000000000000000000000000000000000000000000000000 DUP2 MSTORE PUSH1 0x4 ADD PUSH1 0x40 MLOAD DUP1 SWAP2 SUB SWAP1 REVERT JUMPDEST PUSH2 0x6EB PUSH2 0x1A4B JUMP JUMPDEST PUSH0 PUSH1 0x4 DUP5 DUP2 SLOAD DUP2 LT PUSH2 0x700 JUMPI PUSH2 0x6FF PUSH2 0x24F7 JUMP JUMPDEST JUMPDEST SWAP1 PUSH0 MSTORE PUSH1 0x20 PUSH0 KECCAK256 SWAP1 PUSH1 0x4 MUL ADD SWAP1 POP DUP1 PUSH1 0x1 ADD PUSH0 SWAP1 SLOAD SWAP1 PUSH2 0x100 EXP SWAP1 DIV PUSH1 0xFF AND ISZERO PUSH2 0x75F JUMPI PUSH1 0x40 MLOAD PUSH32 0x8C379A000000000000000000000000000000000000000000000000000000000 DUP2 MSTORE PUSH1 0x4 ADD PUSH2 0x756 SWAP1 PUSH2 0x256E JUMP JUMPDEST PUSH1 0x40 MLOAD DUP1 SWAP2 SUB SWAP1 REVERT JUMPDEST DUP1 PUSH1 0x1 ADD PUSH1 0x1 SWAP1 SLOAD SWAP1 PUSH2 0x100 EXP SWAP1 DIV PUSH1 0xFF AND ISZERO PUSH2 0x7B1 JUMPI PUSH1 0x40 MLOAD PUSH32 0x8C379A000000000000000000000000000000000000000000000000000000000 DUP2 MSTORE PUSH1 0x4 ADD PUSH2 0x7A8 SWAP1 PUSH2 0x25D6 JUMP JUMPDEST PUSH1 0x40 MLOAD DUP1 SWAP2 SUB SWAP1 REVERT JUMPDEST PUSH0 DUP2 PUSH1 0x2 ADD SLOAD GT ISZERO PUSH2 0x805 JUMPI DUP1 PUSH1 0x2 ADD SLOAD TIMESTAMP GT ISZERO PUSH2 0x804 JUMPI PUSH1 0x40 MLOAD PUSH32 0x8C379A000000000000000000000000000000000000000000000000000000000 DUP2 MSTORE PUSH1 0x4 ADD PUSH2 0x7FB SWAP1 PUSH2 0x263E JUMP JUMPDEST PUSH1 0x40 MLOAD DUP1 SWAP2 SUB SWAP1 REVERT JUMPDEST JUMPDEST PUSH1 0x1 DUP2 PUSH1 0x1 ADD PUSH0 PUSH2 0x100 EXP DUP2 SLOAD DUP2 PUSH1 0xFF MUL NOT AND SWAP1 DUP4 ISZERO ISZERO MUL OR SWAP1 SSTORE POP DUP1 PUSH0 ADD SLOAD PUSH1 0x3 PUSH0 DUP3 DUP3 SLOAD PUSH2 0x835 SWAP2 SWAP1 PUSH2 0x2689 JUMP JUMPDEST SWAP3 POP POP DUP2 SWAP1 SSTORE POP PUSH2 0x8AA PUSH32 0x0 DUP3 PUSH0 ADD SLOAD PUSH32 0x0 PUSH20 0xFFFFFFFFFFFFFFFFFFFFFFFFFFFFFFFFFFFFFFFF AND PUSH2 0x1B7E SWAP1 SWAP3 SWAP2 SWAP1 PUSH4 0xFFFFFFFF AND JUMP JUMPDEST DUP4 PUSH32 0x9E069181C12760C2CD0078ED4FACDBE1F3614543B0FBFF5DBCAC3CBC61A0B64E DUP3 PUSH0 ADD SLOAD PUSH1 0x40 MLOAD PUSH2 0x8DD SWAP2 SWAP1 PUSH2 0x1F36 JUMP JUMPDEST PUSH1 0x40 MLOAD DUP1 SWAP2 SUB SWAP1 LOG2 PUSH2 0x8ED PUSH2 0x1C06 JUMP JUMPDEST POP PUSH2 0x8F6 PUSH2 0x1BFD JUMP JUMPDEST POP POP POP JUMP JUMPDEST PUSH0 PUSH1 0x4 DUP1 DUP2 GT ISZERO PUSH2 0x90F JUMPI PUSH2 0x90E PUSH2 0x2413 JUMP JUMPDEST JUMPDEST PUSH1 0x1 PUSH0 SWAP1 SLOAD SWAP1 PUSH2 0x100 EXP SWAP1 DIV PUSH1 0xFF AND PUSH1 0x4 DUP2 GT ISZERO PUSH2 0x930 JUMPI PUSH2 0x92F PUSH2 0x2413 JUMP JUMPDEST JUMPDEST EQ PUSH2 0x93D JUMPI PUSH0 SWAP1 POP PUSH2 0x954 JUMP JUMPDEST PUSH3 0x278D00 PUSH1 0x5 SLOAD PUSH2 0x94E SWAP2 SWAP1 PUSH2 0x2689 JUMP JUMPDEST TIMESTAMP LT ISZERO SWAP1 POP JUMPDEST SWAP1 JUMP JUMPDEST PUSH1 0x3 SLOAD DUP2 JUMP JUMPDEST PUSH1 0x60 PUSH0 PUSH1 0x4 DUP2 GT ISZERO PUSH2 0x972 JUMPI PUSH2 0x971 PUSH2 0x2413 JUMP JUMPDEST JUMPDEST PUSH1 0x1 PUSH0 SWAP1 SLOAD SWAP1 PUSH2 0x100 EXP SWAP1 DIV PUSH1 0xFF AND PUSH1 0x4 DUP2 GT ISZERO PUSH2 0x993 JUMPI PUSH2 0x992 PUSH2 0x2413 JUMP JUMPDEST JUMPDEST SUB PUSH2 0x9D5 JUMPI PUSH1 0x40 MLOAD DUP1 PUSH1 0x40 ADD PUSH1 0x40 MSTORE DUP1 PUSH1 0x1B DUP2 MSTORE PUSH1 0x20 ADD PUSH32 0x43726561746564202857616974696E6720666F722066756E6473290000000000 DUP2 MSTORE POP SWAP1 POP PUSH2 0xBE9 JUMP JUMPDEST PUSH1 0x1 PUSH1 0x4 DUP2 GT ISZERO PUSH2 0x9E9 JUMPI PUSH2 0x9E8 PUSH2 0x2413 JUMP JUMPDEST JUMPDEST PUSH1 0x1 PUSH0 SWAP1 SLOAD SWAP1 PUSH2 0x100 EXP SWAP1 DIV PUSH1 0xFF AND PUSH1 0x4 DUP2 GT ISZERO PUSH2 0xA0A JUMPI PUSH2 0xA09 PUSH2 0x2413 JUMP JUMPDEST JUMPDEST SUB PUSH2 0xA4C JUMPI PUSH1 0x40 MLOAD DUP1 PUSH1 0x40 ADD PUSH1 0x40 MSTORE DUP1 PUSH1 0xF DUP2 MSTORE PUSH1 0x20 ADD PUSH32 0x46756E6465642028416374697665290000000000000000000000000000000000 DUP2 MSTORE POP SWAP1 POP PUSH2 0xBE9 JUMP JUMPDEST PUSH1 0x2 PUSH1 0x4 DUP2 GT ISZERO PUSH2 0xA60 JUMPI PUSH2 0xA5F PUSH2 0x2413 JUMP JUMPDEST JUMPDEST PUSH1 0x1 PUSH0 SWAP1 SLOAD SWAP1 PUSH2 0x100 EXP SWAP1 DIV PUSH1 0xFF AND PUSH1 0x4 DUP2 GT ISZERO PUSH2 0xA81 JUMPI PUSH2 0xA80 PUSH2 0x2413 JUMP JUMPDEST JUMPDEST SUB PUSH2 0xAC3 JUMPI PUSH1 0x40 MLOAD DUP1 PUSH1 0x40 ADD PUSH1 0x40 MSTORE DUP1 PUSH1 0x9 DUP2 MSTORE PUSH1 0x20 ADD PUSH32 0x436F6D706C657465640000000000000000000000000000000000000000000000 DUP2 MSTORE POP SWAP1 POP PUSH2 0xBE9 JUMP JUMPDEST PUSH1 0x3 PUSH1 0x4 DUP2 GT ISZERO PUSH2 0xAD7 JUMPI PUSH2 0xAD6 PUSH2 0x2413 JUMP JUMPDEST JUMPDEST PUSH1 0x1 PUSH0 SWAP1 SLOAD SWAP1 PUSH2 0x100 EXP SWAP1 DIV PUSH1 0xFF AND PUSH1 0x4 DUP2 GT ISZERO PUSH2 0xAF8 JUMPI PUSH2 0xAF7 PUSH2 0x2413 JUMP JUMPDEST JUMPDEST SUB PUSH2 0xB3A JUMPI PUSH1 0x40 MLOAD DUP1 PUSH1 0x40 ADD PUSH1 0x40 MSTORE DUP1 PUSH1 0x9 DUP2 MSTORE PUSH1 0x20 ADD PUSH32 0x43616E63656C6C65640000000000000000000000000000000000000000000000 DUP2 MSTORE POP SWAP1 POP PUSH2 0xBE9 JUMP JUMPDEST PUSH1 0x4 DUP1 DUP2 GT ISZERO PUSH2 0xB4D JUMPI PUSH2 0xB4C PUSH2 0x2413 JUMP JUMPDEST JUMPDEST PUSH1 0x1 PUSH0 SWAP1 SLOAD SWAP1 PUSH2 0x100 EXP SWAP1 DIV PUSH1 0xFF AND PUSH1 0x4 DUP2 GT ISZERO PUSH2 0xB6E JUMPI PUSH2 0xB6D PUSH2 0x2413 JUMP JUMPDEST JUMPDEST SUB PUSH2 0xBB0 JUMPI PUSH1 0x40 MLOAD DUP1 PUSH1 0x40 ADD PUSH1 0x40 MSTORE DUP1 PUSH1 0x8 DUP2 MSTORE PUSH1 0x20 ADD PUSH32 0x4469737075746564000000000000000000000000000000000000000000000000 DUP2 MSTORE POP SWAP1 POP PUSH2 0xBE9 JUMP JUMPDEST PUSH1 0x40 MLOAD DUP1 PUSH1 0x40 ADD PUSH1 0x40 MSTORE DUP1 PUSH1 0x7 DUP2 MSTORE PUSH1 0x20 ADD PUSH32 0x556E6B6E6F776E00000000000000000000000000000000000000000000000000 DUP2 MSTORE POP SWAP1 POP JUMPDEST SWAP1 JUMP JUMPDEST PUSH32 0x0 PUSH20 0xFFFFFFFFFFFFFFFFFFFFFFFFFFFFFFFFFFFFFFFF AND CALLER PUSH20 0xFFFFFFFFFFFFFFFFFFFFFFFFFFFFFFFFFFFFFFFF AND EQ PUSH2 0xC71 JUMPI PUSH1 0x40 MLOAD PUSH32 0xA598AEBE00000000000000000000000000000000000000000000000000000000 DUP2 MSTORE PUSH1 0x4 ADD PUSH1 0x40 MLOAD DUP1 SWAP2 SUB SWAP1 REVERT JUMPDEST PUSH1 0x4 DUP1 PUSH1 0x4 DUP2 GT ISZERO PUSH2 0xC86 JUMPI PUSH2 0xC85 PUSH2 0x2413 JUMP JUMPDEST JUMPDEST PUSH1 0x1 PUSH0 SWAP1 SLOAD SWAP1 PUSH2 0x100 EXP SWAP1 DIV PUSH1 0xFF AND PUSH1 0x4 DUP2 GT ISZERO PUSH2 0xCA7 JUMPI PUSH2 0xCA6 PUSH2 0x2413 JUMP JUMPDEST JUMPDEST EQ PUSH2 0xCDE JUMPI PUSH1 0x40 MLOAD PUSH32 0xBAF3F0F700000000000000000000000000000000000000000000000000000000 DUP2 MSTORE PUSH1 0x4 ADD PUSH1 0x40 MLOAD DUP1 SWAP2 SUB SWAP1 REVERT JUMPDEST PUSH2 0xCE6 PUSH2 0x1A4B JUMP JUMPDEST PUSH0 PUSH2 0xCEF PUSH2 0x1A98 JUMP JUMPDEST SWAP1 POP PUSH0 DUP2 GT ISZERO PUSH2 0xD65 JUMPI PUSH2 0xD64 PUSH32 0x0 DUP3 PUSH32 0x0 PUSH20 0xFFFFFFFFFFFFFFFFFFFFFFFFFFFFFFFFFFFFFFFF AND PUSH2 0x1B7E SWAP1 SWAP3 SWAP2 SWAP1 PUSH4 0xFFFFFFFF AND JUMP JUMPDEST JUMPDEST PUSH1 0x3 PUSH1 0x1 PUSH0 PUSH2 0x100 EXP DUP2 SLOAD DUP2 PUSH1 0xFF MUL NOT AND SWAP1 DUP4 PUSH1 0x4 DUP2 GT ISZERO PUSH2 0xD8A JUMPI PUSH2 0xD89 PUSH2 0x2413 JUMP JUMPDEST JUMPDEST MUL OR SWAP1 SSTORE POP PUSH32 0x8015C5005D9AD5D85CA80D3F894F08E0159277704C54166E5CFF108800FA80CD PUSH0 PUSH1 0x40 MLOAD PUSH2 0xDBE SWAP2 SWAP1 PUSH2 0x2043 JUMP JUMPDEST PUSH1 0x40 MLOAD DUP1 SWAP2 SUB SWAP1 LOG1 PUSH32 0x92C439FDA90C70CCDEDCB94D28A14F9FDA69D67124EFBBE9BF905740194228C8 PUSH1 0x40 MLOAD PUSH1 0x40 MLOAD DUP1 SWAP2 SUB SWAP1 LOG1 POP PUSH2 0xDFB PUSH2 0x1BFD JUMP JUMPDEST POP JUMP JUMPDEST PUSH1 0x60 PUSH1 0x4 DUP1 SLOAD DUP1 PUSH1 0x20 MUL PUSH1 0x20 ADD PUSH1 0x40 MLOAD SWAP1 DUP2 ADD PUSH1 0x40 MSTORE DUP1 SWAP3 SWAP2 SWAP1 DUP2 DUP2 MSTORE PUSH1 0x20 ADD PUSH0 SWAP1 JUMPDEST DUP3 DUP3 LT ISZERO PUSH2 0xF29 JUMPI DUP4 DUP3 SWAP1 PUSH0 MSTORE PUSH1 0x20 PUSH0 KECCAK256 SWAP1 PUSH1 0x4 MUL ADD PUSH1 0x40 MLOAD DUP1 PUSH1 0xA0 ADD PUSH1 0x40 MSTORE SWAP1 DUP2 PUSH0 DUP3 ADD SLOAD DUP2 MSTORE PUSH1 0x20 ADD PUSH1 0x1 DUP3 ADD PUSH0 SWAP1 SLOAD SWAP1 PUSH2 0x100 EXP SWAP1 DIV PUSH1 0xFF AND ISZERO ISZERO ISZERO ISZERO DUP2 MSTORE PUSH1 0x20 ADD PUSH1 0x1 DUP3 ADD PUSH1 0x1 SWAP1 SLOAD SWAP1 PUSH2 0x100 EXP SWAP1 DIV PUSH1 0xFF AND ISZERO ISZERO ISZERO ISZERO DUP2 MSTORE PUSH1 0x20 ADD PUSH1 0x2 DUP3 ADD SLOAD DUP2 MSTORE PUSH1 0x20 ADD PUSH1 0x3 DUP3 ADD DUP1 SLOAD PUSH2 0xE9A SWAP1 PUSH2 0x26E9 JUMP JUMPDEST DUP1 PUSH1 0x1F ADD PUSH1 0x20 DUP1 SWAP2 DIV MUL PUSH1 0x20 ADD PUSH1 0x40 MLOAD SWAP1 DUP2 ADD PUSH1 0x40 MSTORE DUP1 SWAP3 SWAP2 SWAP1 DUP2 DUP2 MSTORE PUSH1 0x20 ADD DUP3 DUP1 SLOAD PUSH2 0xEC6 SWAP1 PUSH2 0x26E9 JUMP JUMPDEST DUP1 ISZERO PUSH2 0xF11 JUMPI DUP1 PUSH1 0x1F LT PUSH2 0xEE8 JUMPI PUSH2 0x100 DUP1 DUP4 SLOAD DIV MUL DUP4 MSTORE SWAP2 PUSH1 0x20 ADD SWAP2 PUSH2 0xF11 JUMP JUMPDEST DUP3 ADD SWAP2 SWAP1 PUSH0 MSTORE PUSH1 0x20 PUSH0 KECCAK256 SWAP1 JUMPDEST DUP2 SLOAD DUP2 MSTORE SWAP1 PUSH1 0x1 ADD SWAP1 PUSH1 0x20 ADD DUP1 DUP4 GT PUSH2 0xEF4 JUMPI DUP3 SWAP1 SUB PUSH1 0x1F AND DUP3 ADD SWAP2 JUMPDEST POP POP POP POP POP DUP2 MSTORE POP POP DUP2 MSTORE PUSH1 0x20 ADD SWAP1 PUSH1 0x1 ADD SWAP1 PUSH2 0xE21 JUMP JUMPDEST POP POP POP POP SWAP1 POP SWAP1 JUMP JUMPDEST PUSH0 PUSH32 0x0 PUSH20 0xFFFFFFFFFFFFFFFFFFFFFFFFFFFFFFFFFFFFFFFF AND PUSH4 0x70A08231 ADDRESS PUSH1 0x40 MLOAD DUP3 PUSH4 0xFFFFFFFF AND PUSH1 0xE0 SHL DUP2 MSTORE PUSH1 0x4 ADD PUSH2 0xF8C SWAP2 SWAP1 PUSH2 0x1F05 JUMP JUMPDEST PUSH1 0x20 PUSH1 0x40 MLOAD DUP1 DUP4 SUB DUP2 DUP7 GAS STATICCALL ISZERO DUP1 ISZERO PUSH2 0xFA7 JUMPI RETURNDATASIZE PUSH0 PUSH0 RETURNDATACOPY RETURNDATASIZE PUSH0 REVERT JUMPDEST POP POP POP POP PUSH1 0x40 MLOAD RETURNDATASIZE PUSH1 0x1F NOT PUSH1 0x1F DUP3 ADD AND DUP3 ADD DUP1 PUSH1 0x40 MSTORE POP DUP2 ADD SWAP1 PUSH2 0xFCB SWAP2 SWAP1 PUSH2 0x272D JUMP JUMPDEST SWAP1 POP SWAP1 JUMP JUMPDEST PUSH32 0x0 PUSH20 0xFFFFFFFFFFFFFFFFFFFFFFFFFFFFFFFFFFFFFFFF AND CALLER PUSH20 0xFFFFFFFFFFFFFFFFFFFFFFFFFFFFFFFFFFFFFFFF AND EQ DUP1 PUSH2 0x1075 JUMPI POP PUSH32 0x0 PUSH20 0xFFFFFFFFFFFFFFFFFFFFFFFFFFFFFFFFFFFFFFFF AND CALLER PUSH20 0xFFFFFFFFFFFFFFFFFFFFFFFFFFFFFFFFFFFFFFFF AND EQ JUMPDEST PUSH2 0x10B4 JUMPI PUSH1 0x40 MLOAD PUSH32 0x8C379A000000000000000000000000000000000000000000000000000000000 DUP2 MSTORE PUSH1 0x4 ADD PUSH2 0x10AB SWAP1 PUSH2 0x27A2 JUMP JUMPDEST PUSH1 0x40 MLOAD DUP1 SWAP2 SUB SWAP1 REVERT JUMPDEST PUSH1 0x1 DUP1 PUSH1 0x4 DUP2 GT ISZERO PUSH2 0x10C9 JUMPI PUSH2 0x10C8 PUSH2 0x2413 JUMP JUMPDEST JUMPDEST PUSH1 0x1 PUSH0 SWAP1 SLOAD SWAP1 PUSH2 0x100 EXP SWAP1 DIV PUSH1 0xFF AND PUSH1 0x4 DUP2 GT ISZERO PUSH2 0x10EA JUMPI PUSH2 0x10E9 PUSH2 0x2413 JUMP JUMPDEST JUMPDEST EQ PUSH2 0x1121 JUMPI PUSH1 0x40 MLOAD PUSH32 0xBAF3F0F700000000000000000000000000000000000000000000000000000000 DUP2 MSTORE PUSH1 0x4 ADD PUSH1 0x40 MLOAD DUP1 SWAP2 SUB SWAP1 REVERT JUMPDEST PUSH1 0x4 PUSH1 0x1 PUSH0 PUSH2 0x100 EXP DUP2 SLOAD DUP2 PUSH1 0xFF MUL NOT AND SWAP1 DUP4 PUSH1 0x4 DUP2 GT ISZERO PUSH2 0x1146 JUMPI PUSH2 0x1145 PUSH2 0x2413 JUMP JUMPDEST JUMPDEST MUL OR SWAP1 SSTORE POP TIMESTAMP PUSH1 0x5 DUP2 SWAP1 SSTORE POP CALLER PUSH20 0xFFFFFFFFFFFFFFFFFFFFFFFFFFFFFFFFFFFFFFFF AND PUSH32 0x28B099EB575E23E32BECD7C30DC8F9B2F98E370CDBF9841EA3338D9000402A25 DUP4 PUSH1 0x40 MLOAD PUSH2 0x1198 SWAP2 SWAP1 PUSH2 0x20CC JUMP JUMPDEST PUSH1 0x40 MLOAD DUP1 SWAP2 SUB SWAP1 LOG2 POP POP JUMP JUMPDEST PUSH32 0x0 PUSH20 0xFFFFFFFFFFFFFFFFFFFFFFFFFFFFFFFFFFFFFFFF AND CALLER PUSH20 0xFFFFFFFFFFFFFFFFFFFFFFFFFFFFFFFFFFFFFFFF AND EQ PUSH2 0x1229 JUMPI PUSH1 0x40 MLOAD PUSH32 0x8858596300000000000000000000000000000000000000000000000000000000 DUP2 MSTORE PUSH1 0x4 ADD PUSH1 0x40 MLOAD DUP1 SWAP2 SUB SWAP1 REVERT JUMPDEST PUSH1 0x4 DUP1 PUSH1 0x4 DUP2 GT ISZERO PUSH2 0x123E JUMPI PUSH2 0x123D PUSH2 0x2413 JUMP JUMPDEST JUMPDEST PUSH1 0x1 PUSH0 SWAP1 SLOAD SWAP1 PUSH2 0x100 EXP SWAP1 DIV PUSH1 0xFF AND PUSH1 0x4 DUP2 GT ISZERO PUSH2 0x125F JUMPI PUSH2 0x125E PUSH2 0x2413 JUMP JUMPDEST JUMPDEST EQ PUSH2 0x1296 JUMPI PUSH1 0x40 MLOAD PUSH32 0xBAF3F0F700000000000000000000000000000000000000000000000000000000 DUP2 MSTORE PUSH1 0x4 ADD PUSH1 0x40 MLOAD DUP1 SWAP2 SUB SWAP1 REVERT JUMPDEST PUSH2 0x129E PUSH2 0x1A4B JUMP JUMPDEST PUSH3 0x278D00 PUSH1 0x5 SLOAD PUSH2 0x12AF SWAP2 SWAP1 PUSH2 0x2689 JUMP JUMPDEST TIMESTAMP LT ISZERO PUSH2 0x12F1 JUMPI PUSH1 0x40 MLOAD PUSH32 0x8C379A000000000000000000000000000000000000000000000000000000000 DUP2 MSTORE PUSH1 0x4 ADD PUSH2 0x12E8 SWAP1 PUSH2 0x280A JUMP JUMPDEST PUSH1 0x40 MLOAD DUP1 SWAP2 SUB SWAP1 REVERT JUMPDEST PUSH0 PUSH2 0x12FA PUSH2 0x1A98 JUMP JUMPDEST SWAP1 POP PUSH0 DUP2 GT ISZERO PUSH2 0x1370 JUMPI PUSH2 0x136F PUSH32 0x0 DUP3 PUSH32 0x0 PUSH20 0xFFFFFFFFFFFFFFFFFFFFFFFFFFFFFFFFFFFFFFFF AND PUSH2 0x1B7E SWAP1 SWAP3 SWAP2 SWAP1 PUSH4 0xFFFFFFFF AND JUMP JUMPDEST JUMPDEST PUSH1 0x2 PUSH1 0x1 PUSH0 PUSH2 0x100 EXP DUP2 SLOAD DUP2 PUSH1 0xFF MUL NOT AND SWAP1 DUP4 PUSH1 0x4 DUP2 GT ISZERO PUSH2 0x1395 JUMPI PUSH2 0x1394 PUSH2 0x2413 JUMP JUMPDEST JUMPDEST MUL OR SWAP1 SSTORE POP PUSH1 0x2 SLOAD PUSH1 0x3 DUP2 SWAP1 SSTORE POP PUSH32 0x8015C5005D9AD5D85CA80D3F894F08E0159277704C54166E5CFF108800FA80CD PUSH1 0x1 PUSH1 0x40 MLOAD PUSH2 0x13D3 SWAP2 SWAP1 PUSH2 0x2043 JUMP JUMPDEST PUSH1 0x40 MLOAD DUP1 SWAP2 SUB SWAP1 LOG1 PUSH32 0xE39866727217E43713C3728C5769515E8FB38E990B568B9831C1689DFDF67B66 PUSH1 0x40 MLOAD PUSH1 0x40 MLOAD DUP1 SWAP2 SUB SWAP1 LOG1 POP PUSH2 0x1410 PUSH2 0x1BFD JUMP JUMPDEST POP JUMP JUMPDEST PUSH32 0x0 PUSH20 0xFFFFFFFFFFFFFFFFFFFFFFFFFFFFFFFFFFFFFFFF AND CALLER PUSH20 0xFFFFFFFFFFFFFFFFFFFFFFFFFFFFFFFFFFFFFFFF AND EQ PUSH2 0x1498 JUMPI PUSH1 0x40 MLOAD PUSH32 0xA598AEBE00000000000000000000000000000000000000000000000000000000 DUP2 MSTORE PUSH1 0x4 ADD PUSH1 0x40 MLOAD DUP1 SWAP2 SUB SWAP1 REVERT JUMPDEST PUSH0 DUP1 PUSH1 0x4 DUP2 GT ISZERO PUSH2 0x14AC JUMPI PUSH2 0x14AB PUSH2 0x2413 JUMP JUMPDEST JUMPDEST PUSH1 0x1 PUSH0 SWAP1 SLOAD SWAP1 PUSH2 0x100 EXP SWAP1 DIV PUSH1 0xFF AND PUSH1 0x4 DUP2 GT ISZERO PUSH2 0x14CD JUMPI PUSH2 0x14CC PUSH2 0x2413 JUMP JUMPDEST JUMPDEST EQ PUSH2 0x1504 JUMPI PUSH1 0x40 MLOAD PUSH32 0xBAF3F0F700000000000000000000000000000000000000000000000000000000 DUP2 MSTORE PUSH1 0x4 ADD PUSH1 0x40 MLOAD DUP1 SWAP2 SUB SWAP1 REVERT JUMPDEST PUSH2 0x150C PUSH2 0x1A4B JUMP JUMPDEST PUSH2 0x155B CALLER ADDRESS PUSH1 0x2 SLOAD PUSH32 0x0 PUSH20 0xFFFFFFFFFFFFFFFFFFFFFFFFFFFFFFFFFFFFFFFF AND PUSH2 0x1CF5 SWAP1 SWAP4 SWAP3 SWAP2 SWAP1 PUSH4 0xFFFFFFFF AND JUMP JUMPDEST PUSH1 0x1 DUP1 PUSH0 PUSH2 0x100 EXP DUP2 SLOAD DUP2 PUSH1 0xFF MUL NOT AND SWAP1 DUP4 PUSH1 0x4 DUP2 GT ISZERO PUSH2 0x157F JUMPI PUSH2 0x157E PUSH2 0x2413 JUMP JUMPDEST JUMPDEST MUL OR SWAP1 SSTORE POP PUSH32 0x2301E0A2AD8F6E28A7FBB09E96F5C14E588FAC346ED5CE607E1A018BC7688646 PUSH1 0x2 SLOAD PUSH1 0x40 MLOAD PUSH2 0x15B5 SWAP2 SWAP1 PUSH2 0x1F36 JUMP JUMPDEST PUSH1 0x40 MLOAD DUP1 SWAP2 SUB SWAP1 LOG1 PUSH2 0x15C5 PUSH2 0x1BFD JUMP JUMPDEST POP JUMP JUMPDEST PUSH1 0x5 SLOAD DUP2 JUMP JUMPDEST PUSH1 0x1 PUSH0 SWAP1 SLOAD SWAP1 PUSH2 0x100 EXP SWAP1 DIV PUSH1 0xFF AND DUP2 JUMP JUMPDEST PUSH32 0x0 DUP2 JUMP JUMPDEST PUSH1 0x4 DUP2 DUP2 SLOAD DUP2 LT PUSH2 0x1613 JUMPI PUSH0 DUP1 REVERT JUMPDEST SWAP1 PUSH0 MSTORE PUSH1 0x20 PUSH0 KECCAK256 SWAP1 PUSH1 0x4 MUL ADD PUSH0 SWAP2 POP SWAP1 POP DUP1 PUSH0 ADD SLOAD SWAP1 DUP1 PUSH1 0x1 ADD PUSH0 SWAP1 SLOAD SWAP1 PUSH2 0x100 EXP SWAP1 DIV PUSH1 0xFF AND SWAP1 DUP1 PUSH1 0x1 ADD PUSH1 0x1 SWAP1 SLOAD SWAP1 PUSH2 0x100 EXP SWAP1 DIV PUSH1 0xFF AND SWAP1 DUP1 PUSH1 0x2 ADD SLOAD SWAP1 DUP1 PUSH1 0x3 ADD DUP1 SLOAD PUSH2 0x1663 SWAP1 PUSH2 0x26E9 JUMP JUMPDEST DUP1 PUSH1 0x1F ADD PUSH1 0x20 DUP1 SWAP2 DIV MUL PUSH1 0x20 ADD PUSH1 0x40 MLOAD SWAP1 DUP2 ADD PUSH1 0x40 MSTORE DUP1 SWAP3 SWAP2 SWAP1 DUP2 DUP2 MSTORE PUSH1 0x20 ADD DUP3 DUP1 SLOAD PUSH2 0x168F SWAP1 PUSH2 0x26E9 JUMP JUMPDEST DUP1 ISZERO PUSH2 0x16DA JUMPI DUP1 PUSH1 0x1F LT PUSH2 0x16B1 JUMPI PUSH2 0x100 DUP1 DUP4 SLOAD DIV MUL DUP4 MSTORE SWAP2 PUSH1 0x20 ADD SWAP2 PUSH2 0x16DA JUMP JUMPDEST DUP3 ADD SWAP2 SWAP1 PUSH0 MSTORE PUSH1 0x20 PUSH0 KECCAK256 SWAP1 JUMPDEST DUP2 SLOAD DUP2 MSTORE SWAP1 PUSH1 0x1 ADD SWAP1 PUSH1 0x20 ADD DUP1 DUP4 GT PUSH2 0x16BD JUMPI DUP3 SWAP1 SUB PUSH1 0x1F AND DUP3 ADD SWAP2 JUMPDEST POP POP POP POP POP SWAP1 POP DUP6 JUMP JUMPDEST PUSH32 0x0 PUSH20 0xFFFFFFFFFFFFFFFFFFFFFFFFFFFFFFFFFFFFFFFF AND CALLER PUSH20 0xFFFFFFFFFFFFFFFFFFFFFFFFFFFFFFFFFFFFFFFF AND EQ PUSH2 0x1769 JUMPI PUSH1 0x40 MLOAD PUSH32 0xA598AEBE00000000000000000000000000000000000000000000000000000000 DUP2 MSTORE PUSH1 0x4 ADD PUSH1 0x40 MLOAD DUP1 SWAP2 SUB SWAP1 REVERT JUMPDEST PUSH1 0x1 DUP1 PUSH1 0x4 DUP2 GT ISZERO PUSH2 0x177E JUMPI PUSH2 0x177D PUSH2 0x2413 JUMP JUMPDEST JUMPDEST PUSH1 0x1 PUSH0 SWAP1 SLOAD SWAP1 PUSH2 0x100 EXP SWAP1 DIV PUSH1 0xFF AND PUSH1 0x4 DUP2 GT ISZERO PUSH2 0x179F JUMPI PUSH2 0x179E PUSH2 0x2413 JUMP JUMPDEST JUMPDEST EQ PUSH2 0x17D6 JUMPI PUSH1 0x40 MLOAD PUSH32 0xBAF3F0F700000000000000000000000000000000000000000000000000000000 DUP2 MSTORE PUSH1 0x4 ADD PUSH1 0x40 MLOAD DUP1 SWAP2 SUB SWAP1 REVERT JUMPDEST DUP2 PUSH1 0x4 DUP1 SLOAD SWAP1 POP DUP2 LT PUSH2 0x1815 JUMPI PUSH1 0x40 MLOAD PUSH32 0xBA11734000000000000000000000000000000000000000000000000000000000 DUP2 MSTORE PUSH1 0x4 ADD PUSH1 0x40 MLOAD DUP1 SWAP2 SUB SWAP1 REVERT JUMPDEST PUSH2 0x181D PUSH2 0x1A4B JUMP JUMPDEST PUSH0 PUSH1 0x4 DUP5 DUP2 SLOAD DUP2 LT PUSH2 0x1832 JUMPI PUSH2 0x1831 PUSH2 0x24F7 JUMP JUMPDEST JUMPDEST SWAP1 PUSH0 MSTORE PUSH1 0x20 PUSH0 KECCAK256 SWAP1 PUSH1 0x4 MUL ADD SWAP1 POP DUP1 PUSH1 0x1 ADD PUSH0 SWAP1 SLOAD SWAP1 PUSH2 0x100 EXP SWAP1 DIV PUSH1 0xFF AND ISZERO PUSH2 0x1891 JUMPI PUSH1 0x40 MLOAD PUSH32 0x8C379A000000000000000000000000000000000000000000000000000000000 DUP2 MSTORE PUSH1 0x4 ADD PUSH2 0x1888 SWAP1 PUSH2 0x256E JUMP JUMPDEST PUSH1 0x40 MLOAD DUP1 SWAP2 SUB SWAP1 REVERT JUMPDEST DUP1 PUSH1 0x1 ADD PUSH1 0x1 SWAP1 SLOAD SWAP1 PUSH2 0x100 EXP SWAP1 DIV PUSH1 0xFF AND ISZERO PUSH2 0x18E3 JUMPI PUSH1 0x40 MLOAD PUSH32 0x8C379A000000000000000000000000000000000000000000000000000000000 DUP2 MSTORE PUSH1 0x4 ADD PUSH2 0x18DA SWAP1 PUSH2 0x2872 JUMP JUMPDEST PUSH1 0x40 MLOAD DUP1 SWAP2 SUB SWAP1 REVERT JUMPDEST PUSH0 DUP2 PUSH1 0x2 ADD SLOAD GT PUSH2 0x1929 JUMPI PUSH1 0x40 MLOAD PUSH32 0x8C379A000000000000000000000000000000000000000000000000000000000 DUP2 MSTORE PUSH1 0x4 ADD PUSH2 0x1920 SWAP1 PUSH2 0x28DA JUMP JUMPDEST PUSH1 0x40 MLOAD DUP1 SWAP2 SUB SWAP1 REVERT JUMPDEST DUP1 PUSH1 0x2 ADD SLOAD TIMESTAMP GT PUSH2 0x196F JUMPI PUSH1 0x40 MLOAD PUSH32 0x8C379A000000000000000000000000000000000000000000000000000000000 DUP2 MSTORE PUSH1 0x4 ADD PUSH2 0x1966 SWAP1 PUSH2 0x2942 JUMP JUMPDEST PUSH1 0x40 MLOAD DUP1 SWAP2 SUB SWAP1 REVERT JUMPDEST PUSH1 0x1 DUP2 PUSH1 0x1 ADD PUSH1 0x1 PUSH2 0x100 EXP DUP2 SLOAD DUP2 PUSH1 0xFF MUL NOT AND SWAP1 DUP4 ISZERO ISZERO MUL OR SWAP1 SSTORE POP PUSH2 0x19FA PUSH32 0x0 DUP3 PUSH0 ADD SLOAD PUSH32 0x0 PUSH20 0xFFFFFFFFFFFFFFFFFFFFFFFFFFFFFFFFFFFFFFFF AND PUSH2 0x1B7E SWAP1 SWAP3 SWAP2 SWAP1 PUSH4 0xFFFFFFFF AND JUMP JUMPDEST DUP4 PUSH32 0xDADEFB9D4C98CE0B09100DAF8B195E7882F849F58F6760FF36762958C0F7B8A8 DUP3 PUSH0 ADD SLOAD PUSH1 0x40 MLOAD PUSH2 0x1A2D SWAP2 SWAP1 PUSH2 0x1F36 JUMP JUMPDEST PUSH1 0x40 MLOAD DUP1 SWAP2 SUB SWAP1 LOG2 PUSH2 0x1A3D PUSH2 0x1D77 JUMP JUMPDEST POP PUSH2 0x1A46 PUSH2 0x1BFD JUMP JUMPDEST POP POP POP JUMP JUMPDEST PUSH1 0x2 PUSH0 SLOAD SUB PUSH2 0x1A8F JUMPI PUSH1 0x40 MLOAD PUSH32 0x8C379A000000000000000000000000000000000000000000000000000000000 DUP2 MSTORE PUSH1 0x4 ADD PUSH2 0x1A86 SWAP1 PUSH2 0x29AA JUMP JUMPDEST PUSH1 0x40 MLOAD DUP1 SWAP2 SUB SWAP1 REVERT JUMPDEST PUSH1 0x2 PUSH0 DUP2 SWAP1 SSTORE POP JUMP JUMPDEST PUSH0 PUSH0 PUSH32 0x0 PUSH20 0xFFFFFFFFFFFFFFFFFFFFFFFFFFFFFFFFFFFFFFFF AND PUSH4 0x70A08231 ADDRESS PUSH1 0x40 MLOAD DUP3 PUSH4 0xFFFFFFFF AND PUSH1 0xE0 SHL DUP2 MSTORE PUSH1 0x4 ADD PUSH2 0x1AF3 SWAP2 SWAP1 PUSH2 0x1F05 JUMP JUMPDEST PUSH1 0x20 PUSH1 0x40 MLOAD DUP1 DUP4 SUB DUP2 DUP7 GAS STATICCALL ISZERO DUP1 ISZERO PUSH2 0x1B0E JUMPI RETURNDATASIZE PUSH0 PUSH0 RETURNDATACOPY RETURNDATASIZE PUSH0 REVERT JUMPDEST POP POP POP POP PUSH1 0x40 MLOAD RETURNDATASIZE PUSH1 0x1F NOT PUSH1 0x1F DUP3 ADD AND DUP3 ADD DUP1 PUSH1 0x40 MSTORE POP DUP2 ADD SWAP1 PUSH2 0x1B32 SWAP2 SWAP1 PUSH2 0x272D JUMP JUMPDEST SWAP1 POP PUSH0 PUSH1 0x4 DUP2 GT ISZERO PUSH2 0x1B47 JUMPI PUSH2 0x1B46 PUSH2 0x2413 JUMP JUMPDEST JUMPDEST PUSH1 0x1 PUSH0 SWAP1 SLOAD SWAP1 PUSH2 0x100 EXP SWAP1 DIV PUSH1 0xFF AND PUSH1 0x4 DUP2 GT ISZERO PUSH2 0x1B68 JUMPI PUSH2 0x1B67 PUSH2 0x2413 JUMP JUMPDEST JUMPDEST SUB PUSH2 0x1B76 JUMPI PUSH0 SWAP2 POP POP PUSH2 0x1B7B JUMP JUMPDEST DUP1 SWAP2 POP POP JUMPDEST SWAP1 JUMP JUMPDEST PUSH2 0x1BF8 DUP4 DUP5 PUSH20 0xFFFFFFFFFFFFFFFFFFFFFFFFFFFFFFFFFFFFFFFF AND PUSH4 0xA9059CBB DUP6 DUP6 PUSH1 0x40 MLOAD PUSH1 0x24 ADD PUSH2 0x1BB1 SWAP3 SWAP2 SWAP1 PUSH2 0x29C8 JUMP JUMPDEST PUSH1 0x40 MLOAD PUSH1 0x20 DUP2 DUP4 SUB SUB DUP2 MSTORE SWAP1 PUSH1 0x40 MSTORE SWAP2 POP PUSH1 0xE0 SHL PUSH1 0x20 DUP3 ADD DUP1 MLOAD PUSH28 0xFFFFFFFFFFFFFFFFFFFFFFFFFFFFFFFFFFFFFFFFFFFFFFFFFFFFFFFF DUP4 DUP2 DUP4 AND OR DUP4 MSTORE POP POP POP POP PUSH2 0x1E2B JUMP JUMPDEST POP POP POP JUMP JUMPDEST PUSH1 0x1 PUSH0 DUP2 SWAP1 SSTORE POP JUMP JUMPDEST PUSH0 PUSH0 SWAP1 POP JUMPDEST PUSH1 0x4 DUP1 SLOAD SWAP1 POP DUP2 LT ISZERO PUSH2 0x1C9B JUMPI PUSH1 0x4 DUP2 DUP2 SLOAD DUP2 LT PUSH2 0x1C2C JUMPI PUSH2 0x1C2B PUSH2 0x24F7 JUMP JUMPDEST JUMPDEST SWAP1 PUSH0 MSTORE PUSH1 0x20 PUSH0 KECCAK256 SWAP1 PUSH1 0x4 MUL ADD PUSH1 0x1 ADD PUSH0 SWAP1 SLOAD SWAP1 PUSH2 0x100 EXP SWAP1 DIV PUSH1 0xFF AND ISZERO DUP1 ISZERO PUSH2 0x1C83 JUMPI POP PUSH1 0x4 DUP2 DUP2 SLOAD DUP2 LT PUSH2 0x1C64 JUMPI PUSH2 0x1C63 PUSH2 0x24F7 JUMP JUMPDEST JUMPDEST SWAP1 PUSH0 MSTORE PUSH1 0x20 PUSH0 KECCAK256 SWAP1 PUSH1 0x4 MUL ADD PUSH1 0x1 ADD PUSH1 0x1 SWAP1 SLOAD SWAP1 PUSH2 0x100 EXP SWAP1 DIV PUSH1 0xFF AND ISZERO JUMPDEST ISZERO PUSH2 0x1C8E JUMPI POP PUSH2 0x1CF3 JUMP JUMPDEST DUP1 DUP1 PUSH1 0x1 ADD SWAP2 POP POP PUSH2 0x1C0B JUMP JUMPDEST POP PUSH1 0x2 PUSH1 0x1 PUSH0 PUSH2 0x100 EXP DUP2 SLOAD DUP2 PUSH1 0xFF MUL NOT AND SWAP1 DUP4 PUSH1 0x4 DUP2 GT ISZERO PUSH2 0x1CC1 JUMPI PUSH2 0x1CC0 PUSH2 0x2413 JUMP JUMPDEST JUMPDEST MUL OR SWAP1 SSTORE POP PUSH32 0xE39866727217E43713C3728C5769515E8FB38E990B568B9831C1689DFDF67B66 PUSH1 0x40 MLOAD PUSH1 0x40 MLOAD DUP1 SWAP2 SUB SWAP1 LOG1 JUMPDEST JUMP JUMPDEST PUSH2 0x1D71 DUP5 DUP6 PUSH20 0xFFFFFFFFFFFFFFFFFFFFFFFFFFFFFFFFFFFFFFFF AND PUSH4 0x23B872DD DUP7 DUP7 DUP7 PUSH1 0x40 MLOAD PUSH1 0x24 ADD PUSH2 0x1D2A SWAP4 SWAP3 SWAP2 SWAP1 PUSH2 0x29EF JUMP JUMPDEST PUSH1 0x40 MLOAD PUSH1 0x20 DUP2 DUP4 SUB SUB DUP2 MSTORE SWAP1 PUSH1 0x40 MSTORE SWAP2 POP PUSH1 0xE0 SHL PUSH1 0x20 DUP3 ADD DUP1 MLOAD PUSH28 0xFFFFFFFFFFFFFFFFFFFFFFFFFFFFFFFFFFFFFFFFFFFFFFFFFFFFFFFF DUP4 DUP2 DUP4 AND OR DUP4 MSTORE POP POP POP POP PUSH2 0x1E2B JUMP JUMPDEST POP POP POP POP JUMP JUMPDEST PUSH0 PUSH0 SWAP1 POP JUMPDEST PUSH1 0x4 DUP1 SLOAD SWAP1 POP DUP2 LT ISZERO PUSH2 0x1DD1 JUMPI PUSH1 0x4 DUP2 DUP2 SLOAD DUP2 LT PUSH2 0x1D9D JUMPI PUSH2 0x1D9C PUSH2 0x24F7 JUMP JUMPDEST JUMPDEST SWAP1 PUSH0 MSTORE PUSH1 0x20 PUSH0 KECCAK256 SWAP1 PUSH1 0x4 MUL ADD PUSH1 0x1 ADD PUSH1 0x1 SWAP1 SLOAD SWAP1 PUSH2 0x100 EXP SWAP1 DIV PUSH1 0xFF AND PUSH2 0x1DC4 JUMPI POP PUSH2 0x1E29 JUMP JUMPDEST DUP1 DUP1 PUSH1 0x1 ADD SWAP2 POP POP PUSH2 0x1D7C JUMP JUMPDEST POP PUSH1 0x3 PUSH1 0x1 PUSH0 PUSH2 0x100 EXP DUP2 SLOAD DUP2 PUSH1 0xFF MUL NOT AND SWAP1 DUP4 PUSH1 0x4 DUP2 GT ISZERO PUSH2 0x1DF7 JUMPI PUSH2 0x1DF6 PUSH2 0x2413 JUMP JUMPDEST JUMPDEST MUL OR SWAP1 SSTORE POP PUSH32 0x92C439FDA90C70CCDEDCB94D28A14F9FDA69D67124EFBBE9BF905740194228C8 PUSH1 0x40 MLOAD PUSH1 0x40 MLOAD DUP1 SWAP2 SUB SWAP1 LOG1 JUMPDEST JUMP JUMPDEST PUSH0 PUSH0 PUSH1 0x20 PUSH0 DUP5 MLOAD PUSH1 0x20 DUP7 ADD PUSH0 DUP9 GAS CALL DUP1 PUSH2 0x1E4A JUMPI PUSH1 0x40 MLOAD RETURNDATASIZE PUSH0 DUP3 RETURNDATACOPY RETURNDATASIZE DUP2 REVERT JUMPDEST RETURNDATASIZE SWAP3 POP PUSH0 MLOAD SWAP2 POP POP PUSH0 DUP3 EQ PUSH2 0x1E63 JUMPI PUSH1 0x1 DUP2 EQ ISZERO PUSH2 0x1E7E JUMP JUMPDEST PUSH0 DUP5 PUSH20 0xFFFFFFFFFFFFFFFFFFFFFFFFFFFFFFFFFFFFFFFF AND EXTCODESIZE EQ JUMPDEST ISZERO PUSH2 0x1EC0 JUMPI DUP4 PUSH1 0x40 MLOAD PUSH32 0x5274AFE700000000000000000000000000000000000000000000000000000000 DUP2 MSTORE PUSH1 0x4 ADD PUSH2 0x1EB7 SWAP2 SWAP1 PUSH2 0x1F05 JUMP JUMPDEST PUSH1 0x40 MLOAD DUP1 SWAP2 SUB SWAP1 REVERT JUMPDEST POP POP POP POP JUMP JUMPDEST PUSH0 PUSH20 0xFFFFFFFFFFFFFFFFFFFFFFFFFFFFFFFFFFFFFFFF DUP3 AND SWAP1 POP SWAP2 SWAP1 POP JUMP JUMPDEST PUSH0 PUSH2 0x1EEF DUP3 PUSH2 0x1EC6 JUMP JUMPDEST SWAP1 POP SWAP2 SWAP1 POP JUMP JUMPDEST PUSH2 0x1EFF DUP2 PUSH2 0x1EE5 JUMP JUMPDEST DUP3 MSTORE POP POP JUMP JUMPDEST PUSH0 PUSH1 0x20 DUP3 ADD SWAP1 POP PUSH2 0x1F18 PUSH0 DUP4 ADD DUP5 PUSH2 0x1EF6 JUMP JUMPDEST SWAP3 SWAP2 POP POP JUMP JUMPDEST PUSH0 DUP2 SWAP1 POP SWAP2 SWAP1 POP JUMP JUMPDEST PUSH2 0x1F30 DUP2 PUSH2 0x1F1E JUMP JUMPDEST DUP3 MSTORE POP POP JUMP JUMPDEST PUSH0 PUSH1 0x20 DUP3 ADD SWAP1 POP PUSH2 0x1F49 PUSH0 DUP4 ADD DUP5 PUSH2 0x1F27 JUMP JUMPDEST SWAP3 SWAP2 POP POP JUMP JUMPDEST PUSH0 DUP2 SWAP1 POP SWAP2 SWAP1 POP JUMP JUMPDEST PUSH0 PUSH2 0x1F72 PUSH2 0x1F6D PUSH2 0x1F68 DUP5 PUSH2 0x1EC6 JUMP JUMPDEST PUSH2 0x1F4F JUMP JUMPDEST PUSH2 0x1EC6 JUMP JUMPDEST SWAP1 POP SWAP2 SWAP1 POP JUMP JUMPDEST PUSH0 PUSH2 0x1F83 DUP3 PUSH2 0x1F58 JUMP JUMPDEST SWAP1 POP SWAP2 SWAP1 POP JUMP JUMPDEST PUSH0 PUSH2 0x1F94 DUP3 PUSH2 0x1F79 JUMP JUMPDEST SWAP1 POP SWAP2 SWAP1 POP JUMP JUMPDEST PUSH2 0x1FA4 DUP2 PUSH2 0x1F8A JUMP JUMPDEST DUP3 MSTORE POP POP JUMP JUMPDEST PUSH0 PUSH1 0x20 DUP3 ADD SWAP1 POP PUSH2 0x1FBD PUSH0 DUP4 ADD DUP5 PUSH2 0x1F9B JUMP JUMPDEST SWAP3 SWAP2 POP POP JUMP JUMPDEST PUSH0 PUSH1 0x40 MLOAD SWAP1 POP SWAP1 JUMP JUMPDEST PUSH0 PUSH0 REVERT JUMPDEST PUSH0 PUSH0 REVERT JUMPDEST PUSH2 0x1FDD DUP2 PUSH2 0x1F1E JUMP JUMPDEST DUP2 EQ PUSH2 0x1FE7 JUMPI PUSH0 PUSH0 REVERT JUMPDEST POP JUMP JUMPDEST PUSH0 DUP2 CALLDATALOAD SWAP1 POP PUSH2 0x1FF8 DUP2 PUSH2 0x1FD4 JUMP JUMPDEST SWAP3 SWAP2 POP POP JUMP JUMPDEST PUSH0 PUSH1 0x20 DUP3 DUP5 SUB SLT ISZERO PUSH2 0x2013 JUMPI PUSH2 0x2012 PUSH2 0x1FCC JUMP JUMPDEST JUMPDEST PUSH0 PUSH2 0x2020 DUP5 DUP3 DUP6 ADD PUSH2 0x1FEA JUMP JUMPDEST SWAP2 POP POP SWAP3 SWAP2 POP POP JUMP JUMPDEST PUSH0 DUP2 ISZERO ISZERO SWAP1 POP SWAP2 SWAP1 POP JUMP JUMPDEST PUSH2 0x203D DUP2 PUSH2 0x2029 JUMP JUMPDEST DUP3 MSTORE POP POP JUMP JUMPDEST PUSH0 PUSH1 0x20 DUP3 ADD SWAP1 POP PUSH2 0x2056 PUSH0 DUP4 ADD DUP5 PUSH2 0x2034 JUMP JUMPDEST SWAP3 SWAP2 POP POP JUMP JUMPDEST PUSH0 DUP2 MLOAD SWAP1 POP SWAP2 SWAP1 POP JUMP JUMPDEST PUSH0 DUP3 DUP3 MSTORE PUSH1 0x20 DUP3 ADD SWAP1 POP SWAP3 SWAP2 POP POP JUMP JUMPDEST DUP3 DUP2 DUP4 MCOPY PUSH0 DUP4 DUP4 ADD MSTORE POP POP POP JUMP JUMPDEST PUSH0 PUSH1 0x1F NOT PUSH1 0x1F DUP4 ADD AND SWAP1 POP SWAP2 SWAP1 POP JUMP JUMPDEST PUSH0 PUSH2 0x209E DUP3 PUSH2 0x205C JUMP JUMPDEST PUSH2 0x20A8 DUP2 DUP6 PUSH2 0x2066 JUMP JUMPDEST SWAP4 POP PUSH2 0x20B8 DUP2 DUP6 PUSH1 0x20 DUP7 ADD PUSH2 0x2076 JUMP JUMPDEST PUSH2 0x20C1 DUP2 PUSH2 0x2084 JUMP JUMPDEST DUP5 ADD SWAP2 POP POP SWAP3 SWAP2 POP POP JUMP JUMPDEST PUSH0 PUSH1 0x20 DUP3 ADD SWAP1 POP DUP2 DUP2 SUB PUSH0 DUP4 ADD MSTORE PUSH2 0x20E4 DUP2 DUP5 PUSH2 0x2094 JUMP JUMPDEST SWAP1 POP SWAP3 SWAP2 POP POP JUMP JUMPDEST PUSH0 DUP2 MLOAD SWAP1 POP SWAP2 SWAP1 POP JUMP JUMPDEST PUSH0 DUP3 DUP3 MSTORE PUSH1 0x20 DUP3 ADD SWAP1 POP SWAP3 SWAP2 POP POP JUMP JUMPDEST PUSH0 DUP2 SWAP1 POP PUSH1 0x20 DUP3 ADD SWAP1 POP SWAP2 SWAP1 POP JUMP JUMPDEST PUSH2 0x211E DUP2 PUSH2 0x1F1E JUMP JUMPDEST DUP3 MSTORE POP POP JUMP JUMPDEST PUSH2 0x212D DUP2 PUSH2 0x2029 JUMP JUMPDEST DUP3 MSTORE POP POP JUMP JUMPDEST PUSH0 DUP3 DUP3 MSTORE PUSH1 0x20 DUP3 ADD SWAP1 POP SWAP3 SWAP2 POP POP JUMP JUMPDEST PUSH0 PUSH2 0x214D DUP3 PUSH2 0x205C JUMP JUMPDEST PUSH2 0x2157 DUP2 DUP6 PUSH2 0x2133 JUMP JUMPDEST SWAP4 POP PUSH2 0x2167 DUP2 DUP6 PUSH1 0x20 DUP7 ADD PUSH2 0x2076 JUMP JUMPDEST PUSH2 0x2170 DUP2 PUSH2 0x2084 JUMP JUMPDEST DUP5 ADD SWAP2 POP POP SWAP3 SWAP2 POP POP JUMP JUMPDEST PUSH0 PUSH1 0xA0 DUP4 ADD PUSH0 DUP4 ADD MLOAD PUSH2 0x2190 PUSH0 DUP7 ADD DUP3 PUSH2 0x2115 JUMP JUMPDEST POP PUSH1 0x20 DUP4 ADD MLOAD PUSH2 0x21A3 PUSH1 0x20 DUP7 ADD DUP3 PUSH2 0x2124 JUMP JUMPDEST POP PUSH1 0x40 DUP4 ADD MLOAD PUSH2 0x21B6 PUSH1 0x40 DUP7 ADD DUP3 PUSH2 0x2124 JUMP JUMPDEST POP PUSH1 0x60 DUP4 ADD MLOAD PUSH2 0x21C9 PUSH1 0x60 DUP7 ADD DUP3 PUSH2 0x2115 JUMP JUMPDEST POP PUSH1 0x80 DUP4 ADD MLOAD DUP5 DUP3 SUB PUSH1 0x80 DUP7 ADD MSTORE PUSH2 0x21E1 DUP3 DUP3 PUSH2 0x2143 JUMP JUMPDEST SWAP2 POP POP DUP1 SWAP2 POP POP SWAP3 SWAP2 POP POP JUMP JUMPDEST PUSH0 PUSH2 0x21F9 DUP4 DUP4 PUSH2 0x217B JUMP JUMPDEST SWAP1 POP SWAP3 SWAP2 POP POP JUMP JUMPDEST PUSH0 PUSH1 0x20 DUP3 ADD SWAP1 POP SWAP2 SWAP1 POP JUMP JUMPDEST PUSH0 PUSH2 0x2217 DUP3 PUSH2 0x20EC JUMP JUMPDEST PUSH2 0x2221 DUP2 DUP6 PUSH2 0x20F6 JUMP JUMPDEST SWAP4 POP DUP4 PUSH1 0x20 DUP3 MUL DUP6 ADD PUSH2 0x2233 DUP6 PUSH2 0x2106 JUMP JUMPDEST DUP1 PUSH0 JUMPDEST DUP6 DUP2 LT ISZERO PUSH2 0x226E JUMPI DUP5 DUP5 SUB DUP10 MSTORE DUP2 MLOAD PUSH2 0x224F DUP6 DUP3 PUSH2 0x21EE JUMP JUMPDEST SWAP5 POP PUSH2 0x225A DUP4 PUSH2 0x2201 JUMP JUMPDEST SWAP3 POP PUSH1 0x20 DUP11 ADD SWAP10 POP POP PUSH1 0x1 DUP2 ADD SWAP1 POP PUSH2 0x2236 JUMP JUMPDEST POP DUP3 SWAP8 POP DUP8 SWAP6 POP POP POP POP POP POP SWAP3 SWAP2 POP POP JUMP JUMPDEST PUSH0 PUSH1 0x20 DUP3 ADD SWAP1 POP DUP2 DUP2 SUB PUSH0 DUP4 ADD MSTORE PUSH2 0x2298 DUP2 DUP5 PUSH2 0x220D JUMP JUMPDEST SWAP1 POP SWAP3 SWAP2 POP POP JUMP JUMPDEST PUSH0 PUSH0 REVERT JUMPDEST PUSH0 PUSH0 REVERT JUMPDEST PUSH32 0x4E487B7100000000000000000000000000000000000000000000000000000000 PUSH0 MSTORE PUSH1 0x41 PUSH1 0x4 MSTORE PUSH1 0x24 PUSH0 REVERT JUMPDEST PUSH2 0x22DE DUP3 PUSH2 0x2084 JUMP JUMPDEST DUP2 ADD DUP2 DUP2 LT PUSH8 0xFFFFFFFFFFFFFFFF DUP3 GT OR ISZERO PUSH2 0x22FD JUMPI PUSH2 0x22FC PUSH2 0x22A8 JUMP JUMPDEST JUMPDEST DUP1 PUSH1 0x40 MSTORE POP POP POP JUMP JUMPDEST PUSH0 PUSH2 0x230F PUSH2 0x1FC3 JUMP JUMPDEST SWAP1 POP PUSH2 0x231B DUP3 DUP3 PUSH2 0x22D5 JUMP JUMPDEST SWAP2 SWAP1 POP JUMP JUMPDEST PUSH0 PUSH8 0xFFFFFFFFFFFFFFFF DUP3 GT ISZERO PUSH2 0x233A JUMPI PUSH2 0x2339 PUSH2 0x22A8 JUMP JUMPDEST JUMPDEST PUSH2 0x2343 DUP3 PUSH2 0x2084 JUMP JUMPDEST SWAP1 POP PUSH1 0x20 DUP2 ADD SWAP1 POP SWAP2 SWAP1 POP JUMP JUMPDEST DUP3 DUP2 DUP4 CALLDATACOPY PUSH0 DUP4 DUP4 ADD MSTORE POP POP POP JUMP JUMPDEST PUSH0 PUSH2 0x2370 PUSH2 0x236B DUP5 PUSH2 0x2320 JUMP JUMPDEST PUSH2 0x2306 JUMP JUMPDEST SWAP1 POP DUP3 DUP2 MSTORE PUSH1 0x20 DUP2 ADD DUP5 DUP5 DUP5 ADD GT ISZERO PUSH2 0x238C JUMPI PUSH2 0x238B PUSH2 0x22A4 JUMP JUMPDEST JUMPDEST PUSH2 0x2397 DUP5 DUP3 DUP6 PUSH2 0x2350 JUMP JUMPDEST POP SWAP4 SWAP3 POP POP POP JUMP JUMPDEST PUSH0 DUP3 PUSH1 0x1F DUP4 ADD SLT PUSH2 0x23B3 JUMPI PUSH2 0x23B2 PUSH2 0x22A0 JUMP JUMPDEST JUMPDEST DUP2 CALLDATALOAD PUSH2 0x23C3 DUP5 DUP3 PUSH1 0x20 DUP7 ADD PUSH2 0x235E JUMP JUMPDEST SWAP2 POP POP SWAP3 SWAP2 POP POP JUMP JUMPDEST PUSH0 PUSH1 0x20 DUP3 DUP5 SUB SLT ISZERO PUSH2 0x23E1 JUMPI PUSH2 0x23E0 PUSH2 0x1FCC JUMP JUMPDEST JUMPDEST PUSH0 DUP3 ADD CALLDATALOAD PUSH8 0xFFFFFFFFFFFFFFFF DUP2 GT ISZERO PUSH2 0x23FE JUMPI PUSH2 0x23FD PUSH2 0x1FD0 JUMP JUMPDEST JUMPDEST PUSH2 0x240A DUP5 DUP3 DUP6 ADD PUSH2 0x239F JUMP JUMPDEST SWAP2 POP POP SWAP3 SWAP2 POP POP JUMP JUMPDEST PUSH32 0x4E487B7100000000000000000000000000000000000000000000000000000000 PUSH0 MSTORE PUSH1 0x21 PUSH1 0x4 MSTORE PUSH1 0x24 PUSH0 REVERT JUMPDEST PUSH1 0x5 DUP2 LT PUSH2 0x2451 JUMPI PUSH2 0x2450 PUSH2 0x2413 JUMP JUMPDEST JUMPDEST POP JUMP JUMPDEST PUSH0 DUP2 SWAP1 POP PUSH2 0x2461 DUP3 PUSH2 0x2440 JUMP JUMPDEST SWAP2 SWAP1 POP JUMP JUMPDEST PUSH0 PUSH2 0x2470 DUP3 PUSH2 0x2454 JUMP JUMPDEST SWAP1 POP SWAP2 SWAP1 POP JUMP JUMPDEST PUSH2 0x2480 DUP2 PUSH2 0x2466 JUMP JUMPDEST DUP3 MSTORE POP POP JUMP JUMPDEST PUSH0 PUSH1 0x20 DUP3 ADD SWAP1 POP PUSH2 0x2499 PUSH0 DUP4 ADD DUP5 PUSH2 0x2477 JUMP JUMPDEST SWAP3 SWAP2 POP POP JUMP JUMPDEST PUSH0 PUSH1 0xA0 DUP3 ADD SWAP1 POP PUSH2 0x24B2 PUSH0 DUP4 ADD DUP9 PUSH2 0x1F27 JUMP JUMPDEST PUSH2 0x24BF PUSH1 0x20 DUP4 ADD DUP8 PUSH2 0x2034 JUMP JUMPDEST PUSH2 0x24CC PUSH1 0x40 DUP4 ADD DUP7 PUSH2 0x2034 JUMP JUMPDEST PUSH2 0x24D9 PUSH1 0x60 DUP4 ADD DUP6 PUSH2 0x1F27 JUMP JUMPDEST DUP2 DUP2 SUB PUSH1 0x80 DUP4 ADD MSTORE PUSH2 0x24EB DUP2 DUP5 PUSH2 0x2094 JUMP JUMPDEST SWAP1 POP SWAP7 SWAP6 POP POP POP POP POP POP JUMP JUMPDEST PUSH32 0x4E487B7100000000000000000000000000000000000000000000000000000000 PUSH0 MSTORE PUSH1 0x32 PUSH1 0x4 MSTORE PUSH1 0x24 PUSH0 REVERT JUMPDEST PUSH32 0x416C72656164792072656C656173656400000000000000000000000000000000 PUSH0 DUP3 ADD MSTORE POP JUMP JUMPDEST PUSH0 PUSH2 0x2558 PUSH1 0x10 DUP4 PUSH2 0x2066 JUMP JUMPDEST SWAP2 POP PUSH2 0x2563 DUP3 PUSH2 0x2524 JUMP JUMPDEST PUSH1 0x20 DUP3 ADD SWAP1 POP SWAP2 SWAP1 POP JUMP JUMPDEST PUSH0 PUSH1 0x20 DUP3 ADD SWAP1 POP DUP2 DUP2 SUB PUSH0 DUP4 ADD MSTORE PUSH2 0x2585 DUP2 PUSH2 0x254C JUMP JUMPDEST SWAP1 POP SWAP2 SWAP1 POP JUMP JUMPDEST PUSH32 0x4D696C6573746F6E652063616E63656C6C656400000000000000000000000000 PUSH0 DUP3 ADD MSTORE POP JUMP JUMPDEST PUSH0 PUSH2 0x25C0 PUSH1 0x13 DUP4 PUSH2 0x2066 JUMP JUMPDEST SWAP2 POP PUSH2 0x25CB DUP3 PUSH2 0x258C JUMP JUMPDEST PUSH1 0x20 DUP3 ADD SWAP1 POP SWAP2 SWAP1 POP JUMP JUMPDEST PUSH0 PUSH1 0x20 DUP3 ADD SWAP1 POP DUP2 DUP2 SUB PUSH0 DUP4 ADD MSTORE PUSH2 0x25ED DUP2 PUSH2 0x25B4 JUMP JUMPDEST SWAP1 POP SWAP2 SWAP1 POP JUMP JUMPDEST PUSH32 0x446561646C696E65207061737365640000000000000000000000000000000000 PUSH0 DUP3 ADD MSTORE POP JUMP JUMPDEST PUSH0 PUSH2 0x2628 PUSH1 0xF DUP4 PUSH2 0x2066 JUMP JUMPDEST SWAP2 POP PUSH2 0x2633 DUP3 PUSH2 0x25F4 JUMP JUMPDEST PUSH1 0x20 DUP3 ADD SWAP1 POP SWAP2 SWAP1 POP JUMP JUMPDEST PUSH0 PUSH1 0x20 DUP3 ADD SWAP1 POP DUP2 DUP2 SUB PUSH0 DUP4 ADD MSTORE PUSH2 0x2655 DUP2 PUSH2 0x261C JUMP JUMPDEST SWAP1 POP SWAP2 SWAP1 POP JUMP JUMPDEST PUSH32 0x4E487B7100000000000000000000000000000000000000000000000000000000 PUSH0 MSTORE PUSH1 0x11 PUSH1 0x4 MSTORE PUSH1 0x24 PUSH0 REVERT JUMPDEST PUSH0 PUSH2 0x2693 DUP3 PUSH2 0x1F1E JUMP JUMPDEST SWAP2 POP PUSH2 0x269E DUP4 PUSH2 0x1F1E JUMP JUMPDEST SWAP3 POP DUP3 DUP3 ADD SWAP1 POP DUP1 DUP3 GT ISZERO PUSH2 0x26B6 JUMPI PUSH2 0x26B5 PUSH2 0x265C JUMP JUMPDEST JUMPDEST SWAP3 SWAP2 POP POP JUMP JUMPDEST PUSH32 0x4E487B7100000000000000000000000000000000000000000000000000000000 PUSH0 MSTORE PUSH1 0x22 PUSH1 0x4 MSTORE PUSH1 0x24 PUSH0 REVERT JUMPDEST PUSH0 PUSH1 0x2 DUP3 DIV SWAP1 POP PUSH1 0x1 DUP3 AND DUP1 PUSH2 0x2700 JUMPI PUSH1 0x7F DUP3 AND SWAP2 POP JUMPDEST PUSH1 0x20 DUP3 LT DUP2 SUB PUSH2 0x2713 JUMPI PUSH2 0x2712 PUSH2 0x26BC JUMP JUMPDEST JUMPDEST POP SWAP2 SWAP1 POP JUMP JUMPDEST PUSH0 DUP2 MLOAD SWAP1 POP PUSH2 0x2727 DUP2 PUSH2 0x1FD4 JUMP JUMPDEST SWAP3 SWAP2 POP POP JUMP JUMPDEST PUSH0 PUSH1 0x20 DUP3 DUP5 SUB SLT ISZERO PUSH2 0x2742 JUMPI PUSH2 0x2741 PUSH2 0x1FCC JUMP JUMPDEST JUMPDEST PUSH0 PUSH2 0x274F DUP5 DUP3 DUP6 ADD PUSH2 0x2719 JUMP JUMPDEST SWAP2 POP POP SWAP3 SWAP2 POP POP JUMP JUMPDEST PUSH32 0x4E6F7420617574686F72697A6564000000000000000000000000000000000000 PUSH0 DUP3 ADD MSTORE POP JUMP JUMPDEST PUSH0 PUSH2 0x278C PUSH1 0xE DUP4 PUSH2 0x2066 JUMP JUMPDEST SWAP2 POP PUSH2 0x2797 DUP3 PUSH2 0x2758 JUMP JUMPDEST PUSH1 0x20 DUP3 ADD SWAP1 POP SWAP2 SWAP1 POP JUMP JUMPDEST PUSH0 PUSH1 0x20 DUP3 ADD SWAP1 POP DUP2 DUP2 SUB PUSH0 DUP4 ADD MSTORE PUSH2 0x27B9 DUP2 PUSH2 0x2780 JUMP JUMPDEST SWAP1 POP SWAP2 SWAP1 POP JUMP JUMPDEST PUSH32 0x33302064617973206E6F74207061737365640000000000000000000000000000 PUSH0 DUP3 ADD MSTORE POP JUMP JUMPDEST PUSH0 PUSH2 0x27F4 PUSH1 0x12 DUP4 PUSH2 0x2066 JUMP JUMPDEST SWAP2 POP PUSH2 0x27FF DUP3 PUSH2 0x27C0 JUMP JUMPDEST PUSH1 0x20 DUP3 ADD SWAP1 POP SWAP2 SWAP1 POP JUMP JUMPDEST PUSH0 PUSH1 0x20 DUP3 ADD SWAP1 POP DUP2 DUP2 SUB PUSH0 DUP4 ADD MSTORE PUSH2 0x2821 DUP2 PUSH2 0x27E8 JUMP JUMPDEST SWAP1 POP SWAP2 SWAP1 POP JUMP JUMPDEST PUSH32 0x416C72656164792063616E63656C6C6564000000000000000000000000000000 PUSH0 DUP3 ADD MSTORE POP JUMP JUMPDEST PUSH0 PUSH2 0x285C PUSH1 0x11 DUP4 PUSH2 0x2066 JUMP JUMPDEST SWAP2 POP PUSH2 0x2867 DUP3 PUSH2 0x2828 JUMP JUMPDEST PUSH1 0x20 DUP3 ADD SWAP1 POP SWAP2 SWAP1 POP JUMP JUMPDEST PUSH0 PUSH1 0x20 DUP3 ADD SWAP1 POP DUP2 DUP2 SUB PUSH0 DUP4 ADD MSTORE PUSH2 0x2889 DUP2 PUSH2 0x2850 JUMP JUMPDEST SWAP1 POP SWAP2 SWAP1 POP JUMP JUMPDEST PUSH32 0x4E6F20646561646C696E65207365740000000000000000000000000000000000 PUSH0 DUP3 ADD MSTORE POP JUMP JUMPDEST PUSH0 PUSH2 0x28C4 PUSH1 0xF DUP4 PUSH2 0x2066 JUMP JUMPDEST SWAP2 POP PUSH2 0x28CF DUP3 PUSH2 0x2890 JUMP JUMPDEST PUSH1 0x20 DUP3 ADD SWAP1 POP SWAP2 SWAP1 POP JUMP JUMPDEST PUSH0 PUSH1 0x20 DUP3 ADD SWAP1 POP DUP2 DUP2 SUB PUSH0 DUP4 ADD MSTORE PUSH2 0x28F1 DUP2 PUSH2 0x28B8 JUMP JUMPDEST SWAP1 POP SWAP2 SWAP1 POP JUMP JUMPDEST PUSH32 0x446561646C696E65206E6F742070617373656400000000000000000000000000 PUSH0 DUP3 ADD MSTORE POP JUMP JUMPDEST PUSH0 PUSH2 0x292C PUSH1 0x13 DUP4 PUSH2 0x2066 JUMP JUMPDEST SWAP2 POP PUSH2 0x2937 DUP3 PUSH2 0x28F8 JUMP JUMPDEST PUSH1 0x20 DUP3 ADD SWAP1 POP SWAP2 SWAP1 POP JUMP JUMPDEST PUSH0 PUSH1 0x20 DUP3 ADD SWAP1 POP DUP2 DUP2 SUB PUSH0 DUP4 ADD MSTORE PUSH2 0x2959 DUP2 PUSH2 0x2920 JUMP JUMPDEST SWAP1 POP SWAP2 SWAP1 POP JUMP JUMPDEST PUSH32 0x5265656E7472616E637947756172643A207265656E7472616E742063616C6C00 PUSH0 DUP3 ADD MSTORE POP JUMP JUMPDEST PUSH0 PUSH2 0x2994 PUSH1 0x1F DUP4 PUSH2 0x2066 JUMP JUMPDEST SWAP2 POP PUSH2 0x299F DUP3 PUSH2 0x2960 JUMP JUMPDEST PUSH1 0x20 DUP3 ADD SWAP1 POP SWAP2 SWAP1 POP JUMP JUMPDEST PUSH0 PUSH1 0x20 DUP3 ADD SWAP1 POP DUP2 DUP2 SUB PUSH0 DUP4 ADD MSTORE PUSH2 0x29C1 DUP2 PUSH2 0x2988 JUMP JUMPDEST SWAP1 POP SWAP2 SWAP1 POP JUMP JUMPDEST PUSH0 PUSH1 0x40 DUP3 ADD SWAP1 POP PUSH2 0x29DB PUSH0 DUP4 ADD DUP6 PUSH2 0x1EF6 JUMP JUMPDEST PUSH2 0x29E8 PUSH1 0x20 DUP4 ADD DUP5 PUSH2 0x1F27 JUMP JUMPDEST SWAP4 SWAP3 POP POP POP JUMP JUMPDEST PUSH0 PUSH1 0x60 DUP3 ADD SWAP1 POP PUSH2 0x2A02 PUSH0 DUP4 ADD DUP7 PUSH2 0x1EF6 JUMP JUMPDEST PUSH2 0x2A0F PUSH1 0x20 DUP4 ADD DUP6 PUSH2 0x1EF6 JUMP JUMPDEST PUSH2 0x2A1C PUSH1 0x40 DUP4 ADD DUP5 PUSH2 0x1F27 JUMP JUMPDEST SWAP5 SWAP4 POP POP POP POP JUMP INVALID LOG2 PUSH5 0x6970667358 0x22 SLT KECCAK256 NOT LOG4 0x2B PUSH25 0x9A5ECC11285AC63BDCFF7AF63C4A08F20E48AFF25617D9ADA9 LOG1 0xF6 PUSH0 PUSH5 0x736F6C6343 STOP ADDMOD 0x1E STOP CALLER "
				},
				"gasEstimates": {
					"creation": {
						"codeDepositCost": "2168400",
						"executionCost": "infinite",
						"totalCost": "infinite"
					},
					"external": {
						"cancelMilestone(uint256)": "infinite",
						"cancelProject()": "infinite",
						"developer()": "infinite",
						"disputeRaisedAt()": "2469",
						"fund()": "infinite",
						"funder()": "infinite",
						"getContractBalance()": "infinite",
						"getMilestones()": "infinite",
						"getRemainingBalance()": "infinite",
						"getStatus()": "infinite",
						"isDisputeExpired()": "infinite",
						"milestoneCount()": "2486",
						"milestones(uint256)": "infinite",
						"paymentToken()": "infinite",
						"raiseDispute(string)": "infinite",
						"releaseMilestone(uint256)": "infinite",
						"releasedAmount()": "2514",
						"resolveDisputeToDeveloper()": "infinite",
						"resolveDisputeToFunder()": "infinite",
						"state()": "2620",
						"totalAmount()": "2493"
					},
					"internal": {
						"_checkCancellation()": "infinite",
						"_checkCompletion()": "infinite",
						"_getRemainingBalance()": "infinite"
					}
				},
				"methodIdentifiers": {
					"cancelMilestone(uint256)": "f75fdcaa",
					"cancelProject()": "1adff0ee",
					"developer()": "ca4b208b",
					"disputeRaisedAt()": "b95d8dd4",
					"fund()": "b60d4288",
					"funder()": "041ae880",
					"getContractBalance()": "6f9fb98a",
					"getMilestones()": "629e4ed0",
					"getRemainingBalance()": "2fba2c85",
					"getStatus()": "4e69d560",
					"isDisputeExpired()": "3ddb47b4",
					"milestoneCount()": "0681ca55",
					"milestones(uint256)": "e89e4ed6",
					"paymentToken()": "3013ce29",
					"raiseDispute(string)": "725a3b4b",
					"releaseMilestone(uint256)": "317debf5",
					"releasedAmount()": "45d30a17",
					"resolveDisputeToDeveloper()": "b4f5a711",
					"resolveDisputeToFunder()": "5ac482d1",
					"state()": "c19d93fb",
					"totalAmount()": "1a39d8ef"
				}
			},
			"storageLayout": {
				"storage": [
					{
						"astId": 100,
						"contract": "Contracts/Funding.sol:SimpleMilestoneEscrow",
						"label": "_status",
						"offset": 0,
						"slot": "0",
						"type": "t_uint256"
					},
					{
						"astId": 767,
						"contract": "Contracts/Funding.sol:SimpleMilestoneEscrow",
						"label": "state",
						"offset": 0,
						"slot": "1",
						"type": "t_enum(ProjectState)746"
					},
					{
						"astId": 769,
						"contract": "Contracts/Funding.sol:SimpleMilestoneEscrow",
						"label": "totalAmount",
						"offset": 0,
						"slot": "2",
						"type": "t_uint256"
					},
					{
						"astId": 771,
						"contract": "Contracts/Funding.sol:SimpleMilestoneEscrow",
						"label": "releasedAmount",
						"offset": 0,
						"slot": "3",
						"type": "t_uint256"
					},
					{
						"astId": 775,
						"contract": "Contracts/Funding.sol:SimpleMilestoneEscrow",
						"label": "milestones",
						"offset": 0,
						"slot": "4",
						"type": "t_array(t_struct(Milestone)757_storage)dyn_storage"
					},
					{
						"astId": 777,
						"contract": "Contracts/Funding.sol:SimpleMilestoneEscrow",
						"label": "disputeRaisedAt",
						"offset": 0,
						"slot": "5",
						"type": "t_uint256"
					}
				],
				"types": {
					"t_array(t_struct(Milestone)757_storage)dyn_storage": {
						"base": "t_struct(Milestone)757_storage",
						"encoding": "dynamic_array",
						"label": "struct SimpleMilestoneEscrow.Milestone[]",
						"numberOfBytes": "32"
					},
					"t_bool": {
						"encoding": "inplace",
						"label": "bool",
						"numberOfBytes": "1"
					},
					"t_enum(ProjectState)746": {
						"encoding": "inplace",
						"label": "enum SimpleMilestoneEscrow.ProjectState",
						"numberOfBytes": "1"
					},
					"t_string_storage": {
						"encoding": "bytes",
						"label": "string",
						"numberOfBytes": "32"
					},
					"t_struct(Milestone)757_storage": {
						"encoding": "inplace",
						"label": "struct SimpleMilestoneEscrow.Milestone",
						"members": [
							{
								"astId": 748,
								"contract": "Contracts/Funding.sol:SimpleMilestoneEscrow",
								"label": "amount",
								"offset": 0,
								"slot": "0",
								"type": "t_uint256"
							},
							{
								"astId": 750,
								"contract": "Contracts/Funding.sol:SimpleMilestoneEscrow",
								"label": "released",
								"offset": 0,
								"slot": "1",
								"type": "t_bool"
							},
							{
								"astId": 752,
								"contract": "Contracts/Funding.sol:SimpleMilestoneEscrow",
								"label": "cancelled",
								"offset": 1,
								"slot": "1",
								"type": "t_bool"
							},
							{
								"astId": 754,
								"contract": "Contracts/Funding.sol:SimpleMilestoneEscrow",
								"label": "deadline",
								"offset": 0,
								"slot": "2",
								"type": "t_uint256"
							},
							{
								"astId": 756,
								"contract": "Contracts/Funding.sol:SimpleMilestoneEscrow",
								"label": "description",
								"offset": 0,
								"slot": "3",
								"type": "t_string_storage"
							}
						],
						"numberOfBytes": "128"
					},
					"t_uint256": {
						"encoding": "inplace",
						"label": "uint256",
						"numberOfBytes": "32"
					}
				}
			},
			"userdoc": {
				"kind": "user",
				"methods": {
					"cancelMilestone(uint256)": {
						"notice": "Cancel a milestone after deadline"
					},
					"cancelProject()": {
						"notice": "Cancel the project and refund all remaining funds"
					},
					"constructor": {
						"notice": "Deploy a new escrow contract"
					},
					"fund()": {
						"notice": "Fund the escrow with tokens"
					},
					"getContractBalance()": {
						"notice": "Get contract balance"
					},
					"getMilestones()": {
						"notice": "Get all milestones"
					},
					"getRemainingBalance()": {
						"notice": "Get remaining balance"
					},
					"getStatus()": {
						"notice": "Get project status as string"
					},
					"isDisputeExpired()": {
						"notice": "Check if dispute is expired"
					},
					"milestoneCount()": {
						"notice": "Get milestone count"
					},
					"raiseDispute(string)": {
						"notice": "Raise a dispute"
					},
					"releaseMilestone(uint256)": {
						"notice": "Release a milestone payment to developer"
					},
					"resolveDisputeToDeveloper()": {
						"notice": "Resolve dispute by releasing to developer (after 30 days)"
					},
					"resolveDisputeToFunder()": {
						"notice": "Resolve dispute by refunding to funder"
					}
				},
				"notice": "A simple escrow contract between a funder and developer with milestones",
				"version": 1
			}
		}
	}
}