{
	"Contracts/ProjectRegister.sol": {
		"ProjectRegistry": {
			"abi": [
				{
					"anonymous": false,
					"inputs": [
						{
							"indexed": true,
							"internalType": "uint256",
							"name": "projectId",
							"type": "uint256"
						},
						{
							"indexed": false,
							"internalType": "string",
							"name": "newMetadataCID",
							"type": "string"
						}
					],
					"name": "ProjectMetadataUpdated",
					"type": "event"
				},
				{
					"anonymous": false,
					"inputs": [
						{
							"indexed": true,
							"internalType": "uint256",
							"name": "projectId",
							"type": "uint256"
						},
						{
							"indexed": true,
							"internalType": "address",
							"name": "builder",
							"type": "address"
						},
						{
							"indexed": false,
							"internalType": "string",
							"name": "metadataCID",
							"type": "string"
						}
					],
					"name": "ProjectRegistered",
					"type": "event"
				},
				{
					"anonymous": false,
					"inputs": [
						{
							"indexed": true,
							"internalType": "uint256",
							"name": "projectId",
							"type": "uint256"
						},
						{
							"indexed": false,
							"internalType": "uint8",
							"name": "oldStatus",
							"type": "uint8"
						},
						{
							"indexed": false,
							"internalType": "uint8",
							"name": "newStatus",
							"type": "uint8"
						}
					],
					"name": "ProjectStatusUpdated",
					"type": "event"
				},
				{
					"inputs": [
						{
							"internalType": "uint256",
							"name": "projectId",
							"type": "uint256"
						}
					],
					"name": "getProject",
					"outputs": [
						{
							"internalType": "address",
							"name": "builder",
							"type": "address"
						},
						{
							"internalType": "string",
							"name": "metadataCID",
							"type": "string"
						},
						{
							"internalType": "enum ProjectRegistry.Status",
							"name": "status",
							"type": "uint8"
						}
					],
					"stateMutability": "view",
					"type": "function"
				},
				{
					"inputs": [],
					"name": "nextProjectId",
					"outputs": [
						{
							"internalType": "uint256",
							"name": "",
							"type": "uint256"
						}
					],
					"stateMutability": "view",
					"type": "function"
				},
				{
					"inputs": [
						{
							"internalType": "string",
							"name": "metadataCID",
							"type": "string"
						}
					],
					"name": "registerProject",
					"outputs": [
						{
							"internalType": "uint256",
							"name": "",
							"type": "uint256"
						}
					],
					"stateMutability": "nonpayable",
					"type": "function"
				},
				{
					"inputs": [
						{
							"internalType": "uint256",
							"name": "projectId",
							"type": "uint256"
						},
						{
							"internalType": "string",
							"name": "newMetadataCID",
							"type": "string"
						}
					],
					"name": "updateProjectMetadata",
					"outputs": [],
					"stateMutability": "nonpayable",
					"type": "function"
				},
				{
					"inputs": [
						{
							"internalType": "uint256",
							"name": "projectId",
							"type": "uint256"
						},
						{
							"internalType": "enum ProjectRegistry.Status",
							"name": "newStatus",
							"type": "uint8"
						}
					],
					"name": "updateProjectStatus",
					"outputs": [],
					"stateMutability": "nonpayable",
					"type": "function"
				}
			],
			"devdoc": {
				"kind": "dev",
				"methods": {},
				"version": 1
			},
			"evm": {
				"assembly": "    /* \"Contracts/ProjectRegister.sol\":61:3469  contract ProjectRegistry {... */\n  mstore(0x40, 0x80)\n  callvalue\n  dup1\n  iszero\n  tag_1\n  jumpi\n  revert(0x00, 0x00)\ntag_1:\n  pop\n  dataSize(sub_0)\n  dup1\n  dataOffset(sub_0)\n  0x00\n  codecopy\n  0x00\n  return\nstop\n\nsub_0: assembly {\n        /* \"Contracts/ProjectRegister.sol\":61:3469  contract ProjectRegistry {... */\n      mstore(0x40, 0x80)\n      callvalue\n      dup1\n      iszero\n      tag_1\n      jumpi\n      revert(0x00, 0x00)\n    tag_1:\n      pop\n      jumpi(tag_2, lt(calldatasize, 0x04))\n      shr(0xe0, calldataload(0x00))\n      dup1\n      0x72212ec7\n      eq\n      tag_3\n      jumpi\n      dup1\n      0x91546c34\n      eq\n      tag_4\n      jumpi\n      dup1\n      0xd11d498b\n      eq\n      tag_5\n      jumpi\n      dup1\n      0xe935b7b1\n      eq\n      tag_6\n      jumpi\n      dup1\n      0xf0f3f2c8\n      eq\n      tag_7\n      jumpi\n    tag_2:\n      revert(0x00, 0x00)\n        /* \"Contracts/ProjectRegister.sol\":1325:1741  function registerProject(string calldata metadataCID) external returns (uint256) {... */\n    tag_3:\n      tag_8\n      0x04\n      dup1\n      calldatasize\n      sub\n      dup2\n      add\n      swap1\n      tag_9\n      swap2\n      swap1\n      tag_10\n      jump\t// in\n    tag_9:\n      tag_11\n      jump\t// in\n    tag_8:\n      mload(0x40)\n      tag_12\n      swap2\n      swap1\n      tag_13\n      jump\t// in\n    tag_12:\n      mload(0x40)\n      dup1\n      swap2\n      sub\n      swap1\n      return\n        /* \"Contracts/ProjectRegister.sol\":1834:2213  function updateProjectMetadata(uint256 projectId, string calldata newMetadataCID) ... */\n    tag_4:\n      tag_14\n      0x04\n      dup1\n      calldatasize\n      sub\n      dup2\n      add\n      swap1\n      tag_15\n      swap2\n      swap1\n      tag_16\n      jump\t// in\n    tag_15:\n      tag_17\n      jump\t// in\n    tag_14:\n      stop\n        /* \"Contracts/ProjectRegister.sol\":2278:3108  function updateProjectStatus(uint256 projectId, Status newStatus) ... */\n    tag_5:\n      tag_18\n      0x04\n      dup1\n      calldatasize\n      sub\n      dup2\n      add\n      swap1\n      tag_19\n      swap2\n      swap1\n      tag_20\n      jump\t// in\n    tag_19:\n      tag_21\n      jump\t// in\n    tag_18:\n      stop\n        /* \"Contracts/ProjectRegister.sol\":655:683  uint256 public nextProjectId */\n    tag_6:\n      tag_22\n      tag_23\n      jump\t// in\n    tag_22:\n      mload(0x40)\n      tag_24\n      swap2\n      swap1\n      tag_13\n      jump\t// in\n    tag_24:\n      mload(0x40)\n      dup1\n      swap2\n      sub\n      swap1\n      return\n        /* \"Contracts/ProjectRegister.sol\":3151:3466  function getProject(uint256 projectId) ... */\n    tag_7:\n      tag_25\n      0x04\n      dup1\n      calldatasize\n      sub\n      dup2\n      add\n      swap1\n      tag_26\n      swap2\n      swap1\n      tag_27\n      jump\t// in\n    tag_26:\n      tag_28\n      jump\t// in\n    tag_25:\n      mload(0x40)\n      tag_29\n      swap4\n      swap3\n      swap2\n      swap1\n      tag_30\n      jump\t// in\n    tag_29:\n      mload(0x40)\n      dup1\n      swap2\n      sub\n      swap1\n      return\n        /* \"Contracts/ProjectRegister.sol\":1325:1741  function registerProject(string calldata metadataCID) external returns (uint256) {... */\n    tag_11:\n        /* \"Contracts/ProjectRegister.sol\":1397:1404  uint256 */\n      0x00\n        /* \"Contracts/ProjectRegister.sol\":1417:1434  uint256 projectId */\n      0x00\n        /* \"Contracts/ProjectRegister.sol\":1437:1450  nextProjectId */\n      sload(0x00)\n        /* \"Contracts/ProjectRegister.sol\":1417:1450  uint256 projectId = nextProjectId */\n      swap1\n      pop\n        /* \"Contracts/ProjectRegister.sol\":1483:1611  Project({... */\n      mload(0x40)\n      dup1\n      0x60\n      add\n      0x40\n      mstore\n      dup1\n        /* \"Contracts/ProjectRegister.sol\":1515:1525  msg.sender */\n      caller\n        /* \"Contracts/ProjectRegister.sol\":1483:1611  Project({... */\n      0xffffffffffffffffffffffffffffffffffffffff\n      and\n      dup2\n      mstore\n      0x20\n      add\n        /* \"Contracts/ProjectRegister.sol\":1553:1564  metadataCID */\n      dup6\n      dup6\n        /* \"Contracts/ProjectRegister.sol\":1483:1611  Project({... */\n      dup1\n      dup1\n      0x1f\n      add\n      0x20\n      dup1\n      swap2\n      div\n      mul\n      0x20\n      add\n      mload(0x40)\n      swap1\n      dup2\n      add\n      0x40\n      mstore\n      dup1\n      swap4\n      swap3\n      swap2\n      swap1\n      dup2\n      dup2\n      mstore\n      0x20\n      add\n      dup4\n      dup4\n      dup1\n      dup3\n      dup5\n      calldatacopy\n      0x00\n      dup2\n      dup5\n      add\n      mstore\n      not(0x1f)\n      0x1f\n      dup3\n      add\n      and\n      swap1\n      pop\n      dup1\n      dup4\n      add\n      swap3\n      pop\n      pop\n      pop\n      pop\n      pop\n      pop\n      pop\n      dup2\n      mstore\n      0x20\n      add\n        /* \"Contracts/ProjectRegister.sol\":1587:1599  Status.Draft */\n      0x00\n        /* \"Contracts/ProjectRegister.sol\":1483:1611  Project({... */\n      0x03\n      dup2\n      gt\n      iszero\n      tag_32\n      jumpi\n      tag_33\n      tag_34\n      jump\t// in\n    tag_33:\n    tag_32:\n      dup2\n      mstore\n      pop\n        /* \"Contracts/ProjectRegister.sol\":1461:1469  projects */\n      0x01\n        /* \"Contracts/ProjectRegister.sol\":1461:1480  projects[projectId] */\n      0x00\n        /* \"Contracts/ProjectRegister.sol\":1470:1479  projectId */\n      dup4\n        /* \"Contracts/ProjectRegister.sol\":1461:1480  projects[projectId] */\n      dup2\n      mstore\n      0x20\n      add\n      swap1\n      dup2\n      mstore\n      0x20\n      add\n      0x00\n      keccak256\n        /* \"Contracts/ProjectRegister.sol\":1461:1611  projects[projectId] = Project({... */\n      0x00\n      dup3\n      add\n      mload\n      dup2\n      0x00\n      add\n      exp(0x0100, 0x00)\n      dup2\n      sload\n      dup2\n      0xffffffffffffffffffffffffffffffffffffffff\n      mul\n      not\n      and\n      swap1\n      dup4\n      0xffffffffffffffffffffffffffffffffffffffff\n      and\n      mul\n      or\n      swap1\n      sstore\n      pop\n      0x20\n      dup3\n      add\n      mload\n      dup2\n      0x01\n      add\n      swap1\n      dup2\n      tag_35\n      swap2\n      swap1\n      tag_36\n      jump\t// in\n    tag_35:\n      pop\n      0x40\n      dup3\n      add\n      mload\n      dup2\n      0x02\n      add\n      exp(0x0100, 0x00)\n      dup2\n      sload\n      dup2\n      0xff\n      mul\n      not\n      and\n      swap1\n      dup4\n      0x03\n      dup2\n      gt\n      iszero\n      tag_37\n      jumpi\n      tag_38\n      tag_34\n      jump\t// in\n    tag_38:\n    tag_37:\n      mul\n      or\n      swap1\n      sstore\n      pop\n      swap1\n      pop\n      pop\n        /* \"Contracts/ProjectRegister.sol\":1622:1635  nextProjectId */\n      0x00\n      0x00\n        /* \"Contracts/ProjectRegister.sol\":1622:1637  nextProjectId++ */\n      dup2\n      sload\n      dup1\n      swap3\n      swap2\n      swap1\n      tag_39\n      swap1\n      tag_40\n      jump\t// in\n    tag_39:\n      swap2\n      swap1\n      pop\n      sstore\n      pop\n        /* \"Contracts/ProjectRegister.sol\":1682:1692  msg.sender */\n      caller\n        /* \"Contracts/ProjectRegister.sol\":1653:1706  ProjectRegistered(projectId, msg.sender, metadataCID) */\n      0xffffffffffffffffffffffffffffffffffffffff\n      and\n        /* \"Contracts/ProjectRegister.sol\":1671:1680  projectId */\n      dup2\n        /* \"Contracts/ProjectRegister.sol\":1653:1706  ProjectRegistered(projectId, msg.sender, metadataCID) */\n      0x1fb4423aed62bba3e66f7c81a4af273642c7e8c57d7b111ae2b1aca9887869ba\n        /* \"Contracts/ProjectRegister.sol\":1694:1705  metadataCID */\n      dup7\n      dup7\n        /* \"Contracts/ProjectRegister.sol\":1653:1706  ProjectRegistered(projectId, msg.sender, metadataCID) */\n      mload(0x40)\n      tag_41\n      swap3\n      swap2\n      swap1\n      tag_42\n      jump\t// in\n    tag_41:\n      mload(0x40)\n      dup1\n      swap2\n      sub\n      swap1\n      log3\n        /* \"Contracts/ProjectRegister.sol\":1724:1733  projectId */\n      dup1\n        /* \"Contracts/ProjectRegister.sol\":1717:1733  return projectId */\n      swap2\n      pop\n      pop\n        /* \"Contracts/ProjectRegister.sol\":1325:1741  function registerProject(string calldata metadataCID) external returns (uint256) {... */\n      swap3\n      swap2\n      pop\n      pop\n      jump\t// out\n        /* \"Contracts/ProjectRegister.sol\":1834:2213  function updateProjectMetadata(uint256 projectId, string calldata newMetadataCID) ... */\n    tag_17:\n        /* \"Contracts/ProjectRegister.sol\":1958:1967  projectId */\n      dup3\n        /* \"Contracts/ProjectRegister.sol\":993:1006  nextProjectId */\n      sload(0x00)\n        /* \"Contracts/ProjectRegister.sol\":981:990  projectId */\n      dup2\n        /* \"Contracts/ProjectRegister.sol\":981:1006  projectId < nextProjectId */\n      lt\n        /* \"Contracts/ProjectRegister.sol\":973:1029  require(projectId < nextProjectId, \"Invalid project ID\") */\n      tag_44\n      jumpi\n      mload(0x40)\n      0x08c379a000000000000000000000000000000000000000000000000000000000\n      dup2\n      mstore\n      0x04\n      add\n      tag_45\n      swap1\n      tag_46\n      jump\t// in\n    tag_45:\n      mload(0x40)\n      dup1\n      swap2\n      sub\n      swap1\n      revert\n    tag_44:\n        /* \"Contracts/ProjectRegister.sol\":1991:2000  projectId */\n      dup4\n        /* \"Contracts/ProjectRegister.sol\":859:869  msg.sender */\n      caller\n        /* \"Contracts/ProjectRegister.sol\":828:869  projects[projectId].builder == msg.sender */\n      0xffffffffffffffffffffffffffffffffffffffff\n      and\n        /* \"Contracts/ProjectRegister.sol\":828:836  projects */\n      0x01\n        /* \"Contracts/ProjectRegister.sol\":828:847  projects[projectId] */\n      0x00\n        /* \"Contracts/ProjectRegister.sol\":837:846  projectId */\n      dup4\n        /* \"Contracts/ProjectRegister.sol\":828:847  projects[projectId] */\n      dup2\n      mstore\n      0x20\n      add\n      swap1\n      dup2\n      mstore\n      0x20\n      add\n      0x00\n      keccak256\n        /* \"Contracts/ProjectRegister.sol\":828:855  projects[projectId].builder */\n      0x00\n      add\n      0x00\n      swap1\n      sload\n      swap1\n      0x0100\n      exp\n      swap1\n      div\n      0xffffffffffffffffffffffffffffffffffffffff\n      and\n        /* \"Contracts/ProjectRegister.sol\":828:869  projects[projectId].builder == msg.sender */\n      0xffffffffffffffffffffffffffffffffffffffff\n      and\n      eq\n        /* \"Contracts/ProjectRegister.sol\":820:893  require(projects[projectId].builder == msg.sender, \"Not project builder\") */\n      tag_48\n      jumpi\n      mload(0x40)\n      0x08c379a000000000000000000000000000000000000000000000000000000000\n      dup2\n      mstore\n      0x04\n      add\n      tag_49\n      swap1\n      tag_50\n      jump\t// in\n    tag_49:\n      mload(0x40)\n      dup1\n      swap2\n      sub\n      swap1\n      revert\n    tag_48:\n        /* \"Contracts/ProjectRegister.sol\":2027:2036  projectId */\n      dup5\n        /* \"Contracts/ProjectRegister.sol\":1150:1162  Status.Draft */\n      0x00\n        /* \"Contracts/ProjectRegister.sol\":1120:1162  projects[projectId].status == Status.Draft */\n      0x03\n      dup2\n      gt\n      iszero\n      tag_52\n      jumpi\n      tag_53\n      tag_34\n      jump\t// in\n    tag_53:\n    tag_52:\n        /* \"Contracts/ProjectRegister.sol\":1120:1128  projects */\n      0x01\n        /* \"Contracts/ProjectRegister.sol\":1120:1139  projects[projectId] */\n      0x00\n        /* \"Contracts/ProjectRegister.sol\":1129:1138  projectId */\n      dup4\n        /* \"Contracts/ProjectRegister.sol\":1120:1139  projects[projectId] */\n      dup2\n      mstore\n      0x20\n      add\n      swap1\n      dup2\n      mstore\n      0x20\n      add\n      0x00\n      keccak256\n        /* \"Contracts/ProjectRegister.sol\":1120:1146  projects[projectId].status */\n      0x02\n      add\n      0x00\n      swap1\n      sload\n      swap1\n      0x0100\n      exp\n      swap1\n      div\n      0xff\n      and\n        /* \"Contracts/ProjectRegister.sol\":1120:1162  projects[projectId].status == Status.Draft */\n      0x03\n      dup2\n      gt\n      iszero\n      tag_54\n      jumpi\n      tag_55\n      tag_34\n      jump\t// in\n    tag_55:\n    tag_54:\n      eq\n        /* \"Contracts/ProjectRegister.sol\":1112:1207  require(projects[projectId].status == Status.Draft, \"Can only update metadata in Draft status\") */\n      tag_56\n      jumpi\n      mload(0x40)\n      0x08c379a000000000000000000000000000000000000000000000000000000000\n      dup2\n      mstore\n      0x04\n      add\n      tag_57\n      swap1\n      tag_58\n      jump\t// in\n    tag_57:\n      mload(0x40)\n      dup1\n      swap2\n      sub\n      swap1\n      revert\n    tag_56:\n        /* \"Contracts/ProjectRegister.sol\":2054:2074  Project storage proj */\n      0x00\n        /* \"Contracts/ProjectRegister.sol\":2077:2085  projects */\n      0x01\n        /* \"Contracts/ProjectRegister.sol\":2077:2096  projects[projectId] */\n      0x00\n        /* \"Contracts/ProjectRegister.sol\":2086:2095  projectId */\n      dup9\n        /* \"Contracts/ProjectRegister.sol\":2077:2096  projects[projectId] */\n      dup2\n      mstore\n      0x20\n      add\n      swap1\n      dup2\n      mstore\n      0x20\n      add\n      0x00\n      keccak256\n        /* \"Contracts/ProjectRegister.sol\":2054:2096  Project storage proj = projects[projectId] */\n      swap1\n      pop\n        /* \"Contracts/ProjectRegister.sol\":2126:2140  newMetadataCID */\n      dup6\n      dup6\n        /* \"Contracts/ProjectRegister.sol\":2107:2111  proj */\n      dup3\n        /* \"Contracts/ProjectRegister.sol\":2107:2123  proj.metadataCID */\n      0x01\n      add\n        /* \"Contracts/ProjectRegister.sol\":2107:2140  proj.metadataCID = newMetadataCID */\n      swap2\n      dup3\n      tag_60\n      swap3\n      swap2\n      swap1\n      tag_61\n      jump\t// in\n    tag_60:\n      pop\n        /* \"Contracts/ProjectRegister.sol\":2179:2188  projectId */\n      dup7\n        /* \"Contracts/ProjectRegister.sol\":2156:2205  ProjectMetadataUpdated(projectId, newMetadataCID) */\n      0x2f6dd8c35b9f3b35c8dbe5478c90a7769dae232141bdc277b1938aaa59e5c8a4\n        /* \"Contracts/ProjectRegister.sol\":2190:2204  newMetadataCID */\n      dup8\n      dup8\n        /* \"Contracts/ProjectRegister.sol\":2156:2205  ProjectMetadataUpdated(projectId, newMetadataCID) */\n      mload(0x40)\n      tag_62\n      swap3\n      swap2\n      swap1\n      tag_42\n      jump\t// in\n    tag_62:\n      mload(0x40)\n      dup1\n      swap2\n      sub\n      swap1\n      log2\n        /* \"Contracts/ProjectRegister.sol\":2043:2213  {... */\n      pop\n        /* \"Contracts/ProjectRegister.sol\":904:905  _ */\n      pop\n        /* \"Contracts/ProjectRegister.sol\":1040:1041  _ */\n      pop\n        /* \"Contracts/ProjectRegister.sol\":1834:2213  function updateProjectMetadata(uint256 projectId, string calldata newMetadataCID) ... */\n      pop\n      pop\n      pop\n      pop\n      jump\t// out\n        /* \"Contracts/ProjectRegister.sol\":2278:3108  function updateProjectStatus(uint256 projectId, Status newStatus) ... */\n    tag_21:\n        /* \"Contracts/ProjectRegister.sol\":2386:2395  projectId */\n      dup2\n        /* \"Contracts/ProjectRegister.sol\":993:1006  nextProjectId */\n      sload(0x00)\n        /* \"Contracts/ProjectRegister.sol\":981:990  projectId */\n      dup2\n        /* \"Contracts/ProjectRegister.sol\":981:1006  projectId < nextProjectId */\n      lt\n        /* \"Contracts/ProjectRegister.sol\":973:1029  require(projectId < nextProjectId, \"Invalid project ID\") */\n      tag_64\n      jumpi\n      mload(0x40)\n      0x08c379a000000000000000000000000000000000000000000000000000000000\n      dup2\n      mstore\n      0x04\n      add\n      tag_65\n      swap1\n      tag_46\n      jump\t// in\n    tag_65:\n      mload(0x40)\n      dup1\n      swap2\n      sub\n      swap1\n      revert\n    tag_64:\n        /* \"Contracts/ProjectRegister.sol\":2419:2428  projectId */\n      dup3\n        /* \"Contracts/ProjectRegister.sol\":859:869  msg.sender */\n      caller\n        /* \"Contracts/ProjectRegister.sol\":828:869  projects[projectId].builder == msg.sender */\n      0xffffffffffffffffffffffffffffffffffffffff\n      and\n        /* \"Contracts/ProjectRegister.sol\":828:836  projects */\n      0x01\n        /* \"Contracts/ProjectRegister.sol\":828:847  projects[projectId] */\n      0x00\n        /* \"Contracts/ProjectRegister.sol\":837:846  projectId */\n      dup4\n        /* \"Contracts/ProjectRegister.sol\":828:847  projects[projectId] */\n      dup2\n      mstore\n      0x20\n      add\n      swap1\n      dup2\n      mstore\n      0x20\n      add\n      0x00\n      keccak256\n        /* \"Contracts/ProjectRegister.sol\":828:855  projects[projectId].builder */\n      0x00\n      add\n      0x00\n      swap1\n      sload\n      swap1\n      0x0100\n      exp\n      swap1\n      div\n      0xffffffffffffffffffffffffffffffffffffffff\n      and\n        /* \"Contracts/ProjectRegister.sol\":828:869  projects[projectId].builder == msg.sender */\n      0xffffffffffffffffffffffffffffffffffffffff\n      and\n      eq\n        /* \"Contracts/ProjectRegister.sol\":820:893  require(projects[projectId].builder == msg.sender, \"Not project builder\") */\n      tag_67\n      jumpi\n      mload(0x40)\n      0x08c379a000000000000000000000000000000000000000000000000000000000\n      dup2\n      mstore\n      0x04\n      add\n      tag_68\n      swap1\n      tag_50\n      jump\t// in\n    tag_68:\n      mload(0x40)\n      dup1\n      swap2\n      sub\n      swap1\n      revert\n    tag_67:\n        /* \"Contracts/ProjectRegister.sol\":2447:2467  Project storage proj */\n      0x00\n        /* \"Contracts/ProjectRegister.sol\":2470:2478  projects */\n      0x01\n        /* \"Contracts/ProjectRegister.sol\":2470:2489  projects[projectId] */\n      0x00\n        /* \"Contracts/ProjectRegister.sol\":2479:2488  projectId */\n      dup7\n        /* \"Contracts/ProjectRegister.sol\":2470:2489  projects[projectId] */\n      dup2\n      mstore\n      0x20\n      add\n      swap1\n      dup2\n      mstore\n      0x20\n      add\n      0x00\n      keccak256\n        /* \"Contracts/ProjectRegister.sol\":2447:2489  Project storage proj = projects[projectId] */\n      swap1\n      pop\n        /* \"Contracts/ProjectRegister.sol\":2500:2516  Status oldStatus */\n      0x00\n        /* \"Contracts/ProjectRegister.sol\":2519:2523  proj */\n      dup2\n        /* \"Contracts/ProjectRegister.sol\":2519:2530  proj.status */\n      0x02\n      add\n      0x00\n      swap1\n      sload\n      swap1\n      0x0100\n      exp\n      swap1\n      div\n      0xff\n      and\n        /* \"Contracts/ProjectRegister.sol\":2500:2530  Status oldStatus = proj.status */\n      swap1\n      pop\n        /* \"Contracts/ProjectRegister.sol\":2562:2571  oldStatus */\n      dup1\n        /* \"Contracts/ProjectRegister.sol\":2549:2571  newStatus != oldStatus */\n      0x03\n      dup2\n      gt\n      iszero\n      tag_70\n      jumpi\n      tag_71\n      tag_34\n      jump\t// in\n    tag_71:\n    tag_70:\n        /* \"Contracts/ProjectRegister.sol\":2549:2558  newStatus */\n      dup6\n        /* \"Contracts/ProjectRegister.sol\":2549:2571  newStatus != oldStatus */\n      0x03\n      dup2\n      gt\n      iszero\n      tag_72\n      jumpi\n      tag_73\n      tag_34\n      jump\t// in\n    tag_73:\n    tag_72:\n      sub\n        /* \"Contracts/ProjectRegister.sol\":2541:2592  require(newStatus != oldStatus, \"Status unchanged\") */\n      tag_74\n      jumpi\n      mload(0x40)\n      0x08c379a000000000000000000000000000000000000000000000000000000000\n      dup2\n      mstore\n      0x04\n      add\n      tag_75\n      swap1\n      tag_76\n      jump\t// in\n    tag_75:\n      mload(0x40)\n      dup1\n      swap2\n      sub\n      swap1\n      revert\n    tag_74:\n        /* \"Contracts/ProjectRegister.sol\":2773:2785  Status.Draft */\n      0x00\n        /* \"Contracts/ProjectRegister.sol\":2760:2785  oldStatus == Status.Draft */\n      0x03\n      dup2\n      gt\n      iszero\n      tag_77\n      jumpi\n      tag_78\n      tag_34\n      jump\t// in\n    tag_78:\n    tag_77:\n        /* \"Contracts/ProjectRegister.sol\":2760:2769  oldStatus */\n      dup2\n        /* \"Contracts/ProjectRegister.sol\":2760:2785  oldStatus == Status.Draft */\n      0x03\n      dup2\n      gt\n      iszero\n      tag_79\n      jumpi\n      tag_80\n      tag_34\n      jump\t// in\n    tag_80:\n    tag_79:\n      eq\n        /* \"Contracts/ProjectRegister.sol\":2760:2816  oldStatus == Status.Draft && newStatus == Status.Funding */\n      dup1\n      iszero\n      tag_81\n      jumpi\n      pop\n        /* \"Contracts/ProjectRegister.sol\":2802:2816  Status.Funding */\n      0x01\n        /* \"Contracts/ProjectRegister.sol\":2789:2816  newStatus == Status.Funding */\n      0x03\n      dup2\n      gt\n      iszero\n      tag_82\n      jumpi\n      tag_83\n      tag_34\n      jump\t// in\n    tag_83:\n    tag_82:\n        /* \"Contracts/ProjectRegister.sol\":2789:2798  newStatus */\n      dup6\n        /* \"Contracts/ProjectRegister.sol\":2789:2816  newStatus == Status.Funding */\n      0x03\n      dup2\n      gt\n      iszero\n      tag_84\n      jumpi\n      tag_85\n      tag_34\n      jump\t// in\n    tag_85:\n    tag_84:\n      eq\n        /* \"Contracts/ProjectRegister.sol\":2760:2816  oldStatus == Status.Draft && newStatus == Status.Funding */\n    tag_81:\n        /* \"Contracts/ProjectRegister.sol\":2759:2928  (oldStatus == Status.Draft && newStatus == Status.Funding) ||... */\n      dup1\n      tag_86\n      jumpi\n      pop\n        /* \"Contracts/ProjectRegister.sol\":2848:2862  Status.Funding */\n      0x01\n        /* \"Contracts/ProjectRegister.sol\":2835:2862  oldStatus == Status.Funding */\n      0x03\n      dup2\n      gt\n      iszero\n      tag_87\n      jumpi\n      tag_88\n      tag_34\n      jump\t// in\n    tag_88:\n    tag_87:\n        /* \"Contracts/ProjectRegister.sol\":2835:2844  oldStatus */\n      dup2\n        /* \"Contracts/ProjectRegister.sol\":2835:2862  oldStatus == Status.Funding */\n      0x03\n      dup2\n      gt\n      iszero\n      tag_89\n      jumpi\n      tag_90\n      tag_34\n      jump\t// in\n    tag_90:\n    tag_89:\n      eq\n        /* \"Contracts/ProjectRegister.sol\":2835:2927  oldStatus == Status.Funding && (newStatus == Status.Completed || newStatus == Status.Failed) */\n      dup1\n      iszero\n      tag_91\n      jumpi\n      pop\n        /* \"Contracts/ProjectRegister.sol\":2880:2896  Status.Completed */\n      0x02\n        /* \"Contracts/ProjectRegister.sol\":2867:2896  newStatus == Status.Completed */\n      0x03\n      dup2\n      gt\n      iszero\n      tag_92\n      jumpi\n      tag_93\n      tag_34\n      jump\t// in\n    tag_93:\n    tag_92:\n        /* \"Contracts/ProjectRegister.sol\":2867:2876  newStatus */\n      dup6\n        /* \"Contracts/ProjectRegister.sol\":2867:2896  newStatus == Status.Completed */\n      0x03\n      dup2\n      gt\n      iszero\n      tag_94\n      jumpi\n      tag_95\n      tag_34\n      jump\t// in\n    tag_95:\n    tag_94:\n      eq\n        /* \"Contracts/ProjectRegister.sol\":2867:2926  newStatus == Status.Completed || newStatus == Status.Failed */\n      dup1\n      tag_96\n      jumpi\n      pop\n        /* \"Contracts/ProjectRegister.sol\":2913:2926  Status.Failed */\n      0x03\n        /* \"Contracts/ProjectRegister.sol\":2900:2926  newStatus == Status.Failed */\n      dup1\n      dup2\n      gt\n      iszero\n      tag_97\n      jumpi\n      tag_98\n      tag_34\n      jump\t// in\n    tag_98:\n    tag_97:\n        /* \"Contracts/ProjectRegister.sol\":2900:2909  newStatus */\n      dup6\n        /* \"Contracts/ProjectRegister.sol\":2900:2926  newStatus == Status.Failed */\n      0x03\n      dup2\n      gt\n      iszero\n      tag_99\n      jumpi\n      tag_100\n      tag_34\n      jump\t// in\n    tag_100:\n    tag_99:\n      eq\n        /* \"Contracts/ProjectRegister.sol\":2867:2926  newStatus == Status.Completed || newStatus == Status.Failed */\n    tag_96:\n        /* \"Contracts/ProjectRegister.sol\":2835:2927  oldStatus == Status.Funding && (newStatus == Status.Completed || newStatus == Status.Failed) */\n    tag_91:\n        /* \"Contracts/ProjectRegister.sol\":2759:2928  (oldStatus == Status.Draft && newStatus == Status.Funding) ||... */\n    tag_86:\n        /* \"Contracts/ProjectRegister.sol\":2737:2981  require(... */\n      tag_101\n      jumpi\n      mload(0x40)\n      0x08c379a000000000000000000000000000000000000000000000000000000000\n      dup2\n      mstore\n      0x04\n      add\n      tag_102\n      swap1\n      tag_103\n      jump\t// in\n    tag_102:\n      mload(0x40)\n      dup1\n      swap2\n      sub\n      swap1\n      revert\n    tag_101:\n        /* \"Contracts/ProjectRegister.sol\":3008:3017  newStatus */\n      dup5\n        /* \"Contracts/ProjectRegister.sol\":2994:2998  proj */\n      dup3\n        /* \"Contracts/ProjectRegister.sol\":2994:3005  proj.status */\n      0x02\n      add\n      0x00\n        /* \"Contracts/ProjectRegister.sol\":2994:3017  proj.status = newStatus */\n      0x0100\n      exp\n      dup2\n      sload\n      dup2\n      0xff\n      mul\n      not\n      and\n      swap1\n      dup4\n      0x03\n      dup2\n      gt\n      iszero\n      tag_104\n      jumpi\n      tag_105\n      tag_34\n      jump\t// in\n    tag_105:\n    tag_104:\n      mul\n      or\n      swap1\n      sstore\n      pop\n        /* \"Contracts/ProjectRegister.sol\":3054:3063  projectId */\n      dup6\n        /* \"Contracts/ProjectRegister.sol\":3033:3100  ProjectStatusUpdated(projectId, uint8(oldStatus), uint8(newStatus)) */\n      0x15a4a29eccf92a0bbf94f24a6840487aa0226f7fb02d3402f1f86b3360bdfc6a\n        /* \"Contracts/ProjectRegister.sol\":3071:3080  oldStatus */\n      dup3\n        /* \"Contracts/ProjectRegister.sol\":3065:3081  uint8(oldStatus) */\n      0x03\n      dup2\n      gt\n      iszero\n      tag_106\n      jumpi\n      tag_107\n      tag_34\n      jump\t// in\n    tag_107:\n    tag_106:\n        /* \"Contracts/ProjectRegister.sol\":3089:3098  newStatus */\n      dup8\n        /* \"Contracts/ProjectRegister.sol\":3083:3099  uint8(newStatus) */\n      0x03\n      dup2\n      gt\n      iszero\n      tag_108\n      jumpi\n      tag_109\n      tag_34\n      jump\t// in\n    tag_109:\n    tag_108:\n        /* \"Contracts/ProjectRegister.sol\":3033:3100  ProjectStatusUpdated(projectId, uint8(oldStatus), uint8(newStatus)) */\n      mload(0x40)\n      tag_110\n      swap3\n      swap2\n      swap1\n      tag_111\n      jump\t// in\n    tag_110:\n      mload(0x40)\n      dup1\n      swap2\n      sub\n      swap1\n      log2\n        /* \"Contracts/ProjectRegister.sol\":2436:3108  {... */\n      pop\n      pop\n        /* \"Contracts/ProjectRegister.sol\":1040:1041  _ */\n      pop\n        /* \"Contracts/ProjectRegister.sol\":2278:3108  function updateProjectStatus(uint256 projectId, Status newStatus) ... */\n      pop\n      pop\n      pop\n      jump\t// out\n        /* \"Contracts/ProjectRegister.sol\":655:683  uint256 public nextProjectId */\n    tag_23:\n      sload(0x00)\n      dup2\n      jump\t// out\n        /* \"Contracts/ProjectRegister.sol\":3151:3466  function getProject(uint256 projectId) ... */\n    tag_28:\n        /* \"Contracts/ProjectRegister.sol\":3277:3292  address builder */\n      0x00\n        /* \"Contracts/ProjectRegister.sol\":3294:3319  string memory metadataCID */\n      0x60\n        /* \"Contracts/ProjectRegister.sol\":3321:3334  Status status */\n      0x00\n        /* \"Contracts/ProjectRegister.sol\":3247:3256  projectId */\n      dup4\n        /* \"Contracts/ProjectRegister.sol\":993:1006  nextProjectId */\n      sload(0x00)\n        /* \"Contracts/ProjectRegister.sol\":981:990  projectId */\n      dup2\n        /* \"Contracts/ProjectRegister.sol\":981:1006  projectId < nextProjectId */\n      lt\n        /* \"Contracts/ProjectRegister.sol\":973:1029  require(projectId < nextProjectId, \"Invalid project ID\") */\n      tag_113\n      jumpi\n      mload(0x40)\n      0x08c379a000000000000000000000000000000000000000000000000000000000\n      dup2\n      mstore\n      0x04\n      add\n      tag_114\n      swap1\n      tag_46\n      jump\t// in\n    tag_114:\n      mload(0x40)\n      dup1\n      swap2\n      sub\n      swap1\n      revert\n    tag_113:\n        /* \"Contracts/ProjectRegister.sol\":3353:3373  Project storage proj */\n      0x00\n        /* \"Contracts/ProjectRegister.sol\":3376:3384  projects */\n      0x01\n        /* \"Contracts/ProjectRegister.sol\":3376:3395  projects[projectId] */\n      0x00\n        /* \"Contracts/ProjectRegister.sol\":3385:3394  projectId */\n      dup8\n        /* \"Contracts/ProjectRegister.sol\":3376:3395  projects[projectId] */\n      dup2\n      mstore\n      0x20\n      add\n      swap1\n      dup2\n      mstore\n      0x20\n      add\n      0x00\n      keccak256\n        /* \"Contracts/ProjectRegister.sol\":3353:3395  Project storage proj = projects[projectId] */\n      swap1\n      pop\n        /* \"Contracts/ProjectRegister.sol\":3414:3418  proj */\n      dup1\n        /* \"Contracts/ProjectRegister.sol\":3414:3426  proj.builder */\n      0x00\n      add\n      0x00\n      swap1\n      sload\n      swap1\n      0x0100\n      exp\n      swap1\n      div\n      0xffffffffffffffffffffffffffffffffffffffff\n      and\n        /* \"Contracts/ProjectRegister.sol\":3428:3432  proj */\n      dup2\n        /* \"Contracts/ProjectRegister.sol\":3428:3444  proj.metadataCID */\n      0x01\n      add\n        /* \"Contracts/ProjectRegister.sol\":3446:3450  proj */\n      dup3\n        /* \"Contracts/ProjectRegister.sol\":3446:3457  proj.status */\n      0x02\n      add\n      0x00\n      swap1\n      sload\n      swap1\n      0x0100\n      exp\n      swap1\n      div\n      0xff\n      and\n        /* \"Contracts/ProjectRegister.sol\":3406:3458  return (proj.builder, proj.metadataCID, proj.status) */\n      dup2\n      dup1\n      sload\n      tag_116\n      swap1\n      tag_117\n      jump\t// in\n    tag_116:\n      dup1\n      0x1f\n      add\n      0x20\n      dup1\n      swap2\n      div\n      mul\n      0x20\n      add\n      mload(0x40)\n      swap1\n      dup2\n      add\n      0x40\n      mstore\n      dup1\n      swap3\n      swap2\n      swap1\n      dup2\n      dup2\n      mstore\n      0x20\n      add\n      dup3\n      dup1\n      sload\n      tag_118\n      swap1\n      tag_117\n      jump\t// in\n    tag_118:\n      dup1\n      iszero\n      tag_119\n      jumpi\n      dup1\n      0x1f\n      lt\n      tag_120\n      jumpi\n      0x0100\n      dup1\n      dup4\n      sload\n      div\n      mul\n      dup4\n      mstore\n      swap2\n      0x20\n      add\n      swap2\n      jump(tag_119)\n    tag_120:\n      dup3\n      add\n      swap2\n      swap1\n      0x00\n      mstore\n      keccak256(0x00, 0x20)\n      swap1\n    tag_121:\n      dup2\n      sload\n      dup2\n      mstore\n      swap1\n      0x01\n      add\n      swap1\n      0x20\n      add\n      dup1\n      dup4\n      gt\n      tag_121\n      jumpi\n      dup3\n      swap1\n      sub\n      0x1f\n      and\n      dup3\n      add\n      swap2\n    tag_119:\n      pop\n      pop\n      pop\n      pop\n      pop\n      swap2\n      pop\n      swap5\n      pop\n      swap5\n      pop\n      swap5\n      pop\n      pop\n        /* \"Contracts/ProjectRegister.sol\":3151:3466  function getProject(uint256 projectId) ... */\n      pop\n      swap2\n      swap4\n      swap1\n      swap3\n      pop\n      jump\t// out\n        /* \"#utility.yul\":88:205   */\n    tag_123:\n        /* \"#utility.yul\":197:198   */\n      0x00\n        /* \"#utility.yul\":194:195   */\n      0x00\n        /* \"#utility.yul\":187:199   */\n      revert\n        /* \"#utility.yul\":211:328   */\n    tag_124:\n        /* \"#utility.yul\":320:321   */\n      0x00\n        /* \"#utility.yul\":317:318   */\n      0x00\n        /* \"#utility.yul\":310:322   */\n      revert\n        /* \"#utility.yul\":334:451   */\n    tag_125:\n        /* \"#utility.yul\":443:444   */\n      0x00\n        /* \"#utility.yul\":440:441   */\n      0x00\n        /* \"#utility.yul\":433:445   */\n      revert\n        /* \"#utility.yul\":457:574   */\n    tag_126:\n        /* \"#utility.yul\":566:567   */\n      0x00\n        /* \"#utility.yul\":563:564   */\n      0x00\n        /* \"#utility.yul\":556:568   */\n      revert\n        /* \"#utility.yul\":580:697   */\n    tag_127:\n        /* \"#utility.yul\":689:690   */\n      0x00\n        /* \"#utility.yul\":686:687   */\n      0x00\n        /* \"#utility.yul\":679:691   */\n      revert\n        /* \"#utility.yul\":717:1270   */\n    tag_128:\n        /* \"#utility.yul\":775:783   */\n      0x00\n        /* \"#utility.yul\":785:791   */\n      0x00\n        /* \"#utility.yul\":835:838   */\n      dup4\n        /* \"#utility.yul\":828:832   */\n      0x1f\n        /* \"#utility.yul\":820:826   */\n      dup5\n        /* \"#utility.yul\":816:833   */\n      add\n        /* \"#utility.yul\":812:839   */\n      slt\n        /* \"#utility.yul\":802:924   */\n      tag_188\n      jumpi\n        /* \"#utility.yul\":843:922   */\n      tag_189\n      tag_125\n      jump\t// in\n    tag_189:\n        /* \"#utility.yul\":802:924   */\n    tag_188:\n        /* \"#utility.yul\":956:962   */\n      dup3\n        /* \"#utility.yul\":943:963   */\n      calldataload\n        /* \"#utility.yul\":933:963   */\n      swap1\n      pop\n        /* \"#utility.yul\":986:1004   */\n      0xffffffffffffffff\n        /* \"#utility.yul\":978:984   */\n      dup2\n        /* \"#utility.yul\":975:1005   */\n      gt\n        /* \"#utility.yul\":972:1089   */\n      iszero\n      tag_190\n      jumpi\n        /* \"#utility.yul\":1008:1087   */\n      tag_191\n      tag_126\n      jump\t// in\n    tag_191:\n        /* \"#utility.yul\":972:1089   */\n    tag_190:\n        /* \"#utility.yul\":1122:1126   */\n      0x20\n        /* \"#utility.yul\":1114:1120   */\n      dup4\n        /* \"#utility.yul\":1110:1127   */\n      add\n        /* \"#utility.yul\":1098:1127   */\n      swap2\n      pop\n        /* \"#utility.yul\":1176:1179   */\n      dup4\n        /* \"#utility.yul\":1168:1172   */\n      0x01\n        /* \"#utility.yul\":1160:1166   */\n      dup3\n        /* \"#utility.yul\":1156:1173   */\n      mul\n        /* \"#utility.yul\":1146:1154   */\n      dup4\n        /* \"#utility.yul\":1142:1174   */\n      add\n        /* \"#utility.yul\":1139:1180   */\n      gt\n        /* \"#utility.yul\":1136:1264   */\n      iszero\n      tag_192\n      jumpi\n        /* \"#utility.yul\":1183:1262   */\n      tag_193\n      tag_127\n      jump\t// in\n    tag_193:\n        /* \"#utility.yul\":1136:1264   */\n    tag_192:\n        /* \"#utility.yul\":717:1270   */\n      swap3\n      pop\n      swap3\n      swap1\n      pop\n      jump\t// out\n        /* \"#utility.yul\":1276:1805   */\n    tag_10:\n        /* \"#utility.yul\":1347:1353   */\n      0x00\n        /* \"#utility.yul\":1355:1361   */\n      0x00\n        /* \"#utility.yul\":1404:1406   */\n      0x20\n        /* \"#utility.yul\":1392:1401   */\n      dup4\n        /* \"#utility.yul\":1383:1390   */\n      dup6\n        /* \"#utility.yul\":1379:1402   */\n      sub\n        /* \"#utility.yul\":1375:1407   */\n      slt\n        /* \"#utility.yul\":1372:1491   */\n      iszero\n      tag_195\n      jumpi\n        /* \"#utility.yul\":1410:1489   */\n      tag_196\n      tag_123\n      jump\t// in\n    tag_196:\n        /* \"#utility.yul\":1372:1491   */\n    tag_195:\n        /* \"#utility.yul\":1558:1559   */\n      0x00\n        /* \"#utility.yul\":1547:1556   */\n      dup4\n        /* \"#utility.yul\":1543:1560   */\n      add\n        /* \"#utility.yul\":1530:1561   */\n      calldataload\n        /* \"#utility.yul\":1588:1606   */\n      0xffffffffffffffff\n        /* \"#utility.yul\":1580:1586   */\n      dup2\n        /* \"#utility.yul\":1577:1607   */\n      gt\n        /* \"#utility.yul\":1574:1691   */\n      iszero\n      tag_197\n      jumpi\n        /* \"#utility.yul\":1610:1689   */\n      tag_198\n      tag_124\n      jump\t// in\n    tag_198:\n        /* \"#utility.yul\":1574:1691   */\n    tag_197:\n        /* \"#utility.yul\":1723:1788   */\n      tag_199\n        /* \"#utility.yul\":1780:1787   */\n      dup6\n        /* \"#utility.yul\":1771:1777   */\n      dup3\n        /* \"#utility.yul\":1760:1769   */\n      dup7\n        /* \"#utility.yul\":1756:1778   */\n      add\n        /* \"#utility.yul\":1723:1788   */\n      tag_128\n      jump\t// in\n    tag_199:\n        /* \"#utility.yul\":1705:1788   */\n      swap3\n      pop\n      swap3\n      pop\n        /* \"#utility.yul\":1501:1798   */\n      pop\n        /* \"#utility.yul\":1276:1805   */\n      swap3\n      pop\n      swap3\n      swap1\n      pop\n      jump\t// out\n        /* \"#utility.yul\":1811:1888   */\n    tag_129:\n        /* \"#utility.yul\":1848:1855   */\n      0x00\n        /* \"#utility.yul\":1877:1882   */\n      dup2\n        /* \"#utility.yul\":1866:1882   */\n      swap1\n      pop\n        /* \"#utility.yul\":1811:1888   */\n      swap2\n      swap1\n      pop\n      jump\t// out\n        /* \"#utility.yul\":1894:2012   */\n    tag_130:\n        /* \"#utility.yul\":1981:2005   */\n      tag_202\n        /* \"#utility.yul\":1999:2004   */\n      dup2\n        /* \"#utility.yul\":1981:2005   */\n      tag_129\n      jump\t// in\n    tag_202:\n        /* \"#utility.yul\":1976:1979   */\n      dup3\n        /* \"#utility.yul\":1969:2006   */\n      mstore\n        /* \"#utility.yul\":1894:2012   */\n      pop\n      pop\n      jump\t// out\n        /* \"#utility.yul\":2018:2240   */\n    tag_13:\n        /* \"#utility.yul\":2111:2115   */\n      0x00\n        /* \"#utility.yul\":2149:2151   */\n      0x20\n        /* \"#utility.yul\":2138:2147   */\n      dup3\n        /* \"#utility.yul\":2134:2152   */\n      add\n        /* \"#utility.yul\":2126:2152   */\n      swap1\n      pop\n        /* \"#utility.yul\":2162:2233   */\n      tag_204\n        /* \"#utility.yul\":2230:2231   */\n      0x00\n        /* \"#utility.yul\":2219:2228   */\n      dup4\n        /* \"#utility.yul\":2215:2232   */\n      add\n        /* \"#utility.yul\":2206:2212   */\n      dup5\n        /* \"#utility.yul\":2162:2233   */\n      tag_130\n      jump\t// in\n    tag_204:\n        /* \"#utility.yul\":2018:2240   */\n      swap3\n      swap2\n      pop\n      pop\n      jump\t// out\n        /* \"#utility.yul\":2246:2368   */\n    tag_131:\n        /* \"#utility.yul\":2319:2343   */\n      tag_206\n        /* \"#utility.yul\":2337:2342   */\n      dup2\n        /* \"#utility.yul\":2319:2343   */\n      tag_129\n      jump\t// in\n    tag_206:\n        /* \"#utility.yul\":2312:2317   */\n      dup2\n        /* \"#utility.yul\":2309:2344   */\n      eq\n        /* \"#utility.yul\":2299:2362   */\n      tag_207\n      jumpi\n        /* \"#utility.yul\":2358:2359   */\n      0x00\n        /* \"#utility.yul\":2355:2356   */\n      0x00\n        /* \"#utility.yul\":2348:2360   */\n      revert\n        /* \"#utility.yul\":2299:2362   */\n    tag_207:\n        /* \"#utility.yul\":2246:2368   */\n      pop\n      jump\t// out\n        /* \"#utility.yul\":2374:2513   */\n    tag_132:\n        /* \"#utility.yul\":2420:2425   */\n      0x00\n        /* \"#utility.yul\":2458:2464   */\n      dup2\n        /* \"#utility.yul\":2445:2465   */\n      calldataload\n        /* \"#utility.yul\":2436:2465   */\n      swap1\n      pop\n        /* \"#utility.yul\":2474:2507   */\n      tag_209\n        /* \"#utility.yul\":2501:2506   */\n      dup2\n        /* \"#utility.yul\":2474:2507   */\n      tag_131\n      jump\t// in\n    tag_209:\n        /* \"#utility.yul\":2374:2513   */\n      swap3\n      swap2\n      pop\n      pop\n      jump\t// out\n        /* \"#utility.yul\":2519:3193   */\n    tag_16:\n        /* \"#utility.yul\":2599:2605   */\n      0x00\n        /* \"#utility.yul\":2607:2613   */\n      0x00\n        /* \"#utility.yul\":2615:2621   */\n      0x00\n        /* \"#utility.yul\":2664:2666   */\n      0x40\n        /* \"#utility.yul\":2652:2661   */\n      dup5\n        /* \"#utility.yul\":2643:2650   */\n      dup7\n        /* \"#utility.yul\":2639:2662   */\n      sub\n        /* \"#utility.yul\":2635:2667   */\n      slt\n        /* \"#utility.yul\":2632:2751   */\n      iszero\n      tag_211\n      jumpi\n        /* \"#utility.yul\":2670:2749   */\n      tag_212\n      tag_123\n      jump\t// in\n    tag_212:\n        /* \"#utility.yul\":2632:2751   */\n    tag_211:\n        /* \"#utility.yul\":2790:2791   */\n      0x00\n        /* \"#utility.yul\":2815:2868   */\n      tag_213\n        /* \"#utility.yul\":2860:2867   */\n      dup7\n        /* \"#utility.yul\":2851:2857   */\n      dup3\n        /* \"#utility.yul\":2840:2849   */\n      dup8\n        /* \"#utility.yul\":2836:2858   */\n      add\n        /* \"#utility.yul\":2815:2868   */\n      tag_132\n      jump\t// in\n    tag_213:\n        /* \"#utility.yul\":2805:2868   */\n      swap4\n      pop\n        /* \"#utility.yul\":2761:2878   */\n      pop\n        /* \"#utility.yul\":2945:2947   */\n      0x20\n        /* \"#utility.yul\":2934:2943   */\n      dup5\n        /* \"#utility.yul\":2930:2948   */\n      add\n        /* \"#utility.yul\":2917:2949   */\n      calldataload\n        /* \"#utility.yul\":2976:2994   */\n      0xffffffffffffffff\n        /* \"#utility.yul\":2968:2974   */\n      dup2\n        /* \"#utility.yul\":2965:2995   */\n      gt\n        /* \"#utility.yul\":2962:3079   */\n      iszero\n      tag_214\n      jumpi\n        /* \"#utility.yul\":2998:3077   */\n      tag_215\n      tag_124\n      jump\t// in\n    tag_215:\n        /* \"#utility.yul\":2962:3079   */\n    tag_214:\n        /* \"#utility.yul\":3111:3176   */\n      tag_216\n        /* \"#utility.yul\":3168:3175   */\n      dup7\n        /* \"#utility.yul\":3159:3165   */\n      dup3\n        /* \"#utility.yul\":3148:3157   */\n      dup8\n        /* \"#utility.yul\":3144:3166   */\n      add\n        /* \"#utility.yul\":3111:3176   */\n      tag_128\n      jump\t// in\n    tag_216:\n        /* \"#utility.yul\":3093:3176   */\n      swap3\n      pop\n      swap3\n      pop\n        /* \"#utility.yul\":2888:3186   */\n      pop\n        /* \"#utility.yul\":2519:3193   */\n      swap3\n      pop\n      swap3\n      pop\n      swap3\n      jump\t// out\n        /* \"#utility.yul\":3199:3307   */\n    tag_133:\n        /* \"#utility.yul\":3281:3282   */\n      0x04\n        /* \"#utility.yul\":3274:3279   */\n      dup2\n        /* \"#utility.yul\":3271:3283   */\n      lt\n        /* \"#utility.yul\":3261:3301   */\n      tag_218\n      jumpi\n        /* \"#utility.yul\":3297:3298   */\n      0x00\n        /* \"#utility.yul\":3294:3295   */\n      0x00\n        /* \"#utility.yul\":3287:3299   */\n      revert\n        /* \"#utility.yul\":3261:3301   */\n    tag_218:\n        /* \"#utility.yul\":3199:3307   */\n      pop\n      jump\t// out\n        /* \"#utility.yul\":3313:3470   */\n    tag_134:\n        /* \"#utility.yul\":3368:3373   */\n      0x00\n        /* \"#utility.yul\":3406:3412   */\n      dup2\n        /* \"#utility.yul\":3393:3413   */\n      calldataload\n        /* \"#utility.yul\":3384:3413   */\n      swap1\n      pop\n        /* \"#utility.yul\":3422:3464   */\n      tag_220\n        /* \"#utility.yul\":3458:3463   */\n      dup2\n        /* \"#utility.yul\":3422:3464   */\n      tag_133\n      jump\t// in\n    tag_220:\n        /* \"#utility.yul\":3313:3470   */\n      swap3\n      swap2\n      pop\n      pop\n      jump\t// out\n        /* \"#utility.yul\":3476:3968   */\n    tag_20:\n        /* \"#utility.yul\":3553:3559   */\n      0x00\n        /* \"#utility.yul\":3561:3567   */\n      0x00\n        /* \"#utility.yul\":3610:3612   */\n      0x40\n        /* \"#utility.yul\":3598:3607   */\n      dup4\n        /* \"#utility.yul\":3589:3596   */\n      dup6\n        /* \"#utility.yul\":3585:3608   */\n      sub\n        /* \"#utility.yul\":3581:3613   */\n      slt\n        /* \"#utility.yul\":3578:3697   */\n      iszero\n      tag_222\n      jumpi\n        /* \"#utility.yul\":3616:3695   */\n      tag_223\n      tag_123\n      jump\t// in\n    tag_223:\n        /* \"#utility.yul\":3578:3697   */\n    tag_222:\n        /* \"#utility.yul\":3736:3737   */\n      0x00\n        /* \"#utility.yul\":3761:3814   */\n      tag_224\n        /* \"#utility.yul\":3806:3813   */\n      dup6\n        /* \"#utility.yul\":3797:3803   */\n      dup3\n        /* \"#utility.yul\":3786:3795   */\n      dup7\n        /* \"#utility.yul\":3782:3804   */\n      add\n        /* \"#utility.yul\":3761:3814   */\n      tag_132\n      jump\t// in\n    tag_224:\n        /* \"#utility.yul\":3751:3814   */\n      swap3\n      pop\n        /* \"#utility.yul\":3707:3824   */\n      pop\n        /* \"#utility.yul\":3863:3865   */\n      0x20\n        /* \"#utility.yul\":3889:3951   */\n      tag_225\n        /* \"#utility.yul\":3943:3950   */\n      dup6\n        /* \"#utility.yul\":3934:3940   */\n      dup3\n        /* \"#utility.yul\":3923:3932   */\n      dup7\n        /* \"#utility.yul\":3919:3941   */\n      add\n        /* \"#utility.yul\":3889:3951   */\n      tag_134\n      jump\t// in\n    tag_225:\n        /* \"#utility.yul\":3879:3951   */\n      swap2\n      pop\n        /* \"#utility.yul\":3834:3961   */\n      pop\n        /* \"#utility.yul\":3476:3968   */\n      swap3\n      pop\n      swap3\n      swap1\n      pop\n      jump\t// out\n        /* \"#utility.yul\":3974:4303   */\n    tag_27:\n        /* \"#utility.yul\":4033:4039   */\n      0x00\n        /* \"#utility.yul\":4082:4084   */\n      0x20\n        /* \"#utility.yul\":4070:4079   */\n      dup3\n        /* \"#utility.yul\":4061:4068   */\n      dup5\n        /* \"#utility.yul\":4057:4080   */\n      sub\n        /* \"#utility.yul\":4053:4085   */\n      slt\n        /* \"#utility.yul\":4050:4169   */\n      iszero\n      tag_227\n      jumpi\n        /* \"#utility.yul\":4088:4167   */\n      tag_228\n      tag_123\n      jump\t// in\n    tag_228:\n        /* \"#utility.yul\":4050:4169   */\n    tag_227:\n        /* \"#utility.yul\":4208:4209   */\n      0x00\n        /* \"#utility.yul\":4233:4286   */\n      tag_229\n        /* \"#utility.yul\":4278:4285   */\n      dup5\n        /* \"#utility.yul\":4269:4275   */\n      dup3\n        /* \"#utility.yul\":4258:4267   */\n      dup6\n        /* \"#utility.yul\":4254:4276   */\n      add\n        /* \"#utility.yul\":4233:4286   */\n      tag_132\n      jump\t// in\n    tag_229:\n        /* \"#utility.yul\":4223:4286   */\n      swap2\n      pop\n        /* \"#utility.yul\":4179:4296   */\n      pop\n        /* \"#utility.yul\":3974:4303   */\n      swap3\n      swap2\n      pop\n      pop\n      jump\t// out\n        /* \"#utility.yul\":4309:4435   */\n    tag_135:\n        /* \"#utility.yul\":4346:4353   */\n      0x00\n        /* \"#utility.yul\":4386:4428   */\n      0xffffffffffffffffffffffffffffffffffffffff\n        /* \"#utility.yul\":4379:4384   */\n      dup3\n        /* \"#utility.yul\":4375:4429   */\n      and\n        /* \"#utility.yul\":4364:4429   */\n      swap1\n      pop\n        /* \"#utility.yul\":4309:4435   */\n      swap2\n      swap1\n      pop\n      jump\t// out\n        /* \"#utility.yul\":4441:4537   */\n    tag_136:\n        /* \"#utility.yul\":4478:4485   */\n      0x00\n        /* \"#utility.yul\":4507:4531   */\n      tag_232\n        /* \"#utility.yul\":4525:4530   */\n      dup3\n        /* \"#utility.yul\":4507:4531   */\n      tag_135\n      jump\t// in\n    tag_232:\n        /* \"#utility.yul\":4496:4531   */\n      swap1\n      pop\n        /* \"#utility.yul\":4441:4537   */\n      swap2\n      swap1\n      pop\n      jump\t// out\n        /* \"#utility.yul\":4543:4661   */\n    tag_137:\n        /* \"#utility.yul\":4630:4654   */\n      tag_234\n        /* \"#utility.yul\":4648:4653   */\n      dup2\n        /* \"#utility.yul\":4630:4654   */\n      tag_136\n      jump\t// in\n    tag_234:\n        /* \"#utility.yul\":4625:4628   */\n      dup3\n        /* \"#utility.yul\":4618:4655   */\n      mstore\n        /* \"#utility.yul\":4543:4661   */\n      pop\n      pop\n      jump\t// out\n        /* \"#utility.yul\":4667:4766   */\n    tag_138:\n        /* \"#utility.yul\":4719:4725   */\n      0x00\n        /* \"#utility.yul\":4753:4758   */\n      dup2\n        /* \"#utility.yul\":4747:4759   */\n      mload\n        /* \"#utility.yul\":4737:4759   */\n      swap1\n      pop\n        /* \"#utility.yul\":4667:4766   */\n      swap2\n      swap1\n      pop\n      jump\t// out\n        /* \"#utility.yul\":4772:4941   */\n    tag_139:\n        /* \"#utility.yul\":4856:4867   */\n      0x00\n        /* \"#utility.yul\":4890:4896   */\n      dup3\n        /* \"#utility.yul\":4885:4888   */\n      dup3\n        /* \"#utility.yul\":4878:4897   */\n      mstore\n        /* \"#utility.yul\":4930:4934   */\n      0x20\n        /* \"#utility.yul\":4925:4928   */\n      dup3\n        /* \"#utility.yul\":4921:4935   */\n      add\n        /* \"#utility.yul\":4906:4935   */\n      swap1\n      pop\n        /* \"#utility.yul\":4772:4941   */\n      swap3\n      swap2\n      pop\n      pop\n      jump\t// out\n        /* \"#utility.yul\":4947:5086   */\n    tag_140:\n        /* \"#utility.yul\":5036:5042   */\n      dup3\n        /* \"#utility.yul\":5031:5034   */\n      dup2\n        /* \"#utility.yul\":5026:5029   */\n      dup4\n        /* \"#utility.yul\":5020:5043   */\n      mcopy\n        /* \"#utility.yul\":5077:5078   */\n      0x00\n        /* \"#utility.yul\":5068:5074   */\n      dup4\n        /* \"#utility.yul\":5063:5066   */\n      dup4\n        /* \"#utility.yul\":5059:5075   */\n      add\n        /* \"#utility.yul\":5052:5079   */\n      mstore\n        /* \"#utility.yul\":4947:5086   */\n      pop\n      pop\n      pop\n      jump\t// out\n        /* \"#utility.yul\":5092:5194   */\n    tag_141:\n        /* \"#utility.yul\":5133:5139   */\n      0x00\n        /* \"#utility.yul\":5184:5186   */\n      0x1f\n        /* \"#utility.yul\":5180:5187   */\n      not\n        /* \"#utility.yul\":5175:5177   */\n      0x1f\n        /* \"#utility.yul\":5168:5173   */\n      dup4\n        /* \"#utility.yul\":5164:5178   */\n      add\n        /* \"#utility.yul\":5160:5188   */\n      and\n        /* \"#utility.yul\":5150:5188   */\n      swap1\n      pop\n        /* \"#utility.yul\":5092:5194   */\n      swap2\n      swap1\n      pop\n      jump\t// out\n        /* \"#utility.yul\":5200:5577   */\n    tag_142:\n        /* \"#utility.yul\":5288:5291   */\n      0x00\n        /* \"#utility.yul\":5316:5355   */\n      tag_240\n        /* \"#utility.yul\":5349:5354   */\n      dup3\n        /* \"#utility.yul\":5316:5355   */\n      tag_138\n      jump\t// in\n    tag_240:\n        /* \"#utility.yul\":5371:5442   */\n      tag_241\n        /* \"#utility.yul\":5435:5441   */\n      dup2\n        /* \"#utility.yul\":5430:5433   */\n      dup6\n        /* \"#utility.yul\":5371:5442   */\n      tag_139\n      jump\t// in\n    tag_241:\n        /* \"#utility.yul\":5364:5442   */\n      swap4\n      pop\n        /* \"#utility.yul\":5451:5516   */\n      tag_242\n        /* \"#utility.yul\":5509:5515   */\n      dup2\n        /* \"#utility.yul\":5504:5507   */\n      dup6\n        /* \"#utility.yul\":5497:5501   */\n      0x20\n        /* \"#utility.yul\":5490:5495   */\n      dup7\n        /* \"#utility.yul\":5486:5502   */\n      add\n        /* \"#utility.yul\":5451:5516   */\n      tag_140\n      jump\t// in\n    tag_242:\n        /* \"#utility.yul\":5541:5570   */\n      tag_243\n        /* \"#utility.yul\":5563:5569   */\n      dup2\n        /* \"#utility.yul\":5541:5570   */\n      tag_141\n      jump\t// in\n    tag_243:\n        /* \"#utility.yul\":5536:5539   */\n      dup5\n        /* \"#utility.yul\":5532:5571   */\n      add\n        /* \"#utility.yul\":5525:5571   */\n      swap2\n      pop\n        /* \"#utility.yul\":5292:5577   */\n      pop\n        /* \"#utility.yul\":5200:5577   */\n      swap3\n      swap2\n      pop\n      pop\n      jump\t// out\n        /* \"#utility.yul\":5583:5763   */\n    tag_34:\n        /* \"#utility.yul\":5631:5708   */\n      0x4e487b7100000000000000000000000000000000000000000000000000000000\n        /* \"#utility.yul\":5628:5629   */\n      0x00\n        /* \"#utility.yul\":5621:5709   */\n      mstore\n        /* \"#utility.yul\":5728:5732   */\n      0x21\n        /* \"#utility.yul\":5725:5726   */\n      0x04\n        /* \"#utility.yul\":5718:5733   */\n      mstore\n        /* \"#utility.yul\":5752:5756   */\n      0x24\n        /* \"#utility.yul\":5749:5750   */\n      0x00\n        /* \"#utility.yul\":5742:5757   */\n      revert\n        /* \"#utility.yul\":5769:5883   */\n    tag_143:\n        /* \"#utility.yul\":5851:5852   */\n      0x04\n        /* \"#utility.yul\":5844:5849   */\n      dup2\n        /* \"#utility.yul\":5841:5853   */\n      lt\n        /* \"#utility.yul\":5831:5877   */\n      tag_246\n      jumpi\n        /* \"#utility.yul\":5857:5875   */\n      tag_247\n      tag_34\n      jump\t// in\n    tag_247:\n        /* \"#utility.yul\":5831:5877   */\n    tag_246:\n        /* \"#utility.yul\":5769:5883   */\n      pop\n      jump\t// out\n        /* \"#utility.yul\":5889:6018   */\n    tag_144:\n        /* \"#utility.yul\":5935:5942   */\n      0x00\n        /* \"#utility.yul\":5964:5969   */\n      dup2\n        /* \"#utility.yul\":5953:5969   */\n      swap1\n      pop\n        /* \"#utility.yul\":5970:6012   */\n      tag_249\n        /* \"#utility.yul\":6006:6011   */\n      dup3\n        /* \"#utility.yul\":5970:6012   */\n      tag_143\n      jump\t// in\n    tag_249:\n        /* \"#utility.yul\":5889:6018   */\n      swap2\n      swap1\n      pop\n      jump\t// out\n        /* \"#utility.yul\":6024:6153   */\n    tag_145:\n        /* \"#utility.yul\":6081:6090   */\n      0x00\n        /* \"#utility.yul\":6114:6147   */\n      tag_251\n        /* \"#utility.yul\":6141:6146   */\n      dup3\n        /* \"#utility.yul\":6114:6147   */\n      tag_144\n      jump\t// in\n    tag_251:\n        /* \"#utility.yul\":6101:6147   */\n      swap1\n      pop\n        /* \"#utility.yul\":6024:6153   */\n      swap2\n      swap1\n      pop\n      jump\t// out\n        /* \"#utility.yul\":6159:6304   */\n    tag_146:\n        /* \"#utility.yul\":6253:6297   */\n      tag_253\n        /* \"#utility.yul\":6291:6296   */\n      dup2\n        /* \"#utility.yul\":6253:6297   */\n      tag_145\n      jump\t// in\n    tag_253:\n        /* \"#utility.yul\":6248:6251   */\n      dup3\n        /* \"#utility.yul\":6241:6298   */\n      mstore\n        /* \"#utility.yul\":6159:6304   */\n      pop\n      pop\n      jump\t// out\n        /* \"#utility.yul\":6310:6857   */\n    tag_30:\n        /* \"#utility.yul\":6486:6490   */\n      0x00\n        /* \"#utility.yul\":6524:6526   */\n      0x60\n        /* \"#utility.yul\":6513:6522   */\n      dup3\n        /* \"#utility.yul\":6509:6527   */\n      add\n        /* \"#utility.yul\":6501:6527   */\n      swap1\n      pop\n        /* \"#utility.yul\":6537:6608   */\n      tag_255\n        /* \"#utility.yul\":6605:6606   */\n      0x00\n        /* \"#utility.yul\":6594:6603   */\n      dup4\n        /* \"#utility.yul\":6590:6607   */\n      add\n        /* \"#utility.yul\":6581:6587   */\n      dup7\n        /* \"#utility.yul\":6537:6608   */\n      tag_137\n      jump\t// in\n    tag_255:\n        /* \"#utility.yul\":6655:6664   */\n      dup2\n        /* \"#utility.yul\":6649:6653   */\n      dup2\n        /* \"#utility.yul\":6645:6665   */\n      sub\n        /* \"#utility.yul\":6640:6642   */\n      0x20\n        /* \"#utility.yul\":6629:6638   */\n      dup4\n        /* \"#utility.yul\":6625:6643   */\n      add\n        /* \"#utility.yul\":6618:6666   */\n      mstore\n        /* \"#utility.yul\":6683:6761   */\n      tag_256\n        /* \"#utility.yul\":6756:6760   */\n      dup2\n        /* \"#utility.yul\":6747:6753   */\n      dup6\n        /* \"#utility.yul\":6683:6761   */\n      tag_142\n      jump\t// in\n    tag_256:\n        /* \"#utility.yul\":6675:6761   */\n      swap1\n      pop\n        /* \"#utility.yul\":6771:6850   */\n      tag_257\n        /* \"#utility.yul\":6846:6848   */\n      0x40\n        /* \"#utility.yul\":6835:6844   */\n      dup4\n        /* \"#utility.yul\":6831:6849   */\n      add\n        /* \"#utility.yul\":6822:6828   */\n      dup5\n        /* \"#utility.yul\":6771:6850   */\n      tag_146\n      jump\t// in\n    tag_257:\n        /* \"#utility.yul\":6310:6857   */\n      swap5\n      swap4\n      pop\n      pop\n      pop\n      pop\n      jump\t// out\n        /* \"#utility.yul\":6863:7043   */\n    tag_147:\n        /* \"#utility.yul\":6911:6988   */\n      0x4e487b7100000000000000000000000000000000000000000000000000000000\n        /* \"#utility.yul\":6908:6909   */\n      0x00\n        /* \"#utility.yul\":6901:6989   */\n      mstore\n        /* \"#utility.yul\":7008:7012   */\n      0x41\n        /* \"#utility.yul\":7005:7006   */\n      0x04\n        /* \"#utility.yul\":6998:7013   */\n      mstore\n        /* \"#utility.yul\":7032:7036   */\n      0x24\n        /* \"#utility.yul\":7029:7030   */\n      0x00\n        /* \"#utility.yul\":7022:7037   */\n      revert\n        /* \"#utility.yul\":7049:7229   */\n    tag_148:\n        /* \"#utility.yul\":7097:7174   */\n      0x4e487b7100000000000000000000000000000000000000000000000000000000\n        /* \"#utility.yul\":7094:7095   */\n      0x00\n        /* \"#utility.yul\":7087:7175   */\n      mstore\n        /* \"#utility.yul\":7194:7198   */\n      0x22\n        /* \"#utility.yul\":7191:7192   */\n      0x04\n        /* \"#utility.yul\":7184:7199   */\n      mstore\n        /* \"#utility.yul\":7218:7222   */\n      0x24\n        /* \"#utility.yul\":7215:7216   */\n      0x00\n        /* \"#utility.yul\":7208:7223   */\n      revert\n        /* \"#utility.yul\":7235:7555   */\n    tag_117:\n        /* \"#utility.yul\":7279:7285   */\n      0x00\n        /* \"#utility.yul\":7316:7317   */\n      0x02\n        /* \"#utility.yul\":7310:7314   */\n      dup3\n        /* \"#utility.yul\":7306:7318   */\n      div\n        /* \"#utility.yul\":7296:7318   */\n      swap1\n      pop\n        /* \"#utility.yul\":7363:7364   */\n      0x01\n        /* \"#utility.yul\":7357:7361   */\n      dup3\n        /* \"#utility.yul\":7353:7365   */\n      and\n        /* \"#utility.yul\":7384:7402   */\n      dup1\n        /* \"#utility.yul\":7374:7455   */\n      tag_261\n      jumpi\n        /* \"#utility.yul\":7440:7444   */\n      0x7f\n        /* \"#utility.yul\":7432:7438   */\n      dup3\n        /* \"#utility.yul\":7428:7445   */\n      and\n        /* \"#utility.yul\":7418:7445   */\n      swap2\n      pop\n        /* \"#utility.yul\":7374:7455   */\n    tag_261:\n        /* \"#utility.yul\":7502:7504   */\n      0x20\n        /* \"#utility.yul\":7494:7500   */\n      dup3\n        /* \"#utility.yul\":7491:7505   */\n      lt\n        /* \"#utility.yul\":7471:7489   */\n      dup2\n        /* \"#utility.yul\":7468:7506   */\n      sub\n        /* \"#utility.yul\":7465:7549   */\n      tag_262\n      jumpi\n        /* \"#utility.yul\":7521:7539   */\n      tag_263\n      tag_148\n      jump\t// in\n    tag_263:\n        /* \"#utility.yul\":7465:7549   */\n    tag_262:\n        /* \"#utility.yul\":7286:7555   */\n      pop\n        /* \"#utility.yul\":7235:7555   */\n      swap2\n      swap1\n      pop\n      jump\t// out\n        /* \"#utility.yul\":7561:7702   */\n    tag_149:\n        /* \"#utility.yul\":7610:7614   */\n      0x00\n        /* \"#utility.yul\":7633:7636   */\n      dup2\n        /* \"#utility.yul\":7625:7636   */\n      swap1\n      pop\n        /* \"#utility.yul\":7656:7659   */\n      dup2\n        /* \"#utility.yul\":7653:7654   */\n      0x00\n        /* \"#utility.yul\":7646:7660   */\n      mstore\n        /* \"#utility.yul\":7690:7694   */\n      0x20\n        /* \"#utility.yul\":7687:7688   */\n      0x00\n        /* \"#utility.yul\":7677:7695   */\n      keccak256\n        /* \"#utility.yul\":7669:7695   */\n      swap1\n      pop\n        /* \"#utility.yul\":7561:7702   */\n      swap2\n      swap1\n      pop\n      jump\t// out\n        /* \"#utility.yul\":7708:7801   */\n    tag_150:\n        /* \"#utility.yul\":7745:7751   */\n      0x00\n        /* \"#utility.yul\":7792:7794   */\n      0x20\n        /* \"#utility.yul\":7787:7789   */\n      0x1f\n        /* \"#utility.yul\":7780:7785   */\n      dup4\n        /* \"#utility.yul\":7776:7790   */\n      add\n        /* \"#utility.yul\":7772:7795   */\n      div\n        /* \"#utility.yul\":7762:7795   */\n      swap1\n      pop\n        /* \"#utility.yul\":7708:7801   */\n      swap2\n      swap1\n      pop\n      jump\t// out\n        /* \"#utility.yul\":7807:7914   */\n    tag_151:\n        /* \"#utility.yul\":7851:7859   */\n      0x00\n        /* \"#utility.yul\":7901:7906   */\n      dup3\n        /* \"#utility.yul\":7895:7899   */\n      dup3\n        /* \"#utility.yul\":7891:7907   */\n      shl\n        /* \"#utility.yul\":7870:7907   */\n      swap1\n      pop\n        /* \"#utility.yul\":7807:7914   */\n      swap3\n      swap2\n      pop\n      pop\n      jump\t// out\n        /* \"#utility.yul\":7920:8313   */\n    tag_152:\n        /* \"#utility.yul\":7989:7995   */\n      0x00\n        /* \"#utility.yul\":8039:8040   */\n      0x08\n        /* \"#utility.yul\":8027:8037   */\n      dup4\n        /* \"#utility.yul\":8023:8041   */\n      mul\n        /* \"#utility.yul\":8062:8159   */\n      tag_268\n        /* \"#utility.yul\":8092:8158   */\n      0xffffffffffffffffffffffffffffffffffffffffffffffffffffffffffffffff\n        /* \"#utility.yul\":8081:8090   */\n      dup3\n        /* \"#utility.yul\":8062:8159   */\n      tag_151\n      jump\t// in\n    tag_268:\n        /* \"#utility.yul\":8180:8219   */\n      tag_269\n        /* \"#utility.yul\":8210:8218   */\n      dup7\n        /* \"#utility.yul\":8199:8208   */\n      dup4\n        /* \"#utility.yul\":8180:8219   */\n      tag_151\n      jump\t// in\n    tag_269:\n        /* \"#utility.yul\":8168:8219   */\n      swap6\n      pop\n        /* \"#utility.yul\":8252:8256   */\n      dup1\n        /* \"#utility.yul\":8248:8257   */\n      not\n        /* \"#utility.yul\":8241:8246   */\n      dup5\n        /* \"#utility.yul\":8237:8258   */\n      and\n        /* \"#utility.yul\":8228:8258   */\n      swap4\n      pop\n        /* \"#utility.yul\":8301:8305   */\n      dup1\n        /* \"#utility.yul\":8291:8299   */\n      dup7\n        /* \"#utility.yul\":8287:8306   */\n      and\n        /* \"#utility.yul\":8280:8285   */\n      dup5\n        /* \"#utility.yul\":8277:8307   */\n      or\n        /* \"#utility.yul\":8267:8307   */\n      swap3\n      pop\n        /* \"#utility.yul\":7996:8313   */\n      pop\n      pop\n        /* \"#utility.yul\":7920:8313   */\n      swap4\n      swap3\n      pop\n      pop\n      pop\n      jump\t// out\n        /* \"#utility.yul\":8319:8379   */\n    tag_153:\n        /* \"#utility.yul\":8347:8350   */\n      0x00\n        /* \"#utility.yul\":8368:8373   */\n      dup2\n        /* \"#utility.yul\":8361:8373   */\n      swap1\n      pop\n        /* \"#utility.yul\":8319:8379   */\n      swap2\n      swap1\n      pop\n      jump\t// out\n        /* \"#utility.yul\":8385:8527   */\n    tag_154:\n        /* \"#utility.yul\":8435:8444   */\n      0x00\n        /* \"#utility.yul\":8468:8521   */\n      tag_272\n        /* \"#utility.yul\":8486:8520   */\n      tag_273\n        /* \"#utility.yul\":8495:8519   */\n      tag_274\n        /* \"#utility.yul\":8513:8518   */\n      dup5\n        /* \"#utility.yul\":8495:8519   */\n      tag_129\n      jump\t// in\n    tag_274:\n        /* \"#utility.yul\":8486:8520   */\n      tag_153\n      jump\t// in\n    tag_273:\n        /* \"#utility.yul\":8468:8521   */\n      tag_129\n      jump\t// in\n    tag_272:\n        /* \"#utility.yul\":8455:8521   */\n      swap1\n      pop\n        /* \"#utility.yul\":8385:8527   */\n      swap2\n      swap1\n      pop\n      jump\t// out\n        /* \"#utility.yul\":8533:8608   */\n    tag_155:\n        /* \"#utility.yul\":8576:8579   */\n      0x00\n        /* \"#utility.yul\":8597:8602   */\n      dup2\n        /* \"#utility.yul\":8590:8602   */\n      swap1\n      pop\n        /* \"#utility.yul\":8533:8608   */\n      swap2\n      swap1\n      pop\n      jump\t// out\n        /* \"#utility.yul\":8614:8883   */\n    tag_156:\n        /* \"#utility.yul\":8724:8763   */\n      tag_277\n        /* \"#utility.yul\":8755:8762   */\n      dup4\n        /* \"#utility.yul\":8724:8763   */\n      tag_154\n      jump\t// in\n    tag_277:\n        /* \"#utility.yul\":8785:8876   */\n      tag_278\n        /* \"#utility.yul\":8834:8875   */\n      tag_279\n        /* \"#utility.yul\":8858:8874   */\n      dup3\n        /* \"#utility.yul\":8834:8875   */\n      tag_155\n      jump\t// in\n    tag_279:\n        /* \"#utility.yul\":8826:8832   */\n      dup5\n        /* \"#utility.yul\":8819:8823   */\n      dup5\n        /* \"#utility.yul\":8813:8824   */\n      sload\n        /* \"#utility.yul\":8785:8876   */\n      tag_152\n      jump\t// in\n    tag_278:\n        /* \"#utility.yul\":8779:8783   */\n      dup3\n        /* \"#utility.yul\":8772:8877   */\n      sstore\n        /* \"#utility.yul\":8690:8883   */\n      pop\n        /* \"#utility.yul\":8614:8883   */\n      pop\n      pop\n      pop\n      jump\t// out\n        /* \"#utility.yul\":8889:8962   */\n    tag_157:\n        /* \"#utility.yul\":8934:8937   */\n      0x00\n        /* \"#utility.yul\":8955:8956   */\n      0x00\n        /* \"#utility.yul\":8948:8956   */\n      swap1\n      pop\n        /* \"#utility.yul\":8889:8962   */\n      swap1\n      jump\t// out\n        /* \"#utility.yul\":8968:9157   */\n    tag_158:\n        /* \"#utility.yul\":9045:9077   */\n      tag_282\n      tag_157\n      jump\t// in\n    tag_282:\n        /* \"#utility.yul\":9086:9151   */\n      tag_283\n        /* \"#utility.yul\":9144:9150   */\n      dup2\n        /* \"#utility.yul\":9136:9142   */\n      dup5\n        /* \"#utility.yul\":9130:9134   */\n      dup5\n        /* \"#utility.yul\":9086:9151   */\n      tag_156\n      jump\t// in\n    tag_283:\n        /* \"#utility.yul\":9021:9157   */\n      pop\n        /* \"#utility.yul\":8968:9157   */\n      pop\n      pop\n      jump\t// out\n        /* \"#utility.yul\":9163:9349   */\n    tag_159:\n        /* \"#utility.yul\":9223:9343   */\n    tag_285:\n        /* \"#utility.yul\":9240:9243   */\n      dup2\n        /* \"#utility.yul\":9233:9238   */\n      dup2\n        /* \"#utility.yul\":9230:9244   */\n      lt\n        /* \"#utility.yul\":9223:9343   */\n      iszero\n      tag_287\n      jumpi\n        /* \"#utility.yul\":9294:9333   */\n      tag_288\n        /* \"#utility.yul\":9331:9332   */\n      0x00\n        /* \"#utility.yul\":9324:9329   */\n      dup3\n        /* \"#utility.yul\":9294:9333   */\n      tag_158\n      jump\t// in\n    tag_288:\n        /* \"#utility.yul\":9267:9268   */\n      0x01\n        /* \"#utility.yul\":9260:9265   */\n      dup2\n        /* \"#utility.yul\":9256:9269   */\n      add\n        /* \"#utility.yul\":9247:9269   */\n      swap1\n      pop\n        /* \"#utility.yul\":9223:9343   */\n      jump(tag_285)\n    tag_287:\n        /* \"#utility.yul\":9163:9349   */\n      pop\n      pop\n      jump\t// out\n        /* \"#utility.yul\":9355:9898   */\n    tag_160:\n        /* \"#utility.yul\":9456:9458   */\n      0x1f\n        /* \"#utility.yul\":9451:9454   */\n      dup3\n        /* \"#utility.yul\":9448:9459   */\n      gt\n        /* \"#utility.yul\":9445:9891   */\n      iszero\n      tag_290\n      jumpi\n        /* \"#utility.yul\":9490:9528   */\n      tag_291\n        /* \"#utility.yul\":9522:9527   */\n      dup2\n        /* \"#utility.yul\":9490:9528   */\n      tag_149\n      jump\t// in\n    tag_291:\n        /* \"#utility.yul\":9574:9603   */\n      tag_292\n        /* \"#utility.yul\":9592:9602   */\n      dup5\n        /* \"#utility.yul\":9574:9603   */\n      tag_150\n      jump\t// in\n    tag_292:\n        /* \"#utility.yul\":9564:9572   */\n      dup2\n        /* \"#utility.yul\":9560:9604   */\n      add\n        /* \"#utility.yul\":9757:9759   */\n      0x20\n        /* \"#utility.yul\":9745:9755   */\n      dup6\n        /* \"#utility.yul\":9742:9760   */\n      lt\n        /* \"#utility.yul\":9739:9788   */\n      iszero\n      tag_293\n      jumpi\n        /* \"#utility.yul\":9778:9786   */\n      dup2\n        /* \"#utility.yul\":9763:9786   */\n      swap1\n      pop\n        /* \"#utility.yul\":9739:9788   */\n    tag_293:\n        /* \"#utility.yul\":9801:9881   */\n      tag_294\n        /* \"#utility.yul\":9857:9879   */\n      tag_295\n        /* \"#utility.yul\":9875:9878   */\n      dup6\n        /* \"#utility.yul\":9857:9879   */\n      tag_150\n      jump\t// in\n    tag_295:\n        /* \"#utility.yul\":9847:9855   */\n      dup4\n        /* \"#utility.yul\":9843:9880   */\n      add\n        /* \"#utility.yul\":9830:9841   */\n      dup3\n        /* \"#utility.yul\":9801:9881   */\n      tag_159\n      jump\t// in\n    tag_294:\n        /* \"#utility.yul\":9460:9891   */\n      pop\n      pop\n        /* \"#utility.yul\":9445:9891   */\n    tag_290:\n        /* \"#utility.yul\":9355:9898   */\n      pop\n      pop\n      pop\n      jump\t// out\n        /* \"#utility.yul\":9904:10021   */\n    tag_161:\n        /* \"#utility.yul\":9958:9966   */\n      0x00\n        /* \"#utility.yul\":10008:10013   */\n      dup3\n        /* \"#utility.yul\":10002:10006   */\n      dup3\n        /* \"#utility.yul\":9998:10014   */\n      shr\n        /* \"#utility.yul\":9977:10014   */\n      swap1\n      pop\n        /* \"#utility.yul\":9904:10021   */\n      swap3\n      swap2\n      pop\n      pop\n      jump\t// out\n        /* \"#utility.yul\":10027:10196   */\n    tag_162:\n        /* \"#utility.yul\":10071:10077   */\n      0x00\n        /* \"#utility.yul\":10104:10155   */\n      tag_298\n        /* \"#utility.yul\":10152:10153   */\n      0x00\n        /* \"#utility.yul\":10148:10154   */\n      not\n        /* \"#utility.yul\":10140:10145   */\n      dup5\n        /* \"#utility.yul\":10137:10138   */\n      0x08\n        /* \"#utility.yul\":10133:10146   */\n      mul\n        /* \"#utility.yul\":10104:10155   */\n      tag_161\n      jump\t// in\n    tag_298:\n        /* \"#utility.yul\":10100:10156   */\n      not\n        /* \"#utility.yul\":10185:10189   */\n      dup1\n        /* \"#utility.yul\":10179:10183   */\n      dup4\n        /* \"#utility.yul\":10175:10190   */\n      and\n        /* \"#utility.yul\":10165:10190   */\n      swap2\n      pop\n        /* \"#utility.yul\":10078:10196   */\n      pop\n        /* \"#utility.yul\":10027:10196   */\n      swap3\n      swap2\n      pop\n      pop\n      jump\t// out\n        /* \"#utility.yul\":10201:10496   */\n    tag_163:\n        /* \"#utility.yul\":10277:10281   */\n      0x00\n        /* \"#utility.yul\":10423:10452   */\n      tag_300\n        /* \"#utility.yul\":10448:10451   */\n      dup4\n        /* \"#utility.yul\":10442:10446   */\n      dup4\n        /* \"#utility.yul\":10423:10452   */\n      tag_162\n      jump\t// in\n    tag_300:\n        /* \"#utility.yul\":10415:10452   */\n      swap2\n      pop\n        /* \"#utility.yul\":10485:10488   */\n      dup3\n        /* \"#utility.yul\":10482:10483   */\n      0x02\n        /* \"#utility.yul\":10478:10489   */\n      mul\n        /* \"#utility.yul\":10472:10476   */\n      dup3\n        /* \"#utility.yul\":10469:10490   */\n      or\n        /* \"#utility.yul\":10461:10490   */\n      swap1\n      pop\n        /* \"#utility.yul\":10201:10496   */\n      swap3\n      swap2\n      pop\n      pop\n      jump\t// out\n        /* \"#utility.yul\":10501:11896   */\n    tag_36:\n        /* \"#utility.yul\":10618:10655   */\n      tag_302\n        /* \"#utility.yul\":10651:10654   */\n      dup3\n        /* \"#utility.yul\":10618:10655   */\n      tag_138\n      jump\t// in\n    tag_302:\n        /* \"#utility.yul\":10720:10738   */\n      0xffffffffffffffff\n        /* \"#utility.yul\":10712:10718   */\n      dup2\n        /* \"#utility.yul\":10709:10739   */\n      gt\n        /* \"#utility.yul\":10706:10762   */\n      iszero\n      tag_303\n      jumpi\n        /* \"#utility.yul\":10742:10760   */\n      tag_304\n      tag_147\n      jump\t// in\n    tag_304:\n        /* \"#utility.yul\":10706:10762   */\n    tag_303:\n        /* \"#utility.yul\":10786:10824   */\n      tag_305\n        /* \"#utility.yul\":10818:10822   */\n      dup3\n        /* \"#utility.yul\":10812:10823   */\n      sload\n        /* \"#utility.yul\":10786:10824   */\n      tag_117\n      jump\t// in\n    tag_305:\n        /* \"#utility.yul\":10871:10938   */\n      tag_306\n        /* \"#utility.yul\":10931:10937   */\n      dup3\n        /* \"#utility.yul\":10923:10929   */\n      dup3\n        /* \"#utility.yul\":10917:10921   */\n      dup6\n        /* \"#utility.yul\":10871:10938   */\n      tag_160\n      jump\t// in\n    tag_306:\n        /* \"#utility.yul\":10965:10966   */\n      0x00\n        /* \"#utility.yul\":10989:10993   */\n      0x20\n        /* \"#utility.yul\":10976:10993   */\n      swap1\n      pop\n        /* \"#utility.yul\":11021:11023   */\n      0x1f\n        /* \"#utility.yul\":11013:11019   */\n      dup4\n        /* \"#utility.yul\":11010:11024   */\n      gt\n        /* \"#utility.yul\":11038:11039   */\n      0x01\n        /* \"#utility.yul\":11033:11651   */\n      dup2\n      eq\n      tag_308\n      jumpi\n        /* \"#utility.yul\":11695:11696   */\n      0x00\n        /* \"#utility.yul\":11712:11718   */\n      dup5\n        /* \"#utility.yul\":11709:11786   */\n      iszero\n      tag_309\n      jumpi\n        /* \"#utility.yul\":11761:11770   */\n      dup3\n        /* \"#utility.yul\":11756:11759   */\n      dup8\n        /* \"#utility.yul\":11752:11771   */\n      add\n        /* \"#utility.yul\":11746:11772   */\n      mload\n        /* \"#utility.yul\":11737:11772   */\n      swap1\n      pop\n        /* \"#utility.yul\":11709:11786   */\n    tag_309:\n        /* \"#utility.yul\":11812:11879   */\n      tag_310\n        /* \"#utility.yul\":11872:11878   */\n      dup6\n        /* \"#utility.yul\":11865:11870   */\n      dup3\n        /* \"#utility.yul\":11812:11879   */\n      tag_163\n      jump\t// in\n    tag_310:\n        /* \"#utility.yul\":11806:11810   */\n      dup7\n        /* \"#utility.yul\":11799:11880   */\n      sstore\n        /* \"#utility.yul\":11668:11890   */\n      pop\n        /* \"#utility.yul\":11003:11890   */\n      jump(tag_307)\n        /* \"#utility.yul\":11033:11651   */\n    tag_308:\n        /* \"#utility.yul\":11085:11089   */\n      0x1f\n        /* \"#utility.yul\":11081:11090   */\n      not\n        /* \"#utility.yul\":11073:11079   */\n      dup5\n        /* \"#utility.yul\":11069:11091   */\n      and\n        /* \"#utility.yul\":11119:11156   */\n      tag_311\n        /* \"#utility.yul\":11151:11155   */\n      dup7\n        /* \"#utility.yul\":11119:11156   */\n      tag_149\n      jump\t// in\n    tag_311:\n        /* \"#utility.yul\":11178:11179   */\n      0x00\n        /* \"#utility.yul\":11192:11400   */\n    tag_312:\n        /* \"#utility.yul\":11206:11213   */\n      dup3\n        /* \"#utility.yul\":11203:11204   */\n      dup2\n        /* \"#utility.yul\":11200:11214   */\n      lt\n        /* \"#utility.yul\":11192:11400   */\n      iszero\n      tag_314\n      jumpi\n        /* \"#utility.yul\":11285:11294   */\n      dup5\n        /* \"#utility.yul\":11280:11283   */\n      dup10\n        /* \"#utility.yul\":11276:11295   */\n      add\n        /* \"#utility.yul\":11270:11296   */\n      mload\n        /* \"#utility.yul\":11262:11268   */\n      dup3\n        /* \"#utility.yul\":11255:11297   */\n      sstore\n        /* \"#utility.yul\":11336:11337   */\n      0x01\n        /* \"#utility.yul\":11328:11334   */\n      dup3\n        /* \"#utility.yul\":11324:11338   */\n      add\n        /* \"#utility.yul\":11314:11338   */\n      swap2\n      pop\n        /* \"#utility.yul\":11383:11385   */\n      0x20\n        /* \"#utility.yul\":11372:11381   */\n      dup6\n        /* \"#utility.yul\":11368:11386   */\n      add\n        /* \"#utility.yul\":11355:11386   */\n      swap5\n      pop\n        /* \"#utility.yul\":11229:11233   */\n      0x20\n        /* \"#utility.yul\":11226:11227   */\n      dup2\n        /* \"#utility.yul\":11222:11234   */\n      add\n        /* \"#utility.yul\":11217:11234   */\n      swap1\n      pop\n        /* \"#utility.yul\":11192:11400   */\n      jump(tag_312)\n    tag_314:\n        /* \"#utility.yul\":11428:11434   */\n      dup7\n        /* \"#utility.yul\":11419:11426   */\n      dup4\n        /* \"#utility.yul\":11416:11435   */\n      lt\n        /* \"#utility.yul\":11413:11592   */\n      iszero\n      tag_315\n      jumpi\n        /* \"#utility.yul\":11486:11495   */\n      dup5\n        /* \"#utility.yul\":11481:11484   */\n      dup10\n        /* \"#utility.yul\":11477:11496   */\n      add\n        /* \"#utility.yul\":11471:11497   */\n      mload\n        /* \"#utility.yul\":11529:11577   */\n      tag_316\n        /* \"#utility.yul\":11571:11575   */\n      0x1f\n        /* \"#utility.yul\":11563:11569   */\n      dup10\n        /* \"#utility.yul\":11559:11576   */\n      and\n        /* \"#utility.yul\":11548:11557   */\n      dup3\n        /* \"#utility.yul\":11529:11577   */\n      tag_162\n      jump\t// in\n    tag_316:\n        /* \"#utility.yul\":11521:11527   */\n      dup4\n        /* \"#utility.yul\":11514:11578   */\n      sstore\n        /* \"#utility.yul\":11436:11592   */\n      pop\n        /* \"#utility.yul\":11413:11592   */\n    tag_315:\n        /* \"#utility.yul\":11638:11639   */\n      0x01\n        /* \"#utility.yul\":11634:11635   */\n      0x02\n        /* \"#utility.yul\":11626:11632   */\n      dup9\n        /* \"#utility.yul\":11622:11636   */\n      mul\n        /* \"#utility.yul\":11618:11640   */\n      add\n        /* \"#utility.yul\":11612:11616   */\n      dup9\n        /* \"#utility.yul\":11605:11641   */\n      sstore\n        /* \"#utility.yul\":11040:11651   */\n      pop\n      pop\n      pop\n        /* \"#utility.yul\":11003:11890   */\n    tag_307:\n      pop\n        /* \"#utility.yul\":10593:11896   */\n      pop\n      pop\n      pop\n        /* \"#utility.yul\":10501:11896   */\n      pop\n      pop\n      jump\t// out\n        /* \"#utility.yul\":11902:12082   */\n    tag_164:\n        /* \"#utility.yul\":11950:12027   */\n      0x4e487b7100000000000000000000000000000000000000000000000000000000\n        /* \"#utility.yul\":11947:11948   */\n      0x00\n        /* \"#utility.yul\":11940:12028   */\n      mstore\n        /* \"#utility.yul\":12047:12051   */\n      0x11\n        /* \"#utility.yul\":12044:12045   */\n      0x04\n        /* \"#utility.yul\":12037:12052   */\n      mstore\n        /* \"#utility.yul\":12071:12075   */\n      0x24\n        /* \"#utility.yul\":12068:12069   */\n      0x00\n        /* \"#utility.yul\":12061:12076   */\n      revert\n        /* \"#utility.yul\":12088:12321   */\n    tag_40:\n        /* \"#utility.yul\":12127:12130   */\n      0x00\n        /* \"#utility.yul\":12150:12174   */\n      tag_319\n        /* \"#utility.yul\":12168:12173   */\n      dup3\n        /* \"#utility.yul\":12150:12174   */\n      tag_129\n      jump\t// in\n    tag_319:\n        /* \"#utility.yul\":12141:12174   */\n      swap2\n      pop\n        /* \"#utility.yul\":12196:12262   */\n      0xffffffffffffffffffffffffffffffffffffffffffffffffffffffffffffffff\n        /* \"#utility.yul\":12189:12194   */\n      dup3\n        /* \"#utility.yul\":12186:12263   */\n      sub\n        /* \"#utility.yul\":12183:12286   */\n      tag_320\n      jumpi\n        /* \"#utility.yul\":12266:12284   */\n      tag_321\n      tag_164\n      jump\t// in\n    tag_321:\n        /* \"#utility.yul\":12183:12286   */\n    tag_320:\n        /* \"#utility.yul\":12313:12314   */\n      0x01\n        /* \"#utility.yul\":12306:12311   */\n      dup3\n        /* \"#utility.yul\":12302:12315   */\n      add\n        /* \"#utility.yul\":12295:12315   */\n      swap1\n      pop\n        /* \"#utility.yul\":12088:12321   */\n      swap2\n      swap1\n      pop\n      jump\t// out\n        /* \"#utility.yul\":12327:12475   */\n    tag_165:\n        /* \"#utility.yul\":12425:12431   */\n      dup3\n        /* \"#utility.yul\":12420:12423   */\n      dup2\n        /* \"#utility.yul\":12415:12418   */\n      dup4\n        /* \"#utility.yul\":12402:12432   */\n      calldatacopy\n        /* \"#utility.yul\":12466:12467   */\n      0x00\n        /* \"#utility.yul\":12457:12463   */\n      dup4\n        /* \"#utility.yul\":12452:12455   */\n      dup4\n        /* \"#utility.yul\":12448:12464   */\n      add\n        /* \"#utility.yul\":12441:12468   */\n      mstore\n        /* \"#utility.yul\":12327:12475   */\n      pop\n      pop\n      pop\n      jump\t// out\n        /* \"#utility.yul\":12505:12822   */\n    tag_166:\n        /* \"#utility.yul\":12603:12606   */\n      0x00\n        /* \"#utility.yul\":12624:12695   */\n      tag_324\n        /* \"#utility.yul\":12688:12694   */\n      dup4\n        /* \"#utility.yul\":12683:12686   */\n      dup6\n        /* \"#utility.yul\":12624:12695   */\n      tag_139\n      jump\t// in\n    tag_324:\n        /* \"#utility.yul\":12617:12695   */\n      swap4\n      pop\n        /* \"#utility.yul\":12705:12761   */\n      tag_325\n        /* \"#utility.yul\":12754:12760   */\n      dup4\n        /* \"#utility.yul\":12749:12752   */\n      dup6\n        /* \"#utility.yul\":12742:12747   */\n      dup5\n        /* \"#utility.yul\":12705:12761   */\n      tag_165\n      jump\t// in\n    tag_325:\n        /* \"#utility.yul\":12786:12815   */\n      tag_326\n        /* \"#utility.yul\":12808:12814   */\n      dup4\n        /* \"#utility.yul\":12786:12815   */\n      tag_141\n      jump\t// in\n    tag_326:\n        /* \"#utility.yul\":12781:12784   */\n      dup5\n        /* \"#utility.yul\":12777:12816   */\n      add\n        /* \"#utility.yul\":12770:12816   */\n      swap1\n      pop\n        /* \"#utility.yul\":12505:12822   */\n      swap4\n      swap3\n      pop\n      pop\n      pop\n      jump\t// out\n        /* \"#utility.yul\":12828:13161   */\n    tag_42:\n        /* \"#utility.yul\":12951:12955   */\n      0x00\n        /* \"#utility.yul\":12989:12991   */\n      0x20\n        /* \"#utility.yul\":12978:12987   */\n      dup3\n        /* \"#utility.yul\":12974:12992   */\n      add\n        /* \"#utility.yul\":12966:12992   */\n      swap1\n      pop\n        /* \"#utility.yul\":13038:13047   */\n      dup2\n        /* \"#utility.yul\":13032:13036   */\n      dup2\n        /* \"#utility.yul\":13028:13048   */\n      sub\n        /* \"#utility.yul\":13024:13025   */\n      0x00\n        /* \"#utility.yul\":13013:13022   */\n      dup4\n        /* \"#utility.yul\":13009:13026   */\n      add\n        /* \"#utility.yul\":13002:13049   */\n      mstore\n        /* \"#utility.yul\":13066:13154   */\n      tag_328\n        /* \"#utility.yul\":13149:13153   */\n      dup2\n        /* \"#utility.yul\":13140:13146   */\n      dup5\n        /* \"#utility.yul\":13132:13138   */\n      dup7\n        /* \"#utility.yul\":13066:13154   */\n      tag_166\n      jump\t// in\n    tag_328:\n        /* \"#utility.yul\":13058:13154   */\n      swap1\n      pop\n        /* \"#utility.yul\":12828:13161   */\n      swap4\n      swap3\n      pop\n      pop\n      pop\n      jump\t// out\n        /* \"#utility.yul\":13167:13335   */\n    tag_167:\n        /* \"#utility.yul\":13307:13327   */\n      0x496e76616c69642070726f6a6563742049440000000000000000000000000000\n        /* \"#utility.yul\":13303:13304   */\n      0x00\n        /* \"#utility.yul\":13295:13301   */\n      dup3\n        /* \"#utility.yul\":13291:13305   */\n      add\n        /* \"#utility.yul\":13284:13328   */\n      mstore\n        /* \"#utility.yul\":13167:13335   */\n      pop\n      jump\t// out\n        /* \"#utility.yul\":13341:13707   */\n    tag_168:\n        /* \"#utility.yul\":13483:13486   */\n      0x00\n        /* \"#utility.yul\":13504:13571   */\n      tag_331\n        /* \"#utility.yul\":13568:13570   */\n      0x12\n        /* \"#utility.yul\":13563:13566   */\n      dup4\n        /* \"#utility.yul\":13504:13571   */\n      tag_139\n      jump\t// in\n    tag_331:\n        /* \"#utility.yul\":13497:13571   */\n      swap2\n      pop\n        /* \"#utility.yul\":13580:13673   */\n      tag_332\n        /* \"#utility.yul\":13669:13672   */\n      dup3\n        /* \"#utility.yul\":13580:13673   */\n      tag_167\n      jump\t// in\n    tag_332:\n        /* \"#utility.yul\":13698:13700   */\n      0x20\n        /* \"#utility.yul\":13693:13696   */\n      dup3\n        /* \"#utility.yul\":13689:13701   */\n      add\n        /* \"#utility.yul\":13682:13701   */\n      swap1\n      pop\n        /* \"#utility.yul\":13341:13707   */\n      swap2\n      swap1\n      pop\n      jump\t// out\n        /* \"#utility.yul\":13713:14132   */\n    tag_46:\n        /* \"#utility.yul\":13879:13883   */\n      0x00\n        /* \"#utility.yul\":13917:13919   */\n      0x20\n        /* \"#utility.yul\":13906:13915   */\n      dup3\n        /* \"#utility.yul\":13902:13920   */\n      add\n        /* \"#utility.yul\":13894:13920   */\n      swap1\n      pop\n        /* \"#utility.yul\":13966:13975   */\n      dup2\n        /* \"#utility.yul\":13960:13964   */\n      dup2\n        /* \"#utility.yul\":13956:13976   */\n      sub\n        /* \"#utility.yul\":13952:13953   */\n      0x00\n        /* \"#utility.yul\":13941:13950   */\n      dup4\n        /* \"#utility.yul\":13937:13954   */\n      add\n        /* \"#utility.yul\":13930:13977   */\n      mstore\n        /* \"#utility.yul\":13994:14125   */\n      tag_334\n        /* \"#utility.yul\":14120:14124   */\n      dup2\n        /* \"#utility.yul\":13994:14125   */\n      tag_168\n      jump\t// in\n    tag_334:\n        /* \"#utility.yul\":13986:14125   */\n      swap1\n      pop\n        /* \"#utility.yul\":13713:14132   */\n      swap2\n      swap1\n      pop\n      jump\t// out\n        /* \"#utility.yul\":14138:14307   */\n    tag_169:\n        /* \"#utility.yul\":14278:14299   */\n      0x4e6f742070726f6a656374206275696c64657200000000000000000000000000\n        /* \"#utility.yul\":14274:14275   */\n      0x00\n        /* \"#utility.yul\":14266:14272   */\n      dup3\n        /* \"#utility.yul\":14262:14276   */\n      add\n        /* \"#utility.yul\":14255:14300   */\n      mstore\n        /* \"#utility.yul\":14138:14307   */\n      pop\n      jump\t// out\n        /* \"#utility.yul\":14313:14679   */\n    tag_170:\n        /* \"#utility.yul\":14455:14458   */\n      0x00\n        /* \"#utility.yul\":14476:14543   */\n      tag_337\n        /* \"#utility.yul\":14540:14542   */\n      0x13\n        /* \"#utility.yul\":14535:14538   */\n      dup4\n        /* \"#utility.yul\":14476:14543   */\n      tag_139\n      jump\t// in\n    tag_337:\n        /* \"#utility.yul\":14469:14543   */\n      swap2\n      pop\n        /* \"#utility.yul\":14552:14645   */\n      tag_338\n        /* \"#utility.yul\":14641:14644   */\n      dup3\n        /* \"#utility.yul\":14552:14645   */\n      tag_169\n      jump\t// in\n    tag_338:\n        /* \"#utility.yul\":14670:14672   */\n      0x20\n        /* \"#utility.yul\":14665:14668   */\n      dup3\n        /* \"#utility.yul\":14661:14673   */\n      add\n        /* \"#utility.yul\":14654:14673   */\n      swap1\n      pop\n        /* \"#utility.yul\":14313:14679   */\n      swap2\n      swap1\n      pop\n      jump\t// out\n        /* \"#utility.yul\":14685:15104   */\n    tag_50:\n        /* \"#utility.yul\":14851:14855   */\n      0x00\n        /* \"#utility.yul\":14889:14891   */\n      0x20\n        /* \"#utility.yul\":14878:14887   */\n      dup3\n        /* \"#utility.yul\":14874:14892   */\n      add\n        /* \"#utility.yul\":14866:14892   */\n      swap1\n      pop\n        /* \"#utility.yul\":14938:14947   */\n      dup2\n        /* \"#utility.yul\":14932:14936   */\n      dup2\n        /* \"#utility.yul\":14928:14948   */\n      sub\n        /* \"#utility.yul\":14924:14925   */\n      0x00\n        /* \"#utility.yul\":14913:14922   */\n      dup4\n        /* \"#utility.yul\":14909:14926   */\n      add\n        /* \"#utility.yul\":14902:14949   */\n      mstore\n        /* \"#utility.yul\":14966:15097   */\n      tag_340\n        /* \"#utility.yul\":15092:15096   */\n      dup2\n        /* \"#utility.yul\":14966:15097   */\n      tag_170\n      jump\t// in\n    tag_340:\n        /* \"#utility.yul\":14958:15097   */\n      swap1\n      pop\n        /* \"#utility.yul\":14685:15104   */\n      swap2\n      swap1\n      pop\n      jump\t// out\n        /* \"#utility.yul\":15110:15337   */\n    tag_171:\n        /* \"#utility.yul\":15250:15284   */\n      0x43616e206f6e6c7920757064617465206d6574616461746120696e2044726166\n        /* \"#utility.yul\":15246:15247   */\n      0x00\n        /* \"#utility.yul\":15238:15244   */\n      dup3\n        /* \"#utility.yul\":15234:15248   */\n      add\n        /* \"#utility.yul\":15227:15285   */\n      mstore\n        /* \"#utility.yul\":15319:15329   */\n      0x7420737461747573000000000000000000000000000000000000000000000000\n        /* \"#utility.yul\":15314:15316   */\n      0x20\n        /* \"#utility.yul\":15306:15312   */\n      dup3\n        /* \"#utility.yul\":15302:15317   */\n      add\n        /* \"#utility.yul\":15295:15330   */\n      mstore\n        /* \"#utility.yul\":15110:15337   */\n      pop\n      jump\t// out\n        /* \"#utility.yul\":15343:15709   */\n    tag_172:\n        /* \"#utility.yul\":15485:15488   */\n      0x00\n        /* \"#utility.yul\":15506:15573   */\n      tag_343\n        /* \"#utility.yul\":15570:15572   */\n      0x28\n        /* \"#utility.yul\":15565:15568   */\n      dup4\n        /* \"#utility.yul\":15506:15573   */\n      tag_139\n      jump\t// in\n    tag_343:\n        /* \"#utility.yul\":15499:15573   */\n      swap2\n      pop\n        /* \"#utility.yul\":15582:15675   */\n      tag_344\n        /* \"#utility.yul\":15671:15674   */\n      dup3\n        /* \"#utility.yul\":15582:15675   */\n      tag_171\n      jump\t// in\n    tag_344:\n        /* \"#utility.yul\":15700:15702   */\n      0x40\n        /* \"#utility.yul\":15695:15698   */\n      dup3\n        /* \"#utility.yul\":15691:15703   */\n      add\n        /* \"#utility.yul\":15684:15703   */\n      swap1\n      pop\n        /* \"#utility.yul\":15343:15709   */\n      swap2\n      swap1\n      pop\n      jump\t// out\n        /* \"#utility.yul\":15715:16134   */\n    tag_58:\n        /* \"#utility.yul\":15881:15885   */\n      0x00\n        /* \"#utility.yul\":15919:15921   */\n      0x20\n        /* \"#utility.yul\":15908:15917   */\n      dup3\n        /* \"#utility.yul\":15904:15922   */\n      add\n        /* \"#utility.yul\":15896:15922   */\n      swap1\n      pop\n        /* \"#utility.yul\":15968:15977   */\n      dup2\n        /* \"#utility.yul\":15962:15966   */\n      dup2\n        /* \"#utility.yul\":15958:15978   */\n      sub\n        /* \"#utility.yul\":15954:15955   */\n      0x00\n        /* \"#utility.yul\":15943:15952   */\n      dup4\n        /* \"#utility.yul\":15939:15956   */\n      add\n        /* \"#utility.yul\":15932:15979   */\n      mstore\n        /* \"#utility.yul\":15996:16127   */\n      tag_346\n        /* \"#utility.yul\":16122:16126   */\n      dup2\n        /* \"#utility.yul\":15996:16127   */\n      tag_172\n      jump\t// in\n    tag_346:\n        /* \"#utility.yul\":15988:16127   */\n      swap1\n      pop\n        /* \"#utility.yul\":15715:16134   */\n      swap2\n      swap1\n      pop\n      jump\t// out\n        /* \"#utility.yul\":16140:16237   */\n    tag_173:\n        /* \"#utility.yul\":16199:16205   */\n      0x00\n        /* \"#utility.yul\":16227:16230   */\n      dup3\n        /* \"#utility.yul\":16217:16230   */\n      swap1\n      pop\n        /* \"#utility.yul\":16140:16237   */\n      swap3\n      swap2\n      pop\n      pop\n      jump\t// out\n        /* \"#utility.yul\":16243:17646   */\n    tag_61:\n        /* \"#utility.yul\":16367:16411   */\n      tag_349\n        /* \"#utility.yul\":16407:16410   */\n      dup4\n        /* \"#utility.yul\":16402:16405   */\n      dup4\n        /* \"#utility.yul\":16367:16411   */\n      tag_173\n      jump\t// in\n    tag_349:\n        /* \"#utility.yul\":16476:16494   */\n      0xffffffffffffffff\n        /* \"#utility.yul\":16468:16474   */\n      dup2\n        /* \"#utility.yul\":16465:16495   */\n      gt\n        /* \"#utility.yul\":16462:16518   */\n      iszero\n      tag_350\n      jumpi\n        /* \"#utility.yul\":16498:16516   */\n      tag_351\n      tag_147\n      jump\t// in\n    tag_351:\n        /* \"#utility.yul\":16462:16518   */\n    tag_350:\n        /* \"#utility.yul\":16542:16580   */\n      tag_352\n        /* \"#utility.yul\":16574:16578   */\n      dup3\n        /* \"#utility.yul\":16568:16579   */\n      sload\n        /* \"#utility.yul\":16542:16580   */\n      tag_117\n      jump\t// in\n    tag_352:\n        /* \"#utility.yul\":16627:16694   */\n      tag_353\n        /* \"#utility.yul\":16687:16693   */\n      dup3\n        /* \"#utility.yul\":16679:16685   */\n      dup3\n        /* \"#utility.yul\":16673:16677   */\n      dup6\n        /* \"#utility.yul\":16627:16694   */\n      tag_160\n      jump\t// in\n    tag_353:\n        /* \"#utility.yul\":16721:16722   */\n      0x00\n        /* \"#utility.yul\":16750:16752   */\n      0x1f\n        /* \"#utility.yul\":16742:16748   */\n      dup4\n        /* \"#utility.yul\":16739:16753   */\n      gt\n        /* \"#utility.yul\":16767:16768   */\n      0x01\n        /* \"#utility.yul\":16762:17394   */\n      dup2\n      eq\n      tag_355\n      jumpi\n        /* \"#utility.yul\":17438:17439   */\n      0x00\n        /* \"#utility.yul\":17455:17461   */\n      dup5\n        /* \"#utility.yul\":17452:17536   */\n      iszero\n      tag_356\n      jumpi\n        /* \"#utility.yul\":17511:17520   */\n      dup3\n        /* \"#utility.yul\":17506:17509   */\n      dup8\n        /* \"#utility.yul\":17502:17521   */\n      add\n        /* \"#utility.yul\":17489:17522   */\n      calldataload\n        /* \"#utility.yul\":17480:17522   */\n      swap1\n      pop\n        /* \"#utility.yul\":17452:17536   */\n    tag_356:\n        /* \"#utility.yul\":17562:17629   */\n      tag_357\n        /* \"#utility.yul\":17622:17628   */\n      dup6\n        /* \"#utility.yul\":17615:17620   */\n      dup3\n        /* \"#utility.yul\":17562:17629   */\n      tag_163\n      jump\t// in\n    tag_357:\n        /* \"#utility.yul\":17556:17560   */\n      dup7\n        /* \"#utility.yul\":17549:17630   */\n      sstore\n        /* \"#utility.yul\":17411:17640   */\n      pop\n        /* \"#utility.yul\":16732:17640   */\n      jump(tag_354)\n        /* \"#utility.yul\":16762:17394   */\n    tag_355:\n        /* \"#utility.yul\":16814:16818   */\n      0x1f\n        /* \"#utility.yul\":16810:16819   */\n      not\n        /* \"#utility.yul\":16802:16808   */\n      dup5\n        /* \"#utility.yul\":16798:16820   */\n      and\n        /* \"#utility.yul\":16848:16885   */\n      tag_358\n        /* \"#utility.yul\":16880:16884   */\n      dup7\n        /* \"#utility.yul\":16848:16885   */\n      tag_149\n      jump\t// in\n    tag_358:\n        /* \"#utility.yul\":16907:16908   */\n      0x00\n        /* \"#utility.yul\":16921:17136   */\n    tag_359:\n        /* \"#utility.yul\":16935:16942   */\n      dup3\n        /* \"#utility.yul\":16932:16933   */\n      dup2\n        /* \"#utility.yul\":16929:16943   */\n      lt\n        /* \"#utility.yul\":16921:17136   */\n      iszero\n      tag_361\n      jumpi\n        /* \"#utility.yul\":17021:17030   */\n      dup5\n        /* \"#utility.yul\":17016:17019   */\n      dup10\n        /* \"#utility.yul\":17012:17031   */\n      add\n        /* \"#utility.yul\":16999:17032   */\n      calldataload\n        /* \"#utility.yul\":16991:16997   */\n      dup3\n        /* \"#utility.yul\":16984:17033   */\n      sstore\n        /* \"#utility.yul\":17072:17073   */\n      0x01\n        /* \"#utility.yul\":17064:17070   */\n      dup3\n        /* \"#utility.yul\":17060:17074   */\n      add\n        /* \"#utility.yul\":17050:17074   */\n      swap2\n      pop\n        /* \"#utility.yul\":17119:17121   */\n      0x20\n        /* \"#utility.yul\":17108:17117   */\n      dup6\n        /* \"#utility.yul\":17104:17122   */\n      add\n        /* \"#utility.yul\":17091:17122   */\n      swap5\n      pop\n        /* \"#utility.yul\":16958:16962   */\n      0x20\n        /* \"#utility.yul\":16955:16956   */\n      dup2\n        /* \"#utility.yul\":16951:16963   */\n      add\n        /* \"#utility.yul\":16946:16963   */\n      swap1\n      pop\n        /* \"#utility.yul\":16921:17136   */\n      jump(tag_359)\n    tag_361:\n        /* \"#utility.yul\":17164:17170   */\n      dup7\n        /* \"#utility.yul\":17155:17162   */\n      dup4\n        /* \"#utility.yul\":17152:17171   */\n      lt\n        /* \"#utility.yul\":17149:17335   */\n      iszero\n      tag_362\n      jumpi\n        /* \"#utility.yul\":17229:17238   */\n      dup5\n        /* \"#utility.yul\":17224:17227   */\n      dup10\n        /* \"#utility.yul\":17220:17239   */\n      add\n        /* \"#utility.yul\":17207:17240   */\n      calldataload\n        /* \"#utility.yul\":17272:17320   */\n      tag_363\n        /* \"#utility.yul\":17314:17318   */\n      0x1f\n        /* \"#utility.yul\":17306:17312   */\n      dup10\n        /* \"#utility.yul\":17302:17319   */\n      and\n        /* \"#utility.yul\":17291:17300   */\n      dup3\n        /* \"#utility.yul\":17272:17320   */\n      tag_162\n      jump\t// in\n    tag_363:\n        /* \"#utility.yul\":17264:17270   */\n      dup4\n        /* \"#utility.yul\":17257:17321   */\n      sstore\n        /* \"#utility.yul\":17172:17335   */\n      pop\n        /* \"#utility.yul\":17149:17335   */\n    tag_362:\n        /* \"#utility.yul\":17381:17382   */\n      0x01\n        /* \"#utility.yul\":17377:17378   */\n      0x02\n        /* \"#utility.yul\":17369:17375   */\n      dup9\n        /* \"#utility.yul\":17365:17379   */\n      mul\n        /* \"#utility.yul\":17361:17383   */\n      add\n        /* \"#utility.yul\":17355:17359   */\n      dup9\n        /* \"#utility.yul\":17348:17384   */\n      sstore\n        /* \"#utility.yul\":16769:17394   */\n      pop\n      pop\n      pop\n        /* \"#utility.yul\":16732:17640   */\n    tag_354:\n      pop\n        /* \"#utility.yul\":16342:17646   */\n      pop\n      pop\n      pop\n        /* \"#utility.yul\":16243:17646   */\n      pop\n      pop\n      pop\n      jump\t// out\n        /* \"#utility.yul\":17652:17818   */\n    tag_174:\n        /* \"#utility.yul\":17792:17810   */\n      0x53746174757320756e6368616e67656400000000000000000000000000000000\n        /* \"#utility.yul\":17788:17789   */\n      0x00\n        /* \"#utility.yul\":17780:17786   */\n      dup3\n        /* \"#utility.yul\":17776:17790   */\n      add\n        /* \"#utility.yul\":17769:17811   */\n      mstore\n        /* \"#utility.yul\":17652:17818   */\n      pop\n      jump\t// out\n        /* \"#utility.yul\":17824:18190   */\n    tag_175:\n        /* \"#utility.yul\":17966:17969   */\n      0x00\n        /* \"#utility.yul\":17987:18054   */\n      tag_366\n        /* \"#utility.yul\":18051:18053   */\n      0x10\n        /* \"#utility.yul\":18046:18049   */\n      dup4\n        /* \"#utility.yul\":17987:18054   */\n      tag_139\n      jump\t// in\n    tag_366:\n        /* \"#utility.yul\":17980:18054   */\n      swap2\n      pop\n        /* \"#utility.yul\":18063:18156   */\n      tag_367\n        /* \"#utility.yul\":18152:18155   */\n      dup3\n        /* \"#utility.yul\":18063:18156   */\n      tag_174\n      jump\t// in\n    tag_367:\n        /* \"#utility.yul\":18181:18183   */\n      0x20\n        /* \"#utility.yul\":18176:18179   */\n      dup3\n        /* \"#utility.yul\":18172:18184   */\n      add\n        /* \"#utility.yul\":18165:18184   */\n      swap1\n      pop\n        /* \"#utility.yul\":17824:18190   */\n      swap2\n      swap1\n      pop\n      jump\t// out\n        /* \"#utility.yul\":18196:18615   */\n    tag_76:\n        /* \"#utility.yul\":18362:18366   */\n      0x00\n        /* \"#utility.yul\":18400:18402   */\n      0x20\n        /* \"#utility.yul\":18389:18398   */\n      dup3\n        /* \"#utility.yul\":18385:18403   */\n      add\n        /* \"#utility.yul\":18377:18403   */\n      swap1\n      pop\n        /* \"#utility.yul\":18449:18458   */\n      dup2\n        /* \"#utility.yul\":18443:18447   */\n      dup2\n        /* \"#utility.yul\":18439:18459   */\n      sub\n        /* \"#utility.yul\":18435:18436   */\n      0x00\n        /* \"#utility.yul\":18424:18433   */\n      dup4\n        /* \"#utility.yul\":18420:18437   */\n      add\n        /* \"#utility.yul\":18413:18460   */\n      mstore\n        /* \"#utility.yul\":18477:18608   */\n      tag_369\n        /* \"#utility.yul\":18603:18607   */\n      dup2\n        /* \"#utility.yul\":18477:18608   */\n      tag_175\n      jump\t// in\n    tag_369:\n        /* \"#utility.yul\":18469:18608   */\n      swap1\n      pop\n        /* \"#utility.yul\":18196:18615   */\n      swap2\n      swap1\n      pop\n      jump\t// out\n        /* \"#utility.yul\":18621:18796   */\n    tag_176:\n        /* \"#utility.yul\":18761:18788   */\n      0x496e76616c696420737461747573207472616e736974696f6e00000000000000\n        /* \"#utility.yul\":18757:18758   */\n      0x00\n        /* \"#utility.yul\":18749:18755   */\n      dup3\n        /* \"#utility.yul\":18745:18759   */\n      add\n        /* \"#utility.yul\":18738:18789   */\n      mstore\n        /* \"#utility.yul\":18621:18796   */\n      pop\n      jump\t// out\n        /* \"#utility.yul\":18802:19168   */\n    tag_177:\n        /* \"#utility.yul\":18944:18947   */\n      0x00\n        /* \"#utility.yul\":18965:19032   */\n      tag_372\n        /* \"#utility.yul\":19029:19031   */\n      0x19\n        /* \"#utility.yul\":19024:19027   */\n      dup4\n        /* \"#utility.yul\":18965:19032   */\n      tag_139\n      jump\t// in\n    tag_372:\n        /* \"#utility.yul\":18958:19032   */\n      swap2\n      pop\n        /* \"#utility.yul\":19041:19134   */\n      tag_373\n        /* \"#utility.yul\":19130:19133   */\n      dup3\n        /* \"#utility.yul\":19041:19134   */\n      tag_176\n      jump\t// in\n    tag_373:\n        /* \"#utility.yul\":19159:19161   */\n      0x20\n        /* \"#utility.yul\":19154:19157   */\n      dup3\n        /* \"#utility.yul\":19150:19162   */\n      add\n        /* \"#utility.yul\":19143:19162   */\n      swap1\n      pop\n        /* \"#utility.yul\":18802:19168   */\n      swap2\n      swap1\n      pop\n      jump\t// out\n        /* \"#utility.yul\":19174:19593   */\n    tag_103:\n        /* \"#utility.yul\":19340:19344   */\n      0x00\n        /* \"#utility.yul\":19378:19380   */\n      0x20\n        /* \"#utility.yul\":19367:19376   */\n      dup3\n        /* \"#utility.yul\":19363:19381   */\n      add\n        /* \"#utility.yul\":19355:19381   */\n      swap1\n      pop\n        /* \"#utility.yul\":19427:19436   */\n      dup2\n        /* \"#utility.yul\":19421:19425   */\n      dup2\n        /* \"#utility.yul\":19417:19437   */\n      sub\n        /* \"#utility.yul\":19413:19414   */\n      0x00\n        /* \"#utility.yul\":19402:19411   */\n      dup4\n        /* \"#utility.yul\":19398:19415   */\n      add\n        /* \"#utility.yul\":19391:19438   */\n      mstore\n        /* \"#utility.yul\":19455:19586   */\n      tag_375\n        /* \"#utility.yul\":19581:19585   */\n      dup2\n        /* \"#utility.yul\":19455:19586   */\n      tag_177\n      jump\t// in\n    tag_375:\n        /* \"#utility.yul\":19447:19586   */\n      swap1\n      pop\n        /* \"#utility.yul\":19174:19593   */\n      swap2\n      swap1\n      pop\n      jump\t// out\n        /* \"#utility.yul\":19599:19685   */\n    tag_178:\n        /* \"#utility.yul\":19634:19641   */\n      0x00\n        /* \"#utility.yul\":19674:19678   */\n      0xff\n        /* \"#utility.yul\":19667:19672   */\n      dup3\n        /* \"#utility.yul\":19663:19679   */\n      and\n        /* \"#utility.yul\":19652:19679   */\n      swap1\n      pop\n        /* \"#utility.yul\":19599:19685   */\n      swap2\n      swap1\n      pop\n      jump\t// out\n        /* \"#utility.yul\":19691:19803   */\n    tag_179:\n        /* \"#utility.yul\":19774:19796   */\n      tag_378\n        /* \"#utility.yul\":19790:19795   */\n      dup2\n        /* \"#utility.yul\":19774:19796   */\n      tag_178\n      jump\t// in\n    tag_378:\n        /* \"#utility.yul\":19769:19772   */\n      dup3\n        /* \"#utility.yul\":19762:19797   */\n      mstore\n        /* \"#utility.yul\":19691:19803   */\n      pop\n      pop\n      jump\t// out\n        /* \"#utility.yul\":19809:20125   */\n    tag_111:\n        /* \"#utility.yul\":19922:19926   */\n      0x00\n        /* \"#utility.yul\":19960:19962   */\n      0x40\n        /* \"#utility.yul\":19949:19958   */\n      dup3\n        /* \"#utility.yul\":19945:19963   */\n      add\n        /* \"#utility.yul\":19937:19963   */\n      swap1\n      pop\n        /* \"#utility.yul\":19973:20040   */\n      tag_380\n        /* \"#utility.yul\":20037:20038   */\n      0x00\n        /* \"#utility.yul\":20026:20035   */\n      dup4\n        /* \"#utility.yul\":20022:20039   */\n      add\n        /* \"#utility.yul\":20013:20019   */\n      dup6\n        /* \"#utility.yul\":19973:20040   */\n      tag_179\n      jump\t// in\n    tag_380:\n        /* \"#utility.yul\":20050:20118   */\n      tag_381\n        /* \"#utility.yul\":20114:20116   */\n      0x20\n        /* \"#utility.yul\":20103:20112   */\n      dup4\n        /* \"#utility.yul\":20099:20117   */\n      add\n        /* \"#utility.yul\":20090:20096   */\n      dup5\n        /* \"#utility.yul\":20050:20118   */\n      tag_179\n      jump\t// in\n    tag_381:\n        /* \"#utility.yul\":19809:20125   */\n      swap4\n      swap3\n      pop\n      pop\n      pop\n      jump\t// out\n\n    auxdata: 0xa26469706673582212204eb15e75540bf217bf483aa9d97fb605b11fcdb09553f95c7aa5d1752afc6e2664736f6c634300081e0033\n}\n",
				"bytecode": {
					"linkReferences": {},
					"object": "6080604052348015600e575f5ffd5b506113778061001c5f395ff3fe608060405234801561000f575f5ffd5b5060043610610055575f3560e01c806372212ec71461005957806391546c3414610089578063d11d498b146100a5578063e935b7b1146100c1578063f0f3f2c8146100df575b5f5ffd5b610073600480360381019061006e9190610944565b610111565b60405161008091906109a7565b60405180910390f35b6100a3600480360381019061009e91906109ea565b6102ab565b005b6100bf60048036038101906100ba9190610a6a565b610482565b005b6100c96107a9565b6040516100d691906109a7565b60405180910390f35b6100f960048036038101906100f49190610aa8565b6107ae565b60405161010893929190610bf5565b60405180910390f35b5f5f5f54905060405180606001604052803373ffffffffffffffffffffffffffffffffffffffff16815260200185858080601f0160208091040260200160405190810160405280939291908181526020018383808284375f81840152601f19601f8201169050808301925050505050505081526020015f600381111561019a57610199610b82565b5b81525060015f8381526020019081526020015f205f820151815f015f6101000a81548173ffffffffffffffffffffffffffffffffffffffff021916908373ffffffffffffffffffffffffffffffffffffffff16021790555060208201518160010190816102079190610e5b565b506040820151816002015f6101000a81548160ff0219169083600381111561023257610231610b82565b5b02179055509050505f5f81548092919061024b90610f57565b91905055503373ffffffffffffffffffffffffffffffffffffffff16817f1fb4423aed62bba3e66f7c81a4af273642c7e8c57d7b111ae2b1aca9887869ba8686604051610299929190610fd8565b60405180910390a38091505092915050565b825f5481106102ef576040517f08c379a00000000000000000000000000000000000000000000000000000000081526004016102e690611044565b60405180910390fd5b833373ffffffffffffffffffffffffffffffffffffffff1660015f8381526020019081526020015f205f015f9054906101000a900473ffffffffffffffffffffffffffffffffffffffff1673ffffffffffffffffffffffffffffffffffffffff1614610390576040517f08c379a0000000000000000000000000000000000000000000000000000000008152600401610387906110ac565b60405180910390fd5b845f60038111156103a4576103a3610b82565b5b60015f8381526020019081526020015f206002015f9054906101000a900460ff1660038111156103d7576103d6610b82565b5b14610417576040517f08c379a000000000000000000000000000000000000000000000000000000000815260040161040e9061113a565b60405180910390fd5b5f60015f8881526020019081526020015f209050858582600101918261043e929190611162565b50867f2f6dd8c35b9f3b35c8dbe5478c90a7769dae232141bdc277b1938aaa59e5c8a48787604051610471929190610fd8565b60405180910390a250505050505050565b815f5481106104c6576040517f08c379a00000000000000000000000000000000000000000000000000000000081526004016104bd90611044565b60405180910390fd5b823373ffffffffffffffffffffffffffffffffffffffff1660015f8381526020019081526020015f205f015f9054906101000a900473ffffffffffffffffffffffffffffffffffffffff1673ffffffffffffffffffffffffffffffffffffffff1614610567576040517f08c379a000000000000000000000000000000000000000000000000000000000815260040161055e906110ac565b60405180910390fd5b5f60015f8681526020019081526020015f2090505f816002015f9054906101000a900460ff1690508060038111156105a2576105a1610b82565b5b8560038111156105b5576105b4610b82565b5b036105f5576040517f08c379a00000000000000000000000000000000000000000000000000000000081526004016105ec90611279565b60405180910390fd5b5f600381111561060857610607610b82565b5b81600381111561061b5761061a610b82565b5b14801561064c57506001600381111561063757610636610b82565b5b85600381111561064a57610649610b82565b5b145b806106d957506001600381111561066657610665610b82565b5b81600381111561067957610678610b82565b5b1480156106d857506002600381111561069557610694610b82565b5b8560038111156106a8576106a7610b82565b5b14806106d757506003808111156106c2576106c1610b82565b5b8560038111156106d5576106d4610b82565b5b145b5b5b610718576040517f08c379a000000000000000000000000000000000000000000000000000000000815260040161070f906112e1565b60405180910390fd5b84826002015f6101000a81548160ff0219169083600381111561073e5761073d610b82565b5b0217905550857f15a4a29eccf92a0bbf94f24a6840487aa0226f7fb02d3402f1f86b3360bdfc6a82600381111561077857610777610b82565b5b87600381111561078b5761078a610b82565b5b60405161079992919061131a565b60405180910390a2505050505050565b5f5481565b5f60605f835f5481106107f6576040517f08c379a00000000000000000000000000000000000000000000000000000000081526004016107ed90611044565b60405180910390fd5b5f60015f8781526020019081526020015f209050805f015f9054906101000a900473ffffffffffffffffffffffffffffffffffffffff1681600101826002015f9054906101000a900460ff1681805461084e90610c8b565b80601f016020809104026020016040519081016040528092919081815260200182805461087a90610c8b565b80156108c55780601f1061089c576101008083540402835291602001916108c5565b820191905f5260205f20905b8154815290600101906020018083116108a857829003601f168201915b5050505050915094509450945050509193909250565b5f5ffd5b5f5ffd5b5f5ffd5b5f5ffd5b5f5ffd5b5f5f83601f840112610904576109036108e3565b5b8235905067ffffffffffffffff811115610921576109206108e7565b5b60208301915083600182028301111561093d5761093c6108eb565b5b9250929050565b5f5f6020838503121561095a576109596108db565b5b5f83013567ffffffffffffffff811115610977576109766108df565b5b610983858286016108ef565b92509250509250929050565b5f819050919050565b6109a18161098f565b82525050565b5f6020820190506109ba5f830184610998565b92915050565b6109c98161098f565b81146109d3575f5ffd5b50565b5f813590506109e4816109c0565b92915050565b5f5f5f60408486031215610a0157610a006108db565b5b5f610a0e868287016109d6565b935050602084013567ffffffffffffffff811115610a2f57610a2e6108df565b5b610a3b868287016108ef565b92509250509250925092565b60048110610a53575f5ffd5b50565b5f81359050610a6481610a47565b92915050565b5f5f60408385031215610a8057610a7f6108db565b5b5f610a8d858286016109d6565b9250506020610a9e85828601610a56565b9150509250929050565b5f60208284031215610abd57610abc6108db565b5b5f610aca848285016109d6565b91505092915050565b5f73ffffffffffffffffffffffffffffffffffffffff82169050919050565b5f610afc82610ad3565b9050919050565b610b0c81610af2565b82525050565b5f81519050919050565b5f82825260208201905092915050565b8281835e5f83830152505050565b5f601f19601f8301169050919050565b5f610b5482610b12565b610b5e8185610b1c565b9350610b6e818560208601610b2c565b610b7781610b3a565b840191505092915050565b7f4e487b71000000000000000000000000000000000000000000000000000000005f52602160045260245ffd5b60048110610bc057610bbf610b82565b5b50565b5f819050610bd082610baf565b919050565b5f610bdf82610bc3565b9050919050565b610bef81610bd5565b82525050565b5f606082019050610c085f830186610b03565b8181036020830152610c1a8185610b4a565b9050610c296040830184610be6565b949350505050565b7f4e487b71000000000000000000000000000000000000000000000000000000005f52604160045260245ffd5b7f4e487b71000000000000000000000000000000000000000000000000000000005f52602260045260245ffd5b5f6002820490506001821680610ca257607f821691505b602082108103610cb557610cb4610c5e565b5b50919050565b5f819050815f5260205f209050919050565b5f6020601f8301049050919050565b5f82821b905092915050565b5f60088302610d177fffffffffffffffffffffffffffffffffffffffffffffffffffffffffffffffff82610cdc565b610d218683610cdc565b95508019841693508086168417925050509392505050565b5f819050919050565b5f610d5c610d57610d528461098f565b610d39565b61098f565b9050919050565b5f819050919050565b610d7583610d42565b610d89610d8182610d63565b848454610ce8565b825550505050565b5f5f905090565b610da0610d91565b610dab818484610d6c565b505050565b5b81811015610dce57610dc35f82610d98565b600181019050610db1565b5050565b601f821115610e1357610de481610cbb565b610ded84610ccd565b81016020851015610dfc578190505b610e10610e0885610ccd565b830182610db0565b50505b505050565b5f82821c905092915050565b5f610e335f1984600802610e18565b1980831691505092915050565b5f610e4b8383610e24565b9150826002028217905092915050565b610e6482610b12565b67ffffffffffffffff811115610e7d57610e7c610c31565b5b610e878254610c8b565b610e92828285610dd2565b5f60209050601f831160018114610ec3575f8415610eb1578287015190505b610ebb8582610e40565b865550610f22565b601f198416610ed186610cbb565b5f5b82811015610ef857848901518255600182019150602085019450602081019050610ed3565b86831015610f155784890151610f11601f891682610e24565b8355505b6001600288020188555050505b505050505050565b7f4e487b71000000000000000000000000000000000000000000000000000000005f52601160045260245ffd5b5f610f618261098f565b91507fffffffffffffffffffffffffffffffffffffffffffffffffffffffffffffffff8203610f9357610f92610f2a565b5b600182019050919050565b828183375f83830152505050565b5f610fb78385610b1c565b9350610fc4838584610f9e565b610fcd83610b3a565b840190509392505050565b5f6020820190508181035f830152610ff1818486610fac565b90509392505050565b7f496e76616c69642070726f6a65637420494400000000000000000000000000005f82015250565b5f61102e601283610b1c565b915061103982610ffa565b602082019050919050565b5f6020820190508181035f83015261105b81611022565b9050919050565b7f4e6f742070726f6a656374206275696c646572000000000000000000000000005f82015250565b5f611096601383610b1c565b91506110a182611062565b602082019050919050565b5f6020820190508181035f8301526110c38161108a565b9050919050565b7f43616e206f6e6c7920757064617465206d6574616461746120696e20447261665f8201527f7420737461747573000000000000000000000000000000000000000000000000602082015250565b5f611124602883610b1c565b915061112f826110ca565b604082019050919050565b5f6020820190508181035f83015261115181611118565b9050919050565b5f82905092915050565b61116c8383611158565b67ffffffffffffffff81111561118557611184610c31565b5b61118f8254610c8b565b61119a828285610dd2565b5f601f8311600181146111c7575f84156111b5578287013590505b6111bf8582610e40565b865550611226565b601f1984166111d586610cbb565b5f5b828110156111fc578489013582556001820191506020850194506020810190506111d7565b868310156112195784890135611215601f891682610e24565b8355505b6001600288020188555050505b50505050505050565b7f53746174757320756e6368616e676564000000000000000000000000000000005f82015250565b5f611263601083610b1c565b915061126e8261122f565b602082019050919050565b5f6020820190508181035f83015261129081611257565b9050919050565b7f496e76616c696420737461747573207472616e736974696f6e000000000000005f82015250565b5f6112cb601983610b1c565b91506112d682611297565b602082019050919050565b5f6020820190508181035f8301526112f8816112bf565b9050919050565b5f60ff82169050919050565b611314816112ff565b82525050565b5f60408201905061132d5f83018561130b565b61133a602083018461130b565b939250505056fea26469706673582212204eb15e75540bf217bf483aa9d97fb605b11fcdb09553f95c7aa5d1752afc6e2664736f6c634300081e0033",
					"opcodes": "PUSH1 0x80 PUSH1 0x40 MSTORE CALLVALUE DUP1 ISZERO PUSH1 0xE JUMPI PUSH0 PUSH0 REVERT JUMPDEST POP PUSH2 0x1377 DUP1 PUSH2 0x1C PUSH0 CODECOPY PUSH0 RETURN INVALID PUSH1 0x80 PUSH1 0x40 MSTORE CALLVALUE DUP1 ISZERO PUSH2 0xF JUMPI PUSH0 PUSH0 REVERT JUMPDEST POP PUSH1 0x4 CALLDATASIZE LT PUSH2 0x55 JUMPI PUSH0 CALLDATALOAD PUSH1 0xE0 SHR DUP1 PUSH4 0x72212EC7 EQ PUSH2 0x59 JUMPI DUP1 PUSH4 0x91546C34 EQ PUSH2 0x89 JUMPI DUP1 PUSH4 0xD11D498B EQ PUSH2 0xA5 JUMPI DUP1 PUSH4 0xE935B7B1 EQ PUSH2 0xC1 JUMPI DUP1 PUSH4 0xF0F3F2C8 EQ PUSH2 0xDF JUMPI JUMPDEST PUSH0 PUSH0 REVERT JUMPDEST PUSH2 0x73 PUSH1 0x4 DUP1 CALLDATASIZE SUB DUP2 ADD SWAP1 PUSH2 0x6E SWAP2 SWAP1 PUSH2 0x944 JUMP JUMPDEST PUSH2 0x111 JUMP JUMPDEST PUSH1 0x40 MLOAD PUSH2 0x80 SWAP2 SWAP1 PUSH2 0x9A7 JUMP JUMPDEST PUSH1 0x40 MLOAD DUP1 SWAP2 SUB SWAP1 RETURN JUMPDEST PUSH2 0xA3 PUSH1 0x4 DUP1 CALLDATASIZE SUB DUP2 ADD SWAP1 PUSH2 0x9E SWAP2 SWAP1 PUSH2 0x9EA JUMP JUMPDEST PUSH2 0x2AB JUMP JUMPDEST STOP JUMPDEST PUSH2 0xBF PUSH1 0x4 DUP1 CALLDATASIZE SUB DUP2 ADD SWAP1 PUSH2 0xBA SWAP2 SWAP1 PUSH2 0xA6A JUMP JUMPDEST PUSH2 0x482 JUMP JUMPDEST STOP JUMPDEST PUSH2 0xC9 PUSH2 0x7A9 JUMP JUMPDEST PUSH1 0x40 MLOAD PUSH2 0xD6 SWAP2 SWAP1 PUSH2 0x9A7 JUMP JUMPDEST PUSH1 0x40 MLOAD DUP1 SWAP2 SUB SWAP1 RETURN JUMPDEST PUSH2 0xF9 PUSH1 0x4 DUP1 CALLDATASIZE SUB DUP2 ADD SWAP1 PUSH2 0xF4 SWAP2 SWAP1 PUSH2 0xAA8 JUMP JUMPDEST PUSH2 0x7AE JUMP JUMPDEST PUSH1 0x40 MLOAD PUSH2 0x108 SWAP4 SWAP3 SWAP2 SWAP1 PUSH2 0xBF5 JUMP JUMPDEST PUSH1 0x40 MLOAD DUP1 SWAP2 SUB SWAP1 RETURN JUMPDEST PUSH0 PUSH0 PUSH0 SLOAD SWAP1 POP PUSH1 0x40 MLOAD DUP1 PUSH1 0x60 ADD PUSH1 0x40 MSTORE DUP1 CALLER PUSH20 0xFFFFFFFFFFFFFFFFFFFFFFFFFFFFFFFFFFFFFFFF AND DUP2 MSTORE PUSH1 0x20 ADD DUP6 DUP6 DUP1 DUP1 PUSH1 0x1F ADD PUSH1 0x20 DUP1 SWAP2 DIV MUL PUSH1 0x20 ADD PUSH1 0x40 MLOAD SWAP1 DUP2 ADD PUSH1 0x40 MSTORE DUP1 SWAP4 SWAP3 SWAP2 SWAP1 DUP2 DUP2 MSTORE PUSH1 0x20 ADD DUP4 DUP4 DUP1 DUP3 DUP5 CALLDATACOPY PUSH0 DUP2 DUP5 ADD MSTORE PUSH1 0x1F NOT PUSH1 0x1F DUP3 ADD AND SWAP1 POP DUP1 DUP4 ADD SWAP3 POP POP POP POP POP POP POP DUP2 MSTORE PUSH1 0x20 ADD PUSH0 PUSH1 0x3 DUP2 GT ISZERO PUSH2 0x19A JUMPI PUSH2 0x199 PUSH2 0xB82 JUMP JUMPDEST JUMPDEST DUP2 MSTORE POP PUSH1 0x1 PUSH0 DUP4 DUP2 MSTORE PUSH1 0x20 ADD SWAP1 DUP2 MSTORE PUSH1 0x20 ADD PUSH0 KECCAK256 PUSH0 DUP3 ADD MLOAD DUP2 PUSH0 ADD PUSH0 PUSH2 0x100 EXP DUP2 SLOAD DUP2 PUSH20 0xFFFFFFFFFFFFFFFFFFFFFFFFFFFFFFFFFFFFFFFF MUL NOT AND SWAP1 DUP4 PUSH20 0xFFFFFFFFFFFFFFFFFFFFFFFFFFFFFFFFFFFFFFFF AND MUL OR SWAP1 SSTORE POP PUSH1 0x20 DUP3 ADD MLOAD DUP2 PUSH1 0x1 ADD SWAP1 DUP2 PUSH2 0x207 SWAP2 SWAP1 PUSH2 0xE5B JUMP JUMPDEST POP PUSH1 0x40 DUP3 ADD MLOAD DUP2 PUSH1 0x2 ADD PUSH0 PUSH2 0x100 EXP DUP2 SLOAD DUP2 PUSH1 0xFF MUL NOT AND SWAP1 DUP4 PUSH1 0x3 DUP2 GT ISZERO PUSH2 0x232 JUMPI PUSH2 0x231 PUSH2 0xB82 JUMP JUMPDEST JUMPDEST MUL OR SWAP1 SSTORE POP SWAP1 POP POP PUSH0 PUSH0 DUP2 SLOAD DUP1 SWAP3 SWAP2 SWAP1 PUSH2 0x24B SWAP1 PUSH2 0xF57 JUMP JUMPDEST SWAP2 SWAP1 POP SSTORE POP CALLER PUSH20 0xFFFFFFFFFFFFFFFFFFFFFFFFFFFFFFFFFFFFFFFF AND DUP2 PUSH32 0x1FB4423AED62BBA3E66F7C81A4AF273642C7E8C57D7B111AE2B1ACA9887869BA DUP7 DUP7 PUSH1 0x40 MLOAD PUSH2 0x299 SWAP3 SWAP2 SWAP1 PUSH2 0xFD8 JUMP JUMPDEST PUSH1 0x40 MLOAD DUP1 SWAP2 SUB SWAP1 LOG3 DUP1 SWAP2 POP POP SWAP3 SWAP2 POP POP JUMP JUMPDEST DUP3 PUSH0 SLOAD DUP2 LT PUSH2 0x2EF JUMPI PUSH1 0x40 MLOAD PUSH32 0x8C379A000000000000000000000000000000000000000000000000000000000 DUP2 MSTORE PUSH1 0x4 ADD PUSH2 0x2E6 SWAP1 PUSH2 0x1044 JUMP JUMPDEST PUSH1 0x40 MLOAD DUP1 SWAP2 SUB SWAP1 REVERT JUMPDEST DUP4 CALLER PUSH20 0xFFFFFFFFFFFFFFFFFFFFFFFFFFFFFFFFFFFFFFFF AND PUSH1 0x1 PUSH0 DUP4 DUP2 MSTORE PUSH1 0x20 ADD SWAP1 DUP2 MSTORE PUSH1 0x20 ADD PUSH0 KECCAK256 PUSH0 ADD PUSH0 SWAP1 SLOAD SWAP1 PUSH2 0x100 EXP SWAP1 DIV PUSH20 0xFFFFFFFFFFFFFFFFFFFFFFFFFFFFFFFFFFFFFFFF AND PUSH20 0xFFFFFFFFFFFFFFFFFFFFFFFFFFFFFFFFFFFFFFFF AND EQ PUSH2 0x390 JUMPI PUSH1 0x40 MLOAD PUSH32 0x8C379A000000000000000000000000000000000000000000000000000000000 DUP2 MSTORE PUSH1 0x4 ADD PUSH2 0x387 SWAP1 PUSH2 0x10AC JUMP JUMPDEST PUSH1 0x40 MLOAD DUP1 SWAP2 SUB SWAP1 REVERT JUMPDEST DUP5 PUSH0 PUSH1 0x3 DUP2 GT ISZERO PUSH2 0x3A4 JUMPI PUSH2 0x3A3 PUSH2 0xB82 JUMP JUMPDEST JUMPDEST PUSH1 0x1 PUSH0 DUP4 DUP2 MSTORE PUSH1 0x20 ADD SWAP1 DUP2 MSTORE PUSH1 0x20 ADD PUSH0 KECCAK256 PUSH1 0x2 ADD PUSH0 SWAP1 SLOAD SWAP1 PUSH2 0x100 EXP SWAP1 DIV PUSH1 0xFF AND PUSH1 0x3 DUP2 GT ISZERO PUSH2 0x3D7 JUMPI PUSH2 0x3D6 PUSH2 0xB82 JUMP JUMPDEST JUMPDEST EQ PUSH2 0x417 JUMPI PUSH1 0x40 MLOAD PUSH32 0x8C379A000000000000000000000000000000000000000000000000000000000 DUP2 MSTORE PUSH1 0x4 ADD PUSH2 0x40E SWAP1 PUSH2 0x113A JUMP JUMPDEST PUSH1 0x40 MLOAD DUP1 SWAP2 SUB SWAP1 REVERT JUMPDEST PUSH0 PUSH1 0x1 PUSH0 DUP9 DUP2 MSTORE PUSH1 0x20 ADD SWAP1 DUP2 MSTORE PUSH1 0x20 ADD PUSH0 KECCAK256 SWAP1 POP DUP6 DUP6 DUP3 PUSH1 0x1 ADD SWAP2 DUP3 PUSH2 0x43E SWAP3 SWAP2 SWAP1 PUSH2 0x1162 JUMP JUMPDEST POP DUP7 PUSH32 0x2F6DD8C35B9F3B35C8DBE5478C90A7769DAE232141BDC277B1938AAA59E5C8A4 DUP8 DUP8 PUSH1 0x40 MLOAD PUSH2 0x471 SWAP3 SWAP2 SWAP1 PUSH2 0xFD8 JUMP JUMPDEST PUSH1 0x40 MLOAD DUP1 SWAP2 SUB SWAP1 LOG2 POP POP POP POP POP POP POP JUMP JUMPDEST DUP2 PUSH0 SLOAD DUP2 LT PUSH2 0x4C6 JUMPI PUSH1 0x40 MLOAD PUSH32 0x8C379A000000000000000000000000000000000000000000000000000000000 DUP2 MSTORE PUSH1 0x4 ADD PUSH2 0x4BD SWAP1 PUSH2 0x1044 JUMP JUMPDEST PUSH1 0x40 MLOAD DUP1 SWAP2 SUB SWAP1 REVERT JUMPDEST DUP3 CALLER PUSH20 0xFFFFFFFFFFFFFFFFFFFFFFFFFFFFFFFFFFFFFFFF AND PUSH1 0x1 PUSH0 DUP4 DUP2 MSTORE PUSH1 0x20 ADD SWAP1 DUP2 MSTORE PUSH1 0x20 ADD PUSH0 KECCAK256 PUSH0 ADD PUSH0 SWAP1 SLOAD SWAP1 PUSH2 0x100 EXP SWAP1 DIV PUSH20 0xFFFFFFFFFFFFFFFFFFFFFFFFFFFFFFFFFFFFFFFF AND PUSH20 0xFFFFFFFFFFFFFFFFFFFFFFFFFFFFFFFFFFFFFFFF AND EQ PUSH2 0x567 JUMPI PUSH1 0x40 MLOAD PUSH32 0x8C379A000000000000000000000000000000000000000000000000000000000 DUP2 MSTORE PUSH1 0x4 ADD PUSH2 0x55E SWAP1 PUSH2 0x10AC JUMP JUMPDEST PUSH1 0x40 MLOAD DUP1 SWAP2 SUB SWAP1 REVERT JUMPDEST PUSH0 PUSH1 0x1 PUSH0 DUP7 DUP2 MSTORE PUSH1 0x20 ADD SWAP1 DUP2 MSTORE PUSH1 0x20 ADD PUSH0 KECCAK256 SWAP1 POP PUSH0 DUP2 PUSH1 0x2 ADD PUSH0 SWAP1 SLOAD SWAP1 PUSH2 0x100 EXP SWAP1 DIV PUSH1 0xFF AND SWAP1 POP DUP1 PUSH1 0x3 DUP2 GT ISZERO PUSH2 0x5A2 JUMPI PUSH2 0x5A1 PUSH2 0xB82 JUMP JUMPDEST JUMPDEST DUP6 PUSH1 0x3 DUP2 GT ISZERO PUSH2 0x5B5 JUMPI PUSH2 0x5B4 PUSH2 0xB82 JUMP JUMPDEST JUMPDEST SUB PUSH2 0x5F5 JUMPI PUSH1 0x40 MLOAD PUSH32 0x8C379A000000000000000000000000000000000000000000000000000000000 DUP2 MSTORE PUSH1 0x4 ADD PUSH2 0x5EC SWAP1 PUSH2 0x1279 JUMP JUMPDEST PUSH1 0x40 MLOAD DUP1 SWAP2 SUB SWAP1 REVERT JUMPDEST PUSH0 PUSH1 0x3 DUP2 GT ISZERO PUSH2 0x608 JUMPI PUSH2 0x607 PUSH2 0xB82 JUMP JUMPDEST JUMPDEST DUP2 PUSH1 0x3 DUP2 GT ISZERO PUSH2 0x61B JUMPI PUSH2 0x61A PUSH2 0xB82 JUMP JUMPDEST JUMPDEST EQ DUP1 ISZERO PUSH2 0x64C JUMPI POP PUSH1 0x1 PUSH1 0x3 DUP2 GT ISZERO PUSH2 0x637 JUMPI PUSH2 0x636 PUSH2 0xB82 JUMP JUMPDEST JUMPDEST DUP6 PUSH1 0x3 DUP2 GT ISZERO PUSH2 0x64A JUMPI PUSH2 0x649 PUSH2 0xB82 JUMP JUMPDEST JUMPDEST EQ JUMPDEST DUP1 PUSH2 0x6D9 JUMPI POP PUSH1 0x1 PUSH1 0x3 DUP2 GT ISZERO PUSH2 0x666 JUMPI PUSH2 0x665 PUSH2 0xB82 JUMP JUMPDEST JUMPDEST DUP2 PUSH1 0x3 DUP2 GT ISZERO PUSH2 0x679 JUMPI PUSH2 0x678 PUSH2 0xB82 JUMP JUMPDEST JUMPDEST EQ DUP1 ISZERO PUSH2 0x6D8 JUMPI POP PUSH1 0x2 PUSH1 0x3 DUP2 GT ISZERO PUSH2 0x695 JUMPI PUSH2 0x694 PUSH2 0xB82 JUMP JUMPDEST JUMPDEST DUP6 PUSH1 0x3 DUP2 GT ISZERO PUSH2 0x6A8 JUMPI PUSH2 0x6A7 PUSH2 0xB82 JUMP JUMPDEST JUMPDEST EQ DUP1 PUSH2 0x6D7 JUMPI POP PUSH1 0x3 DUP1 DUP2 GT ISZERO PUSH2 0x6C2 JUMPI PUSH2 0x6C1 PUSH2 0xB82 JUMP JUMPDEST JUMPDEST DUP6 PUSH1 0x3 DUP2 GT ISZERO PUSH2 0x6D5 JUMPI PUSH2 0x6D4 PUSH2 0xB82 JUMP JUMPDEST JUMPDEST EQ JUMPDEST JUMPDEST JUMPDEST PUSH2 0x718 JUMPI PUSH1 0x40 MLOAD PUSH32 0x8C379A000000000000000000000000000000000000000000000000000000000 DUP2 MSTORE PUSH1 0x4 ADD PUSH2 0x70F SWAP1 PUSH2 0x12E1 JUMP JUMPDEST PUSH1 0x40 MLOAD DUP1 SWAP2 SUB SWAP1 REVERT JUMPDEST DUP5 DUP3 PUSH1 0x2 ADD PUSH0 PUSH2 0x100 EXP DUP2 SLOAD DUP2 PUSH1 0xFF MUL NOT AND SWAP1 DUP4 PUSH1 0x3 DUP2 GT ISZERO PUSH2 0x73E JUMPI PUSH2 0x73D PUSH2 0xB82 JUMP JUMPDEST JUMPDEST MUL OR SWAP1 SSTORE POP DUP6 PUSH32 0x15A4A29ECCF92A0BBF94F24A6840487AA0226F7FB02D3402F1F86B3360BDFC6A DUP3 PUSH1 0x3 DUP2 GT ISZERO PUSH2 0x778 JUMPI PUSH2 0x777 PUSH2 0xB82 JUMP JUMPDEST JUMPDEST DUP8 PUSH1 0x3 DUP2 GT ISZERO PUSH2 0x78B JUMPI PUSH2 0x78A PUSH2 0xB82 JUMP JUMPDEST JUMPDEST PUSH1 0x40 MLOAD PUSH2 0x799 SWAP3 SWAP2 SWAP1 PUSH2 0x131A JUMP JUMPDEST PUSH1 0x40 MLOAD DUP1 SWAP2 SUB SWAP1 LOG2 POP POP POP POP POP POP JUMP JUMPDEST PUSH0 SLOAD DUP2 JUMP JUMPDEST PUSH0 PUSH1 0x60 PUSH0 DUP4 PUSH0 SLOAD DUP2 LT PUSH2 0x7F6 JUMPI PUSH1 0x40 MLOAD PUSH32 0x8C379A000000000000000000000000000000000000000000000000000000000 DUP2 MSTORE PUSH1 0x4 ADD PUSH2 0x7ED SWAP1 PUSH2 0x1044 JUMP JUMPDEST PUSH1 0x40 MLOAD DUP1 SWAP2 SUB SWAP1 REVERT JUMPDEST PUSH0 PUSH1 0x1 PUSH0 DUP8 DUP2 MSTORE PUSH1 0x20 ADD SWAP1 DUP2 MSTORE PUSH1 0x20 ADD PUSH0 KECCAK256 SWAP1 POP DUP1 PUSH0 ADD PUSH0 SWAP1 SLOAD SWAP1 PUSH2 0x100 EXP SWAP1 DIV PUSH20 0xFFFFFFFFFFFFFFFFFFFFFFFFFFFFFFFFFFFFFFFF AND DUP2 PUSH1 0x1 ADD DUP3 PUSH1 0x2 ADD PUSH0 SWAP1 SLOAD SWAP1 PUSH2 0x100 EXP SWAP1 DIV PUSH1 0xFF AND DUP2 DUP1 SLOAD PUSH2 0x84E SWAP1 PUSH2 0xC8B JUMP JUMPDEST DUP1 PUSH1 0x1F ADD PUSH1 0x20 DUP1 SWAP2 DIV MUL PUSH1 0x20 ADD PUSH1 0x40 MLOAD SWAP1 DUP2 ADD PUSH1 0x40 MSTORE DUP1 SWAP3 SWAP2 SWAP1 DUP2 DUP2 MSTORE PUSH1 0x20 ADD DUP3 DUP1 SLOAD PUSH2 0x87A SWAP1 PUSH2 0xC8B JUMP JUMPDEST DUP1 ISZERO PUSH2 0x8C5 JUMPI DUP1 PUSH1 0x1F LT PUSH2 0x89C JUMPI PUSH2 0x100 DUP1 DUP4 SLOAD DIV MUL DUP4 MSTORE SWAP2 PUSH1 0x20 ADD SWAP2 PUSH2 0x8C5 JUMP JUMPDEST DUP3 ADD SWAP2 SWAP1 PUSH0 MSTORE PUSH1 0x20 PUSH0 KECCAK256 SWAP1 JUMPDEST DUP2 SLOAD DUP2 MSTORE SWAP1 PUSH1 0x1 ADD SWAP1 PUSH1 0x20 ADD DUP1 DUP4 GT PUSH2 0x8A8 JUMPI DUP3 SWAP1 SUB PUSH1 0x1F AND DUP3 ADD SWAP2 JUMPDEST POP POP POP POP POP SWAP2 POP SWAP5 POP SWAP5 POP SWAP5 POP POP POP SWAP2 SWAP4 SWAP1 SWAP3 POP JUMP JUMPDEST PUSH0 PUSH0 REVERT JUMPDEST PUSH0 PUSH0 REVERT JUMPDEST PUSH0 PUSH0 REVERT JUMPDEST PUSH0 PUSH0 REVERT JUMPDEST PUSH0 PUSH0 REVERT JUMPDEST PUSH0 PUSH0 DUP4 PUSH1 0x1F DUP5 ADD SLT PUSH2 0x904 JUMPI PUSH2 0x903 PUSH2 0x8E3 JUMP JUMPDEST JUMPDEST DUP3 CALLDATALOAD SWAP1 POP PUSH8 0xFFFFFFFFFFFFFFFF DUP2 GT ISZERO PUSH2 0x921 JUMPI PUSH2 0x920 PUSH2 0x8E7 JUMP JUMPDEST JUMPDEST PUSH1 0x20 DUP4 ADD SWAP2 POP DUP4 PUSH1 0x1 DUP3 MUL DUP4 ADD GT ISZERO PUSH2 0x93D JUMPI PUSH2 0x93C PUSH2 0x8EB JUMP JUMPDEST JUMPDEST SWAP3 POP SWAP3 SWAP1 POP JUMP JUMPDEST PUSH0 PUSH0 PUSH1 0x20 DUP4 DUP6 SUB SLT ISZERO PUSH2 0x95A JUMPI PUSH2 0x959 PUSH2 0x8DB JUMP JUMPDEST JUMPDEST PUSH0 DUP4 ADD CALLDATALOAD PUSH8 0xFFFFFFFFFFFFFFFF DUP2 GT ISZERO PUSH2 0x977 JUMPI PUSH2 0x976 PUSH2 0x8DF JUMP JUMPDEST JUMPDEST PUSH2 0x983 DUP6 DUP3 DUP7 ADD PUSH2 0x8EF JUMP JUMPDEST SWAP3 POP SWAP3 POP POP SWAP3 POP SWAP3 SWAP1 POP JUMP JUMPDEST PUSH0 DUP2 SWAP1 POP SWAP2 SWAP1 POP JUMP JUMPDEST PUSH2 0x9A1 DUP2 PUSH2 0x98F JUMP JUMPDEST DUP3 MSTORE POP POP JUMP JUMPDEST PUSH0 PUSH1 0x20 DUP3 ADD SWAP1 POP PUSH2 0x9BA PUSH0 DUP4 ADD DUP5 PUSH2 0x998 JUMP JUMPDEST SWAP3 SWAP2 POP POP JUMP JUMPDEST PUSH2 0x9C9 DUP2 PUSH2 0x98F JUMP JUMPDEST DUP2 EQ PUSH2 0x9D3 JUMPI PUSH0 PUSH0 REVERT JUMPDEST POP JUMP JUMPDEST PUSH0 DUP2 CALLDATALOAD SWAP1 POP PUSH2 0x9E4 DUP2 PUSH2 0x9C0 JUMP JUMPDEST SWAP3 SWAP2 POP POP JUMP JUMPDEST PUSH0 PUSH0 PUSH0 PUSH1 0x40 DUP5 DUP7 SUB SLT ISZERO PUSH2 0xA01 JUMPI PUSH2 0xA00 PUSH2 0x8DB JUMP JUMPDEST JUMPDEST PUSH0 PUSH2 0xA0E DUP7 DUP3 DUP8 ADD PUSH2 0x9D6 JUMP JUMPDEST SWAP4 POP POP PUSH1 0x20 DUP5 ADD CALLDATALOAD PUSH8 0xFFFFFFFFFFFFFFFF DUP2 GT ISZERO PUSH2 0xA2F JUMPI PUSH2 0xA2E PUSH2 0x8DF JUMP JUMPDEST JUMPDEST PUSH2 0xA3B DUP7 DUP3 DUP8 ADD PUSH2 0x8EF JUMP JUMPDEST SWAP3 POP SWAP3 POP POP SWAP3 POP SWAP3 POP SWAP3 JUMP JUMPDEST PUSH1 0x4 DUP2 LT PUSH2 0xA53 JUMPI PUSH0 PUSH0 REVERT JUMPDEST POP JUMP JUMPDEST PUSH0 DUP2 CALLDATALOAD SWAP1 POP PUSH2 0xA64 DUP2 PUSH2 0xA47 JUMP JUMPDEST SWAP3 SWAP2 POP POP JUMP JUMPDEST PUSH0 PUSH0 PUSH1 0x40 DUP4 DUP6 SUB SLT ISZERO PUSH2 0xA80 JUMPI PUSH2 0xA7F PUSH2 0x8DB JUMP JUMPDEST JUMPDEST PUSH0 PUSH2 0xA8D DUP6 DUP3 DUP7 ADD PUSH2 0x9D6 JUMP JUMPDEST SWAP3 POP POP PUSH1 0x20 PUSH2 0xA9E DUP6 DUP3 DUP7 ADD PUSH2 0xA56 JUMP JUMPDEST SWAP2 POP POP SWAP3 POP SWAP3 SWAP1 POP JUMP JUMPDEST PUSH0 PUSH1 0x20 DUP3 DUP5 SUB SLT ISZERO PUSH2 0xABD JUMPI PUSH2 0xABC PUSH2 0x8DB JUMP JUMPDEST JUMPDEST PUSH0 PUSH2 0xACA DUP5 DUP3 DUP6 ADD PUSH2 0x9D6 JUMP JUMPDEST SWAP2 POP POP SWAP3 SWAP2 POP POP JUMP JUMPDEST PUSH0 PUSH20 0xFFFFFFFFFFFFFFFFFFFFFFFFFFFFFFFFFFFFFFFF DUP3 AND SWAP1 POP SWAP2 SWAP1 POP JUMP JUMPDEST PUSH0 PUSH2 0xAFC DUP3 PUSH2 0xAD3 JUMP JUMPDEST SWAP1 POP SWAP2 SWAP1 POP JUMP JUMPDEST PUSH2 0xB0C DUP2 PUSH2 0xAF2 JUMP JUMPDEST DUP3 MSTORE POP POP JUMP JUMPDEST PUSH0 DUP2 MLOAD SWAP1 POP SWAP2 SWAP1 POP JUMP JUMPDEST PUSH0 DUP3 DUP3 MSTORE PUSH1 0x20 DUP3 ADD SWAP1 POP SWAP3 SWAP2 POP POP JUMP JUMPDEST DUP3 DUP2 DUP4 MCOPY PUSH0 DUP4 DUP4 ADD MSTORE POP POP POP JUMP JUMPDEST PUSH0 PUSH1 0x1F NOT PUSH1 0x1F DUP4 ADD AND SWAP1 POP SWAP2 SWAP1 POP JUMP JUMPDEST PUSH0 PUSH2 0xB54 DUP3 PUSH2 0xB12 JUMP JUMPDEST PUSH2 0xB5E DUP2 DUP6 PUSH2 0xB1C JUMP JUMPDEST SWAP4 POP PUSH2 0xB6E DUP2 DUP6 PUSH1 0x20 DUP7 ADD PUSH2 0xB2C JUMP JUMPDEST PUSH2 0xB77 DUP2 PUSH2 0xB3A JUMP JUMPDEST DUP5 ADD SWAP2 POP POP SWAP3 SWAP2 POP POP JUMP JUMPDEST PUSH32 0x4E487B7100000000000000000000000000000000000000000000000000000000 PUSH0 MSTORE PUSH1 0x21 PUSH1 0x4 MSTORE PUSH1 0x24 PUSH0 REVERT JUMPDEST PUSH1 0x4 DUP2 LT PUSH2 0xBC0 JUMPI PUSH2 0xBBF PUSH2 0xB82 JUMP JUMPDEST JUMPDEST POP JUMP JUMPDEST PUSH0 DUP2 SWAP1 POP PUSH2 0xBD0 DUP3 PUSH2 0xBAF JUMP JUMPDEST SWAP2 SWAP1 POP JUMP JUMPDEST PUSH0 PUSH2 0xBDF DUP3 PUSH2 0xBC3 JUMP JUMPDEST SWAP1 POP SWAP2 SWAP1 POP JUMP JUMPDEST PUSH2 0xBEF DUP2 PUSH2 0xBD5 JUMP JUMPDEST DUP3 MSTORE POP POP JUMP JUMPDEST PUSH0 PUSH1 0x60 DUP3 ADD SWAP1 POP PUSH2 0xC08 PUSH0 DUP4 ADD DUP7 PUSH2 0xB03 JUMP JUMPDEST DUP2 DUP2 SUB PUSH1 0x20 DUP4 ADD MSTORE PUSH2 0xC1A DUP2 DUP6 PUSH2 0xB4A JUMP JUMPDEST SWAP1 POP PUSH2 0xC29 PUSH1 0x40 DUP4 ADD DUP5 PUSH2 0xBE6 JUMP JUMPDEST SWAP5 SWAP4 POP POP POP POP JUMP JUMPDEST PUSH32 0x4E487B7100000000000000000000000000000000000000000000000000000000 PUSH0 MSTORE PUSH1 0x41 PUSH1 0x4 MSTORE PUSH1 0x24 PUSH0 REVERT JUMPDEST PUSH32 0x4E487B7100000000000000000000000000000000000000000000000000000000 PUSH0 MSTORE PUSH1 0x22 PUSH1 0x4 MSTORE PUSH1 0x24 PUSH0 REVERT JUMPDEST PUSH0 PUSH1 0x2 DUP3 DIV SWAP1 POP PUSH1 0x1 DUP3 AND DUP1 PUSH2 0xCA2 JUMPI PUSH1 0x7F DUP3 AND SWAP2 POP JUMPDEST PUSH1 0x20 DUP3 LT DUP2 SUB PUSH2 0xCB5 JUMPI PUSH2 0xCB4 PUSH2 0xC5E JUMP JUMPDEST JUMPDEST POP SWAP2 SWAP1 POP JUMP JUMPDEST PUSH0 DUP2 SWAP1 POP DUP2 PUSH0 MSTORE PUSH1 0x20 PUSH0 KECCAK256 SWAP1 POP SWAP2 SWAP1 POP JUMP JUMPDEST PUSH0 PUSH1 0x20 PUSH1 0x1F DUP4 ADD DIV SWAP1 POP SWAP2 SWAP1 POP JUMP JUMPDEST PUSH0 DUP3 DUP3 SHL SWAP1 POP SWAP3 SWAP2 POP POP JUMP JUMPDEST PUSH0 PUSH1 0x8 DUP4 MUL PUSH2 0xD17 PUSH32 0xFFFFFFFFFFFFFFFFFFFFFFFFFFFFFFFFFFFFFFFFFFFFFFFFFFFFFFFFFFFFFFFF DUP3 PUSH2 0xCDC JUMP JUMPDEST PUSH2 0xD21 DUP7 DUP4 PUSH2 0xCDC JUMP JUMPDEST SWAP6 POP DUP1 NOT DUP5 AND SWAP4 POP DUP1 DUP7 AND DUP5 OR SWAP3 POP POP POP SWAP4 SWAP3 POP POP POP JUMP JUMPDEST PUSH0 DUP2 SWAP1 POP SWAP2 SWAP1 POP JUMP JUMPDEST PUSH0 PUSH2 0xD5C PUSH2 0xD57 PUSH2 0xD52 DUP5 PUSH2 0x98F JUMP JUMPDEST PUSH2 0xD39 JUMP JUMPDEST PUSH2 0x98F JUMP JUMPDEST SWAP1 POP SWAP2 SWAP1 POP JUMP JUMPDEST PUSH0 DUP2 SWAP1 POP SWAP2 SWAP1 POP JUMP JUMPDEST PUSH2 0xD75 DUP4 PUSH2 0xD42 JUMP JUMPDEST PUSH2 0xD89 PUSH2 0xD81 DUP3 PUSH2 0xD63 JUMP JUMPDEST DUP5 DUP5 SLOAD PUSH2 0xCE8 JUMP JUMPDEST DUP3 SSTORE POP POP POP POP JUMP JUMPDEST PUSH0 PUSH0 SWAP1 POP SWAP1 JUMP JUMPDEST PUSH2 0xDA0 PUSH2 0xD91 JUMP JUMPDEST PUSH2 0xDAB DUP2 DUP5 DUP5 PUSH2 0xD6C JUMP JUMPDEST POP POP POP JUMP JUMPDEST JUMPDEST DUP2 DUP2 LT ISZERO PUSH2 0xDCE JUMPI PUSH2 0xDC3 PUSH0 DUP3 PUSH2 0xD98 JUMP JUMPDEST PUSH1 0x1 DUP2 ADD SWAP1 POP PUSH2 0xDB1 JUMP JUMPDEST POP POP JUMP JUMPDEST PUSH1 0x1F DUP3 GT ISZERO PUSH2 0xE13 JUMPI PUSH2 0xDE4 DUP2 PUSH2 0xCBB JUMP JUMPDEST PUSH2 0xDED DUP5 PUSH2 0xCCD JUMP JUMPDEST DUP2 ADD PUSH1 0x20 DUP6 LT ISZERO PUSH2 0xDFC JUMPI DUP2 SWAP1 POP JUMPDEST PUSH2 0xE10 PUSH2 0xE08 DUP6 PUSH2 0xCCD JUMP JUMPDEST DUP4 ADD DUP3 PUSH2 0xDB0 JUMP JUMPDEST POP POP JUMPDEST POP POP POP JUMP JUMPDEST PUSH0 DUP3 DUP3 SHR SWAP1 POP SWAP3 SWAP2 POP POP JUMP JUMPDEST PUSH0 PUSH2 0xE33 PUSH0 NOT DUP5 PUSH1 0x8 MUL PUSH2 0xE18 JUMP JUMPDEST NOT DUP1 DUP4 AND SWAP2 POP POP SWAP3 SWAP2 POP POP JUMP JUMPDEST PUSH0 PUSH2 0xE4B DUP4 DUP4 PUSH2 0xE24 JUMP JUMPDEST SWAP2 POP DUP3 PUSH1 0x2 MUL DUP3 OR SWAP1 POP SWAP3 SWAP2 POP POP JUMP JUMPDEST PUSH2 0xE64 DUP3 PUSH2 0xB12 JUMP JUMPDEST PUSH8 0xFFFFFFFFFFFFFFFF DUP2 GT ISZERO PUSH2 0xE7D JUMPI PUSH2 0xE7C PUSH2 0xC31 JUMP JUMPDEST JUMPDEST PUSH2 0xE87 DUP3 SLOAD PUSH2 0xC8B JUMP JUMPDEST PUSH2 0xE92 DUP3 DUP3 DUP6 PUSH2 0xDD2 JUMP JUMPDEST PUSH0 PUSH1 0x20 SWAP1 POP PUSH1 0x1F DUP4 GT PUSH1 0x1 DUP2 EQ PUSH2 0xEC3 JUMPI PUSH0 DUP5 ISZERO PUSH2 0xEB1 JUMPI DUP3 DUP8 ADD MLOAD SWAP1 POP JUMPDEST PUSH2 0xEBB DUP6 DUP3 PUSH2 0xE40 JUMP JUMPDEST DUP7 SSTORE POP PUSH2 0xF22 JUMP JUMPDEST PUSH1 0x1F NOT DUP5 AND PUSH2 0xED1 DUP7 PUSH2 0xCBB JUMP JUMPDEST PUSH0 JUMPDEST DUP3 DUP2 LT ISZERO PUSH2 0xEF8 JUMPI DUP5 DUP10 ADD MLOAD DUP3 SSTORE PUSH1 0x1 DUP3 ADD SWAP2 POP PUSH1 0x20 DUP6 ADD SWAP5 POP PUSH1 0x20 DUP2 ADD SWAP1 POP PUSH2 0xED3 JUMP JUMPDEST DUP7 DUP4 LT ISZERO PUSH2 0xF15 JUMPI DUP5 DUP10 ADD MLOAD PUSH2 0xF11 PUSH1 0x1F DUP10 AND DUP3 PUSH2 0xE24 JUMP JUMPDEST DUP4 SSTORE POP JUMPDEST PUSH1 0x1 PUSH1 0x2 DUP9 MUL ADD DUP9 SSTORE POP POP POP JUMPDEST POP POP POP POP POP POP JUMP JUMPDEST PUSH32 0x4E487B7100000000000000000000000000000000000000000000000000000000 PUSH0 MSTORE PUSH1 0x11 PUSH1 0x4 MSTORE PUSH1 0x24 PUSH0 REVERT JUMPDEST PUSH0 PUSH2 0xF61 DUP3 PUSH2 0x98F JUMP JUMPDEST SWAP2 POP PUSH32 0xFFFFFFFFFFFFFFFFFFFFFFFFFFFFFFFFFFFFFFFFFFFFFFFFFFFFFFFFFFFFFFFF DUP3 SUB PUSH2 0xF93 JUMPI PUSH2 0xF92 PUSH2 0xF2A JUMP JUMPDEST JUMPDEST PUSH1 0x1 DUP3 ADD SWAP1 POP SWAP2 SWAP1 POP JUMP JUMPDEST DUP3 DUP2 DUP4 CALLDATACOPY PUSH0 DUP4 DUP4 ADD MSTORE POP POP POP JUMP JUMPDEST PUSH0 PUSH2 0xFB7 DUP4 DUP6 PUSH2 0xB1C JUMP JUMPDEST SWAP4 POP PUSH2 0xFC4 DUP4 DUP6 DUP5 PUSH2 0xF9E JUMP JUMPDEST PUSH2 0xFCD DUP4 PUSH2 0xB3A JUMP JUMPDEST DUP5 ADD SWAP1 POP SWAP4 SWAP3 POP POP POP JUMP JUMPDEST PUSH0 PUSH1 0x20 DUP3 ADD SWAP1 POP DUP2 DUP2 SUB PUSH0 DUP4 ADD MSTORE PUSH2 0xFF1 DUP2 DUP5 DUP7 PUSH2 0xFAC JUMP JUMPDEST SWAP1 POP SWAP4 SWAP3 POP POP POP JUMP JUMPDEST PUSH32 0x496E76616C69642070726F6A6563742049440000000000000000000000000000 PUSH0 DUP3 ADD MSTORE POP JUMP JUMPDEST PUSH0 PUSH2 0x102E PUSH1 0x12 DUP4 PUSH2 0xB1C JUMP JUMPDEST SWAP2 POP PUSH2 0x1039 DUP3 PUSH2 0xFFA JUMP JUMPDEST PUSH1 0x20 DUP3 ADD SWAP1 POP SWAP2 SWAP1 POP JUMP JUMPDEST PUSH0 PUSH1 0x20 DUP3 ADD SWAP1 POP DUP2 DUP2 SUB PUSH0 DUP4 ADD MSTORE PUSH2 0x105B DUP2 PUSH2 0x1022 JUMP JUMPDEST SWAP1 POP SWAP2 SWAP1 POP JUMP JUMPDEST PUSH32 0x4E6F742070726F6A656374206275696C64657200000000000000000000000000 PUSH0 DUP3 ADD MSTORE POP JUMP JUMPDEST PUSH0 PUSH2 0x1096 PUSH1 0x13 DUP4 PUSH2 0xB1C JUMP JUMPDEST SWAP2 POP PUSH2 0x10A1 DUP3 PUSH2 0x1062 JUMP JUMPDEST PUSH1 0x20 DUP3 ADD SWAP1 POP SWAP2 SWAP1 POP JUMP JUMPDEST PUSH0 PUSH1 0x20 DUP3 ADD SWAP1 POP DUP2 DUP2 SUB PUSH0 DUP4 ADD MSTORE PUSH2 0x10C3 DUP2 PUSH2 0x108A JUMP JUMPDEST SWAP1 POP SWAP2 SWAP1 POP JUMP JUMPDEST PUSH32 0x43616E206F6E6C7920757064617465206D6574616461746120696E2044726166 PUSH0 DUP3 ADD MSTORE PUSH32 0x7420737461747573000000000000000000000000000000000000000000000000 PUSH1 0x20 DUP3 ADD MSTORE POP JUMP JUMPDEST PUSH0 PUSH2 0x1124 PUSH1 0x28 DUP4 PUSH2 0xB1C JUMP JUMPDEST SWAP2 POP PUSH2 0x112F DUP3 PUSH2 0x10CA JUMP JUMPDEST PUSH1 0x40 DUP3 ADD SWAP1 POP SWAP2 SWAP1 POP JUMP JUMPDEST PUSH0 PUSH1 0x20 DUP3 ADD SWAP1 POP DUP2 DUP2 SUB PUSH0 DUP4 ADD MSTORE PUSH2 0x1151 DUP2 PUSH2 0x1118 JUMP JUMPDEST SWAP1 POP SWAP2 SWAP1 POP JUMP JUMPDEST PUSH0 DUP3 SWAP1 POP SWAP3 SWAP2 POP POP JUMP JUMPDEST PUSH2 0x116C DUP4 DUP4 PUSH2 0x1158 JUMP JUMPDEST PUSH8 0xFFFFFFFFFFFFFFFF DUP2 GT ISZERO PUSH2 0x1185 JUMPI PUSH2 0x1184 PUSH2 0xC31 JUMP JUMPDEST JUMPDEST PUSH2 0x118F DUP3 SLOAD PUSH2 0xC8B JUMP JUMPDEST PUSH2 0x119A DUP3 DUP3 DUP6 PUSH2 0xDD2 JUMP JUMPDEST PUSH0 PUSH1 0x1F DUP4 GT PUSH1 0x1 DUP2 EQ PUSH2 0x11C7 JUMPI PUSH0 DUP5 ISZERO PUSH2 0x11B5 JUMPI DUP3 DUP8 ADD CALLDATALOAD SWAP1 POP JUMPDEST PUSH2 0x11BF DUP6 DUP3 PUSH2 0xE40 JUMP JUMPDEST DUP7 SSTORE POP PUSH2 0x1226 JUMP JUMPDEST PUSH1 0x1F NOT DUP5 AND PUSH2 0x11D5 DUP7 PUSH2 0xCBB JUMP JUMPDEST PUSH0 JUMPDEST DUP3 DUP2 LT ISZERO PUSH2 0x11FC JUMPI DUP5 DUP10 ADD CALLDATALOAD DUP3 SSTORE PUSH1 0x1 DUP3 ADD SWAP2 POP PUSH1 0x20 DUP6 ADD SWAP5 POP PUSH1 0x20 DUP2 ADD SWAP1 POP PUSH2 0x11D7 JUMP JUMPDEST DUP7 DUP4 LT ISZERO PUSH2 0x1219 JUMPI DUP5 DUP10 ADD CALLDATALOAD PUSH2 0x1215 PUSH1 0x1F DUP10 AND DUP3 PUSH2 0xE24 JUMP JUMPDEST DUP4 SSTORE POP JUMPDEST PUSH1 0x1 PUSH1 0x2 DUP9 MUL ADD DUP9 SSTORE POP POP POP JUMPDEST POP POP POP POP POP POP POP JUMP JUMPDEST PUSH32 0x53746174757320756E6368616E67656400000000000000000000000000000000 PUSH0 DUP3 ADD MSTORE POP JUMP JUMPDEST PUSH0 PUSH2 0x1263 PUSH1 0x10 DUP4 PUSH2 0xB1C JUMP JUMPDEST SWAP2 POP PUSH2 0x126E DUP3 PUSH2 0x122F JUMP JUMPDEST PUSH1 0x20 DUP3 ADD SWAP1 POP SWAP2 SWAP1 POP JUMP JUMPDEST PUSH0 PUSH1 0x20 DUP3 ADD SWAP1 POP DUP2 DUP2 SUB PUSH0 DUP4 ADD MSTORE PUSH2 0x1290 DUP2 PUSH2 0x1257 JUMP JUMPDEST SWAP1 POP SWAP2 SWAP1 POP JUMP JUMPDEST PUSH32 0x496E76616C696420737461747573207472616E736974696F6E00000000000000 PUSH0 DUP3 ADD MSTORE POP JUMP JUMPDEST PUSH0 PUSH2 0x12CB PUSH1 0x19 DUP4 PUSH2 0xB1C JUMP JUMPDEST SWAP2 POP PUSH2 0x12D6 DUP3 PUSH2 0x1297 JUMP JUMPDEST PUSH1 0x20 DUP3 ADD SWAP1 POP SWAP2 SWAP1 POP JUMP JUMPDEST PUSH0 PUSH1 0x20 DUP3 ADD SWAP1 POP DUP2 DUP2 SUB PUSH0 DUP4 ADD MSTORE PUSH2 0x12F8 DUP2 PUSH2 0x12BF JUMP JUMPDEST SWAP1 POP SWAP2 SWAP1 POP JUMP JUMPDEST PUSH0 PUSH1 0xFF DUP3 AND SWAP1 POP SWAP2 SWAP1 POP JUMP JUMPDEST PUSH2 0x1314 DUP2 PUSH2 0x12FF JUMP JUMPDEST DUP3 MSTORE POP POP JUMP JUMPDEST PUSH0 PUSH1 0x40 DUP3 ADD SWAP1 POP PUSH2 0x132D PUSH0 DUP4 ADD DUP6 PUSH2 0x130B JUMP JUMPDEST PUSH2 0x133A PUSH1 0x20 DUP4 ADD DUP5 PUSH2 0x130B JUMP JUMPDEST SWAP4 SWAP3 POP POP POP JUMP INVALID LOG2 PUSH5 0x6970667358 0x22 SLT KECCAK256 0x4E 0xB1 MCOPY PUSH22 0x540BF217BF483AA9D97FB605B11FCDB09553F95C7AA5 DATALOADN 0x752A 0xFC PUSH15 0x2664736F6C634300081E0033000000 "
				},
				"gasEstimates": {
					"creation": {
						"codeDepositCost": "996600",
						"executionCost": "1032",
						"totalCost": "997632"
					},
					"external": {
						"getProject(uint256)": "infinite",
						"nextProjectId()": "2468",
						"registerProject(string)": "infinite",
						"updateProjectMetadata(uint256,string)": "infinite",
						"updateProjectStatus(uint256,uint8)": "infinite"
					}
				},
				"methodIdentifiers": {
					"getProject(uint256)": "f0f3f2c8",
					"nextProjectId()": "e935b7b1",
					"registerProject(string)": "72212ec7",
					"updateProjectMetadata(uint256,string)": "91546c34",
					"updateProjectStatus(uint256,uint8)": "d11d498b"
				}
			},
			"storageLayout": {
				"storage": [
					{
						"astId": 38,
						"contract": "Contracts/ProjectRegister.sol:ProjectRegistry",
						"label": "nextProjectId",
						"offset": 0,
						"slot": "0",
						"type": "t_uint256"
					},
					{
						"astId": 43,
						"contract": "Contracts/ProjectRegister.sol:ProjectRegistry",
						"label": "projects",
						"offset": 0,
						"slot": "1",
						"type": "t_mapping(t_uint256,t_struct(Project)36_storage)"
					}
				],
				"types": {
					"t_address": {
						"encoding": "inplace",
						"label": "address",
						"numberOfBytes": "20"
					},
					"t_enum(Status)28": {
						"encoding": "inplace",
						"label": "enum ProjectRegistry.Status",
						"numberOfBytes": "1"
					},
					"t_mapping(t_uint256,t_struct(Project)36_storage)": {
						"encoding": "mapping",
						"key": "t_uint256",
						"label": "mapping(uint256 => struct ProjectRegistry.Project)",
						"numberOfBytes": "32",
						"value": "t_struct(Project)36_storage"
					},
					"t_string_storage": {
						"encoding": "bytes",
						"label": "string",
						"numberOfBytes": "32"
					},
					"t_struct(Project)36_storage": {
						"encoding": "inplace",
						"label": "struct ProjectRegistry.Project",
						"members": [
							{
								"astId": 30,
								"contract": "Contracts/ProjectRegister.sol:ProjectRegistry",
								"label": "builder",
								"offset": 0,
								"slot": "0",
								"type": "t_address"
							},
							{
								"astId": 32,
								"contract": "Contracts/ProjectRegister.sol:ProjectRegistry",
								"label": "metadataCID",
								"offset": 0,
								"slot": "1",
								"type": "t_string_storage"
							},
							{
								"astId": 35,
								"contract": "Contracts/ProjectRegister.sol:ProjectRegistry",
								"label": "status",
								"offset": 0,
								"slot": "2",
								"type": "t_enum(Status)28"
							}
						],
						"numberOfBytes": "96"
					},
					"t_uint256": {
						"encoding": "inplace",
						"label": "uint256",
						"numberOfBytes": "32"
					}
				}
			},
			"userdoc": {
				"kind": "user",
				"methods": {
					"getProject(uint256)": {
						"notice": "Get project details by id"
					},
					"registerProject(string)": {
						"notice": "Register a new project with metadata CID (IPFS hash)"
					},
					"updateProjectMetadata(uint256,string)": {
						"notice": "Update project metadata CID (only builder can update, only in Draft status)"
					},
					"updateProjectStatus(uint256,uint8)": {
						"notice": "Update project status (only builder can update)"
					}
				},
				"version": 1
			}
		}
	}
}