{
	"data": {
		"bytecode": {
			"linkReferences": {},
			"object": "60a06040523073ffffffffffffffffffffffffffffffffffffffff1660809073ffffffffffffffffffffffffffffffffffffffff168152503480156041575f5ffd5b506080516140fc6100685f395f818161223301528181612288015261244201526140fc5ff3fe608060405260043610610203575f3560e01c8063629e4ed011610117578063ad3cb1cc1161009f578063c19d93fb1161006e578063c19d93fb14610689578063ca4b208b146106b3578063e138818c146106dd578063e89e4ed614610707578063f2fde38b1461074657610203565b8063ad3cb1cc146105e5578063b1bab56a1461060f578063b95d8dd414610637578063bdc84ac31461066157610203565b8063725a3b4b116100e6578063725a3b4b1461052d578063817f9749146105555780638456cb591461057d5780638da5cb5b1461059357806395ccea67146105bd57610203565b8063629e4ed0146104995780636cc6cde1146104c35780636f9fb98a146104ed578063715018a61461051757610203565b8063317debf51161019a578063486265c611610169578063486265c6146103d55780634c05abeb146103ff5780634f1ef2861461042957806352d1902d146104455780635c975abb1461046f57610203565b8063317debf5146103435780633ddb47b41461036b5780633f4ba83a1461039557806345d30a17146103ab57610203565b806322dcd13e116101d657806322dcd13e1461029b5780632fba2c85146102c55780633013ce29146102ef578063314325c21461031957610203565b8063041ae880146102075780630681ca55146102315780631a39d8ef1461025b5780631adff0ee14610285575b5f5ffd5b348015610212575f5ffd5b5061021b61076e565b6040516102289190612e56565b60405180910390f35b34801561023c575f5ffd5b50610245610793565b6040516102529190612e87565b60405180910390f35b348015610266575f5ffd5b5061026f61079f565b60405161027c9190612e87565b60405180910390f35b348015610290575f5ffd5b506102996107a5565b005b3480156102a6575f5ffd5b506102af610985565b6040516102bc9190612e87565b60405180910390f35b3480156102d0575f5ffd5b506102d961098b565b6040516102e69190612e87565b60405180910390f35b3480156102fa575f5ffd5b506103036109a1565b6040516103109190612efb565b60405180910390f35b348015610324575f5ffd5b5061032d6109c6565b60405161033a9190612e87565b60405180910390f35b34801561034e575f5ffd5b5061036960048036038101906103649190612f4f565b6109cc565b005b348015610376575f5ffd5b5061037f610dad565b60405161038c9190612f94565b60405180910390f35b3480156103a0575f5ffd5b506103a9610e09565b005b3480156103b6575f5ffd5b506103bf610e1b565b6040516103cc9190612e87565b60405180910390f35b3480156103e0575f5ffd5b506103e9610e21565b6040516103f69190612e87565b60405180910390f35b34801561040a575f5ffd5b50610413610e28565b6040516104209190612e87565b60405180910390f35b610443600480360381019061043e9190613113565b610e2d565b005b348015610450575f5ffd5b50610459610e4c565b6040516104669190613185565b60405180910390f35b34801561047a575f5ffd5b50610483610e7d565b6040516104909190612f94565b60405180910390f35b3480156104a4575f5ffd5b506104ad610e91565b6040516104ba9190613337565b60405180910390f35b3480156104ce575f5ffd5b506104d7610faa565b6040516104e49190612e56565b60405180910390f35b3480156104f8575f5ffd5b50610501610fcf565b60405161050e9190612e87565b60405180910390f35b348015610522575f5ffd5b5061052b61106e565b005b348015610538575f5ffd5b50610553600480360381019061054e91906133b4565b611081565b005b348015610560575f5ffd5b5061057b60048036038101906105769190613454565b61125f565b005b348015610588575f5ffd5b50610591611a32565b005b34801561059e575f5ffd5b506105a7611a44565b6040516105b49190612e56565b60405180910390f35b3480156105c8575f5ffd5b506105e360048036038101906105de9190613530565b611a79565b005b3480156105f0575f5ffd5b506105f9611b0d565b60405161060691906135b6565b60405180910390f35b34801561061a575f5ffd5b5061063560048036038101906106309190613530565b611b46565b005b348015610642575f5ffd5b5061064b611be7565b6040516106589190612e87565b60405180910390f35b34801561066c575f5ffd5b50610687600480360381019061068291906135d6565b611bed565b005b348015610694575f5ffd5b5061069d611ecc565b6040516106aa9190613687565b60405180910390f35b3480156106be575f5ffd5b506106c7611edf565b6040516106d49190612e56565b60405180910390f35b3480156106e8575f5ffd5b506106f1611f04565b6040516106fe9190612e56565b60405180910390f35b348015610712575f5ffd5b5061072d60048036038101906107289190612f4f565b611f29565b60405161073d94939291906136a0565b60405180910390f35b348015610751575f5ffd5b5061076c600480360381019061076791906136ea565b611ff6565b005b60325f9054906101000a900473ffffffffffffffffffffffffffffffffffffffff1681565b5f603b80549050905090565b60375481565b60325f9054906101000a900473ffffffffffffffffffffffffffffffffffffffff1673ffffffffffffffffffffffffffffffffffffffff163373ffffffffffffffffffffffffffffffffffffffff161461082b576040517fea8e4eb500000000000000000000000000000000000000000000000000000000815260040160405180910390fd5b60018060048111156108405761083f613614565b5b603660149054906101000a900460ff16600481111561086257610861613614565b5b14610899576040517fbaf3f0f700000000000000000000000000000000000000000000000000000000815260040160405180910390fd5b6108a161207a565b5f6038546037546108b29190613742565b90505f81111561092a5761092960325f9054906101000a900473ffffffffffffffffffffffffffffffffffffffff168260365f9054906101000a900473ffffffffffffffffffffffffffffffffffffffff1673ffffffffffffffffffffffffffffffffffffffff166120c49092919063ffffffff16565b5b6003603660146101000a81548160ff021916908360048111156109505761094f613614565b5b02179055507f92c439fda90c70ccdedcb94d28a14f9fda69d67124efbbe9bf905740194228c860405160405180910390a15050565b60395481565b5f60385460375461099c9190613742565b905090565b60365f9054906101000a900473ffffffffffffffffffffffffffffffffffffffff1681565b60355481565b60325f9054906101000a900473ffffffffffffffffffffffffffffffffffffffff1673ffffffffffffffffffffffffffffffffffffffff163373ffffffffffffffffffffffffffffffffffffffff1614610a52576040517fea8e4eb500000000000000000000000000000000000000000000000000000000815260040160405180910390fd5b6001806004811115610a6757610a66613614565b5b603660149054906101000a900460ff166004811115610a8957610a88613614565b5b14610ac0576040517fbaf3f0f700000000000000000000000000000000000000000000000000000000815260040160405180910390fd5b610ac861207a565b603b805490508210610b06576040517fba11734000000000000000000000000000000000000000000000000000000000815260040160405180910390fd5b5f603b8381548110610b1b57610b1a613775565b5b905f5260205f2090600402019050806001015f9054906101000a900460ff1615610b71576040517f63b4904e00000000000000000000000000000000000000000000000000000000815260040160405180910390fd5b5f8160020154118015610b875750806002015442115b15610bbe576040517f1b421e5100000000000000000000000000000000000000000000000000000000815260040160405180910390fd5b6001816001015f6101000a81548160ff021916908315150217905550805f015460385f828254610bee91906137a2565b925050819055505f612710603954835f0154610c0a91906137d5565b610c149190613843565b90505f81835f0154610c269190613742565b9050610c9560335f9054906101000a900473ffffffffffffffffffffffffffffffffffffffff168260365f9054906101000a900473ffffffffffffffffffffffffffffffffffffffff1673ffffffffffffffffffffffffffffffffffffffff166120c49092919063ffffffff16565b5f821115610d0b57610d0a603a5f9054906101000a900473ffffffffffffffffffffffffffffffffffffffff168360365f9054906101000a900473ffffffffffffffffffffffffffffffffffffffff1673ffffffffffffffffffffffffffffffffffffffff166120c49092919063ffffffff16565b5b847f9e069181c12760c2cd0078ed4facdbe1f3614543b0fbff5dbcac3cbc61a0b64e82604051610d3b9190612e87565b60405180910390a260375460385403610da6576002603660146101000a81548160ff02191690836004811115610d7457610d73613614565b5b02179055507fe39866727217e43713c3728c5769515e8fb38e990b568b9831c1689dfdf67b6660405160405180910390a15b5050505050565b5f600480811115610dc157610dc0613614565b5b603660149054906101000a900460ff166004811115610de357610de2613614565b5b14610df0575f9050610e06565b62093a80603c54610e0191906137a2565b421190505b90565b610e1161214a565b610e196121d1565b565b60385481565b62093a8081565b601481565b610e35612231565b610e3e82612317565b610e488282612322565b5050565b5f610e55612440565b7f360894a13ba1a3210667c828492db98dca3e2076cc3735a920a3ca505d382bbc5f1b905090565b5f5f5f9054906101000a900460ff16905090565b6060603b805480602002602001604051908101604052809291908181526020015f905b82821015610fa1578382905f5260205f2090600402016040518060800160405290815f8201548152602001600182015f9054906101000a900460ff1615151515815260200160028201548152602001600382018054610f12906138a0565b80601f0160208091040260200160405190810160405280929190818152602001828054610f3e906138a0565b8015610f895780601f10610f6057610100808354040283529160200191610f89565b820191905f5260205f20905b815481529060010190602001808311610f6c57829003601f168201915b50505050508152505081526020019060010190610eb4565b50505050905090565b60345f9054906101000a900473ffffffffffffffffffffffffffffffffffffffff1681565b5f60365f9054906101000a900473ffffffffffffffffffffffffffffffffffffffff1673ffffffffffffffffffffffffffffffffffffffff166370a08231306040518263ffffffff1660e01b815260040161102a9190612e56565b602060405180830381865afa158015611045573d5f5f3e3d5ffd5b505050506040513d601f19601f8201168201806040525081019061106991906138e4565b905090565b61107661214a565b61107f5f6124c7565b565b60325f9054906101000a900473ffffffffffffffffffffffffffffffffffffffff1673ffffffffffffffffffffffffffffffffffffffff163373ffffffffffffffffffffffffffffffffffffffff161415801561112b575060335f9054906101000a900473ffffffffffffffffffffffffffffffffffffffff1673ffffffffffffffffffffffffffffffffffffffff163373ffffffffffffffffffffffffffffffffffffffff1614155b15611162576040517fea8e4eb500000000000000000000000000000000000000000000000000000000815260040160405180910390fd5b600180600481111561117757611176613614565b5b603660149054906101000a900460ff16600481111561119957611198613614565b5b146111d0576040517fbaf3f0f700000000000000000000000000000000000000000000000000000000815260040160405180910390fd5b6111d861207a565b6004603660146101000a81548160ff021916908360048111156111fe576111fd613614565b5b021790555042603c819055503373ffffffffffffffffffffffffffffffffffffffff167f28b099eb575e23e32becd7c30dc8f9b2f98e370cdbf9841ea3338d9000402a25848460405161125292919061393b565b60405180910390a2505050565b5f611268612598565b90505f815f0160089054906101000a900460ff161590505f825f015f9054906101000a900467ffffffffffffffff1690505f5f8267ffffffffffffffff161480156112b05750825b90505f60018367ffffffffffffffff161480156112e357505f3073ffffffffffffffffffffffffffffffffffffffff163b145b9050811580156112f1575080155b15611328576040517ff92ee8a900000000000000000000000000000000000000000000000000000000815260040160405180910390fd5b6001855f015f6101000a81548167ffffffffffffffff021916908367ffffffffffffffff1602179055508315611375576001855f0160086101000a81548160ff0219169083151502179055505b61137e336125ab565b6113866125bf565b61138e6125c9565b5f73ffffffffffffffffffffffffffffffffffffffff168e73ffffffffffffffffffffffffffffffffffffffff16036113f3576040517fd92e233d00000000000000000000000000000000000000000000000000000000815260040160405180910390fd5b5f73ffffffffffffffffffffffffffffffffffffffff168d73ffffffffffffffffffffffffffffffffffffffff1603611458576040517fd92e233d00000000000000000000000000000000000000000000000000000000815260040160405180910390fd5b5f73ffffffffffffffffffffffffffffffffffffffff168c73ffffffffffffffffffffffffffffffffffffffff16036114bd576040517fd92e233d00000000000000000000000000000000000000000000000000000000815260040160405180910390fd5b5f73ffffffffffffffffffffffffffffffffffffffff168773ffffffffffffffffffffffffffffffffffffffff1603611522576040517fd92e233d00000000000000000000000000000000000000000000000000000000815260040160405180910390fd5b5f8b8b90500361155e576040517fba11734000000000000000000000000000000000000000000000000000000000815260040160405180910390fd5b60148b8b9050111561159c576040517fb308ba0900000000000000000000000000000000000000000000000000000000815260040160405180910390fd5b888890508b8b9050146115db576040517fba11734000000000000000000000000000000000000000000000000000000000815260040160405180910390fd5b8d60325f6101000a81548173ffffffffffffffffffffffffffffffffffffffff021916908373ffffffffffffffffffffffffffffffffffffffff1602179055508c60335f6101000a81548173ffffffffffffffffffffffffffffffffffffffff021916908373ffffffffffffffffffffffffffffffffffffffff1602179055508b60365f6101000a81548173ffffffffffffffffffffffffffffffffffffffff021916908373ffffffffffffffffffffffffffffffffffffffff16021790555086603a5f6101000a81548173ffffffffffffffffffffffffffffffffffffffff021916908373ffffffffffffffffffffffffffffffffffffffff160217905550856039819055505f5f5b8c8c905081101561184a575f8d8d8381811061170457611703613775565b5b9050602002013503611742576040517f1f2a200500000000000000000000000000000000000000000000000000000000815260040160405180910390fd5b603b60405180608001604052808f8f8581811061176257611761613775565b5b9050602002013581526020015f151581526020018d8d8581811061178957611788613775565b5b90506020020135815260200160405180602001604052805f815250815250908060018154018082558091505060019003905f5260205f2090600402015f909190919091505f820151815f01556020820151816001015f6101000a81548160ff0219169083151502179055506040820151816002015560608201518160030190816118139190613af4565b5050508c8c8281811061182957611828613775565b5b905060200201358261183b91906137a2565b915080806001019150506116e5565b50806037819055505f603660146101000a81548160ff0219169083600481111561187757611876613614565b5b02179055506118ed60325f9054906101000a900473ffffffffffffffffffffffffffffffffffffffff163060375460365f9054906101000a900473ffffffffffffffffffffffffffffffffffffffff1673ffffffffffffffffffffffffffffffffffffffff166125db909392919063ffffffff16565b6001603660146101000a81548160ff0219169083600481111561191357611912613614565b5b021790555060335f9054906101000a900473ffffffffffffffffffffffffffffffffffffffff1673ffffffffffffffffffffffffffffffffffffffff1660325f9054906101000a900473ffffffffffffffffffffffffffffffffffffffff1673ffffffffffffffffffffffffffffffffffffffff167fd82fda2acdf634e728bd47eb9c7bc504b264403ac59bdf13ad189112025b70588f6037546039546040516119bf93929190613bc3565b60405180910390a3508315611a22575f855f0160086101000a81548160ff0219169083151502179055507fc7f505b2f371ae2175ee4913f4499e1f2633a7b5936321eed1cdaeb6115181d26001604051611a199190613c44565b60405180910390a15b5050505050505050505050505050565b611a3a61214a565b611a42612664565b565b5f5f611a4e6126c5565b9050805f015f9054906101000a900473ffffffffffffffffffffffffffffffffffffffff1691505090565b611a8161214a565b611a896126ec565b611abb611a94611a44565b828473ffffffffffffffffffffffffffffffffffffffff166120c49092919063ffffffff16565b8173ffffffffffffffffffffffffffffffffffffffff167f5fafa99d0643513820be26656b45130b01e1c03062e1266bf36f88cbd3bd969582604051611b019190612e87565b60405180910390a25050565b6040518060400160405280600581526020017f352e302e3000000000000000000000000000000000000000000000000000000081525081565b611b4e61214a565b8160345f6101000a81548173ffffffffffffffffffffffffffffffffffffffff021916908373ffffffffffffffffffffffffffffffffffffffff160217905550806035819055508173ffffffffffffffffffffffffffffffffffffffff167f172e82adbff7f6091475c3c090e20aba7903fd41ece755a0db2f62c869a75d5182604051611bdb9190612e87565b60405180910390a25050565b603c5481565b60345f9054906101000a900473ffffffffffffffffffffffffffffffffffffffff1673ffffffffffffffffffffffffffffffffffffffff163373ffffffffffffffffffffffffffffffffffffffff1614611c73576040517f2eef310a00000000000000000000000000000000000000000000000000000000815260040160405180910390fd5b6004806004811115611c8857611c87613614565b5b603660149054906101000a900460ff166004811115611caa57611ca9613614565b5b14611ce1576040517fbaf3f0f700000000000000000000000000000000000000000000000000000000815260040160405180910390fd5b5f603854603754611cf29190613742565b9050808385611d0191906137a2565b14611d41576040517f08c379a0000000000000000000000000000000000000000000000000000000008152600401611d3890613ccd565b60405180910390fd5b5f841115611db757611db660335f9054906101000a900473ffffffffffffffffffffffffffffffffffffffff168560365f9054906101000a900473ffffffffffffffffffffffffffffffffffffffff1673ffffffffffffffffffffffffffffffffffffffff166120c49092919063ffffffff16565b5b5f831115611e2d57611e2c60325f9054906101000a900473ffffffffffffffffffffffffffffffffffffffff168460365f9054906101000a900473ffffffffffffffffffffffffffffffffffffffff1673ffffffffffffffffffffffffffffffffffffffff166120c49092919063ffffffff16565b5b6037546038819055506002603660146101000a81548160ff02191690836004811115611e5c57611e5b613614565b5b02179055507fb4121f1f91a696a3fc75f6d151f3c9865abffa0738bda595e71c381c02af2faa8484604051611e92929190613ceb565b60405180910390a17fe39866727217e43713c3728c5769515e8fb38e990b568b9831c1689dfdf67b6660405160405180910390a150505050565b603660149054906101000a900460ff1681565b60335f9054906101000a900473ffffffffffffffffffffffffffffffffffffffff1681565b603a5f9054906101000a900473ffffffffffffffffffffffffffffffffffffffff1681565b603b8181548110611f38575f80fd5b905f5260205f2090600402015f91509050805f015490806001015f9054906101000a900460ff1690806002015490806003018054611f75906138a0565b80601f0160208091040260200160405190810160405280929190818152602001828054611fa1906138a0565b8015611fec5780601f10611fc357610100808354040283529160200191611fec565b820191905f5260205f20905b815481529060010190602001808311611fcf57829003601f168201915b5050505050905084565b611ffe61214a565b5f73ffffffffffffffffffffffffffffffffffffffff168173ffffffffffffffffffffffffffffffffffffffff160361206e575f6040517f1e4fbdf70000000000000000000000000000000000000000000000000000000081526004016120659190612e56565b60405180910390fd5b612077816124c7565b50565b612082610e7d565b156120c2576040517f08c379a00000000000000000000000000000000000000000000000000000000081526004016120b990613d5c565b60405180910390fd5b565b6121458363a9059cbb60e01b84846040516024016120e3929190613d7a565b604051602081830303815290604052907bffffffffffffffffffffffffffffffffffffffffffffffffffffffff19166020820180517bffffffffffffffffffffffffffffffffffffffffffffffffffffffff8381831617835250505050612735565b505050565b6121526127fb565b73ffffffffffffffffffffffffffffffffffffffff16612170611a44565b73ffffffffffffffffffffffffffffffffffffffff16146121cf576121936127fb565b6040517f118cdaa70000000000000000000000000000000000000000000000000000000081526004016121c69190612e56565b60405180910390fd5b565b6121d96126ec565b5f5f5f6101000a81548160ff0219169083151502179055507f5db9ee0a495bf2e6ff9c91a7834c1ba4fdd244a5e8aa4e537bd38aeae4b073aa61221a6127fb565b6040516122279190612e56565b60405180910390a1565b7f000000000000000000000000000000000000000000000000000000000000000073ffffffffffffffffffffffffffffffffffffffff163073ffffffffffffffffffffffffffffffffffffffff1614806122de57507f000000000000000000000000000000000000000000000000000000000000000073ffffffffffffffffffffffffffffffffffffffff166122c5612802565b73ffffffffffffffffffffffffffffffffffffffff1614155b15612315576040517fe07c8dba00000000000000000000000000000000000000000000000000000000815260040160405180910390fd5b565b61231f61214a565b50565b8173ffffffffffffffffffffffffffffffffffffffff166352d1902d6040518163ffffffff1660e01b8152600401602060405180830381865afa92505050801561238a57506040513d601f19601f820116820180604052508101906123879190613dcb565b60015b6123cb57816040517f4c9c8ce30000000000000000000000000000000000000000000000000000000081526004016123c29190612e56565b60405180910390fd5b7f360894a13ba1a3210667c828492db98dca3e2076cc3735a920a3ca505d382bbc5f1b811461243157806040517faa1d49a40000000000000000000000000000000000000000000000000000000081526004016124289190613185565b60405180910390fd5b61243b8383612855565b505050565b7f000000000000000000000000000000000000000000000000000000000000000073ffffffffffffffffffffffffffffffffffffffff163073ffffffffffffffffffffffffffffffffffffffff16146124c5576040517fe07c8dba00000000000000000000000000000000000000000000000000000000815260040160405180910390fd5b565b5f6124d06126c5565b90505f815f015f9054906101000a900473ffffffffffffffffffffffffffffffffffffffff16905082825f015f6101000a81548173ffffffffffffffffffffffffffffffffffffffff021916908373ffffffffffffffffffffffffffffffffffffffff1602179055508273ffffffffffffffffffffffffffffffffffffffff168173ffffffffffffffffffffffffffffffffffffffff167f8be0079c531659141344cd1fd0a4f28419497f9722a3daafe3b4186f6b6457e060405160405180910390a3505050565b5f5f6125a26128c7565b90508091505090565b6125b36128f0565b6125bc81612930565b50565b6125c76128f0565b565b6125d16128f0565b6125d96129b4565b565b61265e846323b872dd60e01b8585856040516024016125fc93929190613df6565b604051602081830303815290604052907bffffffffffffffffffffffffffffffffffffffffffffffffffffffff19166020820180517bffffffffffffffffffffffffffffffffffffffffffffffffffffffff8381831617835250505050612735565b50505050565b61266c61207a565b60015f5f6101000a81548160ff0219169083151502179055507f62e78cea01bee320cd4e420270b5ea74000d11b0c9f74754ebdbfc544b05a2586126ae6127fb565b6040516126bb9190612e56565b60405180910390a1565b5f7f9016d09d72d40fdae2fd8ceac6b6234c7706214fd39c1cd1e609a0528c199300905090565b6126f4610e7d565b612733576040517f08c379a000000000000000000000000000000000000000000000000000000000815260040161272a90613e75565b60405180910390fd5b565b5f612796826040518060400160405280602081526020017f5361666545524332303a206c6f772d6c6576656c2063616c6c206661696c65648152508573ffffffffffffffffffffffffffffffffffffffff166129d69092919063ffffffff16565b90505f815114806127b75750808060200190518101906127b69190613ebd565b5b6127f6576040517f08c379a00000000000000000000000000000000000000000000000000000000081526004016127ed90613f58565b60405180910390fd5b505050565b5f33905090565b5f61282e7f360894a13ba1a3210667c828492db98dca3e2076cc3735a920a3ca505d382bbc5f1b6129ed565b5f015f9054906101000a900473ffffffffffffffffffffffffffffffffffffffff16905090565b61285e826129f6565b8173ffffffffffffffffffffffffffffffffffffffff167fbc7cd75a20ee27fd9adebab32041f755214dbc6bffa90cc0225b39da2e5c2d3b60405160405180910390a25f815111156128ba576128b48282612abf565b506128c3565b6128c2612b3f565b5b5050565b5f7ff0c57e16840df040f15088dc2f81fe391c3923bec73e23a9662efc9c229c6a005f1b905090565b6128f8612b7b565b61292e576040517fd7e6bcf800000000000000000000000000000000000000000000000000000000815260040160405180910390fd5b565b6129386128f0565b5f73ffffffffffffffffffffffffffffffffffffffff168173ffffffffffffffffffffffffffffffffffffffff16036129a8575f6040517f1e4fbdf700000000000000000000000000000000000000000000000000000000815260040161299f9190612e56565b60405180910390fd5b6129b1816124c7565b50565b6129bc6128f0565b5f5f5f6101000a81548160ff021916908315150217905550565b60606129e484845f85612b99565b90509392505050565b5f819050919050565b5f8173ffffffffffffffffffffffffffffffffffffffff163b03612a5157806040517f4c9c8ce3000000000000000000000000000000000000000000000000000000008152600401612a489190612e56565b60405180910390fd5b80612a7d7f360894a13ba1a3210667c828492db98dca3e2076cc3735a920a3ca505d382bbc5f1b6129ed565b5f015f6101000a81548173ffffffffffffffffffffffffffffffffffffffff021916908373ffffffffffffffffffffffffffffffffffffffff16021790555050565b60605f5f8473ffffffffffffffffffffffffffffffffffffffff1684604051612ae89190613fba565b5f60405180830381855af49150503d805f8114612b20576040519150601f19603f3d011682016040523d82523d5f602084013e612b25565b606091505b5091509150612b35858383612c62565b9250505092915050565b5f341115612b79576040517fb398979f00000000000000000000000000000000000000000000000000000000815260040160405180910390fd5b565b5f612b84612598565b5f0160089054906101000a900460ff16905090565b606082471015612bde576040517f08c379a0000000000000000000000000000000000000000000000000000000008152600401612bd590614040565b60405180910390fd5b5f5f8673ffffffffffffffffffffffffffffffffffffffff168587604051612c069190613fba565b5f6040518083038185875af1925050503d805f8114612c40576040519150601f19603f3d011682016040523d82523d5f602084013e612c45565b606091505b5091509150612c5687838387612cef565b92505050949350505050565b606082612c7757612c7282612d63565b612ce7565b5f8251148015612c9d57505f8473ffffffffffffffffffffffffffffffffffffffff163b145b15612cdf57836040517f9996b315000000000000000000000000000000000000000000000000000000008152600401612cd69190612e56565b60405180910390fd5b819050612ce8565b5b9392505050565b60608315612d50575f835103612d4857612d0885612da6565b612d47576040517f08c379a0000000000000000000000000000000000000000000000000000000008152600401612d3e906140a8565b60405180910390fd5b5b829050612d5b565b612d5a8383612dc8565b5b949350505050565b5f81511115612d7457805160208201fd5b6040517fd6bda27500000000000000000000000000000000000000000000000000000000815260040160405180910390fd5b5f5f8273ffffffffffffffffffffffffffffffffffffffff163b119050919050565b5f82511115612dda5781518083602001fd5b806040517f08c379a0000000000000000000000000000000000000000000000000000000008152600401612e0e91906135b6565b60405180910390fd5b5f73ffffffffffffffffffffffffffffffffffffffff82169050919050565b5f612e4082612e17565b9050919050565b612e5081612e36565b82525050565b5f602082019050612e695f830184612e47565b92915050565b5f819050919050565b612e8181612e6f565b82525050565b5f602082019050612e9a5f830184612e78565b92915050565b5f819050919050565b5f612ec3612ebe612eb984612e17565b612ea0565b612e17565b9050919050565b5f612ed482612ea9565b9050919050565b5f612ee582612eca565b9050919050565b612ef581612edb565b82525050565b5f602082019050612f0e5f830184612eec565b92915050565b5f604051905090565b5f5ffd5b5f5ffd5b612f2e81612e6f565b8114612f38575f5ffd5b50565b5f81359050612f4981612f25565b92915050565b5f60208284031215612f6457612f63612f1d565b5b5f612f7184828501612f3b565b91505092915050565b5f8115159050919050565b612f8e81612f7a565b82525050565b5f602082019050612fa75f830184612f85565b92915050565b612fb681612e36565b8114612fc0575f5ffd5b50565b5f81359050612fd181612fad565b92915050565b5f5ffd5b5f5ffd5b5f601f19601f8301169050919050565b7f4e487b71000000000000000000000000000000000000000000000000000000005f52604160045260245ffd5b61302582612fdf565b810181811067ffffffffffffffff8211171561304457613043612fef565b5b80604052505050565b5f613056612f14565b9050613062828261301c565b919050565b5f67ffffffffffffffff82111561308157613080612fef565b5b61308a82612fdf565b9050602081019050919050565b828183375f83830152505050565b5f6130b76130b284613067565b61304d565b9050828152602081018484840111156130d3576130d2612fdb565b5b6130de848285613097565b509392505050565b5f82601f8301126130fa576130f9612fd7565b5b813561310a8482602086016130a5565b91505092915050565b5f5f6040838503121561312957613128612f1d565b5b5f61313685828601612fc3565b925050602083013567ffffffffffffffff81111561315757613156612f21565b5b613163858286016130e6565b9150509250929050565b5f819050919050565b61317f8161316d565b82525050565b5f6020820190506131985f830184613176565b92915050565b5f81519050919050565b5f82825260208201905092915050565b5f819050602082019050919050565b6131d081612e6f565b82525050565b6131df81612f7a565b82525050565b5f81519050919050565b5f82825260208201905092915050565b8281835e5f83830152505050565b5f613217826131e5565b61322181856131ef565b93506132318185602086016131ff565b61323a81612fdf565b840191505092915050565b5f608083015f83015161325a5f8601826131c7565b50602083015161326d60208601826131d6565b50604083015161328060408601826131c7565b5060608301518482036060860152613298828261320d565b9150508091505092915050565b5f6132b08383613245565b905092915050565b5f602082019050919050565b5f6132ce8261319e565b6132d881856131a8565b9350836020820285016132ea856131b8565b805f5b85811015613325578484038952815161330685826132a5565b9450613311836132b8565b925060208a019950506001810190506132ed565b50829750879550505050505092915050565b5f6020820190508181035f83015261334f81846132c4565b905092915050565b5f5ffd5b5f5ffd5b5f5f83601f84011261337457613373612fd7565b5b8235905067ffffffffffffffff81111561339157613390613357565b5b6020830191508360018202830111156133ad576133ac61335b565b5b9250929050565b5f5f602083850312156133ca576133c9612f1d565b5b5f83013567ffffffffffffffff8111156133e7576133e6612f21565b5b6133f38582860161335f565b92509250509250929050565b5f5f83601f84011261341457613413612fd7565b5b8235905067ffffffffffffffff81111561343157613430613357565b5b60208301915083602082028301111561344d5761344c61335b565b5b9250929050565b5f5f5f5f5f5f5f5f5f60e08a8c03121561347157613470612f1d565b5b5f61347e8c828d01612fc3565b995050602061348f8c828d01612fc3565b98505060406134a08c828d01612fc3565b97505060608a013567ffffffffffffffff8111156134c1576134c0612f21565b5b6134cd8c828d016133ff565b965096505060808a013567ffffffffffffffff8111156134f0576134ef612f21565b5b6134fc8c828d016133ff565b945094505060a061350f8c828d01612fc3565b92505060c06135208c828d01612f3b565b9150509295985092959850929598565b5f5f6040838503121561354657613545612f1d565b5b5f61355385828601612fc3565b925050602061356485828601612f3b565b9150509250929050565b5f82825260208201905092915050565b5f613588826131e5565b613592818561356e565b93506135a28185602086016131ff565b6135ab81612fdf565b840191505092915050565b5f6020820190508181035f8301526135ce818461357e565b905092915050565b5f5f604083850312156135ec576135eb612f1d565b5b5f6135f985828601612f3b565b925050602061360a85828601612f3b565b9150509250929050565b7f4e487b71000000000000000000000000000000000000000000000000000000005f52602160045260245ffd5b6005811061365257613651613614565b5b50565b5f81905061366282613641565b919050565b5f61367182613655565b9050919050565b61368181613667565b82525050565b5f60208201905061369a5f830184613678565b92915050565b5f6080820190506136b35f830187612e78565b6136c06020830186612f85565b6136cd6040830185612e78565b81810360608301526136df818461357e565b905095945050505050565b5f602082840312156136ff576136fe612f1d565b5b5f61370c84828501612fc3565b91505092915050565b7f4e487b71000000000000000000000000000000000000000000000000000000005f52601160045260245ffd5b5f61374c82612e6f565b915061375783612e6f565b925082820390508181111561376f5761376e613715565b5b92915050565b7f4e487b71000000000000000000000000000000000000000000000000000000005f52603260045260245ffd5b5f6137ac82612e6f565b91506137b783612e6f565b92508282019050808211156137cf576137ce613715565b5b92915050565b5f6137df82612e6f565b91506137ea83612e6f565b92508282026137f881612e6f565b9150828204841483151761380f5761380e613715565b5b5092915050565b7f4e487b71000000000000000000000000000000000000000000000000000000005f52601260045260245ffd5b5f61384d82612e6f565b915061385883612e6f565b92508261386857613867613816565b5b828204905092915050565b7f4e487b71000000000000000000000000000000000000000000000000000000005f52602260045260245ffd5b5f60028204905060018216806138b757607f821691505b6020821081036138ca576138c9613873565b5b50919050565b5f815190506138de81612f25565b92915050565b5f602082840312156138f9576138f8612f1d565b5b5f613906848285016138d0565b91505092915050565b5f61391a838561356e565b9350613927838584613097565b61393083612fdf565b840190509392505050565b5f6020820190508181035f83015261395481848661390f565b90509392505050565b5f819050815f5260205f209050919050565b5f6020601f8301049050919050565b5f82821b905092915050565b5f600883026139b97fffffffffffffffffffffffffffffffffffffffffffffffffffffffffffffffff8261397e565b6139c3868361397e565b95508019841693508086168417925050509392505050565b5f6139f56139f06139eb84612e6f565b612ea0565b612e6f565b9050919050565b5f819050919050565b613a0e836139db565b613a22613a1a826139fc565b84845461398a565b825550505050565b5f5f905090565b613a39613a2a565b613a44818484613a05565b505050565b5b81811015613a6757613a5c5f82613a31565b600181019050613a4a565b5050565b601f821115613aac57613a7d8161395d565b613a868461396f565b81016020851015613a95578190505b613aa9613aa18561396f565b830182613a49565b50505b505050565b5f82821c905092915050565b5f613acc5f1984600802613ab1565b1980831691505092915050565b5f613ae48383613abd565b9150826002028217905092915050565b613afd826131e5565b67ffffffffffffffff811115613b1657613b15612fef565b5b613b2082546138a0565b613b2b828285613a6b565b5f60209050601f831160018114613b5c575f8415613b4a578287015190505b613b548582613ad9565b865550613bbb565b601f198416613b6a8661395d565b5f5b82811015613b9157848901518255600182019150602085019450602081019050613b6c565b86831015613bae5784890151613baa601f891682613abd565b8355505b6001600288020188555050505b505050505050565b5f606082019050613bd65f830186612e47565b613be36020830185612e78565b613bf06040830184612e78565b949350505050565b5f819050919050565b5f67ffffffffffffffff82169050919050565b5f613c2e613c29613c2484613bf8565b612ea0565b613c01565b9050919050565b613c3e81613c14565b82525050565b5f602082019050613c575f830184613c35565b92915050565b7f536861726573206d75737420657175616c2072656d61696e696e6720616d6f755f8201527f6e74000000000000000000000000000000000000000000000000000000000000602082015250565b5f613cb760228361356e565b9150613cc282613c5d565b604082019050919050565b5f6020820190508181035f830152613ce481613cab565b9050919050565b5f604082019050613cfe5f830185612e78565b613d0b6020830184612e78565b9392505050565b7f5061757361626c653a20706175736564000000000000000000000000000000005f82015250565b5f613d4660108361356e565b9150613d5182613d12565b602082019050919050565b5f6020820190508181035f830152613d7381613d3a565b9050919050565b5f604082019050613d8d5f830185612e47565b613d9a6020830184612e78565b9392505050565b613daa8161316d565b8114613db4575f5ffd5b50565b5f81519050613dc581613da1565b92915050565b5f60208284031215613de057613ddf612f1d565b5b5f613ded84828501613db7565b91505092915050565b5f606082019050613e095f830186612e47565b613e166020830185612e47565b613e236040830184612e78565b949350505050565b7f5061757361626c653a206e6f74207061757365640000000000000000000000005f82015250565b5f613e5f60148361356e565b9150613e6a82613e2b565b602082019050919050565b5f6020820190508181035f830152613e8c81613e53565b9050919050565b613e9c81612f7a565b8114613ea6575f5ffd5b50565b5f81519050613eb781613e93565b92915050565b5f60208284031215613ed257613ed1612f1d565b5b5f613edf84828501613ea9565b91505092915050565b7f5361666545524332303a204552433230206f7065726174696f6e20646964206e5f8201527f6f74207375636365656400000000000000000000000000000000000000000000602082015250565b5f613f42602a8361356e565b9150613f4d82613ee8565b604082019050919050565b5f6020820190508181035f830152613f6f81613f36565b9050919050565b5f81519050919050565b5f81905092915050565b5f613f9482613f76565b613f9e8185613f80565b9350613fae8185602086016131ff565b80840191505092915050565b5f613fc58284613f8a565b915081905092915050565b7f416464726573733a20696e73756666696369656e742062616c616e636520666f5f8201527f722063616c6c0000000000000000000000000000000000000000000000000000602082015250565b5f61402a60268361356e565b915061403582613fd0565b604082019050919050565b5f6020820190508181035f8301526140578161401e565b9050919050565b7f416464726573733a2063616c6c20746f206e6f6e2d636f6e74726163740000005f82015250565b5f614092601d8361356e565b915061409d8261405e565b602082019050919050565b5f6020820190508181035f8301526140bf81614086565b905091905056fea2646970667358221220e792b46a4193aa1250b784f9c4101a138c7598cc200da617b26b729d5e9b805764736f6c634300081e0033",
			"opcodes": "PUSH1 0xA0 PUSH1 0x40 MSTORE ADDRESS PUSH20 0xFFFFFFFFFFFFFFFFFFFFFFFFFFFFFFFFFFFFFFFF AND PUSH1 0x80 SWAP1 PUSH20 0xFFFFFFFFFFFFFFFFFFFFFFFFFFFFFFFFFFFFFFFF AND DUP2 MSTORE POP CALLVALUE DUP1 ISZERO PUSH1 0x41 JUMPI PUSH0 PUSH0 REVERT JUMPDEST POP PUSH1 0x80 MLOAD PUSH2 0x40FC PUSH2 0x68 PUSH0 CODECOPY PUSH0 DUP2 DUP2 PUSH2 0x2233 ADD MSTORE DUP2 DUP2 PUSH2 0x2288 ADD MSTORE PUSH2 0x2442 ADD MSTORE PUSH2 0x40FC PUSH0 RETURN INVALID PUSH1 0x80 PUSH1 0x40 MSTORE PUSH1 0x4 CALLDATASIZE LT PUSH2 0x203 JUMPI PUSH0 CALLDATALOAD PUSH1 0xE0 SHR DUP1 PUSH4 0x629E4ED0 GT PUSH2 0x117 JUMPI DUP1 PUSH4 0xAD3CB1CC GT PUSH2 0x9F JUMPI DUP1 PUSH4 0xC19D93FB GT PUSH2 0x6E JUMPI DUP1 PUSH4 0xC19D93FB EQ PUSH2 0x689 JUMPI DUP1 PUSH4 0xCA4B208B EQ PUSH2 0x6B3 JUMPI DUP1 PUSH4 0xE138818C EQ PUSH2 0x6DD JUMPI DUP1 PUSH4 0xE89E4ED6 EQ PUSH2 0x707 JUMPI DUP1 PUSH4 0xF2FDE38B EQ PUSH2 0x746 JUMPI PUSH2 0x203 JUMP JUMPDEST DUP1 PUSH4 0xAD3CB1CC EQ PUSH2 0x5E5 JUMPI DUP1 PUSH4 0xB1BAB56A EQ PUSH2 0x60F JUMPI DUP1 PUSH4 0xB95D8DD4 EQ PUSH2 0x637 JUMPI DUP1 PUSH4 0xBDC84AC3 EQ PUSH2 0x661 JUMPI PUSH2 0x203 JUMP JUMPDEST DUP1 PUSH4 0x725A3B4B GT PUSH2 0xE6 JUMPI DUP1 PUSH4 0x725A3B4B EQ PUSH2 0x52D JUMPI DUP1 PUSH4 0x817F9749 EQ PUSH2 0x555 JUMPI DUP1 PUSH4 0x8456CB59 EQ PUSH2 0x57D JUMPI DUP1 PUSH4 0x8DA5CB5B EQ PUSH2 0x593 JUMPI DUP1 PUSH4 0x95CCEA67 EQ PUSH2 0x5BD JUMPI PUSH2 0x203 JUMP JUMPDEST DUP1 PUSH4 0x629E4ED0 EQ PUSH2 0x499 JUMPI DUP1 PUSH4 0x6CC6CDE1 EQ PUSH2 0x4C3 JUMPI DUP1 PUSH4 0x6F9FB98A EQ PUSH2 0x4ED JUMPI DUP1 PUSH4 0x715018A6 EQ PUSH2 0x517 JUMPI PUSH2 0x203 JUMP JUMPDEST DUP1 PUSH4 0x317DEBF5 GT PUSH2 0x19A JUMPI DUP1 PUSH4 0x486265C6 GT PUSH2 0x169 JUMPI DUP1 PUSH4 0x486265C6 EQ PUSH2 0x3D5 JUMPI DUP1 PUSH4 0x4C05ABEB EQ PUSH2 0x3FF JUMPI DUP1 PUSH4 0x4F1EF286 EQ PUSH2 0x429 JUMPI DUP1 PUSH4 0x52D1902D EQ PUSH2 0x445 JUMPI DUP1 PUSH4 0x5C975ABB EQ PUSH2 0x46F JUMPI PUSH2 0x203 JUMP JUMPDEST DUP1 PUSH4 0x317DEBF5 EQ PUSH2 0x343 JUMPI DUP1 PUSH4 0x3DDB47B4 EQ PUSH2 0x36B JUMPI DUP1 PUSH4 0x3F4BA83A EQ PUSH2 0x395 JUMPI DUP1 PUSH4 0x45D30A17 EQ PUSH2 0x3AB JUMPI PUSH2 0x203 JUMP JUMPDEST DUP1 PUSH4 0x22DCD13E GT PUSH2 0x1D6 JUMPI DUP1 PUSH4 0x22DCD13E EQ PUSH2 0x29B JUMPI DUP1 PUSH4 0x2FBA2C85 EQ PUSH2 0x2C5 JUMPI DUP1 PUSH4 0x3013CE29 EQ PUSH2 0x2EF JUMPI DUP1 PUSH4 0x314325C2 EQ PUSH2 0x319 JUMPI PUSH2 0x203 JUMP JUMPDEST DUP1 PUSH4 0x41AE880 EQ PUSH2 0x207 JUMPI DUP1 PUSH4 0x681CA55 EQ PUSH2 0x231 JUMPI DUP1 PUSH4 0x1A39D8EF EQ PUSH2 0x25B JUMPI DUP1 PUSH4 0x1ADFF0EE EQ PUSH2 0x285 JUMPI JUMPDEST PUSH0 PUSH0 REVERT JUMPDEST CALLVALUE DUP1 ISZERO PUSH2 0x212 JUMPI PUSH0 PUSH0 REVERT JUMPDEST POP PUSH2 0x21B PUSH2 0x76E JUMP JUMPDEST PUSH1 0x40 MLOAD PUSH2 0x228 SWAP2 SWAP1 PUSH2 0x2E56 JUMP JUMPDEST PUSH1 0x40 MLOAD DUP1 SWAP2 SUB SWAP1 RETURN JUMPDEST CALLVALUE DUP1 ISZERO PUSH2 0x23C JUMPI PUSH0 PUSH0 REVERT JUMPDEST POP PUSH2 0x245 PUSH2 0x793 JUMP JUMPDEST PUSH1 0x40 MLOAD PUSH2 0x252 SWAP2 SWAP1 PUSH2 0x2E87 JUMP JUMPDEST PUSH1 0x40 MLOAD DUP1 SWAP2 SUB SWAP1 RETURN JUMPDEST CALLVALUE DUP1 ISZERO PUSH2 0x266 JUMPI PUSH0 PUSH0 REVERT JUMPDEST POP PUSH2 0x26F PUSH2 0x79F JUMP JUMPDEST PUSH1 0x40 MLOAD PUSH2 0x27C SWAP2 SWAP1 PUSH2 0x2E87 JUMP JUMPDEST PUSH1 0x40 MLOAD DUP1 SWAP2 SUB SWAP1 RETURN JUMPDEST CALLVALUE DUP1 ISZERO PUSH2 0x290 JUMPI PUSH0 PUSH0 REVERT JUMPDEST POP PUSH2 0x299 PUSH2 0x7A5 JUMP JUMPDEST STOP JUMPDEST CALLVALUE DUP1 ISZERO PUSH2 0x2A6 JUMPI PUSH0 PUSH0 REVERT JUMPDEST POP PUSH2 0x2AF PUSH2 0x985 JUMP JUMPDEST PUSH1 0x40 MLOAD PUSH2 0x2BC SWAP2 SWAP1 PUSH2 0x2E87 JUMP JUMPDEST PUSH1 0x40 MLOAD DUP1 SWAP2 SUB SWAP1 RETURN JUMPDEST CALLVALUE DUP1 ISZERO PUSH2 0x2D0 JUMPI PUSH0 PUSH0 REVERT JUMPDEST POP PUSH2 0x2D9 PUSH2 0x98B JUMP JUMPDEST PUSH1 0x40 MLOAD PUSH2 0x2E6 SWAP2 SWAP1 PUSH2 0x2E87 JUMP JUMPDEST PUSH1 0x40 MLOAD DUP1 SWAP2 SUB SWAP1 RETURN JUMPDEST CALLVALUE DUP1 ISZERO PUSH2 0x2FA JUMPI PUSH0 PUSH0 REVERT JUMPDEST POP PUSH2 0x303 PUSH2 0x9A1 JUMP JUMPDEST PUSH1 0x40 MLOAD PUSH2 0x310 SWAP2 SWAP1 PUSH2 0x2EFB JUMP JUMPDEST PUSH1 0x40 MLOAD DUP1 SWAP2 SUB SWAP1 RETURN JUMPDEST CALLVALUE DUP1 ISZERO PUSH2 0x324 JUMPI PUSH0 PUSH0 REVERT JUMPDEST POP PUSH2 0x32D PUSH2 0x9C6 JUMP JUMPDEST PUSH1 0x40 MLOAD PUSH2 0x33A SWAP2 SWAP1 PUSH2 0x2E87 JUMP JUMPDEST PUSH1 0x40 MLOAD DUP1 SWAP2 SUB SWAP1 RETURN JUMPDEST CALLVALUE DUP1 ISZERO PUSH2 0x34E JUMPI PUSH0 PUSH0 REVERT JUMPDEST POP PUSH2 0x369 PUSH1 0x4 DUP1 CALLDATASIZE SUB DUP2 ADD SWAP1 PUSH2 0x364 SWAP2 SWAP1 PUSH2 0x2F4F JUMP JUMPDEST PUSH2 0x9CC JUMP JUMPDEST STOP JUMPDEST CALLVALUE DUP1 ISZERO PUSH2 0x376 JUMPI PUSH0 PUSH0 REVERT JUMPDEST POP PUSH2 0x37F PUSH2 0xDAD JUMP JUMPDEST PUSH1 0x40 MLOAD PUSH2 0x38C SWAP2 SWAP1 PUSH2 0x2F94 JUMP JUMPDEST PUSH1 0x40 MLOAD DUP1 SWAP2 SUB SWAP1 RETURN JUMPDEST CALLVALUE DUP1 ISZERO PUSH2 0x3A0 JUMPI PUSH0 PUSH0 REVERT JUMPDEST POP PUSH2 0x3A9 PUSH2 0xE09 JUMP JUMPDEST STOP JUMPDEST CALLVALUE DUP1 ISZERO PUSH2 0x3B6 JUMPI PUSH0 PUSH0 REVERT JUMPDEST POP PUSH2 0x3BF PUSH2 0xE1B JUMP JUMPDEST PUSH1 0x40 MLOAD PUSH2 0x3CC SWAP2 SWAP1 PUSH2 0x2E87 JUMP JUMPDEST PUSH1 0x40 MLOAD DUP1 SWAP2 SUB SWAP1 RETURN JUMPDEST CALLVALUE DUP1 ISZERO PUSH2 0x3E0 JUMPI PUSH0 PUSH0 REVERT JUMPDEST POP PUSH2 0x3E9 PUSH2 0xE21 JUMP JUMPDEST PUSH1 0x40 MLOAD PUSH2 0x3F6 SWAP2 SWAP1 PUSH2 0x2E87 JUMP JUMPDEST PUSH1 0x40 MLOAD DUP1 SWAP2 SUB SWAP1 RETURN JUMPDEST CALLVALUE DUP1 ISZERO PUSH2 0x40A JUMPI PUSH0 PUSH0 REVERT JUMPDEST POP PUSH2 0x413 PUSH2 0xE28 JUMP JUMPDEST PUSH1 0x40 MLOAD PUSH2 0x420 SWAP2 SWAP1 PUSH2 0x2E87 JUMP JUMPDEST PUSH1 0x40 MLOAD DUP1 SWAP2 SUB SWAP1 RETURN JUMPDEST PUSH2 0x443 PUSH1 0x4 DUP1 CALLDATASIZE SUB DUP2 ADD SWAP1 PUSH2 0x43E SWAP2 SWAP1 PUSH2 0x3113 JUMP JUMPDEST PUSH2 0xE2D JUMP JUMPDEST STOP JUMPDEST CALLVALUE DUP1 ISZERO PUSH2 0x450 JUMPI PUSH0 PUSH0 REVERT JUMPDEST POP PUSH2 0x459 PUSH2 0xE4C JUMP JUMPDEST PUSH1 0x40 MLOAD PUSH2 0x466 SWAP2 SWAP1 PUSH2 0x3185 JUMP JUMPDEST PUSH1 0x40 MLOAD DUP1 SWAP2 SUB SWAP1 RETURN JUMPDEST CALLVALUE DUP1 ISZERO PUSH2 0x47A JUMPI PUSH0 PUSH0 REVERT JUMPDEST POP PUSH2 0x483 PUSH2 0xE7D JUMP JUMPDEST PUSH1 0x40 MLOAD PUSH2 0x490 SWAP2 SWAP1 PUSH2 0x2F94 JUMP JUMPDEST PUSH1 0x40 MLOAD DUP1 SWAP2 SUB SWAP1 RETURN JUMPDEST CALLVALUE DUP1 ISZERO PUSH2 0x4A4 JUMPI PUSH0 PUSH0 REVERT JUMPDEST POP PUSH2 0x4AD PUSH2 0xE91 JUMP JUMPDEST PUSH1 0x40 MLOAD PUSH2 0x4BA SWAP2 SWAP1 PUSH2 0x3337 JUMP JUMPDEST PUSH1 0x40 MLOAD DUP1 SWAP2 SUB SWAP1 RETURN JUMPDEST CALLVALUE DUP1 ISZERO PUSH2 0x4CE JUMPI PUSH0 PUSH0 REVERT JUMPDEST POP PUSH2 0x4D7 PUSH2 0xFAA JUMP JUMPDEST PUSH1 0x40 MLOAD PUSH2 0x4E4 SWAP2 SWAP1 PUSH2 0x2E56 JUMP JUMPDEST PUSH1 0x40 MLOAD DUP1 SWAP2 SUB SWAP1 RETURN JUMPDEST CALLVALUE DUP1 ISZERO PUSH2 0x4F8 JUMPI PUSH0 PUSH0 REVERT JUMPDEST POP PUSH2 0x501 PUSH2 0xFCF JUMP JUMPDEST PUSH1 0x40 MLOAD PUSH2 0x50E SWAP2 SWAP1 PUSH2 0x2E87 JUMP JUMPDEST PUSH1 0x40 MLOAD DUP1 SWAP2 SUB SWAP1 RETURN JUMPDEST CALLVALUE DUP1 ISZERO PUSH2 0x522 JUMPI PUSH0 PUSH0 REVERT JUMPDEST POP PUSH2 0x52B PUSH2 0x106E JUMP JUMPDEST STOP JUMPDEST CALLVALUE DUP1 ISZERO PUSH2 0x538 JUMPI PUSH0 PUSH0 REVERT JUMPDEST POP PUSH2 0x553 PUSH1 0x4 DUP1 CALLDATASIZE SUB DUP2 ADD SWAP1 PUSH2 0x54E SWAP2 SWAP1 PUSH2 0x33B4 JUMP JUMPDEST PUSH2 0x1081 JUMP JUMPDEST STOP JUMPDEST CALLVALUE DUP1 ISZERO PUSH2 0x560 JUMPI PUSH0 PUSH0 REVERT JUMPDEST POP PUSH2 0x57B PUSH1 0x4 DUP1 CALLDATASIZE SUB DUP2 ADD SWAP1 PUSH2 0x576 SWAP2 SWAP1 PUSH2 0x3454 JUMP JUMPDEST PUSH2 0x125F JUMP JUMPDEST STOP JUMPDEST CALLVALUE DUP1 ISZERO PUSH2 0x588 JUMPI PUSH0 PUSH0 REVERT JUMPDEST POP PUSH2 0x591 PUSH2 0x1A32 JUMP JUMPDEST STOP JUMPDEST CALLVALUE DUP1 ISZERO PUSH2 0x59E JUMPI PUSH0 PUSH0 REVERT JUMPDEST POP PUSH2 0x5A7 PUSH2 0x1A44 JUMP JUMPDEST PUSH1 0x40 MLOAD PUSH2 0x5B4 SWAP2 SWAP1 PUSH2 0x2E56 JUMP JUMPDEST PUSH1 0x40 MLOAD DUP1 SWAP2 SUB SWAP1 RETURN JUMPDEST CALLVALUE DUP1 ISZERO PUSH2 0x5C8 JUMPI PUSH0 PUSH0 REVERT JUMPDEST POP PUSH2 0x5E3 PUSH1 0x4 DUP1 CALLDATASIZE SUB DUP2 ADD SWAP1 PUSH2 0x5DE SWAP2 SWAP1 PUSH2 0x3530 JUMP JUMPDEST PUSH2 0x1A79 JUMP JUMPDEST STOP JUMPDEST CALLVALUE DUP1 ISZERO PUSH2 0x5F0 JUMPI PUSH0 PUSH0 REVERT JUMPDEST POP PUSH2 0x5F9 PUSH2 0x1B0D JUMP JUMPDEST PUSH1 0x40 MLOAD PUSH2 0x606 SWAP2 SWAP1 PUSH2 0x35B6 JUMP JUMPDEST PUSH1 0x40 MLOAD DUP1 SWAP2 SUB SWAP1 RETURN JUMPDEST CALLVALUE DUP1 ISZERO PUSH2 0x61A JUMPI PUSH0 PUSH0 REVERT JUMPDEST POP PUSH2 0x635 PUSH1 0x4 DUP1 CALLDATASIZE SUB DUP2 ADD SWAP1 PUSH2 0x630 SWAP2 SWAP1 PUSH2 0x3530 JUMP JUMPDEST PUSH2 0x1B46 JUMP JUMPDEST STOP JUMPDEST CALLVALUE DUP1 ISZERO PUSH2 0x642 JUMPI PUSH0 PUSH0 REVERT JUMPDEST POP PUSH2 0x64B PUSH2 0x1BE7 JUMP JUMPDEST PUSH1 0x40 MLOAD PUSH2 0x658 SWAP2 SWAP1 PUSH2 0x2E87 JUMP JUMPDEST PUSH1 0x40 MLOAD DUP1 SWAP2 SUB SWAP1 RETURN JUMPDEST CALLVALUE DUP1 ISZERO PUSH2 0x66C JUMPI PUSH0 PUSH0 REVERT JUMPDEST POP PUSH2 0x687 PUSH1 0x4 DUP1 CALLDATASIZE SUB DUP2 ADD SWAP1 PUSH2 0x682 SWAP2 SWAP1 PUSH2 0x35D6 JUMP JUMPDEST PUSH2 0x1BED JUMP JUMPDEST STOP JUMPDEST CALLVALUE DUP1 ISZERO PUSH2 0x694 JUMPI PUSH0 PUSH0 REVERT JUMPDEST POP PUSH2 0x69D PUSH2 0x1ECC JUMP JUMPDEST PUSH1 0x40 MLOAD PUSH2 0x6AA SWAP2 SWAP1 PUSH2 0x3687 JUMP JUMPDEST PUSH1 0x40 MLOAD DUP1 SWAP2 SUB SWAP1 RETURN JUMPDEST CALLVALUE DUP1 ISZERO PUSH2 0x6BE JUMPI PUSH0 PUSH0 REVERT JUMPDEST POP PUSH2 0x6C7 PUSH2 0x1EDF JUMP JUMPDEST PUSH1 0x40 MLOAD PUSH2 0x6D4 SWAP2 SWAP1 PUSH2 0x2E56 JUMP JUMPDEST PUSH1 0x40 MLOAD DUP1 SWAP2 SUB SWAP1 RETURN JUMPDEST CALLVALUE DUP1 ISZERO PUSH2 0x6E8 JUMPI PUSH0 PUSH0 REVERT JUMPDEST POP PUSH2 0x6F1 PUSH2 0x1F04 JUMP JUMPDEST PUSH1 0x40 MLOAD PUSH2 0x6FE SWAP2 SWAP1 PUSH2 0x2E56 JUMP JUMPDEST PUSH1 0x40 MLOAD DUP1 SWAP2 SUB SWAP1 RETURN JUMPDEST CALLVALUE DUP1 ISZERO PUSH2 0x712 JUMPI PUSH0 PUSH0 REVERT JUMPDEST POP PUSH2 0x72D PUSH1 0x4 DUP1 CALLDATASIZE SUB DUP2 ADD SWAP1 PUSH2 0x728 SWAP2 SWAP1 PUSH2 0x2F4F JUMP JUMPDEST PUSH2 0x1F29 JUMP JUMPDEST PUSH1 0x40 MLOAD PUSH2 0x73D SWAP5 SWAP4 SWAP3 SWAP2 SWAP1 PUSH2 0x36A0 JUMP JUMPDEST PUSH1 0x40 MLOAD DUP1 SWAP2 SUB SWAP1 RETURN JUMPDEST CALLVALUE DUP1 ISZERO PUSH2 0x751 JUMPI PUSH0 PUSH0 REVERT JUMPDEST POP PUSH2 0x76C PUSH1 0x4 DUP1 CALLDATASIZE SUB DUP2 ADD SWAP1 PUSH2 0x767 SWAP2 SWAP1 PUSH2 0x36EA JUMP JUMPDEST PUSH2 0x1FF6 JUMP JUMPDEST STOP JUMPDEST PUSH1 0x32 PUSH0 SWAP1 SLOAD SWAP1 PUSH2 0x100 EXP SWAP1 DIV PUSH20 0xFFFFFFFFFFFFFFFFFFFFFFFFFFFFFFFFFFFFFFFF AND DUP2 JUMP JUMPDEST PUSH0 PUSH1 0x3B DUP1 SLOAD SWAP1 POP SWAP1 POP SWAP1 JUMP JUMPDEST PUSH1 0x37 SLOAD DUP2 JUMP JUMPDEST PUSH1 0x32 PUSH0 SWAP1 SLOAD SWAP1 PUSH2 0x100 EXP SWAP1 DIV PUSH20 0xFFFFFFFFFFFFFFFFFFFFFFFFFFFFFFFFFFFFFFFF AND PUSH20 0xFFFFFFFFFFFFFFFFFFFFFFFFFFFFFFFFFFFFFFFF AND CALLER PUSH20 0xFFFFFFFFFFFFFFFFFFFFFFFFFFFFFFFFFFFFFFFF AND EQ PUSH2 0x82B JUMPI PUSH1 0x40 MLOAD PUSH32 0xEA8E4EB500000000000000000000000000000000000000000000000000000000 DUP2 MSTORE PUSH1 0x4 ADD PUSH1 0x40 MLOAD DUP1 SWAP2 SUB SWAP1 REVERT JUMPDEST PUSH1 0x1 DUP1 PUSH1 0x4 DUP2 GT ISZERO PUSH2 0x840 JUMPI PUSH2 0x83F PUSH2 0x3614 JUMP JUMPDEST JUMPDEST PUSH1 0x36 PUSH1 0x14 SWAP1 SLOAD SWAP1 PUSH2 0x100 EXP SWAP1 DIV PUSH1 0xFF AND PUSH1 0x4 DUP2 GT ISZERO PUSH2 0x862 JUMPI PUSH2 0x861 PUSH2 0x3614 JUMP JUMPDEST JUMPDEST EQ PUSH2 0x899 JUMPI PUSH1 0x40 MLOAD PUSH32 0xBAF3F0F700000000000000000000000000000000000000000000000000000000 DUP2 MSTORE PUSH1 0x4 ADD PUSH1 0x40 MLOAD DUP1 SWAP2 SUB SWAP1 REVERT JUMPDEST PUSH2 0x8A1 PUSH2 0x207A JUMP JUMPDEST PUSH0 PUSH1 0x38 SLOAD PUSH1 0x37 SLOAD PUSH2 0x8B2 SWAP2 SWAP1 PUSH2 0x3742 JUMP JUMPDEST SWAP1 POP PUSH0 DUP2 GT ISZERO PUSH2 0x92A JUMPI PUSH2 0x929 PUSH1 0x32 PUSH0 SWAP1 SLOAD SWAP1 PUSH2 0x100 EXP SWAP1 DIV PUSH20 0xFFFFFFFFFFFFFFFFFFFFFFFFFFFFFFFFFFFFFFFF AND DUP3 PUSH1 0x36 PUSH0 SWAP1 SLOAD SWAP1 PUSH2 0x100 EXP SWAP1 DIV PUSH20 0xFFFFFFFFFFFFFFFFFFFFFFFFFFFFFFFFFFFFFFFF AND PUSH20 0xFFFFFFFFFFFFFFFFFFFFFFFFFFFFFFFFFFFFFFFF AND PUSH2 0x20C4 SWAP1 SWAP3 SWAP2 SWAP1 PUSH4 0xFFFFFFFF AND JUMP JUMPDEST JUMPDEST PUSH1 0x3 PUSH1 0x36 PUSH1 0x14 PUSH2 0x100 EXP DUP2 SLOAD DUP2 PUSH1 0xFF MUL NOT AND SWAP1 DUP4 PUSH1 0x4 DUP2 GT ISZERO PUSH2 0x950 JUMPI PUSH2 0x94F PUSH2 0x3614 JUMP JUMPDEST JUMPDEST MUL OR SWAP1 SSTORE POP PUSH32 0x92C439FDA90C70CCDEDCB94D28A14F9FDA69D67124EFBBE9BF905740194228C8 PUSH1 0x40 MLOAD PUSH1 0x40 MLOAD DUP1 SWAP2 SUB SWAP1 LOG1 POP POP JUMP JUMPDEST PUSH1 0x39 SLOAD DUP2 JUMP JUMPDEST PUSH0 PUSH1 0x38 SLOAD PUSH1 0x37 SLOAD PUSH2 0x99C SWAP2 SWAP1 PUSH2 0x3742 JUMP JUMPDEST SWAP1 POP SWAP1 JUMP JUMPDEST PUSH1 0x36 PUSH0 SWAP1 SLOAD SWAP1 PUSH2 0x100 EXP SWAP1 DIV PUSH20 0xFFFFFFFFFFFFFFFFFFFFFFFFFFFFFFFFFFFFFFFF AND DUP2 JUMP JUMPDEST PUSH1 0x35 SLOAD DUP2 JUMP JUMPDEST PUSH1 0x32 PUSH0 SWAP1 SLOAD SWAP1 PUSH2 0x100 EXP SWAP1 DIV PUSH20 0xFFFFFFFFFFFFFFFFFFFFFFFFFFFFFFFFFFFFFFFF AND PUSH20 0xFFFFFFFFFFFFFFFFFFFFFFFFFFFFFFFFFFFFFFFF AND CALLER PUSH20 0xFFFFFFFFFFFFFFFFFFFFFFFFFFFFFFFFFFFFFFFF AND EQ PUSH2 0xA52 JUMPI PUSH1 0x40 MLOAD PUSH32 0xEA8E4EB500000000000000000000000000000000000000000000000000000000 DUP2 MSTORE PUSH1 0x4 ADD PUSH1 0x40 MLOAD DUP1 SWAP2 SUB SWAP1 REVERT JUMPDEST PUSH1 0x1 DUP1 PUSH1 0x4 DUP2 GT ISZERO PUSH2 0xA67 JUMPI PUSH2 0xA66 PUSH2 0x3614 JUMP JUMPDEST JUMPDEST PUSH1 0x36 PUSH1 0x14 SWAP1 SLOAD SWAP1 PUSH2 0x100 EXP SWAP1 DIV PUSH1 0xFF AND PUSH1 0x4 DUP2 GT ISZERO PUSH2 0xA89 JUMPI PUSH2 0xA88 PUSH2 0x3614 JUMP JUMPDEST JUMPDEST EQ PUSH2 0xAC0 JUMPI PUSH1 0x40 MLOAD PUSH32 0xBAF3F0F700000000000000000000000000000000000000000000000000000000 DUP2 MSTORE PUSH1 0x4 ADD PUSH1 0x40 MLOAD DUP1 SWAP2 SUB SWAP1 REVERT JUMPDEST PUSH2 0xAC8 PUSH2 0x207A JUMP JUMPDEST PUSH1 0x3B DUP1 SLOAD SWAP1 POP DUP3 LT PUSH2 0xB06 JUMPI PUSH1 0x40 MLOAD PUSH32 0xBA11734000000000000000000000000000000000000000000000000000000000 DUP2 MSTORE PUSH1 0x4 ADD PUSH1 0x40 MLOAD DUP1 SWAP2 SUB SWAP1 REVERT JUMPDEST PUSH0 PUSH1 0x3B DUP4 DUP2 SLOAD DUP2 LT PUSH2 0xB1B JUMPI PUSH2 0xB1A PUSH2 0x3775 JUMP JUMPDEST JUMPDEST SWAP1 PUSH0 MSTORE PUSH1 0x20 PUSH0 KECCAK256 SWAP1 PUSH1 0x4 MUL ADD SWAP1 POP DUP1 PUSH1 0x1 ADD PUSH0 SWAP1 SLOAD SWAP1 PUSH2 0x100 EXP SWAP1 DIV PUSH1 0xFF AND ISZERO PUSH2 0xB71 JUMPI PUSH1 0x40 MLOAD PUSH32 0x63B4904E00000000000000000000000000000000000000000000000000000000 DUP2 MSTORE PUSH1 0x4 ADD PUSH1 0x40 MLOAD DUP1 SWAP2 SUB SWAP1 REVERT JUMPDEST PUSH0 DUP2 PUSH1 0x2 ADD SLOAD GT DUP1 ISZERO PUSH2 0xB87 JUMPI POP DUP1 PUSH1 0x2 ADD SLOAD TIMESTAMP GT JUMPDEST ISZERO PUSH2 0xBBE JUMPI PUSH1 0x40 MLOAD PUSH32 0x1B421E5100000000000000000000000000000000000000000000000000000000 DUP2 MSTORE PUSH1 0x4 ADD PUSH1 0x40 MLOAD DUP1 SWAP2 SUB SWAP1 REVERT JUMPDEST PUSH1 0x1 DUP2 PUSH1 0x1 ADD PUSH0 PUSH2 0x100 EXP DUP2 SLOAD DUP2 PUSH1 0xFF MUL NOT AND SWAP1 DUP4 ISZERO ISZERO MUL OR SWAP1 SSTORE POP DUP1 PUSH0 ADD SLOAD PUSH1 0x38 PUSH0 DUP3 DUP3 SLOAD PUSH2 0xBEE SWAP2 SWAP1 PUSH2 0x37A2 JUMP JUMPDEST SWAP3 POP POP DUP2 SWAP1 SSTORE POP PUSH0 PUSH2 0x2710 PUSH1 0x39 SLOAD DUP4 PUSH0 ADD SLOAD PUSH2 0xC0A SWAP2 SWAP1 PUSH2 0x37D5 JUMP JUMPDEST PUSH2 0xC14 SWAP2 SWAP1 PUSH2 0x3843 JUMP JUMPDEST SWAP1 POP PUSH0 DUP2 DUP4 PUSH0 ADD SLOAD PUSH2 0xC26 SWAP2 SWAP1 PUSH2 0x3742 JUMP JUMPDEST SWAP1 POP PUSH2 0xC95 PUSH1 0x33 PUSH0 SWAP1 SLOAD SWAP1 PUSH2 0x100 EXP SWAP1 DIV PUSH20 0xFFFFFFFFFFFFFFFFFFFFFFFFFFFFFFFFFFFFFFFF AND DUP3 PUSH1 0x36 PUSH0 SWAP1 SLOAD SWAP1 PUSH2 0x100 EXP SWAP1 DIV PUSH20 0xFFFFFFFFFFFFFFFFFFFFFFFFFFFFFFFFFFFFFFFF AND PUSH20 0xFFFFFFFFFFFFFFFFFFFFFFFFFFFFFFFFFFFFFFFF AND PUSH2 0x20C4 SWAP1 SWAP3 SWAP2 SWAP1 PUSH4 0xFFFFFFFF AND JUMP JUMPDEST PUSH0 DUP3 GT ISZERO PUSH2 0xD0B JUMPI PUSH2 0xD0A PUSH1 0x3A PUSH0 SWAP1 SLOAD SWAP1 PUSH2 0x100 EXP SWAP1 DIV PUSH20 0xFFFFFFFFFFFFFFFFFFFFFFFFFFFFFFFFFFFFFFFF AND DUP4 PUSH1 0x36 PUSH0 SWAP1 SLOAD SWAP1 PUSH2 0x100 EXP SWAP1 DIV PUSH20 0xFFFFFFFFFFFFFFFFFFFFFFFFFFFFFFFFFFFFFFFF AND PUSH20 0xFFFFFFFFFFFFFFFFFFFFFFFFFFFFFFFFFFFFFFFF AND PUSH2 0x20C4 SWAP1 SWAP3 SWAP2 SWAP1 PUSH4 0xFFFFFFFF AND JUMP JUMPDEST JUMPDEST DUP5 PUSH32 0x9E069181C12760C2CD0078ED4FACDBE1F3614543B0FBFF5DBCAC3CBC61A0B64E DUP3 PUSH1 0x40 MLOAD PUSH2 0xD3B SWAP2 SWAP1 PUSH2 0x2E87 JUMP JUMPDEST PUSH1 0x40 MLOAD DUP1 SWAP2 SUB SWAP1 LOG2 PUSH1 0x37 SLOAD PUSH1 0x38 SLOAD SUB PUSH2 0xDA6 JUMPI PUSH1 0x2 PUSH1 0x36 PUSH1 0x14 PUSH2 0x100 EXP DUP2 SLOAD DUP2 PUSH1 0xFF MUL NOT AND SWAP1 DUP4 PUSH1 0x4 DUP2 GT ISZERO PUSH2 0xD74 JUMPI PUSH2 0xD73 PUSH2 0x3614 JUMP JUMPDEST JUMPDEST MUL OR SWAP1 SSTORE POP PUSH32 0xE39866727217E43713C3728C5769515E8FB38E990B568B9831C1689DFDF67B66 PUSH1 0x40 MLOAD PUSH1 0x40 MLOAD DUP1 SWAP2 SUB SWAP1 LOG1 JUMPDEST POP POP POP POP POP JUMP JUMPDEST PUSH0 PUSH1 0x4 DUP1 DUP2 GT ISZERO PUSH2 0xDC1 JUMPI PUSH2 0xDC0 PUSH2 0x3614 JUMP JUMPDEST JUMPDEST PUSH1 0x36 PUSH1 0x14 SWAP1 SLOAD SWAP1 PUSH2 0x100 EXP SWAP1 DIV PUSH1 0xFF AND PUSH1 0x4 DUP2 GT ISZERO PUSH2 0xDE3 JUMPI PUSH2 0xDE2 PUSH2 0x3614 JUMP JUMPDEST JUMPDEST EQ PUSH2 0xDF0 JUMPI PUSH0 SWAP1 POP PUSH2 0xE06 JUMP JUMPDEST PUSH3 0x93A80 PUSH1 0x3C SLOAD PUSH2 0xE01 SWAP2 SWAP1 PUSH2 0x37A2 JUMP JUMPDEST TIMESTAMP GT SWAP1 POP JUMPDEST SWAP1 JUMP JUMPDEST PUSH2 0xE11 PUSH2 0x214A JUMP JUMPDEST PUSH2 0xE19 PUSH2 0x21D1 JUMP JUMPDEST JUMP JUMPDEST PUSH1 0x38 SLOAD DUP2 JUMP JUMPDEST PUSH3 0x93A80 DUP2 JUMP JUMPDEST PUSH1 0x14 DUP2 JUMP JUMPDEST PUSH2 0xE35 PUSH2 0x2231 JUMP JUMPDEST PUSH2 0xE3E DUP3 PUSH2 0x2317 JUMP JUMPDEST PUSH2 0xE48 DUP3 DUP3 PUSH2 0x2322 JUMP JUMPDEST POP POP JUMP JUMPDEST PUSH0 PUSH2 0xE55 PUSH2 0x2440 JUMP JUMPDEST PUSH32 0x360894A13BA1A3210667C828492DB98DCA3E2076CC3735A920A3CA505D382BBC PUSH0 SHL SWAP1 POP SWAP1 JUMP JUMPDEST PUSH0 PUSH0 PUSH0 SWAP1 SLOAD SWAP1 PUSH2 0x100 EXP SWAP1 DIV PUSH1 0xFF AND SWAP1 POP SWAP1 JUMP JUMPDEST PUSH1 0x60 PUSH1 0x3B DUP1 SLOAD DUP1 PUSH1 0x20 MUL PUSH1 0x20 ADD PUSH1 0x40 MLOAD SWAP1 DUP2 ADD PUSH1 0x40 MSTORE DUP1 SWAP3 SWAP2 SWAP1 DUP2 DUP2 MSTORE PUSH1 0x20 ADD PUSH0 SWAP1 JUMPDEST DUP3 DUP3 LT ISZERO PUSH2 0xFA1 JUMPI DUP4 DUP3 SWAP1 PUSH0 MSTORE PUSH1 0x20 PUSH0 KECCAK256 SWAP1 PUSH1 0x4 MUL ADD PUSH1 0x40 MLOAD DUP1 PUSH1 0x80 ADD PUSH1 0x40 MSTORE SWAP1 DUP2 PUSH0 DUP3 ADD SLOAD DUP2 MSTORE PUSH1 0x20 ADD PUSH1 0x1 DUP3 ADD PUSH0 SWAP1 SLOAD SWAP1 PUSH2 0x100 EXP SWAP1 DIV PUSH1 0xFF AND ISZERO ISZERO ISZERO ISZERO DUP2 MSTORE PUSH1 0x20 ADD PUSH1 0x2 DUP3 ADD SLOAD DUP2 MSTORE PUSH1 0x20 ADD PUSH1 0x3 DUP3 ADD DUP1 SLOAD PUSH2 0xF12 SWAP1 PUSH2 0x38A0 JUMP JUMPDEST DUP1 PUSH1 0x1F ADD PUSH1 0x20 DUP1 SWAP2 DIV MUL PUSH1 0x20 ADD PUSH1 0x40 MLOAD SWAP1 DUP2 ADD PUSH1 0x40 MSTORE DUP1 SWAP3 SWAP2 SWAP1 DUP2 DUP2 MSTORE PUSH1 0x20 ADD DUP3 DUP1 SLOAD PUSH2 0xF3E SWAP1 PUSH2 0x38A0 JUMP JUMPDEST DUP1 ISZERO PUSH2 0xF89 JUMPI DUP1 PUSH1 0x1F LT PUSH2 0xF60 JUMPI PUSH2 0x100 DUP1 DUP4 SLOAD DIV MUL DUP4 MSTORE SWAP2 PUSH1 0x20 ADD SWAP2 PUSH2 0xF89 JUMP JUMPDEST DUP3 ADD SWAP2 SWAP1 PUSH0 MSTORE PUSH1 0x20 PUSH0 KECCAK256 SWAP1 JUMPDEST DUP2 SLOAD DUP2 MSTORE SWAP1 PUSH1 0x1 ADD SWAP1 PUSH1 0x20 ADD DUP1 DUP4 GT PUSH2 0xF6C JUMPI DUP3 SWAP1 SUB PUSH1 0x1F AND DUP3 ADD SWAP2 JUMPDEST POP POP POP POP POP DUP2 MSTORE POP POP DUP2 MSTORE PUSH1 0x20 ADD SWAP1 PUSH1 0x1 ADD SWAP1 PUSH2 0xEB4 JUMP JUMPDEST POP POP POP POP SWAP1 POP SWAP1 JUMP JUMPDEST PUSH1 0x34 PUSH0 SWAP1 SLOAD SWAP1 PUSH2 0x100 EXP SWAP1 DIV PUSH20 0xFFFFFFFFFFFFFFFFFFFFFFFFFFFFFFFFFFFFFFFF AND DUP2 JUMP JUMPDEST PUSH0 PUSH1 0x36 PUSH0 SWAP1 SLOAD SWAP1 PUSH2 0x100 EXP SWAP1 DIV PUSH20 0xFFFFFFFFFFFFFFFFFFFFFFFFFFFFFFFFFFFFFFFF AND PUSH20 0xFFFFFFFFFFFFFFFFFFFFFFFFFFFFFFFFFFFFFFFF AND PUSH4 0x70A08231 ADDRESS PUSH1 0x40 MLOAD DUP3 PUSH4 0xFFFFFFFF AND PUSH1 0xE0 SHL DUP2 MSTORE PUSH1 0x4 ADD PUSH2 0x102A SWAP2 SWAP1 PUSH2 0x2E56 JUMP JUMPDEST PUSH1 0x20 PUSH1 0x40 MLOAD DUP1 DUP4 SUB DUP2 DUP7 GAS STATICCALL ISZERO DUP1 ISZERO PUSH2 0x1045 JUMPI RETURNDATASIZE PUSH0 PUSH0 RETURNDATACOPY RETURNDATASIZE PUSH0 REVERT JUMPDEST POP POP POP POP PUSH1 0x40 MLOAD RETURNDATASIZE PUSH1 0x1F NOT PUSH1 0x1F DUP3 ADD AND DUP3 ADD DUP1 PUSH1 0x40 MSTORE POP DUP2 ADD SWAP1 PUSH2 0x1069 SWAP2 SWAP1 PUSH2 0x38E4 JUMP JUMPDEST SWAP1 POP SWAP1 JUMP JUMPDEST PUSH2 0x1076 PUSH2 0x214A JUMP JUMPDEST PUSH2 0x107F PUSH0 PUSH2 0x24C7 JUMP JUMPDEST JUMP JUMPDEST PUSH1 0x32 PUSH0 SWAP1 SLOAD SWAP1 PUSH2 0x100 EXP SWAP1 DIV PUSH20 0xFFFFFFFFFFFFFFFFFFFFFFFFFFFFFFFFFFFFFFFF AND PUSH20 0xFFFFFFFFFFFFFFFFFFFFFFFFFFFFFFFFFFFFFFFF AND CALLER PUSH20 0xFFFFFFFFFFFFFFFFFFFFFFFFFFFFFFFFFFFFFFFF AND EQ ISZERO DUP1 ISZERO PUSH2 0x112B JUMPI POP PUSH1 0x33 PUSH0 SWAP1 SLOAD SWAP1 PUSH2 0x100 EXP SWAP1 DIV PUSH20 0xFFFFFFFFFFFFFFFFFFFFFFFFFFFFFFFFFFFFFFFF AND PUSH20 0xFFFFFFFFFFFFFFFFFFFFFFFFFFFFFFFFFFFFFFFF AND CALLER PUSH20 0xFFFFFFFFFFFFFFFFFFFFFFFFFFFFFFFFFFFFFFFF AND EQ ISZERO JUMPDEST ISZERO PUSH2 0x1162 JUMPI PUSH1 0x40 MLOAD PUSH32 0xEA8E4EB500000000000000000000000000000000000000000000000000000000 DUP2 MSTORE PUSH1 0x4 ADD PUSH1 0x40 MLOAD DUP1 SWAP2 SUB SWAP1 REVERT JUMPDEST PUSH1 0x1 DUP1 PUSH1 0x4 DUP2 GT ISZERO PUSH2 0x1177 JUMPI PUSH2 0x1176 PUSH2 0x3614 JUMP JUMPDEST JUMPDEST PUSH1 0x36 PUSH1 0x14 SWAP1 SLOAD SWAP1 PUSH2 0x100 EXP SWAP1 DIV PUSH1 0xFF AND PUSH1 0x4 DUP2 GT ISZERO PUSH2 0x1199 JUMPI PUSH2 0x1198 PUSH2 0x3614 JUMP JUMPDEST JUMPDEST EQ PUSH2 0x11D0 JUMPI PUSH1 0x40 MLOAD PUSH32 0xBAF3F0F700000000000000000000000000000000000000000000000000000000 DUP2 MSTORE PUSH1 0x4 ADD PUSH1 0x40 MLOAD DUP1 SWAP2 SUB SWAP1 REVERT JUMPDEST PUSH2 0x11D8 PUSH2 0x207A JUMP JUMPDEST PUSH1 0x4 PUSH1 0x36 PUSH1 0x14 PUSH2 0x100 EXP DUP2 SLOAD DUP2 PUSH1 0xFF MUL NOT AND SWAP1 DUP4 PUSH1 0x4 DUP2 GT ISZERO PUSH2 0x11FE JUMPI PUSH2 0x11FD PUSH2 0x3614 JUMP JUMPDEST JUMPDEST MUL OR SWAP1 SSTORE POP TIMESTAMP PUSH1 0x3C DUP2 SWAP1 SSTORE POP CALLER PUSH20 0xFFFFFFFFFFFFFFFFFFFFFFFFFFFFFFFFFFFFFFFF AND PUSH32 0x28B099EB575E23E32BECD7C30DC8F9B2F98E370CDBF9841EA3338D9000402A25 DUP5 DUP5 PUSH1 0x40 MLOAD PUSH2 0x1252 SWAP3 SWAP2 SWAP1 PUSH2 0x393B JUMP JUMPDEST PUSH1 0x40 MLOAD DUP1 SWAP2 SUB SWAP1 LOG2 POP POP POP JUMP JUMPDEST PUSH0 PUSH2 0x1268 PUSH2 0x2598 JUMP JUMPDEST SWAP1 POP PUSH0 DUP2 PUSH0 ADD PUSH1 0x8 SWAP1 SLOAD SWAP1 PUSH2 0x100 EXP SWAP1 DIV PUSH1 0xFF AND ISZERO SWAP1 POP PUSH0 DUP3 PUSH0 ADD PUSH0 SWAP1 SLOAD SWAP1 PUSH2 0x100 EXP SWAP1 DIV PUSH8 0xFFFFFFFFFFFFFFFF AND SWAP1 POP PUSH0 PUSH0 DUP3 PUSH8 0xFFFFFFFFFFFFFFFF AND EQ DUP1 ISZERO PUSH2 0x12B0 JUMPI POP DUP3 JUMPDEST SWAP1 POP PUSH0 PUSH1 0x1 DUP4 PUSH8 0xFFFFFFFFFFFFFFFF AND EQ DUP1 ISZERO PUSH2 0x12E3 JUMPI POP PUSH0 ADDRESS PUSH20 0xFFFFFFFFFFFFFFFFFFFFFFFFFFFFFFFFFFFFFFFF AND EXTCODESIZE EQ JUMPDEST SWAP1 POP DUP2 ISZERO DUP1 ISZERO PUSH2 0x12F1 JUMPI POP DUP1 ISZERO JUMPDEST ISZERO PUSH2 0x1328 JUMPI PUSH1 0x40 MLOAD PUSH32 0xF92EE8A900000000000000000000000000000000000000000000000000000000 DUP2 MSTORE PUSH1 0x4 ADD PUSH1 0x40 MLOAD DUP1 SWAP2 SUB SWAP1 REVERT JUMPDEST PUSH1 0x1 DUP6 PUSH0 ADD PUSH0 PUSH2 0x100 EXP DUP2 SLOAD DUP2 PUSH8 0xFFFFFFFFFFFFFFFF MUL NOT AND SWAP1 DUP4 PUSH8 0xFFFFFFFFFFFFFFFF AND MUL OR SWAP1 SSTORE POP DUP4 ISZERO PUSH2 0x1375 JUMPI PUSH1 0x1 DUP6 PUSH0 ADD PUSH1 0x8 PUSH2 0x100 EXP DUP2 SLOAD DUP2 PUSH1 0xFF MUL NOT AND SWAP1 DUP4 ISZERO ISZERO MUL OR SWAP1 SSTORE POP JUMPDEST PUSH2 0x137E CALLER PUSH2 0x25AB JUMP JUMPDEST PUSH2 0x1386 PUSH2 0x25BF JUMP JUMPDEST PUSH2 0x138E PUSH2 0x25C9 JUMP JUMPDEST PUSH0 PUSH20 0xFFFFFFFFFFFFFFFFFFFFFFFFFFFFFFFFFFFFFFFF AND DUP15 PUSH20 0xFFFFFFFFFFFFFFFFFFFFFFFFFFFFFFFFFFFFFFFF AND SUB PUSH2 0x13F3 JUMPI PUSH1 0x40 MLOAD PUSH32 0xD92E233D00000000000000000000000000000000000000000000000000000000 DUP2 MSTORE PUSH1 0x4 ADD PUSH1 0x40 MLOAD DUP1 SWAP2 SUB SWAP1 REVERT JUMPDEST PUSH0 PUSH20 0xFFFFFFFFFFFFFFFFFFFFFFFFFFFFFFFFFFFFFFFF AND DUP14 PUSH20 0xFFFFFFFFFFFFFFFFFFFFFFFFFFFFFFFFFFFFFFFF AND SUB PUSH2 0x1458 JUMPI PUSH1 0x40 MLOAD PUSH32 0xD92E233D00000000000000000000000000000000000000000000000000000000 DUP2 MSTORE PUSH1 0x4 ADD PUSH1 0x40 MLOAD DUP1 SWAP2 SUB SWAP1 REVERT JUMPDEST PUSH0 PUSH20 0xFFFFFFFFFFFFFFFFFFFFFFFFFFFFFFFFFFFFFFFF AND DUP13 PUSH20 0xFFFFFFFFFFFFFFFFFFFFFFFFFFFFFFFFFFFFFFFF AND SUB PUSH2 0x14BD JUMPI PUSH1 0x40 MLOAD PUSH32 0xD92E233D00000000000000000000000000000000000000000000000000000000 DUP2 MSTORE PUSH1 0x4 ADD PUSH1 0x40 MLOAD DUP1 SWAP2 SUB SWAP1 REVERT JUMPDEST PUSH0 PUSH20 0xFFFFFFFFFFFFFFFFFFFFFFFFFFFFFFFFFFFFFFFF AND DUP8 PUSH20 0xFFFFFFFFFFFFFFFFFFFFFFFFFFFFFFFFFFFFFFFF AND SUB PUSH2 0x1522 JUMPI PUSH1 0x40 MLOAD PUSH32 0xD92E233D00000000000000000000000000000000000000000000000000000000 DUP2 MSTORE PUSH1 0x4 ADD PUSH1 0x40 MLOAD DUP1 SWAP2 SUB SWAP1 REVERT JUMPDEST PUSH0 DUP12 DUP12 SWAP1 POP SUB PUSH2 0x155E JUMPI PUSH1 0x40 MLOAD PUSH32 0xBA11734000000000000000000000000000000000000000000000000000000000 DUP2 MSTORE PUSH1 0x4 ADD PUSH1 0x40 MLOAD DUP1 SWAP2 SUB SWAP1 REVERT JUMPDEST PUSH1 0x14 DUP12 DUP12 SWAP1 POP GT ISZERO PUSH2 0x159C JUMPI PUSH1 0x40 MLOAD PUSH32 0xB308BA0900000000000000000000000000000000000000000000000000000000 DUP2 MSTORE PUSH1 0x4 ADD PUSH1 0x40 MLOAD DUP1 SWAP2 SUB SWAP1 REVERT JUMPDEST DUP9 DUP9 SWAP1 POP DUP12 DUP12 SWAP1 POP EQ PUSH2 0x15DB JUMPI PUSH1 0x40 MLOAD PUSH32 0xBA11734000000000000000000000000000000000000000000000000000000000 DUP2 MSTORE PUSH1 0x4 ADD PUSH1 0x40 MLOAD DUP1 SWAP2 SUB SWAP1 REVERT JUMPDEST DUP14 PUSH1 0x32 PUSH0 PUSH2 0x100 EXP DUP2 SLOAD DUP2 PUSH20 0xFFFFFFFFFFFFFFFFFFFFFFFFFFFFFFFFFFFFFFFF MUL NOT AND SWAP1 DUP4 PUSH20 0xFFFFFFFFFFFFFFFFFFFFFFFFFFFFFFFFFFFFFFFF AND MUL OR SWAP1 SSTORE POP DUP13 PUSH1 0x33 PUSH0 PUSH2 0x100 EXP DUP2 SLOAD DUP2 PUSH20 0xFFFFFFFFFFFFFFFFFFFFFFFFFFFFFFFFFFFFFFFF MUL NOT AND SWAP1 DUP4 PUSH20 0xFFFFFFFFFFFFFFFFFFFFFFFFFFFFFFFFFFFFFFFF AND MUL OR SWAP1 SSTORE POP DUP12 PUSH1 0x36 PUSH0 PUSH2 0x100 EXP DUP2 SLOAD DUP2 PUSH20 0xFFFFFFFFFFFFFFFFFFFFFFFFFFFFFFFFFFFFFFFF MUL NOT AND SWAP1 DUP4 PUSH20 0xFFFFFFFFFFFFFFFFFFFFFFFFFFFFFFFFFFFFFFFF AND MUL OR SWAP1 SSTORE POP DUP7 PUSH1 0x3A PUSH0 PUSH2 0x100 EXP DUP2 SLOAD DUP2 PUSH20 0xFFFFFFFFFFFFFFFFFFFFFFFFFFFFFFFFFFFFFFFF MUL NOT AND SWAP1 DUP4 PUSH20 0xFFFFFFFFFFFFFFFFFFFFFFFFFFFFFFFFFFFFFFFF AND MUL OR SWAP1 SSTORE POP DUP6 PUSH1 0x39 DUP2 SWAP1 SSTORE POP PUSH0 PUSH0 JUMPDEST DUP13 DUP13 SWAP1 POP DUP2 LT ISZERO PUSH2 0x184A JUMPI PUSH0 DUP14 DUP14 DUP4 DUP2 DUP2 LT PUSH2 0x1704 JUMPI PUSH2 0x1703 PUSH2 0x3775 JUMP JUMPDEST JUMPDEST SWAP1 POP PUSH1 0x20 MUL ADD CALLDATALOAD SUB PUSH2 0x1742 JUMPI PUSH1 0x40 MLOAD PUSH32 0x1F2A200500000000000000000000000000000000000000000000000000000000 DUP2 MSTORE PUSH1 0x4 ADD PUSH1 0x40 MLOAD DUP1 SWAP2 SUB SWAP1 REVERT JUMPDEST PUSH1 0x3B PUSH1 0x40 MLOAD DUP1 PUSH1 0x80 ADD PUSH1 0x40 MSTORE DUP1 DUP16 DUP16 DUP6 DUP2 DUP2 LT PUSH2 0x1762 JUMPI PUSH2 0x1761 PUSH2 0x3775 JUMP JUMPDEST JUMPDEST SWAP1 POP PUSH1 0x20 MUL ADD CALLDATALOAD DUP2 MSTORE PUSH1 0x20 ADD PUSH0 ISZERO ISZERO DUP2 MSTORE PUSH1 0x20 ADD DUP14 DUP14 DUP6 DUP2 DUP2 LT PUSH2 0x1789 JUMPI PUSH2 0x1788 PUSH2 0x3775 JUMP JUMPDEST JUMPDEST SWAP1 POP PUSH1 0x20 MUL ADD CALLDATALOAD DUP2 MSTORE PUSH1 0x20 ADD PUSH1 0x40 MLOAD DUP1 PUSH1 0x20 ADD PUSH1 0x40 MSTORE DUP1 PUSH0 DUP2 MSTORE POP DUP2 MSTORE POP SWAP1 DUP1 PUSH1 0x1 DUP2 SLOAD ADD DUP1 DUP3 SSTORE DUP1 SWAP2 POP POP PUSH1 0x1 SWAP1 SUB SWAP1 PUSH0 MSTORE PUSH1 0x20 PUSH0 KECCAK256 SWAP1 PUSH1 0x4 MUL ADD PUSH0 SWAP1 SWAP2 SWAP1 SWAP2 SWAP1 SWAP2 POP PUSH0 DUP3 ADD MLOAD DUP2 PUSH0 ADD SSTORE PUSH1 0x20 DUP3 ADD MLOAD DUP2 PUSH1 0x1 ADD PUSH0 PUSH2 0x100 EXP DUP2 SLOAD DUP2 PUSH1 0xFF MUL NOT AND SWAP1 DUP4 ISZERO ISZERO MUL OR SWAP1 SSTORE POP PUSH1 0x40 DUP3 ADD MLOAD DUP2 PUSH1 0x2 ADD SSTORE PUSH1 0x60 DUP3 ADD MLOAD DUP2 PUSH1 0x3 ADD SWAP1 DUP2 PUSH2 0x1813 SWAP2 SWAP1 PUSH2 0x3AF4 JUMP JUMPDEST POP POP POP DUP13 DUP13 DUP3 DUP2 DUP2 LT PUSH2 0x1829 JUMPI PUSH2 0x1828 PUSH2 0x3775 JUMP JUMPDEST JUMPDEST SWAP1 POP PUSH1 0x20 MUL ADD CALLDATALOAD DUP3 PUSH2 0x183B SWAP2 SWAP1 PUSH2 0x37A2 JUMP JUMPDEST SWAP2 POP DUP1 DUP1 PUSH1 0x1 ADD SWAP2 POP POP PUSH2 0x16E5 JUMP JUMPDEST POP DUP1 PUSH1 0x37 DUP2 SWAP1 SSTORE POP PUSH0 PUSH1 0x36 PUSH1 0x14 PUSH2 0x100 EXP DUP2 SLOAD DUP2 PUSH1 0xFF MUL NOT AND SWAP1 DUP4 PUSH1 0x4 DUP2 GT ISZERO PUSH2 0x1877 JUMPI PUSH2 0x1876 PUSH2 0x3614 JUMP JUMPDEST JUMPDEST MUL OR SWAP1 SSTORE POP PUSH2 0x18ED PUSH1 0x32 PUSH0 SWAP1 SLOAD SWAP1 PUSH2 0x100 EXP SWAP1 DIV PUSH20 0xFFFFFFFFFFFFFFFFFFFFFFFFFFFFFFFFFFFFFFFF AND ADDRESS PUSH1 0x37 SLOAD PUSH1 0x36 PUSH0 SWAP1 SLOAD SWAP1 PUSH2 0x100 EXP SWAP1 DIV PUSH20 0xFFFFFFFFFFFFFFFFFFFFFFFFFFFFFFFFFFFFFFFF AND PUSH20 0xFFFFFFFFFFFFFFFFFFFFFFFFFFFFFFFFFFFFFFFF AND PUSH2 0x25DB SWAP1 SWAP4 SWAP3 SWAP2 SWAP1 PUSH4 0xFFFFFFFF AND JUMP JUMPDEST PUSH1 0x1 PUSH1 0x36 PUSH1 0x14 PUSH2 0x100 EXP DUP2 SLOAD DUP2 PUSH1 0xFF MUL NOT AND SWAP1 DUP4 PUSH1 0x4 DUP2 GT ISZERO PUSH2 0x1913 JUMPI PUSH2 0x1912 PUSH2 0x3614 JUMP JUMPDEST JUMPDEST MUL OR SWAP1 SSTORE POP PUSH1 0x33 PUSH0 SWAP1 SLOAD SWAP1 PUSH2 0x100 EXP SWAP1 DIV PUSH20 0xFFFFFFFFFFFFFFFFFFFFFFFFFFFFFFFFFFFFFFFF AND PUSH20 0xFFFFFFFFFFFFFFFFFFFFFFFFFFFFFFFFFFFFFFFF AND PUSH1 0x32 PUSH0 SWAP1 SLOAD SWAP1 PUSH2 0x100 EXP SWAP1 DIV PUSH20 0xFFFFFFFFFFFFFFFFFFFFFFFFFFFFFFFFFFFFFFFF AND PUSH20 0xFFFFFFFFFFFFFFFFFFFFFFFFFFFFFFFFFFFFFFFF AND PUSH32 0xD82FDA2ACDF634E728BD47EB9C7BC504B264403AC59BDF13AD189112025B7058 DUP16 PUSH1 0x37 SLOAD PUSH1 0x39 SLOAD PUSH1 0x40 MLOAD PUSH2 0x19BF SWAP4 SWAP3 SWAP2 SWAP1 PUSH2 0x3BC3 JUMP JUMPDEST PUSH1 0x40 MLOAD DUP1 SWAP2 SUB SWAP1 LOG3 POP DUP4 ISZERO PUSH2 0x1A22 JUMPI PUSH0 DUP6 PUSH0 ADD PUSH1 0x8 PUSH2 0x100 EXP DUP2 SLOAD DUP2 PUSH1 0xFF MUL NOT AND SWAP1 DUP4 ISZERO ISZERO MUL OR SWAP1 SSTORE POP PUSH32 0xC7F505B2F371AE2175EE4913F4499E1F2633A7B5936321EED1CDAEB6115181D2 PUSH1 0x1 PUSH1 0x40 MLOAD PUSH2 0x1A19 SWAP2 SWAP1 PUSH2 0x3C44 JUMP JUMPDEST PUSH1 0x40 MLOAD DUP1 SWAP2 SUB SWAP1 LOG1 JUMPDEST POP POP POP POP POP POP POP POP POP POP POP POP POP POP JUMP JUMPDEST PUSH2 0x1A3A PUSH2 0x214A JUMP JUMPDEST PUSH2 0x1A42 PUSH2 0x2664 JUMP JUMPDEST JUMP JUMPDEST PUSH0 PUSH0 PUSH2 0x1A4E PUSH2 0x26C5 JUMP JUMPDEST SWAP1 POP DUP1 PUSH0 ADD PUSH0 SWAP1 SLOAD SWAP1 PUSH2 0x100 EXP SWAP1 DIV PUSH20 0xFFFFFFFFFFFFFFFFFFFFFFFFFFFFFFFFFFFFFFFF AND SWAP2 POP POP SWAP1 JUMP JUMPDEST PUSH2 0x1A81 PUSH2 0x214A JUMP JUMPDEST PUSH2 0x1A89 PUSH2 0x26EC JUMP JUMPDEST PUSH2 0x1ABB PUSH2 0x1A94 PUSH2 0x1A44 JUMP JUMPDEST DUP3 DUP5 PUSH20 0xFFFFFFFFFFFFFFFFFFFFFFFFFFFFFFFFFFFFFFFF AND PUSH2 0x20C4 SWAP1 SWAP3 SWAP2 SWAP1 PUSH4 0xFFFFFFFF AND JUMP JUMPDEST DUP2 PUSH20 0xFFFFFFFFFFFFFFFFFFFFFFFFFFFFFFFFFFFFFFFF AND PUSH32 0x5FAFA99D0643513820BE26656B45130B01E1C03062E1266BF36F88CBD3BD9695 DUP3 PUSH1 0x40 MLOAD PUSH2 0x1B01 SWAP2 SWAP1 PUSH2 0x2E87 JUMP JUMPDEST PUSH1 0x40 MLOAD DUP1 SWAP2 SUB SWAP1 LOG2 POP POP JUMP JUMPDEST PUSH1 0x40 MLOAD DUP1 PUSH1 0x40 ADD PUSH1 0x40 MSTORE DUP1 PUSH1 0x5 DUP2 MSTORE PUSH1 0x20 ADD PUSH32 0x352E302E30000000000000000000000000000000000000000000000000000000 DUP2 MSTORE POP DUP2 JUMP JUMPDEST PUSH2 0x1B4E PUSH2 0x214A JUMP JUMPDEST DUP2 PUSH1 0x34 PUSH0 PUSH2 0x100 EXP DUP2 SLOAD DUP2 PUSH20 0xFFFFFFFFFFFFFFFFFFFFFFFFFFFFFFFFFFFFFFFF MUL NOT AND SWAP1 DUP4 PUSH20 0xFFFFFFFFFFFFFFFFFFFFFFFFFFFFFFFFFFFFFFFF AND MUL OR SWAP1 SSTORE POP DUP1 PUSH1 0x35 DUP2 SWAP1 SSTORE POP DUP2 PUSH20 0xFFFFFFFFFFFFFFFFFFFFFFFFFFFFFFFFFFFFFFFF AND PUSH32 0x172E82ADBFF7F6091475C3C090E20ABA7903FD41ECE755A0DB2F62C869A75D51 DUP3 PUSH1 0x40 MLOAD PUSH2 0x1BDB SWAP2 SWAP1 PUSH2 0x2E87 JUMP JUMPDEST PUSH1 0x40 MLOAD DUP1 SWAP2 SUB SWAP1 LOG2 POP POP JUMP JUMPDEST PUSH1 0x3C SLOAD DUP2 JUMP JUMPDEST PUSH1 0x34 PUSH0 SWAP1 SLOAD SWAP1 PUSH2 0x100 EXP SWAP1 DIV PUSH20 0xFFFFFFFFFFFFFFFFFFFFFFFFFFFFFFFFFFFFFFFF AND PUSH20 0xFFFFFFFFFFFFFFFFFFFFFFFFFFFFFFFFFFFFFFFF AND CALLER PUSH20 0xFFFFFFFFFFFFFFFFFFFFFFFFFFFFFFFFFFFFFFFF AND EQ PUSH2 0x1C73 JUMPI PUSH1 0x40 MLOAD PUSH32 0x2EEF310A00000000000000000000000000000000000000000000000000000000 DUP2 MSTORE PUSH1 0x4 ADD PUSH1 0x40 MLOAD DUP1 SWAP2 SUB SWAP1 REVERT JUMPDEST PUSH1 0x4 DUP1 PUSH1 0x4 DUP2 GT ISZERO PUSH2 0x1C88 JUMPI PUSH2 0x1C87 PUSH2 0x3614 JUMP JUMPDEST JUMPDEST PUSH1 0x36 PUSH1 0x14 SWAP1 SLOAD SWAP1 PUSH2 0x100 EXP SWAP1 DIV PUSH1 0xFF AND PUSH1 0x4 DUP2 GT ISZERO PUSH2 0x1CAA JUMPI PUSH2 0x1CA9 PUSH2 0x3614 JUMP JUMPDEST JUMPDEST EQ PUSH2 0x1CE1 JUMPI PUSH1 0x40 MLOAD PUSH32 0xBAF3F0F700000000000000000000000000000000000000000000000000000000 DUP2 MSTORE PUSH1 0x4 ADD PUSH1 0x40 MLOAD DUP1 SWAP2 SUB SWAP1 REVERT JUMPDEST PUSH0 PUSH1 0x38 SLOAD PUSH1 0x37 SLOAD PUSH2 0x1CF2 SWAP2 SWAP1 PUSH2 0x3742 JUMP JUMPDEST SWAP1 POP DUP1 DUP4 DUP6 PUSH2 0x1D01 SWAP2 SWAP1 PUSH2 0x37A2 JUMP JUMPDEST EQ PUSH2 0x1D41 JUMPI PUSH1 0x40 MLOAD PUSH32 0x8C379A000000000000000000000000000000000000000000000000000000000 DUP2 MSTORE PUSH1 0x4 ADD PUSH2 0x1D38 SWAP1 PUSH2 0x3CCD JUMP JUMPDEST PUSH1 0x40 MLOAD DUP1 SWAP2 SUB SWAP1 REVERT JUMPDEST PUSH0 DUP5 GT ISZERO PUSH2 0x1DB7 JUMPI PUSH2 0x1DB6 PUSH1 0x33 PUSH0 SWAP1 SLOAD SWAP1 PUSH2 0x100 EXP SWAP1 DIV PUSH20 0xFFFFFFFFFFFFFFFFFFFFFFFFFFFFFFFFFFFFFFFF AND DUP6 PUSH1 0x36 PUSH0 SWAP1 SLOAD SWAP1 PUSH2 0x100 EXP SWAP1 DIV PUSH20 0xFFFFFFFFFFFFFFFFFFFFFFFFFFFFFFFFFFFFFFFF AND PUSH20 0xFFFFFFFFFFFFFFFFFFFFFFFFFFFFFFFFFFFFFFFF AND PUSH2 0x20C4 SWAP1 SWAP3 SWAP2 SWAP1 PUSH4 0xFFFFFFFF AND JUMP JUMPDEST JUMPDEST PUSH0 DUP4 GT ISZERO PUSH2 0x1E2D JUMPI PUSH2 0x1E2C PUSH1 0x32 PUSH0 SWAP1 SLOAD SWAP1 PUSH2 0x100 EXP SWAP1 DIV PUSH20 0xFFFFFFFFFFFFFFFFFFFFFFFFFFFFFFFFFFFFFFFF AND DUP5 PUSH1 0x36 PUSH0 SWAP1 SLOAD SWAP1 PUSH2 0x100 EXP SWAP1 DIV PUSH20 0xFFFFFFFFFFFFFFFFFFFFFFFFFFFFFFFFFFFFFFFF AND PUSH20 0xFFFFFFFFFFFFFFFFFFFFFFFFFFFFFFFFFFFFFFFF AND PUSH2 0x20C4 SWAP1 SWAP3 SWAP2 SWAP1 PUSH4 0xFFFFFFFF AND JUMP JUMPDEST JUMPDEST PUSH1 0x37 SLOAD PUSH1 0x38 DUP2 SWAP1 SSTORE POP PUSH1 0x2 PUSH1 0x36 PUSH1 0x14 PUSH2 0x100 EXP DUP2 SLOAD DUP2 PUSH1 0xFF MUL NOT AND SWAP1 DUP4 PUSH1 0x4 DUP2 GT ISZERO PUSH2 0x1E5C JUMPI PUSH2 0x1E5B PUSH2 0x3614 JUMP JUMPDEST JUMPDEST MUL OR SWAP1 SSTORE POP PUSH32 0xB4121F1F91A696A3FC75F6D151F3C9865ABFFA0738BDA595E71C381C02AF2FAA DUP5 DUP5 PUSH1 0x40 MLOAD PUSH2 0x1E92 SWAP3 SWAP2 SWAP1 PUSH2 0x3CEB JUMP JUMPDEST PUSH1 0x40 MLOAD DUP1 SWAP2 SUB SWAP1 LOG1 PUSH32 0xE39866727217E43713C3728C5769515E8FB38E990B568B9831C1689DFDF67B66 PUSH1 0x40 MLOAD PUSH1 0x40 MLOAD DUP1 SWAP2 SUB SWAP1 LOG1 POP POP POP POP JUMP JUMPDEST PUSH1 0x36 PUSH1 0x14 SWAP1 SLOAD SWAP1 PUSH2 0x100 EXP SWAP1 DIV PUSH1 0xFF AND DUP2 JUMP JUMPDEST PUSH1 0x33 PUSH0 SWAP1 SLOAD SWAP1 PUSH2 0x100 EXP SWAP1 DIV PUSH20 0xFFFFFFFFFFFFFFFFFFFFFFFFFFFFFFFFFFFFFFFF AND DUP2 JUMP JUMPDEST PUSH1 0x3A PUSH0 SWAP1 SLOAD SWAP1 PUSH2 0x100 EXP SWAP1 DIV PUSH20 0xFFFFFFFFFFFFFFFFFFFFFFFFFFFFFFFFFFFFFFFF AND DUP2 JUMP JUMPDEST PUSH1 0x3B DUP2 DUP2 SLOAD DUP2 LT PUSH2 0x1F38 JUMPI PUSH0 DUP1 REVERT JUMPDEST SWAP1 PUSH0 MSTORE PUSH1 0x20 PUSH0 KECCAK256 SWAP1 PUSH1 0x4 MUL ADD PUSH0 SWAP2 POP SWAP1 POP DUP1 PUSH0 ADD SLOAD SWAP1 DUP1 PUSH1 0x1 ADD PUSH0 SWAP1 SLOAD SWAP1 PUSH2 0x100 EXP SWAP1 DIV PUSH1 0xFF AND SWAP1 DUP1 PUSH1 0x2 ADD SLOAD SWAP1 DUP1 PUSH1 0x3 ADD DUP1 SLOAD PUSH2 0x1F75 SWAP1 PUSH2 0x38A0 JUMP JUMPDEST DUP1 PUSH1 0x1F ADD PUSH1 0x20 DUP1 SWAP2 DIV MUL PUSH1 0x20 ADD PUSH1 0x40 MLOAD SWAP1 DUP2 ADD PUSH1 0x40 MSTORE DUP1 SWAP3 SWAP2 SWAP1 DUP2 DUP2 MSTORE PUSH1 0x20 ADD DUP3 DUP1 SLOAD PUSH2 0x1FA1 SWAP1 PUSH2 0x38A0 JUMP JUMPDEST DUP1 ISZERO PUSH2 0x1FEC JUMPI DUP1 PUSH1 0x1F LT PUSH2 0x1FC3 JUMPI PUSH2 0x100 DUP1 DUP4 SLOAD DIV MUL DUP4 MSTORE SWAP2 PUSH1 0x20 ADD SWAP2 PUSH2 0x1FEC JUMP JUMPDEST DUP3 ADD SWAP2 SWAP1 PUSH0 MSTORE PUSH1 0x20 PUSH0 KECCAK256 SWAP1 JUMPDEST DUP2 SLOAD DUP2 MSTORE SWAP1 PUSH1 0x1 ADD SWAP1 PUSH1 0x20 ADD DUP1 DUP4 GT PUSH2 0x1FCF JUMPI DUP3 SWAP1 SUB PUSH1 0x1F AND DUP3 ADD SWAP2 JUMPDEST POP POP POP POP POP SWAP1 POP DUP5 JUMP JUMPDEST PUSH2 0x1FFE PUSH2 0x214A JUMP JUMPDEST PUSH0 PUSH20 0xFFFFFFFFFFFFFFFFFFFFFFFFFFFFFFFFFFFFFFFF AND DUP2 PUSH20 0xFFFFFFFFFFFFFFFFFFFFFFFFFFFFFFFFFFFFFFFF AND SUB PUSH2 0x206E JUMPI PUSH0 PUSH1 0x40 MLOAD PUSH32 0x1E4FBDF700000000000000000000000000000000000000000000000000000000 DUP2 MSTORE PUSH1 0x4 ADD PUSH2 0x2065 SWAP2 SWAP1 PUSH2 0x2E56 JUMP JUMPDEST PUSH1 0x40 MLOAD DUP1 SWAP2 SUB SWAP1 REVERT JUMPDEST PUSH2 0x2077 DUP2 PUSH2 0x24C7 JUMP JUMPDEST POP JUMP JUMPDEST PUSH2 0x2082 PUSH2 0xE7D JUMP JUMPDEST ISZERO PUSH2 0x20C2 JUMPI PUSH1 0x40 MLOAD PUSH32 0x8C379A000000000000000000000000000000000000000000000000000000000 DUP2 MSTORE PUSH1 0x4 ADD PUSH2 0x20B9 SWAP1 PUSH2 0x3D5C JUMP JUMPDEST PUSH1 0x40 MLOAD DUP1 SWAP2 SUB SWAP1 REVERT JUMPDEST JUMP JUMPDEST PUSH2 0x2145 DUP4 PUSH4 0xA9059CBB PUSH1 0xE0 SHL DUP5 DUP5 PUSH1 0x40 MLOAD PUSH1 0x24 ADD PUSH2 0x20E3 SWAP3 SWAP2 SWAP1 PUSH2 0x3D7A JUMP JUMPDEST PUSH1 0x40 MLOAD PUSH1 0x20 DUP2 DUP4 SUB SUB DUP2 MSTORE SWAP1 PUSH1 0x40 MSTORE SWAP1 PUSH28 0xFFFFFFFFFFFFFFFFFFFFFFFFFFFFFFFFFFFFFFFFFFFFFFFFFFFFFFFF NOT AND PUSH1 0x20 DUP3 ADD DUP1 MLOAD PUSH28 0xFFFFFFFFFFFFFFFFFFFFFFFFFFFFFFFFFFFFFFFFFFFFFFFFFFFFFFFF DUP4 DUP2 DUP4 AND OR DUP4 MSTORE POP POP POP POP PUSH2 0x2735 JUMP JUMPDEST POP POP POP JUMP JUMPDEST PUSH2 0x2152 PUSH2 0x27FB JUMP JUMPDEST PUSH20 0xFFFFFFFFFFFFFFFFFFFFFFFFFFFFFFFFFFFFFFFF AND PUSH2 0x2170 PUSH2 0x1A44 JUMP JUMPDEST PUSH20 0xFFFFFFFFFFFFFFFFFFFFFFFFFFFFFFFFFFFFFFFF AND EQ PUSH2 0x21CF JUMPI PUSH2 0x2193 PUSH2 0x27FB JUMP JUMPDEST PUSH1 0x40 MLOAD PUSH32 0x118CDAA700000000000000000000000000000000000000000000000000000000 DUP2 MSTORE PUSH1 0x4 ADD PUSH2 0x21C6 SWAP2 SWAP1 PUSH2 0x2E56 JUMP JUMPDEST PUSH1 0x40 MLOAD DUP1 SWAP2 SUB SWAP1 REVERT JUMPDEST JUMP JUMPDEST PUSH2 0x21D9 PUSH2 0x26EC JUMP JUMPDEST PUSH0 PUSH0 PUSH0 PUSH2 0x100 EXP DUP2 SLOAD DUP2 PUSH1 0xFF MUL NOT AND SWAP1 DUP4 ISZERO ISZERO MUL OR SWAP1 SSTORE POP PUSH32 0x5DB9EE0A495BF2E6FF9C91A7834C1BA4FDD244A5E8AA4E537BD38AEAE4B073AA PUSH2 0x221A PUSH2 0x27FB JUMP JUMPDEST PUSH1 0x40 MLOAD PUSH2 0x2227 SWAP2 SWAP1 PUSH2 0x2E56 JUMP JUMPDEST PUSH1 0x40 MLOAD DUP1 SWAP2 SUB SWAP1 LOG1 JUMP JUMPDEST PUSH32 0x0 PUSH20 0xFFFFFFFFFFFFFFFFFFFFFFFFFFFFFFFFFFFFFFFF AND ADDRESS PUSH20 0xFFFFFFFFFFFFFFFFFFFFFFFFFFFFFFFFFFFFFFFF AND EQ DUP1 PUSH2 0x22DE JUMPI POP PUSH32 0x0 PUSH20 0xFFFFFFFFFFFFFFFFFFFFFFFFFFFFFFFFFFFFFFFF AND PUSH2 0x22C5 PUSH2 0x2802 JUMP JUMPDEST PUSH20 0xFFFFFFFFFFFFFFFFFFFFFFFFFFFFFFFFFFFFFFFF AND EQ ISZERO JUMPDEST ISZERO PUSH2 0x2315 JUMPI PUSH1 0x40 MLOAD PUSH32 0xE07C8DBA00000000000000000000000000000000000000000000000000000000 DUP2 MSTORE PUSH1 0x4 ADD PUSH1 0x40 MLOAD DUP1 SWAP2 SUB SWAP1 REVERT JUMPDEST JUMP JUMPDEST PUSH2 0x231F PUSH2 0x214A JUMP JUMPDEST POP JUMP JUMPDEST DUP2 PUSH20 0xFFFFFFFFFFFFFFFFFFFFFFFFFFFFFFFFFFFFFFFF AND PUSH4 0x52D1902D PUSH1 0x40 MLOAD DUP2 PUSH4 0xFFFFFFFF AND PUSH1 0xE0 SHL DUP2 MSTORE PUSH1 0x4 ADD PUSH1 0x20 PUSH1 0x40 MLOAD DUP1 DUP4 SUB DUP2 DUP7 GAS STATICCALL SWAP3 POP POP POP DUP1 ISZERO PUSH2 0x238A JUMPI POP PUSH1 0x40 MLOAD RETURNDATASIZE PUSH1 0x1F NOT PUSH1 0x1F DUP3 ADD AND DUP3 ADD DUP1 PUSH1 0x40 MSTORE POP DUP2 ADD SWAP1 PUSH2 0x2387 SWAP2 SWAP1 PUSH2 0x3DCB JUMP JUMPDEST PUSH1 0x1 JUMPDEST PUSH2 0x23CB JUMPI DUP2 PUSH1 0x40 MLOAD PUSH32 0x4C9C8CE300000000000000000000000000000000000000000000000000000000 DUP2 MSTORE PUSH1 0x4 ADD PUSH2 0x23C2 SWAP2 SWAP1 PUSH2 0x2E56 JUMP JUMPDEST PUSH1 0x40 MLOAD DUP1 SWAP2 SUB SWAP1 REVERT JUMPDEST PUSH32 0x360894A13BA1A3210667C828492DB98DCA3E2076CC3735A920A3CA505D382BBC PUSH0 SHL DUP2 EQ PUSH2 0x2431 JUMPI DUP1 PUSH1 0x40 MLOAD PUSH32 0xAA1D49A400000000000000000000000000000000000000000000000000000000 DUP2 MSTORE PUSH1 0x4 ADD PUSH2 0x2428 SWAP2 SWAP1 PUSH2 0x3185 JUMP JUMPDEST PUSH1 0x40 MLOAD DUP1 SWAP2 SUB SWAP1 REVERT JUMPDEST PUSH2 0x243B DUP4 DUP4 PUSH2 0x2855 JUMP JUMPDEST POP POP POP JUMP JUMPDEST PUSH32 0x0 PUSH20 0xFFFFFFFFFFFFFFFFFFFFFFFFFFFFFFFFFFFFFFFF AND ADDRESS PUSH20 0xFFFFFFFFFFFFFFFFFFFFFFFFFFFFFFFFFFFFFFFF AND EQ PUSH2 0x24C5 JUMPI PUSH1 0x40 MLOAD PUSH32 0xE07C8DBA00000000000000000000000000000000000000000000000000000000 DUP2 MSTORE PUSH1 0x4 ADD PUSH1 0x40 MLOAD DUP1 SWAP2 SUB SWAP1 REVERT JUMPDEST JUMP JUMPDEST PUSH0 PUSH2 0x24D0 PUSH2 0x26C5 JUMP JUMPDEST SWAP1 POP PUSH0 DUP2 PUSH0 ADD PUSH0 SWAP1 SLOAD SWAP1 PUSH2 0x100 EXP SWAP1 DIV PUSH20 0xFFFFFFFFFFFFFFFFFFFFFFFFFFFFFFFFFFFFFFFF AND SWAP1 POP DUP3 DUP3 PUSH0 ADD PUSH0 PUSH2 0x100 EXP DUP2 SLOAD DUP2 PUSH20 0xFFFFFFFFFFFFFFFFFFFFFFFFFFFFFFFFFFFFFFFF MUL NOT AND SWAP1 DUP4 PUSH20 0xFFFFFFFFFFFFFFFFFFFFFFFFFFFFFFFFFFFFFFFF AND MUL OR SWAP1 SSTORE POP DUP3 PUSH20 0xFFFFFFFFFFFFFFFFFFFFFFFFFFFFFFFFFFFFFFFF AND DUP2 PUSH20 0xFFFFFFFFFFFFFFFFFFFFFFFFFFFFFFFFFFFFFFFF AND PUSH32 0x8BE0079C531659141344CD1FD0A4F28419497F9722A3DAAFE3B4186F6B6457E0 PUSH1 0x40 MLOAD PUSH1 0x40 MLOAD DUP1 SWAP2 SUB SWAP1 LOG3 POP POP POP JUMP JUMPDEST PUSH0 PUSH0 PUSH2 0x25A2 PUSH2 0x28C7 JUMP JUMPDEST SWAP1 POP DUP1 SWAP2 POP POP SWAP1 JUMP JUMPDEST PUSH2 0x25B3 PUSH2 0x28F0 JUMP JUMPDEST PUSH2 0x25BC DUP2 PUSH2 0x2930 JUMP JUMPDEST POP JUMP JUMPDEST PUSH2 0x25C7 PUSH2 0x28F0 JUMP JUMPDEST JUMP JUMPDEST PUSH2 0x25D1 PUSH2 0x28F0 JUMP JUMPDEST PUSH2 0x25D9 PUSH2 0x29B4 JUMP JUMPDEST JUMP JUMPDEST PUSH2 0x265E DUP5 PUSH4 0x23B872DD PUSH1 0xE0 SHL DUP6 DUP6 DUP6 PUSH1 0x40 MLOAD PUSH1 0x24 ADD PUSH2 0x25FC SWAP4 SWAP3 SWAP2 SWAP1 PUSH2 0x3DF6 JUMP JUMPDEST PUSH1 0x40 MLOAD PUSH1 0x20 DUP2 DUP4 SUB SUB DUP2 MSTORE SWAP1 PUSH1 0x40 MSTORE SWAP1 PUSH28 0xFFFFFFFFFFFFFFFFFFFFFFFFFFFFFFFFFFFFFFFFFFFFFFFFFFFFFFFF NOT AND PUSH1 0x20 DUP3 ADD DUP1 MLOAD PUSH28 0xFFFFFFFFFFFFFFFFFFFFFFFFFFFFFFFFFFFFFFFFFFFFFFFFFFFFFFFF DUP4 DUP2 DUP4 AND OR DUP4 MSTORE POP POP POP POP PUSH2 0x2735 JUMP JUMPDEST POP POP POP POP JUMP JUMPDEST PUSH2 0x266C PUSH2 0x207A JUMP JUMPDEST PUSH1 0x1 PUSH0 PUSH0 PUSH2 0x100 EXP DUP2 SLOAD DUP2 PUSH1 0xFF MUL NOT AND SWAP1 DUP4 ISZERO ISZERO MUL OR SWAP1 SSTORE POP PUSH32 0x62E78CEA01BEE320CD4E420270B5EA74000D11B0C9F74754EBDBFC544B05A258 PUSH2 0x26AE PUSH2 0x27FB JUMP JUMPDEST PUSH1 0x40 MLOAD PUSH2 0x26BB SWAP2 SWAP1 PUSH2 0x2E56 JUMP JUMPDEST PUSH1 0x40 MLOAD DUP1 SWAP2 SUB SWAP1 LOG1 JUMP JUMPDEST PUSH0 PUSH32 0x9016D09D72D40FDAE2FD8CEAC6B6234C7706214FD39C1CD1E609A0528C199300 SWAP1 POP SWAP1 JUMP JUMPDEST PUSH2 0x26F4 PUSH2 0xE7D JUMP JUMPDEST PUSH2 0x2733 JUMPI PUSH1 0x40 MLOAD PUSH32 0x8C379A000000000000000000000000000000000000000000000000000000000 DUP2 MSTORE PUSH1 0x4 ADD PUSH2 0x272A SWAP1 PUSH2 0x3E75 JUMP JUMPDEST PUSH1 0x40 MLOAD DUP1 SWAP2 SUB SWAP1 REVERT JUMPDEST JUMP JUMPDEST PUSH0 PUSH2 0x2796 DUP3 PUSH1 0x40 MLOAD DUP1 PUSH1 0x40 ADD PUSH1 0x40 MSTORE DUP1 PUSH1 0x20 DUP2 MSTORE PUSH1 0x20 ADD PUSH32 0x5361666545524332303A206C6F772D6C6576656C2063616C6C206661696C6564 DUP2 MSTORE POP DUP6 PUSH20 0xFFFFFFFFFFFFFFFFFFFFFFFFFFFFFFFFFFFFFFFF AND PUSH2 0x29D6 SWAP1 SWAP3 SWAP2 SWAP1 PUSH4 0xFFFFFFFF AND JUMP JUMPDEST SWAP1 POP PUSH0 DUP2 MLOAD EQ DUP1 PUSH2 0x27B7 JUMPI POP DUP1 DUP1 PUSH1 0x20 ADD SWAP1 MLOAD DUP2 ADD SWAP1 PUSH2 0x27B6 SWAP2 SWAP1 PUSH2 0x3EBD JUMP JUMPDEST JUMPDEST PUSH2 0x27F6 JUMPI PUSH1 0x40 MLOAD PUSH32 0x8C379A000000000000000000000000000000000000000000000000000000000 DUP2 MSTORE PUSH1 0x4 ADD PUSH2 0x27ED SWAP1 PUSH2 0x3F58 JUMP JUMPDEST PUSH1 0x40 MLOAD DUP1 SWAP2 SUB SWAP1 REVERT JUMPDEST POP POP POP JUMP JUMPDEST PUSH0 CALLER SWAP1 POP SWAP1 JUMP JUMPDEST PUSH0 PUSH2 0x282E PUSH32 0x360894A13BA1A3210667C828492DB98DCA3E2076CC3735A920A3CA505D382BBC PUSH0 SHL PUSH2 0x29ED JUMP JUMPDEST PUSH0 ADD PUSH0 SWAP1 SLOAD SWAP1 PUSH2 0x100 EXP SWAP1 DIV PUSH20 0xFFFFFFFFFFFFFFFFFFFFFFFFFFFFFFFFFFFFFFFF AND SWAP1 POP SWAP1 JUMP JUMPDEST PUSH2 0x285E DUP3 PUSH2 0x29F6 JUMP JUMPDEST DUP2 PUSH20 0xFFFFFFFFFFFFFFFFFFFFFFFFFFFFFFFFFFFFFFFF AND PUSH32 0xBC7CD75A20EE27FD9ADEBAB32041F755214DBC6BFFA90CC0225B39DA2E5C2D3B PUSH1 0x40 MLOAD PUSH1 0x40 MLOAD DUP1 SWAP2 SUB SWAP1 LOG2 PUSH0 DUP2 MLOAD GT ISZERO PUSH2 0x28BA JUMPI PUSH2 0x28B4 DUP3 DUP3 PUSH2 0x2ABF JUMP JUMPDEST POP PUSH2 0x28C3 JUMP JUMPDEST PUSH2 0x28C2 PUSH2 0x2B3F JUMP JUMPDEST JUMPDEST POP POP JUMP JUMPDEST PUSH0 PUSH32 0xF0C57E16840DF040F15088DC2F81FE391C3923BEC73E23A9662EFC9C229C6A00 PUSH0 SHL SWAP1 POP SWAP1 JUMP JUMPDEST PUSH2 0x28F8 PUSH2 0x2B7B JUMP JUMPDEST PUSH2 0x292E JUMPI PUSH1 0x40 MLOAD PUSH32 0xD7E6BCF800000000000000000000000000000000000000000000000000000000 DUP2 MSTORE PUSH1 0x4 ADD PUSH1 0x40 MLOAD DUP1 SWAP2 SUB SWAP1 REVERT JUMPDEST JUMP JUMPDEST PUSH2 0x2938 PUSH2 0x28F0 JUMP JUMPDEST PUSH0 PUSH20 0xFFFFFFFFFFFFFFFFFFFFFFFFFFFFFFFFFFFFFFFF AND DUP2 PUSH20 0xFFFFFFFFFFFFFFFFFFFFFFFFFFFFFFFFFFFFFFFF AND SUB PUSH2 0x29A8 JUMPI PUSH0 PUSH1 0x40 MLOAD PUSH32 0x1E4FBDF700000000000000000000000000000000000000000000000000000000 DUP2 MSTORE PUSH1 0x4 ADD PUSH2 0x299F SWAP2 SWAP1 PUSH2 0x2E56 JUMP JUMPDEST PUSH1 0x40 MLOAD DUP1 SWAP2 SUB SWAP1 REVERT JUMPDEST PUSH2 0x29B1 DUP2 PUSH2 0x24C7 JUMP JUMPDEST POP JUMP JUMPDEST PUSH2 0x29BC PUSH2 0x28F0 JUMP JUMPDEST PUSH0 PUSH0 PUSH0 PUSH2 0x100 EXP DUP2 SLOAD DUP2 PUSH1 0xFF MUL NOT AND SWAP1 DUP4 ISZERO ISZERO MUL OR SWAP1 SSTORE POP JUMP JUMPDEST PUSH1 0x60 PUSH2 0x29E4 DUP5 DUP5 PUSH0 DUP6 PUSH2 0x2B99 JUMP JUMPDEST SWAP1 POP SWAP4 SWAP3 POP POP POP JUMP JUMPDEST PUSH0 DUP2 SWAP1 POP SWAP2 SWAP1 POP JUMP JUMPDEST PUSH0 DUP2 PUSH20 0xFFFFFFFFFFFFFFFFFFFFFFFFFFFFFFFFFFFFFFFF AND EXTCODESIZE SUB PUSH2 0x2A51 JUMPI DUP1 PUSH1 0x40 MLOAD PUSH32 0x4C9C8CE300000000000000000000000000000000000000000000000000000000 DUP2 MSTORE PUSH1 0x4 ADD PUSH2 0x2A48 SWAP2 SWAP1 PUSH2 0x2E56 JUMP JUMPDEST PUSH1 0x40 MLOAD DUP1 SWAP2 SUB SWAP1 REVERT JUMPDEST DUP1 PUSH2 0x2A7D PUSH32 0x360894A13BA1A3210667C828492DB98DCA3E2076CC3735A920A3CA505D382BBC PUSH0 SHL PUSH2 0x29ED JUMP JUMPDEST PUSH0 ADD PUSH0 PUSH2 0x100 EXP DUP2 SLOAD DUP2 PUSH20 0xFFFFFFFFFFFFFFFFFFFFFFFFFFFFFFFFFFFFFFFF MUL NOT AND SWAP1 DUP4 PUSH20 0xFFFFFFFFFFFFFFFFFFFFFFFFFFFFFFFFFFFFFFFF AND MUL OR SWAP1 SSTORE POP POP JUMP JUMPDEST PUSH1 0x60 PUSH0 PUSH0 DUP5 PUSH20 0xFFFFFFFFFFFFFFFFFFFFFFFFFFFFFFFFFFFFFFFF AND DUP5 PUSH1 0x40 MLOAD PUSH2 0x2AE8 SWAP2 SWAP1 PUSH2 0x3FBA JUMP JUMPDEST PUSH0 PUSH1 0x40 MLOAD DUP1 DUP4 SUB DUP2 DUP6 GAS DELEGATECALL SWAP2 POP POP RETURNDATASIZE DUP1 PUSH0 DUP2 EQ PUSH2 0x2B20 JUMPI PUSH1 0x40 MLOAD SWAP2 POP PUSH1 0x1F NOT PUSH1 0x3F RETURNDATASIZE ADD AND DUP3 ADD PUSH1 0x40 MSTORE RETURNDATASIZE DUP3 MSTORE RETURNDATASIZE PUSH0 PUSH1 0x20 DUP5 ADD RETURNDATACOPY PUSH2 0x2B25 JUMP JUMPDEST PUSH1 0x60 SWAP2 POP JUMPDEST POP SWAP2 POP SWAP2 POP PUSH2 0x2B35 DUP6 DUP4 DUP4 PUSH2 0x2C62 JUMP JUMPDEST SWAP3 POP POP POP SWAP3 SWAP2 POP POP JUMP JUMPDEST PUSH0 CALLVALUE GT ISZERO PUSH2 0x2B79 JUMPI PUSH1 0x40 MLOAD PUSH32 0xB398979F00000000000000000000000000000000000000000000000000000000 DUP2 MSTORE PUSH1 0x4 ADD PUSH1 0x40 MLOAD DUP1 SWAP2 SUB SWAP1 REVERT JUMPDEST JUMP JUMPDEST PUSH0 PUSH2 0x2B84 PUSH2 0x2598 JUMP JUMPDEST PUSH0 ADD PUSH1 0x8 SWAP1 SLOAD SWAP1 PUSH2 0x100 EXP SWAP1 DIV PUSH1 0xFF AND SWAP1 POP SWAP1 JUMP JUMPDEST PUSH1 0x60 DUP3 SELFBALANCE LT ISZERO PUSH2 0x2BDE JUMPI PUSH1 0x40 MLOAD PUSH32 0x8C379A000000000000000000000000000000000000000000000000000000000 DUP2 MSTORE PUSH1 0x4 ADD PUSH2 0x2BD5 SWAP1 PUSH2 0x4040 JUMP JUMPDEST PUSH1 0x40 MLOAD DUP1 SWAP2 SUB SWAP1 REVERT JUMPDEST PUSH0 PUSH0 DUP7 PUSH20 0xFFFFFFFFFFFFFFFFFFFFFFFFFFFFFFFFFFFFFFFF AND DUP6 DUP8 PUSH1 0x40 MLOAD PUSH2 0x2C06 SWAP2 SWAP1 PUSH2 0x3FBA JUMP JUMPDEST PUSH0 PUSH1 0x40 MLOAD DUP1 DUP4 SUB DUP2 DUP6 DUP8 GAS CALL SWAP3 POP POP POP RETURNDATASIZE DUP1 PUSH0 DUP2 EQ PUSH2 0x2C40 JUMPI PUSH1 0x40 MLOAD SWAP2 POP PUSH1 0x1F NOT PUSH1 0x3F RETURNDATASIZE ADD AND DUP3 ADD PUSH1 0x40 MSTORE RETURNDATASIZE DUP3 MSTORE RETURNDATASIZE PUSH0 PUSH1 0x20 DUP5 ADD RETURNDATACOPY PUSH2 0x2C45 JUMP JUMPDEST PUSH1 0x60 SWAP2 POP JUMPDEST POP SWAP2 POP SWAP2 POP PUSH2 0x2C56 DUP8 DUP4 DUP4 DUP8 PUSH2 0x2CEF JUMP JUMPDEST SWAP3 POP POP POP SWAP5 SWAP4 POP POP POP POP JUMP JUMPDEST PUSH1 0x60 DUP3 PUSH2 0x2C77 JUMPI PUSH2 0x2C72 DUP3 PUSH2 0x2D63 JUMP JUMPDEST PUSH2 0x2CE7 JUMP JUMPDEST PUSH0 DUP3 MLOAD EQ DUP1 ISZERO PUSH2 0x2C9D JUMPI POP PUSH0 DUP5 PUSH20 0xFFFFFFFFFFFFFFFFFFFFFFFFFFFFFFFFFFFFFFFF AND EXTCODESIZE EQ JUMPDEST ISZERO PUSH2 0x2CDF JUMPI DUP4 PUSH1 0x40 MLOAD PUSH32 0x9996B31500000000000000000000000000000000000000000000000000000000 DUP2 MSTORE PUSH1 0x4 ADD PUSH2 0x2CD6 SWAP2 SWAP1 PUSH2 0x2E56 JUMP JUMPDEST PUSH1 0x40 MLOAD DUP1 SWAP2 SUB SWAP1 REVERT JUMPDEST DUP2 SWAP1 POP PUSH2 0x2CE8 JUMP JUMPDEST JUMPDEST SWAP4 SWAP3 POP POP POP JUMP JUMPDEST PUSH1 0x60 DUP4 ISZERO PUSH2 0x2D50 JUMPI PUSH0 DUP4 MLOAD SUB PUSH2 0x2D48 JUMPI PUSH2 0x2D08 DUP6 PUSH2 0x2DA6 JUMP JUMPDEST PUSH2 0x2D47 JUMPI PUSH1 0x40 MLOAD PUSH32 0x8C379A000000000000000000000000000000000000000000000000000000000 DUP2 MSTORE PUSH1 0x4 ADD PUSH2 0x2D3E SWAP1 PUSH2 0x40A8 JUMP JUMPDEST PUSH1 0x40 MLOAD DUP1 SWAP2 SUB SWAP1 REVERT JUMPDEST JUMPDEST DUP3 SWAP1 POP PUSH2 0x2D5B JUMP JUMPDEST PUSH2 0x2D5A DUP4 DUP4 PUSH2 0x2DC8 JUMP JUMPDEST JUMPDEST SWAP5 SWAP4 POP POP POP POP JUMP JUMPDEST PUSH0 DUP2 MLOAD GT ISZERO PUSH2 0x2D74 JUMPI DUP1 MLOAD PUSH1 0x20 DUP3 ADD REVERT JUMPDEST PUSH1 0x40 MLOAD PUSH32 0xD6BDA27500000000000000000000000000000000000000000000000000000000 DUP2 MSTORE PUSH1 0x4 ADD PUSH1 0x40 MLOAD DUP1 SWAP2 SUB SWAP1 REVERT JUMPDEST PUSH0 PUSH0 DUP3 PUSH20 0xFFFFFFFFFFFFFFFFFFFFFFFFFFFFFFFFFFFFFFFF AND EXTCODESIZE GT SWAP1 POP SWAP2 SWAP1 POP JUMP JUMPDEST PUSH0 DUP3 MLOAD GT ISZERO PUSH2 0x2DDA JUMPI DUP2 MLOAD DUP1 DUP4 PUSH1 0x20 ADD REVERT JUMPDEST DUP1 PUSH1 0x40 MLOAD PUSH32 0x8C379A000000000000000000000000000000000000000000000000000000000 DUP2 MSTORE PUSH1 0x4 ADD PUSH2 0x2E0E SWAP2 SWAP1 PUSH2 0x35B6 JUMP JUMPDEST PUSH1 0x40 MLOAD DUP1 SWAP2 SUB SWAP1 REVERT JUMPDEST PUSH0 PUSH20 0xFFFFFFFFFFFFFFFFFFFFFFFFFFFFFFFFFFFFFFFF DUP3 AND SWAP1 POP SWAP2 SWAP1 POP JUMP JUMPDEST PUSH0 PUSH2 0x2E40 DUP3 PUSH2 0x2E17 JUMP JUMPDEST SWAP1 POP SWAP2 SWAP1 POP JUMP JUMPDEST PUSH2 0x2E50 DUP2 PUSH2 0x2E36 JUMP JUMPDEST DUP3 MSTORE POP POP JUMP JUMPDEST PUSH0 PUSH1 0x20 DUP3 ADD SWAP1 POP PUSH2 0x2E69 PUSH0 DUP4 ADD DUP5 PUSH2 0x2E47 JUMP JUMPDEST SWAP3 SWAP2 POP POP JUMP JUMPDEST PUSH0 DUP2 SWAP1 POP SWAP2 SWAP1 POP JUMP JUMPDEST PUSH2 0x2E81 DUP2 PUSH2 0x2E6F JUMP JUMPDEST DUP3 MSTORE POP POP JUMP JUMPDEST PUSH0 PUSH1 0x20 DUP3 ADD SWAP1 POP PUSH2 0x2E9A PUSH0 DUP4 ADD DUP5 PUSH2 0x2E78 JUMP JUMPDEST SWAP3 SWAP2 POP POP JUMP JUMPDEST PUSH0 DUP2 SWAP1 POP SWAP2 SWAP1 POP JUMP JUMPDEST PUSH0 PUSH2 0x2EC3 PUSH2 0x2EBE PUSH2 0x2EB9 DUP5 PUSH2 0x2E17 JUMP JUMPDEST PUSH2 0x2EA0 JUMP JUMPDEST PUSH2 0x2E17 JUMP JUMPDEST SWAP1 POP SWAP2 SWAP1 POP JUMP JUMPDEST PUSH0 PUSH2 0x2ED4 DUP3 PUSH2 0x2EA9 JUMP JUMPDEST SWAP1 POP SWAP2 SWAP1 POP JUMP JUMPDEST PUSH0 PUSH2 0x2EE5 DUP3 PUSH2 0x2ECA JUMP JUMPDEST SWAP1 POP SWAP2 SWAP1 POP JUMP JUMPDEST PUSH2 0x2EF5 DUP2 PUSH2 0x2EDB JUMP JUMPDEST DUP3 MSTORE POP POP JUMP JUMPDEST PUSH0 PUSH1 0x20 DUP3 ADD SWAP1 POP PUSH2 0x2F0E PUSH0 DUP4 ADD DUP5 PUSH2 0x2EEC JUMP JUMPDEST SWAP3 SWAP2 POP POP JUMP JUMPDEST PUSH0 PUSH1 0x40 MLOAD SWAP1 POP SWAP1 JUMP JUMPDEST PUSH0 PUSH0 REVERT JUMPDEST PUSH0 PUSH0 REVERT JUMPDEST PUSH2 0x2F2E DUP2 PUSH2 0x2E6F JUMP JUMPDEST DUP2 EQ PUSH2 0x2F38 JUMPI PUSH0 PUSH0 REVERT JUMPDEST POP JUMP JUMPDEST PUSH0 DUP2 CALLDATALOAD SWAP1 POP PUSH2 0x2F49 DUP2 PUSH2 0x2F25 JUMP JUMPDEST SWAP3 SWAP2 POP POP JUMP JUMPDEST PUSH0 PUSH1 0x20 DUP3 DUP5 SUB SLT ISZERO PUSH2 0x2F64 JUMPI PUSH2 0x2F63 PUSH2 0x2F1D JUMP JUMPDEST JUMPDEST PUSH0 PUSH2 0x2F71 DUP5 DUP3 DUP6 ADD PUSH2 0x2F3B JUMP JUMPDEST SWAP2 POP POP SWAP3 SWAP2 POP POP JUMP JUMPDEST PUSH0 DUP2 ISZERO ISZERO SWAP1 POP SWAP2 SWAP1 POP JUMP JUMPDEST PUSH2 0x2F8E DUP2 PUSH2 0x2F7A JUMP JUMPDEST DUP3 MSTORE POP POP JUMP JUMPDEST PUSH0 PUSH1 0x20 DUP3 ADD SWAP1 POP PUSH2 0x2FA7 PUSH0 DUP4 ADD DUP5 PUSH2 0x2F85 JUMP JUMPDEST SWAP3 SWAP2 POP POP JUMP JUMPDEST PUSH2 0x2FB6 DUP2 PUSH2 0x2E36 JUMP JUMPDEST DUP2 EQ PUSH2 0x2FC0 JUMPI PUSH0 PUSH0 REVERT JUMPDEST POP JUMP JUMPDEST PUSH0 DUP2 CALLDATALOAD SWAP1 POP PUSH2 0x2FD1 DUP2 PUSH2 0x2FAD JUMP JUMPDEST SWAP3 SWAP2 POP POP JUMP JUMPDEST PUSH0 PUSH0 REVERT JUMPDEST PUSH0 PUSH0 REVERT JUMPDEST PUSH0 PUSH1 0x1F NOT PUSH1 0x1F DUP4 ADD AND SWAP1 POP SWAP2 SWAP1 POP JUMP JUMPDEST PUSH32 0x4E487B7100000000000000000000000000000000000000000000000000000000 PUSH0 MSTORE PUSH1 0x41 PUSH1 0x4 MSTORE PUSH1 0x24 PUSH0 REVERT JUMPDEST PUSH2 0x3025 DUP3 PUSH2 0x2FDF JUMP JUMPDEST DUP2 ADD DUP2 DUP2 LT PUSH8 0xFFFFFFFFFFFFFFFF DUP3 GT OR ISZERO PUSH2 0x3044 JUMPI PUSH2 0x3043 PUSH2 0x2FEF JUMP JUMPDEST JUMPDEST DUP1 PUSH1 0x40 MSTORE POP POP POP JUMP JUMPDEST PUSH0 PUSH2 0x3056 PUSH2 0x2F14 JUMP JUMPDEST SWAP1 POP PUSH2 0x3062 DUP3 DUP3 PUSH2 0x301C JUMP JUMPDEST SWAP2 SWAP1 POP JUMP JUMPDEST PUSH0 PUSH8 0xFFFFFFFFFFFFFFFF DUP3 GT ISZERO PUSH2 0x3081 JUMPI PUSH2 0x3080 PUSH2 0x2FEF JUMP JUMPDEST JUMPDEST PUSH2 0x308A DUP3 PUSH2 0x2FDF JUMP JUMPDEST SWAP1 POP PUSH1 0x20 DUP2 ADD SWAP1 POP SWAP2 SWAP1 POP JUMP JUMPDEST DUP3 DUP2 DUP4 CALLDATACOPY PUSH0 DUP4 DUP4 ADD MSTORE POP POP POP JUMP JUMPDEST PUSH0 PUSH2 0x30B7 PUSH2 0x30B2 DUP5 PUSH2 0x3067 JUMP JUMPDEST PUSH2 0x304D JUMP JUMPDEST SWAP1 POP DUP3 DUP2 MSTORE PUSH1 0x20 DUP2 ADD DUP5 DUP5 DUP5 ADD GT ISZERO PUSH2 0x30D3 JUMPI PUSH2 0x30D2 PUSH2 0x2FDB JUMP JUMPDEST JUMPDEST PUSH2 0x30DE DUP5 DUP3 DUP6 PUSH2 0x3097 JUMP JUMPDEST POP SWAP4 SWAP3 POP POP POP JUMP JUMPDEST PUSH0 DUP3 PUSH1 0x1F DUP4 ADD SLT PUSH2 0x30FA JUMPI PUSH2 0x30F9 PUSH2 0x2FD7 JUMP JUMPDEST JUMPDEST DUP2 CALLDATALOAD PUSH2 0x310A DUP5 DUP3 PUSH1 0x20 DUP7 ADD PUSH2 0x30A5 JUMP JUMPDEST SWAP2 POP POP SWAP3 SWAP2 POP POP JUMP JUMPDEST PUSH0 PUSH0 PUSH1 0x40 DUP4 DUP6 SUB SLT ISZERO PUSH2 0x3129 JUMPI PUSH2 0x3128 PUSH2 0x2F1D JUMP JUMPDEST JUMPDEST PUSH0 PUSH2 0x3136 DUP6 DUP3 DUP7 ADD PUSH2 0x2FC3 JUMP JUMPDEST SWAP3 POP POP PUSH1 0x20 DUP4 ADD CALLDATALOAD PUSH8 0xFFFFFFFFFFFFFFFF DUP2 GT ISZERO PUSH2 0x3157 JUMPI PUSH2 0x3156 PUSH2 0x2F21 JUMP JUMPDEST JUMPDEST PUSH2 0x3163 DUP6 DUP3 DUP7 ADD PUSH2 0x30E6 JUMP JUMPDEST SWAP2 POP POP SWAP3 POP SWAP3 SWAP1 POP JUMP JUMPDEST PUSH0 DUP2 SWAP1 POP SWAP2 SWAP1 POP JUMP JUMPDEST PUSH2 0x317F DUP2 PUSH2 0x316D JUMP JUMPDEST DUP3 MSTORE POP POP JUMP JUMPDEST PUSH0 PUSH1 0x20 DUP3 ADD SWAP1 POP PUSH2 0x3198 PUSH0 DUP4 ADD DUP5 PUSH2 0x3176 JUMP JUMPDEST SWAP3 SWAP2 POP POP JUMP JUMPDEST PUSH0 DUP2 MLOAD SWAP1 POP SWAP2 SWAP1 POP JUMP JUMPDEST PUSH0 DUP3 DUP3 MSTORE PUSH1 0x20 DUP3 ADD SWAP1 POP SWAP3 SWAP2 POP POP JUMP JUMPDEST PUSH0 DUP2 SWAP1 POP PUSH1 0x20 DUP3 ADD SWAP1 POP SWAP2 SWAP1 POP JUMP JUMPDEST PUSH2 0x31D0 DUP2 PUSH2 0x2E6F JUMP JUMPDEST DUP3 MSTORE POP POP JUMP JUMPDEST PUSH2 0x31DF DUP2 PUSH2 0x2F7A JUMP JUMPDEST DUP3 MSTORE POP POP JUMP JUMPDEST PUSH0 DUP2 MLOAD SWAP1 POP SWAP2 SWAP1 POP JUMP JUMPDEST PUSH0 DUP3 DUP3 MSTORE PUSH1 0x20 DUP3 ADD SWAP1 POP SWAP3 SWAP2 POP POP JUMP JUMPDEST DUP3 DUP2 DUP4 MCOPY PUSH0 DUP4 DUP4 ADD MSTORE POP POP POP JUMP JUMPDEST PUSH0 PUSH2 0x3217 DUP3 PUSH2 0x31E5 JUMP JUMPDEST PUSH2 0x3221 DUP2 DUP6 PUSH2 0x31EF JUMP JUMPDEST SWAP4 POP PUSH2 0x3231 DUP2 DUP6 PUSH1 0x20 DUP7 ADD PUSH2 0x31FF JUMP JUMPDEST PUSH2 0x323A DUP2 PUSH2 0x2FDF JUMP JUMPDEST DUP5 ADD SWAP2 POP POP SWAP3 SWAP2 POP POP JUMP JUMPDEST PUSH0 PUSH1 0x80 DUP4 ADD PUSH0 DUP4 ADD MLOAD PUSH2 0x325A PUSH0 DUP7 ADD DUP3 PUSH2 0x31C7 JUMP JUMPDEST POP PUSH1 0x20 DUP4 ADD MLOAD PUSH2 0x326D PUSH1 0x20 DUP7 ADD DUP3 PUSH2 0x31D6 JUMP JUMPDEST POP PUSH1 0x40 DUP4 ADD MLOAD PUSH2 0x3280 PUSH1 0x40 DUP7 ADD DUP3 PUSH2 0x31C7 JUMP JUMPDEST POP PUSH1 0x60 DUP4 ADD MLOAD DUP5 DUP3 SUB PUSH1 0x60 DUP7 ADD MSTORE PUSH2 0x3298 DUP3 DUP3 PUSH2 0x320D JUMP JUMPDEST SWAP2 POP POP DUP1 SWAP2 POP POP SWAP3 SWAP2 POP POP JUMP JUMPDEST PUSH0 PUSH2 0x32B0 DUP4 DUP4 PUSH2 0x3245 JUMP JUMPDEST SWAP1 POP SWAP3 SWAP2 POP POP JUMP JUMPDEST PUSH0 PUSH1 0x20 DUP3 ADD SWAP1 POP SWAP2 SWAP1 POP JUMP JUMPDEST PUSH0 PUSH2 0x32CE DUP3 PUSH2 0x319E JUMP JUMPDEST PUSH2 0x32D8 DUP2 DUP6 PUSH2 0x31A8 JUMP JUMPDEST SWAP4 POP DUP4 PUSH1 0x20 DUP3 MUL DUP6 ADD PUSH2 0x32EA DUP6 PUSH2 0x31B8 JUMP JUMPDEST DUP1 PUSH0 JUMPDEST DUP6 DUP2 LT ISZERO PUSH2 0x3325 JUMPI DUP5 DUP5 SUB DUP10 MSTORE DUP2 MLOAD PUSH2 0x3306 DUP6 DUP3 PUSH2 0x32A5 JUMP JUMPDEST SWAP5 POP PUSH2 0x3311 DUP4 PUSH2 0x32B8 JUMP JUMPDEST SWAP3 POP PUSH1 0x20 DUP11 ADD SWAP10 POP POP PUSH1 0x1 DUP2 ADD SWAP1 POP PUSH2 0x32ED JUMP JUMPDEST POP DUP3 SWAP8 POP DUP8 SWAP6 POP POP POP POP POP POP SWAP3 SWAP2 POP POP JUMP JUMPDEST PUSH0 PUSH1 0x20 DUP3 ADD SWAP1 POP DUP2 DUP2 SUB PUSH0 DUP4 ADD MSTORE PUSH2 0x334F DUP2 DUP5 PUSH2 0x32C4 JUMP JUMPDEST SWAP1 POP SWAP3 SWAP2 POP POP JUMP JUMPDEST PUSH0 PUSH0 REVERT JUMPDEST PUSH0 PUSH0 REVERT JUMPDEST PUSH0 PUSH0 DUP4 PUSH1 0x1F DUP5 ADD SLT PUSH2 0x3374 JUMPI PUSH2 0x3373 PUSH2 0x2FD7 JUMP JUMPDEST JUMPDEST DUP3 CALLDATALOAD SWAP1 POP PUSH8 0xFFFFFFFFFFFFFFFF DUP2 GT ISZERO PUSH2 0x3391 JUMPI PUSH2 0x3390 PUSH2 0x3357 JUMP JUMPDEST JUMPDEST PUSH1 0x20 DUP4 ADD SWAP2 POP DUP4 PUSH1 0x1 DUP3 MUL DUP4 ADD GT ISZERO PUSH2 0x33AD JUMPI PUSH2 0x33AC PUSH2 0x335B JUMP JUMPDEST JUMPDEST SWAP3 POP SWAP3 SWAP1 POP JUMP JUMPDEST PUSH0 PUSH0 PUSH1 0x20 DUP4 DUP6 SUB SLT ISZERO PUSH2 0x33CA JUMPI PUSH2 0x33C9 PUSH2 0x2F1D JUMP JUMPDEST JUMPDEST PUSH0 DUP4 ADD CALLDATALOAD PUSH8 0xFFFFFFFFFFFFFFFF DUP2 GT ISZERO PUSH2 0x33E7 JUMPI PUSH2 0x33E6 PUSH2 0x2F21 JUMP JUMPDEST JUMPDEST PUSH2 0x33F3 DUP6 DUP3 DUP7 ADD PUSH2 0x335F JUMP JUMPDEST SWAP3 POP SWAP3 POP POP SWAP3 POP SWAP3 SWAP1 POP JUMP JUMPDEST PUSH0 PUSH0 DUP4 PUSH1 0x1F DUP5 ADD SLT PUSH2 0x3414 JUMPI PUSH2 0x3413 PUSH2 0x2FD7 JUMP JUMPDEST JUMPDEST DUP3 CALLDATALOAD SWAP1 POP PUSH8 0xFFFFFFFFFFFFFFFF DUP2 GT ISZERO PUSH2 0x3431 JUMPI PUSH2 0x3430 PUSH2 0x3357 JUMP JUMPDEST JUMPDEST PUSH1 0x20 DUP4 ADD SWAP2 POP DUP4 PUSH1 0x20 DUP3 MUL DUP4 ADD GT ISZERO PUSH2 0x344D JUMPI PUSH2 0x344C PUSH2 0x335B JUMP JUMPDEST JUMPDEST SWAP3 POP SWAP3 SWAP1 POP JUMP JUMPDEST PUSH0 PUSH0 PUSH0 PUSH0 PUSH0 PUSH0 PUSH0 PUSH0 PUSH0 PUSH1 0xE0 DUP11 DUP13 SUB SLT ISZERO PUSH2 0x3471 JUMPI PUSH2 0x3470 PUSH2 0x2F1D JUMP JUMPDEST JUMPDEST PUSH0 PUSH2 0x347E DUP13 DUP3 DUP14 ADD PUSH2 0x2FC3 JUMP JUMPDEST SWAP10 POP POP PUSH1 0x20 PUSH2 0x348F DUP13 DUP3 DUP14 ADD PUSH2 0x2FC3 JUMP JUMPDEST SWAP9 POP POP PUSH1 0x40 PUSH2 0x34A0 DUP13 DUP3 DUP14 ADD PUSH2 0x2FC3 JUMP JUMPDEST SWAP8 POP POP PUSH1 0x60 DUP11 ADD CALLDATALOAD PUSH8 0xFFFFFFFFFFFFFFFF DUP2 GT ISZERO PUSH2 0x34C1 JUMPI PUSH2 0x34C0 PUSH2 0x2F21 JUMP JUMPDEST JUMPDEST PUSH2 0x34CD DUP13 DUP3 DUP14 ADD PUSH2 0x33FF JUMP JUMPDEST SWAP7 POP SWAP7 POP POP PUSH1 0x80 DUP11 ADD CALLDATALOAD PUSH8 0xFFFFFFFFFFFFFFFF DUP2 GT ISZERO PUSH2 0x34F0 JUMPI PUSH2 0x34EF PUSH2 0x2F21 JUMP JUMPDEST JUMPDEST PUSH2 0x34FC DUP13 DUP3 DUP14 ADD PUSH2 0x33FF JUMP JUMPDEST SWAP5 POP SWAP5 POP POP PUSH1 0xA0 PUSH2 0x350F DUP13 DUP3 DUP14 ADD PUSH2 0x2FC3 JUMP JUMPDEST SWAP3 POP POP PUSH1 0xC0 PUSH2 0x3520 DUP13 DUP3 DUP14 ADD PUSH2 0x2F3B JUMP JUMPDEST SWAP2 POP POP SWAP3 SWAP6 SWAP9 POP SWAP3 SWAP6 SWAP9 POP SWAP3 SWAP6 SWAP9 JUMP JUMPDEST PUSH0 PUSH0 PUSH1 0x40 DUP4 DUP6 SUB SLT ISZERO PUSH2 0x3546 JUMPI PUSH2 0x3545 PUSH2 0x2F1D JUMP JUMPDEST JUMPDEST PUSH0 PUSH2 0x3553 DUP6 DUP3 DUP7 ADD PUSH2 0x2FC3 JUMP JUMPDEST SWAP3 POP POP PUSH1 0x20 PUSH2 0x3564 DUP6 DUP3 DUP7 ADD PUSH2 0x2F3B JUMP JUMPDEST SWAP2 POP POP SWAP3 POP SWAP3 SWAP1 POP JUMP JUMPDEST PUSH0 DUP3 DUP3 MSTORE PUSH1 0x20 DUP3 ADD SWAP1 POP SWAP3 SWAP2 POP POP JUMP JUMPDEST PUSH0 PUSH2 0x3588 DUP3 PUSH2 0x31E5 JUMP JUMPDEST PUSH2 0x3592 DUP2 DUP6 PUSH2 0x356E JUMP JUMPDEST SWAP4 POP PUSH2 0x35A2 DUP2 DUP6 PUSH1 0x20 DUP7 ADD PUSH2 0x31FF JUMP JUMPDEST PUSH2 0x35AB DUP2 PUSH2 0x2FDF JUMP JUMPDEST DUP5 ADD SWAP2 POP POP SWAP3 SWAP2 POP POP JUMP JUMPDEST PUSH0 PUSH1 0x20 DUP3 ADD SWAP1 POP DUP2 DUP2 SUB PUSH0 DUP4 ADD MSTORE PUSH2 0x35CE DUP2 DUP5 PUSH2 0x357E JUMP JUMPDEST SWAP1 POP SWAP3 SWAP2 POP POP JUMP JUMPDEST PUSH0 PUSH0 PUSH1 0x40 DUP4 DUP6 SUB SLT ISZERO PUSH2 0x35EC JUMPI PUSH2 0x35EB PUSH2 0x2F1D JUMP JUMPDEST JUMPDEST PUSH0 PUSH2 0x35F9 DUP6 DUP3 DUP7 ADD PUSH2 0x2F3B JUMP JUMPDEST SWAP3 POP POP PUSH1 0x20 PUSH2 0x360A DUP6 DUP3 DUP7 ADD PUSH2 0x2F3B JUMP JUMPDEST SWAP2 POP POP SWAP3 POP SWAP3 SWAP1 POP JUMP JUMPDEST PUSH32 0x4E487B7100000000000000000000000000000000000000000000000000000000 PUSH0 MSTORE PUSH1 0x21 PUSH1 0x4 MSTORE PUSH1 0x24 PUSH0 REVERT JUMPDEST PUSH1 0x5 DUP2 LT PUSH2 0x3652 JUMPI PUSH2 0x3651 PUSH2 0x3614 JUMP JUMPDEST JUMPDEST POP JUMP JUMPDEST PUSH0 DUP2 SWAP1 POP PUSH2 0x3662 DUP3 PUSH2 0x3641 JUMP JUMPDEST SWAP2 SWAP1 POP JUMP JUMPDEST PUSH0 PUSH2 0x3671 DUP3 PUSH2 0x3655 JUMP JUMPDEST SWAP1 POP SWAP2 SWAP1 POP JUMP JUMPDEST PUSH2 0x3681 DUP2 PUSH2 0x3667 JUMP JUMPDEST DUP3 MSTORE POP POP JUMP JUMPDEST PUSH0 PUSH1 0x20 DUP3 ADD SWAP1 POP PUSH2 0x369A PUSH0 DUP4 ADD DUP5 PUSH2 0x3678 JUMP JUMPDEST SWAP3 SWAP2 POP POP JUMP JUMPDEST PUSH0 PUSH1 0x80 DUP3 ADD SWAP1 POP PUSH2 0x36B3 PUSH0 DUP4 ADD DUP8 PUSH2 0x2E78 JUMP JUMPDEST PUSH2 0x36C0 PUSH1 0x20 DUP4 ADD DUP7 PUSH2 0x2F85 JUMP JUMPDEST PUSH2 0x36CD PUSH1 0x40 DUP4 ADD DUP6 PUSH2 0x2E78 JUMP JUMPDEST DUP2 DUP2 SUB PUSH1 0x60 DUP4 ADD MSTORE PUSH2 0x36DF DUP2 DUP5 PUSH2 0x357E JUMP JUMPDEST SWAP1 POP SWAP6 SWAP5 POP POP POP POP POP JUMP JUMPDEST PUSH0 PUSH1 0x20 DUP3 DUP5 SUB SLT ISZERO PUSH2 0x36FF JUMPI PUSH2 0x36FE PUSH2 0x2F1D JUMP JUMPDEST JUMPDEST PUSH0 PUSH2 0x370C DUP5 DUP3 DUP6 ADD PUSH2 0x2FC3 JUMP JUMPDEST SWAP2 POP POP SWAP3 SWAP2 POP POP JUMP JUMPDEST PUSH32 0x4E487B7100000000000000000000000000000000000000000000000000000000 PUSH0 MSTORE PUSH1 0x11 PUSH1 0x4 MSTORE PUSH1 0x24 PUSH0 REVERT JUMPDEST PUSH0 PUSH2 0x374C DUP3 PUSH2 0x2E6F JUMP JUMPDEST SWAP2 POP PUSH2 0x3757 DUP4 PUSH2 0x2E6F JUMP JUMPDEST SWAP3 POP DUP3 DUP3 SUB SWAP1 POP DUP2 DUP2 GT ISZERO PUSH2 0x376F JUMPI PUSH2 0x376E PUSH2 0x3715 JUMP JUMPDEST JUMPDEST SWAP3 SWAP2 POP POP JUMP JUMPDEST PUSH32 0x4E487B7100000000000000000000000000000000000000000000000000000000 PUSH0 MSTORE PUSH1 0x32 PUSH1 0x4 MSTORE PUSH1 0x24 PUSH0 REVERT JUMPDEST PUSH0 PUSH2 0x37AC DUP3 PUSH2 0x2E6F JUMP JUMPDEST SWAP2 POP PUSH2 0x37B7 DUP4 PUSH2 0x2E6F JUMP JUMPDEST SWAP3 POP DUP3 DUP3 ADD SWAP1 POP DUP1 DUP3 GT ISZERO PUSH2 0x37CF JUMPI PUSH2 0x37CE PUSH2 0x3715 JUMP JUMPDEST JUMPDEST SWAP3 SWAP2 POP POP JUMP JUMPDEST PUSH0 PUSH2 0x37DF DUP3 PUSH2 0x2E6F JUMP JUMPDEST SWAP2 POP PUSH2 0x37EA DUP4 PUSH2 0x2E6F JUMP JUMPDEST SWAP3 POP DUP3 DUP3 MUL PUSH2 0x37F8 DUP2 PUSH2 0x2E6F JUMP JUMPDEST SWAP2 POP DUP3 DUP3 DIV DUP5 EQ DUP4 ISZERO OR PUSH2 0x380F JUMPI PUSH2 0x380E PUSH2 0x3715 JUMP JUMPDEST JUMPDEST POP SWAP3 SWAP2 POP POP JUMP JUMPDEST PUSH32 0x4E487B7100000000000000000000000000000000000000000000000000000000 PUSH0 MSTORE PUSH1 0x12 PUSH1 0x4 MSTORE PUSH1 0x24 PUSH0 REVERT JUMPDEST PUSH0 PUSH2 0x384D DUP3 PUSH2 0x2E6F JUMP JUMPDEST SWAP2 POP PUSH2 0x3858 DUP4 PUSH2 0x2E6F JUMP JUMPDEST SWAP3 POP DUP3 PUSH2 0x3868 JUMPI PUSH2 0x3867 PUSH2 0x3816 JUMP JUMPDEST JUMPDEST DUP3 DUP3 DIV SWAP1 POP SWAP3 SWAP2 POP POP JUMP JUMPDEST PUSH32 0x4E487B7100000000000000000000000000000000000000000000000000000000 PUSH0 MSTORE PUSH1 0x22 PUSH1 0x4 MSTORE PUSH1 0x24 PUSH0 REVERT JUMPDEST PUSH0 PUSH1 0x2 DUP3 DIV SWAP1 POP PUSH1 0x1 DUP3 AND DUP1 PUSH2 0x38B7 JUMPI PUSH1 0x7F DUP3 AND SWAP2 POP JUMPDEST PUSH1 0x20 DUP3 LT DUP2 SUB PUSH2 0x38CA JUMPI PUSH2 0x38C9 PUSH2 0x3873 JUMP JUMPDEST JUMPDEST POP SWAP2 SWAP1 POP JUMP JUMPDEST PUSH0 DUP2 MLOAD SWAP1 POP PUSH2 0x38DE DUP2 PUSH2 0x2F25 JUMP JUMPDEST SWAP3 SWAP2 POP POP JUMP JUMPDEST PUSH0 PUSH1 0x20 DUP3 DUP5 SUB SLT ISZERO PUSH2 0x38F9 JUMPI PUSH2 0x38F8 PUSH2 0x2F1D JUMP JUMPDEST JUMPDEST PUSH0 PUSH2 0x3906 DUP5 DUP3 DUP6 ADD PUSH2 0x38D0 JUMP JUMPDEST SWAP2 POP POP SWAP3 SWAP2 POP POP JUMP JUMPDEST PUSH0 PUSH2 0x391A DUP4 DUP6 PUSH2 0x356E JUMP JUMPDEST SWAP4 POP PUSH2 0x3927 DUP4 DUP6 DUP5 PUSH2 0x3097 JUMP JUMPDEST PUSH2 0x3930 DUP4 PUSH2 0x2FDF JUMP JUMPDEST DUP5 ADD SWAP1 POP SWAP4 SWAP3 POP POP POP JUMP JUMPDEST PUSH0 PUSH1 0x20 DUP3 ADD SWAP1 POP DUP2 DUP2 SUB PUSH0 DUP4 ADD MSTORE PUSH2 0x3954 DUP2 DUP5 DUP7 PUSH2 0x390F JUMP JUMPDEST SWAP1 POP SWAP4 SWAP3 POP POP POP JUMP JUMPDEST PUSH0 DUP2 SWAP1 POP DUP2 PUSH0 MSTORE PUSH1 0x20 PUSH0 KECCAK256 SWAP1 POP SWAP2 SWAP1 POP JUMP JUMPDEST PUSH0 PUSH1 0x20 PUSH1 0x1F DUP4 ADD DIV SWAP1 POP SWAP2 SWAP1 POP JUMP JUMPDEST PUSH0 DUP3 DUP3 SHL SWAP1 POP SWAP3 SWAP2 POP POP JUMP JUMPDEST PUSH0 PUSH1 0x8 DUP4 MUL PUSH2 0x39B9 PUSH32 0xFFFFFFFFFFFFFFFFFFFFFFFFFFFFFFFFFFFFFFFFFFFFFFFFFFFFFFFFFFFFFFFF DUP3 PUSH2 0x397E JUMP JUMPDEST PUSH2 0x39C3 DUP7 DUP4 PUSH2 0x397E JUMP JUMPDEST SWAP6 POP DUP1 NOT DUP5 AND SWAP4 POP DUP1 DUP7 AND DUP5 OR SWAP3 POP POP POP SWAP4 SWAP3 POP POP POP JUMP JUMPDEST PUSH0 PUSH2 0x39F5 PUSH2 0x39F0 PUSH2 0x39EB DUP5 PUSH2 0x2E6F JUMP JUMPDEST PUSH2 0x2EA0 JUMP JUMPDEST PUSH2 0x2E6F JUMP JUMPDEST SWAP1 POP SWAP2 SWAP1 POP JUMP JUMPDEST PUSH0 DUP2 SWAP1 POP SWAP2 SWAP1 POP JUMP JUMPDEST PUSH2 0x3A0E DUP4 PUSH2 0x39DB JUMP JUMPDEST PUSH2 0x3A22 PUSH2 0x3A1A DUP3 PUSH2 0x39FC JUMP JUMPDEST DUP5 DUP5 SLOAD PUSH2 0x398A JUMP JUMPDEST DUP3 SSTORE POP POP POP POP JUMP JUMPDEST PUSH0 PUSH0 SWAP1 POP SWAP1 JUMP JUMPDEST PUSH2 0x3A39 PUSH2 0x3A2A JUMP JUMPDEST PUSH2 0x3A44 DUP2 DUP5 DUP5 PUSH2 0x3A05 JUMP JUMPDEST POP POP POP JUMP JUMPDEST JUMPDEST DUP2 DUP2 LT ISZERO PUSH2 0x3A67 JUMPI PUSH2 0x3A5C PUSH0 DUP3 PUSH2 0x3A31 JUMP JUMPDEST PUSH1 0x1 DUP2 ADD SWAP1 POP PUSH2 0x3A4A JUMP JUMPDEST POP POP JUMP JUMPDEST PUSH1 0x1F DUP3 GT ISZERO PUSH2 0x3AAC JUMPI PUSH2 0x3A7D DUP2 PUSH2 0x395D JUMP JUMPDEST PUSH2 0x3A86 DUP5 PUSH2 0x396F JUMP JUMPDEST DUP2 ADD PUSH1 0x20 DUP6 LT ISZERO PUSH2 0x3A95 JUMPI DUP2 SWAP1 POP JUMPDEST PUSH2 0x3AA9 PUSH2 0x3AA1 DUP6 PUSH2 0x396F JUMP JUMPDEST DUP4 ADD DUP3 PUSH2 0x3A49 JUMP JUMPDEST POP POP JUMPDEST POP POP POP JUMP JUMPDEST PUSH0 DUP3 DUP3 SHR SWAP1 POP SWAP3 SWAP2 POP POP JUMP JUMPDEST PUSH0 PUSH2 0x3ACC PUSH0 NOT DUP5 PUSH1 0x8 MUL PUSH2 0x3AB1 JUMP JUMPDEST NOT DUP1 DUP4 AND SWAP2 POP POP SWAP3 SWAP2 POP POP JUMP JUMPDEST PUSH0 PUSH2 0x3AE4 DUP4 DUP4 PUSH2 0x3ABD JUMP JUMPDEST SWAP2 POP DUP3 PUSH1 0x2 MUL DUP3 OR SWAP1 POP SWAP3 SWAP2 POP POP JUMP JUMPDEST PUSH2 0x3AFD DUP3 PUSH2 0x31E5 JUMP JUMPDEST PUSH8 0xFFFFFFFFFFFFFFFF DUP2 GT ISZERO PUSH2 0x3B16 JUMPI PUSH2 0x3B15 PUSH2 0x2FEF JUMP JUMPDEST JUMPDEST PUSH2 0x3B20 DUP3 SLOAD PUSH2 0x38A0 JUMP JUMPDEST PUSH2 0x3B2B DUP3 DUP3 DUP6 PUSH2 0x3A6B JUMP JUMPDEST PUSH0 PUSH1 0x20 SWAP1 POP PUSH1 0x1F DUP4 GT PUSH1 0x1 DUP2 EQ PUSH2 0x3B5C JUMPI PUSH0 DUP5 ISZERO PUSH2 0x3B4A JUMPI DUP3 DUP8 ADD MLOAD SWAP1 POP JUMPDEST PUSH2 0x3B54 DUP6 DUP3 PUSH2 0x3AD9 JUMP JUMPDEST DUP7 SSTORE POP PUSH2 0x3BBB JUMP JUMPDEST PUSH1 0x1F NOT DUP5 AND PUSH2 0x3B6A DUP7 PUSH2 0x395D JUMP JUMPDEST PUSH0 JUMPDEST DUP3 DUP2 LT ISZERO PUSH2 0x3B91 JUMPI DUP5 DUP10 ADD MLOAD DUP3 SSTORE PUSH1 0x1 DUP3 ADD SWAP2 POP PUSH1 0x20 DUP6 ADD SWAP5 POP PUSH1 0x20 DUP2 ADD SWAP1 POP PUSH2 0x3B6C JUMP JUMPDEST DUP7 DUP4 LT ISZERO PUSH2 0x3BAE JUMPI DUP5 DUP10 ADD MLOAD PUSH2 0x3BAA PUSH1 0x1F DUP10 AND DUP3 PUSH2 0x3ABD JUMP JUMPDEST DUP4 SSTORE POP JUMPDEST PUSH1 0x1 PUSH1 0x2 DUP9 MUL ADD DUP9 SSTORE POP POP POP JUMPDEST POP POP POP POP POP POP JUMP JUMPDEST PUSH0 PUSH1 0x60 DUP3 ADD SWAP1 POP PUSH2 0x3BD6 PUSH0 DUP4 ADD DUP7 PUSH2 0x2E47 JUMP JUMPDEST PUSH2 0x3BE3 PUSH1 0x20 DUP4 ADD DUP6 PUSH2 0x2E78 JUMP JUMPDEST PUSH2 0x3BF0 PUSH1 0x40 DUP4 ADD DUP5 PUSH2 0x2E78 JUMP JUMPDEST SWAP5 SWAP4 POP POP POP POP JUMP JUMPDEST PUSH0 DUP2 SWAP1 POP SWAP2 SWAP1 POP JUMP JUMPDEST PUSH0 PUSH8 0xFFFFFFFFFFFFFFFF DUP3 AND SWAP1 POP SWAP2 SWAP1 POP JUMP JUMPDEST PUSH0 PUSH2 0x3C2E PUSH2 0x3C29 PUSH2 0x3C24 DUP5 PUSH2 0x3BF8 JUMP JUMPDEST PUSH2 0x2EA0 JUMP JUMPDEST PUSH2 0x3C01 JUMP JUMPDEST SWAP1 POP SWAP2 SWAP1 POP JUMP JUMPDEST PUSH2 0x3C3E DUP2 PUSH2 0x3C14 JUMP JUMPDEST DUP3 MSTORE POP POP JUMP JUMPDEST PUSH0 PUSH1 0x20 DUP3 ADD SWAP1 POP PUSH2 0x3C57 PUSH0 DUP4 ADD DUP5 PUSH2 0x3C35 JUMP JUMPDEST SWAP3 SWAP2 POP POP JUMP JUMPDEST PUSH32 0x536861726573206D75737420657175616C2072656D61696E696E6720616D6F75 PUSH0 DUP3 ADD MSTORE PUSH32 0x6E74000000000000000000000000000000000000000000000000000000000000 PUSH1 0x20 DUP3 ADD MSTORE POP JUMP JUMPDEST PUSH0 PUSH2 0x3CB7 PUSH1 0x22 DUP4 PUSH2 0x356E JUMP JUMPDEST SWAP2 POP PUSH2 0x3CC2 DUP3 PUSH2 0x3C5D JUMP JUMPDEST PUSH1 0x40 DUP3 ADD SWAP1 POP SWAP2 SWAP1 POP JUMP JUMPDEST PUSH0 PUSH1 0x20 DUP3 ADD SWAP1 POP DUP2 DUP2 SUB PUSH0 DUP4 ADD MSTORE PUSH2 0x3CE4 DUP2 PUSH2 0x3CAB JUMP JUMPDEST SWAP1 POP SWAP2 SWAP1 POP JUMP JUMPDEST PUSH0 PUSH1 0x40 DUP3 ADD SWAP1 POP PUSH2 0x3CFE PUSH0 DUP4 ADD DUP6 PUSH2 0x2E78 JUMP JUMPDEST PUSH2 0x3D0B PUSH1 0x20 DUP4 ADD DUP5 PUSH2 0x2E78 JUMP JUMPDEST SWAP4 SWAP3 POP POP POP JUMP JUMPDEST PUSH32 0x5061757361626C653A2070617573656400000000000000000000000000000000 PUSH0 DUP3 ADD MSTORE POP JUMP JUMPDEST PUSH0 PUSH2 0x3D46 PUSH1 0x10 DUP4 PUSH2 0x356E JUMP JUMPDEST SWAP2 POP PUSH2 0x3D51 DUP3 PUSH2 0x3D12 JUMP JUMPDEST PUSH1 0x20 DUP3 ADD SWAP1 POP SWAP2 SWAP1 POP JUMP JUMPDEST PUSH0 PUSH1 0x20 DUP3 ADD SWAP1 POP DUP2 DUP2 SUB PUSH0 DUP4 ADD MSTORE PUSH2 0x3D73 DUP2 PUSH2 0x3D3A JUMP JUMPDEST SWAP1 POP SWAP2 SWAP1 POP JUMP JUMPDEST PUSH0 PUSH1 0x40 DUP3 ADD SWAP1 POP PUSH2 0x3D8D PUSH0 DUP4 ADD DUP6 PUSH2 0x2E47 JUMP JUMPDEST PUSH2 0x3D9A PUSH1 0x20 DUP4 ADD DUP5 PUSH2 0x2E78 JUMP JUMPDEST SWAP4 SWAP3 POP POP POP JUMP JUMPDEST PUSH2 0x3DAA DUP2 PUSH2 0x316D JUMP JUMPDEST DUP2 EQ PUSH2 0x3DB4 JUMPI PUSH0 PUSH0 REVERT JUMPDEST POP JUMP JUMPDEST PUSH0 DUP2 MLOAD SWAP1 POP PUSH2 0x3DC5 DUP2 PUSH2 0x3DA1 JUMP JUMPDEST SWAP3 SWAP2 POP POP JUMP JUMPDEST PUSH0 PUSH1 0x20 DUP3 DUP5 SUB SLT ISZERO PUSH2 0x3DE0 JUMPI PUSH2 0x3DDF PUSH2 0x2F1D JUMP JUMPDEST JUMPDEST PUSH0 PUSH2 0x3DED DUP5 DUP3 DUP6 ADD PUSH2 0x3DB7 JUMP JUMPDEST SWAP2 POP POP SWAP3 SWAP2 POP POP JUMP JUMPDEST PUSH0 PUSH1 0x60 DUP3 ADD SWAP1 POP PUSH2 0x3E09 PUSH0 DUP4 ADD DUP7 PUSH2 0x2E47 JUMP JUMPDEST PUSH2 0x3E16 PUSH1 0x20 DUP4 ADD DUP6 PUSH2 0x2E47 JUMP JUMPDEST PUSH2 0x3E23 PUSH1 0x40 DUP4 ADD DUP5 PUSH2 0x2E78 JUMP JUMPDEST SWAP5 SWAP4 POP POP POP POP JUMP JUMPDEST PUSH32 0x5061757361626C653A206E6F7420706175736564000000000000000000000000 PUSH0 DUP3 ADD MSTORE POP JUMP JUMPDEST PUSH0 PUSH2 0x3E5F PUSH1 0x14 DUP4 PUSH2 0x356E JUMP JUMPDEST SWAP2 POP PUSH2 0x3E6A DUP3 PUSH2 0x3E2B JUMP JUMPDEST PUSH1 0x20 DUP3 ADD SWAP1 POP SWAP2 SWAP1 POP JUMP JUMPDEST PUSH0 PUSH1 0x20 DUP3 ADD SWAP1 POP DUP2 DUP2 SUB PUSH0 DUP4 ADD MSTORE PUSH2 0x3E8C DUP2 PUSH2 0x3E53 JUMP JUMPDEST SWAP1 POP SWAP2 SWAP1 POP JUMP JUMPDEST PUSH2 0x3E9C DUP2 PUSH2 0x2F7A JUMP JUMPDEST DUP2 EQ PUSH2 0x3EA6 JUMPI PUSH0 PUSH0 REVERT JUMPDEST POP JUMP JUMPDEST PUSH0 DUP2 MLOAD SWAP1 POP PUSH2 0x3EB7 DUP2 PUSH2 0x3E93 JUMP JUMPDEST SWAP3 SWAP2 POP POP JUMP JUMPDEST PUSH0 PUSH1 0x20 DUP3 DUP5 SUB SLT ISZERO PUSH2 0x3ED2 JUMPI PUSH2 0x3ED1 PUSH2 0x2F1D JUMP JUMPDEST JUMPDEST PUSH0 PUSH2 0x3EDF DUP5 DUP3 DUP6 ADD PUSH2 0x3EA9 JUMP JUMPDEST SWAP2 POP POP SWAP3 SWAP2 POP POP JUMP JUMPDEST PUSH32 0x5361666545524332303A204552433230206F7065726174696F6E20646964206E PUSH0 DUP3 ADD MSTORE PUSH32 0x6F74207375636365656400000000000000000000000000000000000000000000 PUSH1 0x20 DUP3 ADD MSTORE POP JUMP JUMPDEST PUSH0 PUSH2 0x3F42 PUSH1 0x2A DUP4 PUSH2 0x356E JUMP JUMPDEST SWAP2 POP PUSH2 0x3F4D DUP3 PUSH2 0x3EE8 JUMP JUMPDEST PUSH1 0x40 DUP3 ADD SWAP1 POP SWAP2 SWAP1 POP JUMP JUMPDEST PUSH0 PUSH1 0x20 DUP3 ADD SWAP1 POP DUP2 DUP2 SUB PUSH0 DUP4 ADD MSTORE PUSH2 0x3F6F DUP2 PUSH2 0x3F36 JUMP JUMPDEST SWAP1 POP SWAP2 SWAP1 POP JUMP JUMPDEST PUSH0 DUP2 MLOAD SWAP1 POP SWAP2 SWAP1 POP JUMP JUMPDEST PUSH0 DUP2 SWAP1 POP SWAP3 SWAP2 POP POP JUMP JUMPDEST PUSH0 PUSH2 0x3F94 DUP3 PUSH2 0x3F76 JUMP JUMPDEST PUSH2 0x3F9E DUP2 DUP6 PUSH2 0x3F80 JUMP JUMPDEST SWAP4 POP PUSH2 0x3FAE DUP2 DUP6 PUSH1 0x20 DUP7 ADD PUSH2 0x31FF JUMP JUMPDEST DUP1 DUP5 ADD SWAP2 POP POP SWAP3 SWAP2 POP POP JUMP JUMPDEST PUSH0 PUSH2 0x3FC5 DUP3 DUP5 PUSH2 0x3F8A JUMP JUMPDEST SWAP2 POP DUP2 SWAP1 POP SWAP3 SWAP2 POP POP JUMP JUMPDEST PUSH32 0x416464726573733A20696E73756666696369656E742062616C616E636520666F PUSH0 DUP3 ADD MSTORE PUSH32 0x722063616C6C0000000000000000000000000000000000000000000000000000 PUSH1 0x20 DUP3 ADD MSTORE POP JUMP JUMPDEST PUSH0 PUSH2 0x402A PUSH1 0x26 DUP4 PUSH2 0x356E JUMP JUMPDEST SWAP2 POP PUSH2 0x4035 DUP3 PUSH2 0x3FD0 JUMP JUMPDEST PUSH1 0x40 DUP3 ADD SWAP1 POP SWAP2 SWAP1 POP JUMP JUMPDEST PUSH0 PUSH1 0x20 DUP3 ADD SWAP1 POP DUP2 DUP2 SUB PUSH0 DUP4 ADD MSTORE PUSH2 0x4057 DUP2 PUSH2 0x401E JUMP JUMPDEST SWAP1 POP SWAP2 SWAP1 POP JUMP JUMPDEST PUSH32 0x416464726573733A2063616C6C20746F206E6F6E2D636F6E7472616374000000 PUSH0 DUP3 ADD MSTORE POP JUMP JUMPDEST PUSH0 PUSH2 0x4092 PUSH1 0x1D DUP4 PUSH2 0x356E JUMP JUMPDEST SWAP2 POP PUSH2 0x409D DUP3 PUSH2 0x405E JUMP JUMPDEST PUSH1 0x20 DUP3 ADD SWAP1 POP SWAP2 SWAP1 POP JUMP JUMPDEST PUSH0 PUSH1 0x20 DUP3 ADD SWAP1 POP DUP2 DUP2 SUB PUSH0 DUP4 ADD MSTORE PUSH2 0x40BF DUP2 PUSH2 0x4086 JUMP JUMPDEST SWAP1 POP SWAP2 SWAP1 POP JUMP INVALID LOG2 PUSH5 0x6970667358 0x22 SLT KECCAK256 SWAPN 0x92 0xB4 PUSH11 0x4193AA1250B784F9C4101A SGT DUP13 PUSH22 0x98CC200DA617B26B729D5E9B805764736F6C63430008 0x1E STOP CALLER "
		},
		"gasEstimates": {
			"creation": {
				"codeDepositCost": "3327200",
				"executionCost": "infinite",
				"totalCost": "infinite"
			},
			"external": {
				"DISPUTE_TIMEOUT()": "370",
				"MAX_MILESTONES()": "392",
				"UPGRADE_INTERFACE_VERSION()": "infinite",
				"arbitrator()": "2576",
				"arbitratorFeeBps()": "2537",
				"cancelProject()": "infinite",
				"developer()": "2574",
				"disputeRaisedAt()": "2514",
				"emergencyWithdraw(address,uint256)": "infinite",
				"funder()": "2555",
				"getContractBalance()": "infinite",
				"getMilestones()": "infinite",
				"getRemainingBalance()": "infinite",
				"initialize(address,address,address,uint256[],uint256[],address,uint256)": "infinite",
				"isDisputeExpired()": "infinite",
				"milestoneCount()": "2509",
				"milestones(uint256)": "infinite",
				"owner()": "2677",
				"pause()": "infinite",
				"paused()": "2605",
				"paymentToken()": "infinite",
				"platformFeeBps()": "2471",
				"platformTreasury()": "2596",
				"proxiableUUID()": "infinite",
				"raiseDispute(string)": "infinite",
				"releaseMilestone(uint256)": "infinite",
				"releasedAmount()": "2537",
				"renounceOwnership()": "infinite",
				"resolveDispute(uint256,uint256)": "infinite",
				"setArbitrator(address,uint256)": "infinite",
				"state()": "2649",
				"totalAmount()": "2516",
				"transferOwnership(address)": "infinite",
				"unpause()": "infinite",
				"upgradeToAndCall(address,bytes)": "infinite"
			},
			"internal": {
				"_authorizeUpgrade(address)": "infinite"
			}
		},
		"methodIdentifiers": {
			"DISPUTE_TIMEOUT()": "486265c6",
			"MAX_MILESTONES()": "4c05abeb",
			"UPGRADE_INTERFACE_VERSION()": "ad3cb1cc",
			"arbitrator()": "6cc6cde1",
			"arbitratorFeeBps()": "314325c2",
			"cancelProject()": "1adff0ee",
			"developer()": "ca4b208b",
			"disputeRaisedAt()": "b95d8dd4",
			"emergencyWithdraw(address,uint256)": "95ccea67",
			"funder()": "041ae880",
			"getContractBalance()": "6f9fb98a",
			"getMilestones()": "629e4ed0",
			"getRemainingBalance()": "2fba2c85",
			"initialize(address,address,address,uint256[],uint256[],address,uint256)": "817f9749",
			"isDisputeExpired()": "3ddb47b4",
			"milestoneCount()": "0681ca55",
			"milestones(uint256)": "e89e4ed6",
			"owner()": "8da5cb5b",
			"pause()": "8456cb59",
			"paused()": "5c975abb",
			"paymentToken()": "3013ce29",
			"platformFeeBps()": "22dcd13e",
			"platformTreasury()": "e138818c",
			"proxiableUUID()": "52d1902d",
			"raiseDispute(string)": "725a3b4b",
			"releaseMilestone(uint256)": "317debf5",
			"releasedAmount()": "45d30a17",
			"renounceOwnership()": "715018a6",
			"resolveDispute(uint256,uint256)": "bdc84ac3",
			"setArbitrator(address,uint256)": "b1bab56a",
			"state()": "c19d93fb",
			"totalAmount()": "1a39d8ef",
			"transferOwnership(address)": "f2fde38b",
			"unpause()": "3f4ba83a",
			"upgradeToAndCall(address,bytes)": "4f1ef286"
		}
	},
	"abi": [
		{
			"inputs": [
				{
					"internalType": "address",
					"name": "target",
					"type": "address"
				}
			],
			"name": "AddressEmptyCode",
			"type": "error"
		},
		{
			"inputs": [],
			"name": "AlreadyReleased",
			"type": "error"
		},
		{
			"inputs": [],
			"name": "DisputeNotRaised",
			"type": "error"
		},
		{
			"inputs": [
				{
					"internalType": "address",
					"name": "implementation",
					"type": "address"
				}
			],
			"name": "ERC1967InvalidImplementation",
			"type": "error"
		},
		{
			"inputs": [],
			"name": "ERC1967NonPayable",
			"type": "error"
		},
		{
			"inputs": [],
			"name": "ExceedsMaxMilestones",
			"type": "error"
		},
		{
			"inputs": [],
			"name": "FailedCall",
			"type": "error"
		},
		{
			"inputs": [],
			"name": "InsufficientBalance",
			"type": "error"
		},
		{
			"inputs": [],
			"name": "InvalidInitialization",
			"type": "error"
		},
		{
			"inputs": [],
			"name": "InvalidMilestone",
			"type": "error"
		},
		{
			"inputs": [],
			"name": "InvalidState",
			"type": "error"
		},
		{
			"inputs": [],
			"name": "MilestoneExpired",
			"type": "error"
		},
		{
			"inputs": [],
			"name": "NotAuthorized",
			"type": "error"
		},
		{
			"inputs": [],
			"name": "NotInitializing",
			"type": "error"
		},
		{
			"inputs": [],
			"name": "OnlyArbitrator",
			"type": "error"
		},
		{
			"inputs": [
				{
					"internalType": "address",
					"name": "owner",
					"type": "address"
				}
			],
			"name": "OwnableInvalidOwner",
			"type": "error"
		},
		{
			"inputs": [
				{
					"internalType": "address",
					"name": "account",
					"type": "address"
				}
			],
			"name": "OwnableUnauthorizedAccount",
			"type": "error"
		},
		{
			"inputs": [],
			"name": "UUPSUnauthorizedCallContext",
			"type": "error"
		},
		{
			"inputs": [
				{
					"internalType": "bytes32",
					"name": "slot",
					"type": "bytes32"
				}
			],
			"name": "UUPSUnsupportedProxiableUUID",
			"type": "error"
		},
		{
			"inputs": [],
			"name": "ZeroAddress",
			"type": "error"
		},
		{
			"inputs": [],
			"name": "ZeroAmount",
			"type": "error"
		},
		{
			"anonymous": false,
			"inputs": [
				{
					"indexed": true,
					"internalType": "address",
					"name": "arbitrator",
					"type": "address"
				},
				{
					"indexed": false,
					"internalType": "uint256",
					"name": "feeBps",
					"type": "uint256"
				}
			],
			"name": "ArbitratorSet",
			"type": "event"
		},
		{
			"anonymous": false,
			"inputs": [
				{
					"indexed": true,
					"internalType": "address",
					"name": "by",
					"type": "address"
				},
				{
					"indexed": false,
					"internalType": "string",
					"name": "reason",
					"type": "string"
				}
			],
			"name": "DisputeRaised",
			"type": "event"
		},
		{
			"anonymous": false,
			"inputs": [
				{
					"indexed": false,
					"internalType": "uint256",
					"name": "developerAmount",
					"type": "uint256"
				},
				{
					"indexed": false,
					"internalType": "uint256",
					"name": "funderRefund",
					"type": "uint256"
				}
			],
			"name": "DisputeResolved",
			"type": "event"
		},
		{
			"anonymous": false,
			"inputs": [
				{
					"indexed": true,
					"internalType": "address",
					"name": "token",
					"type": "address"
				},
				{
					"indexed": false,
					"internalType": "uint256",
					"name": "amount",
					"type": "uint256"
				}
			],
			"name": "EmergencyWithdraw",
			"type": "event"
		},
		{
			"anonymous": false,
			"inputs": [
				{
					"indexed": false,
					"internalType": "uint64",
					"name": "version",
					"type": "uint64"
				}
			],
			"name": "Initialized",
			"type": "event"
		},
		{
			"anonymous": false,
			"inputs": [
				{
					"indexed": true,
					"internalType": "address",
					"name": "funder",
					"type": "address"
				},
				{
					"indexed": true,
					"internalType": "address",
					"name": "developer",
					"type": "address"
				},
				{
					"indexed": false,
					"internalType": "address",
					"name": "token",
					"type": "address"
				},
				{
					"indexed": false,
					"internalType": "uint256",
					"name": "totalAmount",
					"type": "uint256"
				},
				{
					"indexed": false,
					"internalType": "uint256",
					"name": "platformFeeBps",
					"type": "uint256"
				}
			],
			"name": "Initialized",
			"type": "event"
		},
		{
			"anonymous": false,
			"inputs": [
				{
					"indexed": true,
					"internalType": "uint256",
					"name": "index",
					"type": "uint256"
				},
				{
					"indexed": false,
					"internalType": "uint256",
					"name": "amount",
					"type": "uint256"
				},
				{
					"indexed": false,
					"internalType": "uint256",
					"name": "deadline",
					"type": "uint256"
				}
			],
			"name": "MilestoneAdded",
			"type": "event"
		},
		{
			"anonymous": false,
			"inputs": [
				{
					"indexed": true,
					"internalType": "uint256",
					"name": "index",
					"type": "uint256"
				},
				{
					"indexed": false,
					"internalType": "uint256",
					"name": "amount",
					"type": "uint256"
				}
			],
			"name": "MilestoneReleased",
			"type": "event"
		},
		{
			"anonymous": false,
			"inputs": [
				{
					"indexed": true,
					"internalType": "address",
					"name": "previousOwner",
					"type": "address"
				},
				{
					"indexed": true,
					"internalType": "address",
					"name": "newOwner",
					"type": "address"
				}
			],
			"name": "OwnershipTransferred",
			"type": "event"
		},
		{
			"anonymous": false,
			"inputs": [
				{
					"indexed": false,
					"internalType": "address",
					"name": "account",
					"type": "address"
				}
			],
			"name": "Paused",
			"type": "event"
		},
		{
			"anonymous": false,
			"inputs": [],
			"name": "ProjectCancelled",
			"type": "event"
		},
		{
			"anonymous": false,
			"inputs": [],
			"name": "ProjectCompleted",
			"type": "event"
		},
		{
			"anonymous": false,
			"inputs": [
				{
					"indexed": false,
					"internalType": "address",
					"name": "account",
					"type": "address"
				}
			],
			"name": "Unpaused",
			"type": "event"
		},
		{
			"anonymous": false,
			"inputs": [
				{
					"indexed": true,
					"internalType": "address",
					"name": "implementation",
					"type": "address"
				}
			],
			"name": "Upgraded",
			"type": "event"
		},
		{
			"inputs": [],
			"name": "DISPUTE_TIMEOUT",
			"outputs": [
				{
					"internalType": "uint256",
					"name": "",
					"type": "uint256"
				}
			],
			"stateMutability": "view",
			"type": "function"
		},
		{
			"inputs": [],
			"name": "MAX_MILESTONES",
			"outputs": [
				{
					"internalType": "uint256",
					"name": "",
					"type": "uint256"
				}
			],
			"stateMutability": "view",
			"type": "function"
		},
		{
			"inputs": [],
			"name": "UPGRADE_INTERFACE_VERSION",
			"outputs": [
				{
					"internalType": "string",
					"name": "",
					"type": "string"
				}
			],
			"stateMutability": "view",
			"type": "function"
		},
		{
			"inputs": [],
			"name": "arbitrator",
			"outputs": [
				{
					"internalType": "address",
					"name": "",
					"type": "address"
				}
			],
			"stateMutability": "view",
			"type": "function"
		},
		{
			"inputs": [],
			"name": "arbitratorFeeBps",
			"outputs": [
				{
					"internalType": "uint256",
					"name": "",
					"type": "uint256"
				}
			],
			"stateMutability": "view",
			"type": "function"
		},
		{
			"inputs": [],
			"name": "cancelProject",
			"outputs": [],
			"stateMutability": "nonpayable",
			"type": "function"
		},
		{
			"inputs": [],
			"name": "developer",
			"outputs": [
				{
					"internalType": "address",
					"name": "",
					"type": "address"
				}
			],
			"stateMutability": "view",
			"type": "function"
		},
		{
			"inputs": [],
			"name": "disputeRaisedAt",
			"outputs": [
				{
					"internalType": "uint256",
					"name": "",
					"type": "uint256"
				}
			],
			"stateMutability": "view",
			"type": "function"
		},
		{
			"inputs": [
				{
					"internalType": "address",
					"name": "token",
					"type": "address"
				},
				{
					"internalType": "uint256",
					"name": "amount",
					"type": "uint256"
				}
			],
			"name": "emergencyWithdraw",
			"outputs": [],
			"stateMutability": "nonpayable",
			"type": "function"
		},
		{
			"inputs": [],
			"name": "funder",
			"outputs": [
				{
					"internalType": "address",
					"name": "",
					"type": "address"
				}
			],
			"stateMutability": "view",
			"type": "function"
		},
		{
			"inputs": [],
			"name": "getContractBalance",
			"outputs": [
				{
					"internalType": "uint256",
					"name": "",
					"type": "uint256"
				}
			],
			"stateMutability": "view",
			"type": "function"
		},
		{
			"inputs": [],
			"name": "getMilestones",
			"outputs": [
				{
					"components": [
						{
							"internalType": "uint256",
							"name": "amount",
							"type": "uint256"
						},
						{
							"internalType": "bool",
							"name": "released",
							"type": "bool"
						},
						{
							"internalType": "uint256",
							"name": "deadline",
							"type": "uint256"
						},
						{
							"internalType": "string",
							"name": "description",
							"type": "string"
						}
					],
					"internalType": "struct OpenForgeERC20Escrow.Milestone[]",
					"name": "",
					"type": "tuple[]"
				}
			],
			"stateMutability": "view",
			"type": "function"
		},
		{
			"inputs": [],
			"name": "getRemainingBalance",
			"outputs": [
				{
					"internalType": "uint256",
					"name": "",
					"type": "uint256"
				}
			],
			"stateMutability": "view",
			"type": "function"
		},
		{
			"inputs": [
				{
					"internalType": "address",
					"name": "_funder",
					"type": "address"
				},
				{
					"internalType": "address",
					"name": "_developer",
					"type": "address"
				},
				{
					"internalType": "address",
					"name": "_token",
					"type": "address"
				},
				{
					"internalType": "uint256[]",
					"name": "_milestoneAmounts",
					"type": "uint256[]"
				},
				{
					"internalType": "uint256[]",
					"name": "_milestoneDeadlines",
					"type": "uint256[]"
				},
				{
					"internalType": "address",
					"name": "_platformTreasury",
					"type": "address"
				},
				{
					"internalType": "uint256",
					"name": "_platformFeeBps",
					"type": "uint256"
				}
			],
			"name": "initialize",
			"outputs": [],
			"stateMutability": "nonpayable",
			"type": "function"
		},
		{
			"inputs": [],
			"name": "isDisputeExpired",
			"outputs": [
				{
					"internalType": "bool",
					"name": "",
					"type": "bool"
				}
			],
			"stateMutability": "view",
			"type": "function"
		},
		{
			"inputs": [],
			"name": "milestoneCount",
			"outputs": [
				{
					"internalType": "uint256",
					"name": "",
					"type": "uint256"
				}
			],
			"stateMutability": "view",
			"type": "function"
		},
		{
			"inputs": [
				{
					"internalType": "uint256",
					"name": "",
					"type": "uint256"
				}
			],
			"name": "milestones",
			"outputs": [
				{
					"internalType": "uint256",
					"name": "amount",
					"type": "uint256"
				},
				{
					"internalType": "bool",
					"name": "released",
					"type": "bool"
				},
				{
					"internalType": "uint256",
					"name": "deadline",
					"type": "uint256"
				},
				{
					"internalType": "string",
					"name": "description",
					"type": "string"
				}
			],
			"stateMutability": "view",
			"type": "function"
		},
		{
			"inputs": [],
			"name": "owner",
			"outputs": [
				{
					"internalType": "address",
					"name": "",
					"type": "address"
				}
			],
			"stateMutability": "view",
			"type": "function"
		},
		{
			"inputs": [],
			"name": "pause",
			"outputs": [],
			"stateMutability": "nonpayable",
			"type": "function"
		},
		{
			"inputs": [],
			"name": "paused",
			"outputs": [
				{
					"internalType": "bool",
					"name": "",
					"type": "bool"
				}
			],
			"stateMutability": "view",
			"type": "function"
		},
		{
			"inputs": [],
			"name": "paymentToken",
			"outputs": [
				{
					"internalType": "contract IERC20Upgradeable",
					"name": "",
					"type": "address"
				}
			],
			"stateMutability": "view",
			"type": "function"
		},
		{
			"inputs": [],
			"name": "platformFeeBps",
			"outputs": [
				{
					"internalType": "uint256",
					"name": "",
					"type": "uint256"
				}
			],
			"stateMutability": "view",
			"type": "function"
		},
		{
			"inputs": [],
			"name": "platformTreasury",
			"outputs": [
				{
					"internalType": "address",
					"name": "",
					"type": "address"
				}
			],
			"stateMutability": "view",
			"type": "function"
		},
		{
			"inputs": [],
			"name": "proxiableUUID",
			"outputs": [
				{
					"internalType": "bytes32",
					"name": "",
					"type": "bytes32"
				}
			],
			"stateMutability": "view",
			"type": "function"
		},
		{
			"inputs": [
				{
					"internalType": "string",
					"name": "reason",
					"type": "string"
				}
			],
			"name": "raiseDispute",
			"outputs": [],
			"stateMutability": "nonpayable",
			"type": "function"
		},
		{
			"inputs": [
				{
					"internalType": "uint256",
					"name": "index",
					"type": "uint256"
				}
			],
			"name": "releaseMilestone",
			"outputs": [],
			"stateMutability": "nonpayable",
			"type": "function"
		},
		{
			"inputs": [],
			"name": "releasedAmount",
			"outputs": [
				{
					"internalType": "uint256",
					"name": "",
					"type": "uint256"
				}
			],
			"stateMutability": "view",
			"type": "function"
		},
		{
			"inputs": [],
			"name": "renounceOwnership",
			"outputs": [],
			"stateMutability": "nonpayable",
			"type": "function"
		},
		{
			"inputs": [
				{
					"internalType": "uint256",
					"name": "developerShare",
					"type": "uint256"
				},
				{
					"internalType": "uint256",
					"name": "funderShare",
					"type": "uint256"
				}
			],
			"name": "resolveDispute",
			"outputs": [],
			"stateMutability": "nonpayable",
			"type": "function"
		},
		{
			"inputs": [
				{
					"internalType": "address",
					"name": "_arbitrator",
					"type": "address"
				},
				{
					"internalType": "uint256",
					"name": "_feeBps",
					"type": "uint256"
				}
			],
			"name": "setArbitrator",
			"outputs": [],
			"stateMutability": "nonpayable",
			"type": "function"
		},
		{
			"inputs": [],
			"name": "state",
			"outputs": [
				{
					"internalType": "enum OpenForgeERC20Escrow.ProjectState",
					"name": "",
					"type": "uint8"
				}
			],
			"stateMutability": "view",
			"type": "function"
		},
		{
			"inputs": [],
			"name": "totalAmount",
			"outputs": [
				{
					"internalType": "uint256",
					"name": "",
					"type": "uint256"
				}
			],
			"stateMutability": "view",
			"type": "function"
		},
		{
			"inputs": [
				{
					"internalType": "address",
					"name": "newOwner",
					"type": "address"
				}
			],
			"name": "transferOwnership",
			"outputs": [],
			"stateMutability": "nonpayable",
			"type": "function"
		},
		{
			"inputs": [],
			"name": "unpause",
			"outputs": [],
			"stateMutability": "nonpayable",
			"type": "function"
		},
		{
			"inputs": [
				{
					"internalType": "address",
					"name": "newImplementation",
					"type": "address"
				},
				{
					"internalType": "bytes",
					"name": "data",
					"type": "bytes"
				}
			],
			"name": "upgradeToAndCall",
			"outputs": [],
			"stateMutability": "payable",
			"type": "function"
		}
	]
}