{
	"data": {
		"bytecode": {
			"linkReferences": {},
			"object": "60e060405234801561000f575f5ffd5b50604051613e22380380613e2283398181016040528101906100319190610886565b60015f819055505f73ffffffffffffffffffffffffffffffffffffffff168673ffffffffffffffffffffffffffffffffffffffff16036100a6576040517f08c379a000000000000000000000000000000000000000000000000000000000815260040161009d906109bd565b60405180910390fd5b5f73ffffffffffffffffffffffffffffffffffffffff168573ffffffffffffffffffffffffffffffffffffffff1603610114576040517f08c379a000000000000000000000000000000000000000000000000000000000815260040161010b90610a25565b60405180910390fd5b5f73ffffffffffffffffffffffffffffffffffffffff168473ffffffffffffffffffffffffffffffffffffffff1603610182576040517f08c379a000000000000000000000000000000000000000000000000000000000815260040161017990610a8d565b60405180910390fd5b8473ffffffffffffffffffffffffffffffffffffffff168673ffffffffffffffffffffffffffffffffffffffff16036101f0576040517f08c379a00000000000000000000000000000000000000000000000000000000081526004016101e790610af5565b60405180910390fd5b5f835111610233576040517f08c379a000000000000000000000000000000000000000000000000000000000815260040161022a90610b5d565b60405180910390fd5b81518351148015610245575080518351145b610284576040517f08c379a000000000000000000000000000000000000000000000000000000000815260040161027b90610bc5565b60405180910390fd5b8573ffffffffffffffffffffffffffffffffffffffff1660808173ffffffffffffffffffffffffffffffffffffffff16815250508473ffffffffffffffffffffffffffffffffffffffff1660a08173ffffffffffffffffffffffffffffffffffffffff16815250508373ffffffffffffffffffffffffffffffffffffffff1660c08173ffffffffffffffffffffffffffffffffffffffff16815250505f5f90505f5f90505b84518110156104cd575f85828151811061034657610345610be3565b5b60200260200101511161038e576040517f08c379a000000000000000000000000000000000000000000000000000000000815260040161038590610c5a565b60405180910390fd5b60056040518060a001604052808784815181106103ae576103ad610be3565b5b602002602001015181526020015f151581526020015f151581526020018684815181106103de576103dd610be3565b5b602002602001015181526020018584815181106103fe576103fd610be3565b5b6020026020010151815250908060018154018082558091505060019003905f5260205f2090600402015f909190919091505f820151815f01556020820151816001015f6101000a81548160ff02191690831515021790555060408201518160010160016101000a81548160ff0219169083151502179055506060820151816002015560808201518160030190816104959190610e7f565b5050508481815181106104ab576104aa610be3565b5b6020026020010151826104be9190610f7b565b91508080600101915050610329565b50806002819055505f60015f6101000a81548160ff021916908360048111156104f9576104f8610fae565b5b021790555050505050505050610fdb565b5f604051905090565b5f5ffd5b5f5ffd5b5f73ffffffffffffffffffffffffffffffffffffffff82169050919050565b5f6105448261051b565b9050919050565b6105548161053a565b811461055e575f5ffd5b50565b5f8151905061056f8161054b565b92915050565b5f5ffd5b5f601f19601f8301169050919050565b7f4e487b71000000000000000000000000000000000000000000000000000000005f52604160045260245ffd5b6105bf82610579565b810181811067ffffffffffffffff821117156105de576105dd610589565b5b80604052505050565b5f6105f061050a565b90506105fc82826105b6565b919050565b5f67ffffffffffffffff82111561061b5761061a610589565b5b602082029050602081019050919050565b5f5ffd5b5f819050919050565b61064281610630565b811461064c575f5ffd5b50565b5f8151905061065d81610639565b92915050565b5f61067561067084610601565b6105e7565b905080838252602082019050602084028301858111156106985761069761062c565b5b835b818110156106c157806106ad888261064f565b84526020840193505060208101905061069a565b5050509392505050565b5f82601f8301126106df576106de610575565b5b81516106ef848260208601610663565b91505092915050565b5f67ffffffffffffffff82111561071257610711610589565b5b602082029050602081019050919050565b5f5ffd5b5f67ffffffffffffffff82111561074157610740610589565b5b61074a82610579565b9050602081019050919050565b8281835e5f83830152505050565b5f61077761077284610727565b6105e7565b90508281526020810184848401111561079357610792610723565b5b61079e848285610757565b509392505050565b5f82601f8301126107ba576107b9610575565b5b81516107ca848260208601610765565b91505092915050565b5f6107e56107e0846106f8565b6105e7565b905080838252602082019050602084028301858111156108085761080761062c565b5b835b8181101561084f57805167ffffffffffffffff81111561082d5761082c610575565b5b80860161083a89826107a6565b8552602085019450505060208101905061080a565b5050509392505050565b5f82601f83011261086d5761086c610575565b5b815161087d8482602086016107d3565b91505092915050565b5f5f5f5f5f5f60c087890312156108a05761089f610513565b5b5f6108ad89828a01610561565b96505060206108be89828a01610561565b95505060406108cf89828a01610561565b945050606087015167ffffffffffffffff8111156108f0576108ef610517565b5b6108fc89828a016106cb565b935050608087015167ffffffffffffffff81111561091d5761091c610517565b5b61092989828a016106cb565b92505060a087015167ffffffffffffffff81111561094a57610949610517565b5b61095689828a01610859565b9150509295509295509295565b5f82825260208201905092915050565b7f496e76616c69642066756e6465720000000000000000000000000000000000005f82015250565b5f6109a7600e83610963565b91506109b282610973565b602082019050919050565b5f6020820190508181035f8301526109d48161099b565b9050919050565b7f496e76616c696420646576656c6f7065720000000000000000000000000000005f82015250565b5f610a0f601183610963565b9150610a1a826109db565b602082019050919050565b5f6020820190508181035f830152610a3c81610a03565b9050919050565b7f496e76616c696420746f6b656e000000000000000000000000000000000000005f82015250565b5f610a77600d83610963565b9150610a8282610a43565b602082019050919050565b5f6020820190508181035f830152610aa481610a6b565b9050919050565b7f46756e6465722063616e6e6f7420626520646576656c6f7065720000000000005f82015250565b5f610adf601a83610963565b9150610aea82610aab565b602082019050919050565b5f6020820190508181035f830152610b0c81610ad3565b9050919050565b7f4e6f206d696c6573746f6e6573000000000000000000000000000000000000005f82015250565b5f610b47600d83610963565b9150610b5282610b13565b602082019050919050565b5f6020820190508181035f830152610b7481610b3b565b9050919050565b7f496e76616c6964206d696c6573746f6e652061727261797300000000000000005f82015250565b5f610baf601883610963565b9150610bba82610b7b565b602082019050919050565b5f6020820190508181035f830152610bdc81610ba3565b9050919050565b7f4e487b71000000000000000000000000000000000000000000000000000000005f52603260045260245ffd5b7f5a65726f206d696c6573746f6e6520616d6f756e7400000000000000000000005f82015250565b5f610c44601583610963565b9150610c4f82610c10565b602082019050919050565b5f6020820190508181035f830152610c7181610c38565b9050919050565b5f81519050919050565b7f4e487b71000000000000000000000000000000000000000000000000000000005f52602260045260245ffd5b5f6002820490506001821680610cc657607f821691505b602082108103610cd957610cd8610c82565b5b50919050565b5f819050815f5260205f209050919050565b5f6020601f8301049050919050565b5f82821b905092915050565b5f60088302610d3b7fffffffffffffffffffffffffffffffffffffffffffffffffffffffffffffffff82610d00565b610d458683610d00565b95508019841693508086168417925050509392505050565b5f819050919050565b5f610d80610d7b610d7684610630565b610d5d565b610630565b9050919050565b5f819050919050565b610d9983610d66565b610dad610da582610d87565b848454610d0c565b825550505050565b5f5f905090565b610dc4610db5565b610dcf818484610d90565b505050565b5b81811015610df257610de75f82610dbc565b600181019050610dd5565b5050565b601f821115610e3757610e0881610cdf565b610e1184610cf1565b81016020851015610e20578190505b610e34610e2c85610cf1565b830182610dd4565b50505b505050565b5f82821c905092915050565b5f610e575f1984600802610e3c565b1980831691505092915050565b5f610e6f8383610e48565b9150826002028217905092915050565b610e8882610c78565b67ffffffffffffffff811115610ea157610ea0610589565b5b610eab8254610caf565b610eb6828285610df6565b5f60209050601f831160018114610ee7575f8415610ed5578287015190505b610edf8582610e64565b865550610f46565b601f198416610ef586610cdf565b5f5b82811015610f1c57848901518255600182019150602085019450602081019050610ef7565b86831015610f395784890151610f35601f891682610e48565b8355505b6001600288020188555050505b505050505050565b7f4e487b71000000000000000000000000000000000000000000000000000000005f52601160045260245ffd5b5f610f8582610630565b9150610f9083610630565b9250828201905080821115610fa857610fa7610f4e565b5b92915050565b7f4e487b71000000000000000000000000000000000000000000000000000000005f52602160045260245ffd5b60805160a05160c051612d8361109f5f395f8181610644015281816106fb015281816109a801528181610a8e01528181610f4901528181611164015281816115810152818161177b01528181611c4f0152611d3501525f8181610a6c01528181611256015281816113fc0152818161155f015261184701525f81816104dc01528181610512015281816106220152818161071f01528181610e1701528181610f27015281816112010152818161167a0152818161197f0152611c2a0152612d835ff3fe608060405234801561000f575f5ffd5b50600436106101a6575f3560e01c8063629e4ed0116100f7578063b95d8dd411610095578063dca783881161006f578063dca783881461041b578063e89e4ed61461044b578063ebd090541461047f578063f75fdcaa1461049d576101a6565b8063b95d8dd4146103c1578063c19d93fb146103df578063ca4b208b146103fd576101a6565b806399a5d747116100d157806399a5d7471461035f578063a525ad3c1461038f578063b4f5a711146103ad578063b60d4288146103b7576101a6565b8063629e4ed0146103075780636f9fb98a14610325578063725a3b4b14610343576101a6565b80633013ce291161016457806345d30a171161013e57806345d30a17146102a35780634e69d560146102c15780635ac482d1146102df57806360c6d8ae146102e9576101a6565b80633013ce291461024b578063317debf5146102695780633ddb47b414610285576101a6565b806202eab7146101aa578063041ae880146101c95780630681ca55146101e75780631a39d8ef146102055780631adff0ee146102235780632fba2c851461022d575b5f5ffd5b6101b26104b9565b6040516101c09291906121b6565b60405180910390f35b6101d16104da565b6040516101de91906121dd565b60405180910390f35b6101ef6104fe565b6040516101fc91906121f6565b60405180910390f35b61020d61050a565b60405161021a91906121f6565b60405180910390f35b61022b610510565b005b6102356106eb565b60405161024291906121f6565b60405180910390f35b6102536106f9565b604051610260919061226a565b60405180910390f35b610283600480360381019061027e91906122be565b61071d565b005b61028d610b24565b60405161029a9190612303565b60405180910390f35b6102ab610b80565b6040516102b891906121f6565b60405180910390f35b6102c9610b86565b6040516102d6919061238c565b60405180910390f35b6102e7610e15565b005b6102f1611027565b6040516102fe91906121f6565b60405180910390f35b61030f61102d565b60405161031c9190612540565b60405180910390f35b61032d611161565b60405161033a91906121f6565b60405180910390f35b61035d6004803603810190610358919061268c565b6111ff565b005b610379600480360381019061037491906122be565b6113d3565b60405161038691906121f6565b60405180910390f35b6103976113f5565b6040516103a491906121f6565b60405180910390f35b6103b56113fa565b005b6103bf611678565b005b6103c961182d565b6040516103d691906121f6565b60405180910390f35b6103e7611833565b6040516103f49190612746565b60405180910390f35b610405611845565b60405161041291906121dd565b60405180910390f35b610435600480360381019061043091906122be565b611869565b60405161044291906121f6565b60405180910390f35b610465600480360381019061046091906122be565b611885565b60405161047695949392919061275f565b60405180910390f35b610487611965565b60405161049491906121dd565b60405180910390f35b6104b760048036038101906104b291906122be565b61197d565b005b5f5f73c869d7a99fa831b4b3bee7e245f0c9348c2209a36096915091509091565b7f000000000000000000000000000000000000000000000000000000000000000081565b5f600580549050905090565b60025481565b7f000000000000000000000000000000000000000000000000000000000000000073ffffffffffffffffffffffffffffffffffffffff163373ffffffffffffffffffffffffffffffffffffffff1614610595576040517fa598aebe00000000000000000000000000000000000000000000000000000000815260040160405180910390fd5b60018060048111156105aa576105a96126d3565b5b60015f9054906101000a900460ff1660048111156105cb576105ca6126d3565b5b14610602576040517fbaf3f0f700000000000000000000000000000000000000000000000000000000815260040160405180910390fd5b61060a611ce4565b5f610613611d31565b90505f811115610689576106887f0000000000000000000000000000000000000000000000000000000000000000827f000000000000000000000000000000000000000000000000000000000000000073ffffffffffffffffffffffffffffffffffffffff16611e179092919063ffffffff16565b5b600360015f6101000a81548160ff021916908360048111156106ae576106ad6126d3565b5b02179055507f92c439fda90c70ccdedcb94d28a14f9fda69d67124efbbe9bf905740194228c860405160405180910390a1506106e8611e96565b50565b5f6106f4611d31565b905090565b7f000000000000000000000000000000000000000000000000000000000000000081565b7f000000000000000000000000000000000000000000000000000000000000000073ffffffffffffffffffffffffffffffffffffffff163373ffffffffffffffffffffffffffffffffffffffff16146107a2576040517fa598aebe00000000000000000000000000000000000000000000000000000000815260040160405180910390fd5b60018060048111156107b7576107b66126d3565b5b60015f9054906101000a900460ff1660048111156107d8576107d76126d3565b5b1461080f576040517fbaf3f0f700000000000000000000000000000000000000000000000000000000815260040160405180910390fd5b81600580549050811061084e576040517fba11734000000000000000000000000000000000000000000000000000000000815260040160405180910390fd5b610856611ce4565b5f6005848154811061086b5761086a6127b7565b5b905f5260205f2090600402019050806001015f9054906101000a900460ff16156108ca576040517f08c379a00000000000000000000000000000000000000000000000000000000081526004016108c19061282e565b60405180910390fd5b8060010160019054906101000a900460ff161561091c576040517f08c379a000000000000000000000000000000000000000000000000000000000815260040161091390612896565b60405180910390fd5b6001816001015f6101000a81548160ff021916908315150217905550805f015460035f82825461094c91906128e1565b925050819055505f6127106096835f01546109679190612914565b6109719190612982565b90505f81835f015461098391906129b2565b90505f821115610a67576109ec73c869d7a99fa831b4b3bee7e245f0c9348c2209a3837f000000000000000000000000000000000000000000000000000000000000000073ffffffffffffffffffffffffffffffffffffffff16611e179092919063ffffffff16565b8160045f8282546109fd91906128e1565b9250508190555073c869d7a99fa831b4b3bee7e245f0c9348c2209a373ffffffffffffffffffffffffffffffffffffffff167f421cbbbb1785f7266e99384e78e4f325fe3d7ae36b352351621e7f3b7cc43aa083604051610a5e91906121f6565b60405180910390a25b610ad27f0000000000000000000000000000000000000000000000000000000000000000827f000000000000000000000000000000000000000000000000000000000000000073ffffffffffffffffffffffffffffffffffffffff16611e179092919063ffffffff16565b857fd33fcd27cbfb73a2d9058c968b560ccb306500bf536133802048489ecc7355e98284604051610b049291906129e5565b60405180910390a2610b14611e9f565b505050610b1f611e96565b505050565b5f600480811115610b3857610b376126d3565b5b60015f9054906101000a900460ff166004811115610b5957610b586126d3565b5b14610b66575f9050610b7d565b62278d00600654610b7791906128e1565b42101590505b90565b60035481565b60605f6004811115610b9b57610b9a6126d3565b5b60015f9054906101000a900460ff166004811115610bbc57610bbb6126d3565b5b03610bfe576040518060400160405280601b81526020017f43726561746564202857616974696e6720666f722066756e64732900000000008152509050610e12565b60016004811115610c1257610c116126d3565b5b60015f9054906101000a900460ff166004811115610c3357610c326126d3565b5b03610c75576040518060400160405280600f81526020017f46756e64656420284163746976652900000000000000000000000000000000008152509050610e12565b60026004811115610c8957610c886126d3565b5b60015f9054906101000a900460ff166004811115610caa57610ca96126d3565b5b03610cec576040518060400160405280600981526020017f436f6d706c6574656400000000000000000000000000000000000000000000008152509050610e12565b60036004811115610d0057610cff6126d3565b5b60015f9054906101000a900460ff166004811115610d2157610d206126d3565b5b03610d63576040518060400160405280600981526020017f43616e63656c6c656400000000000000000000000000000000000000000000008152509050610e12565b600480811115610d7657610d756126d3565b5b60015f9054906101000a900460ff166004811115610d9757610d966126d3565b5b03610dd9576040518060400160405280600881526020017f44697370757465640000000000000000000000000000000000000000000000008152509050610e12565b6040518060400160405280600781526020017f556e6b6e6f776e0000000000000000000000000000000000000000000000000081525090505b90565b7f000000000000000000000000000000000000000000000000000000000000000073ffffffffffffffffffffffffffffffffffffffff163373ffffffffffffffffffffffffffffffffffffffff1614610e9a576040517fa598aebe00000000000000000000000000000000000000000000000000000000815260040160405180910390fd5b6004806004811115610eaf57610eae6126d3565b5b60015f9054906101000a900460ff166004811115610ed057610ecf6126d3565b5b14610f07576040517fbaf3f0f700000000000000000000000000000000000000000000000000000000815260040160405180910390fd5b610f0f611ce4565b5f610f18611d31565b90505f811115610f8e57610f8d7f0000000000000000000000000000000000000000000000000000000000000000827f000000000000000000000000000000000000000000000000000000000000000073ffffffffffffffffffffffffffffffffffffffff16611e179092919063ffffffff16565b5b600360015f6101000a81548160ff02191690836004811115610fb357610fb26126d3565b5b02179055507f8015c5005d9ad5d85ca80d3f894f08e0159277704c54166e5cff108800fa80cd5f604051610fe79190612303565b60405180910390a17f92c439fda90c70ccdedcb94d28a14f9fda69d67124efbbe9bf905740194228c860405160405180910390a150611024611e96565b50565b60045481565b60606005805480602002602001604051908101604052809291908181526020015f905b82821015611158578382905f5260205f2090600402016040518060a00160405290815f8201548152602001600182015f9054906101000a900460ff161515151581526020016001820160019054906101000a900460ff16151515158152602001600282015481526020016003820180546110c990612a39565b80601f01602080910402602001604051908101604052809291908181526020018280546110f590612a39565b80156111405780601f1061111757610100808354040283529160200191611140565b820191905f5260205f20905b81548152906001019060200180831161112357829003601f168201915b50505050508152505081526020019060010190611050565b50505050905090565b5f7f000000000000000000000000000000000000000000000000000000000000000073ffffffffffffffffffffffffffffffffffffffff166370a08231306040518263ffffffff1660e01b81526004016111bb91906121dd565b602060405180830381865afa1580156111d6573d5f5f3e3d5ffd5b505050506040513d601f19601f820116820180604052508101906111fa9190612a7d565b905090565b7f000000000000000000000000000000000000000000000000000000000000000073ffffffffffffffffffffffffffffffffffffffff163373ffffffffffffffffffffffffffffffffffffffff1614806112a457507f000000000000000000000000000000000000000000000000000000000000000073ffffffffffffffffffffffffffffffffffffffff163373ffffffffffffffffffffffffffffffffffffffff16145b6112e3576040517f08c379a00000000000000000000000000000000000000000000000000000000081526004016112da90612af2565b60405180910390fd5b60018060048111156112f8576112f76126d3565b5b60015f9054906101000a900460ff166004811115611319576113186126d3565b5b14611350576040517fbaf3f0f700000000000000000000000000000000000000000000000000000000815260040160405180910390fd5b600460015f6101000a81548160ff02191690836004811115611375576113746126d3565b5b0217905550426006819055503373ffffffffffffffffffffffffffffffffffffffff167f28b099eb575e23e32becd7c30dc8f9b2f98e370cdbf9841ea3338d9000402a25836040516113c7919061238c565b60405180910390a25050565b5f6127106096836113e49190612914565b6113ee9190612982565b9050919050565b609681565b7f000000000000000000000000000000000000000000000000000000000000000073ffffffffffffffffffffffffffffffffffffffff163373ffffffffffffffffffffffffffffffffffffffff161461147f576040517f8858596300000000000000000000000000000000000000000000000000000000815260040160405180910390fd5b6004806004811115611494576114936126d3565b5b60015f9054906101000a900460ff1660048111156114b5576114b46126d3565b5b146114ec576040517fbaf3f0f700000000000000000000000000000000000000000000000000000000815260040160405180910390fd5b6114f4611ce4565b62278d0060065461150591906128e1565b421015611547576040517f08c379a000000000000000000000000000000000000000000000000000000000815260040161153e90612b5a565b60405180910390fd5b5f611550611d31565b90505f8111156115de576115c57f0000000000000000000000000000000000000000000000000000000000000000827f000000000000000000000000000000000000000000000000000000000000000073ffffffffffffffffffffffffffffffffffffffff16611e179092919063ffffffff16565b8060035f8282546115d691906128e1565b925050819055505b600260015f6101000a81548160ff02191690836004811115611603576116026126d3565b5b02179055507f8015c5005d9ad5d85ca80d3f894f08e0159277704c54166e5cff108800fa80cd60016040516116389190612303565b60405180910390a17fe39866727217e43713c3728c5769515e8fb38e990b568b9831c1689dfdf67b6660405160405180910390a150611675611e96565b50565b7f000000000000000000000000000000000000000000000000000000000000000073ffffffffffffffffffffffffffffffffffffffff163373ffffffffffffffffffffffffffffffffffffffff16146116fd576040517fa598aebe00000000000000000000000000000000000000000000000000000000815260040160405180910390fd5b5f806004811115611711576117106126d3565b5b60015f9054906101000a900460ff166004811115611732576117316126d3565b5b14611769576040517fbaf3f0f700000000000000000000000000000000000000000000000000000000815260040160405180910390fd5b611771611ce4565b6117c033306002547f000000000000000000000000000000000000000000000000000000000000000073ffffffffffffffffffffffffffffffffffffffff16611f8e909392919063ffffffff16565b6001805f6101000a81548160ff021916908360048111156117e4576117e36126d3565b5b02179055507f2301e0a2ad8f6e28a7fbb09e96f5c14e588fac346ed5ce607e1a018bc768864660025460405161181a91906121f6565b60405180910390a161182a611e96565b50565b60065481565b60015f9054906101000a900460ff1681565b7f000000000000000000000000000000000000000000000000000000000000000081565b5f611873826113d3565b8261187e91906129b2565b9050919050565b60058181548110611894575f80fd5b905f5260205f2090600402015f91509050805f015490806001015f9054906101000a900460ff16908060010160019054906101000a900460ff16908060020154908060030180546118e490612a39565b80601f016020809104026020016040519081016040528092919081815260200182805461191090612a39565b801561195b5780601f106119325761010080835404028352916020019161195b565b820191905f5260205f20905b81548152906001019060200180831161193e57829003601f168201915b5050505050905085565b73c869d7a99fa831b4b3bee7e245f0c9348c2209a381565b7f000000000000000000000000000000000000000000000000000000000000000073ffffffffffffffffffffffffffffffffffffffff163373ffffffffffffffffffffffffffffffffffffffff1614611a02576040517fa598aebe00000000000000000000000000000000000000000000000000000000815260040160405180910390fd5b6001806004811115611a1757611a166126d3565b5b60015f9054906101000a900460ff166004811115611a3857611a376126d3565b5b14611a6f576040517fbaf3f0f700000000000000000000000000000000000000000000000000000000815260040160405180910390fd5b816005805490508110611aae576040517fba11734000000000000000000000000000000000000000000000000000000000815260040160405180910390fd5b611ab6611ce4565b5f60058481548110611acb57611aca6127b7565b5b905f5260205f2090600402019050806001015f9054906101000a900460ff1615611b2a576040517f08c379a0000000000000000000000000000000000000000000000000000000008152600401611b219061282e565b60405180910390fd5b8060010160019054906101000a900460ff1615611b7c576040517f08c379a0000000000000000000000000000000000000000000000000000000008152600401611b7390612bc2565b60405180910390fd5b5f816002015411611bc2576040517f08c379a0000000000000000000000000000000000000000000000000000000008152600401611bb990612c2a565b60405180910390fd5b80600201544211611c08576040517f08c379a0000000000000000000000000000000000000000000000000000000008152600401611bff90612c92565b60405180910390fd5b60018160010160016101000a81548160ff021916908315150217905550611c937f0000000000000000000000000000000000000000000000000000000000000000825f01547f000000000000000000000000000000000000000000000000000000000000000073ffffffffffffffffffffffffffffffffffffffff16611e179092919063ffffffff16565b837fdadefb9d4c98ce0b09100daf8b195e7882f849f58f6760ff36762958c0f7b8a8825f0154604051611cc691906121f6565b60405180910390a2611cd6612010565b50611cdf611e96565b505050565b60025f5403611d28576040517f08c379a0000000000000000000000000000000000000000000000000000000008152600401611d1f90612cfa565b60405180910390fd5b60025f81905550565b5f5f7f000000000000000000000000000000000000000000000000000000000000000073ffffffffffffffffffffffffffffffffffffffff166370a08231306040518263ffffffff1660e01b8152600401611d8c91906121dd565b602060405180830381865afa158015611da7573d5f5f3e3d5ffd5b505050506040513d601f19601f82011682018060405250810190611dcb9190612a7d565b90505f6004811115611de057611ddf6126d3565b5b60015f9054906101000a900460ff166004811115611e0157611e006126d3565b5b03611e0f575f915050611e14565b809150505b90565b611e91838473ffffffffffffffffffffffffffffffffffffffff1663a9059cbb8585604051602401611e4a9291906121b6565b604051602081830303815290604052915060e01b6020820180517bffffffffffffffffffffffffffffffffffffffffffffffffffffffff83818316178352505050506120c4565b505050565b60015f81905550565b5f5f90505b600580549050811015611f345760058181548110611ec557611ec46127b7565b5b905f5260205f2090600402016001015f9054906101000a900460ff16158015611f1c575060058181548110611efd57611efc6127b7565b5b905f5260205f20906004020160010160019054906101000a900460ff16155b15611f275750611f8c565b8080600101915050611ea4565b50600260015f6101000a81548160ff02191690836004811115611f5a57611f596126d3565b5b02179055507fe39866727217e43713c3728c5769515e8fb38e990b568b9831c1689dfdf67b6660405160405180910390a15b565b61200a848573ffffffffffffffffffffffffffffffffffffffff166323b872dd868686604051602401611fc393929190612d18565b604051602081830303815290604052915060e01b6020820180517bffffffffffffffffffffffffffffffffffffffffffffffffffffffff83818316178352505050506120c4565b50505050565b5f5f90505b60058054905081101561206a5760058181548110612036576120356127b7565b5b905f5260205f20906004020160010160019054906101000a900460ff1661205d57506120c2565b8080600101915050612015565b50600360015f6101000a81548160ff021916908360048111156120905761208f6126d3565b5b02179055507f92c439fda90c70ccdedcb94d28a14f9fda69d67124efbbe9bf905740194228c860405160405180910390a15b565b5f5f60205f8451602086015f885af1806120e3576040513d5f823e3d81fd5b3d92505f519150505f82146120fc576001811415612117565b5f8473ffffffffffffffffffffffffffffffffffffffff163b145b1561215957836040517f5274afe700000000000000000000000000000000000000000000000000000000815260040161215091906121dd565b60405180910390fd5b50505050565b5f73ffffffffffffffffffffffffffffffffffffffff82169050919050565b5f6121888261215f565b9050919050565b6121988161217e565b82525050565b5f819050919050565b6121b08161219e565b82525050565b5f6040820190506121c95f83018561218f565b6121d660208301846121a7565b9392505050565b5f6020820190506121f05f83018461218f565b92915050565b5f6020820190506122095f8301846121a7565b92915050565b5f819050919050565b5f61223261222d6122288461215f565b61220f565b61215f565b9050919050565b5f61224382612218565b9050919050565b5f61225482612239565b9050919050565b6122648161224a565b82525050565b5f60208201905061227d5f83018461225b565b92915050565b5f604051905090565b5f5ffd5b5f5ffd5b61229d8161219e565b81146122a7575f5ffd5b50565b5f813590506122b881612294565b92915050565b5f602082840312156122d3576122d261228c565b5b5f6122e0848285016122aa565b91505092915050565b5f8115159050919050565b6122fd816122e9565b82525050565b5f6020820190506123165f8301846122f4565b92915050565b5f81519050919050565b5f82825260208201905092915050565b8281835e5f83830152505050565b5f601f19601f8301169050919050565b5f61235e8261231c565b6123688185612326565b9350612378818560208601612336565b61238181612344565b840191505092915050565b5f6020820190508181035f8301526123a48184612354565b905092915050565b5f81519050919050565b5f82825260208201905092915050565b5f819050602082019050919050565b6123de8161219e565b82525050565b6123ed816122e9565b82525050565b5f82825260208201905092915050565b5f61240d8261231c565b61241781856123f3565b9350612427818560208601612336565b61243081612344565b840191505092915050565b5f60a083015f8301516124505f8601826123d5565b50602083015161246360208601826123e4565b50604083015161247660408601826123e4565b50606083015161248960608601826123d5565b50608083015184820360808601526124a18282612403565b9150508091505092915050565b5f6124b9838361243b565b905092915050565b5f602082019050919050565b5f6124d7826123ac565b6124e181856123b6565b9350836020820285016124f3856123c6565b805f5b8581101561252e578484038952815161250f85826124ae565b945061251a836124c1565b925060208a019950506001810190506124f6565b50829750879550505050505092915050565b5f6020820190508181035f83015261255881846124cd565b905092915050565b5f5ffd5b5f5ffd5b7f4e487b71000000000000000000000000000000000000000000000000000000005f52604160045260245ffd5b61259e82612344565b810181811067ffffffffffffffff821117156125bd576125bc612568565b5b80604052505050565b5f6125cf612283565b90506125db8282612595565b919050565b5f67ffffffffffffffff8211156125fa576125f9612568565b5b61260382612344565b9050602081019050919050565b828183375f83830152505050565b5f61263061262b846125e0565b6125c6565b90508281526020810184848401111561264c5761264b612564565b5b612657848285612610565b509392505050565b5f82601f83011261267357612672612560565b5b813561268384826020860161261e565b91505092915050565b5f602082840312156126a1576126a061228c565b5b5f82013567ffffffffffffffff8111156126be576126bd612290565b5b6126ca8482850161265f565b91505092915050565b7f4e487b71000000000000000000000000000000000000000000000000000000005f52602160045260245ffd5b60058110612711576127106126d3565b5b50565b5f81905061272182612700565b919050565b5f61273082612714565b9050919050565b61274081612726565b82525050565b5f6020820190506127595f830184612737565b92915050565b5f60a0820190506127725f8301886121a7565b61277f60208301876122f4565b61278c60408301866122f4565b61279960608301856121a7565b81810360808301526127ab8184612354565b90509695505050505050565b7f4e487b71000000000000000000000000000000000000000000000000000000005f52603260045260245ffd5b7f416c72656164792072656c6561736564000000000000000000000000000000005f82015250565b5f612818601083612326565b9150612823826127e4565b602082019050919050565b5f6020820190508181035f8301526128458161280c565b9050919050565b7f4d696c6573746f6e652063616e63656c6c6564000000000000000000000000005f82015250565b5f612880601383612326565b915061288b8261284c565b602082019050919050565b5f6020820190508181035f8301526128ad81612874565b9050919050565b7f4e487b71000000000000000000000000000000000000000000000000000000005f52601160045260245ffd5b5f6128eb8261219e565b91506128f68361219e565b925082820190508082111561290e5761290d6128b4565b5b92915050565b5f61291e8261219e565b91506129298361219e565b92508282026129378161219e565b9150828204841483151761294e5761294d6128b4565b5b5092915050565b7f4e487b71000000000000000000000000000000000000000000000000000000005f52601260045260245ffd5b5f61298c8261219e565b91506129978361219e565b9250826129a7576129a6612955565b5b828204905092915050565b5f6129bc8261219e565b91506129c78361219e565b92508282039050818111156129df576129de6128b4565b5b92915050565b5f6040820190506129f85f8301856121a7565b612a0560208301846121a7565b9392505050565b7f4e487b71000000000000000000000000000000000000000000000000000000005f52602260045260245ffd5b5f6002820490506001821680612a5057607f821691505b602082108103612a6357612a62612a0c565b5b50919050565b5f81519050612a7781612294565b92915050565b5f60208284031215612a9257612a9161228c565b5b5f612a9f84828501612a69565b91505092915050565b7f4e6f7420617574686f72697a65640000000000000000000000000000000000005f82015250565b5f612adc600e83612326565b9150612ae782612aa8565b602082019050919050565b5f6020820190508181035f830152612b0981612ad0565b9050919050565b7f33302064617973206e6f742070617373656400000000000000000000000000005f82015250565b5f612b44601283612326565b9150612b4f82612b10565b602082019050919050565b5f6020820190508181035f830152612b7181612b38565b9050919050565b7f416c72656164792063616e63656c6c65640000000000000000000000000000005f82015250565b5f612bac601183612326565b9150612bb782612b78565b602082019050919050565b5f6020820190508181035f830152612bd981612ba0565b9050919050565b7f4e6f20646561646c696e652073657400000000000000000000000000000000005f82015250565b5f612c14600f83612326565b9150612c1f82612be0565b602082019050919050565b5f6020820190508181035f830152612c4181612c08565b9050919050565b7f446561646c696e65206e6f7420706173736564000000000000000000000000005f82015250565b5f612c7c601383612326565b9150612c8782612c48565b602082019050919050565b5f6020820190508181035f830152612ca981612c70565b9050919050565b7f5265656e7472616e637947756172643a207265656e7472616e742063616c6c005f82015250565b5f612ce4601f83612326565b9150612cef82612cb0565b602082019050919050565b5f6020820190508181035f830152612d1181612cd8565b9050919050565b5f606082019050612d2b5f83018661218f565b612d38602083018561218f565b612d4560408301846121a7565b94935050505056fea2646970667358221220c63d0cf58b078182413b8ec4ddd912a7533859b32e9ef63fdaca6530a66c51d364736f6c634300081e0033",
			"opcodes": "PUSH1 0xE0 PUSH1 0x40 MSTORE CALLVALUE DUP1 ISZERO PUSH2 0xF JUMPI PUSH0 PUSH0 REVERT JUMPDEST POP PUSH1 0x40 MLOAD PUSH2 0x3E22 CODESIZE SUB DUP1 PUSH2 0x3E22 DUP4 CODECOPY DUP2 DUP2 ADD PUSH1 0x40 MSTORE DUP2 ADD SWAP1 PUSH2 0x31 SWAP2 SWAP1 PUSH2 0x886 JUMP JUMPDEST PUSH1 0x1 PUSH0 DUP2 SWAP1 SSTORE POP PUSH0 PUSH20 0xFFFFFFFFFFFFFFFFFFFFFFFFFFFFFFFFFFFFFFFF AND DUP7 PUSH20 0xFFFFFFFFFFFFFFFFFFFFFFFFFFFFFFFFFFFFFFFF AND SUB PUSH2 0xA6 JUMPI PUSH1 0x40 MLOAD PUSH32 0x8C379A000000000000000000000000000000000000000000000000000000000 DUP2 MSTORE PUSH1 0x4 ADD PUSH2 0x9D SWAP1 PUSH2 0x9BD JUMP JUMPDEST PUSH1 0x40 MLOAD DUP1 SWAP2 SUB SWAP1 REVERT JUMPDEST PUSH0 PUSH20 0xFFFFFFFFFFFFFFFFFFFFFFFFFFFFFFFFFFFFFFFF AND DUP6 PUSH20 0xFFFFFFFFFFFFFFFFFFFFFFFFFFFFFFFFFFFFFFFF AND SUB PUSH2 0x114 JUMPI PUSH1 0x40 MLOAD PUSH32 0x8C379A000000000000000000000000000000000000000000000000000000000 DUP2 MSTORE PUSH1 0x4 ADD PUSH2 0x10B SWAP1 PUSH2 0xA25 JUMP JUMPDEST PUSH1 0x40 MLOAD DUP1 SWAP2 SUB SWAP1 REVERT JUMPDEST PUSH0 PUSH20 0xFFFFFFFFFFFFFFFFFFFFFFFFFFFFFFFFFFFFFFFF AND DUP5 PUSH20 0xFFFFFFFFFFFFFFFFFFFFFFFFFFFFFFFFFFFFFFFF AND SUB PUSH2 0x182 JUMPI PUSH1 0x40 MLOAD PUSH32 0x8C379A000000000000000000000000000000000000000000000000000000000 DUP2 MSTORE PUSH1 0x4 ADD PUSH2 0x179 SWAP1 PUSH2 0xA8D JUMP JUMPDEST PUSH1 0x40 MLOAD DUP1 SWAP2 SUB SWAP1 REVERT JUMPDEST DUP5 PUSH20 0xFFFFFFFFFFFFFFFFFFFFFFFFFFFFFFFFFFFFFFFF AND DUP7 PUSH20 0xFFFFFFFFFFFFFFFFFFFFFFFFFFFFFFFFFFFFFFFF AND SUB PUSH2 0x1F0 JUMPI PUSH1 0x40 MLOAD PUSH32 0x8C379A000000000000000000000000000000000000000000000000000000000 DUP2 MSTORE PUSH1 0x4 ADD PUSH2 0x1E7 SWAP1 PUSH2 0xAF5 JUMP JUMPDEST PUSH1 0x40 MLOAD DUP1 SWAP2 SUB SWAP1 REVERT JUMPDEST PUSH0 DUP4 MLOAD GT PUSH2 0x233 JUMPI PUSH1 0x40 MLOAD PUSH32 0x8C379A000000000000000000000000000000000000000000000000000000000 DUP2 MSTORE PUSH1 0x4 ADD PUSH2 0x22A SWAP1 PUSH2 0xB5D JUMP JUMPDEST PUSH1 0x40 MLOAD DUP1 SWAP2 SUB SWAP1 REVERT JUMPDEST DUP2 MLOAD DUP4 MLOAD EQ DUP1 ISZERO PUSH2 0x245 JUMPI POP DUP1 MLOAD DUP4 MLOAD EQ JUMPDEST PUSH2 0x284 JUMPI PUSH1 0x40 MLOAD PUSH32 0x8C379A000000000000000000000000000000000000000000000000000000000 DUP2 MSTORE PUSH1 0x4 ADD PUSH2 0x27B SWAP1 PUSH2 0xBC5 JUMP JUMPDEST PUSH1 0x40 MLOAD DUP1 SWAP2 SUB SWAP1 REVERT JUMPDEST DUP6 PUSH20 0xFFFFFFFFFFFFFFFFFFFFFFFFFFFFFFFFFFFFFFFF AND PUSH1 0x80 DUP2 PUSH20 0xFFFFFFFFFFFFFFFFFFFFFFFFFFFFFFFFFFFFFFFF AND DUP2 MSTORE POP POP DUP5 PUSH20 0xFFFFFFFFFFFFFFFFFFFFFFFFFFFFFFFFFFFFFFFF AND PUSH1 0xA0 DUP2 PUSH20 0xFFFFFFFFFFFFFFFFFFFFFFFFFFFFFFFFFFFFFFFF AND DUP2 MSTORE POP POP DUP4 PUSH20 0xFFFFFFFFFFFFFFFFFFFFFFFFFFFFFFFFFFFFFFFF AND PUSH1 0xC0 DUP2 PUSH20 0xFFFFFFFFFFFFFFFFFFFFFFFFFFFFFFFFFFFFFFFF AND DUP2 MSTORE POP POP PUSH0 PUSH0 SWAP1 POP PUSH0 PUSH0 SWAP1 POP JUMPDEST DUP5 MLOAD DUP2 LT ISZERO PUSH2 0x4CD JUMPI PUSH0 DUP6 DUP3 DUP2 MLOAD DUP2 LT PUSH2 0x346 JUMPI PUSH2 0x345 PUSH2 0xBE3 JUMP JUMPDEST JUMPDEST PUSH1 0x20 MUL PUSH1 0x20 ADD ADD MLOAD GT PUSH2 0x38E JUMPI PUSH1 0x40 MLOAD PUSH32 0x8C379A000000000000000000000000000000000000000000000000000000000 DUP2 MSTORE PUSH1 0x4 ADD PUSH2 0x385 SWAP1 PUSH2 0xC5A JUMP JUMPDEST PUSH1 0x40 MLOAD DUP1 SWAP2 SUB SWAP1 REVERT JUMPDEST PUSH1 0x5 PUSH1 0x40 MLOAD DUP1 PUSH1 0xA0 ADD PUSH1 0x40 MSTORE DUP1 DUP8 DUP5 DUP2 MLOAD DUP2 LT PUSH2 0x3AE JUMPI PUSH2 0x3AD PUSH2 0xBE3 JUMP JUMPDEST JUMPDEST PUSH1 0x20 MUL PUSH1 0x20 ADD ADD MLOAD DUP2 MSTORE PUSH1 0x20 ADD PUSH0 ISZERO ISZERO DUP2 MSTORE PUSH1 0x20 ADD PUSH0 ISZERO ISZERO DUP2 MSTORE PUSH1 0x20 ADD DUP7 DUP5 DUP2 MLOAD DUP2 LT PUSH2 0x3DE JUMPI PUSH2 0x3DD PUSH2 0xBE3 JUMP JUMPDEST JUMPDEST PUSH1 0x20 MUL PUSH1 0x20 ADD ADD MLOAD DUP2 MSTORE PUSH1 0x20 ADD DUP6 DUP5 DUP2 MLOAD DUP2 LT PUSH2 0x3FE JUMPI PUSH2 0x3FD PUSH2 0xBE3 JUMP JUMPDEST JUMPDEST PUSH1 0x20 MUL PUSH1 0x20 ADD ADD MLOAD DUP2 MSTORE POP SWAP1 DUP1 PUSH1 0x1 DUP2 SLOAD ADD DUP1 DUP3 SSTORE DUP1 SWAP2 POP POP PUSH1 0x1 SWAP1 SUB SWAP1 PUSH0 MSTORE PUSH1 0x20 PUSH0 KECCAK256 SWAP1 PUSH1 0x4 MUL ADD PUSH0 SWAP1 SWAP2 SWAP1 SWAP2 SWAP1 SWAP2 POP PUSH0 DUP3 ADD MLOAD DUP2 PUSH0 ADD SSTORE PUSH1 0x20 DUP3 ADD MLOAD DUP2 PUSH1 0x1 ADD PUSH0 PUSH2 0x100 EXP DUP2 SLOAD DUP2 PUSH1 0xFF MUL NOT AND SWAP1 DUP4 ISZERO ISZERO MUL OR SWAP1 SSTORE POP PUSH1 0x40 DUP3 ADD MLOAD DUP2 PUSH1 0x1 ADD PUSH1 0x1 PUSH2 0x100 EXP DUP2 SLOAD DUP2 PUSH1 0xFF MUL NOT AND SWAP1 DUP4 ISZERO ISZERO MUL OR SWAP1 SSTORE POP PUSH1 0x60 DUP3 ADD MLOAD DUP2 PUSH1 0x2 ADD SSTORE PUSH1 0x80 DUP3 ADD MLOAD DUP2 PUSH1 0x3 ADD SWAP1 DUP2 PUSH2 0x495 SWAP2 SWAP1 PUSH2 0xE7F JUMP JUMPDEST POP POP POP DUP5 DUP2 DUP2 MLOAD DUP2 LT PUSH2 0x4AB JUMPI PUSH2 0x4AA PUSH2 0xBE3 JUMP JUMPDEST JUMPDEST PUSH1 0x20 MUL PUSH1 0x20 ADD ADD MLOAD DUP3 PUSH2 0x4BE SWAP2 SWAP1 PUSH2 0xF7B JUMP JUMPDEST SWAP2 POP DUP1 DUP1 PUSH1 0x1 ADD SWAP2 POP POP PUSH2 0x329 JUMP JUMPDEST POP DUP1 PUSH1 0x2 DUP2 SWAP1 SSTORE POP PUSH0 PUSH1 0x1 PUSH0 PUSH2 0x100 EXP DUP2 SLOAD DUP2 PUSH1 0xFF MUL NOT AND SWAP1 DUP4 PUSH1 0x4 DUP2 GT ISZERO PUSH2 0x4F9 JUMPI PUSH2 0x4F8 PUSH2 0xFAE JUMP JUMPDEST JUMPDEST MUL OR SWAP1 SSTORE POP POP POP POP POP POP POP POP PUSH2 0xFDB JUMP JUMPDEST PUSH0 PUSH1 0x40 MLOAD SWAP1 POP SWAP1 JUMP JUMPDEST PUSH0 PUSH0 REVERT JUMPDEST PUSH0 PUSH0 REVERT JUMPDEST PUSH0 PUSH20 0xFFFFFFFFFFFFFFFFFFFFFFFFFFFFFFFFFFFFFFFF DUP3 AND SWAP1 POP SWAP2 SWAP1 POP JUMP JUMPDEST PUSH0 PUSH2 0x544 DUP3 PUSH2 0x51B JUMP JUMPDEST SWAP1 POP SWAP2 SWAP1 POP JUMP JUMPDEST PUSH2 0x554 DUP2 PUSH2 0x53A JUMP JUMPDEST DUP2 EQ PUSH2 0x55E JUMPI PUSH0 PUSH0 REVERT JUMPDEST POP JUMP JUMPDEST PUSH0 DUP2 MLOAD SWAP1 POP PUSH2 0x56F DUP2 PUSH2 0x54B JUMP JUMPDEST SWAP3 SWAP2 POP POP JUMP JUMPDEST PUSH0 PUSH0 REVERT JUMPDEST PUSH0 PUSH1 0x1F NOT PUSH1 0x1F DUP4 ADD AND SWAP1 POP SWAP2 SWAP1 POP JUMP JUMPDEST PUSH32 0x4E487B7100000000000000000000000000000000000000000000000000000000 PUSH0 MSTORE PUSH1 0x41 PUSH1 0x4 MSTORE PUSH1 0x24 PUSH0 REVERT JUMPDEST PUSH2 0x5BF DUP3 PUSH2 0x579 JUMP JUMPDEST DUP2 ADD DUP2 DUP2 LT PUSH8 0xFFFFFFFFFFFFFFFF DUP3 GT OR ISZERO PUSH2 0x5DE JUMPI PUSH2 0x5DD PUSH2 0x589 JUMP JUMPDEST JUMPDEST DUP1 PUSH1 0x40 MSTORE POP POP POP JUMP JUMPDEST PUSH0 PUSH2 0x5F0 PUSH2 0x50A JUMP JUMPDEST SWAP1 POP PUSH2 0x5FC DUP3 DUP3 PUSH2 0x5B6 JUMP JUMPDEST SWAP2 SWAP1 POP JUMP JUMPDEST PUSH0 PUSH8 0xFFFFFFFFFFFFFFFF DUP3 GT ISZERO PUSH2 0x61B JUMPI PUSH2 0x61A PUSH2 0x589 JUMP JUMPDEST JUMPDEST PUSH1 0x20 DUP3 MUL SWAP1 POP PUSH1 0x20 DUP2 ADD SWAP1 POP SWAP2 SWAP1 POP JUMP JUMPDEST PUSH0 PUSH0 REVERT JUMPDEST PUSH0 DUP2 SWAP1 POP SWAP2 SWAP1 POP JUMP JUMPDEST PUSH2 0x642 DUP2 PUSH2 0x630 JUMP JUMPDEST DUP2 EQ PUSH2 0x64C JUMPI PUSH0 PUSH0 REVERT JUMPDEST POP JUMP JUMPDEST PUSH0 DUP2 MLOAD SWAP1 POP PUSH2 0x65D DUP2 PUSH2 0x639 JUMP JUMPDEST SWAP3 SWAP2 POP POP JUMP JUMPDEST PUSH0 PUSH2 0x675 PUSH2 0x670 DUP5 PUSH2 0x601 JUMP JUMPDEST PUSH2 0x5E7 JUMP JUMPDEST SWAP1 POP DUP1 DUP4 DUP3 MSTORE PUSH1 0x20 DUP3 ADD SWAP1 POP PUSH1 0x20 DUP5 MUL DUP4 ADD DUP6 DUP2 GT ISZERO PUSH2 0x698 JUMPI PUSH2 0x697 PUSH2 0x62C JUMP JUMPDEST JUMPDEST DUP4 JUMPDEST DUP2 DUP2 LT ISZERO PUSH2 0x6C1 JUMPI DUP1 PUSH2 0x6AD DUP9 DUP3 PUSH2 0x64F JUMP JUMPDEST DUP5 MSTORE PUSH1 0x20 DUP5 ADD SWAP4 POP POP PUSH1 0x20 DUP2 ADD SWAP1 POP PUSH2 0x69A JUMP JUMPDEST POP POP POP SWAP4 SWAP3 POP POP POP JUMP JUMPDEST PUSH0 DUP3 PUSH1 0x1F DUP4 ADD SLT PUSH2 0x6DF JUMPI PUSH2 0x6DE PUSH2 0x575 JUMP JUMPDEST JUMPDEST DUP2 MLOAD PUSH2 0x6EF DUP5 DUP3 PUSH1 0x20 DUP7 ADD PUSH2 0x663 JUMP JUMPDEST SWAP2 POP POP SWAP3 SWAP2 POP POP JUMP JUMPDEST PUSH0 PUSH8 0xFFFFFFFFFFFFFFFF DUP3 GT ISZERO PUSH2 0x712 JUMPI PUSH2 0x711 PUSH2 0x589 JUMP JUMPDEST JUMPDEST PUSH1 0x20 DUP3 MUL SWAP1 POP PUSH1 0x20 DUP2 ADD SWAP1 POP SWAP2 SWAP1 POP JUMP JUMPDEST PUSH0 PUSH0 REVERT JUMPDEST PUSH0 PUSH8 0xFFFFFFFFFFFFFFFF DUP3 GT ISZERO PUSH2 0x741 JUMPI PUSH2 0x740 PUSH2 0x589 JUMP JUMPDEST JUMPDEST PUSH2 0x74A DUP3 PUSH2 0x579 JUMP JUMPDEST SWAP1 POP PUSH1 0x20 DUP2 ADD SWAP1 POP SWAP2 SWAP1 POP JUMP JUMPDEST DUP3 DUP2 DUP4 MCOPY PUSH0 DUP4 DUP4 ADD MSTORE POP POP POP JUMP JUMPDEST PUSH0 PUSH2 0x777 PUSH2 0x772 DUP5 PUSH2 0x727 JUMP JUMPDEST PUSH2 0x5E7 JUMP JUMPDEST SWAP1 POP DUP3 DUP2 MSTORE PUSH1 0x20 DUP2 ADD DUP5 DUP5 DUP5 ADD GT ISZERO PUSH2 0x793 JUMPI PUSH2 0x792 PUSH2 0x723 JUMP JUMPDEST JUMPDEST PUSH2 0x79E DUP5 DUP3 DUP6 PUSH2 0x757 JUMP JUMPDEST POP SWAP4 SWAP3 POP POP POP JUMP JUMPDEST PUSH0 DUP3 PUSH1 0x1F DUP4 ADD SLT PUSH2 0x7BA JUMPI PUSH2 0x7B9 PUSH2 0x575 JUMP JUMPDEST JUMPDEST DUP2 MLOAD PUSH2 0x7CA DUP5 DUP3 PUSH1 0x20 DUP7 ADD PUSH2 0x765 JUMP JUMPDEST SWAP2 POP POP SWAP3 SWAP2 POP POP JUMP JUMPDEST PUSH0 PUSH2 0x7E5 PUSH2 0x7E0 DUP5 PUSH2 0x6F8 JUMP JUMPDEST PUSH2 0x5E7 JUMP JUMPDEST SWAP1 POP DUP1 DUP4 DUP3 MSTORE PUSH1 0x20 DUP3 ADD SWAP1 POP PUSH1 0x20 DUP5 MUL DUP4 ADD DUP6 DUP2 GT ISZERO PUSH2 0x808 JUMPI PUSH2 0x807 PUSH2 0x62C JUMP JUMPDEST JUMPDEST DUP4 JUMPDEST DUP2 DUP2 LT ISZERO PUSH2 0x84F JUMPI DUP1 MLOAD PUSH8 0xFFFFFFFFFFFFFFFF DUP2 GT ISZERO PUSH2 0x82D JUMPI PUSH2 0x82C PUSH2 0x575 JUMP JUMPDEST JUMPDEST DUP1 DUP7 ADD PUSH2 0x83A DUP10 DUP3 PUSH2 0x7A6 JUMP JUMPDEST DUP6 MSTORE PUSH1 0x20 DUP6 ADD SWAP5 POP POP POP PUSH1 0x20 DUP2 ADD SWAP1 POP PUSH2 0x80A JUMP JUMPDEST POP POP POP SWAP4 SWAP3 POP POP POP JUMP JUMPDEST PUSH0 DUP3 PUSH1 0x1F DUP4 ADD SLT PUSH2 0x86D JUMPI PUSH2 0x86C PUSH2 0x575 JUMP JUMPDEST JUMPDEST DUP2 MLOAD PUSH2 0x87D DUP5 DUP3 PUSH1 0x20 DUP7 ADD PUSH2 0x7D3 JUMP JUMPDEST SWAP2 POP POP SWAP3 SWAP2 POP POP JUMP JUMPDEST PUSH0 PUSH0 PUSH0 PUSH0 PUSH0 PUSH0 PUSH1 0xC0 DUP8 DUP10 SUB SLT ISZERO PUSH2 0x8A0 JUMPI PUSH2 0x89F PUSH2 0x513 JUMP JUMPDEST JUMPDEST PUSH0 PUSH2 0x8AD DUP10 DUP3 DUP11 ADD PUSH2 0x561 JUMP JUMPDEST SWAP7 POP POP PUSH1 0x20 PUSH2 0x8BE DUP10 DUP3 DUP11 ADD PUSH2 0x561 JUMP JUMPDEST SWAP6 POP POP PUSH1 0x40 PUSH2 0x8CF DUP10 DUP3 DUP11 ADD PUSH2 0x561 JUMP JUMPDEST SWAP5 POP POP PUSH1 0x60 DUP8 ADD MLOAD PUSH8 0xFFFFFFFFFFFFFFFF DUP2 GT ISZERO PUSH2 0x8F0 JUMPI PUSH2 0x8EF PUSH2 0x517 JUMP JUMPDEST JUMPDEST PUSH2 0x8FC DUP10 DUP3 DUP11 ADD PUSH2 0x6CB JUMP JUMPDEST SWAP4 POP POP PUSH1 0x80 DUP8 ADD MLOAD PUSH8 0xFFFFFFFFFFFFFFFF DUP2 GT ISZERO PUSH2 0x91D JUMPI PUSH2 0x91C PUSH2 0x517 JUMP JUMPDEST JUMPDEST PUSH2 0x929 DUP10 DUP3 DUP11 ADD PUSH2 0x6CB JUMP JUMPDEST SWAP3 POP POP PUSH1 0xA0 DUP8 ADD MLOAD PUSH8 0xFFFFFFFFFFFFFFFF DUP2 GT ISZERO PUSH2 0x94A JUMPI PUSH2 0x949 PUSH2 0x517 JUMP JUMPDEST JUMPDEST PUSH2 0x956 DUP10 DUP3 DUP11 ADD PUSH2 0x859 JUMP JUMPDEST SWAP2 POP POP SWAP3 SWAP6 POP SWAP3 SWAP6 POP SWAP3 SWAP6 JUMP JUMPDEST PUSH0 DUP3 DUP3 MSTORE PUSH1 0x20 DUP3 ADD SWAP1 POP SWAP3 SWAP2 POP POP JUMP JUMPDEST PUSH32 0x496E76616C69642066756E646572000000000000000000000000000000000000 PUSH0 DUP3 ADD MSTORE POP JUMP JUMPDEST PUSH0 PUSH2 0x9A7 PUSH1 0xE DUP4 PUSH2 0x963 JUMP JUMPDEST SWAP2 POP PUSH2 0x9B2 DUP3 PUSH2 0x973 JUMP JUMPDEST PUSH1 0x20 DUP3 ADD SWAP1 POP SWAP2 SWAP1 POP JUMP JUMPDEST PUSH0 PUSH1 0x20 DUP3 ADD SWAP1 POP DUP2 DUP2 SUB PUSH0 DUP4 ADD MSTORE PUSH2 0x9D4 DUP2 PUSH2 0x99B JUMP JUMPDEST SWAP1 POP SWAP2 SWAP1 POP JUMP JUMPDEST PUSH32 0x496E76616C696420646576656C6F706572000000000000000000000000000000 PUSH0 DUP3 ADD MSTORE POP JUMP JUMPDEST PUSH0 PUSH2 0xA0F PUSH1 0x11 DUP4 PUSH2 0x963 JUMP JUMPDEST SWAP2 POP PUSH2 0xA1A DUP3 PUSH2 0x9DB JUMP JUMPDEST PUSH1 0x20 DUP3 ADD SWAP1 POP SWAP2 SWAP1 POP JUMP JUMPDEST PUSH0 PUSH1 0x20 DUP3 ADD SWAP1 POP DUP2 DUP2 SUB PUSH0 DUP4 ADD MSTORE PUSH2 0xA3C DUP2 PUSH2 0xA03 JUMP JUMPDEST SWAP1 POP SWAP2 SWAP1 POP JUMP JUMPDEST PUSH32 0x496E76616C696420746F6B656E00000000000000000000000000000000000000 PUSH0 DUP3 ADD MSTORE POP JUMP JUMPDEST PUSH0 PUSH2 0xA77 PUSH1 0xD DUP4 PUSH2 0x963 JUMP JUMPDEST SWAP2 POP PUSH2 0xA82 DUP3 PUSH2 0xA43 JUMP JUMPDEST PUSH1 0x20 DUP3 ADD SWAP1 POP SWAP2 SWAP1 POP JUMP JUMPDEST PUSH0 PUSH1 0x20 DUP3 ADD SWAP1 POP DUP2 DUP2 SUB PUSH0 DUP4 ADD MSTORE PUSH2 0xAA4 DUP2 PUSH2 0xA6B JUMP JUMPDEST SWAP1 POP SWAP2 SWAP1 POP JUMP JUMPDEST PUSH32 0x46756E6465722063616E6E6F7420626520646576656C6F706572000000000000 PUSH0 DUP3 ADD MSTORE POP JUMP JUMPDEST PUSH0 PUSH2 0xADF PUSH1 0x1A DUP4 PUSH2 0x963 JUMP JUMPDEST SWAP2 POP PUSH2 0xAEA DUP3 PUSH2 0xAAB JUMP JUMPDEST PUSH1 0x20 DUP3 ADD SWAP1 POP SWAP2 SWAP1 POP JUMP JUMPDEST PUSH0 PUSH1 0x20 DUP3 ADD SWAP1 POP DUP2 DUP2 SUB PUSH0 DUP4 ADD MSTORE PUSH2 0xB0C DUP2 PUSH2 0xAD3 JUMP JUMPDEST SWAP1 POP SWAP2 SWAP1 POP JUMP JUMPDEST PUSH32 0x4E6F206D696C6573746F6E657300000000000000000000000000000000000000 PUSH0 DUP3 ADD MSTORE POP JUMP JUMPDEST PUSH0 PUSH2 0xB47 PUSH1 0xD DUP4 PUSH2 0x963 JUMP JUMPDEST SWAP2 POP PUSH2 0xB52 DUP3 PUSH2 0xB13 JUMP JUMPDEST PUSH1 0x20 DUP3 ADD SWAP1 POP SWAP2 SWAP1 POP JUMP JUMPDEST PUSH0 PUSH1 0x20 DUP3 ADD SWAP1 POP DUP2 DUP2 SUB PUSH0 DUP4 ADD MSTORE PUSH2 0xB74 DUP2 PUSH2 0xB3B JUMP JUMPDEST SWAP1 POP SWAP2 SWAP1 POP JUMP JUMPDEST PUSH32 0x496E76616C6964206D696C6573746F6E65206172726179730000000000000000 PUSH0 DUP3 ADD MSTORE POP JUMP JUMPDEST PUSH0 PUSH2 0xBAF PUSH1 0x18 DUP4 PUSH2 0x963 JUMP JUMPDEST SWAP2 POP PUSH2 0xBBA DUP3 PUSH2 0xB7B JUMP JUMPDEST PUSH1 0x20 DUP3 ADD SWAP1 POP SWAP2 SWAP1 POP JUMP JUMPDEST PUSH0 PUSH1 0x20 DUP3 ADD SWAP1 POP DUP2 DUP2 SUB PUSH0 DUP4 ADD MSTORE PUSH2 0xBDC DUP2 PUSH2 0xBA3 JUMP JUMPDEST SWAP1 POP SWAP2 SWAP1 POP JUMP JUMPDEST PUSH32 0x4E487B7100000000000000000000000000000000000000000000000000000000 PUSH0 MSTORE PUSH1 0x32 PUSH1 0x4 MSTORE PUSH1 0x24 PUSH0 REVERT JUMPDEST PUSH32 0x5A65726F206D696C6573746F6E6520616D6F756E740000000000000000000000 PUSH0 DUP3 ADD MSTORE POP JUMP JUMPDEST PUSH0 PUSH2 0xC44 PUSH1 0x15 DUP4 PUSH2 0x963 JUMP JUMPDEST SWAP2 POP PUSH2 0xC4F DUP3 PUSH2 0xC10 JUMP JUMPDEST PUSH1 0x20 DUP3 ADD SWAP1 POP SWAP2 SWAP1 POP JUMP JUMPDEST PUSH0 PUSH1 0x20 DUP3 ADD SWAP1 POP DUP2 DUP2 SUB PUSH0 DUP4 ADD MSTORE PUSH2 0xC71 DUP2 PUSH2 0xC38 JUMP JUMPDEST SWAP1 POP SWAP2 SWAP1 POP JUMP JUMPDEST PUSH0 DUP2 MLOAD SWAP1 POP SWAP2 SWAP1 POP JUMP JUMPDEST PUSH32 0x4E487B7100000000000000000000000000000000000000000000000000000000 PUSH0 MSTORE PUSH1 0x22 PUSH1 0x4 MSTORE PUSH1 0x24 PUSH0 REVERT JUMPDEST PUSH0 PUSH1 0x2 DUP3 DIV SWAP1 POP PUSH1 0x1 DUP3 AND DUP1 PUSH2 0xCC6 JUMPI PUSH1 0x7F DUP3 AND SWAP2 POP JUMPDEST PUSH1 0x20 DUP3 LT DUP2 SUB PUSH2 0xCD9 JUMPI PUSH2 0xCD8 PUSH2 0xC82 JUMP JUMPDEST JUMPDEST POP SWAP2 SWAP1 POP JUMP JUMPDEST PUSH0 DUP2 SWAP1 POP DUP2 PUSH0 MSTORE PUSH1 0x20 PUSH0 KECCAK256 SWAP1 POP SWAP2 SWAP1 POP JUMP JUMPDEST PUSH0 PUSH1 0x20 PUSH1 0x1F DUP4 ADD DIV SWAP1 POP SWAP2 SWAP1 POP JUMP JUMPDEST PUSH0 DUP3 DUP3 SHL SWAP1 POP SWAP3 SWAP2 POP POP JUMP JUMPDEST PUSH0 PUSH1 0x8 DUP4 MUL PUSH2 0xD3B PUSH32 0xFFFFFFFFFFFFFFFFFFFFFFFFFFFFFFFFFFFFFFFFFFFFFFFFFFFFFFFFFFFFFFFF DUP3 PUSH2 0xD00 JUMP JUMPDEST PUSH2 0xD45 DUP7 DUP4 PUSH2 0xD00 JUMP JUMPDEST SWAP6 POP DUP1 NOT DUP5 AND SWAP4 POP DUP1 DUP7 AND DUP5 OR SWAP3 POP POP POP SWAP4 SWAP3 POP POP POP JUMP JUMPDEST PUSH0 DUP2 SWAP1 POP SWAP2 SWAP1 POP JUMP JUMPDEST PUSH0 PUSH2 0xD80 PUSH2 0xD7B PUSH2 0xD76 DUP5 PUSH2 0x630 JUMP JUMPDEST PUSH2 0xD5D JUMP JUMPDEST PUSH2 0x630 JUMP JUMPDEST SWAP1 POP SWAP2 SWAP1 POP JUMP JUMPDEST PUSH0 DUP2 SWAP1 POP SWAP2 SWAP1 POP JUMP JUMPDEST PUSH2 0xD99 DUP4 PUSH2 0xD66 JUMP JUMPDEST PUSH2 0xDAD PUSH2 0xDA5 DUP3 PUSH2 0xD87 JUMP JUMPDEST DUP5 DUP5 SLOAD PUSH2 0xD0C JUMP JUMPDEST DUP3 SSTORE POP POP POP POP JUMP JUMPDEST PUSH0 PUSH0 SWAP1 POP SWAP1 JUMP JUMPDEST PUSH2 0xDC4 PUSH2 0xDB5 JUMP JUMPDEST PUSH2 0xDCF DUP2 DUP5 DUP5 PUSH2 0xD90 JUMP JUMPDEST POP POP POP JUMP JUMPDEST JUMPDEST DUP2 DUP2 LT ISZERO PUSH2 0xDF2 JUMPI PUSH2 0xDE7 PUSH0 DUP3 PUSH2 0xDBC JUMP JUMPDEST PUSH1 0x1 DUP2 ADD SWAP1 POP PUSH2 0xDD5 JUMP JUMPDEST POP POP JUMP JUMPDEST PUSH1 0x1F DUP3 GT ISZERO PUSH2 0xE37 JUMPI PUSH2 0xE08 DUP2 PUSH2 0xCDF JUMP JUMPDEST PUSH2 0xE11 DUP5 PUSH2 0xCF1 JUMP JUMPDEST DUP2 ADD PUSH1 0x20 DUP6 LT ISZERO PUSH2 0xE20 JUMPI DUP2 SWAP1 POP JUMPDEST PUSH2 0xE34 PUSH2 0xE2C DUP6 PUSH2 0xCF1 JUMP JUMPDEST DUP4 ADD DUP3 PUSH2 0xDD4 JUMP JUMPDEST POP POP JUMPDEST POP POP POP JUMP JUMPDEST PUSH0 DUP3 DUP3 SHR SWAP1 POP SWAP3 SWAP2 POP POP JUMP JUMPDEST PUSH0 PUSH2 0xE57 PUSH0 NOT DUP5 PUSH1 0x8 MUL PUSH2 0xE3C JUMP JUMPDEST NOT DUP1 DUP4 AND SWAP2 POP POP SWAP3 SWAP2 POP POP JUMP JUMPDEST PUSH0 PUSH2 0xE6F DUP4 DUP4 PUSH2 0xE48 JUMP JUMPDEST SWAP2 POP DUP3 PUSH1 0x2 MUL DUP3 OR SWAP1 POP SWAP3 SWAP2 POP POP JUMP JUMPDEST PUSH2 0xE88 DUP3 PUSH2 0xC78 JUMP JUMPDEST PUSH8 0xFFFFFFFFFFFFFFFF DUP2 GT ISZERO PUSH2 0xEA1 JUMPI PUSH2 0xEA0 PUSH2 0x589 JUMP JUMPDEST JUMPDEST PUSH2 0xEAB DUP3 SLOAD PUSH2 0xCAF JUMP JUMPDEST PUSH2 0xEB6 DUP3 DUP3 DUP6 PUSH2 0xDF6 JUMP JUMPDEST PUSH0 PUSH1 0x20 SWAP1 POP PUSH1 0x1F DUP4 GT PUSH1 0x1 DUP2 EQ PUSH2 0xEE7 JUMPI PUSH0 DUP5 ISZERO PUSH2 0xED5 JUMPI DUP3 DUP8 ADD MLOAD SWAP1 POP JUMPDEST PUSH2 0xEDF DUP6 DUP3 PUSH2 0xE64 JUMP JUMPDEST DUP7 SSTORE POP PUSH2 0xF46 JUMP JUMPDEST PUSH1 0x1F NOT DUP5 AND PUSH2 0xEF5 DUP7 PUSH2 0xCDF JUMP JUMPDEST PUSH0 JUMPDEST DUP3 DUP2 LT ISZERO PUSH2 0xF1C JUMPI DUP5 DUP10 ADD MLOAD DUP3 SSTORE PUSH1 0x1 DUP3 ADD SWAP2 POP PUSH1 0x20 DUP6 ADD SWAP5 POP PUSH1 0x20 DUP2 ADD SWAP1 POP PUSH2 0xEF7 JUMP JUMPDEST DUP7 DUP4 LT ISZERO PUSH2 0xF39 JUMPI DUP5 DUP10 ADD MLOAD PUSH2 0xF35 PUSH1 0x1F DUP10 AND DUP3 PUSH2 0xE48 JUMP JUMPDEST DUP4 SSTORE POP JUMPDEST PUSH1 0x1 PUSH1 0x2 DUP9 MUL ADD DUP9 SSTORE POP POP POP JUMPDEST POP POP POP POP POP POP JUMP JUMPDEST PUSH32 0x4E487B7100000000000000000000000000000000000000000000000000000000 PUSH0 MSTORE PUSH1 0x11 PUSH1 0x4 MSTORE PUSH1 0x24 PUSH0 REVERT JUMPDEST PUSH0 PUSH2 0xF85 DUP3 PUSH2 0x630 JUMP JUMPDEST SWAP2 POP PUSH2 0xF90 DUP4 PUSH2 0x630 JUMP JUMPDEST SWAP3 POP DUP3 DUP3 ADD SWAP1 POP DUP1 DUP3 GT ISZERO PUSH2 0xFA8 JUMPI PUSH2 0xFA7 PUSH2 0xF4E JUMP JUMPDEST JUMPDEST SWAP3 SWAP2 POP POP JUMP JUMPDEST PUSH32 0x4E487B7100000000000000000000000000000000000000000000000000000000 PUSH0 MSTORE PUSH1 0x21 PUSH1 0x4 MSTORE PUSH1 0x24 PUSH0 REVERT JUMPDEST PUSH1 0x80 MLOAD PUSH1 0xA0 MLOAD PUSH1 0xC0 MLOAD PUSH2 0x2D83 PUSH2 0x109F PUSH0 CODECOPY PUSH0 DUP2 DUP2 PUSH2 0x644 ADD MSTORE DUP2 DUP2 PUSH2 0x6FB ADD MSTORE DUP2 DUP2 PUSH2 0x9A8 ADD MSTORE DUP2 DUP2 PUSH2 0xA8E ADD MSTORE DUP2 DUP2 PUSH2 0xF49 ADD MSTORE DUP2 DUP2 PUSH2 0x1164 ADD MSTORE DUP2 DUP2 PUSH2 0x1581 ADD MSTORE DUP2 DUP2 PUSH2 0x177B ADD MSTORE DUP2 DUP2 PUSH2 0x1C4F ADD MSTORE PUSH2 0x1D35 ADD MSTORE PUSH0 DUP2 DUP2 PUSH2 0xA6C ADD MSTORE DUP2 DUP2 PUSH2 0x1256 ADD MSTORE DUP2 DUP2 PUSH2 0x13FC ADD MSTORE DUP2 DUP2 PUSH2 0x155F ADD MSTORE PUSH2 0x1847 ADD MSTORE PUSH0 DUP2 DUP2 PUSH2 0x4DC ADD MSTORE DUP2 DUP2 PUSH2 0x512 ADD MSTORE DUP2 DUP2 PUSH2 0x622 ADD MSTORE DUP2 DUP2 PUSH2 0x71F ADD MSTORE DUP2 DUP2 PUSH2 0xE17 ADD MSTORE DUP2 DUP2 PUSH2 0xF27 ADD MSTORE DUP2 DUP2 PUSH2 0x1201 ADD MSTORE DUP2 DUP2 PUSH2 0x167A ADD MSTORE DUP2 DUP2 PUSH2 0x197F ADD MSTORE PUSH2 0x1C2A ADD MSTORE PUSH2 0x2D83 PUSH0 RETURN INVALID PUSH1 0x80 PUSH1 0x40 MSTORE CALLVALUE DUP1 ISZERO PUSH2 0xF JUMPI PUSH0 PUSH0 REVERT JUMPDEST POP PUSH1 0x4 CALLDATASIZE LT PUSH2 0x1A6 JUMPI PUSH0 CALLDATALOAD PUSH1 0xE0 SHR DUP1 PUSH4 0x629E4ED0 GT PUSH2 0xF7 JUMPI DUP1 PUSH4 0xB95D8DD4 GT PUSH2 0x95 JUMPI DUP1 PUSH4 0xDCA78388 GT PUSH2 0x6F JUMPI DUP1 PUSH4 0xDCA78388 EQ PUSH2 0x41B JUMPI DUP1 PUSH4 0xE89E4ED6 EQ PUSH2 0x44B JUMPI DUP1 PUSH4 0xEBD09054 EQ PUSH2 0x47F JUMPI DUP1 PUSH4 0xF75FDCAA EQ PUSH2 0x49D JUMPI PUSH2 0x1A6 JUMP JUMPDEST DUP1 PUSH4 0xB95D8DD4 EQ PUSH2 0x3C1 JUMPI DUP1 PUSH4 0xC19D93FB EQ PUSH2 0x3DF JUMPI DUP1 PUSH4 0xCA4B208B EQ PUSH2 0x3FD JUMPI PUSH2 0x1A6 JUMP JUMPDEST DUP1 PUSH4 0x99A5D747 GT PUSH2 0xD1 JUMPI DUP1 PUSH4 0x99A5D747 EQ PUSH2 0x35F JUMPI DUP1 PUSH4 0xA525AD3C EQ PUSH2 0x38F JUMPI DUP1 PUSH4 0xB4F5A711 EQ PUSH2 0x3AD JUMPI DUP1 PUSH4 0xB60D4288 EQ PUSH2 0x3B7 JUMPI PUSH2 0x1A6 JUMP JUMPDEST DUP1 PUSH4 0x629E4ED0 EQ PUSH2 0x307 JUMPI DUP1 PUSH4 0x6F9FB98A EQ PUSH2 0x325 JUMPI DUP1 PUSH4 0x725A3B4B EQ PUSH2 0x343 JUMPI PUSH2 0x1A6 JUMP JUMPDEST DUP1 PUSH4 0x3013CE29 GT PUSH2 0x164 JUMPI DUP1 PUSH4 0x45D30A17 GT PUSH2 0x13E JUMPI DUP1 PUSH4 0x45D30A17 EQ PUSH2 0x2A3 JUMPI DUP1 PUSH4 0x4E69D560 EQ PUSH2 0x2C1 JUMPI DUP1 PUSH4 0x5AC482D1 EQ PUSH2 0x2DF JUMPI DUP1 PUSH4 0x60C6D8AE EQ PUSH2 0x2E9 JUMPI PUSH2 0x1A6 JUMP JUMPDEST DUP1 PUSH4 0x3013CE29 EQ PUSH2 0x24B JUMPI DUP1 PUSH4 0x317DEBF5 EQ PUSH2 0x269 JUMPI DUP1 PUSH4 0x3DDB47B4 EQ PUSH2 0x285 JUMPI PUSH2 0x1A6 JUMP JUMPDEST DUP1 PUSH3 0x2EAB7 EQ PUSH2 0x1AA JUMPI DUP1 PUSH4 0x41AE880 EQ PUSH2 0x1C9 JUMPI DUP1 PUSH4 0x681CA55 EQ PUSH2 0x1E7 JUMPI DUP1 PUSH4 0x1A39D8EF EQ PUSH2 0x205 JUMPI DUP1 PUSH4 0x1ADFF0EE EQ PUSH2 0x223 JUMPI DUP1 PUSH4 0x2FBA2C85 EQ PUSH2 0x22D JUMPI JUMPDEST PUSH0 PUSH0 REVERT JUMPDEST PUSH2 0x1B2 PUSH2 0x4B9 JUMP JUMPDEST PUSH1 0x40 MLOAD PUSH2 0x1C0 SWAP3 SWAP2 SWAP1 PUSH2 0x21B6 JUMP JUMPDEST PUSH1 0x40 MLOAD DUP1 SWAP2 SUB SWAP1 RETURN JUMPDEST PUSH2 0x1D1 PUSH2 0x4DA JUMP JUMPDEST PUSH1 0x40 MLOAD PUSH2 0x1DE SWAP2 SWAP1 PUSH2 0x21DD JUMP JUMPDEST PUSH1 0x40 MLOAD DUP1 SWAP2 SUB SWAP1 RETURN JUMPDEST PUSH2 0x1EF PUSH2 0x4FE JUMP JUMPDEST PUSH1 0x40 MLOAD PUSH2 0x1FC SWAP2 SWAP1 PUSH2 0x21F6 JUMP JUMPDEST PUSH1 0x40 MLOAD DUP1 SWAP2 SUB SWAP1 RETURN JUMPDEST PUSH2 0x20D PUSH2 0x50A JUMP JUMPDEST PUSH1 0x40 MLOAD PUSH2 0x21A SWAP2 SWAP1 PUSH2 0x21F6 JUMP JUMPDEST PUSH1 0x40 MLOAD DUP1 SWAP2 SUB SWAP1 RETURN JUMPDEST PUSH2 0x22B PUSH2 0x510 JUMP JUMPDEST STOP JUMPDEST PUSH2 0x235 PUSH2 0x6EB JUMP JUMPDEST PUSH1 0x40 MLOAD PUSH2 0x242 SWAP2 SWAP1 PUSH2 0x21F6 JUMP JUMPDEST PUSH1 0x40 MLOAD DUP1 SWAP2 SUB SWAP1 RETURN JUMPDEST PUSH2 0x253 PUSH2 0x6F9 JUMP JUMPDEST PUSH1 0x40 MLOAD PUSH2 0x260 SWAP2 SWAP1 PUSH2 0x226A JUMP JUMPDEST PUSH1 0x40 MLOAD DUP1 SWAP2 SUB SWAP1 RETURN JUMPDEST PUSH2 0x283 PUSH1 0x4 DUP1 CALLDATASIZE SUB DUP2 ADD SWAP1 PUSH2 0x27E SWAP2 SWAP1 PUSH2 0x22BE JUMP JUMPDEST PUSH2 0x71D JUMP JUMPDEST STOP JUMPDEST PUSH2 0x28D PUSH2 0xB24 JUMP JUMPDEST PUSH1 0x40 MLOAD PUSH2 0x29A SWAP2 SWAP1 PUSH2 0x2303 JUMP JUMPDEST PUSH1 0x40 MLOAD DUP1 SWAP2 SUB SWAP1 RETURN JUMPDEST PUSH2 0x2AB PUSH2 0xB80 JUMP JUMPDEST PUSH1 0x40 MLOAD PUSH2 0x2B8 SWAP2 SWAP1 PUSH2 0x21F6 JUMP JUMPDEST PUSH1 0x40 MLOAD DUP1 SWAP2 SUB SWAP1 RETURN JUMPDEST PUSH2 0x2C9 PUSH2 0xB86 JUMP JUMPDEST PUSH1 0x40 MLOAD PUSH2 0x2D6 SWAP2 SWAP1 PUSH2 0x238C JUMP JUMPDEST PUSH1 0x40 MLOAD DUP1 SWAP2 SUB SWAP1 RETURN JUMPDEST PUSH2 0x2E7 PUSH2 0xE15 JUMP JUMPDEST STOP JUMPDEST PUSH2 0x2F1 PUSH2 0x1027 JUMP JUMPDEST PUSH1 0x40 MLOAD PUSH2 0x2FE SWAP2 SWAP1 PUSH2 0x21F6 JUMP JUMPDEST PUSH1 0x40 MLOAD DUP1 SWAP2 SUB SWAP1 RETURN JUMPDEST PUSH2 0x30F PUSH2 0x102D JUMP JUMPDEST PUSH1 0x40 MLOAD PUSH2 0x31C SWAP2 SWAP1 PUSH2 0x2540 JUMP JUMPDEST PUSH1 0x40 MLOAD DUP1 SWAP2 SUB SWAP1 RETURN JUMPDEST PUSH2 0x32D PUSH2 0x1161 JUMP JUMPDEST PUSH1 0x40 MLOAD PUSH2 0x33A SWAP2 SWAP1 PUSH2 0x21F6 JUMP JUMPDEST PUSH1 0x40 MLOAD DUP1 SWAP2 SUB SWAP1 RETURN JUMPDEST PUSH2 0x35D PUSH1 0x4 DUP1 CALLDATASIZE SUB DUP2 ADD SWAP1 PUSH2 0x358 SWAP2 SWAP1 PUSH2 0x268C JUMP JUMPDEST PUSH2 0x11FF JUMP JUMPDEST STOP JUMPDEST PUSH2 0x379 PUSH1 0x4 DUP1 CALLDATASIZE SUB DUP2 ADD SWAP1 PUSH2 0x374 SWAP2 SWAP1 PUSH2 0x22BE JUMP JUMPDEST PUSH2 0x13D3 JUMP JUMPDEST PUSH1 0x40 MLOAD PUSH2 0x386 SWAP2 SWAP1 PUSH2 0x21F6 JUMP JUMPDEST PUSH1 0x40 MLOAD DUP1 SWAP2 SUB SWAP1 RETURN JUMPDEST PUSH2 0x397 PUSH2 0x13F5 JUMP JUMPDEST PUSH1 0x40 MLOAD PUSH2 0x3A4 SWAP2 SWAP1 PUSH2 0x21F6 JUMP JUMPDEST PUSH1 0x40 MLOAD DUP1 SWAP2 SUB SWAP1 RETURN JUMPDEST PUSH2 0x3B5 PUSH2 0x13FA JUMP JUMPDEST STOP JUMPDEST PUSH2 0x3BF PUSH2 0x1678 JUMP JUMPDEST STOP JUMPDEST PUSH2 0x3C9 PUSH2 0x182D JUMP JUMPDEST PUSH1 0x40 MLOAD PUSH2 0x3D6 SWAP2 SWAP1 PUSH2 0x21F6 JUMP JUMPDEST PUSH1 0x40 MLOAD DUP1 SWAP2 SUB SWAP1 RETURN JUMPDEST PUSH2 0x3E7 PUSH2 0x1833 JUMP JUMPDEST PUSH1 0x40 MLOAD PUSH2 0x3F4 SWAP2 SWAP1 PUSH2 0x2746 JUMP JUMPDEST PUSH1 0x40 MLOAD DUP1 SWAP2 SUB SWAP1 RETURN JUMPDEST PUSH2 0x405 PUSH2 0x1845 JUMP JUMPDEST PUSH1 0x40 MLOAD PUSH2 0x412 SWAP2 SWAP1 PUSH2 0x21DD JUMP JUMPDEST PUSH1 0x40 MLOAD DUP1 SWAP2 SUB SWAP1 RETURN JUMPDEST PUSH2 0x435 PUSH1 0x4 DUP1 CALLDATASIZE SUB DUP2 ADD SWAP1 PUSH2 0x430 SWAP2 SWAP1 PUSH2 0x22BE JUMP JUMPDEST PUSH2 0x1869 JUMP JUMPDEST PUSH1 0x40 MLOAD PUSH2 0x442 SWAP2 SWAP1 PUSH2 0x21F6 JUMP JUMPDEST PUSH1 0x40 MLOAD DUP1 SWAP2 SUB SWAP1 RETURN JUMPDEST PUSH2 0x465 PUSH1 0x4 DUP1 CALLDATASIZE SUB DUP2 ADD SWAP1 PUSH2 0x460 SWAP2 SWAP1 PUSH2 0x22BE JUMP JUMPDEST PUSH2 0x1885 JUMP JUMPDEST PUSH1 0x40 MLOAD PUSH2 0x476 SWAP6 SWAP5 SWAP4 SWAP3 SWAP2 SWAP1 PUSH2 0x275F JUMP JUMPDEST PUSH1 0x40 MLOAD DUP1 SWAP2 SUB SWAP1 RETURN JUMPDEST PUSH2 0x487 PUSH2 0x1965 JUMP JUMPDEST PUSH1 0x40 MLOAD PUSH2 0x494 SWAP2 SWAP1 PUSH2 0x21DD JUMP JUMPDEST PUSH1 0x40 MLOAD DUP1 SWAP2 SUB SWAP1 RETURN JUMPDEST PUSH2 0x4B7 PUSH1 0x4 DUP1 CALLDATASIZE SUB DUP2 ADD SWAP1 PUSH2 0x4B2 SWAP2 SWAP1 PUSH2 0x22BE JUMP JUMPDEST PUSH2 0x197D JUMP JUMPDEST STOP JUMPDEST PUSH0 PUSH0 PUSH20 0xC869D7A99FA831B4B3BEE7E245F0C9348C2209A3 PUSH1 0x96 SWAP2 POP SWAP2 POP SWAP1 SWAP2 JUMP JUMPDEST PUSH32 0x0 DUP2 JUMP JUMPDEST PUSH0 PUSH1 0x5 DUP1 SLOAD SWAP1 POP SWAP1 POP SWAP1 JUMP JUMPDEST PUSH1 0x2 SLOAD DUP2 JUMP JUMPDEST PUSH32 0x0 PUSH20 0xFFFFFFFFFFFFFFFFFFFFFFFFFFFFFFFFFFFFFFFF AND CALLER PUSH20 0xFFFFFFFFFFFFFFFFFFFFFFFFFFFFFFFFFFFFFFFF AND EQ PUSH2 0x595 JUMPI PUSH1 0x40 MLOAD PUSH32 0xA598AEBE00000000000000000000000000000000000000000000000000000000 DUP2 MSTORE PUSH1 0x4 ADD PUSH1 0x40 MLOAD DUP1 SWAP2 SUB SWAP1 REVERT JUMPDEST PUSH1 0x1 DUP1 PUSH1 0x4 DUP2 GT ISZERO PUSH2 0x5AA JUMPI PUSH2 0x5A9 PUSH2 0x26D3 JUMP JUMPDEST JUMPDEST PUSH1 0x1 PUSH0 SWAP1 SLOAD SWAP1 PUSH2 0x100 EXP SWAP1 DIV PUSH1 0xFF AND PUSH1 0x4 DUP2 GT ISZERO PUSH2 0x5CB JUMPI PUSH2 0x5CA PUSH2 0x26D3 JUMP JUMPDEST JUMPDEST EQ PUSH2 0x602 JUMPI PUSH1 0x40 MLOAD PUSH32 0xBAF3F0F700000000000000000000000000000000000000000000000000000000 DUP2 MSTORE PUSH1 0x4 ADD PUSH1 0x40 MLOAD DUP1 SWAP2 SUB SWAP1 REVERT JUMPDEST PUSH2 0x60A PUSH2 0x1CE4 JUMP JUMPDEST PUSH0 PUSH2 0x613 PUSH2 0x1D31 JUMP JUMPDEST SWAP1 POP PUSH0 DUP2 GT ISZERO PUSH2 0x689 JUMPI PUSH2 0x688 PUSH32 0x0 DUP3 PUSH32 0x0 PUSH20 0xFFFFFFFFFFFFFFFFFFFFFFFFFFFFFFFFFFFFFFFF AND PUSH2 0x1E17 SWAP1 SWAP3 SWAP2 SWAP1 PUSH4 0xFFFFFFFF AND JUMP JUMPDEST JUMPDEST PUSH1 0x3 PUSH1 0x1 PUSH0 PUSH2 0x100 EXP DUP2 SLOAD DUP2 PUSH1 0xFF MUL NOT AND SWAP1 DUP4 PUSH1 0x4 DUP2 GT ISZERO PUSH2 0x6AE JUMPI PUSH2 0x6AD PUSH2 0x26D3 JUMP JUMPDEST JUMPDEST MUL OR SWAP1 SSTORE POP PUSH32 0x92C439FDA90C70CCDEDCB94D28A14F9FDA69D67124EFBBE9BF905740194228C8 PUSH1 0x40 MLOAD PUSH1 0x40 MLOAD DUP1 SWAP2 SUB SWAP1 LOG1 POP PUSH2 0x6E8 PUSH2 0x1E96 JUMP JUMPDEST POP JUMP JUMPDEST PUSH0 PUSH2 0x6F4 PUSH2 0x1D31 JUMP JUMPDEST SWAP1 POP SWAP1 JUMP JUMPDEST PUSH32 0x0 DUP2 JUMP JUMPDEST PUSH32 0x0 PUSH20 0xFFFFFFFFFFFFFFFFFFFFFFFFFFFFFFFFFFFFFFFF AND CALLER PUSH20 0xFFFFFFFFFFFFFFFFFFFFFFFFFFFFFFFFFFFFFFFF AND EQ PUSH2 0x7A2 JUMPI PUSH1 0x40 MLOAD PUSH32 0xA598AEBE00000000000000000000000000000000000000000000000000000000 DUP2 MSTORE PUSH1 0x4 ADD PUSH1 0x40 MLOAD DUP1 SWAP2 SUB SWAP1 REVERT JUMPDEST PUSH1 0x1 DUP1 PUSH1 0x4 DUP2 GT ISZERO PUSH2 0x7B7 JUMPI PUSH2 0x7B6 PUSH2 0x26D3 JUMP JUMPDEST JUMPDEST PUSH1 0x1 PUSH0 SWAP1 SLOAD SWAP1 PUSH2 0x100 EXP SWAP1 DIV PUSH1 0xFF AND PUSH1 0x4 DUP2 GT ISZERO PUSH2 0x7D8 JUMPI PUSH2 0x7D7 PUSH2 0x26D3 JUMP JUMPDEST JUMPDEST EQ PUSH2 0x80F JUMPI PUSH1 0x40 MLOAD PUSH32 0xBAF3F0F700000000000000000000000000000000000000000000000000000000 DUP2 MSTORE PUSH1 0x4 ADD PUSH1 0x40 MLOAD DUP1 SWAP2 SUB SWAP1 REVERT JUMPDEST DUP2 PUSH1 0x5 DUP1 SLOAD SWAP1 POP DUP2 LT PUSH2 0x84E JUMPI PUSH1 0x40 MLOAD PUSH32 0xBA11734000000000000000000000000000000000000000000000000000000000 DUP2 MSTORE PUSH1 0x4 ADD PUSH1 0x40 MLOAD DUP1 SWAP2 SUB SWAP1 REVERT JUMPDEST PUSH2 0x856 PUSH2 0x1CE4 JUMP JUMPDEST PUSH0 PUSH1 0x5 DUP5 DUP2 SLOAD DUP2 LT PUSH2 0x86B JUMPI PUSH2 0x86A PUSH2 0x27B7 JUMP JUMPDEST JUMPDEST SWAP1 PUSH0 MSTORE PUSH1 0x20 PUSH0 KECCAK256 SWAP1 PUSH1 0x4 MUL ADD SWAP1 POP DUP1 PUSH1 0x1 ADD PUSH0 SWAP1 SLOAD SWAP1 PUSH2 0x100 EXP SWAP1 DIV PUSH1 0xFF AND ISZERO PUSH2 0x8CA JUMPI PUSH1 0x40 MLOAD PUSH32 0x8C379A000000000000000000000000000000000000000000000000000000000 DUP2 MSTORE PUSH1 0x4 ADD PUSH2 0x8C1 SWAP1 PUSH2 0x282E JUMP JUMPDEST PUSH1 0x40 MLOAD DUP1 SWAP2 SUB SWAP1 REVERT JUMPDEST DUP1 PUSH1 0x1 ADD PUSH1 0x1 SWAP1 SLOAD SWAP1 PUSH2 0x100 EXP SWAP1 DIV PUSH1 0xFF AND ISZERO PUSH2 0x91C JUMPI PUSH1 0x40 MLOAD PUSH32 0x8C379A000000000000000000000000000000000000000000000000000000000 DUP2 MSTORE PUSH1 0x4 ADD PUSH2 0x913 SWAP1 PUSH2 0x2896 JUMP JUMPDEST PUSH1 0x40 MLOAD DUP1 SWAP2 SUB SWAP1 REVERT JUMPDEST PUSH1 0x1 DUP2 PUSH1 0x1 ADD PUSH0 PUSH2 0x100 EXP DUP2 SLOAD DUP2 PUSH1 0xFF MUL NOT AND SWAP1 DUP4 ISZERO ISZERO MUL OR SWAP1 SSTORE POP DUP1 PUSH0 ADD SLOAD PUSH1 0x3 PUSH0 DUP3 DUP3 SLOAD PUSH2 0x94C SWAP2 SWAP1 PUSH2 0x28E1 JUMP JUMPDEST SWAP3 POP POP DUP2 SWAP1 SSTORE POP PUSH0 PUSH2 0x2710 PUSH1 0x96 DUP4 PUSH0 ADD SLOAD PUSH2 0x967 SWAP2 SWAP1 PUSH2 0x2914 JUMP JUMPDEST PUSH2 0x971 SWAP2 SWAP1 PUSH2 0x2982 JUMP JUMPDEST SWAP1 POP PUSH0 DUP2 DUP4 PUSH0 ADD SLOAD PUSH2 0x983 SWAP2 SWAP1 PUSH2 0x29B2 JUMP JUMPDEST SWAP1 POP PUSH0 DUP3 GT ISZERO PUSH2 0xA67 JUMPI PUSH2 0x9EC PUSH20 0xC869D7A99FA831B4B3BEE7E245F0C9348C2209A3 DUP4 PUSH32 0x0 PUSH20 0xFFFFFFFFFFFFFFFFFFFFFFFFFFFFFFFFFFFFFFFF AND PUSH2 0x1E17 SWAP1 SWAP3 SWAP2 SWAP1 PUSH4 0xFFFFFFFF AND JUMP JUMPDEST DUP2 PUSH1 0x4 PUSH0 DUP3 DUP3 SLOAD PUSH2 0x9FD SWAP2 SWAP1 PUSH2 0x28E1 JUMP JUMPDEST SWAP3 POP POP DUP2 SWAP1 SSTORE POP PUSH20 0xC869D7A99FA831B4B3BEE7E245F0C9348C2209A3 PUSH20 0xFFFFFFFFFFFFFFFFFFFFFFFFFFFFFFFFFFFFFFFF AND PUSH32 0x421CBBBB1785F7266E99384E78E4F325FE3D7AE36B352351621E7F3B7CC43AA0 DUP4 PUSH1 0x40 MLOAD PUSH2 0xA5E SWAP2 SWAP1 PUSH2 0x21F6 JUMP JUMPDEST PUSH1 0x40 MLOAD DUP1 SWAP2 SUB SWAP1 LOG2 JUMPDEST PUSH2 0xAD2 PUSH32 0x0 DUP3 PUSH32 0x0 PUSH20 0xFFFFFFFFFFFFFFFFFFFFFFFFFFFFFFFFFFFFFFFF AND PUSH2 0x1E17 SWAP1 SWAP3 SWAP2 SWAP1 PUSH4 0xFFFFFFFF AND JUMP JUMPDEST DUP6 PUSH32 0xD33FCD27CBFB73A2D9058C968B560CCB306500BF536133802048489ECC7355E9 DUP3 DUP5 PUSH1 0x40 MLOAD PUSH2 0xB04 SWAP3 SWAP2 SWAP1 PUSH2 0x29E5 JUMP JUMPDEST PUSH1 0x40 MLOAD DUP1 SWAP2 SUB SWAP1 LOG2 PUSH2 0xB14 PUSH2 0x1E9F JUMP JUMPDEST POP POP POP PUSH2 0xB1F PUSH2 0x1E96 JUMP JUMPDEST POP POP POP JUMP JUMPDEST PUSH0 PUSH1 0x4 DUP1 DUP2 GT ISZERO PUSH2 0xB38 JUMPI PUSH2 0xB37 PUSH2 0x26D3 JUMP JUMPDEST JUMPDEST PUSH1 0x1 PUSH0 SWAP1 SLOAD SWAP1 PUSH2 0x100 EXP SWAP1 DIV PUSH1 0xFF AND PUSH1 0x4 DUP2 GT ISZERO PUSH2 0xB59 JUMPI PUSH2 0xB58 PUSH2 0x26D3 JUMP JUMPDEST JUMPDEST EQ PUSH2 0xB66 JUMPI PUSH0 SWAP1 POP PUSH2 0xB7D JUMP JUMPDEST PUSH3 0x278D00 PUSH1 0x6 SLOAD PUSH2 0xB77 SWAP2 SWAP1 PUSH2 0x28E1 JUMP JUMPDEST TIMESTAMP LT ISZERO SWAP1 POP JUMPDEST SWAP1 JUMP JUMPDEST PUSH1 0x3 SLOAD DUP2 JUMP JUMPDEST PUSH1 0x60 PUSH0 PUSH1 0x4 DUP2 GT ISZERO PUSH2 0xB9B JUMPI PUSH2 0xB9A PUSH2 0x26D3 JUMP JUMPDEST JUMPDEST PUSH1 0x1 PUSH0 SWAP1 SLOAD SWAP1 PUSH2 0x100 EXP SWAP1 DIV PUSH1 0xFF AND PUSH1 0x4 DUP2 GT ISZERO PUSH2 0xBBC JUMPI PUSH2 0xBBB PUSH2 0x26D3 JUMP JUMPDEST JUMPDEST SUB PUSH2 0xBFE JUMPI PUSH1 0x40 MLOAD DUP1 PUSH1 0x40 ADD PUSH1 0x40 MSTORE DUP1 PUSH1 0x1B DUP2 MSTORE PUSH1 0x20 ADD PUSH32 0x43726561746564202857616974696E6720666F722066756E6473290000000000 DUP2 MSTORE POP SWAP1 POP PUSH2 0xE12 JUMP JUMPDEST PUSH1 0x1 PUSH1 0x4 DUP2 GT ISZERO PUSH2 0xC12 JUMPI PUSH2 0xC11 PUSH2 0x26D3 JUMP JUMPDEST JUMPDEST PUSH1 0x1 PUSH0 SWAP1 SLOAD SWAP1 PUSH2 0x100 EXP SWAP1 DIV PUSH1 0xFF AND PUSH1 0x4 DUP2 GT ISZERO PUSH2 0xC33 JUMPI PUSH2 0xC32 PUSH2 0x26D3 JUMP JUMPDEST JUMPDEST SUB PUSH2 0xC75 JUMPI PUSH1 0x40 MLOAD DUP1 PUSH1 0x40 ADD PUSH1 0x40 MSTORE DUP1 PUSH1 0xF DUP2 MSTORE PUSH1 0x20 ADD PUSH32 0x46756E6465642028416374697665290000000000000000000000000000000000 DUP2 MSTORE POP SWAP1 POP PUSH2 0xE12 JUMP JUMPDEST PUSH1 0x2 PUSH1 0x4 DUP2 GT ISZERO PUSH2 0xC89 JUMPI PUSH2 0xC88 PUSH2 0x26D3 JUMP JUMPDEST JUMPDEST PUSH1 0x1 PUSH0 SWAP1 SLOAD SWAP1 PUSH2 0x100 EXP SWAP1 DIV PUSH1 0xFF AND PUSH1 0x4 DUP2 GT ISZERO PUSH2 0xCAA JUMPI PUSH2 0xCA9 PUSH2 0x26D3 JUMP JUMPDEST JUMPDEST SUB PUSH2 0xCEC JUMPI PUSH1 0x40 MLOAD DUP1 PUSH1 0x40 ADD PUSH1 0x40 MSTORE DUP1 PUSH1 0x9 DUP2 MSTORE PUSH1 0x20 ADD PUSH32 0x436F6D706C657465640000000000000000000000000000000000000000000000 DUP2 MSTORE POP SWAP1 POP PUSH2 0xE12 JUMP JUMPDEST PUSH1 0x3 PUSH1 0x4 DUP2 GT ISZERO PUSH2 0xD00 JUMPI PUSH2 0xCFF PUSH2 0x26D3 JUMP JUMPDEST JUMPDEST PUSH1 0x1 PUSH0 SWAP1 SLOAD SWAP1 PUSH2 0x100 EXP SWAP1 DIV PUSH1 0xFF AND PUSH1 0x4 DUP2 GT ISZERO PUSH2 0xD21 JUMPI PUSH2 0xD20 PUSH2 0x26D3 JUMP JUMPDEST JUMPDEST SUB PUSH2 0xD63 JUMPI PUSH1 0x40 MLOAD DUP1 PUSH1 0x40 ADD PUSH1 0x40 MSTORE DUP1 PUSH1 0x9 DUP2 MSTORE PUSH1 0x20 ADD PUSH32 0x43616E63656C6C65640000000000000000000000000000000000000000000000 DUP2 MSTORE POP SWAP1 POP PUSH2 0xE12 JUMP JUMPDEST PUSH1 0x4 DUP1 DUP2 GT ISZERO PUSH2 0xD76 JUMPI PUSH2 0xD75 PUSH2 0x26D3 JUMP JUMPDEST JUMPDEST PUSH1 0x1 PUSH0 SWAP1 SLOAD SWAP1 PUSH2 0x100 EXP SWAP1 DIV PUSH1 0xFF AND PUSH1 0x4 DUP2 GT ISZERO PUSH2 0xD97 JUMPI PUSH2 0xD96 PUSH2 0x26D3 JUMP JUMPDEST JUMPDEST SUB PUSH2 0xDD9 JUMPI PUSH1 0x40 MLOAD DUP1 PUSH1 0x40 ADD PUSH1 0x40 MSTORE DUP1 PUSH1 0x8 DUP2 MSTORE PUSH1 0x20 ADD PUSH32 0x4469737075746564000000000000000000000000000000000000000000000000 DUP2 MSTORE POP SWAP1 POP PUSH2 0xE12 JUMP JUMPDEST PUSH1 0x40 MLOAD DUP1 PUSH1 0x40 ADD PUSH1 0x40 MSTORE DUP1 PUSH1 0x7 DUP2 MSTORE PUSH1 0x20 ADD PUSH32 0x556E6B6E6F776E00000000000000000000000000000000000000000000000000 DUP2 MSTORE POP SWAP1 POP JUMPDEST SWAP1 JUMP JUMPDEST PUSH32 0x0 PUSH20 0xFFFFFFFFFFFFFFFFFFFFFFFFFFFFFFFFFFFFFFFF AND CALLER PUSH20 0xFFFFFFFFFFFFFFFFFFFFFFFFFFFFFFFFFFFFFFFF AND EQ PUSH2 0xE9A JUMPI PUSH1 0x40 MLOAD PUSH32 0xA598AEBE00000000000000000000000000000000000000000000000000000000 DUP2 MSTORE PUSH1 0x4 ADD PUSH1 0x40 MLOAD DUP1 SWAP2 SUB SWAP1 REVERT JUMPDEST PUSH1 0x4 DUP1 PUSH1 0x4 DUP2 GT ISZERO PUSH2 0xEAF JUMPI PUSH2 0xEAE PUSH2 0x26D3 JUMP JUMPDEST JUMPDEST PUSH1 0x1 PUSH0 SWAP1 SLOAD SWAP1 PUSH2 0x100 EXP SWAP1 DIV PUSH1 0xFF AND PUSH1 0x4 DUP2 GT ISZERO PUSH2 0xED0 JUMPI PUSH2 0xECF PUSH2 0x26D3 JUMP JUMPDEST JUMPDEST EQ PUSH2 0xF07 JUMPI PUSH1 0x40 MLOAD PUSH32 0xBAF3F0F700000000000000000000000000000000000000000000000000000000 DUP2 MSTORE PUSH1 0x4 ADD PUSH1 0x40 MLOAD DUP1 SWAP2 SUB SWAP1 REVERT JUMPDEST PUSH2 0xF0F PUSH2 0x1CE4 JUMP JUMPDEST PUSH0 PUSH2 0xF18 PUSH2 0x1D31 JUMP JUMPDEST SWAP1 POP PUSH0 DUP2 GT ISZERO PUSH2 0xF8E JUMPI PUSH2 0xF8D PUSH32 0x0 DUP3 PUSH32 0x0 PUSH20 0xFFFFFFFFFFFFFFFFFFFFFFFFFFFFFFFFFFFFFFFF AND PUSH2 0x1E17 SWAP1 SWAP3 SWAP2 SWAP1 PUSH4 0xFFFFFFFF AND JUMP JUMPDEST JUMPDEST PUSH1 0x3 PUSH1 0x1 PUSH0 PUSH2 0x100 EXP DUP2 SLOAD DUP2 PUSH1 0xFF MUL NOT AND SWAP1 DUP4 PUSH1 0x4 DUP2 GT ISZERO PUSH2 0xFB3 JUMPI PUSH2 0xFB2 PUSH2 0x26D3 JUMP JUMPDEST JUMPDEST MUL OR SWAP1 SSTORE POP PUSH32 0x8015C5005D9AD5D85CA80D3F894F08E0159277704C54166E5CFF108800FA80CD PUSH0 PUSH1 0x40 MLOAD PUSH2 0xFE7 SWAP2 SWAP1 PUSH2 0x2303 JUMP JUMPDEST PUSH1 0x40 MLOAD DUP1 SWAP2 SUB SWAP1 LOG1 PUSH32 0x92C439FDA90C70CCDEDCB94D28A14F9FDA69D67124EFBBE9BF905740194228C8 PUSH1 0x40 MLOAD PUSH1 0x40 MLOAD DUP1 SWAP2 SUB SWAP1 LOG1 POP PUSH2 0x1024 PUSH2 0x1E96 JUMP JUMPDEST POP JUMP JUMPDEST PUSH1 0x4 SLOAD DUP2 JUMP JUMPDEST PUSH1 0x60 PUSH1 0x5 DUP1 SLOAD DUP1 PUSH1 0x20 MUL PUSH1 0x20 ADD PUSH1 0x40 MLOAD SWAP1 DUP2 ADD PUSH1 0x40 MSTORE DUP1 SWAP3 SWAP2 SWAP1 DUP2 DUP2 MSTORE PUSH1 0x20 ADD PUSH0 SWAP1 JUMPDEST DUP3 DUP3 LT ISZERO PUSH2 0x1158 JUMPI DUP4 DUP3 SWAP1 PUSH0 MSTORE PUSH1 0x20 PUSH0 KECCAK256 SWAP1 PUSH1 0x4 MUL ADD PUSH1 0x40 MLOAD DUP1 PUSH1 0xA0 ADD PUSH1 0x40 MSTORE SWAP1 DUP2 PUSH0 DUP3 ADD SLOAD DUP2 MSTORE PUSH1 0x20 ADD PUSH1 0x1 DUP3 ADD PUSH0 SWAP1 SLOAD SWAP1 PUSH2 0x100 EXP SWAP1 DIV PUSH1 0xFF AND ISZERO ISZERO ISZERO ISZERO DUP2 MSTORE PUSH1 0x20 ADD PUSH1 0x1 DUP3 ADD PUSH1 0x1 SWAP1 SLOAD SWAP1 PUSH2 0x100 EXP SWAP1 DIV PUSH1 0xFF AND ISZERO ISZERO ISZERO ISZERO DUP2 MSTORE PUSH1 0x20 ADD PUSH1 0x2 DUP3 ADD SLOAD DUP2 MSTORE PUSH1 0x20 ADD PUSH1 0x3 DUP3 ADD DUP1 SLOAD PUSH2 0x10C9 SWAP1 PUSH2 0x2A39 JUMP JUMPDEST DUP1 PUSH1 0x1F ADD PUSH1 0x20 DUP1 SWAP2 DIV MUL PUSH1 0x20 ADD PUSH1 0x40 MLOAD SWAP1 DUP2 ADD PUSH1 0x40 MSTORE DUP1 SWAP3 SWAP2 SWAP1 DUP2 DUP2 MSTORE PUSH1 0x20 ADD DUP3 DUP1 SLOAD PUSH2 0x10F5 SWAP1 PUSH2 0x2A39 JUMP JUMPDEST DUP1 ISZERO PUSH2 0x1140 JUMPI DUP1 PUSH1 0x1F LT PUSH2 0x1117 JUMPI PUSH2 0x100 DUP1 DUP4 SLOAD DIV MUL DUP4 MSTORE SWAP2 PUSH1 0x20 ADD SWAP2 PUSH2 0x1140 JUMP JUMPDEST DUP3 ADD SWAP2 SWAP1 PUSH0 MSTORE PUSH1 0x20 PUSH0 KECCAK256 SWAP1 JUMPDEST DUP2 SLOAD DUP2 MSTORE SWAP1 PUSH1 0x1 ADD SWAP1 PUSH1 0x20 ADD DUP1 DUP4 GT PUSH2 0x1123 JUMPI DUP3 SWAP1 SUB PUSH1 0x1F AND DUP3 ADD SWAP2 JUMPDEST POP POP POP POP POP DUP2 MSTORE POP POP DUP2 MSTORE PUSH1 0x20 ADD SWAP1 PUSH1 0x1 ADD SWAP1 PUSH2 0x1050 JUMP JUMPDEST POP POP POP POP SWAP1 POP SWAP1 JUMP JUMPDEST PUSH0 PUSH32 0x0 PUSH20 0xFFFFFFFFFFFFFFFFFFFFFFFFFFFFFFFFFFFFFFFF AND PUSH4 0x70A08231 ADDRESS PUSH1 0x40 MLOAD DUP3 PUSH4 0xFFFFFFFF AND PUSH1 0xE0 SHL DUP2 MSTORE PUSH1 0x4 ADD PUSH2 0x11BB SWAP2 SWAP1 PUSH2 0x21DD JUMP JUMPDEST PUSH1 0x20 PUSH1 0x40 MLOAD DUP1 DUP4 SUB DUP2 DUP7 GAS STATICCALL ISZERO DUP1 ISZERO PUSH2 0x11D6 JUMPI RETURNDATASIZE PUSH0 PUSH0 RETURNDATACOPY RETURNDATASIZE PUSH0 REVERT JUMPDEST POP POP POP POP PUSH1 0x40 MLOAD RETURNDATASIZE PUSH1 0x1F NOT PUSH1 0x1F DUP3 ADD AND DUP3 ADD DUP1 PUSH1 0x40 MSTORE POP DUP2 ADD SWAP1 PUSH2 0x11FA SWAP2 SWAP1 PUSH2 0x2A7D JUMP JUMPDEST SWAP1 POP SWAP1 JUMP JUMPDEST PUSH32 0x0 PUSH20 0xFFFFFFFFFFFFFFFFFFFFFFFFFFFFFFFFFFFFFFFF AND CALLER PUSH20 0xFFFFFFFFFFFFFFFFFFFFFFFFFFFFFFFFFFFFFFFF AND EQ DUP1 PUSH2 0x12A4 JUMPI POP PUSH32 0x0 PUSH20 0xFFFFFFFFFFFFFFFFFFFFFFFFFFFFFFFFFFFFFFFF AND CALLER PUSH20 0xFFFFFFFFFFFFFFFFFFFFFFFFFFFFFFFFFFFFFFFF AND EQ JUMPDEST PUSH2 0x12E3 JUMPI PUSH1 0x40 MLOAD PUSH32 0x8C379A000000000000000000000000000000000000000000000000000000000 DUP2 MSTORE PUSH1 0x4 ADD PUSH2 0x12DA SWAP1 PUSH2 0x2AF2 JUMP JUMPDEST PUSH1 0x40 MLOAD DUP1 SWAP2 SUB SWAP1 REVERT JUMPDEST PUSH1 0x1 DUP1 PUSH1 0x4 DUP2 GT ISZERO PUSH2 0x12F8 JUMPI PUSH2 0x12F7 PUSH2 0x26D3 JUMP JUMPDEST JUMPDEST PUSH1 0x1 PUSH0 SWAP1 SLOAD SWAP1 PUSH2 0x100 EXP SWAP1 DIV PUSH1 0xFF AND PUSH1 0x4 DUP2 GT ISZERO PUSH2 0x1319 JUMPI PUSH2 0x1318 PUSH2 0x26D3 JUMP JUMPDEST JUMPDEST EQ PUSH2 0x1350 JUMPI PUSH1 0x40 MLOAD PUSH32 0xBAF3F0F700000000000000000000000000000000000000000000000000000000 DUP2 MSTORE PUSH1 0x4 ADD PUSH1 0x40 MLOAD DUP1 SWAP2 SUB SWAP1 REVERT JUMPDEST PUSH1 0x4 PUSH1 0x1 PUSH0 PUSH2 0x100 EXP DUP2 SLOAD DUP2 PUSH1 0xFF MUL NOT AND SWAP1 DUP4 PUSH1 0x4 DUP2 GT ISZERO PUSH2 0x1375 JUMPI PUSH2 0x1374 PUSH2 0x26D3 JUMP JUMPDEST JUMPDEST MUL OR SWAP1 SSTORE POP TIMESTAMP PUSH1 0x6 DUP2 SWAP1 SSTORE POP CALLER PUSH20 0xFFFFFFFFFFFFFFFFFFFFFFFFFFFFFFFFFFFFFFFF AND PUSH32 0x28B099EB575E23E32BECD7C30DC8F9B2F98E370CDBF9841EA3338D9000402A25 DUP4 PUSH1 0x40 MLOAD PUSH2 0x13C7 SWAP2 SWAP1 PUSH2 0x238C JUMP JUMPDEST PUSH1 0x40 MLOAD DUP1 SWAP2 SUB SWAP1 LOG2 POP POP JUMP JUMPDEST PUSH0 PUSH2 0x2710 PUSH1 0x96 DUP4 PUSH2 0x13E4 SWAP2 SWAP1 PUSH2 0x2914 JUMP JUMPDEST PUSH2 0x13EE SWAP2 SWAP1 PUSH2 0x2982 JUMP JUMPDEST SWAP1 POP SWAP2 SWAP1 POP JUMP JUMPDEST PUSH1 0x96 DUP2 JUMP JUMPDEST PUSH32 0x0 PUSH20 0xFFFFFFFFFFFFFFFFFFFFFFFFFFFFFFFFFFFFFFFF AND CALLER PUSH20 0xFFFFFFFFFFFFFFFFFFFFFFFFFFFFFFFFFFFFFFFF AND EQ PUSH2 0x147F JUMPI PUSH1 0x40 MLOAD PUSH32 0x8858596300000000000000000000000000000000000000000000000000000000 DUP2 MSTORE PUSH1 0x4 ADD PUSH1 0x40 MLOAD DUP1 SWAP2 SUB SWAP1 REVERT JUMPDEST PUSH1 0x4 DUP1 PUSH1 0x4 DUP2 GT ISZERO PUSH2 0x1494 JUMPI PUSH2 0x1493 PUSH2 0x26D3 JUMP JUMPDEST JUMPDEST PUSH1 0x1 PUSH0 SWAP1 SLOAD SWAP1 PUSH2 0x100 EXP SWAP1 DIV PUSH1 0xFF AND PUSH1 0x4 DUP2 GT ISZERO PUSH2 0x14B5 JUMPI PUSH2 0x14B4 PUSH2 0x26D3 JUMP JUMPDEST JUMPDEST EQ PUSH2 0x14EC JUMPI PUSH1 0x40 MLOAD PUSH32 0xBAF3F0F700000000000000000000000000000000000000000000000000000000 DUP2 MSTORE PUSH1 0x4 ADD PUSH1 0x40 MLOAD DUP1 SWAP2 SUB SWAP1 REVERT JUMPDEST PUSH2 0x14F4 PUSH2 0x1CE4 JUMP JUMPDEST PUSH3 0x278D00 PUSH1 0x6 SLOAD PUSH2 0x1505 SWAP2 SWAP1 PUSH2 0x28E1 JUMP JUMPDEST TIMESTAMP LT ISZERO PUSH2 0x1547 JUMPI PUSH1 0x40 MLOAD PUSH32 0x8C379A000000000000000000000000000000000000000000000000000000000 DUP2 MSTORE PUSH1 0x4 ADD PUSH2 0x153E SWAP1 PUSH2 0x2B5A JUMP JUMPDEST PUSH1 0x40 MLOAD DUP1 SWAP2 SUB SWAP1 REVERT JUMPDEST PUSH0 PUSH2 0x1550 PUSH2 0x1D31 JUMP JUMPDEST SWAP1 POP PUSH0 DUP2 GT ISZERO PUSH2 0x15DE JUMPI PUSH2 0x15C5 PUSH32 0x0 DUP3 PUSH32 0x0 PUSH20 0xFFFFFFFFFFFFFFFFFFFFFFFFFFFFFFFFFFFFFFFF AND PUSH2 0x1E17 SWAP1 SWAP3 SWAP2 SWAP1 PUSH4 0xFFFFFFFF AND JUMP JUMPDEST DUP1 PUSH1 0x3 PUSH0 DUP3 DUP3 SLOAD PUSH2 0x15D6 SWAP2 SWAP1 PUSH2 0x28E1 JUMP JUMPDEST SWAP3 POP POP DUP2 SWAP1 SSTORE POP JUMPDEST PUSH1 0x2 PUSH1 0x1 PUSH0 PUSH2 0x100 EXP DUP2 SLOAD DUP2 PUSH1 0xFF MUL NOT AND SWAP1 DUP4 PUSH1 0x4 DUP2 GT ISZERO PUSH2 0x1603 JUMPI PUSH2 0x1602 PUSH2 0x26D3 JUMP JUMPDEST JUMPDEST MUL OR SWAP1 SSTORE POP PUSH32 0x8015C5005D9AD5D85CA80D3F894F08E0159277704C54166E5CFF108800FA80CD PUSH1 0x1 PUSH1 0x40 MLOAD PUSH2 0x1638 SWAP2 SWAP1 PUSH2 0x2303 JUMP JUMPDEST PUSH1 0x40 MLOAD DUP1 SWAP2 SUB SWAP1 LOG1 PUSH32 0xE39866727217E43713C3728C5769515E8FB38E990B568B9831C1689DFDF67B66 PUSH1 0x40 MLOAD PUSH1 0x40 MLOAD DUP1 SWAP2 SUB SWAP1 LOG1 POP PUSH2 0x1675 PUSH2 0x1E96 JUMP JUMPDEST POP JUMP JUMPDEST PUSH32 0x0 PUSH20 0xFFFFFFFFFFFFFFFFFFFFFFFFFFFFFFFFFFFFFFFF AND CALLER PUSH20 0xFFFFFFFFFFFFFFFFFFFFFFFFFFFFFFFFFFFFFFFF AND EQ PUSH2 0x16FD JUMPI PUSH1 0x40 MLOAD PUSH32 0xA598AEBE00000000000000000000000000000000000000000000000000000000 DUP2 MSTORE PUSH1 0x4 ADD PUSH1 0x40 MLOAD DUP1 SWAP2 SUB SWAP1 REVERT JUMPDEST PUSH0 DUP1 PUSH1 0x4 DUP2 GT ISZERO PUSH2 0x1711 JUMPI PUSH2 0x1710 PUSH2 0x26D3 JUMP JUMPDEST JUMPDEST PUSH1 0x1 PUSH0 SWAP1 SLOAD SWAP1 PUSH2 0x100 EXP SWAP1 DIV PUSH1 0xFF AND PUSH1 0x4 DUP2 GT ISZERO PUSH2 0x1732 JUMPI PUSH2 0x1731 PUSH2 0x26D3 JUMP JUMPDEST JUMPDEST EQ PUSH2 0x1769 JUMPI PUSH1 0x40 MLOAD PUSH32 0xBAF3F0F700000000000000000000000000000000000000000000000000000000 DUP2 MSTORE PUSH1 0x4 ADD PUSH1 0x40 MLOAD DUP1 SWAP2 SUB SWAP1 REVERT JUMPDEST PUSH2 0x1771 PUSH2 0x1CE4 JUMP JUMPDEST PUSH2 0x17C0 CALLER ADDRESS PUSH1 0x2 SLOAD PUSH32 0x0 PUSH20 0xFFFFFFFFFFFFFFFFFFFFFFFFFFFFFFFFFFFFFFFF AND PUSH2 0x1F8E SWAP1 SWAP4 SWAP3 SWAP2 SWAP1 PUSH4 0xFFFFFFFF AND JUMP JUMPDEST PUSH1 0x1 DUP1 PUSH0 PUSH2 0x100 EXP DUP2 SLOAD DUP2 PUSH1 0xFF MUL NOT AND SWAP1 DUP4 PUSH1 0x4 DUP2 GT ISZERO PUSH2 0x17E4 JUMPI PUSH2 0x17E3 PUSH2 0x26D3 JUMP JUMPDEST JUMPDEST MUL OR SWAP1 SSTORE POP PUSH32 0x2301E0A2AD8F6E28A7FBB09E96F5C14E588FAC346ED5CE607E1A018BC7688646 PUSH1 0x2 SLOAD PUSH1 0x40 MLOAD PUSH2 0x181A SWAP2 SWAP1 PUSH2 0x21F6 JUMP JUMPDEST PUSH1 0x40 MLOAD DUP1 SWAP2 SUB SWAP1 LOG1 PUSH2 0x182A PUSH2 0x1E96 JUMP JUMPDEST POP JUMP JUMPDEST PUSH1 0x6 SLOAD DUP2 JUMP JUMPDEST PUSH1 0x1 PUSH0 SWAP1 SLOAD SWAP1 PUSH2 0x100 EXP SWAP1 DIV PUSH1 0xFF AND DUP2 JUMP JUMPDEST PUSH32 0x0 DUP2 JUMP JUMPDEST PUSH0 PUSH2 0x1873 DUP3 PUSH2 0x13D3 JUMP JUMPDEST DUP3 PUSH2 0x187E SWAP2 SWAP1 PUSH2 0x29B2 JUMP JUMPDEST SWAP1 POP SWAP2 SWAP1 POP JUMP JUMPDEST PUSH1 0x5 DUP2 DUP2 SLOAD DUP2 LT PUSH2 0x1894 JUMPI PUSH0 DUP1 REVERT JUMPDEST SWAP1 PUSH0 MSTORE PUSH1 0x20 PUSH0 KECCAK256 SWAP1 PUSH1 0x4 MUL ADD PUSH0 SWAP2 POP SWAP1 POP DUP1 PUSH0 ADD SLOAD SWAP1 DUP1 PUSH1 0x1 ADD PUSH0 SWAP1 SLOAD SWAP1 PUSH2 0x100 EXP SWAP1 DIV PUSH1 0xFF AND SWAP1 DUP1 PUSH1 0x1 ADD PUSH1 0x1 SWAP1 SLOAD SWAP1 PUSH2 0x100 EXP SWAP1 DIV PUSH1 0xFF AND SWAP1 DUP1 PUSH1 0x2 ADD SLOAD SWAP1 DUP1 PUSH1 0x3 ADD DUP1 SLOAD PUSH2 0x18E4 SWAP1 PUSH2 0x2A39 JUMP JUMPDEST DUP1 PUSH1 0x1F ADD PUSH1 0x20 DUP1 SWAP2 DIV MUL PUSH1 0x20 ADD PUSH1 0x40 MLOAD SWAP1 DUP2 ADD PUSH1 0x40 MSTORE DUP1 SWAP3 SWAP2 SWAP1 DUP2 DUP2 MSTORE PUSH1 0x20 ADD DUP3 DUP1 SLOAD PUSH2 0x1910 SWAP1 PUSH2 0x2A39 JUMP JUMPDEST DUP1 ISZERO PUSH2 0x195B JUMPI DUP1 PUSH1 0x1F LT PUSH2 0x1932 JUMPI PUSH2 0x100 DUP1 DUP4 SLOAD DIV MUL DUP4 MSTORE SWAP2 PUSH1 0x20 ADD SWAP2 PUSH2 0x195B JUMP JUMPDEST DUP3 ADD SWAP2 SWAP1 PUSH0 MSTORE PUSH1 0x20 PUSH0 KECCAK256 SWAP1 JUMPDEST DUP2 SLOAD DUP2 MSTORE SWAP1 PUSH1 0x1 ADD SWAP1 PUSH1 0x20 ADD DUP1 DUP4 GT PUSH2 0x193E JUMPI DUP3 SWAP1 SUB PUSH1 0x1F AND DUP3 ADD SWAP2 JUMPDEST POP POP POP POP POP SWAP1 POP DUP6 JUMP JUMPDEST PUSH20 0xC869D7A99FA831B4B3BEE7E245F0C9348C2209A3 DUP2 JUMP JUMPDEST PUSH32 0x0 PUSH20 0xFFFFFFFFFFFFFFFFFFFFFFFFFFFFFFFFFFFFFFFF AND CALLER PUSH20 0xFFFFFFFFFFFFFFFFFFFFFFFFFFFFFFFFFFFFFFFF AND EQ PUSH2 0x1A02 JUMPI PUSH1 0x40 MLOAD PUSH32 0xA598AEBE00000000000000000000000000000000000000000000000000000000 DUP2 MSTORE PUSH1 0x4 ADD PUSH1 0x40 MLOAD DUP1 SWAP2 SUB SWAP1 REVERT JUMPDEST PUSH1 0x1 DUP1 PUSH1 0x4 DUP2 GT ISZERO PUSH2 0x1A17 JUMPI PUSH2 0x1A16 PUSH2 0x26D3 JUMP JUMPDEST JUMPDEST PUSH1 0x1 PUSH0 SWAP1 SLOAD SWAP1 PUSH2 0x100 EXP SWAP1 DIV PUSH1 0xFF AND PUSH1 0x4 DUP2 GT ISZERO PUSH2 0x1A38 JUMPI PUSH2 0x1A37 PUSH2 0x26D3 JUMP JUMPDEST JUMPDEST EQ PUSH2 0x1A6F JUMPI PUSH1 0x40 MLOAD PUSH32 0xBAF3F0F700000000000000000000000000000000000000000000000000000000 DUP2 MSTORE PUSH1 0x4 ADD PUSH1 0x40 MLOAD DUP1 SWAP2 SUB SWAP1 REVERT JUMPDEST DUP2 PUSH1 0x5 DUP1 SLOAD SWAP1 POP DUP2 LT PUSH2 0x1AAE JUMPI PUSH1 0x40 MLOAD PUSH32 0xBA11734000000000000000000000000000000000000000000000000000000000 DUP2 MSTORE PUSH1 0x4 ADD PUSH1 0x40 MLOAD DUP1 SWAP2 SUB SWAP1 REVERT JUMPDEST PUSH2 0x1AB6 PUSH2 0x1CE4 JUMP JUMPDEST PUSH0 PUSH1 0x5 DUP5 DUP2 SLOAD DUP2 LT PUSH2 0x1ACB JUMPI PUSH2 0x1ACA PUSH2 0x27B7 JUMP JUMPDEST JUMPDEST SWAP1 PUSH0 MSTORE PUSH1 0x20 PUSH0 KECCAK256 SWAP1 PUSH1 0x4 MUL ADD SWAP1 POP DUP1 PUSH1 0x1 ADD PUSH0 SWAP1 SLOAD SWAP1 PUSH2 0x100 EXP SWAP1 DIV PUSH1 0xFF AND ISZERO PUSH2 0x1B2A JUMPI PUSH1 0x40 MLOAD PUSH32 0x8C379A000000000000000000000000000000000000000000000000000000000 DUP2 MSTORE PUSH1 0x4 ADD PUSH2 0x1B21 SWAP1 PUSH2 0x282E JUMP JUMPDEST PUSH1 0x40 MLOAD DUP1 SWAP2 SUB SWAP1 REVERT JUMPDEST DUP1 PUSH1 0x1 ADD PUSH1 0x1 SWAP1 SLOAD SWAP1 PUSH2 0x100 EXP SWAP1 DIV PUSH1 0xFF AND ISZERO PUSH2 0x1B7C JUMPI PUSH1 0x40 MLOAD PUSH32 0x8C379A000000000000000000000000000000000000000000000000000000000 DUP2 MSTORE PUSH1 0x4 ADD PUSH2 0x1B73 SWAP1 PUSH2 0x2BC2 JUMP JUMPDEST PUSH1 0x40 MLOAD DUP1 SWAP2 SUB SWAP1 REVERT JUMPDEST PUSH0 DUP2 PUSH1 0x2 ADD SLOAD GT PUSH2 0x1BC2 JUMPI PUSH1 0x40 MLOAD PUSH32 0x8C379A000000000000000000000000000000000000000000000000000000000 DUP2 MSTORE PUSH1 0x4 ADD PUSH2 0x1BB9 SWAP1 PUSH2 0x2C2A JUMP JUMPDEST PUSH1 0x40 MLOAD DUP1 SWAP2 SUB SWAP1 REVERT JUMPDEST DUP1 PUSH1 0x2 ADD SLOAD TIMESTAMP GT PUSH2 0x1C08 JUMPI PUSH1 0x40 MLOAD PUSH32 0x8C379A000000000000000000000000000000000000000000000000000000000 DUP2 MSTORE PUSH1 0x4 ADD PUSH2 0x1BFF SWAP1 PUSH2 0x2C92 JUMP JUMPDEST PUSH1 0x40 MLOAD DUP1 SWAP2 SUB SWAP1 REVERT JUMPDEST PUSH1 0x1 DUP2 PUSH1 0x1 ADD PUSH1 0x1 PUSH2 0x100 EXP DUP2 SLOAD DUP2 PUSH1 0xFF MUL NOT AND SWAP1 DUP4 ISZERO ISZERO MUL OR SWAP1 SSTORE POP PUSH2 0x1C93 PUSH32 0x0 DUP3 PUSH0 ADD SLOAD PUSH32 0x0 PUSH20 0xFFFFFFFFFFFFFFFFFFFFFFFFFFFFFFFFFFFFFFFF AND PUSH2 0x1E17 SWAP1 SWAP3 SWAP2 SWAP1 PUSH4 0xFFFFFFFF AND JUMP JUMPDEST DUP4 PUSH32 0xDADEFB9D4C98CE0B09100DAF8B195E7882F849F58F6760FF36762958C0F7B8A8 DUP3 PUSH0 ADD SLOAD PUSH1 0x40 MLOAD PUSH2 0x1CC6 SWAP2 SWAP1 PUSH2 0x21F6 JUMP JUMPDEST PUSH1 0x40 MLOAD DUP1 SWAP2 SUB SWAP1 LOG2 PUSH2 0x1CD6 PUSH2 0x2010 JUMP JUMPDEST POP PUSH2 0x1CDF PUSH2 0x1E96 JUMP JUMPDEST POP POP POP JUMP JUMPDEST PUSH1 0x2 PUSH0 SLOAD SUB PUSH2 0x1D28 JUMPI PUSH1 0x40 MLOAD PUSH32 0x8C379A000000000000000000000000000000000000000000000000000000000 DUP2 MSTORE PUSH1 0x4 ADD PUSH2 0x1D1F SWAP1 PUSH2 0x2CFA JUMP JUMPDEST PUSH1 0x40 MLOAD DUP1 SWAP2 SUB SWAP1 REVERT JUMPDEST PUSH1 0x2 PUSH0 DUP2 SWAP1 SSTORE POP JUMP JUMPDEST PUSH0 PUSH0 PUSH32 0x0 PUSH20 0xFFFFFFFFFFFFFFFFFFFFFFFFFFFFFFFFFFFFFFFF AND PUSH4 0x70A08231 ADDRESS PUSH1 0x40 MLOAD DUP3 PUSH4 0xFFFFFFFF AND PUSH1 0xE0 SHL DUP2 MSTORE PUSH1 0x4 ADD PUSH2 0x1D8C SWAP2 SWAP1 PUSH2 0x21DD JUMP JUMPDEST PUSH1 0x20 PUSH1 0x40 MLOAD DUP1 DUP4 SUB DUP2 DUP7 GAS STATICCALL ISZERO DUP1 ISZERO PUSH2 0x1DA7 JUMPI RETURNDATASIZE PUSH0 PUSH0 RETURNDATACOPY RETURNDATASIZE PUSH0 REVERT JUMPDEST POP POP POP POP PUSH1 0x40 MLOAD RETURNDATASIZE PUSH1 0x1F NOT PUSH1 0x1F DUP3 ADD AND DUP3 ADD DUP1 PUSH1 0x40 MSTORE POP DUP2 ADD SWAP1 PUSH2 0x1DCB SWAP2 SWAP1 PUSH2 0x2A7D JUMP JUMPDEST SWAP1 POP PUSH0 PUSH1 0x4 DUP2 GT ISZERO PUSH2 0x1DE0 JUMPI PUSH2 0x1DDF PUSH2 0x26D3 JUMP JUMPDEST JUMPDEST PUSH1 0x1 PUSH0 SWAP1 SLOAD SWAP1 PUSH2 0x100 EXP SWAP1 DIV PUSH1 0xFF AND PUSH1 0x4 DUP2 GT ISZERO PUSH2 0x1E01 JUMPI PUSH2 0x1E00 PUSH2 0x26D3 JUMP JUMPDEST JUMPDEST SUB PUSH2 0x1E0F JUMPI PUSH0 SWAP2 POP POP PUSH2 0x1E14 JUMP JUMPDEST DUP1 SWAP2 POP POP JUMPDEST SWAP1 JUMP JUMPDEST PUSH2 0x1E91 DUP4 DUP5 PUSH20 0xFFFFFFFFFFFFFFFFFFFFFFFFFFFFFFFFFFFFFFFF AND PUSH4 0xA9059CBB DUP6 DUP6 PUSH1 0x40 MLOAD PUSH1 0x24 ADD PUSH2 0x1E4A SWAP3 SWAP2 SWAP1 PUSH2 0x21B6 JUMP JUMPDEST PUSH1 0x40 MLOAD PUSH1 0x20 DUP2 DUP4 SUB SUB DUP2 MSTORE SWAP1 PUSH1 0x40 MSTORE SWAP2 POP PUSH1 0xE0 SHL PUSH1 0x20 DUP3 ADD DUP1 MLOAD PUSH28 0xFFFFFFFFFFFFFFFFFFFFFFFFFFFFFFFFFFFFFFFFFFFFFFFFFFFFFFFF DUP4 DUP2 DUP4 AND OR DUP4 MSTORE POP POP POP POP PUSH2 0x20C4 JUMP JUMPDEST POP POP POP JUMP JUMPDEST PUSH1 0x1 PUSH0 DUP2 SWAP1 SSTORE POP JUMP JUMPDEST PUSH0 PUSH0 SWAP1 POP JUMPDEST PUSH1 0x5 DUP1 SLOAD SWAP1 POP DUP2 LT ISZERO PUSH2 0x1F34 JUMPI PUSH1 0x5 DUP2 DUP2 SLOAD DUP2 LT PUSH2 0x1EC5 JUMPI PUSH2 0x1EC4 PUSH2 0x27B7 JUMP JUMPDEST JUMPDEST SWAP1 PUSH0 MSTORE PUSH1 0x20 PUSH0 KECCAK256 SWAP1 PUSH1 0x4 MUL ADD PUSH1 0x1 ADD PUSH0 SWAP1 SLOAD SWAP1 PUSH2 0x100 EXP SWAP1 DIV PUSH1 0xFF AND ISZERO DUP1 ISZERO PUSH2 0x1F1C JUMPI POP PUSH1 0x5 DUP2 DUP2 SLOAD DUP2 LT PUSH2 0x1EFD JUMPI PUSH2 0x1EFC PUSH2 0x27B7 JUMP JUMPDEST JUMPDEST SWAP1 PUSH0 MSTORE PUSH1 0x20 PUSH0 KECCAK256 SWAP1 PUSH1 0x4 MUL ADD PUSH1 0x1 ADD PUSH1 0x1 SWAP1 SLOAD SWAP1 PUSH2 0x100 EXP SWAP1 DIV PUSH1 0xFF AND ISZERO JUMPDEST ISZERO PUSH2 0x1F27 JUMPI POP PUSH2 0x1F8C JUMP JUMPDEST DUP1 DUP1 PUSH1 0x1 ADD SWAP2 POP POP PUSH2 0x1EA4 JUMP JUMPDEST POP PUSH1 0x2 PUSH1 0x1 PUSH0 PUSH2 0x100 EXP DUP2 SLOAD DUP2 PUSH1 0xFF MUL NOT AND SWAP1 DUP4 PUSH1 0x4 DUP2 GT ISZERO PUSH2 0x1F5A JUMPI PUSH2 0x1F59 PUSH2 0x26D3 JUMP JUMPDEST JUMPDEST MUL OR SWAP1 SSTORE POP PUSH32 0xE39866727217E43713C3728C5769515E8FB38E990B568B9831C1689DFDF67B66 PUSH1 0x40 MLOAD PUSH1 0x40 MLOAD DUP1 SWAP2 SUB SWAP1 LOG1 JUMPDEST JUMP JUMPDEST PUSH2 0x200A DUP5 DUP6 PUSH20 0xFFFFFFFFFFFFFFFFFFFFFFFFFFFFFFFFFFFFFFFF AND PUSH4 0x23B872DD DUP7 DUP7 DUP7 PUSH1 0x40 MLOAD PUSH1 0x24 ADD PUSH2 0x1FC3 SWAP4 SWAP3 SWAP2 SWAP1 PUSH2 0x2D18 JUMP JUMPDEST PUSH1 0x40 MLOAD PUSH1 0x20 DUP2 DUP4 SUB SUB DUP2 MSTORE SWAP1 PUSH1 0x40 MSTORE SWAP2 POP PUSH1 0xE0 SHL PUSH1 0x20 DUP3 ADD DUP1 MLOAD PUSH28 0xFFFFFFFFFFFFFFFFFFFFFFFFFFFFFFFFFFFFFFFFFFFFFFFFFFFFFFFF DUP4 DUP2 DUP4 AND OR DUP4 MSTORE POP POP POP POP PUSH2 0x20C4 JUMP JUMPDEST POP POP POP POP JUMP JUMPDEST PUSH0 PUSH0 SWAP1 POP JUMPDEST PUSH1 0x5 DUP1 SLOAD SWAP1 POP DUP2 LT ISZERO PUSH2 0x206A JUMPI PUSH1 0x5 DUP2 DUP2 SLOAD DUP2 LT PUSH2 0x2036 JUMPI PUSH2 0x2035 PUSH2 0x27B7 JUMP JUMPDEST JUMPDEST SWAP1 PUSH0 MSTORE PUSH1 0x20 PUSH0 KECCAK256 SWAP1 PUSH1 0x4 MUL ADD PUSH1 0x1 ADD PUSH1 0x1 SWAP1 SLOAD SWAP1 PUSH2 0x100 EXP SWAP1 DIV PUSH1 0xFF AND PUSH2 0x205D JUMPI POP PUSH2 0x20C2 JUMP JUMPDEST DUP1 DUP1 PUSH1 0x1 ADD SWAP2 POP POP PUSH2 0x2015 JUMP JUMPDEST POP PUSH1 0x3 PUSH1 0x1 PUSH0 PUSH2 0x100 EXP DUP2 SLOAD DUP2 PUSH1 0xFF MUL NOT AND SWAP1 DUP4 PUSH1 0x4 DUP2 GT ISZERO PUSH2 0x2090 JUMPI PUSH2 0x208F PUSH2 0x26D3 JUMP JUMPDEST JUMPDEST MUL OR SWAP1 SSTORE POP PUSH32 0x92C439FDA90C70CCDEDCB94D28A14F9FDA69D67124EFBBE9BF905740194228C8 PUSH1 0x40 MLOAD PUSH1 0x40 MLOAD DUP1 SWAP2 SUB SWAP1 LOG1 JUMPDEST JUMP JUMPDEST PUSH0 PUSH0 PUSH1 0x20 PUSH0 DUP5 MLOAD PUSH1 0x20 DUP7 ADD PUSH0 DUP9 GAS CALL DUP1 PUSH2 0x20E3 JUMPI PUSH1 0x40 MLOAD RETURNDATASIZE PUSH0 DUP3 RETURNDATACOPY RETURNDATASIZE DUP2 REVERT JUMPDEST RETURNDATASIZE SWAP3 POP PUSH0 MLOAD SWAP2 POP POP PUSH0 DUP3 EQ PUSH2 0x20FC JUMPI PUSH1 0x1 DUP2 EQ ISZERO PUSH2 0x2117 JUMP JUMPDEST PUSH0 DUP5 PUSH20 0xFFFFFFFFFFFFFFFFFFFFFFFFFFFFFFFFFFFFFFFF AND EXTCODESIZE EQ JUMPDEST ISZERO PUSH2 0x2159 JUMPI DUP4 PUSH1 0x40 MLOAD PUSH32 0x5274AFE700000000000000000000000000000000000000000000000000000000 DUP2 MSTORE PUSH1 0x4 ADD PUSH2 0x2150 SWAP2 SWAP1 PUSH2 0x21DD JUMP JUMPDEST PUSH1 0x40 MLOAD DUP1 SWAP2 SUB SWAP1 REVERT JUMPDEST POP POP POP POP JUMP JUMPDEST PUSH0 PUSH20 0xFFFFFFFFFFFFFFFFFFFFFFFFFFFFFFFFFFFFFFFF DUP3 AND SWAP1 POP SWAP2 SWAP1 POP JUMP JUMPDEST PUSH0 PUSH2 0x2188 DUP3 PUSH2 0x215F JUMP JUMPDEST SWAP1 POP SWAP2 SWAP1 POP JUMP JUMPDEST PUSH2 0x2198 DUP2 PUSH2 0x217E JUMP JUMPDEST DUP3 MSTORE POP POP JUMP JUMPDEST PUSH0 DUP2 SWAP1 POP SWAP2 SWAP1 POP JUMP JUMPDEST PUSH2 0x21B0 DUP2 PUSH2 0x219E JUMP JUMPDEST DUP3 MSTORE POP POP JUMP JUMPDEST PUSH0 PUSH1 0x40 DUP3 ADD SWAP1 POP PUSH2 0x21C9 PUSH0 DUP4 ADD DUP6 PUSH2 0x218F JUMP JUMPDEST PUSH2 0x21D6 PUSH1 0x20 DUP4 ADD DUP5 PUSH2 0x21A7 JUMP JUMPDEST SWAP4 SWAP3 POP POP POP JUMP JUMPDEST PUSH0 PUSH1 0x20 DUP3 ADD SWAP1 POP PUSH2 0x21F0 PUSH0 DUP4 ADD DUP5 PUSH2 0x218F JUMP JUMPDEST SWAP3 SWAP2 POP POP JUMP JUMPDEST PUSH0 PUSH1 0x20 DUP3 ADD SWAP1 POP PUSH2 0x2209 PUSH0 DUP4 ADD DUP5 PUSH2 0x21A7 JUMP JUMPDEST SWAP3 SWAP2 POP POP JUMP JUMPDEST PUSH0 DUP2 SWAP1 POP SWAP2 SWAP1 POP JUMP JUMPDEST PUSH0 PUSH2 0x2232 PUSH2 0x222D PUSH2 0x2228 DUP5 PUSH2 0x215F JUMP JUMPDEST PUSH2 0x220F JUMP JUMPDEST PUSH2 0x215F JUMP JUMPDEST SWAP1 POP SWAP2 SWAP1 POP JUMP JUMPDEST PUSH0 PUSH2 0x2243 DUP3 PUSH2 0x2218 JUMP JUMPDEST SWAP1 POP SWAP2 SWAP1 POP JUMP JUMPDEST PUSH0 PUSH2 0x2254 DUP3 PUSH2 0x2239 JUMP JUMPDEST SWAP1 POP SWAP2 SWAP1 POP JUMP JUMPDEST PUSH2 0x2264 DUP2 PUSH2 0x224A JUMP JUMPDEST DUP3 MSTORE POP POP JUMP JUMPDEST PUSH0 PUSH1 0x20 DUP3 ADD SWAP1 POP PUSH2 0x227D PUSH0 DUP4 ADD DUP5 PUSH2 0x225B JUMP JUMPDEST SWAP3 SWAP2 POP POP JUMP JUMPDEST PUSH0 PUSH1 0x40 MLOAD SWAP1 POP SWAP1 JUMP JUMPDEST PUSH0 PUSH0 REVERT JUMPDEST PUSH0 PUSH0 REVERT JUMPDEST PUSH2 0x229D DUP2 PUSH2 0x219E JUMP JUMPDEST DUP2 EQ PUSH2 0x22A7 JUMPI PUSH0 PUSH0 REVERT JUMPDEST POP JUMP JUMPDEST PUSH0 DUP2 CALLDATALOAD SWAP1 POP PUSH2 0x22B8 DUP2 PUSH2 0x2294 JUMP JUMPDEST SWAP3 SWAP2 POP POP JUMP JUMPDEST PUSH0 PUSH1 0x20 DUP3 DUP5 SUB SLT ISZERO PUSH2 0x22D3 JUMPI PUSH2 0x22D2 PUSH2 0x228C JUMP JUMPDEST JUMPDEST PUSH0 PUSH2 0x22E0 DUP5 DUP3 DUP6 ADD PUSH2 0x22AA JUMP JUMPDEST SWAP2 POP POP SWAP3 SWAP2 POP POP JUMP JUMPDEST PUSH0 DUP2 ISZERO ISZERO SWAP1 POP SWAP2 SWAP1 POP JUMP JUMPDEST PUSH2 0x22FD DUP2 PUSH2 0x22E9 JUMP JUMPDEST DUP3 MSTORE POP POP JUMP JUMPDEST PUSH0 PUSH1 0x20 DUP3 ADD SWAP1 POP PUSH2 0x2316 PUSH0 DUP4 ADD DUP5 PUSH2 0x22F4 JUMP JUMPDEST SWAP3 SWAP2 POP POP JUMP JUMPDEST PUSH0 DUP2 MLOAD SWAP1 POP SWAP2 SWAP1 POP JUMP JUMPDEST PUSH0 DUP3 DUP3 MSTORE PUSH1 0x20 DUP3 ADD SWAP1 POP SWAP3 SWAP2 POP POP JUMP JUMPDEST DUP3 DUP2 DUP4 MCOPY PUSH0 DUP4 DUP4 ADD MSTORE POP POP POP JUMP JUMPDEST PUSH0 PUSH1 0x1F NOT PUSH1 0x1F DUP4 ADD AND SWAP1 POP SWAP2 SWAP1 POP JUMP JUMPDEST PUSH0 PUSH2 0x235E DUP3 PUSH2 0x231C JUMP JUMPDEST PUSH2 0x2368 DUP2 DUP6 PUSH2 0x2326 JUMP JUMPDEST SWAP4 POP PUSH2 0x2378 DUP2 DUP6 PUSH1 0x20 DUP7 ADD PUSH2 0x2336 JUMP JUMPDEST PUSH2 0x2381 DUP2 PUSH2 0x2344 JUMP JUMPDEST DUP5 ADD SWAP2 POP POP SWAP3 SWAP2 POP POP JUMP JUMPDEST PUSH0 PUSH1 0x20 DUP3 ADD SWAP1 POP DUP2 DUP2 SUB PUSH0 DUP4 ADD MSTORE PUSH2 0x23A4 DUP2 DUP5 PUSH2 0x2354 JUMP JUMPDEST SWAP1 POP SWAP3 SWAP2 POP POP JUMP JUMPDEST PUSH0 DUP2 MLOAD SWAP1 POP SWAP2 SWAP1 POP JUMP JUMPDEST PUSH0 DUP3 DUP3 MSTORE PUSH1 0x20 DUP3 ADD SWAP1 POP SWAP3 SWAP2 POP POP JUMP JUMPDEST PUSH0 DUP2 SWAP1 POP PUSH1 0x20 DUP3 ADD SWAP1 POP SWAP2 SWAP1 POP JUMP JUMPDEST PUSH2 0x23DE DUP2 PUSH2 0x219E JUMP JUMPDEST DUP3 MSTORE POP POP JUMP JUMPDEST PUSH2 0x23ED DUP2 PUSH2 0x22E9 JUMP JUMPDEST DUP3 MSTORE POP POP JUMP JUMPDEST PUSH0 DUP3 DUP3 MSTORE PUSH1 0x20 DUP3 ADD SWAP1 POP SWAP3 SWAP2 POP POP JUMP JUMPDEST PUSH0 PUSH2 0x240D DUP3 PUSH2 0x231C JUMP JUMPDEST PUSH2 0x2417 DUP2 DUP6 PUSH2 0x23F3 JUMP JUMPDEST SWAP4 POP PUSH2 0x2427 DUP2 DUP6 PUSH1 0x20 DUP7 ADD PUSH2 0x2336 JUMP JUMPDEST PUSH2 0x2430 DUP2 PUSH2 0x2344 JUMP JUMPDEST DUP5 ADD SWAP2 POP POP SWAP3 SWAP2 POP POP JUMP JUMPDEST PUSH0 PUSH1 0xA0 DUP4 ADD PUSH0 DUP4 ADD MLOAD PUSH2 0x2450 PUSH0 DUP7 ADD DUP3 PUSH2 0x23D5 JUMP JUMPDEST POP PUSH1 0x20 DUP4 ADD MLOAD PUSH2 0x2463 PUSH1 0x20 DUP7 ADD DUP3 PUSH2 0x23E4 JUMP JUMPDEST POP PUSH1 0x40 DUP4 ADD MLOAD PUSH2 0x2476 PUSH1 0x40 DUP7 ADD DUP3 PUSH2 0x23E4 JUMP JUMPDEST POP PUSH1 0x60 DUP4 ADD MLOAD PUSH2 0x2489 PUSH1 0x60 DUP7 ADD DUP3 PUSH2 0x23D5 JUMP JUMPDEST POP PUSH1 0x80 DUP4 ADD MLOAD DUP5 DUP3 SUB PUSH1 0x80 DUP7 ADD MSTORE PUSH2 0x24A1 DUP3 DUP3 PUSH2 0x2403 JUMP JUMPDEST SWAP2 POP POP DUP1 SWAP2 POP POP SWAP3 SWAP2 POP POP JUMP JUMPDEST PUSH0 PUSH2 0x24B9 DUP4 DUP4 PUSH2 0x243B JUMP JUMPDEST SWAP1 POP SWAP3 SWAP2 POP POP JUMP JUMPDEST PUSH0 PUSH1 0x20 DUP3 ADD SWAP1 POP SWAP2 SWAP1 POP JUMP JUMPDEST PUSH0 PUSH2 0x24D7 DUP3 PUSH2 0x23AC JUMP JUMPDEST PUSH2 0x24E1 DUP2 DUP6 PUSH2 0x23B6 JUMP JUMPDEST SWAP4 POP DUP4 PUSH1 0x20 DUP3 MUL DUP6 ADD PUSH2 0x24F3 DUP6 PUSH2 0x23C6 JUMP JUMPDEST DUP1 PUSH0 JUMPDEST DUP6 DUP2 LT ISZERO PUSH2 0x252E JUMPI DUP5 DUP5 SUB DUP10 MSTORE DUP2 MLOAD PUSH2 0x250F DUP6 DUP3 PUSH2 0x24AE JUMP JUMPDEST SWAP5 POP PUSH2 0x251A DUP4 PUSH2 0x24C1 JUMP JUMPDEST SWAP3 POP PUSH1 0x20 DUP11 ADD SWAP10 POP POP PUSH1 0x1 DUP2 ADD SWAP1 POP PUSH2 0x24F6 JUMP JUMPDEST POP DUP3 SWAP8 POP DUP8 SWAP6 POP POP POP POP POP POP SWAP3 SWAP2 POP POP JUMP JUMPDEST PUSH0 PUSH1 0x20 DUP3 ADD SWAP1 POP DUP2 DUP2 SUB PUSH0 DUP4 ADD MSTORE PUSH2 0x2558 DUP2 DUP5 PUSH2 0x24CD JUMP JUMPDEST SWAP1 POP SWAP3 SWAP2 POP POP JUMP JUMPDEST PUSH0 PUSH0 REVERT JUMPDEST PUSH0 PUSH0 REVERT JUMPDEST PUSH32 0x4E487B7100000000000000000000000000000000000000000000000000000000 PUSH0 MSTORE PUSH1 0x41 PUSH1 0x4 MSTORE PUSH1 0x24 PUSH0 REVERT JUMPDEST PUSH2 0x259E DUP3 PUSH2 0x2344 JUMP JUMPDEST DUP2 ADD DUP2 DUP2 LT PUSH8 0xFFFFFFFFFFFFFFFF DUP3 GT OR ISZERO PUSH2 0x25BD JUMPI PUSH2 0x25BC PUSH2 0x2568 JUMP JUMPDEST JUMPDEST DUP1 PUSH1 0x40 MSTORE POP POP POP JUMP JUMPDEST PUSH0 PUSH2 0x25CF PUSH2 0x2283 JUMP JUMPDEST SWAP1 POP PUSH2 0x25DB DUP3 DUP3 PUSH2 0x2595 JUMP JUMPDEST SWAP2 SWAP1 POP JUMP JUMPDEST PUSH0 PUSH8 0xFFFFFFFFFFFFFFFF DUP3 GT ISZERO PUSH2 0x25FA JUMPI PUSH2 0x25F9 PUSH2 0x2568 JUMP JUMPDEST JUMPDEST PUSH2 0x2603 DUP3 PUSH2 0x2344 JUMP JUMPDEST SWAP1 POP PUSH1 0x20 DUP2 ADD SWAP1 POP SWAP2 SWAP1 POP JUMP JUMPDEST DUP3 DUP2 DUP4 CALLDATACOPY PUSH0 DUP4 DUP4 ADD MSTORE POP POP POP JUMP JUMPDEST PUSH0 PUSH2 0x2630 PUSH2 0x262B DUP5 PUSH2 0x25E0 JUMP JUMPDEST PUSH2 0x25C6 JUMP JUMPDEST SWAP1 POP DUP3 DUP2 MSTORE PUSH1 0x20 DUP2 ADD DUP5 DUP5 DUP5 ADD GT ISZERO PUSH2 0x264C JUMPI PUSH2 0x264B PUSH2 0x2564 JUMP JUMPDEST JUMPDEST PUSH2 0x2657 DUP5 DUP3 DUP6 PUSH2 0x2610 JUMP JUMPDEST POP SWAP4 SWAP3 POP POP POP JUMP JUMPDEST PUSH0 DUP3 PUSH1 0x1F DUP4 ADD SLT PUSH2 0x2673 JUMPI PUSH2 0x2672 PUSH2 0x2560 JUMP JUMPDEST JUMPDEST DUP2 CALLDATALOAD PUSH2 0x2683 DUP5 DUP3 PUSH1 0x20 DUP7 ADD PUSH2 0x261E JUMP JUMPDEST SWAP2 POP POP SWAP3 SWAP2 POP POP JUMP JUMPDEST PUSH0 PUSH1 0x20 DUP3 DUP5 SUB SLT ISZERO PUSH2 0x26A1 JUMPI PUSH2 0x26A0 PUSH2 0x228C JUMP JUMPDEST JUMPDEST PUSH0 DUP3 ADD CALLDATALOAD PUSH8 0xFFFFFFFFFFFFFFFF DUP2 GT ISZERO PUSH2 0x26BE JUMPI PUSH2 0x26BD PUSH2 0x2290 JUMP JUMPDEST JUMPDEST PUSH2 0x26CA DUP5 DUP3 DUP6 ADD PUSH2 0x265F JUMP JUMPDEST SWAP2 POP POP SWAP3 SWAP2 POP POP JUMP JUMPDEST PUSH32 0x4E487B7100000000000000000000000000000000000000000000000000000000 PUSH0 MSTORE PUSH1 0x21 PUSH1 0x4 MSTORE PUSH1 0x24 PUSH0 REVERT JUMPDEST PUSH1 0x5 DUP2 LT PUSH2 0x2711 JUMPI PUSH2 0x2710 PUSH2 0x26D3 JUMP JUMPDEST JUMPDEST POP JUMP JUMPDEST PUSH0 DUP2 SWAP1 POP PUSH2 0x2721 DUP3 PUSH2 0x2700 JUMP JUMPDEST SWAP2 SWAP1 POP JUMP JUMPDEST PUSH0 PUSH2 0x2730 DUP3 PUSH2 0x2714 JUMP JUMPDEST SWAP1 POP SWAP2 SWAP1 POP JUMP JUMPDEST PUSH2 0x2740 DUP2 PUSH2 0x2726 JUMP JUMPDEST DUP3 MSTORE POP POP JUMP JUMPDEST PUSH0 PUSH1 0x20 DUP3 ADD SWAP1 POP PUSH2 0x2759 PUSH0 DUP4 ADD DUP5 PUSH2 0x2737 JUMP JUMPDEST SWAP3 SWAP2 POP POP JUMP JUMPDEST PUSH0 PUSH1 0xA0 DUP3 ADD SWAP1 POP PUSH2 0x2772 PUSH0 DUP4 ADD DUP9 PUSH2 0x21A7 JUMP JUMPDEST PUSH2 0x277F PUSH1 0x20 DUP4 ADD DUP8 PUSH2 0x22F4 JUMP JUMPDEST PUSH2 0x278C PUSH1 0x40 DUP4 ADD DUP7 PUSH2 0x22F4 JUMP JUMPDEST PUSH2 0x2799 PUSH1 0x60 DUP4 ADD DUP6 PUSH2 0x21A7 JUMP JUMPDEST DUP2 DUP2 SUB PUSH1 0x80 DUP4 ADD MSTORE PUSH2 0x27AB DUP2 DUP5 PUSH2 0x2354 JUMP JUMPDEST SWAP1 POP SWAP7 SWAP6 POP POP POP POP POP POP JUMP JUMPDEST PUSH32 0x4E487B7100000000000000000000000000000000000000000000000000000000 PUSH0 MSTORE PUSH1 0x32 PUSH1 0x4 MSTORE PUSH1 0x24 PUSH0 REVERT JUMPDEST PUSH32 0x416C72656164792072656C656173656400000000000000000000000000000000 PUSH0 DUP3 ADD MSTORE POP JUMP JUMPDEST PUSH0 PUSH2 0x2818 PUSH1 0x10 DUP4 PUSH2 0x2326 JUMP JUMPDEST SWAP2 POP PUSH2 0x2823 DUP3 PUSH2 0x27E4 JUMP JUMPDEST PUSH1 0x20 DUP3 ADD SWAP1 POP SWAP2 SWAP1 POP JUMP JUMPDEST PUSH0 PUSH1 0x20 DUP3 ADD SWAP1 POP DUP2 DUP2 SUB PUSH0 DUP4 ADD MSTORE PUSH2 0x2845 DUP2 PUSH2 0x280C JUMP JUMPDEST SWAP1 POP SWAP2 SWAP1 POP JUMP JUMPDEST PUSH32 0x4D696C6573746F6E652063616E63656C6C656400000000000000000000000000 PUSH0 DUP3 ADD MSTORE POP JUMP JUMPDEST PUSH0 PUSH2 0x2880 PUSH1 0x13 DUP4 PUSH2 0x2326 JUMP JUMPDEST SWAP2 POP PUSH2 0x288B DUP3 PUSH2 0x284C JUMP JUMPDEST PUSH1 0x20 DUP3 ADD SWAP1 POP SWAP2 SWAP1 POP JUMP JUMPDEST PUSH0 PUSH1 0x20 DUP3 ADD SWAP1 POP DUP2 DUP2 SUB PUSH0 DUP4 ADD MSTORE PUSH2 0x28AD DUP2 PUSH2 0x2874 JUMP JUMPDEST SWAP1 POP SWAP2 SWAP1 POP JUMP JUMPDEST PUSH32 0x4E487B7100000000000000000000000000000000000000000000000000000000 PUSH0 MSTORE PUSH1 0x11 PUSH1 0x4 MSTORE PUSH1 0x24 PUSH0 REVERT JUMPDEST PUSH0 PUSH2 0x28EB DUP3 PUSH2 0x219E JUMP JUMPDEST SWAP2 POP PUSH2 0x28F6 DUP4 PUSH2 0x219E JUMP JUMPDEST SWAP3 POP DUP3 DUP3 ADD SWAP1 POP DUP1 DUP3 GT ISZERO PUSH2 0x290E JUMPI PUSH2 0x290D PUSH2 0x28B4 JUMP JUMPDEST JUMPDEST SWAP3 SWAP2 POP POP JUMP JUMPDEST PUSH0 PUSH2 0x291E DUP3 PUSH2 0x219E JUMP JUMPDEST SWAP2 POP PUSH2 0x2929 DUP4 PUSH2 0x219E JUMP JUMPDEST SWAP3 POP DUP3 DUP3 MUL PUSH2 0x2937 DUP2 PUSH2 0x219E JUMP JUMPDEST SWAP2 POP DUP3 DUP3 DIV DUP5 EQ DUP4 ISZERO OR PUSH2 0x294E JUMPI PUSH2 0x294D PUSH2 0x28B4 JUMP JUMPDEST JUMPDEST POP SWAP3 SWAP2 POP POP JUMP JUMPDEST PUSH32 0x4E487B7100000000000000000000000000000000000000000000000000000000 PUSH0 MSTORE PUSH1 0x12 PUSH1 0x4 MSTORE PUSH1 0x24 PUSH0 REVERT JUMPDEST PUSH0 PUSH2 0x298C DUP3 PUSH2 0x219E JUMP JUMPDEST SWAP2 POP PUSH2 0x2997 DUP4 PUSH2 0x219E JUMP JUMPDEST SWAP3 POP DUP3 PUSH2 0x29A7 JUMPI PUSH2 0x29A6 PUSH2 0x2955 JUMP JUMPDEST JUMPDEST DUP3 DUP3 DIV SWAP1 POP SWAP3 SWAP2 POP POP JUMP JUMPDEST PUSH0 PUSH2 0x29BC DUP3 PUSH2 0x219E JUMP JUMPDEST SWAP2 POP PUSH2 0x29C7 DUP4 PUSH2 0x219E JUMP JUMPDEST SWAP3 POP DUP3 DUP3 SUB SWAP1 POP DUP2 DUP2 GT ISZERO PUSH2 0x29DF JUMPI PUSH2 0x29DE PUSH2 0x28B4 JUMP JUMPDEST JUMPDEST SWAP3 SWAP2 POP POP JUMP JUMPDEST PUSH0 PUSH1 0x40 DUP3 ADD SWAP1 POP PUSH2 0x29F8 PUSH0 DUP4 ADD DUP6 PUSH2 0x21A7 JUMP JUMPDEST PUSH2 0x2A05 PUSH1 0x20 DUP4 ADD DUP5 PUSH2 0x21A7 JUMP JUMPDEST SWAP4 SWAP3 POP POP POP JUMP JUMPDEST PUSH32 0x4E487B7100000000000000000000000000000000000000000000000000000000 PUSH0 MSTORE PUSH1 0x22 PUSH1 0x4 MSTORE PUSH1 0x24 PUSH0 REVERT JUMPDEST PUSH0 PUSH1 0x2 DUP3 DIV SWAP1 POP PUSH1 0x1 DUP3 AND DUP1 PUSH2 0x2A50 JUMPI PUSH1 0x7F DUP3 AND SWAP2 POP JUMPDEST PUSH1 0x20 DUP3 LT DUP2 SUB PUSH2 0x2A63 JUMPI PUSH2 0x2A62 PUSH2 0x2A0C JUMP JUMPDEST JUMPDEST POP SWAP2 SWAP1 POP JUMP JUMPDEST PUSH0 DUP2 MLOAD SWAP1 POP PUSH2 0x2A77 DUP2 PUSH2 0x2294 JUMP JUMPDEST SWAP3 SWAP2 POP POP JUMP JUMPDEST PUSH0 PUSH1 0x20 DUP3 DUP5 SUB SLT ISZERO PUSH2 0x2A92 JUMPI PUSH2 0x2A91 PUSH2 0x228C JUMP JUMPDEST JUMPDEST PUSH0 PUSH2 0x2A9F DUP5 DUP3 DUP6 ADD PUSH2 0x2A69 JUMP JUMPDEST SWAP2 POP POP SWAP3 SWAP2 POP POP JUMP JUMPDEST PUSH32 0x4E6F7420617574686F72697A6564000000000000000000000000000000000000 PUSH0 DUP3 ADD MSTORE POP JUMP JUMPDEST PUSH0 PUSH2 0x2ADC PUSH1 0xE DUP4 PUSH2 0x2326 JUMP JUMPDEST SWAP2 POP PUSH2 0x2AE7 DUP3 PUSH2 0x2AA8 JUMP JUMPDEST PUSH1 0x20 DUP3 ADD SWAP1 POP SWAP2 SWAP1 POP JUMP JUMPDEST PUSH0 PUSH1 0x20 DUP3 ADD SWAP1 POP DUP2 DUP2 SUB PUSH0 DUP4 ADD MSTORE PUSH2 0x2B09 DUP2 PUSH2 0x2AD0 JUMP JUMPDEST SWAP1 POP SWAP2 SWAP1 POP JUMP JUMPDEST PUSH32 0x33302064617973206E6F74207061737365640000000000000000000000000000 PUSH0 DUP3 ADD MSTORE POP JUMP JUMPDEST PUSH0 PUSH2 0x2B44 PUSH1 0x12 DUP4 PUSH2 0x2326 JUMP JUMPDEST SWAP2 POP PUSH2 0x2B4F DUP3 PUSH2 0x2B10 JUMP JUMPDEST PUSH1 0x20 DUP3 ADD SWAP1 POP SWAP2 SWAP1 POP JUMP JUMPDEST PUSH0 PUSH1 0x20 DUP3 ADD SWAP1 POP DUP2 DUP2 SUB PUSH0 DUP4 ADD MSTORE PUSH2 0x2B71 DUP2 PUSH2 0x2B38 JUMP JUMPDEST SWAP1 POP SWAP2 SWAP1 POP JUMP JUMPDEST PUSH32 0x416C72656164792063616E63656C6C6564000000000000000000000000000000 PUSH0 DUP3 ADD MSTORE POP JUMP JUMPDEST PUSH0 PUSH2 0x2BAC PUSH1 0x11 DUP4 PUSH2 0x2326 JUMP JUMPDEST SWAP2 POP PUSH2 0x2BB7 DUP3 PUSH2 0x2B78 JUMP JUMPDEST PUSH1 0x20 DUP3 ADD SWAP1 POP SWAP2 SWAP1 POP JUMP JUMPDEST PUSH0 PUSH1 0x20 DUP3 ADD SWAP1 POP DUP2 DUP2 SUB PUSH0 DUP4 ADD MSTORE PUSH2 0x2BD9 DUP2 PUSH2 0x2BA0 JUMP JUMPDEST SWAP1 POP SWAP2 SWAP1 POP JUMP JUMPDEST PUSH32 0x4E6F20646561646C696E65207365740000000000000000000000000000000000 PUSH0 DUP3 ADD MSTORE POP JUMP JUMPDEST PUSH0 PUSH2 0x2C14 PUSH1 0xF DUP4 PUSH2 0x2326 JUMP JUMPDEST SWAP2 POP PUSH2 0x2C1F DUP3 PUSH2 0x2BE0 JUMP JUMPDEST PUSH1 0x20 DUP3 ADD SWAP1 POP SWAP2 SWAP1 POP JUMP JUMPDEST PUSH0 PUSH1 0x20 DUP3 ADD SWAP1 POP DUP2 DUP2 SUB PUSH0 DUP4 ADD MSTORE PUSH2 0x2C41 DUP2 PUSH2 0x2C08 JUMP JUMPDEST SWAP1 POP SWAP2 SWAP1 POP JUMP JUMPDEST PUSH32 0x446561646C696E65206E6F742070617373656400000000000000000000000000 PUSH0 DUP3 ADD MSTORE POP JUMP JUMPDEST PUSH0 PUSH2 0x2C7C PUSH1 0x13 DUP4 PUSH2 0x2326 JUMP JUMPDEST SWAP2 POP PUSH2 0x2C87 DUP3 PUSH2 0x2C48 JUMP JUMPDEST PUSH1 0x20 DUP3 ADD SWAP1 POP SWAP2 SWAP1 POP JUMP JUMPDEST PUSH0 PUSH1 0x20 DUP3 ADD SWAP1 POP DUP2 DUP2 SUB PUSH0 DUP4 ADD MSTORE PUSH2 0x2CA9 DUP2 PUSH2 0x2C70 JUMP JUMPDEST SWAP1 POP SWAP2 SWAP1 POP JUMP JUMPDEST PUSH32 0x5265656E7472616E637947756172643A207265656E7472616E742063616C6C00 PUSH0 DUP3 ADD MSTORE POP JUMP JUMPDEST PUSH0 PUSH2 0x2CE4 PUSH1 0x1F DUP4 PUSH2 0x2326 JUMP JUMPDEST SWAP2 POP PUSH2 0x2CEF DUP3 PUSH2 0x2CB0 JUMP JUMPDEST PUSH1 0x20 DUP3 ADD SWAP1 POP SWAP2 SWAP1 POP JUMP JUMPDEST PUSH0 PUSH1 0x20 DUP3 ADD SWAP1 POP DUP2 DUP2 SUB PUSH0 DUP4 ADD MSTORE PUSH2 0x2D11 DUP2 PUSH2 0x2CD8 JUMP JUMPDEST SWAP1 POP SWAP2 SWAP1 POP JUMP JUMPDEST PUSH0 PUSH1 0x60 DUP3 ADD SWAP1 POP PUSH2 0x2D2B PUSH0 DUP4 ADD DUP7 PUSH2 0x218F JUMP JUMPDEST PUSH2 0x2D38 PUSH1 0x20 DUP4 ADD DUP6 PUSH2 0x218F JUMP JUMPDEST PUSH2 0x2D45 PUSH1 0x40 DUP4 ADD DUP5 PUSH2 0x21A7 JUMP JUMPDEST SWAP5 SWAP4 POP POP POP POP JUMP INVALID LOG2 PUSH5 0x6970667358 0x22 SLT KECCAK256 0xC6 RETURNDATASIZE 0xC CREATE2 DUP12 SMOD DUP2 DUP3 COINBASE EXTCODESIZE DUP15 0xC4 0xDD 0xD9 SLT 0xA7 MSTORE8 CODESIZE MSIZE 0xB3 0x2E SWAP15 0xF6 EXTCODEHASH 0xDA 0xCA PUSH6 0x30A66C51D364 PUSH20 0x6F6C634300081E00330000000000000000000000 "
		},
		"gasEstimates": {
			"creation": {
				"codeDepositCost": "2330200",
				"executionCost": "infinite",
				"totalCost": "infinite"
			},
			"external": {
				"FEE_BASIS_POINTS()": "392",
				"FEE_RECIPIENT()": "461",
				"calculateFee(uint256)": "infinite",
				"cancelMilestone(uint256)": "infinite",
				"cancelProject()": "infinite",
				"developer()": "infinite",
				"disputeRaisedAt()": "2470",
				"fund()": "infinite",
				"funder()": "infinite",
				"getContractBalance()": "infinite",
				"getFeeInfo()": "516",
				"getMilestones()": "infinite",
				"getNetAmount(uint256)": "infinite",
				"getRemainingBalance()": "infinite",
				"getStatus()": "infinite",
				"isDisputeExpired()": "infinite",
				"milestoneCount()": "2508",
				"milestones(uint256)": "infinite",
				"paymentToken()": "infinite",
				"raiseDispute(string)": "infinite",
				"releaseMilestone(uint256)": "infinite",
				"releasedAmount()": "2470",
				"resolveDisputeToDeveloper()": "infinite",
				"resolveDisputeToFunder()": "infinite",
				"state()": "2621",
				"totalAmount()": "2515",
				"totalFeesCollected()": "2536"
			},
			"internal": {
				"_checkCancellation()": "infinite",
				"_checkCompletion()": "infinite",
				"_getRemainingBalance()": "infinite"
			}
		},
		"methodIdentifiers": {
			"FEE_BASIS_POINTS()": "a525ad3c",
			"FEE_RECIPIENT()": "ebd09054",
			"calculateFee(uint256)": "99a5d747",
			"cancelMilestone(uint256)": "f75fdcaa",
			"cancelProject()": "1adff0ee",
			"developer()": "ca4b208b",
			"disputeRaisedAt()": "b95d8dd4",
			"fund()": "b60d4288",
			"funder()": "041ae880",
			"getContractBalance()": "6f9fb98a",
			"getFeeInfo()": "0002eab7",
			"getMilestones()": "629e4ed0",
			"getNetAmount(uint256)": "dca78388",
			"getRemainingBalance()": "2fba2c85",
			"getStatus()": "4e69d560",
			"isDisputeExpired()": "3ddb47b4",
			"milestoneCount()": "0681ca55",
			"milestones(uint256)": "e89e4ed6",
			"paymentToken()": "3013ce29",
			"raiseDispute(string)": "725a3b4b",
			"releaseMilestone(uint256)": "317debf5",
			"releasedAmount()": "45d30a17",
			"resolveDisputeToDeveloper()": "b4f5a711",
			"resolveDisputeToFunder()": "5ac482d1",
			"state()": "c19d93fb",
			"totalAmount()": "1a39d8ef",
			"totalFeesCollected()": "60c6d8ae"
		}
	},
	"abi": [
		{
			"inputs": [
				{
					"internalType": "address",
					"name": "_funder",
					"type": "address"
				},
				{
					"internalType": "address",
					"name": "_developer",
					"type": "address"
				},
				{
					"internalType": "address",
					"name": "_token",
					"type": "address"
				},
				{
					"internalType": "uint256[]",
					"name": "_milestoneAmounts",
					"type": "uint256[]"
				},
				{
					"internalType": "uint256[]",
					"name": "_milestoneDeadlines",
					"type": "uint256[]"
				},
				{
					"internalType": "string[]",
					"name": "_milestoneDescriptions",
					"type": "string[]"
				}
			],
			"stateMutability": "nonpayable",
			"type": "constructor"
		},
		{
			"inputs": [],
			"name": "AlreadyFunded",
			"type": "error"
		},
		{
			"inputs": [],
			"name": "AlreadyReleased",
			"type": "error"
		},
		{
			"inputs": [],
			"name": "DeadlineNotPassed",
			"type": "error"
		},
		{
			"inputs": [],
			"name": "InvalidMilestone",
			"type": "error"
		},
		{
			"inputs": [],
			"name": "InvalidState",
			"type": "error"
		},
		{
			"inputs": [],
			"name": "NotDeveloper",
			"type": "error"
		},
		{
			"inputs": [],
			"name": "NotFunded",
			"type": "error"
		},
		{
			"inputs": [],
			"name": "NotFunder",
			"type": "error"
		},
		{
			"inputs": [
				{
					"internalType": "address",
					"name": "token",
					"type": "address"
				}
			],
			"name": "SafeERC20FailedOperation",
			"type": "error"
		},
		{
			"inputs": [],
			"name": "ZeroAddress",
			"type": "error"
		},
		{
			"inputs": [],
			"name": "ZeroAmount",
			"type": "error"
		},
		{
			"anonymous": false,
			"inputs": [
				{
					"indexed": true,
					"internalType": "address",
					"name": "by",
					"type": "address"
				},
				{
					"indexed": false,
					"internalType": "string",
					"name": "reason",
					"type": "string"
				}
			],
			"name": "DisputeRaised",
			"type": "event"
		},
		{
			"anonymous": false,
			"inputs": [
				{
					"indexed": false,
					"internalType": "bool",
					"name": "completed",
					"type": "bool"
				}
			],
			"name": "DisputeResolved",
			"type": "event"
		},
		{
			"anonymous": false,
			"inputs": [
				{
					"indexed": false,
					"internalType": "uint256",
					"name": "amount",
					"type": "uint256"
				},
				{
					"indexed": true,
					"internalType": "address",
					"name": "recipient",
					"type": "address"
				}
			],
			"name": "FeePaid",
			"type": "event"
		},
		{
			"anonymous": false,
			"inputs": [
				{
					"indexed": true,
					"internalType": "uint256",
					"name": "index",
					"type": "uint256"
				},
				{
					"indexed": false,
					"internalType": "uint256",
					"name": "amount",
					"type": "uint256"
				}
			],
			"name": "MilestoneCancelled",
			"type": "event"
		},
		{
			"anonymous": false,
			"inputs": [
				{
					"indexed": true,
					"internalType": "uint256",
					"name": "index",
					"type": "uint256"
				},
				{
					"indexed": false,
					"internalType": "uint256",
					"name": "amount",
					"type": "uint256"
				},
				{
					"indexed": false,
					"internalType": "uint256",
					"name": "feeAmount",
					"type": "uint256"
				}
			],
			"name": "MilestoneReleased",
			"type": "event"
		},
		{
			"anonymous": false,
			"inputs": [],
			"name": "ProjectCancelled",
			"type": "event"
		},
		{
			"anonymous": false,
			"inputs": [],
			"name": "ProjectCompleted",
			"type": "event"
		},
		{
			"anonymous": false,
			"inputs": [
				{
					"indexed": false,
					"internalType": "uint256",
					"name": "amount",
					"type": "uint256"
				}
			],
			"name": "ProjectFunded",
			"type": "event"
		},
		{
			"inputs": [],
			"name": "FEE_BASIS_POINTS",
			"outputs": [
				{
					"internalType": "uint256",
					"name": "",
					"type": "uint256"
				}
			],
			"stateMutability": "view",
			"type": "function"
		},
		{
			"inputs": [],
			"name": "FEE_RECIPIENT",
			"outputs": [
				{
					"internalType": "address",
					"name": "",
					"type": "address"
				}
			],
			"stateMutability": "view",
			"type": "function"
		},
		{
			"inputs": [
				{
					"internalType": "uint256",
					"name": "amount",
					"type": "uint256"
				}
			],
			"name": "calculateFee",
			"outputs": [
				{
					"internalType": "uint256",
					"name": "",
					"type": "uint256"
				}
			],
			"stateMutability": "pure",
			"type": "function"
		},
		{
			"inputs": [
				{
					"internalType": "uint256",
					"name": "index",
					"type": "uint256"
				}
			],
			"name": "cancelMilestone",
			"outputs": [],
			"stateMutability": "nonpayable",
			"type": "function"
		},
		{
			"inputs": [],
			"name": "cancelProject",
			"outputs": [],
			"stateMutability": "nonpayable",
			"type": "function"
		},
		{
			"inputs": [],
			"name": "developer",
			"outputs": [
				{
					"internalType": "address",
					"name": "",
					"type": "address"
				}
			],
			"stateMutability": "view",
			"type": "function"
		},
		{
			"inputs": [],
			"name": "disputeRaisedAt",
			"outputs": [
				{
					"internalType": "uint256",
					"name": "",
					"type": "uint256"
				}
			],
			"stateMutability": "view",
			"type": "function"
		},
		{
			"inputs": [],
			"name": "fund",
			"outputs": [],
			"stateMutability": "nonpayable",
			"type": "function"
		},
		{
			"inputs": [],
			"name": "funder",
			"outputs": [
				{
					"internalType": "address",
					"name": "",
					"type": "address"
				}
			],
			"stateMutability": "view",
			"type": "function"
		},
		{
			"inputs": [],
			"name": "getContractBalance",
			"outputs": [
				{
					"internalType": "uint256",
					"name": "",
					"type": "uint256"
				}
			],
			"stateMutability": "view",
			"type": "function"
		},
		{
			"inputs": [],
			"name": "getFeeInfo",
			"outputs": [
				{
					"internalType": "address",
					"name": "recipient",
					"type": "address"
				},
				{
					"internalType": "uint256",
					"name": "basisPoints",
					"type": "uint256"
				}
			],
			"stateMutability": "pure",
			"type": "function"
		},
		{
			"inputs": [],
			"name": "getMilestones",
			"outputs": [
				{
					"components": [
						{
							"internalType": "uint256",
							"name": "amount",
							"type": "uint256"
						},
						{
							"internalType": "bool",
							"name": "released",
							"type": "bool"
						},
						{
							"internalType": "bool",
							"name": "cancelled",
							"type": "bool"
						},
						{
							"internalType": "uint256",
							"name": "deadline",
							"type": "uint256"
						},
						{
							"internalType": "string",
							"name": "description",
							"type": "string"
						}
					],
					"internalType": "struct SimpleMilestoneEscrow.Milestone[]",
					"name": "",
					"type": "tuple[]"
				}
			],
			"stateMutability": "view",
			"type": "function"
		},
		{
			"inputs": [
				{
					"internalType": "uint256",
					"name": "amount",
					"type": "uint256"
				}
			],
			"name": "getNetAmount",
			"outputs": [
				{
					"internalType": "uint256",
					"name": "",
					"type": "uint256"
				}
			],
			"stateMutability": "pure",
			"type": "function"
		},
		{
			"inputs": [],
			"name": "getRemainingBalance",
			"outputs": [
				{
					"internalType": "uint256",
					"name": "",
					"type": "uint256"
				}
			],
			"stateMutability": "view",
			"type": "function"
		},
		{
			"inputs": [],
			"name": "getStatus",
			"outputs": [
				{
					"internalType": "string",
					"name": "",
					"type": "string"
				}
			],
			"stateMutability": "view",
			"type": "function"
		},
		{
			"inputs": [],
			"name": "isDisputeExpired",
			"outputs": [
				{
					"internalType": "bool",
					"name": "",
					"type": "bool"
				}
			],
			"stateMutability": "view",
			"type": "function"
		},
		{
			"inputs": [],
			"name": "milestoneCount",
			"outputs": [
				{
					"internalType": "uint256",
					"name": "",
					"type": "uint256"
				}
			],
			"stateMutability": "view",
			"type": "function"
		},
		{
			"inputs": [
				{
					"internalType": "uint256",
					"name": "",
					"type": "uint256"
				}
			],
			"name": "milestones",
			"outputs": [
				{
					"internalType": "uint256",
					"name": "amount",
					"type": "uint256"
				},
				{
					"internalType": "bool",
					"name": "released",
					"type": "bool"
				},
				{
					"internalType": "bool",
					"name": "cancelled",
					"type": "bool"
				},
				{
					"internalType": "uint256",
					"name": "deadline",
					"type": "uint256"
				},
				{
					"internalType": "string",
					"name": "description",
					"type": "string"
				}
			],
			"stateMutability": "view",
			"type": "function"
		},
		{
			"inputs": [],
			"name": "paymentToken",
			"outputs": [
				{
					"internalType": "contract IERC20",
					"name": "",
					"type": "address"
				}
			],
			"stateMutability": "view",
			"type": "function"
		},
		{
			"inputs": [
				{
					"internalType": "string",
					"name": "reason",
					"type": "string"
				}
			],
			"name": "raiseDispute",
			"outputs": [],
			"stateMutability": "nonpayable",
			"type": "function"
		},
		{
			"inputs": [
				{
					"internalType": "uint256",
					"name": "index",
					"type": "uint256"
				}
			],
			"name": "releaseMilestone",
			"outputs": [],
			"stateMutability": "nonpayable",
			"type": "function"
		},
		{
			"inputs": [],
			"name": "releasedAmount",
			"outputs": [
				{
					"internalType": "uint256",
					"name": "",
					"type": "uint256"
				}
			],
			"stateMutability": "view",
			"type": "function"
		},
		{
			"inputs": [],
			"name": "resolveDisputeToDeveloper",
			"outputs": [],
			"stateMutability": "nonpayable",
			"type": "function"
		},
		{
			"inputs": [],
			"name": "resolveDisputeToFunder",
			"outputs": [],
			"stateMutability": "nonpayable",
			"type": "function"
		},
		{
			"inputs": [],
			"name": "state",
			"outputs": [
				{
					"internalType": "enum SimpleMilestoneEscrow.ProjectState",
					"name": "",
					"type": "uint8"
				}
			],
			"stateMutability": "view",
			"type": "function"
		},
		{
			"inputs": [],
			"name": "totalAmount",
			"outputs": [
				{
					"internalType": "uint256",
					"name": "",
					"type": "uint256"
				}
			],
			"stateMutability": "view",
			"type": "function"
		},
		{
			"inputs": [],
			"name": "totalFeesCollected",
			"outputs": [
				{
					"internalType": "uint256",
					"name": "",
					"type": "uint256"
				}
			],
			"stateMutability": "view",
			"type": "function"
		}
	]
}